S01800004F70656E4165726F56544F4C5F325F312E737265638D
S11300000C94050D0C9480250C9448250C942B26F7
S11300100C942B0D0C94F2250C942B0D0C94B925F7
S11300200C942B0D0C942B0D0C942B0D0C942B0D6C
S11300300C942B0D0C942B0D0C942B0D0C942B0D5C
S11300400C942B0D0C942B0D0C9431250C942B0D2E
S11300500C94ED260C942B0D0C942B0D0C942B0D61
S11300600C942B0D0C942B0D0C942B0D0C942B0D2C
S11300700C94ED260C942B0D0C942B0D532C552C19
S1130080592C5C2C5F2C622C652C672C6B2C6D2CF2
S11300906F2C712C732C752C772C792C7D2C7F2C48
S11300A0812CFFFF01FF01FF01FFFF010101FF019F
S11300B001FFFFFF00010202000100010200010232
S11300C00100020002010102000304050607000109
S11300D002030405060705020601050803070501D6
S11300E00241050D000F002200330044004F0901B6
S11300F000030007000F001F000F000700030001AA
S113010000081C001C001C001C007F003E001C009A
S113011008000808001C003E007F001C001C001C96
S1130120001C0005FF01FE007C00380010000D409B
S1130130006000700078007C007E007F007E007C00
S11301400078007000600040000102205B1300BBD7
S113015000C500CC00CC00CC00CC0103010301039A
S113016001160129012901290136014901500150D3
S1130170016F018801A401C001DF01FB021A0236EC
S113018002550274027B027B027B027B027B029497
S1130190029402BC02DB02FD0322033E035A0382E3
S11301A003A103B403CA03EC0408042D044C04742F
S11301B0048D04B504D704F9051E053D05650599AC
S11301C005BB05E006020602061B061B061B061BF2
S11301D0061B063406500669068506A106B406D039
S11301E006E906F00700071C0723074E0767078682
S11301F007A207BE07D107EA07FD08160832085D03
S1130200087908950300000000000000000002FEC9
S11302106700FE670012780000FE01000201000280
S11302200100020100FE4100787000001C0000077C
S113023000E000003800000E1E00827F00804000B5
S1130240804000804000807F00001E0006C01F0028
S1130250F8FF003CE0010700070300060100040664
S11302600100040300060700073CE001F8FF00C09A
S11302701F000400000300F00300700000100006DB
S1130280000300000300000300000300000300005B
S11302900300020070000070000AF00F00FC3F0031
S11302A00C30000660000660000660000660000C6A
S11302B03000FC3F00F00F000818600018600018C0
S11302C06000FE7F00FE7F000060000060000060B0
S11302D000090C7000067800066C000666000663D0
S11302E0008E6100FC6000786000006000090C3042
S11302F00006600006600086610086610086610079
S1130300CE73007C3F00381E000A000700800700FF
S1130310C00700F006003806001C0600FE7F00FE41
S11303207F0000060000060009003000FE6000FEA9
S11303306000C66000C66000C66000C63100863F2B
S113034000060F000AE00F00F03F009C3000CC6074
S113035000C66000C66000C66000C63100863F006B
S1130360000F0009060000064000067000067C002D
S1130370060F00C60300F600003E00000E00000A4F
S1130380381E007C3F00CE7100C66000C660008647
S113039061008661004E73007C3F00381E000AF045
S11303A00000FC61008C63000663000663000663C2
S11303B0000633000C3900FC1F00F00700027070C7
S11303C000707000080C0000060000066700066755
S11303D000860100CE0000FC00003800000D004043
S11303E000007800003F00C00700F806003E060049
S11303F00606003E0600F80600C00700003F0000A5
S113040078000040000AFE7F00FE7F0086610086BF
S11304106100866100866100C661007C73003C3F18
S113042000001E000BE00700F81F001C38000C3011
S113043000066000066000066000066000066000BA
S11304400620000C30000CFE7F00FE7F00066000DA
S11304500660000660000660000660000E70000C76
S11304603000381C00F80F00E0070009FE7F00FE92
S11304707F00C66000C66000C66000C66000C6603B
S113048000C66000C6600009FE7F00FE7F00860192
S113049000860100860100860100860100860100B5
S11304A00600000DE00700F81F003C3C000C300083
S11304B00E70000660000660000663000663000616
S11304C063000663000C3F000C3F000AFE7F00FE41
S11304D07F00C00000C00000C00000C00000C000D9
S11304E000C00000FE7F00FE7F000606600006607C
S11304F000FE7F00FE7F00066000066000070060CB
S113050000006000066000066000067000FE3F0008
S1130510FE1F000BFE7F00FE7F00800300C0010071
S1130520E00300700700381C001C38000E70000641
S1130530600002400009FE7F00FE7F0000600000B2
S11305406000006000006000006000006000006067
S1130550000CFE7F00FE7F000E0000380000E0016A
S113056000800700000700E001003800000E0000D2
S1130570FE7F00FE7F000AFE7F00FE7F000E00006B
S11305803C0000E00000800300001E00007800FE34
S11305907F00FE7F000DE00700F81F001C38000CF0
S11305A03000066000066000066000066000066019
S11305B0000C30001C3800F81F00E0070008FE7F24
S11305C000FE7F000603000603000603008E0300FE
S11305D0FC0100F800000DE00700F81F001C3800C3
S11305E00C300006600006600006600006E00106AC
S11305F0E0030C30071C3806F81F06E007060BFE64
S11306007F00FE7F008601008601008601008607C8
S113061000CE0E00FC1C007870000060000040005A
S11306200B783000FC7000CE6000866100866100AB
S11306308661008661008661000633000C3F00007D
S11306401E000C060000060000060000060000065E
S11306500000FE7F00FE7F0006000006000006008A
S1130660000600000600000AFE0F00FE3F000070B6
S11306700000600000600000600000600000700086
S1130680FE3F00FE0F000D0200001E0000FC0000F3
S1130690E00300801F00007C00006000007C0080FC
S11306A01F00E00300FC00001E0000020000110611
S11306B000007E0000F80700803F00007800007C06
S11306C000C00F007E00000600007E0000E007006E
S11306D0007E00007000807F00F807007E000006A6
S11306E000000B0240000660001E7800381C00E089
S11306F00700800100E00700381E001E7800066035
S1130700000240000C0200000600001E00007800F9
S113071000E00000C07F00C07F00E000007800001F
S11307201E00000600000200000B067000067800A0
S1130730067C00066E00066700C66300E66000766D
S113074060003E60001E60000E6000080300001F91
S11307500000FE0000F00700803F0000FC0100E004
S11307600300000308003C00307E00306700306363
S113077000306300303300E07F00E07F0009FF7F3A
S113078000FF7F00602000306000306000306000B7
S1130790707000E03F00C00F0008800F00E03F00D1
S11307A06030003060003060003060003060006015
S11307B0300009801F00E03F00707000306000309E
S11307C06000306000303000FF7F00FF7F00098050
S11307D00F00E03F0060330030630030630030639B
S11307E000706300E06300C0330006300000FE7F49
S11307F000FF7F0033000033000003000009801F66
S113080000E03F0670700630600630600630600617
S1130810303007F0FF03F0FF0108FF7F00FF7F0087
S1130820600000300000300000300000F07F00E085
S11308307F0002F67F00F67F000500000630000608
S1130840300006F6FF07F6FF0309FF7F00FF7F0075
S1130850000600000700800F00C0380070700030F0
S1130860600010400002FF7F00FF7F000EF07F0059
S1130870F07F00600000300000300000300000F025
S11308807F00E07F00600000300000300000300096
S113089000F07F00E07F0008F07F00F07F00600040
S11308A000300000300000300000F07F00E07F00E6
S11308B00A800F00E03F00603000306000306000CC
S11308C0306000306000603000E03F00800F0009BD
S11308D0F0FF07F0FF076060003060003060003018
S11308E06000707000E03F00C00F0009801F00E04E
S11308F03F007070003060003060003060003030C5
S113090000F0FF07F0FF0706F07F00F07F006000B3
S11309100030000030000030000008C03100E06307
S113092000306300306300306600306600303E0003
S1130930601C0006300000FE3F00FE7F00306000B7
S113094030600030600008F01F00F07F000060009D
S1130950006000006000003000F07F00F07F0009BC
S1130960100000F00000E00700003E0000600000FE
S11309703E00E00700F000001000000E300000F020
S11309800300C03F00007800007C00800700F000F6
S113099000F00000C00700003C00007000C03F00F1
S11309A0F0030030000009104000306000F07800CF
S11309B0C01D00000700C01D00F07800306000106A
S11309C0400009100000F00000E0070600BF070027
S11309D0F001003F00E00700F000001000000830C4
S11309E07000307800307C00306600306300F061C5
S11309F000F060007060000102205B0B00BB00BED1
S1130A0000C100C100C100C100D600D600D600DD7F
S1130A1000E400E400E400E900F000F300F300FE69
S1130A2001090114011F012C01370142014D015834
S1130A30016301660166016601660166016F016F6B
S1130A40017C0189019801A701B201BD01CC01D942
S1130A5001E001E901F602010210021D022C023735
S1130A60024602530260026F027C0289029C02A9C0
S1130A7002B802C502C502C502C502C502C502C547
S1130A8002D002DB02E602F102FC03050310031BA1
S1130A90031E03250330033303460351035C03673A
S1130AA00372037B0384038D039803A303B203BD82
S1130AB003C8010000017E010A0C00120012008C20
S1130AC00160001800C60020012001C00003F800E6
S1130AD0060301040301040603F800020004800372
S1130AE00320002000200001800105FC0002010217
S1130AF0010201FC000504010401FE0100010001E2
S1130B000584014201220112010C01058400020145
S1130B1012011201EC00066000500048004400FE7F
S1130B20014000059E00120112011201E20005F8C5
S1130B3000140112011201E00005020082016200AA
S1130B401A00060005EC00120112011201EC000566
S1130B501C0022012201A2007C0001980104020071
S1130B60620112000C0006C00178004600460078BD
S1130B7000C00106FE011201120112011C01E00075
S1130B8007780084000201020102010201840007C7
S1130B90FE0102010201020102018400780005FE47
S1130BA001120112011201120105FE0112001200CC
S1130BB012000200077800840002010201220122CF
S1130BC001E40006FE011000100010001000FE01F8
S1130BD0030201FE01020104000102010201FE0000
S1130BE006FE012000300048008400020105FE01D9
S1130BF0000100010001000107FE01060018006069
S1130C000018000600FE0106FE0106001800600040
S1130C108001FE01077800840002010201020184C0
S1130C2000780005FE012200220022001C00077843
S1130C300084000201020102038404780406FE0118
S1130C402200220062009C000001068C00120112A6
S1130C500122012201C40007020002000200FE0179
S1130C6002000200020006FE000001000100010073
S1130C7001FE00060E0070008001800170000E006D
S1130C800906007800800178000600780080017869
S1130C900006000686014800300030004800860146
S1130CA007020004000800F0010800040002000626
S1130CB082014201220112010A01060105C0002835
S1130CC00128012801F00105FF01080108010801BC
S1130CD0F00005F000080108010801900005F0008B
S1130CE0080108010801FF0105F000280128012876
S1130CF001B000040800FE010900090005F0000825
S1130D000508050805F80305FF01080008000800A8
S1130D10F00101F9010300040804F90305FF01408F
S1130D200060009000080101FF0109F801080008B3
S1130D30000800F001080008000800F00105F801AF
S1130D40080008000800F00105F000080108010887
S1130D5001F00005F807080108010801F00005F09A
S1130D6000080108010801F80704F8011000080050
S1130D70080004300128014801C800040800FE00EE
S1130D800801080105F800000100010001F801054F
S1130D90180060008001600018000778008001607E
S1130DA000180060008001780005080190006000D0
S1130DB09000080105080070048003700008000416
S1130DC08801480128011801AF40A0A6A4A2EEC8DA
S1130DD02F24AC00F80007060504030201001011DB
S1130DE00A11FE102C1726179C141D171B17191710
S1130DF00117F916FF16FD16FB16F416EF16EA1680
S1130E00E5161A113A1135112F1143140B17031754
S1130E10771594158F15891585158115DE0F8011A9
S1130E207711881170116B11EE0FE90FE40FDF0FCA
S1130E30FE0FF80FF20F27101F10AC11A611A81304
S1130E40A313A01396138C13DE0FDE0F1A109F1139
S1130E509A119111F0107C15E41032142E142814F8
S1130E601F14DE0FDE0FA814A51435103C10DE0F7E
S1130E702311DE0F47114011DA16C816B516A31652
S1130E808D167E166A165616481639162A161B161D
S1130E900C16FD15EE15DF15CB15B2159915DE0FE1
S1130EA0DE0FEE0FE90FE40F1010DF0F15105711CE
S1130EB088118011771170116B11661161115C1129
S1130EC0571150114A1116140F1423112D101A1012
S1130ED0BE10B210DE0F6F1066105D105910501066
S1130EE04810DE0FDE0FDE0F10172711D710C910C0
S1130EF0C410AA109F10DE0F41103C10DE0FDE0F4D
S1130F00DE0F8F15891585159C1492148714781497
S1130F106A145B144E14431437140214F813F013B8
S1130F20E313AB13D913CF13C513B9130310DE0F97
S1130F30DE0F63155B154D154015321527151E156B
S1130F4015150615F814E914DD14D614CF14C214BB
S1130F50B614AC146B15DE0FDE0F8413791368130B
S1130F605B13501340133013211311130113F112A7
S1130F70E112D112C112B312A512961287127A127B
S1130F806D126112551249123C12321228121B12B0
S1130F9010120312F811EB111012DE11F811DE0F0A
S1130FA0DE0FDE0FDE0FDE0FDE0F9A1095109010AD
S1130FB08B10861081107C107710881180117711A6
S1130FC070116B11661161115C11D511CB11C31134
S1130FD0BB11B2115711DE0FDE0FDE0FDE0F00342E
S1130FE034487A003231487A003130487A00354842
S1130FF07A00323630487A00313834487A0039344D
S1131000487A004D505536303530204C50463A0021
S11310103332487A003734487A00486967680041B7
S1131020726D61626C650041726D65640053796E26
S113103063205243005363616C6564005265762EED
S1131040004E6F726D616C00506974636855700076
S113105053696465776179730041667400496E76FB
S1131060657274656400566572746963616C0046E8
S11310706F7277617264004F555438004F5554377E
S1131080004F555436004F555435004F55543400D5
S11310904F555433004F555432004F5554310028A6
S11310A044697361726D656429002841726D6564D9
S11310B02900666F72207374617475732E00507208
S11310C065737300446F6E6500486F6C64206173D0
S11310D02073686F776E004E6F20525820736967D3
S11310E06E616C0043616C2E206661696C656400FE
S11310F04553432043616C69627261746500486FB3
S11311006C6420737465616479005265736574005E
S11311104F70656E4165726F320044697361726D20
S11311206564004C6F770042617474657279004D98
S11311306F64656C004C6F7374004572726F72005B
S11311405369676E616C004E6F00456C65762E00C6
S11311505468726F742E004E6F6E6500415558339B
S113116000415558320041555831004765617200BD
S113117052756464657200456C657661746F7200C3
S113118041696C65726F6E005468726F74746C653B
S1131190005371727453696E650053696E65004C37
S11311A0696E656172004D6F746F7200536572767B
S11311B06F00416363506974636800416363526FF5
S11311C06C6C004779726F596177004779726F5080
S11311D069746368004779726F526F6C6C005032A7
S11311E020536F7572636520423A00503120536F6B
S11311F07572636520423A00503220566F6C756DEB
S1131200653A00503220536F7572636520413A008D
S1131210503120566F6C756D653A00503120536F14
S11312207572636520413A005032205A206163632D
S11312303A005031205A206163633A005032205002
S11312406974636820414C3A0050312050697463DA
S11312506820414C00503220526F6C6C20414C3A53
S113126000503120526F6C6C20414C3A00503220B7
S1131270596177206779726F3A005031205961774C
S1131280206779726F3A0050322050697463682085
S11312906779726F3A00503120506974636820672F
S11312A079726F3A00503220526F6C6C20677972F9
S11312B06F3A00503120526F6C6C206779726F3A2C
S11312C0005032205275642E20766F6C756D653A2D
S11312D0005031205275642E20766F6C756D653A1E
S11312E000503220456C652E20766F6C756D653A22
S11312F000503120456C652E20766F6C756D653A13
S11313000050322041696C2E20766F6C756D653A01
S11313100050312041696C2E20766F6C756D653AF2
S1131320005468726F74746C65206375727665001E
S11313305032205468722E20766F6C756D653A00B9
S11313405031205468722E20766F6C756D653A00AA
S11313505032204F66667365743A0050312E6E2009
S11313604F66667365743A0050312E6E2025206FE7
S113137066207472616E733A005031204F66667352
S113138065743A004465766963653A0050312E6E9F
S1131390202D205032005031202D2050312E6E004F
S11313A050320050312E6E005031004261742E20B4
S11313B04C5641207831303A00414C20636F7272B0
S11313C06563743A004779726F204C50463A004185
S11313D063632E204C50463A0050574D207261747E
S11313E0653A0044697361726D2074696D653A00F1
S11313F05361666574793A00436F6E7472617374F5
S11314003A004F7269656E746174696F6E3A004692
S11314107574616261004A522C53706B746D005391
S113142070656B7472756D00532D4275730050575F
S11314304D004350504D005472616E732E20503154
S11314406E3A005472616E736974696F6E005275FE
S11314506464657220706F6C2E3A00456C65766129
S1131460746F7220706F6C2E3A0041696C65726FF4
S11314706E20706F6C2E3A0050726F66696C652036
S11314804368616E2E3A0043682E206F7264657261
S11314903A0050574D2073796E633A0052582074C5
S11314A07970653A004F4E004F46460059617720E7
S11314B07472696D3A0059617720492072617465CC
S11314C03A005961772049204C696D69743A005992
S11314D0617720493A0059617720503A0050697485
S11314E06368207472696D3A0050697463682041BE
S11314F075746F4C766C3A005069746368204920A7
S1131500726174653A0050697463682049204C69BB
S11315106D69743A00506974636820493A005069EF
S113152074636820503A00526F6C6C207472696D59
S11315303A00526F6C6C204175746F4C766C3A00B3
S1131540526F6C6C204920726174653A00526F6C62
S11315506C2049204C696D69743A00526F6C6C20A0
S1131560493A00526F6C6C20503A00416363205634
S113157065727420503A00496E762E0043616C2ED9
S113158000416363005961770050697463680052D5
S11315906F6C6C004779726F0031392E20506F7375
S11315A02E20536572766F207472766C2E20282557
S11315B0290031382E204E65672E20536572766FD0
S11315C0207472766C2E202825290031372E205362
S11315D06572766F20646972656374696F6E003139
S11315E0362E204F555438204D69786572003135B8
S11315F02E204F555437204D697865720031342EB2
S1131600204F555436204D697865720031332E20B1
S11316104F555435204D697865720031322E204F74
S1131620555434204D697865720031312E204F5560
S11316305433204D697865720031302E204F555453
S113164032204D6978657200392E204F555431206F
S11316504D6978657200382E20466C69676874207D
S113166070726F66696C65203200372E20466C6993
S11316706768742070726F66696C65203100362E5D
S1131680204C6576656C206D6574657200352E207E
S113169053656E736F722063616C69627261746901
S11316A06F6E00342E20537469636B20706F6C610D
S11316B07269747900332E205265636569766572A8
S11316C020696E7075747300322E205265636569EB
S11316D076657220736574757000312E2047656ECF
S11316E06572616C0053617665004465662E004244
S11316F061636B004D656E75004500440043004214
S11317000041004A69747465723A00506F733A007C
S1131710426174746572793A0030002E0050726F21
S113172066696C653A004D6F64653A00566572737C
S1131730696F6E3A2056312E30000101010101011A
S113174001FFFFFFFF0101FF01FF01010001020191
S11317500200000102000102010002020100170C54
S11317600604030201030F1B27007F01003C007FD6
S1131770010028007D01000A0004010002007F012D
S11317800005817F010000007F01003C007F010013
S113179028007D01000A0004010002007F01000509
S11317A0817F010000007F010050007F01000000E4
S11317B07D0100000004010001817F010000007F21
S11317C00100000000000000000000000000000014
S11317D000000000000001010100837D0100000100
S11317E063010032837D010000837D010000007DE0
S11317F0010064007D0100640002010100837D0199
S11318000000837D010000837D010000837D0100D1
S113181000837D010000837D0100000002010100BE
S113182000020101000002010100000201010000A8
S11318300201010000020101000002010100000296
S11318400101000002010100000201010000020187
S113185001000002010100000D01010D837D010062
S113186000000D01010D837D010000000D01010D3B
S1131870837D010000000D01010D837D0100002E18
S11318800000000000003800000000000044444450
S1131890444444444444444444EE00EE00EE00EE28
S11318A0000001010100830001009C007D0100642F
S11318B08D8D8D8D8D8D8D8D0000000000000000BC
S11318C00000000000000000000301010100040109
S11318D001040001010100000801010400010101EB
S11318E000000101010000010101000028010000C5
S11318F00163010032000000000000050101001A2C
S11319002201001E0001010101007F01001E007F71
S113191001000000010101000006010102000601AE
S11319200106010A01000700060101023E6974690B
S11319308D8D8D0000007C002C00007662620025F5
S1131940000D1216191C1F21232628292B2D2F3098
S11319503233353638393A3B3D3E3F4041424344C9
S113196045464748494A4B4C4D4D4E4F50515152B4
S11319705353545555565757585859595A5A5B5BEF
S11319805C5C5D5D5E5E5E5F5F5F60606061616167
S11319906262626262636363636363636464646414
S11319A064646464640002030506080A0B0D0E10E7
S11319B01113141617191A1C1D1F2022232526285B
S11319C0292B2C2D2F303233343637383A3B3C3DDB
S11319D03F4041424344464748494A4B4C4D4E4F91
S11319E05051525354545556575858595A5A5B5C8F
S11319F05C5D5E5E5F5F60606061616262626363E2
S1131A006363636464646464646411241FBECFEF1D
S1131A10D0E1DEBFCDBF14BE88E10FB6F894809349
S1131A206000109260000FBE15E0A0E0B1E0E6E3B4
S1131A30F4E802C005900D92AC30B107D9F727E065
S1131A40ACE0B5E001C01D92A83FB207E1F70E94E7
S1131A50AB160C9419420C94000000000895FDDFAD
S1131A60FCDFFBDFFADF0895CF93AF93A5E058982E
S1131A70C6E70E94440D589ACAE70E94440DAA95ED
S1131A80B1F7AF91CF91089500C000C000C000C06D
S1131A9000C000C000C000C00000CA95A9F70895A6
S1131AA0EF93FF93AF93BF93CF93DF930F931F9362
S1131AB02F933F934F935F936F937F93E82FF92F67
S1131AC08F939F93A191B191AA54B340AF93BF93C5
S1131AD0A7707A2FA191B191A65EB240AF93BF9344
S1131AE0A7706A2FA191B191A258B240AF93BF934E
S1131AF0A7705A2FA191B191AE51B240AF93BF9349
S1131B00A7704A2FA191B191A95BB140AF93BF9344
S1131B10A7703A2FA191B191A555B140AF93BF934E
S1131B20A7702A2FA191B191A15FB040AF93BF9349
S1131B30A7701A2FA191B191AD58B040AF93BF9344
S1131B40A7700A2F972F0E94D10E469A0E94DD0E8D
S1131B500E94B00E0E94B00E962F0E94D10E449A9D
S1131B600E94DD0E0E94B00E0E94B00E952F0E94BE
S1131B70D10E429A0E94DD0E0E94B00E0E94B00E59
S1131B80942F0E94D10E439A0E94DD0E0E94B00E43
S1131B900E94B00E932F0E94D10E149A0E94DD0E63
S1131BA00E94B00E0E94B00E922F0E94D10E159A80
S1131BB00E94DD0E0E94B00E0E94B00E912F0E9472
S1131BC0D10E459A0E94DD0E0E94B00E0E94B00E06
S1131BD0902F0E94D10E479A0E94DD0E0E94B00EF3
S1131BE00E94B00E0E94B00EBF91AF910E94CA0E27
S1131BF00A2FBF91AF910E94CA0E1A2FBF91AF91C5
S1131C000E94CA0E2A2FBF91AF910E94CA0E3A2F8A
S1131C10BF91AF910E94CA0E4A2FBF91AF910E940B
S1131C20CA0E5A2FBF91AF910E94CA0E6A2FBF915C
S1131C30AF910E94CA0E7A2FC3E1D1E00024715003
S1131C4019F446980C94260E00C000C0615019F493
S1131C5044980C942D0E00C000C0515019F44298C1
S1131C600C94340E00C000C0415019F443980C94F5
S1131C703B0E00C000C0315019F414980C94420E6D
S1131C8000C000C0215019F415980C94490E00C0EE
S1131C9000C0115019F445980C94500E00C000C0B7
S1131CA0015019F447980C94570E00C000C00E94CC
S1131CB0B90EC150D00911F00C941F0E9F918F9151
S1131CC07F916F915F914F913F912F911F910F9150
S1131CD0DF91CF91BF91AF91FF91EF9108950F9351
S1131CE01F932F930CEF18E00024803071F08130A3
S1131CF079F0823081F0833089F0843091F085303E
S1131D0099F08630A1F08730A9F0469A0C949D0E84
S1131D10449A0C949D0E429A0C949D0E439A0C94F2
S1131D209D0E149A0C949D0E159A0C949D0E459A32
S1131D300C949D0E479A0C949D0E00C000C000C0E8
S1131D4000C000C000C06150700919F420E028B937
S1131D5022B90150100989F72F911F910F9108950D
S1131D600F9305E600C000C000C00150D9F70F91E1
S1131D7008950F9309E000C000C000C00150D9F7D6
S1131D80000000C000C00F91089500C000C000C052
S1131D9000C00895B695A795B695A795B695A7954D
S1131DA00895C7E09770C92731F00E94C50ECA95FF
S1131DB009F0FBCF00C000000895C92FC77031F0AF
S1131DC00E94C50ECA9509F0FBCF00C00895ACE08F
S1131DD0B0E0EDEEFEE00C948E4126E0AE014F5FE4
S1131DE05F4F6BE380ED0E94EC1E898190E0982F99
S1131DF088272A81820F911D36E0959587953A951B
S1131E00E1F798878F838B8190E0982F88272C8126
S1131E10820F911D56E0959587955A95E1F7919516
S1131E20819591099A8789878D8190E0982F8827D9
S1131E302E81820F911D76E0959587957A95E1F72D
S1131E409C878B8720912D06A0E3B5E043E0240214
S1131E509001112480E090E02C543F4FF901E80FE9
S1131E60F91FE491EE0FFF0B41E050E04C0F5D1FB2
S1131E70E40FF51F468157814D935D93019683309E
S1131E80910561F72C96E2E00C94AA411F93CF933D
S1131E90DF930E94E70E8091640780FD05C01092D5
S1131EA04C0710924B070EC080914D0790914E073E
S1131EB02091510730915207821B930B90934C074A
S1131EC080934B0720912D06C7E4D7E0A0E3B5E04B
S1131ED083E028029001112480E090E02E553F4FCA
S1131EE069917991F901E80FF91F14914D915C9171
S1131EF01197461B570B1403B001159F700D112445
S1131F006D937D9301968330910551F760914D0750
S1131F1070914E0780914B0790914C07681B790B89
S1131F20882777FD8095982F0E94C73F20919505BB
S1131F303091960540919705509198050E94C43EB2
S1131F400E94943F70930D0560930C05DF91CF912F
S1131F501F910895A6E0B0E0E0EBFFE00C948D4102
S1131F601A8219821C821B821E821D8281116FC0FB
S1131F7010E20E94E70E89819A8120913005309108
S1131F803105820F931F9A8389838B819C812091D1
S1131F90320530913305820F931F9C838B838D818F
S1131FA09E812091340530913505820F931F9E83C5
S1131FB08D838FE493EC0197F1F700C0000011507A
S1131FC0C1F6FE0131969E01295F3F4F80819181C8
S1131FD0409645E0959587954A95E1F781939193CD
S1131FE0E217F30799F789819A81909348078093C0
S1131FF047078B819C8190934A078093490780917E
S11320002D06992787FD9095FC01EE0FFF1FE80F21
S1132010F91FEC55FF4F44912D813E814203C001CD
S1132020439F900D112490934E0780934D07809108
S113203064078260809364070E948C162B9A9FE742
S113204024E84EE1915020404040E1F767C0809180
S1132050640781FF66C01092500710924F0710E288
S11320600E94E70E80914F0790915007209134050C
S113207030913505820F931F9093500780934F073B
S11320808FE493EC0197F1F700C00000115041F781
S113209080912D06992787FD9095FC01EE0FFF1F77
S11320A0E80FF91FEC55FF4F449120914F073091F1
S11320B05007205F3F4FB5E035952795BA95E1F776
S11320C04203C001439F900D1124909350078093C5
S11320D04F0797FF26C020914D0730914E07A90165
S11320E0481B590BCA019595879590935207809385
S11320F05107281B390B30934C0720934B078091D1
S113210064078160809364070E948C162B9A5FE7B2
S113211084E89EE1515080409040E1F700C0000007
S11321202B982696E3E00C94A94141E06BE680ED00
S11321300E94D41E48E06CE180ED0E94D41E0895F4
S11321408FEF80937E0010927B00089580937C0033
S113215086EC80937A0080917A0086FDFCCF089506
S1132160CF92DF92EF920F93CF93DF938CE10E9493
S1132170BC1A1F9B85C00E94460F60E070E0CB0133
S11321800E94892120E030E040E052E46091910512
S11321907091920580919305909194050E94C43E9C
S11321A00E94943FEB0120E030E040E852E460916B
S11321B08D0570918E0580918F05909190050E94F8
S11321C0C43E0E94943F6B01D7FD06C0C134D105C3
S11321D02CF0C0E4D0E002C0C0E0D0E0D7FC08C0DE
S11321E021E8C216D10434F080E8C82ED12C02C0F4
S11321F0C12CD12C27E330E042E050E06FED70E0D9
S11322008CE00E94BD1CEE24E39400E420E840E04E
S113221060E080E091E00E94FC1B05E125E146E1DD
S113222066E380E091E00E94FC1B08E320E448E0C0
S113223060E480E091E00E94741B00E220E640E24A
S113224060E280E091E00E94741B01E028E04C2FE2
S11322506C2D80E091E00E94421C61E080E091E0FE
S11322600E94E61A80E091E00E94141B8FE798E335
S113227021E0815090402040E1F700C0000079CF78
S113228080E091E00E94141B61E080E091E00E94F4
S1132290E61A80912E060E94BC1ADF91CF910F910D
S11322A0EF90DF90CF9008951F9BF1C01C9B0E947C
S11322B0A83C0E94183C20E030E040E050E067EF8A
S11322C079E082E70E94BD1C2AE030E040E050E063
S11322D067EF79E080E20E94BD1C24E130E040E039
S11322E050E067EF79E083E70E94BD1C2EE130E007
S11322F040E050E067EF79E083E20E94BD1C20E0FB
S113230030E046E450E067EF79E08DE60E94BD1CC2
S11323102AE030E046E450E067EF79E08EE60E9480
S1132320BD1C24E130E046E450E067EF79E08FE63D
S11323300E94BD1C2EE130E046E450E067EF79E0F6
S113234080E70E94BD1C4AE063E575E08091D407F4
S11323509091D5070E94BE4120E030E045E250E074
S113236067EF79E00E94DC374AE063E575E080912D
S1132370D8079091D9070E94BE412AE030E045E297
S113238050E067EF79E00E94DC374AE063E575E0EE
S11323908091DA079091DB070E94BE4124E130E08E
S11323A045E250E067EF79E00E94DC374AE063E5FC
S11323B075E08091DC079091DD070E94BE412EE11B
S11323C030E045E250E067EF79E00E94DC374AE014
S11323D063E575E08091DE079091DF070E94BE41BE
S11323E020E030E044E650E067EF79E00E94DC371B
S11323F04AE063E575E08091E0079091E1070E946F
S1132400BE412AE030E044E650E067EF79E00E9404
S1132410DC374AE063E575E08091E2079091E307D9
S11324200E94BE4124E130E044E650E067EF79E0E9
S11324300E94DC374AE063E575E08091E4079091FF
S1132440E5070E94BE412EE130E044E650E067EF2C
S113245079E00E94DC3729E330E040E050E06FEDA2
S113246070E08CE00E94BD1C27E330E04EE650E0B3
S113247067EF79E08CE30E94BD1C61E080E091E0AD
S11324800E94E61A80E091E00E94141B0DCF08958B
S11324901F9BE6C01C991AC01C990AC02FE38DE04B
S11324A093E0215080409040E1F700C00000F4CF59
S11324B02FE382E49FE0215080409040E1F700C088
S11324C000000E94B61D80E00E94AA0F1D990CC056
S11324D02FE382E49FE0215080409040E1F700C068
S11324E0000081E00E94AA0F0E94891D0E94460FED
S11324F020E030E045E250E067EF79E08AE10E94B5
S1132500BD1C20E030E04DE450E067EF79E08EE15F
S11325100E94BD1C2DE030E045E050E067EF79E01B
S11325208BE10E94BD1C27E130E045E050E067EFFD
S113253079E08CE10E94BD1C21E230E045E050E0EE
S113254067EF79E08DE10E94BD1C4AE063E575E028
S113255080916305909164050E94BE412DE030E0B6
S113256048E250E067EF79E00E94DC374AE063E537
S113257075E080916505909166050E94BE4127E152
S113258030E048E250E067EF79E00E94DC374AE04F
S113259063E575E080916705909168050E94BE41EE
S11325A021E230E048E250E067EF79E00E94DC3756
S11325B04AE063E575E080913005909131050E9411
S11325C0BE412DE030E040E550E067EF79E00E9445
S11325D0DC374AE063E575E080913205909133057C
S11325E00E94BE4127E130E040E550E067EF79E02A
S11325F00E94DC374AE063E575E0809134059091F0
S113260035050E94BE4121E230E040E550E067EF2D
S113261079E00E94DC3729E330E040E050E06FEDE0
S113262070E08CE00E94BD1C27E330E04CE650E0F3
S113263067EF79E08CE30E94BD1C27E330E04BE4B4
S113264050E067EF79E089E10E94BD1C61E080E021
S113265091E00E94E61A80E091E00E94141B18CFDA
S11326600895A4E0B0E0E7E3F3E10C94874180E04F
S113267091E00E94141B20E030E040E050E067EF5E
S113268079E083E00E94BD1C20E130E040E050E0AE
S113269067EF79E085E00E94BD1C2BE130E040E06B
S11326A050E067EF79E086E00E94BD1C2BE130E04A
S11326B048E550E067EF79E087E10E94BD1C26E21F
S11326C030E040E050E067EF79E085E80E94BD1C0F
S11326D02BE330E040E050E06FED70E089E00E94D1
S11326E0BD1C27E330E04AE050E067EF79E08EE07C
S11326F00E94BD1C4091CE05425C00E12DE261E0E8
S113270080E090E00E94C7284AE063E575E080918C
S11327101805909119050E94BE412BE130E04EE668
S113272050E067EF79E00E94DC378091CE0581307C
S1132730D1F426E230E04DE450E067EF79E088E13F
S11327400E94BD1C4AE063E575E0809112059091FA
S113275013050E94BE4126E230E04EE650E067EFEA
S113276079E00E94DC3780911805909119051816BC
S1132770190644F02BE130E04DE250E067EF79E0D8
S113278080E32DC08436910544F02BE130E04DE226
S113279050E067EF79E082E322C02091D605332729
S11327A027FD30958217930741F42BE130E04DE289
S11327B050E067EF79E081E312C08217930744F495
S11327C02BE130E04DE250E067EF79E083E307C0AE
S11327D02BE130E04DE250E067EF79E084E30E94C2
S11327E0BD1C0E94B43E6C0164E670E00E94DE40B1
S11327F08B014AE063E575E0C8010E94BE41AE0169
S11328004F5F5F4F67EF79E00E94C4364AE063E5AB
S113281075E0C8010E94BE4126E230E04DE250E07E
S113282067EF79E00E94DC372CE920037001219FD7
S1132830F00C1124EC0CFD1C0981112707FD1095E7
S1132840035D1F4F26E230E0A80167EF79E087E0DF
S11328500E94BD1CAE014F5F5F4F67EF79E087E0D8
S113286095E00E94C436C980AE014F5F5F4F67EFA9
S113287079E089E095E00E94C436B980DD24C7FC84
S1132880D0948AE0E816F10440F04AE063E575E08C
S1132890C7010E94BE41A80115C0A8014C0D5D1DD1
S11328A026E230E067EF79E088E00E94BD1C4AE050
S11328B063E575E0C7010E94BE41A8014B0D511D9F
S11328C0B7FC5A954C0D5D1D26E230E067EF79E0C8
S11328D00E94DC3780911705882309F458C0E12C45
S11328E000E320E648E06EE080E091E00E94D21B25
S11328F0EE24E39420E648E06EE080E091E00E945C
S1132900FC1B8091170583FF11C02EE030E041E2EB
S113291050E069E471E086E80E94BD1C22E230E0E8
S11329204EE250E069E471E089E42FC081FF11C0F8
S11329302DE030E043E350E069E471E08BE40E9471
S1132940BD1C21E230E047E250E069E471E08CE430
S11329501CC080FF11C02EE030E04CE150E069E47F
S113296071E089E60E94BD1C22E230E04EE250E0B4
S113297069E471E087E309C082FF09C028E130E01F
S113298049E150E069E471E082E10E94BD1C61E02C
S113299080E091E00E94E61A80E091E00E94141B1E
S11329A02496E9E00C94A341A0E0B0E0EAEDF4E160
S11329B00C948641C090D205D090D305F090D405F4
S11329C01092D2051092D3051092D40510E0D0E0F5
S11329D01F9B98C0D11198C080E091E00E94141B05
S11329E092E0B92EC0E061E16C0FEE24E39408E2BA
S11329F028E240E080E091E00E94FC1B86E2A82EE1
S1132A00AC0E20E32C0F03E044E16A2D80E091E05A
S1132A100E94741B28E32C0F69E26C0F06E045E169
S1132A2080E091E00E94741B01E022E045E16A2D00
S1132A3080E091E00E94421C63E36C0F24E045E0D7
S1132A4080E091E00E94421CBA9411F0C4E3CBCF21
S1132A5029E330E040E050E06FED70E08CE00E944C
S1132A60BD1C0E94183C8091D8079091D9079C0105
S1132A702053384F213A3F4060F011110AC02BE235
S1132A8030E040E150E069E471E087E80E94BD1C59
S1132A9033C09C012D503E4F273E334058F42BE267
S1132AA030E049E050E069E471E088E80E94BD1C30
S1132AB011E022C097FF03C021E02093D20540918A
S1132AC0DA075091DB0757FF03C021E02093D305B9
S1132AD02091DC073091DD0737FF03C061E060938C
S1132AE0D4051816190644F4141615062CF4D1E06E
S1132AF0121613060CF0D0E061E080E091E00E9431
S1132B00E61A66CFDD23F1F02BE230E048E250E034
S1132B1069E471E089E80E94BD1C61E080E091E015
S1132B200E94E61A80E091E00E94141B8FE794E86B
S1132B302EE1815090402040E1F700C000000E9447
S1132B408C1606C0C092D205D092D305F092D4055B
S1132B50CDB7DEB7EAE00C94A241CF93DF9380ECCB
S1132B6091E0E5EAF5E0DF019C011D92215030403F
S1132B70E1F785E38093A50581E08093CE0584E0A9
S1132B808093CF0592E09093330696E090933406B9
S1132B9097E0909335068093D1058EE180933006BB
S1132BA082E38093D605EEECF0E0C6EAD5E0A7E335
S1132BB0B7E086EA9EE0249129938D939D93319604
S1132BC030E0E63DF307B9F78EEB9AE090933807CF
S1132BD080933707E2E5F6E0C7E2D7E06FE277E0FB
S1132BE052E32DE04CE934E6CF014697DC015C93D7
S1132BF04096DC012C930496DC012C930297DC01B3
S1132C002C932083499384E6DB013D93BD017D969B
S1132C10B7E0EA33FB0741F780933F0680935F06F2
S1132C2080937E0680939D062CE32093D70595E040
S1132C309093DB052093DD059093E10590E5909357
S1132C40E305809340068093600680937F0680931B
S1132C509E06809166068160809366068091830655
S1132C608260809383068091A00684608093A0068E
S1132C7098E29093D8058AE08093D9059093DE0575
S1132C808093DF0582E08093DA058093E00591E08C
S1132C909093E6058093EC058093F2059093F805F4
S1132CA08093360680E890E090934E0780934D071A
S1132CB08EE180932E06DF91CF910895A1E0B0E0DC
S1132CC0E4E6F6E10C948C418C0169830E94F341A3
S1132CD06981861719F0C8010E94FB412196E4E03E
S1132CE00C94A841EF92FF920F931F93CF93DF931D
S1132CF0EC018B017A01E80EF91ECE15DF0539F0DF
S1132D006991C8010E945E160F5F1F4FF6CFCDB7C1
S1132D10DEB7E6E00C94A641F89440EC51E060E0A4
S1132D2070E085EA95E00E9472167894089580E038
S1132D3090E00E94F341853329F00E94AD150E9472
S1132D408C16089540EC51E060E070E085EA95E06F
S1132D500E94E3410895ACE1B0E0E1EBF6E10C94AC
S1132D607E410E94A823188E03E016E0A12CB12C0A
S1132D7018861F821F8A1E8A1D8A1C8A1B8A1A8A29
S1132D80198A188A1F861E86212C312C812C912C9D
S1132D901C8E1B8E1E821D821C861B861C821B821F
S1132DA01A821982412C512C3201C12CD12C76016A
S1132DB01A86198680910E058F5F80930E05809187
S1132DC09107882331F02F8138852F5F3F4F388753
S1132DD02F831430B9F168F41123F1F0133009F0A2
S1132DE04EC00E9431131092760715E01C821B829C
S1132DF046C01630D1F110F1173009F040C02998BF
S1132E00809117058460809317050E94922C10927C
S1132E1076070E9433232FC083B1807F803F49F01F
S1132E2081E00E947A2A80916E00816080936E0016
S1132E3022C010926E0081E085BB21C01F9B1FC081
S1132E4014E01DC039E03A15C8F01F9907C081E0AD
S1132E500E947A2A1092760717E011C04B815C8198
S1132E604331534160F013E00AC00E94CB1C10921E
S1132E70760710E004C013E0A12C01C016E02981FC
S1132E803A812C343C4458F0A3942F8138853093F4
S1132E9013052093120518861F821A8219828091C5
S1132EA015054B855C8553FF02C0806101C08F7E90
S1132EB08093150590910F0580911705992389F04A
S1132EC0982F92609093170590912F06913061F49A
S1132ED082FD0AC086608093170581E00E947A2AE9
S1132EE003C08D7F809317050E94B43E20912B066A
S1132EF030912C06409117058217930710F448600F
S1132F0001C0477F409317058091170583FD02C0D8
S1132F10837031F08091150584FF02C0299A01C0A5
S1132F20299880912F06813009F07BC08091D807C1
S1132F309091D9079C0121543C4F2F37374008F416
S1132F4042C02091DA073091DB0721543C4F2F37E0
S1132F503740C8F12091DC073091DD0721543C4F04
S1132F602F37374080F12091D4073091D507233390
S1132F7031054CF52CE4C216D206E104F10430F11B
S1132F8080343CEF93076CF4809117058B7F80931A
S1132F9017050E940C1E84E10E947A2A0E943323A2
S1132FA012C042EEC41644EED406E104F10470F0FB
S1132FB0813C93405CF080911705846080931705F1
S1132FC081E00E947A2AC12CD12C760180911605C9
S1132FD080FD0EC080913006882351F08091170542
S1132FE082FD06C08CE42816380628F0B39401C08C
S1132FF0B12C212C312C409130062B2D30E0842F24
S1133000992787FD90952817390784F04E3174F07D
S11330108091170584608093170581E00E947A2AC5
S113302005C0809117058B7F809317050E94183C7B
S11330308091D4079091D507C2975CF480911705CD
S11330408E7F80931705E8E9F7E028E111922A952D
S1133050E9F7E091D105EE0FFF0BEA52F84F8081BA
S11330609181853F31E0930724F042E040935B0770
S11330700AC08D305EEF950724F021E020935B07B2
S113308002C010925B07033029F02091D505388DDA
S1133090321741F100915B07013059F00230B1F071
S11330A001111DC010921A0510921C0510921B05E7
S11330B016C044E040931A052091D605332727FD16
S11330C0309530931C0520931B0509C029E02093FB
S11330D01A05E4E6F0E0F0931C05E0931B0520914B
S11330E0D505288F30915B073D8731E04D8540132E
S11330F001C030E02091D505211116C088519C4FA4
S113310097FF02C080E090E00A9664E170E00E94BC
S1133110F240653671050CF400C284E690E09093A9
S1133120190580931805FDC180911B0590911C051C
S11331309093190580931805332399F04D85842FB6
S1133140992787FD9095FC01EE0FFF1FE80FF91FEB
S1133150E00FF11D07FDFA95EA52FF4FE491E09369
S11331601A05222339F053EC2503C00111248815D4
S1133170990518F0332309F4A9C080911A05811127
S113318005C010921C0510921B0522C0843031F436
S11331908091D605992787FD909504C0893039F42C
S11331A084E690E090931C0580931B0511C0813048
S11331B079F48091D605992787FD909520911B0578
S11331C030911C05821793071CF488E080931A053C
S11331D080911A05883079F48091D605992787FD66
S11331E0909520911B0530911C05281739071CF474
S11331F081E080931A0580911A058B7F823091F4C7
S113320080911B0590911C05019790931C05809358
S11332101B051816190634F010921C0510921B0594
S113322010921A0580911A058130C1F480911B0512
S113323090911C05019690931C0580931B05209189
S1133240D605332727FD3095821793073CF030933A
S11332501C0520931B0594E090931A0580911A0590
S11332608830C1F480911B0590911C0501979093BF
S11332701C0580931B052091D605332727FD309527
S1133280281739073CF030931C0520931B05E4E014
S1133290E0931A0580911A058B7F8330A9F48091FD
S11332A01B0590911C05019690931C0580931B05AA
S11332B0843691054CF024E630E030931C052093CD
S11332C01B0589E080931A05812C912C20911A0505
S11332D0222331F08091180590911905009721F46B
S11332E08CE0E4EAF7E008C0293019F0843691054F
S11332F031F48CE0E8E9F7E011928A95E9F70E944D
S1133300E5269A8F898F2E853F85821B930B480E65
S1133310591E611C711C8091B2003C89831BC80E2C
S1133320D11CE11CF11C4091B2004C8B8091B20085
S11333302F89821B4B8D5C8D480F511D5C8F4B8FE9
S11333402091B2002F8B8091B2003E89831B4D8166
S11333505E81480F511D5E834D832091B2002E8BF8
S11333608091B2003889831B880E911C4091B20071
S1133370488B8091B2002989821B49815A81480F68
S1133380511D5A8349832091B200298B8091B20048
S11333903A89831B4B815C81480F511D5C834B83AD
S11333A02091B2002A8B8091B2003B89831B280EA6
S11333B0311C4091B2004B8B8091B2002D89821B4D
S11333C04B855C85480F511D5C874B872091B2006B
S11333D02D8B0E94891D0E94460F0E94E52616BC73
S11333E02091100530911105AC01421B530B9093B1
S11333F01105809310058091790790917A0760E018
S113340070E0029748F440934F0550935005609341
S113341051057093520519C08091790790917A07EC
S1133420A0E0B0E02FE0880F991FAA1FBB1F2A95C8
S1133430D1F7840F951FA61FB71F80934F05909354
S11334405005A0935105B093520510927A0710923B
S1133450790760914F0570915005809151059091C5
S113346052050E9489210E9403382D813E81263213
S1133470364218F081E080930F0580917607882307
S113348089F010920F0521E02A8734EC431632EAC2
S113349053066104710408F41A861E821D82412CAD
S11334A0512C32014B8D5C8D4738514020F01C8EDD
S11334B01B8E21E02987809176078823F1F03A85D5
S11334C0311103C04985442321F0809132068823B9
S11334D021F080913206181684F4109276070E9427
S11334E093390E94EF310E949B310E94F13C10926B
S11334F00E051C8E1B8E198602C0109276078091D1
S1133500170590911405981316E0809314050D8502
S1133510298D3A8D3F872E874DCC70931905609382
S1133520180545E040931A0507CE0F931F93CF93D8
S1133530DF93C7E0D0E0082F10E05C98C8010C2EA0
S113354002C0959587950A94E2F780FF02C0599AC4
S113355001C059985C9A0E942D0D219770F7DF9154
S1133560CF911F910F9108955F980E94951A089525
S11335705F9A0E94951A0895CF93C82F81E80E94FC
S1133580B41A8C2F0E94B41ACF910895CF93DF936D
S11335905D985E9887E893E10197F1F700C0000019
S11335A05E9AC8ECDDE0FE0184910E94B41A219673
S11335B0FDE0C63DDF07B9F780912E060E94BC1AD4
S11335C088EC0E94B41ADF91CF910895A0E0B0E096
S11335D0ECEEFAE10C948941C6EDDDE08C01FE01CC
S11335E08491806B0E94B41A80E00E94B41A80E136
S11335F00E94B41A80EE0E94B41A7801D12CF7010B
S113360081917F010E94B81AD394F0E8DF12F7CFBA
S1133610219600581F4F8DE0CE3DD80701F7CDB756
S1133620DEB7E7E00C94A54120E034E0FC01A901F9
S1133630119241505040E1F70895CF93DF93D0E0C9
S11336408D2F806B0E94B41AC0E08C2F8F700E9463
S1133650B41A8C2F82958F7080610E94B41A80E016
S11336600E94B81ACF5FC03881F7DF5FD83041F7C6
S1133670DF91CF91089567FD36C04034A0F5342F13
S1133680369536953695E62FF0E050E02223A9F0E2
S113369020E8329FE00DF11D1124E80FF91F409539
S11336A050954770552781E090E0042E01C0880FA3
S11336B00A94EAF79081982B15C020E8329FE00D18
S11336C0F11D1124E80FF91F4095509547705527B7
S11336D081E090E0042E01C0880F0A94EAF78095F7
S11336E09081982390830895A0E0B0E0EAE7FBE19D
S11336F00C948541EC01162FF42ED22EA02FB0E0AD
S1133700A41BB109B7FF03C0B195A195B109ED2D73
S1133710F0E0E11BF109F7FF03C0F195E195F10930
S1133720BB24B394EA17FB0714F0B12C06C08D2D0B
S1133730D02E082F812F1F2DF82ED11630F48F2D67
S1133740F02E082F812F1D2DD82EAD2CA11AE02F7D
S1133750F0E0EF19F109F7FF03C0F195E195F109E4
S11337609E2ECA2CC694F01610F401E010C00FEF80
S11337700EC02E2DBB2071F0412F6F2DCE010E9463
S11337803B1BC918C7FE02C0F00ECA0C1F5F1D15F3
S113379080F303C04F2D612FF1CFCDB7DEB7EBE03F
S11337A00C94A141A0E0B0E0E8EDFBE10C9486416B
S11337B06C01A42EF62EC22FD0E0C60FD11D10E04E
S11337C0040F111D8F2D90E08C179D0784F4BA2CE3
S11337D08B2D90E08017910744F42E2D4B2D6F2DE7
S11337E0C6010E943B1BB394F3CFF394EBCFCDB748
S11337F0DEB7EAE00C94A241A0E0B0E0E2E0FCE134
S11338000C948541EC01F62EB42E922E162FC22E66
S1133810D12CC60ED11CAA24AA94A00EA40E812FCA
S113382090E08C159D0574F42E2D4B2D612FCE0147
S11338300E943B1B2E2D4A2D612FCE010E943B1B63
S11338401F5FEDCFDB2C10E00B0D111DCC24CA94AF
S1133850C90CCF0C8D2D90E08017910774F42E2D98
S11338604D2D6F2DCE010E943B1B2E2D4D2D6C2D09
S1133870CE010E943B1BD394EDCFCDB7DEB7EBE076
S11338800C94A141A0E0B0E0E8E4FCE10C94804198
S1133890EC01962EA42EBB24B394B21A822E8194EA
S11338A0880C122F742E721AE42EF12C6701C20EAA
S11338B0D11C872D992787FD9095C816D90644F009
S11338C0202F472D692DCE010E943B1B7394F1CF0D
S11338D0712C71160CF04CC0B7FC04C011508394C9
S11338E08394B80C7394872D880F8F5FB80E6A2C5D
S11338F0611A6701C10ED11C17FDDA94472C490CDB
S1133900592C5718862D992787FD9095C816D906E6
S113391074F0202F462D642DCE010E943B1B202FD6
S1133920462D652DCE010E943B1B6394EBCF6A2C80
S113393067186701C70CD11C77FCDA94412E490C37
S1133940592C511A862D992787FD9095C816D906AA
S11339500CF4BFCF202F462D642DCE010E943B1BBB
S1133960202F462D652DCE010E943B1B6394EACF88
S1133970CDB7DEB7E0E10C949C41E82FF0E0EE0F08
S1133980FF1FE252F24F859194910E94B837089537
S11339900E94B837089580E091E00E94141B23E050
S11339A030E049E250E069E471E089E70E94BD1C1F
S11339B027E130E048E150E069E471E08AE70E94E1
S11339C0BD1C809117052BE230E083FF0FC04CE053
S11339D050E069E471E086E80E94BD1C2BE230E00F
S11339E040E550E069E471E089E42FC081FF0FC035
S11339F04CE150E069E471E08BE40E94BD1C2BE2D1
S1133A0030E046E350E069E471E08CE41EC080FFDE
S1133A100FC04AE050E069E471E089E60E94BD1CF1
S1133A202BE230E041E550E069E471E087E30DC04A
S1133A3082FF06C044E150E069E471E08BE805C010
S1133A404CE150E069E471E08AE80E94BD1C61E049
S1133A5080E091E00E94E61A0895ACE0B0E0E3E370
S1133A60FDE10C948E4126E0AE014F5F5F4F63E4AD
S1133A7080ED0E94EC1E898190E0982F88272A818E
S1133A80820F911D34E0959587953A95E1F79A87D1
S1133A9089878B8190E0982F88272C81820F911D34
S1133AA054E0959587955A95E1F798878F838D8192
S1133AB090E0982F88272E81820F911D74E09595B0
S1133AC087957A95E1F79C878B8720912D06A3E64D
S1133AD0B5E043E024029001112480E090E0245BEF
S1133AE0384EF901E80FF91FE491EE0FFF0B41E0A6
S1133AF050E04C0F5D1FE40FF51F468157814D9335
S1133B005D9301968330910561F72C96E2E00C9465
S1133B10AA411F93CF93DF930E942D1D20912D0660
S1133B20C3E5D7E0A3E6B5E083E0280290011124C1
S1133B3080E090E0265C384E69917991F901E80FB4
S1133B40F91F14914D915C911197461B570B140367
S1133B50B001159F700D11246D937D9301968330F0
S1133B60910551F7DF91CF911F910895CF9386E08E
S1133B70E3E5F7E0DF011D928A95E9F7C0E20E94D0
S1133B802D1D4091530750915407809163059091E6
S1133B906405480F591F50935407409353072091CD
S1133BA05507309156078091650590916605280F59
S1133BB0391F3093560720935507809157079091EA
S1133BC058076091670570916805860F971F909359
S1133BD0580780935707C15091F6E5E055954795EE
S1133BE0EA95E1F75093540740935307F5E0359570
S1133BF02795FA95E1F73093560720935507A5E0EA
S1133C0095958795AA95E1F7909358078093570760
S1133C100E948C16CF910895A5E1B0E0E2E1FEE1A7
S1133C200C947E410E94B61D609153077091540715
S1133C30882777FD8095982F0E94C73F69837A83F0
S1133C408B839C836091550770915607882777FD75
S1133C508095982F0E94C73F6D837E838F839887BA
S1133C606091570770915807882777FD8095982FA2
S1133C700E94C73F69877A878B879C871D8A1B8A26
S1133C80E12CF12C00E010E08091B2009D89891BA9
S1133C90E80EF11CE091B200ED8BFCE4EF16FF0698
S1133CA028F08B898F5F8B8BE12CF12C0E942D1DCA
S1133CB0FE0131966F01B3E62B2EB5E03B2ECE010B
S1133CC00D965C011C8AF101819091901F0120E006
S1133CD030EC49E754E4F60160817181828193817B
S1133CE00E947B402B013C01B401882777FD80951D
S1133CF0982F0E94C73F9B01AC01C301B2010E94EF
S1133D00C43E20E030E04AE754E40E942C3FF60130
S1133D1060837183828393830E94943FF5012081A1
S1133D2031812617370711F000E010E0F5016193A7
S1133D3071935F01FC89FF5FFC8B84E0C80ED11C8A
S1133D40F33009F60F5F1F4F093C110520F00E9464
S1133D50B61D81E001C080E0E7E8F3E13197F1F7B7
S1133D6000C00000811104C0FB89F63008F48CCF38
S1133D706596E2E10C949A4141E06BE680ED0E9485
S1133D80D41E40E467E380ED0E94D41E46E0809197
S1133D903606481B6AE180ED0E94D41E48E16BE1BF
S1133DA080ED0E94D41E0895A2E0B0E0EAEDFEE1A9
S1133DB00C948E414A8369830E94B13D6981862FA8
S1133DC00E94023E4A81842F0E94023E0E94F33DDB
S1133DD02296E2E00C94AA41A3E0B0E0E2EFFEE117
S1133DE00C948841182FE22E4A835B8369830E94D6
S1133DF0B13D6981862F0E94023E81E0810F0E94BD
S1133E00F03D4A81C42E5B81D52E00E010E0F12CF8
S1133E100E151F0584F40F5F1F4F0E151F0519F0B3
S1133E200E94223E02C00E943B3EF6018083FFEFC7
S1133E30CF1ADF0AEDCF0E94F33D2396E8E00C94FD
S1133E40A4414F925F926F927F928F929F92AF9212
S1133E50BF92CF92DF92EF92FF92CF93DF93CDB7D1
S1133E60DEB728970FB6F894DEBF0FBECDBF6B0147
S1133E707C0180909D0590909E05A0909F05B09038
S1133E80A0059B01AC010E947B4020E030E040E0B3
S1133E905FE30E947B409B01AC0160E070E080E83E
S1133EA09FE30E94C33E69837A838B839C83409003
S1133EB0A1055090A2056090A3057090A4059B01F4
S1133EC0AC01C501B4010E947B406D837E838F8366
S1133ED09887A7019601C301B2010E947B409B0110
S1133EE0AC016D817E818F8198850E94C33E609371
S1133EF0890570938A0580938B0590938C05A7019F
S1133F009601C501B4010E947B406B017C012981AB
S1133F103A814B815C81C301B2010E947B409B01C9
S1133F20AC01C701B6010E94C43E60936905709359
S1133F306A0580936B0590936C0528960FB6F894E8
S1133F40DEBF0FBECDBFDF91CF91FF90EF90DF902A
S1133F50CF90BF90AF909F908F907F906F905F9025
S1133F604F900895CF92DF92EF92FF9269017A0108
S1133F7025EF31EA4BE85CE30E947B40A701960100
S1133F800E947B406B017C0126EA3AE046E85EE34E
S1133F900E94774018164CF0C0927D05D0927E05A1
S1133FA0E0927F05F09280050CC086EA9AE0A6E8CC
S1133FB0BEE380937D0590937E05A0937F05B09327
S1133FC0800526EA3AE046E85EEB60917D05709153
S1133FD07E0580917F05909180050E94283F87FF90
S1133FE00CC086EA9AE0A6E8BEEB80937D05909328
S1133FF07E05A0937F05B0938005FF90EF90DF903E
S1134000CF900895A4E0B0E0E8E0F0E20C948E4193
S113401020914F0530915005409151055091520522
S11340206091790570917A0580917B0590917C056A
S11340300E94B21F80911D0590911E05A0911F053D
S1134040B091200580939D0590939E05A0939F05B4
S1134050B093A0058091000590910105A0910205FF
S1134060B09103058093A1059093A205A093A305A5
S1134070B093A40560917D0570917E0580917F05C4
S1134080909180050E94211F8091890590918A0555
S1134090A0918B05B0918C0580931D0590931E050E
S11340A0A0931F05B09320058091690590916A053E
S11340B0A0916B05B0916C05809300059093010568
S11340C0A0930205B093030520914F05309150054C
S11340D0409151055091520560918105709182057E
S11340E080918305909184050E94B21F80912105DF
S11340F090912205A0912305B091240580939D05FC
S113410090939E05A0939F05B093A0058091000510
S113411090910105A0910205B09103058093A1053A
S11341209093A205A093A305B093A40560917D0587
S113413070917E0580917F05909180050E94211FDA
S11341408091890590918A05A0918B05B0918C0589
S11341508093210590932205A0932305B093240511
S11341608091690590916A05A0916B05B0916C05E9
S11341708093000590930105A0930205B093030575
S113418020914F05309150054091510550915205B1
S11341906091670570916805882777FD8095982F51
S11341A029833A834B835C830E94C73F29813A81E8
S11341B04B815C810E94B21F809121059091220560
S11341C0A0912305B091240580939D0590939E05AD
S11341D0A0939F05B093A00580911D0590911E05A5
S11341E0A0911F05B09120058093A1059093A2058D
S11341F0A093A305B093A40560917D0570917E05FD
S113420080917F05909180050E94211F80918905EE
S113421090918A05A0918B05B0918C05809321051E
S113422090932205A0932305B093240580916905FA
S113423090916A05A0916B05B0916C0580931D0562
S113424090931E05A0931F05B09320052496E2E0E9
S11342500C94AA41CF92DF92EF92FF9220E030E0DB
S113426044EB52E40E947B406B017C0120E030E08F
S1134270A90160910005709101058091020590915A
S113428003050E94283F87FF18C020E030E0A90101
S1134290C701B6010E947740A701960118162CF4B5
S11342A060E070E084E393E404C060E070E084E3E1
S11342B093EC0E94C33E6B017C01C701B601FF90E1
S11342C0EF90DF90CF9008956091210570912205C1
S11342D080912305909124050E942A2160939905D9
S11342E070939A0580939B0590939C0560911D059E
S11342F070911E0580911F05909120050E942A212E
S113430060936D0570936E0580936F0590937005AF
S11343100895A8E0B0E0EFE8F1E20C9480410E9437
S1134320C53F20E836E948E15AE40E942C3F6093F7
S11343304F057093500580935105909352056091F9
S11343403306E62FFF27E7FDF095E25AF84E649115
S113435070E080E090E00E94C53F6B017C0100E3C7
S113436015E08DE8682E85E0782ED8016D917D9159
S11343708D01882777FD8095982F0E94C73F4B01B8
S11343805C0120E030E040E85FE3C701B6010E9431
S113439077401816F4F420E030E040E85FE3C7010A
S11343A0B6010E94C33EF3012081318142815381D1
S11343B00E947B40A50194010E94C33EA70196017F
S11343C00E942C3FD3016D937D938D939C931397FF
S11343D009C0B7FAB094B7F8B094F301808291821F
S11343E0A282B382F4E06F0E711C85E006331807D5
S11343F009F0BBCF23EC35EF48E25FE360918D0514
S113440070918E0580918F05909190050E947B405C
S113441069837A838B839C8360937105709372059F
S1134420809373059093740523EC35EF48E25FE3C2
S113443060919105709192058091930590919405F6
S11344400E947B406D837E838F839887609375057C
S11344507093760580937705909378056091630552
S113446070916405882777FD8095982F0E94C73F37
S11344702B013C0160938105709382058093830531
S1134480909384056091650570916605882777FD92
S11344908095982F0E94C73F6B017C01609379053A
S11344A070937A0580937B0590937C052091300569
S11344B0309131054091320550913305E091340536
S11344C0F0913505449F4001459F900C900C1124B8
S11344D0B401882777FD8095982F229FA001239F00
S11344E0500D500D11248A01222717FD2095322FDB
S11344F0600F711F821F931FEE9F9001EF9F300D7D
S1134500300D11248901222717FD2095322F600FC9
S1134510711F821F931F0E94C53F4B015C0120E065
S113452034EF48E356E40E94774018160CF06BC051
S113453020E038E449EA56E4C501B4010E94283F6A
S113454087FF61C020E030E040E05FE36091000558
S11345507091010580910205909103050E947740B6
S113456018160CF050C0809135066BE070E0681BA3
S1134570710987FD7395882777FD8095982F0E9490
S1134580C73F4B015C0129813A814B815C81609179
S1134590990570919A0580919B0590919C050E94C4
S11345A0C33EA50194010E942C3F9B01AC01C301B1
S11345B0B2010E94C43E609381057093820580938A
S11345C08305909384052D813E814F8158856091A8
S11345D06D0570916E0580916F05909170050E9434
S11345E0C33EA50194010E942C3F9B01AC01C7016D
S11345F0B6010E94C43E6093790570937A05809356
S11346007B0590937C050E9402200E94642120E097
S113461030E048EC52EC6091990570919A058091D4
S11346209B0590919C050E947B400E94943F70934F
S113463086056093850520E030E048EC52EC6091FB
S11346406D0570916E0580916F05909170050E94C3
S11346507B400E94943F7093880560938705289659
S1134660E0E10C949C4110922105109222051092D5
S113467023051092240510921D0510921E05109218
S11346801F051092200580E090E0A0E8BFE380932E
S1134690000590930105A0930205B09303051092C1
S11346A09D0510929E0510929F051092A0051092F0
S11346B0A1051092A2051092A3051092A4051092D0
S11346C0990510929A0510929B0510929C051092E0
S11346D06D0510926E0510926F0510927005109280
S11346E07A07109279071092850010928400109234
S11346F01105109210050895F8948091CE0581302B
S1134700A1F044F4811122C010926C001092730045
S113471084E016C08430D4F410926C0010927300BC
S11347201DBA8091C10080680FC080916C008160C7
S113473080936C008091730081608093730087E0A4
S11347408DBB8091C1008F778093C10078940895C8
S113475080E381B98CEF87B98AE084B982EF8AB9A2
S113476018B8149815982B9829985C9A85EF83B9F2
S11347708CE089B92FE548ED83E02150404080402A
S1134780E1F700C0000083B1807F803E21F483EF15
S11347908AB90E94340D82EF8AB98DE089B914BCBC
S11347A085E085BD80916E00816080936E0016BCAB
S11347B01092800080918100826080938100109229
S11347C0B00087E08093B1001092700017BA109285
S11347D0B2009AE0909368009FE09BBB95E19093B0
S11347E069008CBB109276070E94971680E090E0D7
S11347F026EA3EE0FC01EE0FFF1FEA59F84F318331
S11348002083019688309105A9F784EC99E0909370
S11348106707809366070E94C61A0E941D1B83B116
S1134820807F803609F063C080EC0E94B41A80E077
S113483091E00E94141B29E130E04AE050E069E471
S113484071E08BE30E94BD1C61E080E091E00E9476
S1134850E61A80E091E00E94141BA8EEB7E0E8E4B9
S1134860F6E08CED95E02CE637E0408146FF04C08D
S113487011963C932E9303C011969C938E937D9630
S1134880129647E0E033F40781F783B1807F8036E6
S113489071F488EE97E00E94500D8FE798E321E0D1
S11348A0815090402040E1F700C00000EECFA8EE18
S11348B0B7E0E8E4F6E08CE494E0208126FF03C04E
S11348C011969C938E937D96129647E0E033F407FD
S11348D0A1F788EE97E00E94500D8FE798E321E05E
S11348E0815090402040E1F700C00000F2CF4FE734
S11348F08FE492E1415080409040E1F700C0000015
S113490083B1807F803951F580EC0E94B41A80E035
S113491091E00E94141B29E130E048E250E069E490
S113492071E081E00E94BD1C61E080E091E00E94A2
S1134930E61A80E091E00E94141B0E94AD150E94CB
S11349408C1680912E060E94BC1A2FE744E88EE153
S1134950215040408040E1F700C0000061E080E069
S113496091E00E94E61A9FEF28E04DE39150204029
S11349704040E1F700C000000E94C61A0E946E3D4C
S11349800E94BC1E0E94951080E091E00E94141BBE
S113499080EC0E94B41A29E130E042E150E069E47D
S11349A071E082E00E94BD1C61E080E091E00E9421
S11349B0E61A80E091E00E94141B0E94C2300E941B
S11349C0A0100E947C230E94543E0E940C1E811160
S11349D028C080E091E00E94141B29E130E049E105
S11349E050E069E471E08DE30E94BD1C61E080E069
S11349F091E00E94E61A8FEF98E02DE381509040F9
S1134A002040E1F700C00000F89428E088E190E03D
S1134A100FB6F894A895809360000FBE20936000B1
S1134A20FFCF80912F06813029F48091170584608F
S1134A308093170580917607882369F00E94183CBB
S1134A408091D4079091D507C3972CF080911705D6
S1134A508160809317050E94332381E00E947A2AA3
S1134A6008951F920F920FB60F9211248F939F9364
S1134A708091790790917A07019690937A078093B1
S1134A8079079F918F910F900FBE0F901F901895EB
S1134A901F920F920FB60F9211242F933F938F936F
S1134AA09F9380919007882319F081E08093910768
S1134AB04B9B09C0809184009091850090937E0760
S1134AC080937D0714C0809184009091850020918B
S1134AD07D0730917E07821B930B90936907809327
S1134AE068078091CF05813011F4809376079F91F8
S1134AF08F913F912F910F900FBE0F901F9018959B
S1134B001F920F920FB60F9211242F933F938F93FE
S1134B109F9380919007882319F081E080939107F7
S1134B204A9B09C0809184009091850090938007EE
S1134B3080937F0715C08091840090918500209117
S1134B407F0730918007821B930B90936B078093B0
S1134B506A078091CF05823019F481E0809376074B
S1134B609F918F913F912F910F900FBE0F901F90A7
S1134B7018951F920F920FB60F9211242F933F9303
S1134B808F939F9380919007882319F081E08093FD
S1134B909107489B09C0809184009091850090936F
S1134BA07C0780937B0715C08091840090918500D9
S1134BB020917B0730917C07821B930B90936707AE
S1134BC0809366078091CF05811103C081E08093B3
S1134BD076079F918F913F912F910F900FBE0F9069
S1134BE01F9018951F920F920FB60F9211242F93B6
S1134BF03F938F939F9380919007882319F081E0CE
S1134C0080939107189B09C080918400909185003E
S1134C10909384078093830715C0809184009091BA
S1134C2085002091830730918407821B930B909316
S1134C306F0780936E078091CF05843019F481E06B
S1134C40809376079F918F913F912F910F900FBE84
S1134C500F901F9018951F920F920FB60F92112468
S1134C602F933F934F935F938F939F93AF93BF93F0
S1134C70EF93FF9380919007882319F081E080934C
S1134C80910780918400909185002091CE05222384
S1134C90D1F01A9B05C0909382078093810786C048
S1134CA02091810730918207821B930B90936D07AB
S1134CB080936C078091CF05833009F077C081E041
S1134CC08093760773C01A9971C020918E07309132
S1134CD08F07AC01421B530B9A012F353A4158F40C
S1134CE020918E0730918F07AC01421B530B9A0120
S1134CF02E3E324010F410928D0790938F078093CC
S1134D008E07E0918D07F0E0EB55FA4FE181209199
S1134D108D07222339F0A0918D07B0E0AB55BA4F2F
S1134D202C9101C020E030918D07383038F4F0E048
S1134D30EE0FFF1FE558F84F9183808330918D0764
S1134D40332399F030918D07393078F430E0220F15
S1134D50331FF901E558F84F40815181841B950BAD
S1134D60F901EA59F84F9183808380918D078F5F11
S1134D7080938D0790918D0780917707891728F488
S1134D8080918D078093770709C090918D0780915A
S1134D907707981303C081E08093760780910F050D
S1134DA0882321F01092770710920F05FF91EF915D
S1134DB0BF91AF919F918F915F914F913F912F91AF
S1134DC00F900FBE0F901F9018952FB7F8948091F5
S1134DD08400909185002FBF08951F920F920FB603
S1134DE00F9211242F933F934F935F936F937F936D
S1134DF08F939F93AF93BF93CF93EF93FF93C09100
S1134E00C6000E94E52620918E0730918F07AC01E1
S1134E10421B530B9A01253C394080F010927607CF
S1134E20109265071092780710928D0710929307DD
S1134E301092920710928C0710928B0790938F0711
S1134E4080938E0780916507893150F4E09165075E
S1134E5081E08E0F80936507F0E0EA5CFA4FC0832F
S1134E608091CE05823009F092C080917807883114
S1134E7009F000C1CC2359F081E0CF3C08F480E074
S1134E8091E3899FC00D1124C43009F0F3C08091CF
S1134E904D0585FDEFC081E08093760780939407EC
S1134EA080E090E0FC01EE0FFF1FEA59F84F1182F9
S1134EB01082019688309105A9F7A8E570E0C0E05A
S1134EC060E0B1E021E030E0EB2FF0E0EA5CFA4F83
S1134ED0808190E0062E02C0959587950A94E2F7AA
S1134EE080FF17C0EC2FF0E0EB55FA4FE181F0E0C2
S1134EF0EE0FFF1FEA59F84F80819181A901072E17
S1134F0002C0440F551F0A94E2F7842B952B91831A
S1134F1080836F5F7F5F683011F4BF5F60E07B3038
S1134F2011F4CF5F70E0A15079F640E050E0FA014F
S1134F30EE0FFF1FEA59F84F208131813450C90127
S1134F409595879595958795820F931FB901A3E051
S1134F5075956795AA95E1F7860F971FB901B4E097
S1134F6075956795BA95E1F7860F971FC5E0359556
S1134F702795CA95E1F7820F931F8A55914F918324
S1134F8080834F5F5F4F4830510589F673C083308B
S1134F9009F070C0809178078F3008F46BC081E00D
S1134FA08093760780939407C093450580913705D5
S1134FB084FF04C0C7E063E078E703C0C3E062E0B5
S1134FC07CE3E9E3F5E0DF0111972C91822F87233D
S1134FD090E0062E02C0959587950A94E2F7809397
S1134FE08D07808190918D079830F0F52C2330E067
S1134FF0322F2227280F311D633011F4345001C0A1
S11350003250C901880F991FA90155954795840FFE
S1135010951FA9015595479555954795840F951F5B
S1135020A901A3E055954795AA95E1F7840F951F2B
S1135030B4E035952795BA95E1F7820F931F633055
S113504011F495958795A0918D07B0E0AB55BA4FB3
S11350501196AC91B0E08A55914FAA0FBB1FAA5983
S1135060B84F11969C938E93329645E0E734F4073B
S113507009F0A9CF809178078F5F80937807FF911B
S1135080EF91CF91BF91AF919F918F917F916F914C
S11350905F914F913F912F910F900FBE0F901F90F2
S11350A01895811123C029E330E040E050E06FED12
S11350B070E08CE00E94BD1C2BE330E046E250E03F
S11350C06FED70E08AE00E94BD1C2BE330E040E508
S11350D050E06FED70E089E00E94BD1C29E330E0F0
S11350E048E750E06FED70E08BE022C026E330E04B
S11350F040E050E067EF79E080E10E94BD1C2BE3C3
S113510030E046E250E06FED70E08AE00E94BD1CA2
S11351102BE330E040E550E06FED70E089E00E9461
S1135120BD1C26E330E047E650E067EF79E081E11B
S11351300E94BD1C61E080E091E00E94E61A08959F
S1135140AAE0B0E0E6EAF8E20C948E4125E0629F22
S1135150800D911D1124BC0145E050E0CE0106965E
S11351600E94B54185E0FE013696DE01119601905C
S11351700D928A95E1F729813A814B815C816D8199
S113518070E080E090E02A96E2E00C94AA410F934C
S11351901F93CF93DF93E42F10E0C22FD0E061116F
S11351A00CC04AE063E575E00E94BE419801AE017F
S11351B067EF79E00E94DC3707C09801AE0167EF22
S11351C079E08E2F0E94BD1CDF91CF911F910F912A
S11351D00895682F93B1907F9093950780E071E0D4
S11351E090919507903FC9F483B1807FEFE4F3EC8D
S11351F03197F1F700C0000023B1482F50E0207F21
S113520030E04217530719F48093950701C080E0FA
S11352101092250570939607E3CF662371F0909161
S113522025059F5F909325059A3038F01092250547
S1135230909196079F5F909396070895A8E1B0E038
S1135240E4E2F9E20C947E41982E798B688BB42EBB
S1135250ED82FE820F83188729874E2D3F2D0D87FF
S11352601A87FB012081622E772467FC7094123028
S113527029F45B2D25033001112402C0BB24B3940F
S113528020EF209395078B2D90E09B8B8A8B2B2D01
S11352904203100111243203A00111245F874E87B9
S11352A091E0512CD12C412CF12C092D10E0000F50
S11352B0111F0252124F8A858D7F8C8BEA2DF0E0EC
S11352C0FE8BED8B2C2D332727FD3095388F2F8BBC
S11352D08DE1EDA5FEA58E9FA0018F9F500D112499
S11352E0485B594F5C874B8780919507803E09F452
S11352F0EEC04394882011F024E101C021E0803FF6
S113530019F0D3942D1510F4512CD12C882049F088
S1135310F394FFE1FF1510F4803F19F4992309F485
S11353206AC080E091E00E94141BF8018591949179
S113533020E030E040E050E069E471E00E94C81CE5
S11353402C89211128C04AE063E575E0C3010E945D
S1135350BE41AE014F5F5F4F69E471E00E94C43605
S113536089819A8170E8E72EF12CE81AF90AF694FB
S1135370E7944F89588DE40EF51E4AE063E575E025
S1135380C3010E94BE4129E130E0A70169E471E054
S11353900E94DC3725C0ED89FE89E60DF71DEE0F6E
S11353A0FF1FE252F24F859194910E940E37AE0195
S11353B04F5F5F4F69E471E083E595E00E94C43676
S11353C089819A8140E850E0481B590B56954795CE
S11353D029E130E069E471E08A2D860D0E94BD1C4C
S11353E081E00E94512861E080E091E00E94E61A89
S11353F0882049F0F12C83B1807F8093950781E068
S11354008093960704C081E00E94E928F12C8091E2
S11354109507803D51F451106AC0809196075D85CF
S1135420589F6018710811240BC0803B59F4511027
S11354305EC0809196079D85989F600C711C112415
S1135440D12C55C0803729F429853B2D2303300105
S11354501124621473040CF431014E855F854615E2
S113546057050CF43A015FE9951203C0862D0E949A
S1135470BC1A8820C9F083E08415B0F4EB85FC8560
S1135480808186FD11C0862D0E94BD36865A9E40BD
S113549095958795F894BC0164527A4F8DA59EA585
S11354A00E946F0E7894412CFA85F13041F42FE775
S11354B03AE146E0215030404040E1F704C087EA39
S11354C091E60197F1F700C0000090E00DCF9A85B6
S11354D0923031F4C3016A897B890E94F2403B0116
S11354E0E889F98960826896E2E10C949A4155242E
S11354F05394AFCF90E09817B1F0299A2FE936E88A
S113550041E0215030404040E1F700C000002998BC
S11355102FE936E841E0215030404040E1F700C037
S113552000009F5FE8CF0895A3E0B0E0EAE9FAE263
S11355300C948841582FF601D7019C91940F9C93A9
S1135540640F203EA1F4D8018C918F3059F018F4E7
S1135550833049F04BC08B3141F0873209F046C0AB
S11355609D5F01C09F5F908341C09E5FFCCF203D43
S1135570F9F4F80180818F3069F018F4833031F048
S113558015C08B3159F0873269F010C0523070F178
S11355908FE027C0533050F18BE11FC0543030F1FD
S11355A087E21FC0553010F188E217C088E219C0A5
S11355B0203BD1F4F80180818F3069F020F48330EE
S11355C079F482E00AC08B3121F0873249F48BE10F
S11355D008C08FE002C083E004C0F801808306C0E5
S11355E082E0D8018C9302C0203F91F081E04B838C
S11355F05A8369830E947A2ABFEFE4E3FCE0B15046
S1135600E040F040E1F700C0000069815A814B811D
S1135610D8018C91823041F483E08C93F70180812E
S1135620681710F481508083D8018C91883291F4EA
S113563087E28C93F7017081272F30E02D5F3F4F75
S1135640852F90E0860F911D01972817390714F4D0
S11356507F5F7083D7018C91841B8C932396E8E041
S11356600C94A441282F30E043E050E06FED70E04B
S11356708DE00E94BD1C0895A9E0B0E0E2E4FBE2E5
S11356800C947E41182F4A013901302E2E2CA88605
S113569080E091E069870E94141B80E00E945128F9
S11356A0212F30E06985862F90E0530145E0649F07
S11356B0A018B1081124E5E01E9FA00CB11C112410
S11356C0412C512CE12CF12CC81AD90AC20ED31E3C
S11356D0281B390B820E931EC7018B59984E9F834A
S11356E08E83FC01249130E04AE050E067EF79E0DA
S11356F0812F8E0D0E94BD1C45E050E0311004C086
S1135700B2016A0D7B1D01C0B301CE0101960E9456
S1135710B541EE81FF810491F601EE0DFF1D449128
S1135720D401AE0DBF1D8C91480F222D6C81992799
S113573087FD90950E94C728FFEFEF1AFF0A45E006
S1135740440E511C84E0E816F10409F0C5CF8885A5
S11357500E94322B61E080E091E00E94E61A81E031
S11357600E94E9282996E2E10C949A416F927F9273
S11357708F92AF92CF92DF92EF92FF920F931F938B
S1135780CF93DF9300D000D01F92CDB7DEB79091B6
S11357909707992329F09AEA90932905109297077D
S11357A092E1899F30011124C30189529A4F3C012F
S11357B080919507803709F459C0A090040583ECC3
S11357C0C82E87E1D82E9FE4E92E00E029E637E1D0
S11357D0A3016AEA809129050E943C2B26E2C22E8D
S11357E025E0D22E39E2E32E35E0F32E04E015E075
S11357F02091950740E06AEA82E10E94942A609130
S113580026056A5A89E697E10E94A02829833A83EB
S11358104B835C836D8380919507803ED9F480919E
S11358202605E82FF0E0E75EF84EA490682F70E0BC
S11358306A5A7109660D771D1F921F92812CC12C23
S1135840E980FA800B811C812D8141E00E941E2990
S11358500F900F9080919507803E09F0A9CF0E9488
S1135860C2300E948C160E94FE2CA2CF0F900F9083
S11358700F900F900F90DF91CF911F910F91FF9098
S1135880EF90DF90CF90AF908F907F906F900895BE
S113589090E0FC01ED54F109E331F105A8F5E25C77
S11358A0FF4F0C94474182E001C081E00E94033025
S11358B008950E94541108950E94D41408950E94DA
S11358C0481208950E94B010089580E001C081E05C
S11358D00E94B62B089580E00DC081E00BC082E0E9
S11358E009C083E007C084E005C085E003C086E00A
S11358F001C087E00E940B2D089581E003C082E07F
S113590001C083E00E94422F08951F990AC02FE32B
S11359108DE093E0215080409040E1F700C000000A
S1135920F4CF0895A0E0B0E0E8E9FCE20C948641ED
S113593080EF809395070E94852C23E0B22E30EFF0
S1135940A32E80919507803709F453C080E091E03D
S11359500E94141B80E00E945128C0E0D0E0FE01A8
S1135960EB59F84E249130E0809106054AE050E06E
S113597067EF79E08C0F0E94BD1C2196C430D105DD
S113598071F7809105050E94322B61E080E091E07F
S11359900E94E61A81E00E94E92888E2C82E85E088
S11359A0D82E96E0E92E95E0F92E05E015E0209139
S11359B0950740E06DE483E10E94942A80912805D4
S11359C090912705891749F0B09204051092260595
S11359D08093270591E09093970790919507903EC7
S11359E009F0AFCF0E94482CA09295070E94852C05
S11359F0A8CFCDB7DEB7EAE00C94A2411C990AC047
S1135A002FE38DE093E0215080409040E1F700C007
S1135A100000F4CF08952F923F924F925F926F92BD
S1135A207F928F92AF92CF92DF92EF92FF920F9379
S1135A301F93CF93DF93CDB7DEB7AF970FB6F8942C
S1135A40DEBF0FBECDBF90919707992329F09EEB3F
S1135A5090932905109297072DE1829FC00111248C
S1135A60FC01EB55FA4FFBA7EAA71F01F3EA2F0E3F
S1135A70311C4AA45BA425EA420E511CFC01E55CDE
S1135A80F94FFDA7ECA79C01245B394F3FA72EA734
S1135A902AA53BA52C553F4F39A728A76AA47BA468
S1135AA036EA630E711C80919507803709F4D3C1DF
S1135AB0F101808186FF03C091E0998301C01982BE
S1135AC080FF09C0F201908190FF02C092E001C002
S1135AD091E09F8701C01F86E8A5F9A5908190FFFA
S1135AE009C0F301208120FF02C022E001C021E0AF
S1135AF0288B01C0188A81FF09C0F201208121FF8F
S1135B0002C022E001C021E0298B01C0198A91FF63
S1135B1009C0F301208121FF02C022E001C021E07D
S1135B202A8B01C01A8A82FF09C0F201208122FF58
S1135B3002C022E001C021E02B8B01C01B8A92FF2E
S1135B4009C0F301208122FF02C022E001C021E04C
S1135B502C8B01C01C8A83FF09C0F201208123FF22
S1135B6002C022E001C021E02D8B01C01D8A93FFF9
S1135B7009C0F301208123FF02C022E001C021E01B
S1135B802E8B01C01E8A84FF09C0F201208124FFEC
S1135B9002C022E001C021E02F8B01C01F8A94FFC4
S1135BA009C0F301208124FF02C022E001C021E0EA
S1135BB0288F01C0188E85FF09C0F201808185FFFE
S1135BC002C082E001C081E0898F01C0198E95FF77
S1135BD009C0F301808185FF02C082E001C081E039
S1135BE08A8F01C01A8E8DE0ECA5FDA5DE01129608
S1135BF001900D928A95E1F788E0EEA5FFA5DE01FC
S1135C005B9601900D928A95E1F7A09004058FE7C9
S1135C10C82E88E1D82E99E5E92E00E025ED37E17C
S1135C20AE014F5F5F4F6EEB809129050E943C2BC4
S1135C3026E2C22E25E0D22E39E2E32E35E0F32E01
S1135C4004E015E02091950740E06EEB82E20E94AB
S1135C50942A609126056E5B85ED97E10E94A02849
S1135C602BA33CA34DA35EA36FA380919507803E15
S1135C70F9F480912605E82FF0E0EF53F84EA49054
S1135C80682F70E06E5B710921E030E02C0F3D1F3E
S1135C90620F731F1F921F92812CC12CEBA0FCA0DA
S1135CA00DA11EA12FA141E00E941E290F900F906B
S1135CB08DE0FE013296ACA5BDA501900D928A95AA
S1135CC0E1F788E0FE017B96AEA5BFA501900D9299
S1135CD08A95E1F7F1011082E8A5F9A51082F20195
S1135CE01082F30110828981813029F480E080647C
