:100000000C94C20C0C94E80C0C94E80C0C94E80CC6
:100010000C94E80C0C94E80C0C94E80C0C9418214B
:100020000C94E80C0C94E80C0C94E80C0C94E80C80
:100030000C94E80C0C94E80C0C94E80C0C94E80C70
:100040000C94E80C0C94E80C0C94F9200C94E80C3B
:100050000C9413220C94E80C0C94E80C0C94E80C0F
:100060000C94E80C0C94E80C0C94E80C0C94E80C40
:100070000C94E80C0C94E80C0C94E80C1D15781505
:1000800078152D153A15441540154F155C1560155A
:100090006D15162B182B1A2B1D2B202B222B262BE4
:1000A000282B2B2B2E2B302B322B342B362B382B73
:1000B0003A2B3C2B402B422B442B462B482B4C2BD2
:1000C000F22ED62ED92EDC2EDF2EE22EE52EE82EB5
:1000D000EB2EFFFF01FF01FF01FFFF010101FF0107
:1000E00001FFFFFF00010202000100010200010206
:1000F00001000200020101020003040506070001DD
:10010000020304050607010241050D000F0022004D
:10011000330044004F090100030007000F001F00D7
:100120000F00070003000100081C001C001C001C3D
:10013000007F003E001C0008000808001C003E0074
:100140007F001C001C001C001C0005FF01FE007C41
:1001500000380010000D40006000700078007C0046
:100160007E007F007E007C00780070006000400010
:100170000102205B1300BB00C500CC00CC00CC000A
:10018000CC01030103010301160129012901290101
:1001900036014901500150016F018801A401C001DD
:1001A000DF01FB021A023602550274027B027B0257
:1001B0007B027B027B0294029402BC02DB02FD0301
:1001C00022033E035A038203A103B403CA03EC04CF
:1001D00008042D044C0474048D04B504D704F905F7
:1001E0001E053D0565059905BB05E00602060206EC
:1001F0001B061B061B061B061B063406500669065B
:100200008506A106B406D006E906F00700071C071C
:1002100023074E0767078607A207BE07D107EA072D
:10022000FD08160832085D087908950300000000F3
:10023000000000000002FE6700FE67001278000068
:10024000FE0100020100020100020100FE410078EF
:100250007000001C00000700E000003800000E1EC7
:1002600000827F00804000804000804000807F004E
:10027000001E0006C01F00F8FF003CE00107000759
:10028000030006010004060100040300060700073E
:100290003CE001F8FF00C01F000400000300F00371
:1002A00000700000100006000300000300000300BF
:1002B0000003000003000003000200700000700053
:1002C0000AF00F00FC3F000C3000066000066000E2
:1002D0000660000660000C3000FC3F00F00F0008D4
:1002E000186000186000186000FE7F00FE7F0000AC
:1002F0006000006000006000090C700006780006D5
:100300006C000666000663008E6100FC6000786089
:1003100000006000090C3000066000066000866185
:1003200000866100866100CE73007C3F00381E00AD
:100330000A000700800700C00700F006003806002A
:100340001C0600FE7F00FE7F00000600000600097C
:10035000003000FE6000FE6000C66000C66000C69F
:100360006000C63100863F00060F000AE00F00F073
:100370003F009C3000CC6000C66000C66000C660D4
:1003800000C63100863F00000F000906000006404D
:1003900000067000067C00060F00C60300F6000091
:1003A0003E00000E00000A381E007C3F00CE7100A7
:1003B000C66000C660008661008661004E73007CE6
:1003C0003F00381E000AF00000FC61008C6300064C
:1003D00063000663000663000633000C3900FC1F4F
:1003E00000F0070002707000707000080C0000063A
:1003F0000000066700066700860100CE0000FC00D2
:10040000003800000D004000007800003F00C007E9
:1004100000F806003E06000606003E0600F806004C
:10042000C00700003F000078000040000AFE7F0087
:10043000FE7F00866100866100866100866100C6DD
:1004400061007C73003C3F00001E000BE00700F8D9
:100450001F001C38000C30000660000660000660BB
:10046000000660000660000620000C30000CFE7FD5
:1004700000FE7F0006600006600006600006600067
:100480000660000E70000C3000381C00F80F00E011
:10049000070009FE7F00FE7F00C66000C66000C640
:1004A0006000C66000C66000C66000C6600009FE4D
:1004B0007F00FE7F00860100860100860100860124
:1004C000008601008601000600000DE00700F81F0D
:1004D000003C3C000C30000E70000660000660001E
:1004E0000663000663000663000663000C3F000C11
:1004F0003F000AFE7F00FE7F00C00000C00000C079
:100500000000C00000C00000C00000FE7F00FE7FB1
:100510000006066000066000FE7F00FE7F000660A9
:1005200000066000070060000060000660000660D2
:1005300000067000FE3F00FE1F000BFE7F00FE7FE6
:1005400000800300C00100E00300700700381C00B9
:100550001C38000E700006600002400009FE7F009B
:10056000FE7F00006000006000006000006000008E
:1005700060000060000060000CFE7F00FE7F000E47
:100580000000380000E00100800700000700E001E3
:10059000003800000E0000FE7F00FE7F000AFE7F94
:1005A00000FE7F000E00003C0000E0000080030021
:1005B000001E00007800FE7F00FE7F000DE00700B7
:1005C000F81F001C38000C300006600006600006B2
:1005D00060000660000660000C30001C3800F81F48
:1005E00000E0070008FE7F00FE7F00060300060310
:1005F000000603008E0300FC0100F800000DE00778
:1006000000F81F001C38000C300006600006600077
:1006100006600006E00106E0030C30071C3806F80F
:100620001F06E007060BFE7F00FE7F0086010086A6
:100630000100860100860700CE0E00FC1C007870C9
:10064000000060000040000B783000FC7000CE60BD
:100650000086610086610086610086610086610017
:100660000633000C3F00001E000C060000060000D0
:10067000060000060000060000FE7F00FE7F000668
:1006800000000600000600000600000600000AFE4A
:100690000F00FE3F0000700000600000600000607E
:1006A00000006000007000FE3F00FE0F000D020021
:1006B000001E0000FC0000E00300801F00007C0022
:1006C000006000007C00801F00E00300FC00001EB2
:1006D0000000020000110600007E0000F807008004
:1006E0003F00007800007C00C00F007E0000060084
:1006F000007E0000E00700007E00007000807F00A8
:10070000F807007E00000600000B024000066000B3
:100710001E7800381C00E00700800100E007003868
:100720001E001E78000660000240000C0200000659
:1007300000001E0000780000E00000C07F00C07FC5
:1007400000E000007800001E00000600000200002B
:100750000B067000067800067C00066E0006670037
:10076000C66300E660007660003E60001E60000E1A
:100770006000080300001F0000FE0000F00700807A
:100780003F0000FC0100E00300000308003C0030D3
:100790007E00306700306300306300303300E07F5C
:1007A00000E07F0009FF7F00FF7F006020003060D5
:1007B00000306000306000707000E03F00C00F004B
:1007C00008800F00E03F00603000306000306000C3
:1007D00030600030600060300009801F00E03F00A2
:1007E000707000306000306000306000303000FF1A
:1007F0007F00FF7F0009800F00E03F006033003082
:100800006300306300306300706300E06300C03356
:100810000006300000FE7F00FF7F00330000330041
:100820000003000009801F00E03F06707006306082
:1008300006306006306006303007F0FF03F0FF013D
:1008400008FF7F00FF7F00600000300000300000E4
:10085000300000F07F00E07F0002F67F00F67F00AE
:1008600005000006300006300006F6FF07F6FF031D
:1008700009FF7F00FF7F00000600000700800F00D7
:10088000C0380070700030600010400002FF7F0030
:10089000FF7F000EF07F00F07F006000003000005E
:1008A000300000300000F07F00E07F00600000308A
:1008B0000000300000300000F07F00E07F0008F012
:1008C0007F00F07F0060000030000030000030004A
:1008D00000F07F00E07F000A800F00E03F00603002
:1008E0000030600030600030600030600060300038
:1008F000E03F00800F0009F0FF07F0FF0760600095
:10090000306000306000306000707000E03F00C078
:100910000F0009801F00E03F007070003060003061
:100920006000306000303000F0FF07F0FF0706F095
:100930007F00F07F006000003000003000003000D9
:100940000008C03100E063003063003063003066AF
:1009500000306600303E00601C0006300000FE3FA4
:1009600000FE7F0030600030600030600008F01F43
:1009700000F07F00006000006000006000003000B8
:10098000F07F00F07F0009100000F00000E0070099
:10099000003E00006000003E00E00700F000001094
:1009A00000000E300000F00300C03F00007800009F
:1009B0007C00800700F00000F00000C00700003C51
:1009C00000007000C03F00F003003000000910403C
:1009D00000306000F07800C01D00000700C01D005E
:1009E000F0780030600010400009100000F00000B6
:1009F000E0070600BF0700F001003F00E00700F03D
:100A0000000010000008307000307800307C0030AA
:100A10006600306300F06100F06000706000010269
:100A2000205B0B00BB00BE00C100C100C100C100C3
:100A3000D600D600D600DD00E400E400E400E900C2
:100A4000F000F300F300FE01090114011F012C0165
:100A5000370142014D0158016301660166016601DB
:100A6000660166016F016F017C0189019801A70190
:100A7000B201BD01CC01D901E001E901F602010298
:100A800010021D022C0237024602530260026F025E
:100A90007C0289029C02A902B802C502C502C502F5
:100AA000C502C502C502C502D002DB02E602F102A0
:100AB000FC03050310031B031E032503300333034C
:100AC000460351035C03670372037B0384038D03B6
:100AD0009803A303B203BD03C8010000017E010A0D
:100AE0000C00120012008C0160001800C6002001EA
:100AF0002001C00003F800060301040301040603FB
:100B0000F800020004800303200020002000018080
:100B10000105FC00020102010201FC0005040104C0
:100B200001FE0100010001058401420122011201C0
:100B30000C01058400020112011201EC00066000A4
:100B4000500048004400FE014000059E00120112C2
:100B5000011201E20005F800140112011201E00087
:100B6000050200820162001A00060005EC00120175
:100B700012011201EC00051C0022012201A2007CDE
:100B800000019801040200620112000C0006C0017D
:100B90007800460046007800C00106FE01120112EE
:100BA0000112011C01E0000778008400020102012B
:100BB00002010201840007FE01020102010201029A
:100BC000018400780005FE011201120112011201D8
:100BD00005FE0112001200120002000778008400D6
:100BE0000201020122012201E40006FE01100010B0
:100BF0000010001000FE01030201FE0102010400CA
:100C00000102010201FE0006FE0120003000480042
:100C10008400020105FE010001000100010001073E
:100C2000FE0106001800600018000600FE0106FE26
:100C3000010600180060008001FE010778008400B2
:100C40000201020102018400780005FE0122002257
:100C50000022001C00077800840002010201020348
:100C60008404780406FE012200220062009C000039
:100C700001068C001201120122012201C4000702A8
:100C80000002000200FE0102000200020006FE0057
:100C90000001000100010001FE00060E007000804E
:100CA00001800170000E00090600780080017800C4
:100CB00006007800800178000600068601480030B2
:100CC0000030004800860107020004000800F0011F
:100CD0000800040002000682014201220112010AFA
:100CE00001060105C000280128012801F00105FFC7
:100CF00001080108010801F00005F00008010801E1
:100D00000801900005F000080108010801FF010535
:100D1000F000280128012801B000040800FE0109A4
:100D200000090005F000080508050805F80305FF9F
:100D300001080008000800F00101F901030004089F
:100D400004F90305FF01400060009000080101FF65
:100D50000109F801080008000800F0010800080077
:100D60000800F00105F801080008000800F001057E
:100D7000F000080108010801F00005F80708010863
:100D8000010801F00005F000080108010801F8075A
:100D900004F801100008000800043001280148018F
:100DA000C800040800FE000801080105F800000161
:100DB00000010001F80105180060008001600018C2
:100DC0000007780080016000180060008001780052
:100DD00005080190006000900008010508007004FB
:100DE000800370000800048801480128011801AF41
:100DF00040A0A6A4A2EEC82F24AC00F80007060568
:100E000004030201003811321126116016451666DE
:100E10001351164F164D1643163B1641163F163DFD
:100E200016361631162C162716231072116C116BFC
:100E300014291222121B12231091148C148614826E
:100E4000147E142310A2119911AA1192118D1174FC
:100E50001480137D13721323102310231085107B2D
:100E60001055146014D912D312CA12C312231023BE
:100E70001023102310801375107010231079141A8A
:100E80001180131E10191014100F100A10051000F5
:100E900010FB0F231065113110291062115B111C1A
:100EA000160A16F815E515D115BD15A91593158463
:100EB00015761568155A154C153E15301522151462
:100EC000150215ED14D814C314AD14961423108014
:100ED000137D1335102310AA11A211991192118DAF
:100EE00011881183117E11791123102310C012B9BA
:100EF000122310311029102410F210E71068105F2F
:100F0000105610521049104110551150114A11231A
:100F10001042110C11FE10F810E612DE1223103AE6
:100F200010351080137D1335108C148614821466CE
:100F30001359134E133F132F13211314130613FACF
:100F4000125D12ED125A1652129911A21192114508
:100F500016AC12A21295128B127F12751268122310
:100F60001023102310AA11A211991192118D11882A
:100F70001183117E11BE10B410AC10A4109B1093FD
:100F8000108A107911601455144A1442143A14321C
:100F900014241416140B14FF13F613ED13E413D5D5
:100FA00013C613BA13B013A913A2139B138E138481
:100FB0001323100E12F6110112F611EB11DF11D5E9
:100FC00011CB11C011B311F611B311F61123102377
:100FD0001023102310E310DF10DB10D710D310CF35
:100FE00010CB10C71079114E12491244123F123A19
:100FF0001234122E12791123102310332E39560079
:10100000332E385600332E375600332E36560033E3
:101010002E355600332E345600332E335600332EE1
:1010200032560000486967680053796E6320524366
:10103000004C6F77005265762E004E6F726D616CBA
:10104000005069746368557000536964657761790D
:10105000730041667400496E76657274656400566B
:101060006572746963616C00466F727761726400C7
:101070004164762E00466978656400417869732082
:101080006C6F636B005261746500414C2050697451
:10109000636800414C20526F6C6C0041636350697F
:1010A00074636800416363526F6C6C004779726FC0
:1010B000596177004779726F5069746368004779A6
:1010C000726F526F6C6C00434838004348370043DE
:1010D0004836004348350043483400434833004312
:1010E00048320043483100666F7220737461747532
:1010F0007300507265737300446F6E652100486F12
:101100006C642061732073686F776E004E6F20529D
:1011100058207369676E616C3F0043616C2E2066D6
:1011200061696C656400486F6C6420737465616408
:1011300079005265736574004F70656E4165726F1A
:10114000320042617474657279004D6F64656C00A1
:101150004C6F7374004572726F72005369676E61F1
:101160006C004E6F0053656E736F7200456C657650
:101170002E005468726F742E004E6F6E65004155DC
:101180005833004155583200415558310047656188
:10119000720052756464657200456C657661746FA7
:1011A000720041696C65726F6E005468726F74747E
:1011B0006C65004578742E20536F757263653A0034
:1011C0005069746368206163633A00526F6C6C20ED
:1011D0006163633A00596177206779726F3A005012
:1011E00069746368206779726F3A00526F6C6C2083
:1011F0006779726F3A00566F6C756D652825293ACC
:1012000000524320736F7572636520423A00524367
:1012100020736F7572636520413A004D616E756190
:101220006C00462E57696E67004165726F0032365A
:1012300030487A00313834487A003934487A0034FA
:1012400034487A003231487A003130487A003548E3
:101250007A005448522E706F7320253A004C6F6309
:101260006B20726174653A004D5055363035302030
:101270004C50463A004163632E204C50463A0041A0
:101280004C20636F72726563743A004C4D41207458
:10129000696D653A004C6F77205620416C61726D24
:1012A0003A00436F6E74726173743A004F726965ED
:1012B0006E746174696F6E3A0046757461626100A4
:1012C0004A5200587472656D65005370656B747294
:1012D000756D00532E427573004350504D00547885
:1012E000204F75743A00527820496E3A0044656187
:1012F0006462616E642825293A00466C617020732F
:10130000706565643A00446966666572656E746905
:10131000616C3A0044796E2E4761696E2825293A3E
:101320000044796E2E4761696E2043682E3A003280
:101330006E642041696C2E204368616E2E3A005025
:10134000726F66696C65204368616E2E3A0043686F
:101350002E206F726465723A00525820747970655D
:10136000204F55543A005258207479706520494EE8
:101370003A0048616E64732046726565004F4E0006
:101380004F464600596177207472696D3A00596181
:10139000772049204C696D69743A0059617720447F
:1013A0003A0059617720493A0059617720503A0054
:1013B000596177206779726F3A00506974636820C9
:1013C0007472696D3A005069746368204175746F76
:1013D0004C766C3A0050697463682049204C696D02
:1013E00069743A00506974636820443A0050697423
:1013F000636820493A00506974636820503A00508D
:1014000069746368206779726F3A00526F6C6C2060
:101410007472696D3A00526F6C6C204175746F4C38
:10142000766C3A00526F6C6C2049204C696D69747F
:101430003A00526F6C6C20443A00526F6C6C204939
:101440003A00526F6C6C20503A00526F6C6C2067FF
:1014500079726F3A004175746F6C6576656C3A000D
:1014600053746162696C6974793A004661696C739E
:1014700061666500496E762E0043616C2E00416303
:10148000630059617700506974636800526F6C6C37
:10149000004779726F0032332E204661696C7361A8
:1014A000666520706F736974696F6E730032322ED7
:1014B000204661696C736166652073657474696E3A
:1014C00067730032312E20506F732E207472617654
:1014D000656C2E202825290032302E204E65672E7F
:1014E0002074726176656C2E202825290031392EF2
:1014F000204368616E6E656C207472696D202825CA
:10150000290031382E2043682E2064697265637487
:10151000696F6E0031372E20434838204D69786559
:10152000720031362E20434837204D6978657200AD
:1015300031352E20434836204D69786572003134AC
:101540002E20434835204D697865720031332E20B6
:10155000434834204D697865720031322E2043486B
:1015600033204D697865720031312E204348322096
:101570004D697865720031302E20434831204D6925
:1015800078657200392E204C6576656C206D657427
:10159000657200382E2053656E736F722063616C24
:1015A0006962726174696F6E00372E20466C6967DC
:1015B00068742070726F66696C65203300362E2067
:1015C000466C696768742070726F66696C6520325A
:1015D00000352E20466C696768742070726F6669EA
:1015E0006C65203100342E20526563656976657222
:1015F00020696E7075747300332E20537469636BA9
:1016000020706F6C617269747900322E20526563AC
:10161000656976657220736574757000312E204798
:10162000656E6572616C0053617665004465662E77
:10163000004261636B004D656E75004500440043D8
:1016400000420041005072657365743A0030002E0C
:101650000050726F66696C653A004D6F64653A00C0
:1016600056657273696F6E3A20202053312E3020F8
:1016700041360001010101010101FFFFFFFF0101EE
:10168000FF01FF010100010201020000010200014F
:10169000020100020201000000B841AE47394133A7
:1016A00033BB4066664640C3F5E83FCDCCAC3F5205
:1016B000B89E3F0000803F030F1B2700010101007F
:1016C00000020101000001010100007F0100500043
:1016D0007F010000007F010000007D010000007F0D
:1016E00001003C817F0100000001010100007F0139
:1016F0000050007F010000007F010000007D01001C
:1017000000007F01003C817F010000000101010019
:10171000007F010050007F010000007F01000000F9
:101720007D010000817F01000026262C00000000C2
:1017300000002C0000000000002C00000000000051
:1017400008010100837D0100000008010108837D7C
:10175000010000000201010000020101000002017D
:10176000010000020101000002010100000F01015F
:101770000F837D010000000F01010F837D01000038
:10178000690069008F8F8F8F8FB000B0000001015A
:101790000100837D010300830001039C007D0103A0
:1017A00064837D0103008D8D8D8D8D8D8D8D000069
:1017B0000000000000000000000000000000000029
:1017C0000000000000000000000000000000000316
:1017D00001010101030101010001010100000801F3
:1017E000010400080101080008010105006405006A
:1017F0006400640100000014010000000401000303
:10180000000501000200020101009C6401009C83AC
:101810007D010000837D010000837D010000000048
:1018200000000000000000000000000000000000B8
:1018300000000000000000000000000000020101A4
:101840000000050101001C32010024000801010014
:10185000001E010003010A01000700070101020048
:101860000000000000000000000000000000000078
:101870000000003030746969690000000000380021
:10188000000000000000000000167C003E0000F197
:101890000000000000000064080000000000000FCD
:1018A000000F0000000132023200000000000F00B3
:1018B0000F00000001CE023200000000000F000FF8
:1018C0000000000364080000000000000F000F008B
:1018D00000000400080000000000000F000F0000DE
:1018E000000500080000000000000F000F000000CD
:1018F0000600080000000000000F000F00000007B5
:1019000000080000000000000F000F00000000644D
:10191000080000000000000F000F00000001640834
:101920000000000000000F000F000000026408002B
:1019300000000000000F000F00000003640800001A
:10194000000000000F000F00000004640800000009
:101950000000000F000F00000005640800000000F8
:1019600000000F000F0000000664080000000000E7
:10197000000F000F000000076408000000000000D6
:101980000F000F0011241FBECFEFD8E0DEBFCDBF88
:1019900014BE88E10FB6F894809360001092600046
:1019A0000FBE11E0A0E0B1E0E4EDFDE702C005905C
:1019B0000D92AC30B107D9F727E0ACE0B1E001C03F
:1019C0001D92A13FB207E1F70E94D1140C94E83EAA
:1019D0000C94000000000895FDDFFCDFFBDFFADF60
:1019E0000895CF935898C6E70E94FE0C589ACAE70C
:1019F0000E94FE0C8A95B1F7CF91089500C000C0F7
:101A000000C000C000C000C000C000C00000CA95F7
:101A1000A9F70895A6E0B0E0E0E1FDE00C943B3EBC
:101A200086E00E948D0E80917800909179009A83D3
:101A3000898385E00E948D0E8091780090917900D5
:101A40009C838B8387E00E948D0E8091780090911B
:101A500079009E838D8320917D06AEE3B1E043E063
:101A600024029001112480E090E02C513F4FF901B5
:101A7000E80FF91FE491EE0FFF0B41E050E04C0F2F
:101A80005D1FE40FF51F408151814D935D930196D9
:101A90008330910561F72696E2E00C94573E1F9340
:101AA000CF93DF930E940A0D8091530780FD03C0FE
:101AB00083E892E00AC080913A0790913B07209119
:101AC0003E0730913F07821B930B90933907809319
:101AD000380720917D06C4E3D7E0AEE3B1E083E0B0
:101AE00028029001112480E090E02E523F4F69912E
:101AF0007991F901E80FF91F14914D915C911197BB
:101B0000461B570B1403B001159F700D11246D93E4
:101B10007D9301968330910551F7DF91CF911F910D
:101B20000895A6E0B0E0E7E9FDE00C943A3E1A82A1
:101B300019821C821B821E821D82811172C010E2DA
:101B40000E940A0D89819A8120913E0130913F01C6
:101B5000820F931F9A8389838B819C8120914001FE
:101B600030914101820F931F9C838B838D819E81D5
:101B70002091420130914301820F931F9E838D83F8
:101B80008FE493EC0197F1F700C000001150C1F60B
:101B9000FE0131969E01295F3F4F808191814096E1
:101BA000A5E095958795AA95E1F781939193E21722
:101BB000F30799F789819A819093350780933407C9
:101BC0008B819C81909337078093360780917D06A7
:101BD000992787FD9095FC01EE0FFF1FE80FF91F75
:101BE000EC52FF4F44912D813E814203C001439F3F
:101BF000900D112490933B0780933A0780915307EF
:101C00008260809353070E94B2142B9A9FE724E8C6
:101C10004EE1915020404040E1F700C000002B9879
:101C200072C08091530781FF6EC010923D071092E1
:101C30003C0710E20E940A0D80913C0790913D07FD
:101C40002091420130914301820F931F90933D07F1
:101C500080933C078FE493EC0197F1F700C00000FC
:101C6000115041F780917D06992787FD9095FC01E1
:101C7000EE0FFF1FE80FF91FEC52FF4F4491209128
:101C80003C0730913D07205F3F4F65E03595279534
:101C90006A95E1F74203C001439F900D1124909390
:101CA0003D0780933C072091380730913907821710
:101CB000930748F520913A0730913B07A901481B4B
:101CC000590BCA019595879590933F0780933E07DE
:101CD000281B390B3093390720933807809153071D
:101CE0008160809353070E94B2142B9A5FE784E8C7
:101CF0009EE1515080409040E1F700C000002B98D9
:101D000085E00E9405292696E3E00C94563E8FEF6D
:101D100080937E0010927B00089580937C0086EC77
:101D200080937A0080917A0086FDFCCF0895CF924F
:101D3000DF92EF920F93CF93DF93CBE0D0E01F9B26
:101D40007EC00E944F0D60E070E0CB010E94DA1D62
:101D500021972097A1F720E030E040E052E4609125
:101D6000AE057091AF058091B0059091B1050E94CC
:101D7000933B0E94633CEB0120E030E040E852E4FA
:101D80006091AA057091AB058091AC059091AD056D
:101D90000E94933B0E94633C6B01D7FD06C0C13497
:101DA000D1052CF0C0E4D0E002C0C0E0D0E0D7FC08
:101DB00008C081E8C816D10434F080E8C82ED12CC0
:101DC00002C0C12CD12C27E330E042E050E066E0B5
:101DD00071E08CE00E94141AEE24E39400E420E801
:101DE00040E060E085E491E00E94531905E125E1BF
:101DF00046E166E385E491E00E94531908E320E49C
:101E000048E060E485E491E00E94CB1800E220E61F
:101E100040E260E285E491E00E94CB1801E028E016
:101E20004C2F6C2D85E491E00E94991985E491E096
:101E30000E943D1885E491E00E946B187ECFDF91EF
:101E4000CF910F91EF90DF90CF9008950E94992647
:101E50001F9B0EC11C9B0E9455371D9B0E949E37E5
:101E60000E94623620E030E040E050E06EE17AE02F
:101E700083E10E94141A2AE030E040E050E06EE175
:101E80007AE080E20E94141A24E130E040E050E061
:101E90006EE17AE084E10E94141A2EE130E040E025
:101EA00050E06EE17AE083E20E94141A20E030E014
:101EB00046E450E06EE17AE08DE60E94141A2AE0D2
:101EC00030E046E450E06EE17AE08EE60E94141ABB
:101ED00024E130E046E450E06EE17AE08FE60E94D3
:101EE000141A2EE130E046E450E06EE17AE080E73B
:101EF0000E94141A8091CD079091CE074AE06BE6BC
:101F000075E00E948D3E20E030E045E250E06EE159
:101F10007AE00E9494338091D1079091D2074AE0F1
:101F20006BE675E00E948D3E2AE030E045E250E02D
:101F30006EE17AE00E9494338091D3079091D407A8
:101F40004AE06BE675E00E948D3E24E130E045E218
:101F500050E06EE17AE00E9494338091D507909131
:101F6000D6074AE06BE675E00E948D3E2EE130E038
:101F700045E250E06EE17AE00E9494338091D70709
:101F80009091D8074AE06BE675E00E948D3E20E014
:101F900030E044E650E06EE17AE00E9494338091B4
:101FA000D9079091DA074AE06BE675E00E948D3E12
:101FB0002AE030E044E650E06EE17AE00E9494339B
:101FC0008091DB079091DC074AE06BE675E00E94A8
:101FD0008D3E24E130E044E650E06EE17AE00E947C
:101FE00094338091DD079091DE074AE06BE675E05F
:101FF0000E948D3E2EE130E044E650E06EE17AE052
:102000000E94943329E330E040E050E066E071E064
:102010008CE00E94141A27E330E048E250E06EE1C1
:102020007AE085E10E94141A2BE330E040E550E0AD
:1020300066E071E089E00E94141A27E330E044E68C
:1020400050E06EE17AE08CE30E94141A2BE330E05A
:1020500047E750E066E071E089E00E94141A85E4E9
:1020600091E00E943D1885E491E00E946B18F0CE4B
:102070000895CF9385E491E00E946B18C1E01F9B07
:10208000DFC00E94821A0E944F0D20E030E045E23E
:1020900050E06EE17AE08AE10E94141A20E030E01C
:1020A0004DE450E06EE17AE08EE10E94141A2DE0DA
:1020B00030E045E050E06EE17AE08BE10E94141AD6
:1020C00027E130E045E050E06EE17AE08CE10E94EB
:1020D000141A21E230E045E050E06EE17AE08DE153
:1020E0000E94141A4AE06BE675E080918405909195
:1020F00085050E948D3E2DE030E048E250E06EE123
:102100007AE00E9494334AE06BE675E080918605A0
:10211000909187050E948D3E27E130E048E250E033
:102120006EE17AE00E9494334AE06BE675E08091BC
:102130008805909189050E948D3E21E230E048E2B9
:1021400050E06EE17AE00E9494334AE06BE675E07D
:1021500080913E0190913F010E948D3E2DE030E044
:1021600040E550E06EE17AE00E9494334AE06BE68D
:1021700075E080914001909141010E948D3E27E1E0
:1021800030E040E550E06EE17AE00E9494334AE0AE
:102190006BE675E080914201909143010E948D3E73
:1021A00021E230E040E550E06EE17AE00E949433B5
:1021B00029E330E040E050E066E071E08CE00E940E
:1021C000141A27E330E04BE450E06EE17AE085E258
:1021D0000E94141A27E330E04CE650E06EE17AE00A
:1021E0008CE30E94141A85E491E00E943D1885E476
:1021F00091E00E946B18C1110E94D22B1C9910C053
:102200000E94D22B2FE382E49FE021508040904037
:10221000E1F700C000000E94AF1A80E00E94910D1B
:102220001D990CC02FE382E49FE021508040904034
:10223000E1F700C0000081E00E94910DC0E01FCFD7
:10224000CF910895A4E0B0E0E8E2F1E10C94343ECF
:1022500085E491E00E946B1820E030E040E050E01F
:102260006EE17AE084E00E94141A2BE030E040E056
:1022700050E06EE17AE083E00E94141A26E130E03B
:1022800040E050E06EE17AE08AE80E94141A21E210
:1022900030E040E050E06EE17AE08BE80E94141AF2
:1022A0002CE230E040E050E06EE17AE086E00E940F
:1022B000141A2BE330E040E050E066E071E089E082
:1022C0000E94141A27E330E04AE050E06EE17AE021
:1022D0008EE00E94141A40917C064A5E00E02DE2D6
:1022E00061E080E090E00E94462740910B06405D4F
:1022F00006E12DE261E080E090E00E9446274091F7
:102300000C06405D01E22DE261E080E090E00E9479
:10231000462780914607992787FD90954AE06BE60E
:1023200075E001960E948D3E2CE230E04DE250E0D7
:102330006EE17AE00E949433EE24E39402E32CE110
:1023400044E064E685E491E00E94531905E028E04A
:1023500040E06EE685E491E00E9453190E94733BD1
:102360006C01809126019091270120917606309191
:102370007706C216D306A0F0821B930B62E370E0CF
:102380000E94C13D161617065CF4C601821B930B12
:102390000E94AD3D633371052CF062E370E002C032
:1023A00060E070E046E3461BEE24E394062F2CE148
:1023B00064E685E491E00E942919C60164E670E0B4
:1023C0000E94AD3D7B014AE06BE675E0C7010E94CB
:1023D0008D3EAE014F5F5F4F6EE17AE00E947C322E
:1023E0004AE06BE675E0C7010E948D3E27E330E0CE
:1023F00046E650E06EE17AE00E9494332CE9A701B2
:1024000024038001259F100D11240C0D1D1DC98072
:10241000DD24C7FCD09456E6C50ED11C27E330E07E
:10242000A6016EE17AE087E00E94141AAE014F5FC8
:102430005F4F6EE17AE087E091E00E947C32E980B4
:10244000AE014F5F5F4F6EE17AE089E091E00E945C
:102450007C32B980FF24E7FCF0940A30110540F08B
:102460004AE06BE675E0C8010E948D3EA60115C0EA
:10247000A6014E0D5F1D27E330E06EE17AE088E0B3
:102480000E94141A4AE06BE675E0C8010E948D3E76
:10249000A6014B0D511DB7FC5A954E0D5F1D27E34C
:1024A00030E06EE17AE00E94943380911D01811149
:1024B00004C080911C0182FF52C0E12C00E320E6A1
:1024C00048E06EE085E491E00E942919EE24E3944F
:1024D00020E648E06EE085E491E00E945319809187
:1024E0001D0183FF11C02EE030E041E250E060E7C3
:1024F00071E086E80E94141A22E230E04EE250E0D9
:1025000060E771E087E729C080911C0182FF11C05C
:102510002DE030E043E350E060E771E08BE40E949F
:10252000141A21E230E047E250E060E771E08CE409
:1025300014C080911D0181FF12C02EE030E04CE1FB
:1025400050E060E771E089E60E94141A22E230E070
:102550004EE250E060E771E089E70E94141A85E4DA
:1025600091E00E943D1885E491E00E946B1824964A
:10257000E9E00C94503EA0E0B0E0E1ECF2E10C9414
:10258000323EC0905407D0905507F0905607909077
:102590005707109254071092550710925607109241
:1025A0005707D0E0C0E01F9BDEC0C111DEC085E44C
:1025B00091E00E946B1892E0B92E10E061E1610F8A
:1025C000EE24E39408E228E240E085E491E00E94F2
:1025D000531986E2A82EA10E20E3210F03E044E167
:1025E0006A2D85E491E00E94CB1828E3210F69E26F
:1025F000610F06E045E185E491E00E94CB1801E01F
:1026000022E045E16A2D85E491E00E94991963E397
:10261000610F24E045E085E491E00E949919BA94A5
:1026200011F014E3CBCF29E330E040E050E066E066
:1026300071E08CE00E94141A0E9462368091D107EA
:102640009091D2078033984F3CF08091D1079091C0
:10265000D207813D974064F0D1110AC02BE230E0EF
:102660004EE050E060E771E087E80E94141A76C0FF
:102670008091D1079091D207843F91403CF48091A2
:10268000D1079091D2078D309E4FE4F48091D3070B
:102690009091D407843F91403CF48091D30790916E
:1026A000D4078D309E4F74F48091D5079091D60752
:1026B000843F914094F48091D5079091D6078D3056
:1026C0009E4F5CF02BE230E049E050E060E771E0C3
:1026D00088E80E94141AD1E041C08091D1079091FE
:1026E000D20797FF03C081E080935407E0910F0663
:1026F000E83059F0EE0FFF0BE153F84F80819181E4
:1027000097FF03C081E0809355078091D307909194
:10271000D40797FF03C081E0809356078091D507C7
:102720009091D60797FF03C081E08093570780916F
:10273000D1079091D2071816190684F48091D30717
:102740009091D407181619064CF48091D5079091F2
:10275000D607C1E0181619060CF0C0E085E491E038
:102760000E943D1820CFCC23E9F02BE230E048E274
:1027700050E060E771E089E80E94141A85E491E076
:102780000E943D1885E491E00E946B188FE794E861
:102790002EE1815090402040E1F700C000000E94EF
:1027A000B21408C0C0925407D0925507F092560751
:1027B00090925707CDB7DEB7EBE00C944E3ECF9327
:1027C000DF9386E991E0E2ECF5E0DF01EC011D9298
:1027D0002197E9F781E58093C2056CE077E0A4E1F9
:1027E000B7E0E1E9F6E043E83DE72FE0EB0149938C
:1027F000BE013D93CF010297EC01288320833F96D1
:10280000D7E0AC31BD0791F7EEEFF0E0C3ECD5E0D7
:10281000A4E2B7E086EA9EE0249129938D939D93EC
:10282000319621E0E630F207B9F78EEB9AE090930B
:102830002507809324078CE980931C078CE099E19D
:102840000E94972E21E020930B0620930C061092F5
:102850000D068DE692E090933507809334078FE65E
:1028600092E0909337078093360783E892E0909345
:102870003907809338078DEF92E090933B07809360
:102880003A07209331062093470620934806EDE24D
:10289000F6E080E522E394E1DF011F978C93119627
:1028A0002C9316968C9311962C9316968C9380836A
:1028B0001A979C9317969C93769636E0EF36F3071B
:1028C00059F782E08093820697E09093810698E022
:1028D0009093100624E62093110624E020930E0620
:1028E00090930F0610927D0694E290937E061092CC
:1028F000800693E090931406809315068CE98093EC
:102900001706DF91CF910895A1E0B0E0EAE8F4E185
:102910000C94393E8C0169830E94C23E69818617FE
:1029200019F0C8010E94CA3E2196E4E00C94553E7D
:10293000EF92FF920F931F93CF93DF93EC018B01E4
:102940007A01E80EF91ECE15DF0539F06991C8014C
:102950000E9484140F5F1F4FF6CFCDB7DEB7E6E0BD
:102960000C94533EF89446E951E060E070E082EC4C
:1029700095E00E9498147894089580E090E00E9479
:10298000C23E813529F00E94DF130E94B2140895DF
:1029900046E951E060E070E082EC95E00E94B23ED2
:1029A0000895ACE0B0E0E7EDF4E10C942B3E0E941A
:1029B000D11F1F8218E0712C212C1E821D82F12C48
:1029C0001C82312CC12CD12C1B821A82412C512CFF
:1029D0001C861B86812C912C5401612C19828091BC
:1029E00016018F5F809316012B853C852C343C4467
:1029F000C8F0739410921A01109219010E94733B4F
:102A000020917606309177068217930720F4809103
:102A10001D01886003C080911D01877F80931D0187
:102A20001C861B86812F90E08B30910508F060C0DA
:102A3000FC01E25CFF4F0C94F43D83B1807F803F4A
:102A400039F080916E00816080936E0013E04BC07E
:102A500010926E0081E085BB4BC080916A078111A6
:102A600044C02981211141C080911C0182FF40C0D6
:102A700014E04AC00E94221116E0412C512C44C09F
:102A80001F9B36C015E034C032E0371598F11F9B0C
:102A900033C043E14416540658F113E035C0809129
:102AA0006A0781112BC02981211128C080911C0146
:102AB00082FF2AC018E01CC00E94221A19E024C01C
:102AC00080916A0781111CC03981311119C0809130
:102AD0001C0182FF19C010E00BC029980E945D2BD9
:102AE0000E94881F14E0712C0FC014E001E00AC09E
:102AF00000E00BC017E008C01AE006C018E001C0F3
:102B000010E000E0198201C001E08091B200409124
:102B1000B2004A8790911C014091800693FD02C04B
:102B2000411107C080911D018B7F80931D01212CD5
:102B30000EC08F19880E911CA11CB11C85E9881646
:102B400081EE980681E1A806B10420F02394812C3F
:102B5000912C5401222D30E0842F992787FD9095E8
:102B6000281739073CF0442329F080911D01846027
:102B700080931D010E94733B209176063091770669
:102B80008217930720F480911D01886003C0809113
:102B90001D01877F80931D0180911D0183FD0CC065
:102BA00080911D0182FD08C080911D0181FD04C03E
:102BB00080911C0182FF06C080911B0184FF02C02E
:102BC000299A01C029980E94623680911C0182FDD9
:102BD00012C08091CD079091CE07C297D4F4809116
:102BE0001D018D7F80931D018CE0E9EAF7E01192D1
:102BF0008A95E9F70EC080E090E0FC01EE0FFF1F20
:102C0000E153F84F11821082019688309105A9F79F
:102C1000E0CFE0910E06EE0FFF0BE153F84F8081FD
:102C20009181853F914024F082E0809346070BC05C
:102C3000808191818D309E4F24F041E04093460782
:102C400002C01092460720914607332727FD309592
:102C50004F81842F90E02817390721F480911C01BF
:102C600087FF10C080911C018F7780931C010E9408
:102C7000A52E8CE0E9EAF7E011928A95E9F7209118
:102C800046072F830E941E37E09146078E2F992713
:102C900087FD909536E1E302F0011124E45EF94FDF
:102CA0002081213069F0223019F021110EC004C0BA
:102CB00020911C0124FD04C020911C012E7F03C023
:102CC00020911C01216020931C01209116062230C6
:102CD00049F420911C0122FF05C020911C012160B4
:102CE00020931C0126E1289FF001299FF00D11245B
:102CF000E55EF94F8081882331F0813049F480917D
:102D00001C01826003C080911C018D7F80931C0197
:102D100080911C0181FD06C08CE0E9EAF7E0119288
:102D20008A95E9F70E9410219987888740911201BE
:102D30005091130160911401709115018C199D0936
:102D4000A0E0B0E0480F591F6A1F7B1F409312019B
:102D500050931301609314017093150140910E017B
:102D600050910F016091100170911101480F591F8E
:102D70006A1F7B1F40930E0150930F016093100157
:102D80007093110180910C0190910D012091B2007E
:102D90003E81231B820F911D90930D0180930C01A6
:102DA0004091B2004E838091B20083192B853C85FF
:102DB000280F311D3C872B873090B2008091B200E4
:102DC0003C81831B480E511C4091B2004C83809182
:102DD000B2002D81821B2A813B81280F311D3B834C
:102DE0002A833091B2003D832A813B8180911B016F
:102DF00033FF02C0806101C08F7E80931B018091F0
:102E00000C0190910D018632964290F080911C0148
:102E1000846080931C0180910C0190910D018C3491
:102E20009C4430F08BE49CE490930D0180930C0162
:102E300040910E0150910F016091100170911101AC
:102E40008091990790919A07A0919B07B0919C0758
:102E500088579C4EAF4FBF4F84179507A607B707FB
:102E600068F480911C0182FD09C080911C0186FFDD
:102E700005C080911C01806280931C014091120169
:102E8000509113016091140170911501809199077F
:102E900090919A07A0919B07B0919C078417950782
:102EA000A607B70770F480911C0186FF0AC0109234
:102EB0001201109213011092140110921501662450
:102EC00063940E94821A0E944F0D0E94102116BC2A
:102ED00020911701309118012091170130911801AC
:102EE000AC01421B530B9093180180931701809102
:102EF00084079091850760E070E0029718F46A01FA
:102F00007B0111C0C0908407D0908507E12CF12C83
:102F10008FE0CC0CDD1CEE1CFF1C8A95D1F7C40E93
:102F2000D51EE61EF71E1092850710928407C70172
:102F3000B6010E94DA1DC701B6010E94BB33809121
:102F40001B0185FF0BC080916A07882339F010921E
:102F50006A0780911B018F7D80931B0180916A0716
:102F6000882321F080911C0186FD20C080916A0792
:102F700081110AC080911C0182FD06C080911C0154
:102F800085FF02C0611012C080916A07882321F07A
:102F9000FA84C884D98423CD80911C0182FFF8CFA4
:102FA0006620B1F380911606882391F380916A0719
:102FB000882321F010926A0721E029830E94BB3404
:102FC0000E9411300E94D037011102C00E94C63801
:102FD00010921601612CDCCF0F931F93CF93DF93D8
:102FE000C7E0D0E0082F10E05C98C8010C2E02C0AA
:102FF000959587950A94E2F780FF02C0599A01C01F
:1030000059985C9A0E94EA0C219770F7DF91CF9152
:103010001F910F9108955F980E94EC1708955F9A91
:103020000E94EC170895CF93C82F81E80E940B18D7
:103030008C2F0E940B18CF910895CF93DF935D984A
:103040005E9887E893E10197F1F700C000005E9A6F
:10305000CFEEDDE0FE0184910E940B182196FDE089
:10306000CD3FDF07B9F780917E060E94131888ECE8
:103070000E940B18DF91CF910895A0E0B0E0E3E447
:10308000F8E10C94363ECDEFDDE08C01FE01849139
:10309000806B0E940B1880E00E940B1880E10E9458
:1030A0000B1880EE0E940B187801D12CF70181914A
:1030B0007F010E940F18D394F0E8DF12F7CF21961A
:1030C00000581F4F8EE0C530D80701F7CDB7DEB7E7
:1030D000E7E00C94523E20E034E0FC01A90111929B
:1030E00041505040E1F70895CF93DF93D0E08D2F0A
:1030F000806B0E940B18C0E08C2F8F700E940B1801
:103100008C2F82958F7080610E940B1880E00E9446
:103110000F18CF5FC03881F7DF5FD83041F7DF91FC
:10312000CF91089567FD36C04034A0F5342F369511
:1031300036953695E62FF0E050E02223A9F020E8FE
:10314000329FE00DF11D1124E80FF91F40955095B5
:103150004770552781E090E0042E01C0880F0A9443
:10316000EAF79081982B15C020E8329FE00DF11D01
:103170001124E80FF91F409550954770552781E0BD
:1031800090E0042E01C0880F0A94EAF780959081A0
:10319000982390830895A0E0B0E0E1EDF8E10C946D
:1031A000323EEC01162FF42ED22EA02FB0E0A41B3D
:1031B000B109B7FF03C0B195A195B109ED2DF0E0BC
:1031C000E11BF109F7FF03C0F195E195F109BB247B
:1031D000B394EA17FB0714F0B12C06C08D2DD02E46
:1031E000082F812F1F2DF82ED11630F48F2DF02EA1
:1031F000082F812F1D2DD82EAD2CA11AE02FF0E025
:10320000EF19F109F7FF03C0F195E195F1099E2E41
:10321000CA2CC694F01610F401E010C00FEF0EC0D7
:103220002E2DBB2071F0412F6F2DCE010E949218E0
:10323000C918C7FE02C0F00ECA0C1F5F1D1580F32F
:1032400003C04F2D612FF1CFCDB7DEB7EBE00C946B
:103250004E3EA0E0B0E0EFE2F9E10C94333E6C01A9
:10326000A42EF62EC22FD0E0C60FD11D10E0040F01
:10327000111D8F2D90E08C179D0784F4BA2C8B2D97
:1032800090E08017910744F42E2D4B2D6F2DC60131
:103290000E949218B394F3CFF394EBCFCDB7DEB77F
:1032A000EAE00C944F3EA0E0B0E0E9E5F9E10C94CF
:1032B000323EEC01F62EB42E922E162FC22ED12CB9
:1032C000C60ED11CAA24AA94A00EA40E812F90E0B1
:1032D0008C159D0574F42E2D4B2D612FCE010E946F
:1032E00092182E2D4A2D612FCE010E9492181F5F39
:1032F000EDCFDB2C10E00B0D111DCC24CA94C90CB2
:10330000CF0C8D2D90E08017910774F42E2D4D2D4C
:103310006F2DCE010E9492182E2D4D2D6C2DCE01B9
:103320000E949218D394EDCFCDB7DEB7EBE00C94AA
:103330004E3EA0E0B0E0EFE9F9E10C942D3EEC0147
:10334000962EA42EBB24B394B21A822E8194880C9C
:10335000122F742E721AE42EF12C6701C20ED11CAA
:10336000872D992787FD9095C816D90644F0202F00
:10337000472D692DCE010E9492187394F1CF712CC4
:1033800071160CF04CC0B7FC04C0115083948394A8
:10339000B80C7394872D880F8F5FB80E6A2C611A52
:1033A0006701C10ED11C17FDDA94472C490C592C2A
:1033B0005718862D992787FD9095C816D90674F061
:1033C000202F462D642DCE010E949218202F462DCD
:1033D000652DCE010E9492186394EBCF6A2C67187A
:1033E0006701C70CD11C77FCDA94412E490C592C8B
:1033F000511A862D992787FD9095C816D9060CF489
:10340000BFCF202F462D642DCE010E949218202F71
:10341000462D652DCE010E9492186394EACFCDB758
:10342000DEB7E0E10C94493EE82FF0E0EE0FFF1F1D
:10343000EB5FF14F859194910E94703308950E9443
:103440007033089585E491E00E946B182AE030E023
:1034500048E250E060E771E08AE70E94141A2EE12A
:1034600030E048E150E060E771E08BE70E94141A19
:1034700085E491E00E943D180895A6E0B0E0E3E401
:10348000FAE10C943B3E81E00E948D0E8091780021
:10349000909179009A83898384E00E948D0E8091B7
:1034A0007800909179009C838B8382E00E948D0E3E
:1034B00080917800909179009E838D8320917D0684
:1034C000A4E8B5E043E024029001112480E090E0FC
:1034D0002B57394EF901E80FF91FE491EE0FFF0B5E
:1034E00041E050E04C0F5D1FE40FF51F408151811A
:1034F0004D935D9301968330910561F72696E2E046
:103500000C94573E1F93CF93DF930E943D1A209156
:103510007D06C0E4D7E0A4E8B5E083E0280290018E
:10352000112480E090E02D58394E69917991F9018C
:10353000E80FF91F14914D915C911197461B570BA1
:103540001403B001159F700D11246D937D930196A6
:103550008330910551F7DF91CF911F910895CF935B
:1035600086E0E0E4F7E0DF011D928A95E9F7C0E22A
:103570000E943D1A40914007509141078091840577
:1035800090918505480F591F50934107409340077C
:1035900020914207309143078091860590918705DD
:1035A000280F391F30934307209342078091440727
:1035B000909145076091880570918905860F971F46
:1035C0009093450780934407C15091F665E0559567
:1035D00047956A95E1F7509341074093400775E09E
:1035E000359527957A95E1F7309343072093420765
:1035F000E5E095958795EA95E1F7909345078093E7
:1036000044070E94B214CF910895A5E1B0E0EBE029
:10361000FBE10C942B3E1E861D86188A1F861A8A93
:10362000198A0E94AF1A609140077091410788275C
:1036300077FD8095982F0E94963C69837A838B83CF
:103640009C836091420770914307882777FD80959E
:10365000982F0E94963C6D837E838F83988760911C
:10366000440770914507882777FD8095982F0E9421
:10367000963C69877A878B879C871D8A1B8AE12CF9
:10368000F12C00E010E08091B2009D89891BE80ECA
:10369000F11CE091B200ED8BFCE4EF16FF0628F080
:1036A0008B898F5F8B8BE12CF12C0E943D1AFE01E0
:1036B00031966F01F4E82F2EF5E03F2ECE010D96E6
:1036C0005C011C8AF101819091901F0120E030EC97
:1036D00049E754E4F60160817181828193810E94FF
:1036E0004A3D2B013C01B401882777FD8095982F36
:1036F0000E94963C9B01AC01C301B2010E94933B26
:1037000020E030E04AE754E40E94FB3BF60160838E
:103710007183828393830E94633CF5012081318110
:103720002617370711F000E010E0F501619371935F
:103730005F01FC89FF5FFC8B84E0C80ED11CF33075
:1037400009F60F5F1F4F093C110520F00E94AF1AC8
:1037500081E001C080E0E7E8F3E13197F1F700C0D4
:103760000000811104C0FB89F63008F48CCF659607
:10377000E2E10C94473E4F925F926F927F928F925C
:103780009F92AF92BF92CF92DF92EF92FF92CF9330
:10379000DF93CDB7DEB728970FB6F894DEBF0FBE24
:1037A000CDBF6B017C018090BA059090BB05A090C5
:1037B000BC05B090BD059B01AC010E944A3D20E0D4
:1037C00030E040E05FE30E944A3D9B01AC0160E0D5
:1037D00070E080E89FE30E94923B69837A838B8349
:1037E0009C834090BE055090BF056090C0057090CE
:1037F000C1059B01AC01C501B4010E944A3D6D8326
:103800007E838F839887A7019601C301B2010E942E
:103810004A3D9B01AC016D817E818F8198850E941C
:10382000923B6093A6057093A7058093A80590939B
:10383000A905A7019601C501B4010E944A3D6B018B
:103840007C0129813A814B815C81C301B2010E94D4
:103850004A3D9B01AC01C701B6010E94933B6093B6
:103860008A0570938B0580938C0590938D0528961F
:103870000FB6F894DEBF0FBECDBFDF91CF91FF90A2
:10388000EF90DF90CF90BF90AF909F908F907F9000
:103890006F905F904F900895CF92DF92EF92FF92DA
:1038A00069017A0125EF31EA4BE85CE30E944A3D69
:1038B000A70196010E944A3D6B017C0126EA3AE08D
:1038C00046E85EE30E94463D18169CF026EA3AE080
:1038D00046E85EEBC701B6010E94F73B87FF11C0C7
:1038E00086EAC82E8AE0D82E86E8E82E8EEBF82EDF
:1038F00008C096EAC92E9AE0D92E96E8E92E9EE3F2
:10390000F92EC701B601FF90EF90DF90CF90089598
:103910008F929F92AF92BF92CF92DF92EF92FF92DF
:103920000F931F936B017C0160919A0570919B0529
:1039300080919C0590919D05A70196010E944C1CC9
:1039400000911E0110911F01209120013091210151
:103950000093BA051093BB052093BC053093BD05B9
:1039600000910001109101012091020130910301A9
:103970000093BE051093BF052093C0053093C10589
:103980000E94BB1B8091A6059091A705A091A80558
:10399000B091A90580931E0190931F01A09320016F
:1039A000B093210180908A0590908B05A0908C05A2
:1039B000B0908D058092000190920101A0920201C9
:1039C000B092030160919E0570919F058091A005C2
:1039D0009091A105A70196010E944C1C0091220123
:1039E0001091230120912401309125010093BA0503
:1039F0001093BB052093BC053093BD058092BE0596
:103A00009092BF05A092C005B092C1050E94BB1B59
:103A10008090A6059090A705A090A805B090A90554
:103A20008092220190922301A0922401B09225015C
:103A300080918A0590918B05A0918C05B0918D05A0
:103A40008093000190930101A0930201B0930301C0
:103A50006091880570918905882777FD8095982F5A
:103A60000E94963CA70196010E944C1C8092BA05C8
:103A70009092BB05A092BC05B092BD05C0901E01FE
:103A8000D0901F01E0902001F0902101C092BE056E
:103A9000D092BF05E092C005F092C1050E94BB1B09
:103AA0008091A6059091A705A091A805B091A905C0
:103AB0008093220190932301A0932401B0932501C8
:103AC00080918A0590918B05A0918C05B0918D0510
:103AD00080931E0190931F01A0932001B0932101B8
:103AE0001F910F91FF90EF90DF90CF90BF90AF901C
:103AF0009F908F900895CF92DF92EF92FF9220E0F7
:103B000030E044EB52E40E944A3D6B017C0120E02E
:103B100030E0A901609100017091010180910201E2
:103B2000909103010E94F73B87FF18C020E030E02E
:103B3000A901C701B6010E94463DA70196011816CA
:103B40002CF460E070E084E393E404C060E070E093
:103B500084E393EC0E94923B6B017C01C701B601A8
:103B6000FF90EF90DF90CF900895609122017091C7
:103B7000230180912401909125010E947B1D609377
:103B8000B6057093B7058093B8059093B905609119
:103B90001E0170911F0180912001909121010E94CE
:103BA0007B1D60938E0570938F0580939005909395
:103BB00091050895A0E1B0E0E0EEFDE10C942D3E0A
:103BC0000E94943C69837A838B839C8320E836E946
:103BD00048E15AE40E94FB3B6D877E878F87988B74
:103BE0006091820684E06802B00111246956794E22
:103BF00044E050E0CE0101960E94843E509082063F
:103C0000C980DA80EB80FC802EE3622E21E0722EE8
:103C10000AEA15E0D3016D917D913D01882777FD7A
:103C20008095982F0E94963C4B015C01B7E05B1693
:103C3000F1F020E030E040E85FE3C701B6010E9408
:103C4000923BF80120813181428153810E944A3D9B
:103C5000A50194010E94923BA70196010E94FB3BA3
:103C6000D8016D937D938D939C93139709C0B7FAF8
:103C7000B094B7F8B094F80180829182A282B382A6
:103C80000C5F1F4FF4E46F16F1E07F0619F623EC8A
:103C900035EF48E25FE36091AA057091AB05809132
:103CA000AC059091AD050E944A3D6D837E838F8364
:103CB00098876093920570939305809394059093F1
:103CC000950523EC35EF48E25FE36091AE05709116
:103CD000AF058091B0059091B1050E944A3D69877A
:103CE0007A878B879C87609396057093970580935E
:103CF00098059093990560918405709185058827B2
:103D000077FD8095982F0E94963C2B013C01609393
:103D10009E0570939F058093A0059093A1056091E7
:103D2000860570918705882777FD8095982F0E94DA
:103D3000963C6B017C0160939A0570939B05809380
:103D40009C0590939D0520913E0130913F0140914B
:103D5000400150914101E0914201F0914301449FA3
:103D60004001459F900C900C1124B401882777FDE9
:103D70008095982F229FA001239F500D500D112454
:103D80008A01222717FD2095322F600F711F821F95
:103D9000931FEE9F9001EF9F300D300D112489018C
:103DA000222717FD2095322F600F711F821F931F4E
:103DB0000E94943C4B015C0120E034EF48E356E460
:103DC0000E94463D18160CF06FC020E038E449EA26
:103DD00056E4C501B4010E94F73B87FF65C020E0AF
:103DE00030E040E05FE3609100017091010180915B
:103DF0000201909103010E94463D18160CF054C038
:103E0000809181066BE070E0681B710987FD7395F6
:103E1000882777FD8095982F0E94963C4B015C0186
:103E20002D813E814F8158856091B6057091B7050F
:103E30008091B8059091B9050E94923BA50194012B
:103E40000E94FB3B9B01AC01C301B2010E94933B6A
:103E500060939E0570939F058093A0059093A105A4
:103E600029853A854B855C8560918E0570918F051B
:103E700080919005909191050E94923BA50194013B
:103E80000E94FB3B9B01AC0169837A838B839C83FB
:103E9000C701B6010E94933B60939A0570939B05FE
:103EA00080939C0590939D056D857E858F8598896F
:103EB0000E94881C0E94B51D20E030E048EC52ECC6
:103EC0006091B6057091B7058091B8059091B905DC
:103ED0000E944A3D0E94633C7093A3056093A20533
:103EE00020E030E048EC52EC60918E0570918F0537
:103EF00080919005909191050E944A3D0E94633CFB
:103F00007093A5056093A4056096E0E10C94493E8A
:103F10001092220110922301109224011092250187
:103F200010921E0110921F01109220011092210187
:103F300080E090E0A0E8BFE380930001909301014E
:103F4000A0930201B09303011092BA051092BB0531
:103F50001092BC051092BD051092BE051092BF05CF
:103F60001092C0051092C1051092B6051092B705C7
:103F70001092B8051092B90510928E0510928F0517
:103F80001092900510929105109285071092840767
:103F9000109285001092840010921801109217015F
:103FA000089511B88AE084B917B882EF8AB92B98BE
:103FB00029985C9A85EF83B98CE089B989B92FE596
:103FC00088ED93E0215080409040E1F700C0000070
:103FD00083B1807F803729F483EF8AB983E00E9420
:103FE000F10C83B1807F803B29F483EF8AB985E0AF
:103FF0000E94F10C83B1807F803D29F483EF8AB960
:1040000087E00E94F10C83B1807F803E29F483EF2A
:104010008AB989E00E94F10C82EF8AB98DE089B9F2
:1040200014BC85E085BD80916E00816080936E0038
:1040300016BC109280008091810082608093810084
:104040001092B00087E08093B1001092700017BA10
:104050001092B20098E0909368009FE09BBB95E1BE
:10406000909369008CBB10926A0710921C0180919A
:104070001C01806880931C01109259070E941D1832
:104080000E9474182FE78FE492E121508040904005
:10409000E1F700C0000083B1807F803951F580ECEA
:1040A0000E940B1885E491E00E946B1829E130E032
:1040B00048E250E060E771E081E00E94141A85E474
:1040C00091E00E943D1885E491E00E946B180E94E7
:1040D000DF130E94B21480917E060E9413182FE70E
:1040E00084E89EE1215080409040E1F700C000004C
:1040F00002C00E94BD1480917E060E94131885E4C0
:1041000091E00E946B1885E491E00E943D180E94A6
:104110001D1885E491E00E946B1880EC0E940B183A
:1041200029E130E042E150E060E771E082E00E9486
:10413000141A85E491E00E943D1885E491E00E9404
:104140006B180E94870E0E9499260E9405380E94D3
:10415000051B811127C085E491E00E946B1829E1BD
:1041600030E049E150E060E771E08DE30E94141A0D
:1041700085E491E00E943D182FEF88E09DE32150F7
:1041800080409040E1F700C00000F89428E088E10A
:1041900090E00FB6F894A895809360000FBE20932E
:1041A0006000FFCF0E94733B90932701809326010C
:1041B0000E94A52E80916A07882369F00E946236CA
:1041C0008091CD079091CE07C3972CF080911D016F
:1041D000826080931D010E94881F299A2FE986E83A
:1041E00091E0215080409040E1F700C00000299804
:1041F00008951F920F920FB60F9211248F939F93E1
:10420000809184079091850701969093850780930C
:1042100084079F918F910F900FBE0F901F9018955C
:104220002FB7F89480918400909185002FBF089556
:104230001F920F920FB60F9211242F933F934F931B
:104240005F936F937F938F939F93AF93BF93EF93FE
:10425000FF934899D7C00E9410212091A007309168
:10426000A1072091A0073091A107AC01421B530B7D
:104270009A012F355AE1350708F443C020915907B8
:104280002A3030F4209159072F5F2093590705C039
:1042900020911C01206420931C0120911C0126FD0B
:1042A00029C020918007309181078217930788F4F5
:1042B000209180073091810740E050E061E070E09C
:1042C000421B530B61097109480F591F611D711D74
:1042D00009C02091800730918107AC01421B530B2C
:1042E00060E070E04093990750939A0760939B07B2
:1042F00070939C0710929F0790938107809380078B
:1043000005C02E3E324010F410929F079093A107F3
:104310008093A007E0919F07F0E0EE53FA4FE18110
:1043200020919F07222339F0A0919F07B0E0AE5360
:10433000BA4F2C9101C020E030919F07383038F4FB
:10434000F0E0EE0FFF1FE957F84F91838083309123
:104350009F07332399F030919F07393078F430E08C
:10436000220F331FF901E957F84F40815181841B17
:10437000950BF901E65AF84F9183808380919F074E
:104380008F5F80939F0790919F0780917B0789178C
:1043900048F480911C0186FD05C080919F078093A1
:1043A0007B0730C090919F0780917B0798132AC0AC
:1043B00081E080936A07109212011092130110920B
:1043C00014011092150110920E0110920F0110921B
:1043D00010011092110110920D0110920C018091A8
:1043E0001C0182FF0AC080911B01806280931B0127
:1043F00080911C018B7F80931C0180911C018F7D1B
:1044000080931C01FF91EF91BF91AF919F918F918C
:104410007F916F915F914F913F912F910F900FBEC0
:104420000F901F9018951F920F920FB60F921124A4
:104430000F931F932F933F934F935F936F937F93AC
:104440008F939F93AF93BF93CF93DF93EF93FF939C
:104450008091C000982F947121F483FF05C0809152
:10446000C6008091C60050C4C091C6000E941021B1
:104470002091A0073091A1072091A0073091A107BA
:10448000AC01421B530B453C594008F44FC02091EE
:1044900059072A3030F4209159072F5F209359078C
:1044A00005C020911C01206420931C0120911C0157
:1044B00026FD2AC02091800730918107821793073B
:1044C00088F4209180073091810740E050E061E05E
:1044D00070E0421B530B61097109480F591F611DA0
:1044E000711D0AC04091800750918107DC01A41B17
:1044F000B50BAD0160E070E04093990750939A07C7
:1045000060939B0770939C071092580710927E0748
:1045100010929F071092A5071092A4071092980777
:104520001092970790938107809380079093A1073B
:104530008093A00780915807863250F4E091580785
:1045400081E08E0F80935807F0E0EB5BFA4FC08359
:1045500080910B06833009F070C180917E07811134
:104560000FC0C0937F078C2F807E51F08091A407ED
:104570009091A5078B5A9F4F9093A5078093A4070E
:1045800080917E07813011F4C093830780917E076C
:104590002C2F30E0823021F4309398072093970736
:1045A00080917E078330B9F080919F0740917E070C
:1045B00090E0880F991F039650E084179507D4F177
:1045C0008091A4079091A507820F931F9093A50750
:1045D0008093A40794C38091970790919807982F90
:1045E00088279093980780939707809197079091D9
:1045F0009807822B932B909398078093970780912D
:10460000970790919807409197075091980750937A
:104610007D0740937C0710929F07009729F2AC0119
:10462000415051098423952340919F074F5F409348
:104630009F07F3CF8091A4079091A50799279093A6
:10464000A5078093A4078091A4079091A5078217DE
:10465000930739F010929F071092A5071092A407B4
:10466000EDC12B9881E080936A071092120110929D
:104670001301109214011092150110920E01109264
:104680000F01109210011092110110920D01109261
:104690000C0180911C0182FF0AC080911B01806285
:1046A00080931B0180911C018B7F80931C01809162
:1046B0001C018F7D80931C01C0910C0680E090E06E
:1046C00020E034E04FEF5FEFFC01EE0FFF1FDF0152
:1046D000A65AB84F11961C921E92E559F84FC23057
:1046E00019F45183408307C0C13019F4318320830A
:1046F00002C01182108201968830910529F728EFB7
:104700003FEFD4E061E070E0409197075091980747
:10471000D9011896CB010A2E02C0880F991F0A945E
:10472000E2F784239523892B09F480C0ED2FF0E074
:10473000EB5BFA4F808190E0982F88274181840FAE
:10474000911D48E0420F483070F4880F991F825144
:104750009D4FF901EE53FA4FE185F0E0EE0FFF1F98
:10476000E65AF84F5EC0F901EE0FFF1FC230B1F5F7
:10477000AC014C5D5540CA019595879595958795F7
:10478000840F951F8A011595079515950795159521
:104790000795800F911F8A01689413F81595079566
:1047A0001694E1F7800F911F8A01689414F815950B
:1047B00007951694E1F7800F911F16E055954795E0
:1047C0001A95E1F7840F951F9C5F9770BA2FAA275F
:1047D000BB0FBB0FBB0F8A2B9B2B21C0C130F9F441
:1047E000AC014C5D5540CA0195958795840F951F86
:1047F000DA0114E0B595A7951A95E1F78A0F9B1F8A
:10480000DA0105E0B595A7950A95E1F78A0F9B1F98
:10481000440F452F441F550B840F951F9C5FE5598E
:10482000F84F91838083D63208F4DE5F2F5F3F4FCD
:104830002830310509F068CF62C2813009F000C12B
:1048400090917E07983109F05AC290915C0590933F
:10485000440195FDF3C02B9880936A0710921201D2
:1048600010921301109214011092150110920E0172
:1048700010920F01109210011092110110920D016F
:1048800010920C0180911C0182FF0AC080911B01D3
:10489000806280931B0180911C018B7F80931C019F
:1048A00080911C018F7D80931C0180E090E09C0131
:1048B000220F331FF901E65AF84F11821082F901D5
:1048C000E559F84F1182108201968830910579F7E9
:1048D000B0EB70E060E0A0E0C1E021E030E0EC2F60
:1048E000F0E0EB5BFA4F808190E00A2E02C09595D4
:1048F00087950A94E2F780FF2BC06830A0F4E62F7A
:10490000F0E0EE53FA4FE181F0E0EE0FFF1FE65AC0
:10491000F84F80819181A901072E02C0440F551FD5
:104920000A94E2F711C0603198F4E62FF0E0EE0F40
:10493000FF1FE55AF84F40815181C901072E02C07F
:10494000880F991F0A94E2F7842B952B918380831B
:10495000AF5F7F5FA83011F4CF5FA0E07B3011F430
:104960006F5F70E0B15009F0BACF80E090E0FC01D9
:10497000EE0FFF1FE65AF84F4081518154509A01C3
:104980003595279535952795240F351F2A55314F95
:104990003183208301968830910549F7A0910C0658
:1049A00020E030E0A23059F5F901EE0FFF1FE55984
:1049B000F84F408151815450CA01C4E095958795C4
:1049C000CA95E1F7840F951FBA01D6E075956795F2
:1049D000DA95E1F7860F971F440F452F441F550BBB
:1049E000840F951F9C5F9770A901485F5F4F542FFC
:1049F0004427550F550F550F842B952B16C0A33008
:104A0000B1F4F901EE0FFF1FE559F84F40815181D4
:104A10005450CA019595879573E0559547957A95B9
:104A2000E1F7840F951F84529A4F918380832F5F03
:104A30003F4F2830310509F0B5CF61C12B9A5FC1D6
:104A4000823009F05CC180917E078F3009F057C138
:104A5000C09354058091470587FF08C081E080938B
:104A6000860710929E0710929D0706C01092860737
:104A70001092A3071092A20780918207909145059A
:104A8000981711F02B9A01C02B98809145058093BF
:104A900082078091460584FF04C0C7E063E078E7A1
:104AA00003C0C3E062E07CE3D0910C06E8E4F5E0EB
:104AB00041E050E0DF0111971C91212F272330E0C6
:104AC000062E02C0359527950A94E2F720939F079A
:104AD000208130E0A12FAC23B0E09A2F8827820FED
:104AE000931FA0919F07A830C8F59C01633011F473
:104AF000345001C03250C901880F991FD901B595B2
:104B0000A795B595A7958A0F9B1FD90105E0B59587
:104B1000A7950A95E1F78A0F9B1FD90116E0B59575
:104B2000A7951A95E1F78A0F9B1F220F232F221FAB
:104B3000330B820F931F633011F495958795A091E5
:104B40009F07B0E0AE53BA4F1196AC91B0E08A55D2
:104B5000914FAA0FBB1FA65AB84F61C0A0919F07E3
:104B6000AE3008F05FC0D33019F59C013450C90154
:104B700095958795D90114E0B595A7951A95E1F714
:104B80008A0F9B1FD901AA0FAB2FAA1FBB0B8A0F3D
:104B90009B1FA32FBB27A7FDBA958A0F9B1F232F0F
:104BA000330F330B2595820F931F84529A4F26C0E3
:104BB000D13041F59C013450C90195958795D901B3
:104BC000B595A795B595A7958A0F9B1FD90103E0C9
:104BD000B595A7950A95E1F78A0F9B1FD90114E0B7
:104BE000B595A7951A95E1F78A0F9B1F06E03595B5
:104BF00027950A95E1F7820F931F9C5FA0919F076D
:104C0000B0E009C0A0919F07B0E0812F90E0982FFD
:104C10008827820F931FAA0FBB1FA55AB84F119662
:104C20009C938E9380919F078E30C8F58091860764
:104C3000811114C02091A2073091A30780919F0792
:104C4000DA0102C0AA0FBB1F8A95E2F7CD01822BC1
:104C5000932B9093A3078093A20713C020919D07E5
:104C600030919E0780919F07DA0102C0AA0FBB1FF7
:104C70008A95E2F7CD01822B932B90939E07809328
:104C80009D072091A2073091A30780919D079091E5
:104C90009E07822B932B90937D0780937C073296FF
:104CA000B5E0E635FB0709F005CF81E080936A07A0
:104CB000109212011092130110921401109215011A
:104CC00010920E0110920F0110921001109211011A
:104CD00010920D0110920C0180911C0182FF0AC0FC
:104CE00080911B01806280931B0180911C018B7F4E
:104CF00080931C0180911C018F7D80931C01809109
:104D00007E078F5F80937E07FF91EF91DF91CF91B8
:104D1000BF91AF919F918F917F916F915F914F91D3
:104D20003F912F911F910F910F900FBE0F901F90E9
:104D30001895F89480910B068823B1F087FD28C060
:104D4000843034F510926B0010926C0010926D005C
:104D5000109273001DBA8091C10080688093C100D9
:104D60008091C100806112C010926B0010926C00A3
:104D700010926D0081E0809373001DBA8091C10094
:104D80008F778093C1008091C1008F7E8093C10096
:104D900088E08093C9008FE08BBB87E08CBB789460
:104DA0000895811123C029E330E040E050E066E03F
:104DB00071E08CE00E94141A2BE330E046E250E0F0
:104DC00066E071E08AE00E94141A2BE330E040E5CF
:104DD00050E066E071E089E00E94141A29E330E0B7
:104DE00048E750E066E071E08BE022C026E330E067
:104DF00040E050E06EE17AE080E10E94141A2BE37B
:104E000030E046E250E066E071E08AE00E94141A69
:104E10002BE330E040E550E066E071E089E00E947D
:104E2000141A26E330E047E650E06EE17AE081E1D3
:104E30000E94141A85E491E00E943D180895AAE0AA
:104E4000B0E0E5E2F7E20C943B3E25E0629F800D86
:104E5000911D1124BC0145E050E0CE0106960E9450
:104E6000843E85E0FE013696DE01119601900D929A
:104E70008A95E1F729813A814B815C816D8170E0EF
:104E800080E090E02A96E2E00C94573E0F931F9347
:104E9000CF93DF93E42F10E0C22FD0E0662319F008
:104EA0006250623060F44AE06BE675E00E948D3E2D
:104EB0009801AE016EE17AE00E94943307C0980138
:104EC000AE016EE17AE08E2F0E94141ADF91CF912D
:104ED0001F910F910895682F93B1907F9093A6072B
:104EE00080E071E09091A607903FC9F483B1807F84
:104EF000E7EAF1E63197F1F700C0000023B1482F4F
:104F000050E0207F30E04217530719F48093A60742
:104F100001C080E0109228017093A707E3CF6623B9
:104F200071F0909128019F5F909328019A3038F09A
:104F3000109228019091A7079F5F9093A70708956B
:104F4000A4E1B0E0E6EAF7E20C942B3E982E7E87CF
:104F50006D87B42EED82FE820F83D12E18872987AC
:104F60004E2D3F2D0A87FB012081622E772467FC9E
:104F70007094F2E01F1305C05B2D2503300111244E
:104F800002C0BB24B39420EF2093A6078B2D90E0A2
:104F9000988B8F872B2D4203100111243203C001FF
:104FA00011249C878B8791E0512C412CF12C092DE9
:104FB00010E0000F111F0B5F114FEC2DFF27E7FDD5
:104FC000F095FA8BE98B5EEFC52ECD0C2A2D30E0E3
:104FD0003C8B2B8B8091A607803E09F403C188206F
:104FE00011F025E001C021E0803F19F04394241521
:104FF00010F4512C412C882049F0F39437E03F15F0
:1050000010F4803F19F4992309F469C085E491E014
:105010000E946B18F8018591949120E030E040E007
:1050200050E060E771E00E941F1ADD2019F051E0A6
:105030005C1540F14AE06BE675E0C3010E948D3ECD
:10504000AE014F5F5F4F60E771E00E947C32898163
:105050009A8120E8E22EF12CE81AF90AF694E794F6
:1050600089899A89E80EF91E4AE06BE675E0C3016A
:105070000E948D3E29E130E0A70160E771E00E94C7
:10508000943325C0EB89FC89E60DF71DEE0FFF1F59
:10509000EB5FF14F859194910E94C632AE014F5F54
:1050A0005F4F60E771E08BE695E00E947C3289817A
:1050B0009A8140E850E0481B590B5695479529E1E5
:1050C00030E060E771E08A2D860D0E94141A81E0BD
:1050D0000E94D12685E491E00E943D18F12C92E0D7
:1050E000D91629F19D1568F0DD20C9F0E1E0DE1246
:1050F0002FC09FE3E2E4FFE09150E040F040E1F791
:1051000025C0F3E0DF16D9F024E0D21221C0FFE37E
:1051100022E43FE0F15020403040E1F717C03FE784
:105120005AE186E0315050408040E1F70FC02FE750
:105130003AE156E0215030405040E1F707C08FE798
:1051400098E3E1E081509040E040E1F700C00000CA
:10515000882041F083B1807F8093A60751E050936F
:10516000A70703C081E00E946B278091A607803FBC
:1051700039F18820C9F0803D51F4511043C080912D
:10518000A7079A85989F6018710811240BC0803B6F
:1051900081F4511037C08091A707EA85E89F600C21
:1051A000711C1124412C2EC0803D49F3803B99F3A2
:1051B000512C803729F429853B2D230330011124FC
:1051C000621473040CF431018B859C858615970558
:1051D0000CF43C0197EA991203C0862D0E94131823
:1051E00090E0F8CEE2E0DE1206C0C3016F85788958
:1051F0000E94C13D3B01ED85FE8560826496E2E13F
:105200000C94473E55245394DBCF90E0981781F0DF
:10521000299AEFE0F7E23197F1F700C000002998F2
:10522000EFE0F7E23197F1F700C000009F5FEECFAB
:105230000895A3E0B0E0EFE1F9E20C94353E582F79
:10524000F601D7019C91940F9C93640F203EA1F42A
:10525000D8018C918F3059F018F4833049F04BC04D
:105260008B3141F0873209F046C09D5F01C09F5FDE
:10527000908341C09E5FFCCF203DF9F4F80180810E
:105280008F3069F018F4833031F015C08B3159F04C
:10529000873269F010C0523070F18FE027C0533070
:1052A00050F18BE11FC0543030F187E21FC0553000
:1052B00010F188E217C088E219C0203BD1F4F80150
:1052C00080818F3069F020F4833079F482E00AC065
:1052D0008B3121F0873249F48BE108C08FE002C0A6
:1052E00083E004C0F801808306C082E0D8018C937B
:1052F00002C0203F91F081E04B835A8369830E9472
:105300000529BFEFE4E3FCE0B150E040F040E1F7F5
:1053100000C0000069815A814B81D8018C91823094
:1053200041F483E08C93F7018081681710F4815079
:105330008083D8018C91883291F487E28C93F701B5
:105340007081272F30E02D5F3F4F852F90E0860F33
:10535000911D01972817390710F47F5F7083D701DB
:105360008C91841B8C932396E8E00C94513E282F5B
:1053700030E043E050E066E071E08DE00E94141AF6
:105380000895A9E0B0E0E7ECF9E20C942B3E382E4A
:105390003A01222E2801EE82CF82888685E491E0B0
:1053A00069870E946B1880E00E94D126232D30E08F
:1053B0006985862F90E0680145E0649FC018D10898
:1053C0001124E5E03E9EC00CD11C1124812C912CAF
:1053D000E12CF12CA81AB90AA20EB31E281B390B16
:1053E000620E731E87010954194EF801249130E0B2
:1053F0004AE050E06EE17AE0832D8E0D0E94141A8F
:10540000FE8145E050E0F11104C0B4016C0D7D1D3A
:1054100001C0B201CE0101960E94843E6C816230CF
:1054200011F031E001C0322DF8010491F501EE0DCB
:10543000FF1D4491D301AE0DBF1D5C91450F2F811F
:105440005303C00111240E944627FFEFEF1AFF0A01
:1054500045E0840E911C84E0E816F10409F0C2CF07
:1054600088850E94B72985E491E00E943D1881E07B
:105470000E946B272996E2E10C94473EAFE0B0E032
:10548000E4E4FAE20C942B3E9091A807992329F0CA
:1054900090EC90932C011092A80790E0019746E1C0
:1054A000489F9001499F300D1124C901855E994F95
:1054B0009F838E83F901EE53FA4F2F011F01FBE505
:1054C0002F0E311C32013F862E86C2018E599F4F0E
:1054D0009B878A87F201E759FF4FFD87EC87809110
:1054E000A607803709F493C0F1019080EA85FB8517
:1054F000F081F987EC85FD85F081F88780900401C3
:1055000089E2A82E87E1B82E9FE4C92EE12C0BEB8F
:1055100016E121E04E815F8160EC80912C010E94B8
:10552000C12929E2C22E21E0D22E3CE2E32E31E055
:10553000F32E04E011E02091A60740E060EC86E144
:105540000E94192960912901605C8BEB96E10E9411
:105550001F2729833A834B835C836D838091A60741
:10556000803EE9F480912901E82FF0E0E759F94EF7
:10557000A490682F70E0605C71092E813F81620FFA
:10558000731F1F921F92812CC12CE980FA800B811E
:105590001C812D8141E00E94A0270F900F908091E7
:1055A000A607803E09F09BCFEE85FF858081981687
:1055B00049F0F301E15AFF4F813019F48DE7808300
:1055C00001C01082F301EE59FF4F8081F985F81771
:1055D00049F0F301EA59FF4F813019F48DE78083D8
:1055E00001C01082F301E759FF4F808128852817F9
:1055F00039F03496813019F48DE7808301C0108230
:105600000E94A52E0E94B2140E94D22B5ECF2F962C
:10561000E2E10C94473E90E0FC01ED54F109E731E2
:10562000F105E8F5E75BFF4F0C94F43D83E031C0F2
:1056300081E02FC00E94BB1208950E94260F08959A
:1056400081E001C082E00E943E2A089583E0FBCF02
:105650000E94391008950E94970E089580E00DC0B1
:1056600081E00BC082E009C083E007C084E005C090
:1056700085E003C086E001C087E00E94DF2B08952B
:1056800081E00BC082E009C083E007C084E005C070
:1056900082E00E94552D089585E00E94742C0895A3
:1056A0001F990AC02FE38DE093E021508040904085
:1056B000E1F700C00000F4CF0895A0E0B0E0E3E619
:1056C000FBE20C94333E80EF8093A6071F990AC03B
:1056D0002FE38DE093E0215080409040E1F700C03F
:1056E0000000F4CF23E0B22E30EFA32E8091A60766
:1056F000803709F452C085E491E00E946B1880E085
:105700000E94D126C0E0D0E0FE01E954F94E249178
:1057100030E0809106014AE050E06EE17AE08C0FC3
:105720000E94141A2196C430D10571F780910501A9
:105730000E94B72985E491E00E943D1881E00E9413
:105740006B278BE2C82E81E0D82E96E0E92E91E0FF
:10575000F92E05E011E02091A60740E06DE487E115
:105760000E94192980912B0190912A01891749F0F3
:10577000B09204011092290180932A0191E0909344
:10578000A8079091A607903E09F0B0CF0E940B2B7E
:10579000A092A6070E94502BA9CFCDB7DEB7EAE0B2
:1057A0000C944F3E1C990AC02FE38DE093E02150EA
:1057B00080409040E1F700C00000F4CF08956F9260
:1057C0007F928F92AF92BF92CF92DF92EF92FF9231
:1057D0000F931F93CF93DF9300D000D01F92CDB7CC
:1057E000DEB79091A807992329F097ED90932C01AB
:1057F0001092A8079FE0899F30011124C3018A57A6
:10580000994F3C018091A607803709F45AC08090D7
:10581000040180E8A82E87E1B82E90E5C92EE12C7E
:105820000FE317E121E0A30167ED80912C010E94B5
:10583000C12929E2C22E21E0D22E3CE2E32E31E042
:10584000F32E04E011E02091A60740E067ED8DE023
:105850000E94192960912901675D8FE397E10E94F9
:105860001F2729833A834B835C836D838091A6072E
:10587000803ED9F480912901E82FF0E0E755F94EF8
:10588000A490682F70E0675D7109660D771D1F9207
:105890001F92812CC12CE980FA800B811C812D8103
:1058A00041E00E94A0270F900F908091A607803EB4
:1058B00009F0A8CF0E94A52E0E94B2140E94D22BFC
:1058C000A1CF0F900F900F900F900F90DF91CF917D
:1058D0001F910F91FF90EF90DF90CF90BF90AF900E
:1058E0008F907F906F900895A9E0B0E0EAE7FCE226
:1058F0000C942B3E8E838091A807882329F088EE94
:1059000080932C011092A8071F822E81822F90E095
:10591000019725E0289F2001299F500C1124920116
:105920002357384E29011C01E3E0220C331CEA9571
:10593000E1F7C1018A55984E998788878091A6071B
:10594000803709F4AEC088E0912C9E819330C1F07D
:1059500048F4923039F59924939474E0672E77E0F7
:10596000772E24C02E812430A1F02530D9F421E0F7
:105970002F83992493944CE1642E47E0742E16C033
:1059800031E03F83992493946CE0662E67E0762E95
:105990000DC091E09F839924939454E1652E57E0C4
:1059A000752E04C03CEF632E36E0732E815069F6ED
:1059B00080900401A884B98480E5C82EEE24E39485
:1059C000820121E0A30168EE80912C010E94C1298F
:1059D00099E2C92E91E0D92E2CE2E22E21E0F22E9E
:1059E00004E011E02091A60740E068EE88E00E9404
:1059F000192960E0C2010E941F2729833A834B8343
:105A00005C836D838091A607803E09F03EC0809143
:105A10002901282F30E0285E3109F901E20DF31D3C
:105A2000EA55F84EA490682F70E09F81992331F0D9
:105A3000D301A60FB71FA85EB1091C929FE0929FE9
:105A4000A001939F500D11244E535A4FDA01AC53CD
:105A5000BF4F9C91992331F0FA01EA53FF4F908197
:105A6000911101C0912C685E7109660D771D3F93FD
:105A70002F93892CC12CE980FA800B811C812D8108
:105A800041E00E94A0270F900F908091A607803ED2
:105A900009F054CF0E94A52E0E94B2140E94D22B6E
:105AA0004DCF2996E2E10C94473EACE0B0E0EBE547
:105AB000FDE20C942B3E8E838091A807882329F069
:105AC00085E980932C011092A8072E81822F90E007
:105AD000019727E3289F3001299F700C1124D301DF
