:100000000C94C20C0C94E80C0C94E80C0C948F2209
:100010000C94E80C0C94E80C0C94E80C0C94E80C90
:100020000C94E80C0C94E80C0C94E80C0C94E80C80
:100030000C94E80C0C94E80C0C94E80C0C94E80C70
:100040000C94E80C0C94E80C0C9470220C94E80CC2
:100050000C9426230C94E80C0C94E80C0C94E80CFB
:100060000C94E80C0C94E80C0C94E80C0C94E80C40
:100070000C94E80C0C94E80C0C94E80CAE150B16E0
:100080000B16BE15CC15D615D215E215EF15F315C6
:100090000016D92BDB2BDE2BE02BE22BE42BE72BFE
:1000A000E92BEB2BED2BEF2BF12BF32BF52BF72B78
:1000B000F92BFB2BFE2B002C022C042C062C082CDD
:1000C0001630FA2FFD2F00300330063009300C3087
:1000D0000F30FFFF01FF01FF01FFFF010101FF01E1
:1000E00001FFFFFF00010202000100010200010206
:1000F00001000200020101020003040506070001DD
:10010000020304050607010241050D000F0022004D
:10011000330044004F090100030007000F001F00D7
:100120000F00070003000100081C001C001C001C3D
:10013000007F003E001C0008000808001C003E0074
:100140007F001C001C001C001C0005FF01FE007C41
:1001500000380010000D40006000700078007C0046
:100160007E007F007E007C00780070006000400010
:100170000102205B1300BB00C500CC00CC00CC000A
:10018000CC01030103010301160129012901290101
:1001900036014901500150016F018801A401C001DD
:1001A000DF01FB021A023602550274027B027B0257
:1001B0007B027B027B0294029402BC02DB02FD0301
:1001C00022033E035A038203A103B403CA03EC04CF
:1001D00008042D044C0474048D04B504D704F905F7
:1001E0001E053D0565059905BB05E00602060206EC
:1001F0001B061B061B061B061B063406500669065B
:100200008506A106B406D006E906F00700071C071C
:1002100023074E0767078607A207BE07D107EA072D
:10022000FD08160832085D087908950300000000F3
:10023000000000000002FE6700FE67001278000068
:10024000FE0100020100020100020100FE410078EF
:100250007000001C00000700E000003800000E1EC7
:1002600000827F00804000804000804000807F004E
:10027000001E0006C01F00F8FF003CE00107000759
:10028000030006010004060100040300060700073E
:100290003CE001F8FF00C01F000400000300F00371
:1002A00000700000100006000300000300000300BF
:1002B0000003000003000003000200700000700053
:1002C0000AF00F00FC3F000C3000066000066000E2
:1002D0000660000660000C3000FC3F00F00F0008D4
:1002E000186000186000186000FE7F00FE7F0000AC
:1002F0006000006000006000090C700006780006D5
:100300006C000666000663008E6100FC6000786089
:1003100000006000090C3000066000066000866185
:1003200000866100866100CE73007C3F00381E00AD
:100330000A000700800700C00700F006003806002A
:100340001C0600FE7F00FE7F00000600000600097C
:10035000003000FE6000FE6000C66000C66000C69F
:100360006000C63100863F00060F000AE00F00F073
:100370003F009C3000CC6000C66000C66000C660D4
:1003800000C63100863F00000F000906000006404D
:1003900000067000067C00060F00C60300F6000091
:1003A0003E00000E00000A381E007C3F00CE7100A7
:1003B000C66000C660008661008661004E73007CE6
:1003C0003F00381E000AF00000FC61008C6300064C
:1003D00063000663000663000633000C3900FC1F4F
:1003E00000F0070002707000707000080C0000063A
:1003F0000000066700066700860100CE0000FC00D2
:10040000003800000D004000007800003F00C007E9
:1004100000F806003E06000606003E0600F806004C
:10042000C00700003F000078000040000AFE7F0087
:10043000FE7F00866100866100866100866100C6DD
:1004400061007C73003C3F00001E000BE00700F8D9
:100450001F001C38000C30000660000660000660BB
:10046000000660000660000620000C30000CFE7FD5
:1004700000FE7F0006600006600006600006600067
:100480000660000E70000C3000381C00F80F00E011
:10049000070009FE7F00FE7F00C66000C66000C640
:1004A0006000C66000C66000C66000C6600009FE4D
:1004B0007F00FE7F00860100860100860100860124
:1004C000008601008601000600000DE00700F81F0D
:1004D000003C3C000C30000E70000660000660001E
:1004E0000663000663000663000663000C3F000C11
:1004F0003F000AFE7F00FE7F00C00000C00000C079
:100500000000C00000C00000C00000FE7F00FE7FB1
:100510000006066000066000FE7F00FE7F000660A9
:1005200000066000070060000060000660000660D2
:1005300000067000FE3F00FE1F000BFE7F00FE7FE6
:1005400000800300C00100E00300700700381C00B9
:100550001C38000E700006600002400009FE7F009B
:10056000FE7F00006000006000006000006000008E
:1005700060000060000060000CFE7F00FE7F000E47
:100580000000380000E00100800700000700E001E3
:10059000003800000E0000FE7F00FE7F000AFE7F94
:1005A00000FE7F000E00003C0000E0000080030021
:1005B000001E00007800FE7F00FE7F000DE00700B7
:1005C000F81F001C38000C300006600006600006B2
:1005D00060000660000660000C30001C3800F81F48
:1005E00000E0070008FE7F00FE7F00060300060310
:1005F000000603008E0300FC0100F800000DE00778
:1006000000F81F001C38000C300006600006600077
:1006100006600006E00106E0030C30071C3806F80F
:100620001F06E007060BFE7F00FE7F0086010086A6
:100630000100860100860700CE0E00FC1C007870C9
:10064000000060000040000B783000FC7000CE60BD
:100650000086610086610086610086610086610017
:100660000633000C3F00001E000C060000060000D0
:10067000060000060000060000FE7F00FE7F000668
:1006800000000600000600000600000600000AFE4A
:100690000F00FE3F0000700000600000600000607E
:1006A00000006000007000FE3F00FE0F000D020021
:1006B000001E0000FC0000E00300801F00007C0022
:1006C000006000007C00801F00E00300FC00001EB2
:1006D0000000020000110600007E0000F807008004
:1006E0003F00007800007C00C00F007E0000060084
:1006F000007E0000E00700007E00007000807F00A8
:10070000F807007E00000600000B024000066000B3
:100710001E7800381C00E00700800100E007003868
:100720001E001E78000660000240000C0200000659
:1007300000001E0000780000E00000C07F00C07FC5
:1007400000E000007800001E00000600000200002B
:100750000B067000067800067C00066E0006670037
:10076000C66300E660007660003E60001E60000E1A
:100770006000080300001F0000FE0000F00700807A
:100780003F0000FC0100E00300000308003C0030D3
:100790007E00306700306300306300303300E07F5C
:1007A00000E07F0009FF7F00FF7F006020003060D5
:1007B00000306000306000707000E03F00C00F004B
:1007C00008800F00E03F00603000306000306000C3
:1007D00030600030600060300009801F00E03F00A2
:1007E000707000306000306000306000303000FF1A
:1007F0007F00FF7F0009800F00E03F006033003082
:100800006300306300306300706300E06300C03356
:100810000006300000FE7F00FF7F00330000330041
:100820000003000009801F00E03F06707006306082
:1008300006306006306006303007F0FF03F0FF013D
:1008400008FF7F00FF7F00600000300000300000E4
:10085000300000F07F00E07F0002F67F00F67F00AE
:1008600005000006300006300006F6FF07F6FF031D
:1008700009FF7F00FF7F00000600000700800F00D7
:10088000C0380070700030600010400002FF7F0030
:10089000FF7F000EF07F00F07F006000003000005E
:1008A000300000300000F07F00E07F00600000308A
:1008B0000000300000300000F07F00E07F0008F012
:1008C0007F00F07F0060000030000030000030004A
:1008D00000F07F00E07F000A800F00E03F00603002
:1008E0000030600030600030600030600060300038
:1008F000E03F00800F0009F0FF07F0FF0760600095
:10090000306000306000306000707000E03F00C078
:100910000F0009801F00E03F007070003060003061
:100920006000306000303000F0FF07F0FF0706F095
:100930007F00F07F006000003000003000003000D9
:100940000008C03100E063003063003063003066AF
:1009500000306600303E00601C0006300000FE3FA4
:1009600000FE7F0030600030600030600008F01F43
:1009700000F07F00006000006000006000003000B8
:10098000F07F00F07F0009100000F00000E0070099
:10099000003E00006000003E00E00700F000001094
:1009A00000000E300000F00300C03F00007800009F
:1009B0007C00800700F00000F00000C00700003C51
:1009C00000007000C03F00F003003000000910403C
:1009D00000306000F07800C01D00000700C01D005E
:1009E000F0780030600010400009100000F00000B6
:1009F000E0070600BF0700F001003F00E00700F03D
:100A0000000010000008307000307800307C0030AA
:100A10006600306300F06100F06000706000010269
:100A2000205B0B00BB00BE00C100C100C100C100C3
:100A3000D600D600D600DD00E400E400E400E900C2
:100A4000F000F300F300FE01090114011F012C0165
:100A5000370142014D0158016301660166016601DB
:100A6000660166016F016F017C0189019801A70190
:100A7000B201BD01CC01D901E001E901F602010298
:100A800010021D022C0237024602530260026F025E
:100A90007C0289029C02A902B802C502C502C502F5
:100AA000C502C502C502C502D002DB02E602F102A0
:100AB000FC03050310031B031E032503300333034C
:100AC000460351035C03670372037B0384038D03B6
:100AD0009803A303B203BD03C8010000017E010A0D
:100AE0000C00120012008C0160001800C6002001EA
:100AF0002001C00003F800060301040301040603FB
:100B0000F800020004800303200020002000018080
:100B10000105FC00020102010201FC0005040104C0
:100B200001FE0100010001058401420122011201C0
:100B30000C01058400020112011201EC00066000A4
:100B4000500048004400FE014000059E00120112C2
:100B5000011201E20005F800140112011201E00087
:100B6000050200820162001A00060005EC00120175
:100B700012011201EC00051C0022012201A2007CDE
:100B800000019801040200620112000C0006C0017D
:100B90007800460046007800C00106FE01120112EE
:100BA0000112011C01E0000778008400020102012B
:100BB00002010201840007FE01020102010201029A
:100BC000018400780005FE011201120112011201D8
:100BD00005FE0112001200120002000778008400D6
:100BE0000201020122012201E40006FE01100010B0
:100BF0000010001000FE01030201FE0102010400CA
:100C00000102010201FE0006FE0120003000480042
:100C10008400020105FE010001000100010001073E
:100C2000FE0106001800600018000600FE0106FE26
:100C3000010600180060008001FE010778008400B2
:100C40000201020102018400780005FE0122002257
:100C50000022001C00077800840002010201020348
:100C60008404780406FE012200220062009C000039
:100C700001068C001201120122012201C4000702A8
:100C80000002000200FE0102000200020006FE0057
:100C90000001000100010001FE00060E007000804E
:100CA00001800170000E00090600780080017800C4
:100CB00006007800800178000600068601480030B2
:100CC0000030004800860107020004000800F0011F
:100CD0000800040002000682014201220112010AFA
:100CE00001060105C000280128012801F00105FFC7
:100CF00001080108010801F00005F00008010801E1
:100D00000801900005F000080108010801FF010535
:100D1000F000280128012801B000040800FE0109A4
:100D200000090005F000080508050805F80305FF9F
:100D300001080008000800F00101F901030004089F
:100D400004F90305FF01400060009000080101FF65
:100D50000109F801080008000800F0010800080077
:100D60000800F00105F801080008000800F001057E
:100D7000F000080108010801F00005F80708010863
:100D8000010801F00005F000080108010801F8075A
:100D900004F801100008000800043001280148018F
:100DA000C800040800FE000801080105F800000161
:100DB00000010001F80105180060008001600018C2
:100DC0000007780080016000180060008001780052
:100DD00005080190006000900008010508007004FB
:100DE000800370000800048801480128011801AF41
:100DF00040A0A6A4A2EEC82F24AC00F80007060568
:100E000004030201003811321126116016451666DE
:100E10001351164F164D1643163B1641163F163DFD
:100E200016361631162C162716231072116C116BFC
:100E300014291222121B12231091148C148614826E
:100E4000147E142310A2119911AA1192118D1174FC
:100E50001480137D13721323102310231085107B2D
:100E60001055146014D912D312CA12C312231023BE
:100E70001023102310751070102310231079141AEA
:100E80001180131E10191014100F100A10051000F5
:100E900010FB0F231065113110291062115B111C1A
:100EA000160A16F815E515D115BD15A91593158463
:100EB00015761568155A154C153E15301522151462
:100EC000150215ED14D814C314AD14961423108014
:100ED000137D1335102310AA11A211991192118DAF
:100EE00011881183117E11791123102310C012B9BA
:100EF000122310311029102410F210E71068105F2F
:100F0000105610521049104110551150114A11231A
:100F10001042110C11FE10F810E612DE1223103AE6
:100F200010351080137D1335108C148614821466CE
:100F30001359134E133F132F13211314130613FACF
:100F4000125D12ED125A1652129911A21192114508
:100F500016AC12A21295128B127F12751268122310
:100F60001023102310AA11A211991192118D11882A
:100F70001183117E11BE10B410AC10A4109B1093FD
:100F8000108A107911601455144A1442143A14321C
:100F900014241416140B14FF13F613ED13E413D5D5
:100FA00013C613BA13B013A913A2139B138E138481
:100FB0001323100E12F6110112F611EB11DF11D5E9
:100FC00011CB11C011B311F611B311F61123102377
:100FD0001023102310E310DF10DB10D710D310CF35
:100FE00010CB10C71079114E12491244123F123A19
:100FF0001234122E12791123102310332E39560079
:10100000332E385600332E375600332E36560033E3
:101010002E355600332E345600332E335600332EE1
:1010200032560000486967680053796E6320524366
:10103000004C6F77005265762E004E6F726D616CBA
:10104000005069746368557000536964657761790D
:10105000730041667400496E76657274656400566B
:101060006572746963616C00466F727761726400C7
:101070004164762E00466978656400417869732082
:101080006C6F636B005261746500414C2050697451
:10109000636800414C20526F6C6C0041636350697F
:1010A00074636800416363526F6C6C004779726FC0
:1010B000596177004779726F5069746368004779A6
:1010C000726F526F6C6C00434838004348370043DE
:1010D0004836004348350043483400434833004312
:1010E00048320043483100666F7220737461747532
:1010F0007300507265737300446F6E652100486F12
:101100006C642061732073686F776E004E6F20529D
:1011100058207369676E616C3F0043616C2E2066D6
:1011200061696C656400486F6C6420737465616408
:1011300079005265736574004F70656E4165726F1A
:10114000320042617474657279004D6F64656C00A1
:101150004C6F7374004572726F72005369676E61F1
:101160006C004E6F0053656E736F7200456C657650
:101170002E005468726F742E004E6F6E65004155DC
:101180005833004155583200415558310047656188
:10119000720052756464657200456C657661746FA7
:1011A000720041696C65726F6E005468726F74747E
:1011B0006C65004578742E20536F757263653A0034
:1011C0005069746368206163633A00526F6C6C20ED
:1011D0006163633A00596177206779726F3A005012
:1011E00069746368206779726F3A00526F6C6C2083
:1011F0006779726F3A00566F6C756D652825293ACC
:1012000000524320736F7572636520423A00524367
:1012100020736F7572636520413A004D616E756190
:101220006C00462E57696E67004165726F0032365A
:1012300030487A00313834487A003934487A0034FA
:1012400034487A003231487A003130487A003548E3
:101250007A005448522E706F7320253A004C6F6309
:101260006B20726174653A004D5055363035302030
:101270004C50463A004163632E204C50463A0041A0
:101280004C20636F72726563743A004C4D41207458
:10129000696D653A004C6F77205620416C61726D24
:1012A0003A00436F6E74726173743A004F726965ED
:1012B0006E746174696F6E3A0046757461626100A4
:1012C0004A5200587472656D65005370656B747294
:1012D000756D00532E427573004350504D00547885
:1012E000204F75743A00527820496E3A0044656187
:1012F0006462616E642825293A00466C617020732F
:10130000706565643A00446966666572656E746905
:10131000616C3A0044796E2E4761696E2825293A3E
:101320000044796E2E4761696E2043682E3A003280
:101330006E642041696C2E204368616E2E3A005025
:10134000726F66696C65204368616E2E3A0043686F
:101350002E206F726465723A00525820747970655D
:10136000204F55543A005258207479706520494EE8
:101370003A0048616E64732046726565004F4E0006
:101380004F464600596177207472696D3A00596181
:10139000772049204C696D69743A0059617720447F
:1013A0003A0059617720493A0059617720503A0054
:1013B000596177206779726F3A00506974636820C9
:1013C0007472696D3A005069746368204175746F76
:1013D0004C766C3A0050697463682049204C696D02
:1013E00069743A00506974636820443A0050697423
:1013F000636820493A00506974636820503A00508D
:1014000069746368206779726F3A00526F6C6C2060
:101410007472696D3A00526F6C6C204175746F4C38
:10142000766C3A00526F6C6C2049204C696D69747F
:101430003A00526F6C6C20443A00526F6C6C204939
:101440003A00526F6C6C20503A00526F6C6C2067FF
:1014500079726F3A004175746F6C6576656C3A000D
:1014600053746162696C6974793A004661696C739E
:1014700061666500496E762E0043616C2E00416303
:10148000630059617700506974636800526F6C6C37
:10149000004779726F0032332E204661696C7361A8
:1014A000666520706F736974696F6E730032322ED7
:1014B000204661696C736166652073657474696E3A
:1014C00067730032312E20506F732E207472617654
:1014D000656C2E202825290032302E204E65672E7F
:1014E0002074726176656C2E202825290031392EF2
:1014F000204368616E6E656C207472696D202825CA
:10150000290031382E2043682E2064697265637487
:10151000696F6E0031372E20434838204D69786559
:10152000720031362E20434837204D6978657200AD
:1015300031352E20434836204D69786572003134AC
:101540002E20434835204D697865720031332E20B6
:10155000434834204D697865720031322E2043486B
:1015600033204D697865720031312E204348322096
:101570004D697865720031302E20434831204D6925
:1015800078657200392E204C6576656C206D657427
:10159000657200382E2053656E736F722063616C24
:1015A0006962726174696F6E00372E20466C6967DC
:1015B00068742070726F66696C65203300362E2067
:1015C000466C696768742070726F66696C6520325A
:1015D00000352E20466C696768742070726F6669EA
:1015E0006C65203100342E20526563656976657222
:1015F00020696E7075747300332E20537469636BA9
:1016000020706F6C617269747900322E20526563AC
:10161000656976657220736574757000312E204798
:10162000656E6572616C0053617665004465662E77
:10163000004261636B004D656E75004500440043D8
:1016400000420041005072657365743A0030002E0C
:101650000050726F66696C653A004D6F64653A00C0
:1016600056657273696F6E3A20202053312E3020F8
:1016700041340001010101010101FFFFFFFF0101F0
:10168000FF01FF010100010201020000010200014F
:10169000020100020201000000B841AE47394133A7
:1016A00033BB4066664640C3F5E83FCDCCAC3F5205
:1016B000B89E3F0000803F030F1B2700010101007F
:1016C00000020101000001010100007F0100500043
:1016D0007F010000007F010000007D010000007F0D
:1016E00001003C817F0100000001010100007F0139
:1016F0000050007F010000007F010000007D01001C
:1017000000007F01003C817F010000000101010019
:10171000007F010050007F010000007F01000000F9
:101720007D010000817F01000026262C00000000C2
:1017300000002C0000000000002C00000000000051
:1017400008010100837D0100000008010108837D7C
:10175000010000000201010000020101000002017D
:10176000010000020101000002010100000F01015F
:101770000F837D010000000F01010F837D01000038
:10178000690069008F8F8F8F8FB000B0000001015A
:101790000100837D010300830001039C007D0103A0
:1017A00064837D0103008D8D8D8D8D8D8D8D000069
:1017B0000000000000000000000000000000000029
:1017C0000000000000000000000000000000000316
:1017D00001010101030101010001010100000801F3
:1017E000010400080101080008010105006405006A
:1017F0006400640100000014010000000401000303
:10180000000501000200010101009C6401009C83AD
:101810007D010000837D010000837D010000000048
:1018200000000000000000000000000000000000B8
:1018300000000000000000000000000000020101A4
:101840000000050101001C32010024000801010014
:10185000001E010003010A01000700070101020048
:10186000060101020000000000000000000000006E
:101870000000003030746969690000000000380021
:10188000000000000000000000167C003E0000F197
:10189000F100000000000064080000000000000FDC
:1018A000000F0000000132023200000000000F00B3
:1018B0000F00000001CE023200000000000F000FF8
:1018C0000000000364080000000000000F000F008B
:1018D00000000400080000000000000F000F0000DE
:1018E000000500080000000000000F000F000000CD
:1018F0000600080000000000000F000F00000007B5
:1019000000080000000000000F000F00000000644D
:10191000080000000000000F000F00000001640834
:101920000000000000000F000F000000026408002B
:1019300000000000000F000F00000003640800001A
:10194000000000000F000F00000004640800000009
:101950000000000F000F00000005640800000000F8
:1019600000000F000F0000000664080000000000E7
:10197000000F000F000000076408000000000000D6
:101980000F000F0011241FBECFEFD0E1DEBFCDBF8F
:1019900014BE88E10FB6F894809360001092600046
:1019A0000FBE15E0A0E0B1E0E2EAF2E802C0059067
:1019B0000D92AC30B107D9F727E0ACE0B5E001C03B
:1019C0001D92A23EB207E1F70E944C150C944F41C4
:1019D0000C94000000000895FDDFFCDFFBDFFADF60
:1019E0000895CF93AF93A5E05898C6E70E94010DE4
:1019F000589ACAE70E94010DAA95B1F7AF91CF910D
:101A0000089500C000C000C000C000C000C000C0F9
:101A100000C00000CA95A9F70895CF93DF93CDB712
:101A2000DEB72C970FB6F894DEBF0FBECDBF26E011
:101A3000AE014F5F5F4F6BE380ED0E94DB1C89813D
:101A400090E0982F88272A81820F911D36E0959586
:101A500087953A95E1F798878F838B8190E0982F4F
:101A600088272C81820F911D56E0959587955A9570
:101A7000E1F79195819591099A8789878D8190E009
:101A8000982F88272E81820F911D76E09595879556
:101A90007A95E1F79C878B8720917606A7E3B5E0DE
:101AA00043E024029001112480E090E02C513F4F4C
:101AB000F901E80FF91FE491EE0FFF0B41E050E050
:101AC0004C0F5D1FE40FF51F468157814D935D93C9
:101AD00001968330910561F72C960FB6F894DEBF1E
:101AE0000FBECDBFDF91CF9108951F93CF93DF93AA
:101AF0000E940D0D80914C0780FD05C010923207A9
:101B0000109231070EC080913307909134072091D5
:101B1000370730913807821B930B909332078093DD
:101B2000310720917606CDE2D7E0A7E3B5E083E068
:101B300028029001112480E090E02E523F4F6991DD
:101B40007991F901E80FF91F14914D915C9111976A
:101B5000461B570B1403B001159F700D11246D9394
:101B60007D9301968330910551F7DF91CF911F91BD
:101B700008951F93CF93DF9300D000D000D0CDB74E
:101B8000DEB71A8219821C821B821E821D8281117D
:101B900072C010E20E940D0D89819A812091370553
:101BA00030913805820F931F9A8389838B819C81A2
:101BB0002091390530913A05820F931F9C838B83C6
:101BC0008D819E8120913B0530913C05820F931FB2
:101BD0009E838D838FE493EC0197F1F700C00000A2
:101BE0001150C1F6FE0131969E01295F3F4F808161
:101BF0009181409645E0959587954A95E1F78193C7
:101C00009193E217F30799F789819A8190932E07B0
:101C100080932D078B819C819093300780932F07B1
:101C200080917606992787FD9095FC01EE0FFF1FA6
:101C3000E80FF91FEC52FF4F44912D813E81420382
:101C4000C001439F900D1124909334078093330774
:101C500080914C07826080934C070E942F152B9A2D
:101C60009FE724E84EE1915020404040E1F700C05A
:101C700000002B9876C080914C0781FF72C01092B3
:101C800036071092350710E20E940D0D809135073E
:101C90009091360720913B0530913C05820F931FB0
:101CA00090933607809335078FE493EC0197F1F713
:101CB00000C00000115041F780917606992787FDFA
:101CC0009095FC01EE0FFF1FE80FF91FEC52FF4F3C
:101CD00044912091350730913607205F3F4FB5E0A2
:101CE00035952795BA95E1F74203C001439F900DC2
:101CF0001124909336078093350797FF32C02091C7
:101D0000330730913407A901481B590BCA01959537
:101D100087959093380780933707281B390B3093AA
:101D200032072093310780914C07816080934C07E4
:101D30000E942F152B9A5FE784E89EE15150804066
:101D40009040E1F700C000002B9885E026960FB682
:101D5000F894DEBF0FBECDBFDF91CF911F910C94E1
:101D6000692926960FB6F894DEBF0FBECDBFDF916E
:101D7000CF911F91089541E06BE680ED0E94C41C55
:101D800048E06CE180ED0C94C41C8FEF80937E00E2
:101D900010927B00089580937C0086EC80937A00FB
:101DA00080917A0086FDFCCF0895CF92DF92EF926A
:101DB0000F93CF93DF93CBE0D0E01F9B7EC00E94B8
:101DC000750D60E070E0CB010E943C1F21972097C9
:101DD000A1F720E030E040E052E46091A705709167
:101DE000A8058091A9059091AA050E94313E0E9404
:101DF000013FEB0120E030E040E852E46091A305B0
:101E00007091A4058091A5059091A6050E94313E90
:101E10000E94013F6B01D7FD06C0C134D1052CF0F3
:101E2000C0E4D0E002C0C0E0D0E0D7FC08C081E848
:101E3000C816D10434F080E8C82ED12C02C0C12CC1
:101E4000D12C27E330E042E050E066E071E08CE026
:101E50000E946C1AEE24E39400E420E840E060E085
:101E600080E091E00E94891905E125E146E166E301
:101E700080E091E00E94891908E320E448E060E4F2
:101E800080E091E00E94EB1800E220E640E260E290
:101E900080E091E00E94EB1801E028E04C2F6C2DCF
:101EA00080E091E00E94DB1980E091E00E945918E7
:101EB00080E091E00E948B187ECFDF91CF910F914F
:101EC000EF90DF90CF9008950E94D3261F9B0EC104
:101ED0001C9B0E944D391D9B0E94A2390E945A38BA
:101EE00020E030E040E050E06EE17AE083E10E94E3
:101EF0006C1A2AE030E040E050E06EE17AE080E2E7
:101F00000E946C1A24E130E040E050E06EE17AE09B
:101F100084E10E946C1A2EE130E040E050E06EE176
:101F20007AE083E20E946C1A20E030E046E450E060
:101F30006EE17AE08DE60E946C1A2AE030E046E419
:101F400050E06EE17AE08EE60E946C1A24E130E007
:101F500046E450E06EE17AE08FE60E946C1A2EE1D2
:101F600030E046E450E06EE17AE080E70E946C1ACF
:101F70008091BE079091BF074AE064E675E00E9439
:101F8000F44020E030E045E250E06EE17AE00E946B
:101F90002D358091C2079091C3074AE064E675E051
:101FA0000E94F4402AE030E045E250E06EE17AE041
:101FB0000E942D358091C4079091C5074AE064E6E0
:101FC00075E00E94F44024E130E045E250E06EE12B
:101FD0007AE00E942D358091C6079091C7074AE0AC
:101FE00064E675E00E94F4402EE130E045E250E006
:101FF0006EE17AE00E942D358091C8079091C90763
:102000004AE064E675E00E94F44020E030E044E6F7
:1020100050E06EE17AE00E942D358091CA079091E0
:10202000CB074AE064E675E00E94F4402AE030E025
:1020300044E650E06EE17AE00E942D358091CC07B5
:102040009091CD074AE064E675E00E94F44024E1F7
:1020500030E044E650E06EE17AE00E942D35809158
:10206000CE079091CF074AE064E675E00E94F44005
:102070002EE130E044E650E06EE17AE00E942D353A
:1020800029E330E040E050E066E071E08CE00E943F
:102090006C1A27E330E048E250E06EE17AE085E137
:1020A0000E946C1A2BE330E040E550E066E071E0FE
:1020B00089E00E946C1A27E330E044E650E06EE1CC
:1020C0007AE08CE30E946C1A2BE330E047E750E0A3
:1020D00066E071E089E00E946C1A80E091E00E9465
:1020E000591880E091E00E948B18F0CE0895CF93AC
:1020F00080E091E00E948B18C1E01F9BDFC00E942E
:102100004C1B0E94750D20E030E045E250E06EE18E
:102110007AE08AE10E946C1A20E030E04DE450E061
:102120006EE17AE08EE10E946C1A2DE030E045E02D
:1021300050E06EE17AE08BE10E946C1A27E130E01A
:1021400045E050E06EE17AE08CE10E946C1A21E2F9
:1021500030E045E050E06EE17AE08DE10E946C1ADB
:102160004AE064E675E080917D0590917E050E94CD
:10217000F4402DE030E048E250E06EE17AE00E9469
:102180002D354AE064E675E080917F0590918005E9
:102190000E94F44027E130E048E250E06EE17AE04E
:1021A0000E942D354AE064E675E0809181059091AA
:1021B00082050E94F44021E230E048E250E06EE106
:1021C0007AE00E942D354AE064E675E0809137059B
:1021D000909138050E94F4402DE030E040E550E059
:1021E0006EE17AE00E942D354AE064E675E0809168
:1021F000390590913A050E94F44027E130E040E52E
:1022000050E06EE17AE00E942D354AE064E675E028
:1022100080913B0590913C050E94F44021E230E022
:1022200040E550E06EE17AE00E942D3529E330E090
:1022300040E050E066E071E08CE00E946C1A27E319
:1022400030E04BE450E06EE17AE085E20E946C1AE7
:1022500027E330E04CE650E06EE17AE08CE30E9448
:102260006C1A80E091E00E94591880E091E00E9491
:102270008B18C1110E94982C1C9910C00E94982C98
:102280002FE382E49FE0215080409040E1F700C0BE
:1022900000000E94791B80E00E94B90D1D990CC0BE
:1022A0002FE382E49FE0215080409040E1F700C09E
:1022B000000081E00E94B90DC0E01FCFCF910895CA
:1022C000BF92CF92DF92EF92FF920F931F93CF9323
:1022D000DF9300D000D0CDB7DEB780E091E00E9460
:1022E0008B1820E030E040E050E06EE17AE084E0DE
:1022F0000E946C1A2BE030E040E050E06EE17AE0A2
:1023000083E00E946C1A26E130E040E050E06EE18C
:102310007AE08AE80E946C1A21E230E040E050E066
:102320006EE17AE08BE80E946C1A2CE230E040E02B
:1023300050E06EE17AE086E00E946C1A2BE330E018
:1023400040E050E066E071E089E00E946C1A27E30B
:1023500030E04AE050E06EE17AE08EE00E946C1AD4
:10236000409175064A5E00E02DE261E080E090E079
:102370000E947F2740910406405D06E12DE261E066
:1023800080E090E00E947F2740910506405D01E2D9
:102390002DE261E080E090E00E947F2780913F077E
:1023A000992787FD90954AE064E675E001960E94C2
:1023B000F4402CE230E04DE250E06EE17AE00E9421
:1023C0002D35EE24E39402E32CE144E064E680E062
:1023D00091E00E94891905E028E040E06EE680E087
:1023E00091E00E9489190E94113E6C0180911E05A6
:1023F00090911F0520916F0630917006C216D3068A
:10240000A0F0821B930B62E370E00E945F401616FF
:1024100017065CF4C601821B930B0E944B4063338A
:1024200071052CF062E370E002C060E070E046E30A
:10243000461BEE24E394062F2CE164E680E091E055
:102440000E945519C60164E670E00E944B407B0172
:102450004AE064E675E0C7010E94F440AE014F5FB8
:102460005F4F6EE17AE00E94DE334AE064E675E099
:10247000C7010E94F44027E330E046E650E06EE1F9
:102480007AE00E942D352CE9A70124038001259FC5
:10249000100D11240C0D1D1DC980DD24C7FCD09426
:1024A00056E6C50ED11C27E330E0A6016EE17AE0C6
:1024B00087E00E946C1AAE014F5F5F4F6EE17AE0D9
:1024C00087E095E00E94DE33E980AE014F5F5F4F09
:1024D0006EE17AE089E095E00E94DE33B980FF2466
:1024E000E7FCF0940A30110540F04AE064E675E03C
:1024F000C8010E94F440A60115C0A6014E0D5F1D43
:1025000027E330E06EE17AE088E00E946C1A4AE04E
:1025100064E675E0C8010E94F440A6014B0D511D10
:10252000B7FC5A954E0D5F1D27E330E06EE17AE06F
:102530000E942D3580911505882309F467C0E12C90
:1025400000E320E648E06EE080E091E00E9455194B
:10255000EE24E39420E648E06EE080E091E00E9403
:1025600089198091150584FF11C02EE030E041E209
:1025700050E060E771E086E80E946C1A22E230E0E9
:102580004EE250E060E771E087E73EC080911505BC
:1025900082FF11C02DE030E043E350E060E771E0DE
:1025A0008BE40E946C1A21E230E047E250E060E7E1
:1025B00071E08CE429C08091150583FF11C02EE0E5
:1025C00030E04DE250E060E771E083E80E946C1A71
:1025D00022E230E048E250E060E771E084E814C0B5
:1025E0008091150581FF12C02EE030E04CE150E0F3
:1025F00060E771E089E60E946C1A22E230E04EE268
:1026000050E060E771E089E70E946C1A80E091E099
:102610000E94591880E091E00E948B180F900F9053
:102620000F900F90DF91CF911F910F91FF90EF903E
:10263000DF90CF90BF9008959F92AF92BF92CF92BC
:10264000DF92EF92FF920F931F93CF93DF93C0908F
:102650004D07D0904E07F0904F0790905007109282
:102660004D0710924E0710924F0710925007D0E07E
:10267000C0E01F9BDEC0C111DEC080E091E00E947F
:102680008B1892E0B92E10E061E1610FEE24E39423
:1026900008E228E240E080E091E00E94891986E2A9
:1026A000A82EA10E20E3210F03E044E16A2D80E073
:1026B00091E00E94EB1828E3210F69E2610F06E028
:1026C00045E180E091E00E94EB1801E022E045E165
:1026D0006A2D80E091E00E94DB1963E3610F24E042
:1026E00045E080E091E00E94DB19BA9411F014E318
:1026F000CBCF29E330E040E050E066E071E08CE0D1
:102700000E946C1A0E945A388091C2079091C307A8
:102710008033984F3CF08091C2079091C307813D70
:10272000974064F0D1110AC02BE230E04EE050E057
:1027300060E771E087E80E946C1A76C08091C2075A
:102740009091C307843F91403CF48091C2079091DF
:10275000C3078D309E4FE4F48091C4079091C50764
:10276000843F91403CF48091C4079091C5078D301F
:102770009E4F74F48091C6079091C707843F9140A3
:1027800094F48091C6079091C7078D309E4F5CF0FE
:102790002BE230E049E050E060E771E088E80E9419
:1027A0006C1AD1E041C08091C2079091C30797FF96
:1027B00003C081E080934D07E0910806E83059F0AE
:1027C000EE0FFF0BE054F84F8081918197FF03C01B
:1027D00081E080934E078091C4079091C50797FFD1
:1027E00003C081E080934F078091C6079091C7078F
:1027F00097FF03C081E0809350078091C2079091BA
:10280000C3071816190684F48091C4079091C50770
:10281000181619064CF48091C6079091C707C1E0BD
:10282000181619060CF0C0E080E091E00E945918DB
:1028300020CFCC2339F12BE230E048E250E060E7D2
:1028400071E089E80E946C1A80E091E00E945918BA
:1028500080E091E00E948B188FE794E82EE1815090
:1028600090402040E1F700C00000DF91CF911F9120
:102870000F91FF90EF90DF90CF90BF90AF909F901F
:102880000C942F15C0924D07D0924E07F0924F072F
:1028900090925007DF91CF911F910F91FF90EF9091
:1028A000DF90CF90BF90AF909F900895CF93DF932C
:1028B00086E991E0EBEBF5E0DF01EC011D92219759
:1028C000E9F781E58093BB0565E077E0ADE0B7E02F
:1028D000EAE8F6E043E83DE72FE0EB014993BE016B
:1028E0003D93CF010297EC01288320833F96D7E0E8
:1028F000A531BD0791F7EEEFF0E0CCEBD5E0ADE10F
:10290000B7E086EA9EE0249129938D939D933196BA
:1029100021E0E630F207B9F78EEB9AE090931E07BC
:1029200080931D078CE9809315078CE099E10E9444
:10293000B32F21E02093040620930506109206068B
:1029400010922E0710922D071092300710922F0729
:10295000109232071092310780E890E0909334078C
:102960008093330720932A06209340062093410644
:10297000E6E2F6E080E522E394E1DF011F978C9325
:1029800011962C9316968C9311962C9316968C93E5
:1029900080831A979C9317969C93769636E0E83638
:1029A000F30759F782E080937B0680937C0697E0DB
:1029B00090937A0698E09093090624E620930A06FD
:1029C00024E020930706909308061092760694E27E
:1029D000909377061092790693E090930D0680937A
:1029E0000E068CE980931006DF91CF9108950F9326
:1029F0001F93CF93DF931F92CDB7DEB78C0169830E
:102A00000E9429416981861741F0C8010F90DF912A
:102A1000CF911F910F910C9431410F90DF91CF9185
:102A20001F910F910895EF92FF920F931F93CF93F1
:102A3000DF93EC018B017A01E80EF91ECE15DF055C
:102A400039F06991C8010E94F7140F5F1F4FF6CF4C
:102A5000DF91CF911F910F91FF90EF900895F8941F
:102A600046E951E060E070E08BEB95E00E941315C1
:102A70007894089580E090E00E942941813521F00A
:102A80000E9456140C942F1546E951E060E070E066
:102A90008BEB95E00C941941CF93DF93CDB7DEB764
:102AA00060970FB6F894DEBF0FBECDBF0E945821CD
:102AB0001D86212C18E0712C612C1C861B861A8621
:102AC000F12C198618861D821C82188A1F861F8287
:102AD0001E821B821A82412C512C812C912C540174
:102AE000312C198280910C058F5F80930C052CE4AA
:102AF0004216520640F1739410921105109210057F
:102B00000E94113E20916F06309170068217930744
:102B100020F480911505806103C0809115058F7E9A
:102B2000809315058091150582FF0BC00E94ED3A38
:102B30003FE986E891E0315080409040E1F700C0E5
:102B40000000412C512C812F90E08B30910508F032
:102B500062C0FC01E25CFF4F0C94924083B1807F25
:102B6000803F39F080916E00816080936E0013E0A9
:102B70004DC010926E00E1E0E5BB4DC08091620750
:102B8000811146C02981211143C080910D05882300
:102B900009F441C014E04BC00E94601116E01B8292
:102BA0001A8245C01F9B37C015E035C032E037158B
:102BB000A0F11F9B34C02A813B812331334158F15E
:102BC00013E035C08091620781112BC0298121114A
:102BD00028C080910D05882351F118E01CC00E9487
:102BE000781A19E024C08091620781111CC03981D4
:102BF000311119C080910D058823C9F010E00BC078
:102C000029980E94192C0E940F2114E0712C0FC0EA
:102C100014E001E00AC000E00BC017E008C01AE0B1
:102C200006C018E001C010E000E0198201C001E018
:102C300080910D05882349F080911505846080936B
:102C4000150580911405846008C0809115058B7F5F
:102C500080931505809114058B7F809314058091D6
:102C6000B2002091B2002E879091140593FD04C00C
:102C700090917906911107C080911505877F809307
:102C80001505612C0EC08F19880E911CA11CB11C5A
:102C900035E9831631EE930631E1A306B10420F045
:102CA0006394812C912C540140917906262D30E0BB
:102CB000842F992787FD9095281739073CF04423E6
:102CC00029F0809115058860809315050E94113EBA
:102CD00020916F06309170068217930720F480913F
:102CE0001505806103C0809115058F7E80931505C1
:102CF0008091150584FD0CC08091150583FD08C0E9
:102D00008091150581FD04C08091150582FF06C0E4
:102D10008091120585FF02C0299A01C029980E945E
:102D20005A388091140582FD12C08091BE0790919F
:102D3000BF07C297D4F4809115058D7F8093150548
:102D40008CE0EAE9F7E011928A95E9F70EC080E09D
:102D500090E0FC01EE0FFF1FE054F84F118210824B
:102D6000019688309105A9F7E0CFE0910706EE0FB4
:102D7000FF0BE054F84F80819181853F914014F022
:102D800082E006C0808191818D309E4F24F081E0E9
:102D900080933F0702C010923F0720913F073327DF
:102DA00027FD3095822D90E02817390721F4809176
:102DB000130582FF0FC0809113058B7F809313054D
:102DC0000E94C02F8CE0EAE9F7E011928A95E9F7BA
:102DD00020903F070E941639E0913F078E2F9927D8
:102DE00087FD909526E1E202F0011124EB5EF94F98
:102DF0002081213069F0223019F021110EC004C069
:102E00002091140524FD04C0209114052E7F03C0D9
:102E10002091140521602093140520910F06213084
:102E200049F42091140522FF05C02091140521606A
:102E30002093140526E1289FF001299FF00D11240D
:102E4000EC5EF94F8081882331F0813049F4809124
:102E50001405826003C0809114058D7F8093140552
:102E60008091140581FD06C08CE0EAE9F7E011923B
:102E70008A95E9F70E9487228091B2002C85821BF7
:102E80002C813D81280F311D3D832C833091B20070
:102E90003C878091B2002B85821B2F853889280FB3
:102EA000311D388B2F873091B2003B878091B20063
:102EB0002885821B480E511C3091B20038878091C2
:102EC000B2002985821B2A813B81280F311D3B835B
:102ED0002A833091B20039878091B2002A85821B03
:102EE0002E813F81280F311D3F832E833091B20008
:102EF0003A872E813F818091120533FF02C08062A4
:102F000001C08F7D809312052C813D81233B314090
:102F100020F01D821C82332433942F853889263279
:102F200086E2380758F091E090930D052C343C442C
:102F300038F02BE43CE4388B2F8702C010920D054B
:102F40000E944C1B0E94750D0E94872216BC209186
:102F50000E0530910F0520910E0530910F05AC0143
:102F6000421B530B90930F0580930E0580917C07B5
:102F700090917D0760E070E0029718F46A017B0190
:102F800011C0C0907C07D0907D07E12CF12C8FE020
:102F9000CC0CDD1CEE1CFF1C8A95D1F7C40ED51E8F
:102FA000E61EF71E10927D0710927C07C701B6013E
:102FB0000E943C1FC701B6010E94623580916207E2
:102FC000811106C08091140582FF19C03320B9F029
:102FD00080916207882331F010926207188A1F8659
:102FE00031E039830E948A360E9444310E94D339ED
:102FF000011102C00E94AE3B10920C05312C809151
:1030000015052D85281719F0111101C017E0309111
:1030100015053D87FE8466CD0F931F93CF93DF93F5
:10302000C7E0D0E0082F10E05C98C8010C2E02C069
:10303000959587950A94E2F780FF02C0599A01C0DE
:1030400059985C9A0E94EA0C219770F7DF91CF9112
:103050001F910F9108955F980C940C185F9A0C942F
:103060000C18CF93C82F81E80E942B188C2FCF917A
:103070000C942B18CF93DF935D985E9887E893E1CB
:103080000197F1F700C000005E9ACFEEDDE0FE018F
:1030900084910E942B182196FDE0CD3FDF07B9F700
:1030A000809177060E94311888ECDF91CF910C94C3
:1030B0002B18DF92EF92FF920F931F93CF93DF9322
:1030C000CDEFDDE08C01FE018491806B0E942B1816
:1030D00080E00E942B1880E10E942B1880EE0E9455
:1030E0002B187801D12CF70181917F010E942E18B5
:1030F000D394F0E8DF12F7CF219600581F4F8EE0EF
:10310000C530D80701F7DF91CF911F910F91FF9044
:10311000EF90DF90089520E034E0FC01A9011192C6
:1031200041505040E1F70895CF93DF93D0E08D2FC9
:10313000806B0E942B18C0E08C2F8F700E942B1880
:103140008C2F82958F7080610E942B1880E00E94E6
:103150002E18CF5FC03881F7DF5FD83041F7DF919D
:10316000CF91089567FD36C04034A0F5342F3695D1
:1031700036953695E62FF0E050E02223A9F020E8BE
:10318000329FE00DF11D1124E80FF91F4095509575
:103190004770552781E090E0042E01C0880F0A9403
:1031A000EAF79081982B15C020E8329FE00DF11DC1
:1031B0001124E80FF91F409550954770552781E07D
:1031C00090E0042E01C0880F0A94EAF78095908160
:1031D0009823908308959F92AF92BF92CF92DF92EF
:1031E000EF92FF920F931F93CF93DF93EC01162F73
:1031F000F42ED22EA02FB0E0A41BB109B7FF03C05C
:10320000B195A195B109ED2DF0E0E11BF109F7FFB2
:1032100003C0F195E195F109BB24B394EA17FB07CC
:1032200014F0B12C06C08D2DD02E082F812F1F2D0C
:10323000F82ED11630F48F2DF02E082F812F1D2D52
:10324000D82EAD2CA11AE02FF0E0EF19F109F7FF0D
:1032500003C0F195E195F1099E2ECA2CC694F01693
:1032600010F401E010C00FEF0EC02E2DBB2071F046
:10327000412F6F2DCE010E94B218C918C7FE02C09F
:10328000F00ECA0C1F5F1D1580F303C04F2D612F78
:10329000F1CFDF91CF911F910F91FF90EF90DF90D1
:1032A000CF90BF90AF909F900895AF92BF92CF9272
:1032B000DF92EF92FF920F931F93CF93DF936C01F6
:1032C000A42EF62EC22FD0E0C60FD11D10E0040FA1
:1032D000111D8F2D90E08C179D0784F4BA2C8B2D37
:1032E00090E08017910744F42E2D4B2D6F2DC601D1
:1032F0000E94B218B394F3CFF394EBCFDF91CF9148
:103300001F910F91FF90EF90DF90CF90BF90AF9003
:1033100008959F92AF92BF92CF92DF92EF92FF9269
:103320000F931F93CF93DF93EC01F62EB42E922EC2
:10333000162FC22ED12CC60ED11CAA24AA94A00EE0
:10334000A40E812F90E08C159D0574F42E2D4B2D2D
:10335000612FCE010E94B2182E2D4A2D612FCE0171
:103360000E94B2181F5FEDCFDB2C10E00B0D111D7A
:10337000CC24CA94C90CCF0C8D2D90E080179107F6
:1033800074F42E2D4D2D6F2DCE010E94B2182E2DCE
:103390004D2D6C2DCE010E94B218D394EDCFDF914C
:1033A000CF911F910F91FF90EF90DF90CF90BF9042
:1033B000AF909F9008954F925F926F927F928F92FD
:1033C0009F92AF92BF92CF92DF92EF92FF920F93B4
:1033D0001F93CF93DF93EC01962EA42EBB24B394BE
:1033E000B21A822E8194880C122F742E721AE42E37
:1033F000F12C6701C20ED11C872D992787FD90956E
:10340000C816D90644F0202F472D692DCE010E9401
:10341000B2187394F1CF712C71160CF04CC0B7FC3C
:1034200004C0115083948394B80C7394872D880F33
:103430008F5FB80E6A2C611A6701C10ED11C17FD8F
:10344000DA94472C490C592C5718862D992787FD5B
:103450009095C816D90674F0202F462D642DCE0104
:103460000E94B218202F462D652DCE010E94B21861
:103470006394EBCF6A2C67186701C70CD11C77FCEB
:10348000DA94412E490C592C511A862D992787FD23
:103490009095C816D9060CF4BFCF202F462D642D69
:1034A000CE010E94B218202F462D652DCE010E941C
:1034B000B2186394EACFDF91CF911F910F91FF90E3
:1034C000EF90DF90CF90BF90AF909F908F907F90C4
:1034D0006F905F904F900895E82FF0E0EE0FFF1F80
:1034E000EB5FF14F859194910C94FF340C94FF3471
:1034F00080E091E00E948B1823E030E048E250E049
:1035000060E771E08AE70E946C1A27E130E048E149
:1035100050E060E771E08BE70E946C1A809115051E
:1035200084FF11C02BE230E04CE050E060E771E036
:1035300086E80E946C1A2BE230E040E550E060E73C
:1035400071E087E73EC08091150582FF11C02BE234
:1035500030E04CE150E060E771E08BE40E946C1ACF
:103560002BE230E046E350E060E771E08CE429C0F4
:103570008091150583FF11C02BE230E04AE050E056
:1035800060E771E083E80E946C1A2BE230E041E5CD
:1035900050E060E771E084E814C08091150581FF78
:1035A00012C02BE230E04AE050E060E771E089E6CB
:1035B0000E946C1A2BE230E041E550E060E771E0D8
:1035C00089E70E946C1A80E091E00C945918CF931F
:1035D000DF93CDB7DEB72C970FB6F894DEBF0FBEE2
:1035E000CDBF26E0AE014F5F5F4F63E480ED0E94E8
:1035F000DB1C898190E0982F88272A81820F911DFA
:1036000034E0959587953A95E1F79A8789878B817C
:1036100090E0982F88272C81820F911D54E095957A
:1036200087955A95E1F798878F838D8190E0982F41
:1036300088272E81820F911D74E0959587957A9544
:10364000E1F79C878B8720917606ADE7B5E043E0F4
:1036500024029001112480E090E02B57394EF901AB
:10366000E80FF91FE491EE0FFF0B41E050E04C0F23
:103670005D1FE40FF51F468157814D935D930196C1
:103680008330910561F72C960FB6F894DEBF0FBE1C
:10369000CDBFDF91CF9108951F93CF93DF930E9409
:1036A000E71A20917606C9E3D7E0ADE7B5E083E0FD
:1036B00028029001112480E090E02D58394E699144
:1036C0007991F901E80FF91F14914D915C911197CF
:1036D000461B570B1403B001159F700D11246D93F9
:1036E0007D9301968330910551F7DF91CF911F9122
:1036F0000895CF9386E0E9E3F7E0DF011D928A9514
:10370000E9F7C0E20E94E71A4091390750913A0761
:1037100080917D0590917E05480F591F50933A077F
:103720004093390720913B0730913C0780917F05FA
:1037300090918005280F391F30933C0720933B0759
:1037400080913D0790913E076091810570918205BF
:10375000860F971F90933E0780933D07C15091F6C7
:10376000E5E055954795EA95E1F750933A07409380
:103770003907F5E035952795FA95E1F730933C0741
:1037800020933B07A5E095958795AA95E1F790933F
:103790003E0780933D07CF910C942F152F923F92B7
:1037A0004F925F926F927F928F929F92AF92BF9251
:1037B000CF92DF92EF92FF920F931F93CF93DF93FD
:1037C000CDB7DEB765970FB6F894DEBF0FBECDBF9D
:1037D0001E861D86188A1F861A8A198A0E94791BDE
:1037E0006091390770913A07882777FD8095982F67
:1037F0000E94343F69837A838B839C8360913B076B
:1038000070913C07882777FD8095982F0E94343F60
:103810006D837E838F83988760913D0770913E070B
:10382000882777FD8095982F0E94343F69877A8793
:103830008B879C871D8A1B8AE12CF12C00E010E00D
:103840008091B2009D89891BE80EF11CE091B200C5
:10385000ED8BFCE4EF16FF0628F08B898F5F8B8BD6
:10386000E12CF12C0E94E71AFE0131966F01BDE7B1
:103870002B2EB5E03B2ECE010D965C011C8AF1018A
:10388000819091901F0120E030EC49E754E4F6016B
:1038900060817181828193810E94E83F2B013C010C
:1038A000B401882777FD8095982F0E94343F9B01B3
:1038B000AC01C301B2010E94313E20E030E04AE792
:1038C00054E40E94993EF60160837183828393835E
:1038D0000E94013FF501208131812617370711F041
:1038E00000E010E0F501619371935F01FC89FF5FD7
:1038F000FC8B84E0C80ED11CF33009F60F5F1F4F1C
:10390000093C110520F00E94791B81E001C080E094
:10391000E7E8F3E13197F1F700C00000811104C03E
:10392000FB89F63008F48CCF65960FB6F894DEBFAD
:103930000FBECDBFDF91CF911F910F91FF90EF9000
:10394000DF90CF90BF90AF909F908F907F906F90BF
:103950005F904F903F902F90089541E06BE680ED8F
:103960000E94C41C40E467E380ED0E94C41C46E052
:1039700080917C06481B6AE180ED0E94C41C48E1EE
:103980006BE180ED0C94C41CCF93DF9300D0CDB7D6
:10399000DEB74A8369830E944B3A6981862F0E9471
:1039A0009B3A4A81842F0E949B3A0F900F90DF919F
:1039B000CF910C948C3ACF92DF92EF92FF920F93BB
:1039C0001F93CF93DF9300D01F92CDB7DEB7182F90
:1039D000E22E4A835B8369830E944B3A6981862F7A
:1039E0000E949B3A81E0810F0E948A3A4A81C42E4C
:1039F0005B81D52E00E010E0F12C0E151F0584F43C
:103A00000F5F1F4F0E151F0519F00E94BB3A02C031
:103A10000E94D43AF6018083FFEFCF1ADF0AEDCF80
:103A20000F900F900F90DF91CF911F910F91FF900A
:103A3000EF90DF90CF900C948C3A4F925F926F9200
:103A40007F928F929F92AF92BF92CF92DF92EF922E
:103A5000FF92CF93DF93CDB7DEB728970FB6F894D8
:103A6000DEBF0FBECDBF6B017C018090B30590908F
:103A7000B405A090B505B090B6059B01AC010E94BD
:103A8000E83F20E030E040E05FE30E94E83F9B0138
:103A9000AC0160E070E080E89FE30E94303E698303
:103AA0007A838B839C834090B7055090B8056090D3
:103AB000B9057090BA059B01AC01C501B4010E9423
:103AC000E83F6D837E838F839887A7019601C301AA
:103AD000B2010E94E83F9B01AC016D817E818F8124
:103AE00098850E94303E60939F057093A005809357
:103AF000A1059093A205A7019601C501B4010E94FA
:103B0000E83F6B017C0129813A814B815C81C301D3
:103B1000B2010E94E83F9B01AC01C701B6010E94BF
:103B2000313E60938305709384058093850590935F
:103B3000860528960FB6F894DEBF0FBECDBFDF9185
:103B4000CF91FF90EF90DF90CF90BF90AF909F907C
:103B50008F907F906F905F904F900895CF92DF92FB
:103B6000EF92FF9269017A0125EF31EA4BE85CE3BD
:103B70000E94E83FA70196010E94E83F6B017C018B
:103B800026EA3AE046E85EE30E94E43F18169CF01D
:103B900026EA3AE046E85EEBC701B6010E94953E90
:103BA00087FF11C086EAC82E8AE0D82E86E8E82E64
:103BB0008EEBF82E08C096EAC92E9AE0D92E96E828
:103BC000E92E9EE3F92EC701B601FF90EF90DF903A
:103BD000CF9008958F929F92AF92BF92CF92DF9233
:103BE000EF92FF920F931F936B017C0160919305FD
:103BF000709194058091950590919605A701960185
:103C00000E94AE1D00911605109117052091180510
:103C1000309119050093B3051093B4052093B505B1
:103C20003093B60500910005109101052091020521
:103C3000309103050093B7051093B8052093B9059B
:103C40003093BA050E941D1D80919F059091A0059B
:103C5000A091A105B091A205809316059093170538
:103C6000A0931805B0931905809083059090840562
:103C7000A0908505B0908605809200059092010580
:103C8000A0920205B0920305609197057091980586
:103C90008091990590919A05A70196010E94AE1D09
:103CA00000911A0510911B0520911C0530911D05EE
:103CB0000093B3051093B4052093B5053093B60572
:103CC0008092B7059092B805A092B905B092BA0556
:103CD0000E941D1D80909F059090A005A090A105B9
:103CE000B090A20580921A0590921B05A0921C0527
:103CF000B0921D058091830590918405A091850562
:103D0000B09186058093000590930105A09302056C
:103D1000B09303056091810570918205882777FD36
:103D20008095982F0E94343FA70196010E94AE1DF6
:103D30008092B3059092B405A092B505B092B605F5
:103D4000C0901605D0901705E0901805F090190561
:103D5000C092B705D092B805E092B905F092BA05C5
:103D60000E941D1D80919F059091A005A091A10525
:103D7000B091A20580931A0590931B05A0931C0592
:103D8000B0931D058091830590918405A0918505D0
:103D9000B09186058093160590931705A09318059A
:103DA000B09319051F910F91FF90EF90DF90CF9086
:103DB000BF90AF909F908F900895CF92DF92EF9237
:103DC000FF9220E030E044EB52E40E94E83F6B01B8
:103DD0007C0120E030E0A9016091000570910105AF
:103DE00080910205909103050E94953E87FF18C0BF
:103DF00020E030E0A901C701B6010E94E43FA7011D
:103E0000960118162CF460E070E084E393E404C09B
:103E100060E070E084E393EC0E94303E6B017C0133
:103E2000C701B601FF90EF90DF90CF9008956091A9
:103E30001A0570911B0580911C0590911D050E942B
:103E4000DD1E6093AF057093B0058093B10590932C
:103E5000B205609116057091170580911805909133
:103E600019050E94DD1E6093870570938805809375
:103E7000890590938A0508954F925F926F927F9281
:103E80008F929F92AF92BF92CF92DF92EF92FF926A
:103E90000F931F93CF93DF93CDB7DEB760970FB625
:103EA000F894DEBF0FBECDBF0E94323F69837A8394
:103EB0008B839C8320E836E948E15AE40E94993ECE
:103EC0006D877E878F87988B60917B0684E0680280
:103ED000B00111246956794E44E050E0CE010196BC
:103EE0000E94EB4050907B06C980DA80EB80FC801A
:103EF00027E3622E25E0722E03EA15E0D3016D91CF
:103F00007D913D01882777FD8095982F0E94343F51
:103F10004B015C01B7E05B16F1F020E030E040E8D7
:103F20005FE3C701B6010E94303EF8012081318174
:103F3000428153810E94E83FA50194010E94303ED6
:103F4000A70196010E94993ED8016D937D938D93B0
:103F50009C93139709C0B7FAB094B7F8B094F801DE
:103F600080829182A282B3820C5F1F4FFDE36F16A5
:103F7000F5E07F0619F623EC35EF48E25FE3609148
:103F8000A3057091A4058091A5059091A6050E94B6
:103F9000E83F6D837E838F83988760938B05709352
:103FA0008C0580938D0590938E0523EC35EF48E2C8
:103FB0005FE36091A7057091A8058091A905909194
:103FC000AA050E94E83F69877A878B879C87609360
:103FD0008F05709390058093910590939205609161
:103FE0007D0570917E05882777FD8095982F0E942A
:103FF000343F2B013C0160939705709398058093A3
:10400000990590939A0560917F05709180058827A6
:1040100077FD8095982F0E94343F6B017C0160935F
:104020009305709394058093950590939605209140
:104030003705309138054091390550913A05E091A6
:104040003B05F0913C05449F4001459F900C900C2E
:104050001124B401882777FD8095982F229FA00115
:10406000239F500D500D11248A01222717FD209502
:10407000322F600F711F821F931FEE9F9001EF9FE1
:10408000300D300D11248901222717FD2095322F84
:10409000600F711F821F931F0E94323F4B015C0112
:1040A00020E034EF48E356E40E94E43F18160CF099
:1040B0006FC020E038E449EA56E4C501B4010E942B
:1040C000953E87FF65C020E030E040E05FE360910F
:1040D00000057091010580910205909103050E94F1
:1040E000E43F18160CF054C080917A066BE070E043
:1040F000681B710987FD7395882777FD8095982F38
:104100000E94343F4B015C012D813E814F815885D7
:104110006091AF057091B0058091B1059091B205A5
:104120000E94303EA50194010E94993E9B01AC0182
:10413000C301B2010E94313E6093970570939805C8
:104140008093990590939A0529853A854B855C85DE
:1041500060918705709188058091890590918A0505
:104160000E94303EA50194010E94993E9B01AC0142
:1041700069837A838B839C83C701B6010E94313E99
:10418000609393057093940580939505909396059D
:104190006D857E858F8598890E94EA1D0E94171F74
:1041A00020E030E048EC52EC6091AF057091B00532
:1041B0008091B1059091B2050E94E83F0E94013FB5
:1041C00070939C0560939B0520E030E048EC52EC36
:1041D00060918705709188058091890590918A0585
:1041E0000E94E83F0E94013F70939E0560939D05E9
:1041F00060960FB6F894DEBF0FBECDBFDF91CF91B2
:104200001F910F91FF90EF90DF90CF90BF90AF90F4
:104210009F908F907F906F905F904F900895109235
:104220001A0510921B0510921C0510921D05109284
:10423000160510921705109218051092190580E0C6
:1042400090E0A0E8BFE38093000590930105A09360
:104250000205B09303051092B3051092B4051092B5
:10426000B5051092B6051092B7051092B8051092D8
:10427000B9051092BA051092AF051092B0051092D0
:10428000B1051092B2051092870510928805109220
:10429000890510928A0510927D0710927C07109272
:1042A00085001092840010920F0510920E0508955B
:1042B00011B88AE084B917B882EF8AB92B98299887
:1042C0005C9A85EF83B98CE089B989B92FE588EDCF
:1042D00093E0215080409040E1F700C000001C991D
:1042E00006C083EF8AB90E94F10C82EF8AB98DE093
:1042F00089B914BC85E085BD80916E008160809392
:104300006E0016BC109280008091810082608093C4
:1043100081001092B00087E08093B100109270008D
:1043200017BA1092B200109268009FE09BBB95E113
:10433000909369008CBB1092620780911305846092
:10434000809313050E943A180E9494182FE78FE477
:1043500092E1215080409040E1F700C0000083B11D
:10436000807F803951F580EC0E942B1880E091E02D
:104370000E948B1829E130E048E250E060E771E0EC
:1043800081E00E946C1A80E091E00E94591880E060
:1043900091E00E948B180E9456140E942F15809164
:1043A00077060E9431182FE784E89EE12150804073
:1043B0009040E1F700C0000002C00E943A158091D1
:1043C00077060E94311880E091E00E9459182FE78B
:1043D00084E89EE1215080409040E1F700C0000059
:1043E00080E091E00E948B1880E091E00E945918D3
:1043F0000E943A180E94083A0E94AD1C0E94BB0E0F
:1044000080E091E00E948B1880EC0E942B1829E13B
:1044100030E042E150E060E771E082E00E946C1A17
:1044200080E091E00E94591880E091E00E948B1892
:104430000E94C50E0E94D3260E94ED3A0E94CE1B18
:10444000811127C080E091E00E948B1829E130E0C3
:1044500049E150E060E771E08DE30E946C1A80E072
:1044600091E00E9459182FEF88E09DE32150804091
:104470009040E1F700C00000F89428E088E190E067
:104480000FB6F894A895809360000FBE209360004B
:10449000FFCF0E94113E90931F0580931E050E943E
:1044A000C02F80916207882369F00E945A3880915A
:1044B000BE079091BF07C3972CF0809115058260CD
:1044C000809315050E940F21299A2FE986E891E033
:1044D000215080409040E1F700C0000029980895E5
:1044E0001F920F920FB60F9211248F939F9380917A
:1044F0007C0790917D07019690937D0780937C07C0
:104500009F918F910F900FBE0F901F9018952FB70E
:10451000F89480918400909185002FBF08951F9298
:104520000F920FB60F9211242F933F934F935F93E7
:104530006F937F938F939F93AF93BF93EF93FF936B
:104540000E9487221A9971C0209191073091920799
:10455000AC01421B530B9A012F353A4158F420917C
:10456000910730919207AC01421B530B9A012E3EEA
:10457000324010F410929007909392078093910725
:10458000E0919007F0E0E554FA4FE1812091900727
:10459000222339F0A0919007B0E0A554BA4F2C9196
:1045A00001C020E030919007383038F4F0E0EE0F91
:1045B000FF1FE258F84F9183808330919007332397
:1045C00099F030919007393078F430E0220F331FA2
:1045D000F901E258F84F40815181841B950BF90194
:1045E000EE5AF84F91838083809190078F5F80937C
:1045F00090079091900780917307891728F4809114
:1046000090078093730709C090919007809173077A
:10461000981303C081E08093620780910D05882381
:1046200021F01092730710920D05FF91EF91BF9149
:10463000AF919F918F917F916F915F914F913F913A
:104640002F910F900FBE0F901F9018951F920F92F1
:104650000FB60F921124EF92FF921F932F933F9367
:104660004F935F936F937F938F939F93AF93BF937A
:10467000CF93DF93EF93FF93C091C6000E948722F0
:1046800040919107509192078417950748F4409103
:104690009107509192079C01241B350BA90108C07A
:1046A0004091910750919207DC01A41BB50BAD011D
:1046B000453CB9E05B0790F01092510710927607E5
:1046C00010929007109294071092930710928F0700
:1046D00010928E07509396074093950790939207F8
:1046E0008093910780915107863250F4E0915107F1
:1046F00081E08E0F80935107F0E0E25CFA4FC083B7
:1047000080910406833009F04DC1809176078111B4
:104710000FC0C09377078C2F807E51F08091930754
:10472000909194078B5A9F4F90939407809393078F
:1047300080917607813011F4C093790780917607D4
:104740002C2F30E0823021F430938F0720938E0796
:10475000809176078330B9F0809190074091760779
:1047600090E0880F991F039650E084179507D4F1C5
:104770008091930790919407820F931F90939407D1
:1047800080939307F5C280918E0790918F07982FA1
:10479000882790938F0780938E0780918E07909142
:1047A0008F07822B932B90938F0780938E07809196
:1047B0008E0790918F0740918E0750918F075093ED
:1047C00075074093740710929007009729F2AC0187
:1047D0004150510984239523409190074F5F4093A6
:1047E0009007F3CF80919307909194079927909326
:1047F0009407809393078091930790919407821771
:10480000930749F010926207109290071092940754
:1048100010929307CBC12B9881E080936207D091CF
:10482000050680E090E020E034E04FEF5FEFFC0110
:10483000EE0FFF1FDF01AE5AB84F11961C921E9269
:10484000ED59F84FD23019F45183408307C0D1306D
:1048500019F43183208302C01182108201968830BE
:10486000910529F728EF3FEFC4E061E070E01AE01E
:1048700040918E0750918F07D9011896CB010A2ECF
:1048800002C0880F991F0A94E2F784239523892B8D
:1048900009F481C0EC2FF0E0E25CFA4F808190E0F7
:1048A000982F88274181840F911D48E0420FF9011C
:1048B0004830A0F4E554FA4FE185F0E0189FA001DC
:1048C000199F500D11245695479556954795EE0F13
:1048D000FF1FEE5AF84F518340835AC0EE0FFF1F5F
:1048E000D23071F5AC014C5D5540CA019595879564
:1048F00095958795840F951F7A01689413F8F59420
:10490000E7941694E1F78E0D9F1D7A01689414F8D0
:10491000F594E7941694E1F78E0D9F1D689415F8B1
:10492000559547951694E1F7840F951F9C5F9770F6
:10493000BA2FAA27BB0FBB0FBB0F8A2B9B2B24C000
:10494000D13011F5AC014C5D5540CA019595879564
:10495000840F951FDA01B595A795B595A795B595DF
:10496000A7958A0F9B1FDA01689413F8B595A79550
:104970001694E1F78A0F9B1FA6E055954795AA95D7
:10498000E1F7840F951F9C5FED59F84F9183808369
:10499000C63208F4CE5F2F5F3F4F2830310509F053
:1049A00067CFE6C1813009F003C190917607983155
:1049B00009F0DEC19091550590933D0595FDF6C037
:1049C0002B988093620780E090E09C01220F331FB8
:1049D000F901EE5AF84F11821082F901ED59F84FA2
:1049E0001182108201968830910579F7B0EB70E062
:1049F00060E0A0E0C1E021E030E0EC2FF0E0E25C1C
:104A0000FA4F808190E00A2E02C0959587950A940E
:104A1000E2F780FF2BC06830A0F4E62FF0E0E55409
:104A2000FA4FE181F0E0EE0FFF1FEE5AF84F808160
:104A30009181A901072E02C0440F551F0A94E2F785
:104A400011C0603198F4E62FF0E0EE0FFF1FED5A31
:104A5000F84F40815181C901072E02C0880F991F6C
:104A60000A94E2F7842B952B91838083AF5F7F5F5D
:104A7000A83011F4CF5FA0E07B3011F46F5F70E0DD
:104A8000B15009F0BACF40E050E0FA01EE0FFF1F3D
:104A9000EE5AF84F208131813450C90195958795A0
:104AA00095958795820F931FB901A3E0759567953A
:104AB000AA95E1F7860F971FB901B4E07595679540
:104AC000BA95E1F7860F971FC5E035952795CA95EA
:104AD000E1F7820F931F8A55914F918380834F5F37
:104AE0005F4F4830510589F6A091050620E030E07F
:104AF000A23071F5F901EE0FFF1FED59F84F40811B
:104B000051815450CA0195958795BA01759567955D
:104B100075956795860F971FBA01C5E075956795DE
:104B2000CA95E1F7860F971FD6E055954795DA9518
:104B3000E1F7840F951F9C5F9770A901485F5F4F55
:104B4000542F4427550F550F550F842B952B25C0F7
:104B5000A33029F5F901EE0FFF1FED59F84F408101
:104B600051815450CA0195958795BA01B4E0759565
:104B70006795BA95E1F7860F971FBA01C6E075955C
:104B80006795CA95E1F7860F971F440F452F441F7D
:104B9000550B840F951F84529A4F918380832F5F0A
:104BA0003F4F2830310509F0A3CFE2C02B9AE0C077
:104BB000823009F0DDC0809176078F3009F0D8C0CF
:104BC000C0934D058091780790913E05981711F09C
:104BD0002B9A01C02B9880913E0580937807809195
:104BE0003F0584FF04C0C7E063E078E703C0C3E08B
:104BF00062E07CE3D0910506E1E4F5E041E050E0BD
:104C0000DF0111971C91212F272330E0062E02C0CF
:104C1000359527950A94E2F720939007208130E09C
:104C2000A12FAC23B0E09A2F8827820F931FA09169
:104C30009007A830B8F59C01633011F4345001C0DE
:104C40003250C901880F991FD901B595A7958A0FD0
:104C50009B1FD901B595A795B595A7958A0F9B1F61
:104C6000D90113E0B595A7951A95E1F78A0F9B1F17
:104C7000A4E035952795AA95E1F7820F931F63303D
:104C800011F495958795A0919007B0E0A554BA4F7F
:104C90001196AC91B0E08A55914FAA0FBB1FAE5A46
:104CA000B84F3FC0A0919007AE30F0F5D33051F52A
:104CB0009C013450C90195958795D90113E0B595AC
:104CC000A7951A95E1F78A0F9B1FD90114E0B595B6
:104CD000A7951A95E1F78A0F9B1FD90115E0B595A5
:104CE000A7951A95E1F78A0F9B1FA6E035952795A2
:104CF000AA95E1F7820F931F84529A4FA0919007D3
:104D0000B0E00BC0A0919007B0E0D13031F0812F1E
:104D100090E0982F8827820F931FAA0FBB1FAD5AD0
:104D2000B84F11969C938E9320917A0730917B0710
:104D300080919007DA0102C0AA0FBB1F8A95E2F7A3
:104D4000CD018223932390937B0780937A078091F0
:104D50007A0790917B07909375078093740732963A
:104D6000B5E0EF34FB0709F04BCF81E08093620799
:104D7000809176078F5F80937607FF91EF91DF91A7
:104D8000CF91BF91AF919F918F917F916F915F91E3
:104D90004F913F912F911F91FF90EF900F900FBE79
:104DA0000F901F901895F89480910406882391F035
:104DB00087FD20C08430F4F410926C0010927300D0
:104DC0001DBA8091C10080688093C1008091C100AC
:104DD00080610EC010926C001092730084E08DBB55
:104DE0008091C1008F778093C1008091C1008F7E38
:104DF0008093C10088E08093C9008FE08BBB1CBA10
:104E000078940895811123C029E330E040E050E018
:104E100066E071E08CE00E946C1A2BE330E046E221
:104E200050E066E071E08AE00E946C1A2BE330E00B
:104E300040E550E066E071E089E00E946C1A29E3E9
:104E400030E048E750E066E071E08BE022C026E306
:104E500030E040E050E06EE17AE080E10E946C1AC0
:104E60002BE330E046E250E066E071E08AE00E9429
:104E70006C1A2BE330E040E550E066E071E089E039
:104E80000E946C1A26E330E047E650E06EE17AE0DB
:104E900081E10E946C1A80E091E00C945918CF9344
:104EA000DF93CDB7DEB72A970FB6F894DEBF0FBEFB
:104EB000CDBF25E0629F800D911D1124BC0145E00E
:104EC00050E0CE0106960E94EB4085E0FE0136964A
:104ED000DE01119601900D928A95E1F729813A81C0
:104EE0004B815C816D8170E080E090E02A960FB686
:104EF000F894DEBF0FBECDBFDF91CF9108950F9321
:104F00001F93CF93DF93E42F10E0C22FD0E06623EE
:104F100019F06250623078F44AE064E675E00E946D
:104F2000F4409801AE016EE17AE0DF91CF911F91DC
:104F30000F910C942D359801AE016EE17AE08E2F21
:104F4000DF91CF911F910F910C946C1A682F93B140
:104F5000907F9093970780E071E090919707903F42
:104F6000C9F483B1807FE7EAF1E63197F1F700C039
:104F7000000023B1482F50E0207F30E04217530754
:104F800019F48093970701C080E010922005709378
:104F90009807E3CF662371F0909120059F5F90936F
:104FA00020059A3038F010922005909198079F5F65
:104FB0009093980708952F923F924F925F926F922D
:104FC0007F928F929F92AF92BF92CF92DF92EF9299
:104FD000FF920F931F93CF93DF93CDB7DEB7649704
:104FE0000FB6F894DEBF0FBECDBF982E7E876D87BB
:104FF000B42EED82FE820F83D12E188729874E2D85
:105000003F2D0A87FB012081622E772467FC709474
:10501000F2E01F1305C05B2D25033001112402C0EF
:10502000BB24B39420EF209397078B2D90E0988BAF
:105030008F872B2D4203100111243203C00111244C
:105040009C878B8791E0512C412CF12C092D10E08D
:10505000000F111F0B5F114FEC2DFF27E7FDF0959F
:10506000FA8BE98B5EEFC52ECD0C2A2D30E03C8B00
:105070002B8B80919707803E09F403C1882011F0A3
:1050800025E001C021E0803F19F04394241510F47D
:10509000512C412C882049F0F39437E03F1510F44F
:1050A000803F19F4992309F469C080E091E00E94DF
:1050B0008B18F8018591949120E030E040E050E0B9
:1050C00060E771E00E94761ADD2019F051E05C156E
:1050D00040F14AE064E675E0C3010E94F440AE018D
:1050E0004F5F5F4F60E771E00E94DE3389819A81F4
:1050F00020E8E22EF12CE81AF90AF694E79489895F
:105100009A89E80EF91E4AE064E675E0C3010E9440
:10511000F44029E130E0A70160E771E00E942D35FD
:1051200025C0EB89FC89E60DF71DEE0FFF1FEB5F35
:10513000F14F859194910E942C34AE014F5F5F4FE7
:1051400060E771E084E695E00E94DE3389819A8110
:1051500040E850E0481B590B5695479529E130E04F
:1051600060E771E08A2D860D0E946C1A81E00E9432
:10517000022780E091E00E945918F12C92E0D916A4
:1051800029F19D1568F0DD20C9F0E1E0DE122FC0A5
:105190009FE3E2E4FFE09150E040F040E1F725C0FA
:1051A000F3E0DF16D9F024E0D21221C0FFE322E4BD
:1051B0003FE0F15020403040E1F717C03FE75AE1AF
:1051C00086E0315050408040E1F70FC02FE73AE1D0
:1051D00056E0215030405040E1F707C08FE798E398
:1051E000E1E081509040E040E1F700C000008820FD
:1051F00041F083B1807F8093970751E050939807E7
:1052000003C081E00E94A62780919707803F39F173
:105210008820C9F0803D51F4511058C08091980702
:105220009A85989F6018710811240BC0803B81F407
:1052300051104CC080919807EA85E89F600C711C62
:105240001124412C43C0803D49F3803B99F3512CFC
:10525000803729F429853B2D230330011124621462
:1052600073040CF431018B859C85861597050CF42D
:105270003C0197EA991203C0862D0E94311890E0F4
:10528000F8CEE2E0DE1206C0C3016F8578890E9485
:105290005F403B01ED85FE85608264960FB6F89411
:1052A000DEBF0FBECDBFDF91CF911F910F91FF9059
:1052B000EF90DF90CF90BF90AF909F908F907F90B6
:1052C0006F905F904F903F902F9008955524539486
:1052D000C6CF90E0981781F0299AEFE0F7E2319776
:1052E000F1F700C000002998EFE0F7E23197F1F7FD
:1052F00000C000009F5FEECF0895CF92DF92EF9243
:10530000FF920F931F93CF93DF9300D01F92CDB7DF
:10531000DEB7582FF601D7019C91940F9C93640F30
:10532000203EA1F4D8018C918F3059F018F48330CD
:1053300049F04BC08B3141F0873209F046C09D5F88
:1053400001C09F5F908341C09E5FFCCF203DF9F478
:10535000F80180818F3069F018F4833031F015C086
:105360008B3159F0873269F010C0523070F18FE004
:1053700027C0533050F18BE11FC0543030F187E229
:105380001FC0553010F188E217C088E219C0203BD9
:10539000D1F4F80180818F3069F020F4833079F402
:1053A00082E00AC08B3121F0873249F48BE108C0DA
:1053B0008FE002C083E004C0F801808306C082E071
:1053C000D8018C9302C0203F91F081E04B835A8337
:1053D00069830E946929BFEFE4E3FCE0B150E0403B
:1053E000F040E1F700C0000069815A814B81D8018B
:1053F0008C91823041F483E08C93F70180816817AF
:1054000010F481508083D8018C91883291F487E226
:105410008C93F7017081272F30E02D5F3F4F852F50
:1054200090E0860F911D01972817390710F47F5FD0
:105430007083D7018C91841B8C930F900F900F90E9
:10544000DF91CF911F910F91FF90EF90DF90CF9060
:105450000895282F30E043E050E066E071E08DE0F1
:105460000C946C1A2F923F924F925F926F927F92A0
:105470008F929F92AF92BF92CF92DF92EF92FF9264
:105480000F931F93CF93DF93CDB7DEB729970FB656
:10549000F894DEBF0FBECDBF382E3A01222E280170
:1054A000EE82CF82888680E091E069870E948B1827
:1054B00080E00E940227232D30E06985862F90E04E
:1054C000680145E0649FC018D1081124E5E03E9EC4
:1054D000C00CD11C1124812C912CE12CF12CA81A88
:1054E000B90AA20EB31E281B390B620E731E870168
:1054F0000954194EF801249130E04AE050E06EE181
:105500007AE0832D8E0D0E946C1AFE8145E050E0FA
:10551000F11104C0B4016C0D7D1D01C0B201CE01BA
:1055200001960E94EB406C81623011F031E001C0C5
:10553000322DF8010491F501EE0DFF1D4491D301C8
:10554000AE0DBF1D5C91450F2F815303C001112487
:105550000E947F27FFEFEF1AFF0A45E0840E911C9F
:1055600084E0E816F10409F0C2CF88850E94292A58
:1055700080E091E00E94591881E00E94A6272996B8
:105580000FB6F894DEBF0FBECDBFDF91CF911F9154
:105590000F91FF90EF90DF90CF90BF90AF909F90D2
:1055A0008F907F906F905F904F903F902F900895D5
:1055B0002F923F924F925F926F927F928F929F9223
:1055C000AF92BF92CF92DF92EF92FF920F931F9311
:1055D000CF93DF93CDB7DEB72F970FB6F894DEBF2A
:1055E0000FBECDBF90919907992329F090EC90932D
:1055F00024051092990790E0019746E1489F900199
:10560000499F300D1124C9018C5E994F9F838E8371
:10561000F901E554FA4F2F011F01FBE52F0E311C54
:1056200032013F862E86C2018E599F4F9B878A8703
:10563000F201E759FF4FFD87EC878091970780378C
:1056400009F493C0F1019080EA85FB85F081F98728
:10565000EC85FD85F081F8878090040589E2A82E0D
:1056600087E1B82E9FE4C92EE12C0BEB16E121E077
:105670004E815F8160EC809124050E94322A21E2F4
:10568000C22E25E0D22E34E2E32E35E0F32E04E0E4
:1056900015E02091970740E060EC86E10E947D29AB
:1056A00060912105605C8BEB96E10E944F27298376
:1056B0003A834B835C836D8380919707803EE9F446
:1056C00080912105E82FF0E0E759F94EA490682F6A
:1056D00070E0605C71092E813F81620F731F1F9221
:1056E0001F92812CC12CE980FA800B811C812D81B5
:1056F00041E00E94DB270F900F9080919707803E3A
:1057000009F09BCFEE85FF858081981649F0F30163
:10571000E15AFF4F813019F48DE7808301C0108278
:10572000F301EE59FF4F8081F985F81749F0F30135
:10573000EA59FF4F813019F48DE7808301C0108250
:10574000F301E759FF4F80812885281739F03496F7
:10575000813019F48DE7808301C010820E94C02F30
:105760000E942F150E94982C5ECF2F960FB6F894AA
:10577000DEBF0FBECDBFDF91CF911F910F91FF9084
:10578000EF90DF90CF90BF90AF909F908F907F90E1
:105790006F905F904F903F902F90089590E0FC01A4
:1057A000ED54F109E731F105B0F5E75BFF4F0C94DB
:1057B000924083E001C081E00C94442E0C941C13B1
:1057C0000C94640F81E001C082E00C94D82A83E03D
:1057D000FCCF0C9477100C94D50E80E00DC081E0C6
:1057E0000BC082E009C083E007C084E005C085E00B
:1057F00003C086E001C087E00C94A52C81E009C0BD
:1058000082E007C083E005C084E003C082E0D4CF1B
:1058100085E00C943A2D08951F990AC02FE38DE07E
:1058200093E0215080409040E1F700C00000F4CFA9
:105830000895AF92BF92CF92DF92EF92FF920F93B3
:105840001F93CF93DF9380EF809397071F990AC030
:105850002FE38DE093E0215080409040E1F700C0BD
:105860000000F4CF23E0B22E30EFA32E80919707F3
:10587000803709F452C080E091E00E948B1880E0EC
:105880000E940227C0E0D0E0FE01E954F94E2491C5
:1058900030E0809106054AE050E06EE17AE08C0F3E
:1058A0000E946C1A2196C430D10571F780910505CC
:1058B0000E94292A80E091E00E94591881E00E940C
:1058C000A62783E2C82E85E0D82E96E0E92E95E043
:1058D000F92E05E015E02091970740E06DE487E19F
:1058E0000E947D298091230590912205891749F016
:1058F000B0920405109221058093220591E09093C7
:10590000990790919707903E09F0B0CF0E94CE2B57
:10591000A09297070E940C2CA9CFDF91CF911F91E5
:105920000F91FF90EF90DF90CF90BF90AF900895D0
:105930001C990AC02FE38DE093E0215080409040F5
:10594000E1F700C00000F4CF08956F927F928F922C
:10595000AF92BF92CF92DF92EF92FF920F931F937D
:10596000CF93DF9300D000D01F92CDB7DEB79091D8
:105970009907992329F097ED9093240510929907A0
:105980009FE0899F30011124C3018158994F3C0148
:1059900080919707803709F45AC08090040580E809
:1059A000A82E87E1B82E90E5C92EE12C0FE317E170
:1059B00021E0A30167ED809124050E94322A21E2B3
:1059C000C22E25E0D22E34E2E32E35E0F32E04E0A1
:1059D00015E02091970740E067ED8DE00E947D295A
:1059E00060912105675D8FE397E10E944F2729832E
:1059F0003A834B835C836D8380919707803ED9F413
:105A000080912105E82FF0E0E755F94EA490682F2A
:105A100070E0675D7109660D771D1F921F92812CE2
:105A2000C12CE980FA800B811C812D8141E00E940C
:105A3000DB270F900F9080919707803E09F0A8CF49
:105A40000E94C02F0E942F150E94982CA1CF0F906A
:105A50000F900F900F900F90DF91CF911F910F91AA
:105A6000FF90EF90DF90CF90BF90AF908F907F909E
:105A70006F9008952F923F924F925F926F927F9214
:105A80008F929F92AF92BF92CF92DF92EF92FF924E
:105A90000F931F93CF93DF93CDB7DEB729970FB640
:105AA000F894DEBF0FBECDBF8E8380919907882307
:105AB00029F088EE80932405109299071F822E8189
:105AC000822F90E0019725E0289F2001299F500C0C
:105AD000112492012357384E29011C01E3E0220CC6
