:100000000C94400D0C94952A0C945D2A0C94402B72
:100010000C94660D0C94072B0C94660D0C94CE2A50
:100020000C94660D0C94660D0C94660D0C94660D84
:100030000C94660D0C94660D0C94660D0C94660D74
:100040000C94660D0C94660D0C94462A0C94660D67
:100050000C94022C0C94660D0C94660D0C94660D99
:100060000C94660D0C94660D0C94660D0C94660D44
:100070000C94660D0C94660D0C94660D4432463259
:1000800049324B324D324F3251325332563258325E
:100090005A325C325E3260326232643267326932C6
:1000A0006B32FFFF01FF01FF01FFFF010101FF01B3
:1000B00001FFFFFF00010202000100010200010236
:1000C000010002000201010200030405060700010D
:1000D00002030405060705020601050803070501DA
:1000E0000241050D000F002200330044004F0901BA
:1000F00000030007000F001F000F000700030001AE
:1001000000081C001C001C001C007F003E001C009E
:1001100008000808001C003E007F001C001C001C9A
:10012000001C0005FF01FE007C00380010000D409F
:10013000006000700078007C007E007F007E007C04
:100140000078007000600040000102205B1300BBDB
:1001500000C500CC00CC00CC00CC0103010301039E
:1001600001160129012901290136014901500150D7
:10017000016F018801A401C001DF01FB021A0236F0
:1001800002550274027B027B027B027B027B02949B
:10019000029402BC02DB02FD0322033E035A0382E7
:1001A00003A103B403CA03EC0408042D044C047433
:1001B000048D04B504D704F9051E053D05650599B0
:1001C00005BB05E006020602061B061B061B061BF6
:1001D000061B063406500669068506A106B406D03D
:1001E00006E906F00700071C0723074E0767078686
:1001F00007A207BE07D107EA07FD08160832085D07
:10020000087908950300000000000000000002FECD
:100210006700FE670012780000FE01000201000284
:100220000100020100FE4100787000001C00000780
:1002300000E000003800000E1E00827F00804000B9
:10024000804000804000807F00001E0006C01F002C
:10025000F8FF003CE0010700070300060100040668
:100260000100040300060700073CE001F8FF00C09E
:100270001F000400000300F00300700000100006DF
:10028000000300000300000300000300000300005F
:100290000300020070000070000AF00F00FC3F0035
:1002A0000C30000660000660000660000660000C6E
:1002B0003000FC3F00F00F000818600018600018C4
:1002C0006000FE7F00FE7F000060000060000060B4
:1002D00000090C7000067800066C000666000663D4
:1002E000008E6100FC6000786000006000090C3046
:1002F000000660000660008661008661008661007D
:10030000CE73007C3F00381E000A00070080070003
:10031000C00700F006003806001C0600FE7F00FE45
:100320007F0000060000060009003000FE6000FEAD
:100330006000C66000C66000C66000C63100863F2F
:1003400000060F000AE00F00F03F009C3000CC6078
:1003500000C66000C66000C66000C63100863F006F
:10036000000F0009060000064000067000067C0031
:10037000060F00C60300F600003E00000E00000A53
:10038000381E007C3F00CE7100C66000C66000864B
:1003900061008661004E73007C3F00381E000AF049
:1003A0000000FC61008C63000663000663000663C6
:1003B000000633000C3900FC1F00F00700027070CB
:1003C00000707000080C0000060000066700066759
:1003D00000860100CE0000FC00003800000D004047
:1003E00000007800003F00C00700F806003E06004D
:1003F0000606003E0600F80600C00700003F0000A9
:1004000078000040000AFE7F00FE7F0086610086C3
:100410006100866100866100C661007C73003C3F1C
:1004200000001E000BE00700F81F001C38000C3015
:1004300000066000066000066000066000066000BE
:100440000620000C30000CFE7F00FE7F00066000DE
:100450000660000660000660000660000E70000C7A
:100460003000381C00F80F00E0070009FE7F00FE96
:100470007F00C66000C66000C66000C66000C6603F
:1004800000C66000C6600009FE7F00FE7F00860196
:1004900000860100860100860100860100860100B9
:1004A0000600000DE00700F81F003C3C000C300087
:1004B0000E7000066000066000066300066300061A
:1004C00063000663000C3F000C3F000AFE7F00FE45
:1004D0007F00C00000C00000C00000C00000C000DD
:1004E00000C00000FE7F00FE7F0006066000066080
:1004F00000FE7F00FE7F00066000066000070060CF
:1005000000006000066000066000067000FE3F000C
:10051000FE1F000BFE7F00FE7F00800300C0010075
:10052000E00300700700381C001C38000E70000645
:10053000600002400009FE7F00FE7F0000600000B6
:10054000600000600000600000600000600000606B
:10055000000CFE7F00FE7F000E0000380000E0016E
:1005600000800700000700E001003800000E0000D6
:10057000FE7F00FE7F000AFE7F00FE7F000E00006F
:100580003C0000E00000800300001E00007800FE38
:100590007F00FE7F000DE00700F81F001C38000CF4
:1005A000300006600006600006600006600006601D
:1005B000000C30001C3800F81F00E0070008FE7F28
:1005C00000FE7F000603000603000603008E030002
:1005D000FC0100F800000DE00700F81F001C3800C7
:1005E0000C300006600006600006600006E00106B0
:1005F000E0030C30071C3806F81F06E007060BFE68
:100600007F00FE7F008601008601008601008607CC
:1006100000CE0E00FC1C007870000060000040005E
:100620000B783000FC7000CE6000866100866100AF
:100630008661008661008661000633000C3F000081
:100640001E000C0600000600000600000600000662
:100650000000FE7F00FE7F0006000006000006008E
:10066000000600000600000AFE0F00FE3F000070BA
:10067000000060000060000060000060000070008A
:10068000FE3F00FE0F000D0200001E0000FC0000F7
:10069000E00300801F00007C00006000007C008000
:1006A0001F00E00300FC00001E0000020000110615
:1006B00000007E0000F80700803F00007800007C0A
:1006C00000C00F007E00000600007E0000E0070072
:1006D000007E00007000807F00F807007E000006AA
:1006E00000000B0240000660001E7800381C00E08D
:1006F0000700800100E00700381E001E7800066039
:10070000000240000C0200000600001E00007800FD
:1007100000E00000C07F00C07F00E0000078000023
:100720001E00000600000200000B067000067800A4
:10073000067C00066E00066700C66300E660007671
:1007400060003E60001E60000E6000080300001F95
:100750000000FE0000F00700803F0000FC0100E008
:100760000300000308003C00307E00306700306367
:1007700000306300303300E07F00E07F0009FF7F3E
:1007800000FF7F00602000306000306000306000BB
:10079000707000E03F00C00F0008800F00E03F00D5
:1007A0006030003060003060003060003060006019
:1007B000300009801F00E03F0070700030600030A2
:1007C0006000306000303000FF7F00FF7F00098054
:1007D0000F00E03F0060330030630030630030639F
:1007E00000706300E06300C0330006300000FE7F4D
:1007F00000FF7F0033000033000003000009801F6A
:1008000000E03F067070063060063060063060061B
:10081000303007F0FF03F0FF0108FF7F00FF7F008B
:10082000600000300000300000300000F07F00E089
:100830007F0002F67F00F67F00050000063000060C
:10084000300006F6FF07F6FF0309FF7F00FF7F0079
:10085000000600000700800F00C0380070700030F4
:10086000600010400002FF7F00FF7F000EF07F005D
:10087000F07F00600000300000300000300000F029
:100880007F00E07F0060000030000030000030009A
:1008900000F07F00E07F0008F07F00F07F00600044
:1008A00000300000300000300000F07F00E07F00EA
:1008B0000A800F00E03F00603000306000306000D0
:1008C000306000306000603000E03F00800F0009C1
:1008D000F0FF07F0FF07606000306000306000301C
:1008E0006000707000E03F00C00F0009801F00E052
:1008F0003F007070003060003060003060003030C9
:1009000000F0FF07F0FF0706F07F00F07F006000B7
:100910000030000030000030000008C03100E0630B
:1009200000306300306300306600306600303E0007
:10093000601C0006300000FE3F00FE7F00306000BB
:1009400030600030600008F01F00F07F00006000A1
:10095000006000006000003000F07F00F07F0009C0
:10096000100000F00000E00700003E000060000002
:100970003E00E00700F000001000000E300000F024
:100980000300C03F00007800007C00800700F000FA
:1009900000F00000C00700003C00007000C03F00F5
:1009A000F0030030000009104000306000F07800D3
:1009B000C01D00000700C01D00F07800306000106E
:1009C000400009100000F00000E0070600BF07002B
:1009D000F001003F00E00700F000001000000830C8
:1009E0007000307800307C00306600306300F061C9
:1009F00000F060007060000102205B0B00BB00BED5
:100A000000C100C100C100C100D600D600D600DD83
:100A100000E400E400E400E900F000F300F300FE6D
:100A200001090114011F012C01370142014D015838
:100A3000016301660166016601660166016F016F6F
:100A4000017C0189019801A701B201BD01CC01D946
:100A500001E001E901F602010210021D022C023739
:100A6000024602530260026F027C0289029C02A9C4
:100A700002B802C502C502C502C502C502C502C54B
:100A800002D002DB02E602F102FC03050310031BA5
:100A9000031E03250330033303460351035C03673E
:100AA0000372037B0384038D039803A303B203BD86
:100AB00003C8010000017E010A0C00120012008C24
:100AC0000160001800C60020012001C00003F800EA
:100AD000060301040301040603F800020004800376
:100AE0000320002000200001800105FC000201021B
:100AF000010201FC000504010401FE0100010001E6
:100B00000584014201220112010C01058400020149
:100B100012011201EC00066000500048004400FE83
:100B2000014000059E00120112011201E20005F8C9
:100B300000140112011201E00005020082016200AE
:100B40001A00060005EC00120112011201EC00056A
:100B50001C0022012201A2007C0001980104020075
:100B6000620112000C0006C00178004600460078C1
:100B700000C00106FE011201120112011C01E00079
:100B800007780084000201020102010201840007CB
:100B9000FE0102010201020102018400780005FE4B
:100BA00001120112011201120105FE0112001200D0
:100BB00012000200077800840002010201220122D3
:100BC00001E40006FE011000100010001000FE01FC
:100BD000030201FE01020104000102010201FE0004
:100BE00006FE012000300048008400020105FE01DD
:100BF000000100010001000107FE0106001800606D
:100C00000018000600FE0106FE0106001800600044
:100C10008001FE01077800840002010201020184C4
:100C200000780005FE012200220022001C00077847
:100C30000084000201020102038404780406FE011C
:100C40002200220062009C000001068C00120112AA
:100C50000122012201C40007020002000200FE017D
:100C600002000200020006FE000001000100010077
:100C700001FE00060E0070008001800170000E0071
:100C8000090600780080017800060078008001786D
:100C9000000600068601480030003000480086014A
:100CA00007020004000800F001080004000200062A
:100CB00082014201220112010A01060105C0002839
:100CC0000128012801F00105FF01080108010801C0
:100CD000F00005F000080108010801900005F0008F
:100CE000080108010801FF0105F00028012801287A
:100CF00001B000040800FE010900090005F0000829
:100D00000508050805F80305FF01080008000800AC
:100D1000F00101F9010300040804F90305FF014093
:100D20000060009000080101FF0109F801080008B7
:100D3000000800F001080008000800F00105F801B3
:100D4000080008000800F00105F00008010801088B
:100D500001F00005F807080108010801F00005F09E
:100D600000080108010801F80704F8011000080054
:100D7000080004300128014801C800040800FE00F2
:100D80000801080105F800000100010001F8010553
:100D90001800600080016000180007780080016082
:100DA00000180060008001780005080190006000D4
:100DB000900008010508007004800370000800041A
:100DC0008801480128011801AF40A0A6A4A2EEC8DE
:100DD0002F24AC00F80007060504030201001B15D0
:100DE0000E1009100410FF0FFA0F13101310131038
:100DF00074176C17721770176E17671762175D17E5
:100E000058176F118F118A118411B6147E17761737
:100E1000EA1507160216FC15F815F4151310D5116E
:100E2000CC11DD11C511C01123101E1019101410A2
:100E300033102D1027105C105410091201121A14CF
:100E4000151412140814FE13131013104F10F4117C
:100E5000EF11E6114511EF153911A514A1149B14DA
:100E60009214131013101B15181574107B106A10B0
:100E7000131013109C1195114D173B1728171617B7
:100E80000017F116DD16C916BB16AC169D168E1688
:100E90007F167016611652163E1625160C16131084
:100EA000131023101E101910451014104A10AC1105
:100EB000DD11D511CC11C511C011BB11B611B11185
:100EC000AC11A5119F1189148214781162104F1072
:100ED0000111F5101310B210A910A0109C1093105E
:100EE0008B1013101310131083177C111A110C118F
:100EF0000711ED10E210131084107B101310131063
:100F000013100216FC15F8150F150515FA14EB143D
:100F1000DD14CE14C114B614AA1475146B14631422
:100F200056141D144C14421438142C143810131079
:100F30001310D615CE15C015B315A5159A15911514
:100F4000881579156B155C15501549154215351521
:100F500029151F15DE1513101310F613EB13DA13F2
:100F6000CD13C213B213A21393138313731363131A
:100F7000531343133313251317130813F912EC12E9
:100F8000DF12D312C712BB12AE12A4129A128D1224
:100F9000821275126A125D12821250126A121310B6
:100FA000131009120112FB111310DD10D810D31009
:100FB000CE10C910C410BF10BA10DD11D511CC115C
:100FC000C511C011BB11B611B11147123D12351236
:100FD0002D1224121B121112AC1109120112FB1155
:100FE000131013103011271165115F1153119F1742
:100FF00099170F1590178E178C17332E395600330B
:101000002E385600332E375600332E365600332EE8
:10101000355600003434487A003231487A00313095
:10102000487A0035487A00323630487A0031383410
:10103000487A003934487A004D50553630353020E2
:101040004C50463A003332487A003734487A0048E8
:101050006967680041726D61626C650041726D651F
:10106000640053796E632052430052657653636186
:101070006C6564005363616C6564005265766572EB
:10108000736564004E6F726D616C005069746368C3
:101090005570005369646577617973004166740027
:1010A000496E766572746564005665727469636131
:1010B0006C00466F7277617264004F555438004F70
:1010C000555437004F555436004F555435004F5541
:1010D0005434004F555433004F555432004F55543B
:1010E00031002844697361726D656429002841727A
:1010F0006D65642900666F72207374617475732E58
:1011000000507265737300446F6E6500486F6C64C5
:101110002061732073686F776E004E6F20525820E5
:101120007369676E616C0073657474696E677300D0
:101130005570646174696E670043616C2E2066614E
:10114000696C6564004553432043616C6962726158
:10115000746500486F6C6420737465616479005233
:1011600065736574004F70656E4165726F3200443F
:10117000697361726D6564004C6F770042617474CD
:10118000657279004D6F64656C004C6F7374004537
:1011900072726F72005369676E616C004E6F00452A
:1011A0006C65762E005468726F742E004E6F6E65FB
:1011B00000415558330041555832004155583100CF
:1011C000476561720052756464657200456C6576AE
:1011D00061746F720041696C65726F6E0054687261
:1011E0006F74746C65005371727453696E6500534B
:1011F000696E65004C696E656172004D6F746F7247
:1012000000442E536572766F00412E536572766FDF
:1012100000414C2050697463683A00414C20526F81
:101220006C6C3A00416363506974636800416363A6
:10123000526F6C6C004779726F5961770047797211
:101240006F5069746368004779726F526F6C6C00FD
:10125000503220536F7572636520423A005031203E
:10126000536F7572636520423A00503220566F6C9E
:10127000756D653A00503220536F75726365204179
:101280003A00503120566F6C756D653A0050312030
:10129000536F7572636520413A005032205A2061C5
:1012A00063633A005031205A206163633A00503240
:1012B00020506974636820414C3A005031205069D5
:1012C00074636820414C00503220526F6C6C204196
:1012D0004C3A00503120526F6C6C20414C3A005017
:1012E0003220596177206779726F3A005031205966
:1012F0006177206779726F3A0050322050697463C9
:1013000068206779726F3A005031205069746368C1
:10131000206779726F3A00503220526F6C6C2067F0
:1013200079726F3A00503120526F6C6C206779727D
:101330006F3A005032205275642E20766F6C756DB6
:10134000653A005031205275642E20766F6C756DB1
:10135000653A00503220456C652E20766F6C756DB5
:10136000653A00503120456C652E20766F6C756DA6
:10137000653A0050322041696C2E20766F6C756D95
:10138000653A0050312041696C2E20766F6C756D86
:10139000653A005468726F74746C65206375727678
:1013A00065005032205468722E20766F6C756D6522
:1013B0003A005031205468722E20766F6C756D653E
:1013C0003A005032204F66667365743A0050312EF1
:1013D0006E204F66667365743A0050312E6E20257C
:1013E000206F66207472616E733A005031204F6630
:1013F000667365743A004465766963653A005031F6
:101400002E6E202D205032005031202D2050312EB4
:101410006E0050320050312E6E005031004D696E1A
:101420002E2063656C6C202856293A00414C2063BD
:101430006F72726563743A004779726F204C504640
:101440003A004163632E204C50463A0050574D20DD
:10145000726174653A0044697361726D2074696DDC
:10146000653A005361666574793A00436F6E747231
:101470006173743A004F7269656E746174696F6E5E
:101480003A00467574616261004A522C53706B7465
:101490006D005370656B7472756D00532D427573DA
:1014A0000050574D004350504D005472616E732EE2
:1014B0002050316E3A005472616E736974696F6EB8
:1014C0000052756464657220706F6C2E3A00456C32
:1014D000657661746F7220706F6C2E3A0041696C92
:1014E00065726F6E20706F6C2E3A0050726F666975
:1014F0006C65204368616E2E3A0043682E206F723F
:101500006465723A0050574D2073796E633A005209
:101510005820747970653A004F4E004F4646005986
:101520006177207472696D3A0059617720492072A1
:101530006174653A005961772049204C696D69747E
:101540003A0059617720493A0059617720503A00B2
:101550005069746368207472696D3A0050697463ED
:1015600068204175746F4C766C3A005069746368FA
:10157000204920726174653A00506974636820499B
:10158000204C696D69743A00506974636820493A67
:1015900000506974636820503A00526F6C6C20747C
:1015A00072696D3A00526F6C6C204175746F4C76A5
:1015B0006C3A00526F6C6C204920726174653A007D
:1015C000526F6C6C2049204C696D69743A00526FFF
:1015D0006C6C20493A00526F6C6C20503A004163A9
:1015E00063205665727420503A00496E762E00438F
:1015F000616C2E0041636300596177005069746328
:101600006800526F6C6C004779726F0031392E2080
:10161000506F732E20536572766F207472766C2E25
:10162000202825290031382E204E65672E2053654D
:1016300072766F207472766C2E202825290031373F
:101640002E20536572766F20646972656374696FCA
:101650006E0031362E204F555438204D6978657212
:101660000031352E204F555437204D697865720072
:1016700031342E204F555436204D69786572003133
:10168000332E204F555435204D6978657200313224
:101690002E204F555434204D697865720031312E1B
:1016A000204F555433204D697865720031302E201B
:1016B0004F555432204D6978657200392E204F55B0
:1016C0005431204D6978657200382E20466C696768
:1016D00068742070726F66696C65203200372E2046
:1016E000466C696768742070726F66696C6520313A
:1016F00000362E204C6576656C206D657465720031
:10170000352E2053656E736F722063616C6962724F
:101710006174696F6E00342E20537469636B20709E
:101720006F6C617269747900332E2052656365694C
:1017300076657220696E7075747300322E20526562
:1017400063656976657220736574757000312E204B
:1017500047656E6572616C0053617665004465662D
:101760002E004261636B004D656E750045004400BC
:101770004300420041004A69747465723A00506F38
:10178000733A00426174746572793A0030002E0039
:1017900050726F66696C653A004D6F64653A005629
:1017A000657273696F6E3A20312E31204233000129
:1017B000010101010101FFFFFFFF0101FF01FF0125
:1017C0000100010201020000010200010201000209
:1017D000020100170C0604030201030F1B27007F00
:1017E00001003C007F010028007D01000A00040187
:1017F0000002007F010005817F010000007F0100E1
:101800003C007F010028007D01000A000401000265
:10181000007F010005817F010000007F0100500072
:101820007F010000007D0100000004010001817FB4
:10183000010000007F010000000000000000000027
:101840000000000000000000000000020101008311
:101850007D0100000163010032837D010000837D72
:10186000010000007D010064007D010064000201B0
:101870000100837D010000837D010000837D010064
:1018800000837D010000837D010000837D01000055
:10189000000201010000020101000002010100003C
:1018A000020101000002010100000201010000022A
:1018B000010100000201010000020101000002011B
:1018C000010000020101000002010100000F0101FE
:1018D0000F837D010000000F01010F837D010000D7
:1018E000000F01010F837D010000000F01010F8334
:1018F0007D010000E2000000000000380000000050
:101900000000444444444444444444444444EE00B9
:10191000EE00EE00EE000001010100830001009CDA
:10192000007D0100648D8D8D8D8D8D8D8D0000006D
:1019300000000000000000000000000000000301A3
:10194000010100040101040001010100000801017E
:10195000040001010100000101010000010101007A
:1019600000280100000163010032000000000000B7
:10197000050101001C320100240001010101007F6A
:1019800001001E0005010100000201010000060126
:1019900001020006010106010A010007000601011B
:1019A000023E6974698D8D8D0000007C002C000062
:1019B0007662620025000D1216191C1F21232628AD
:1019C000292B2D2F303233353638393A3B3D3E3FC7
:1019D000404142434445464748494A4B4C4D4D4E91
:1019E0004F505151525353545555565757585859B3
:1019F000595A5A5B5B5C5C5D5D5E5E5E5F5F5F601B
:101A000060606161616262626262636363636363B7
:101A100063646464646464646464000203050608C7
:101A20000A0B0D0E101113141617191A1C1D1F2066
:101A30002223252628292B2C2D2F303233343637DC
:101A4000383A3B3C3D3F4041424344464748494A7F
:101A50004B4C4D4E4F505152535454555657585865
:101A6000595A5A5B5C5C5D5E5E5F5F60606061619D
:101A70006262626363636363646464646464640095
:101A800011241FBECFEFD0E1DEBFCDBF14BE88E171
:101A90000FB6F89480936000109260000FBE15E0BE
:101AA000A0E0B1E0E6E2F0E902C005900D92AE30B0
:101AB000B107D9F728E0AEE0B5E001C01D92AF3420
:101AC000B207E1F70E94A7190C9411480C9400008A
:101AD00000000895FDDFFCDFFBDFFADF0895CF9300
:101AE000AF93A5E05898C6E70E947F0D589ACAE7C1
:101AF0000E947F0DAA95B1F7AF91CF91089500C0D4
:101B000000C000C000C000C000C000C000C0000095
:101B1000CA95A9F70895F62EEF93FF93AF93BF935D
:101B2000CF93DF930F931F932F933F934F935F9325
:101B30006F937F93E82FF92F8F939F93A191B1918A
:101B4000AB54B340AF93BF93A7707A2FA191B191DB
:101B5000A65EB240AF93BF93A7706A2FA191B191D7
:101B6000A258B240AF93BF93A7705A2FA191B191E1
:101B7000AE51B240AF93BF93A7704A2FA191B191DC
:101B8000AA5BB140AF93BF93A7703A2FA191B191D7
:101B9000A555B140AF93BF93A7702A2FA191B191E2
:101BA000A15FB040AF93BF93A7701A2FA191B191DD
:101BB000AD58B040AF93BF93A7700A2F972F0E94E4
:101BC000150FF0FC469A0E94210F0E94F40E0E940D
:101BD000F40E962F0E94150FF1FC449A0E94210FDB
:101BE0000E94F40E0E94F40E952F0E94150FF2FC35
:101BF000429A0E94210F0E94F40E0E94F40E942F2C
:101C00000E94150FF3FC439A0E94210F0E94F40ECC
:101C10000E94F40E932F0E94150FF4FC149A0E9458
:101C2000210F0E94F40E0E94F40E922F0E94150FB5
:101C3000F5FC159A0E94210F0E94F40E0E94F40EEA
:101C4000912F0E94150FF6FC459A0E94210F0E94C9
:101C5000F40E0E94F40E902F0E94150FF7FC479A85
:101C60000E94210F0E94F40E0E94F40E0E94F40EB6
:101C7000BF91AF910E940E0F0A2FBF91AF910E94AA
:101C80000E0F1A2FBF91AF910E940E0F2A2FBF91F6
:101C9000AF910E940E0F3A2FBF91AF910E940E0F8D
:101CA0004A2FBF91AF910E940E0F5A2FBF91AF9153
:101CB0000E940E0F6A2FBF91AF910E940E0F7A2FD4
:101CC000C3E1D1E00024715019F446980C946A0ED7
:101CD00000C000C0615019F444980C94710E00C00B
:101CE00000C0515019F442980C94780E00C000C006
:101CF000415019F443980C947F0E00C000C031503D
:101D000019F414980C94860E00C000C0215019F4E8
:101D100015980C948D0E00C000C0115019F4459810
:101D20000C94940E00C000C0015019F447980C9414
:101D30009B0E00C000C00E94FD0EC150D00911F0E2
:101D40000C94630E9F918F917F916F915F914F9152
:101D50003F912F911F910F91DF91CF91BF91AF9143
:101D6000FF91EF9108950F931F932F930CEF18E0BD
:101D70000024803071F0813079F0823081F083303E
:101D800089F0843091F0853099F08630A1F0873069
:101D9000A9F0469A0C94E10E449A0C94E10E429AF2
:101DA0000C94E10E439A0C94E10E149A0C94E10EFB
:101DB000159A0C94E10E459A0C94E10E479A0C94F6
:101DC000E10E00C000C000C000C000C000C06150F3
:101DD000700919F420E028B922B90150100989F7D7
:101DE0002F911F910F9108950F9305E600C000C039
:101DF00000C00150D9F70F9108950F9309E000C07A
:101E000000C000C00150D9F7000000C000C00F9111
:101E1000089500C000C000C000C00895B695A79501
:101E2000B695A795B695A7950895C7E09770C92769
:101E300031F00E94090FCA9509F0FBCF00C00000E5
:101E40000895C92FC77031F00E94090FCA9509F093
:101E5000FBCF00C00895CF93DF93CDB7DEB72C97AB
:101E60000FB6F894DEBF0FBECDBF26E0AE014F5FC8
:101E70005F4F6BE380ED0E94B423898190E0982F3F
:101E800088272A81820F911D36E0959587953A958E
:101E9000E1F798878F838B8190E0982F88272C819A
:101EA000820F911D56E0959587955A95E1F791958A
:101EB000819591099A8789878D8190E0982F88274D
:101EC0002E81820F911D76E0959587957A95E1F7A1
:101ED0009C878B8720913B06AEE3B5E043E024026C
:101EE0009001112480E090E02C543F4FF901E80F5D
:101EF000F91FE491EE0FFF0B41E050E04C0F5D1F26
:101F0000E40FF51F468157814D935D930196833011
:101F1000910561F72C960FB6F894DEBF0FBECDBFCA
:101F2000DF91CF9108951F93CF93DF930E942B0FE2
:101F30008091BA0780FD05C01092A2071092A107F8
:101F40000EC08091A3079091A4072091A70730911C
:101F5000A807821B930B9093A2078093A10720915F
:101F60003B06CDE9D7E0AEE3B5E083E0280290017F
:101F7000112480E090E02E553F4F69917991F9014D
:101F8000E80FF91F14914D915C911197461B570B67
:101F90001403B001159F700D11246D937D9301966C
:101FA0008330910551F76091A3077091A407809148
:101FB000A1079091A207681B790B882777FD809570
:101FC000982F0E94DB452091A3053091A4054091F4
:101FD000A5055091A6050E94D8440E94A84570937B
:101FE0000F0560930E05DF91CF911F9108951F9308
:101FF000CF93DF9300D000D000D0CDB7DEB71A82E8
:1020000019821C821B821E821D8281116FC010E208
:102010000E942B0F89819A8120913E0530913F05C6
:10202000820F931F9A8389838B819C812091400525
:1020300030914105820F931F9C838B838D819E81FC
:102040002091420530914305820F931F9E838D831B
:102050008FE493EC0197F1F700C000001150C1F636
:10206000FE0131969E01295F3F4F8081918140960C
:1020700045E0959587954A95E1F781939193E2170D
:10208000F30799F789819A8190939E0780939D0722
:102090008B819C819093A00780939F0780913B0642
:1020A000992787FD9095FC01EE0FFF1FE80FF91FA0
:1020B000EC55FF4F44912D813E814203C001439F67
:1020C000900D11249093A4078093A3078091BA07E1
:1020D00082608093BA070E949C162B9A9FE724E89F
:1020E0004EE1915020404040E1F767C08091BA072F
:1020F00081FF66C01092A6071092A50710E20E9409
:102100002B0F8091A5079091A60720914205309151
:102110004305820F931F9093A6078093A5078FE432
:1021200093EC0197F1F700C00000115041F7809146
:102130003B06992787FD9095FC01EE0FFF1FE80FE6
:10214000F91FEC55FF4F44912091A5073091A60748
:10215000205F3F4FB5E035952795BA95E1F74203EB
:10216000C001439F900D11249093A6078093A5076B
:1021700097FF26C02091A3073091A407A901481B0F
:10218000590BCA01959587959093A8078093A70747
:10219000281B390B3093A2072093A1078091BA071F
:1021A00081608093BA070E949C162B9A5FE784E8AF
:1021B0009EE1515080409040E1F700C000002B9814
:1021C00026960FB6F894DEBF0FBECDBFDF91CF913C
:1021D0001F91089541E06BE680ED0E949D2348E049
:1021E0006CE180ED0C949D238FEF80937E00109224
:1021F0007B00089580937C0086EC80937A00809128
:102200007A0086FDFCCF0895CF92DF92EF920F9374
:10221000CF93DF931F9B85C00E94930F60E070E017
:10222000CB010E94612620E030E040E052E4609162
:102230009F057091A0058091A1059091A2050E9433
:10224000D8440E94A845EB0120E030E040E852E489
:1022500060919B0570919C0580919D0590919E05D4
:102260000E94D8440E94A8456B01D7FD06C0C13426
:10227000D1052CF0C0E4D0E002C0C0E0D0E0D7FC33
:1022800008C021E8C216D10434F080E8C82ED12C51
:1022900002C0C12CD12C27E330E042E050E06FEDCA
:1022A00070E08CE090E00E943F21EE24E39400E493
:1022B00020E840E060E081E091E00E945C2005E1E0
:1022C00025E146E166E381E091E00E945C2008E3BD
:1022D00020E448E060E481E091E00E94BE1F00E25B
:1022E00020E640E260E281E091E00E94BE1F01E052
:1022F00028E04C2F6C2D81E091E00E94AE2081E01F
:1023000091E00E942C1F81E091E00E945E1F8FE708
:1023100098E321E0815090402040E1F700C00000A8
:1023200079CFDF91CF910F91EF90DF90CF9008950B
:102330000E947C2D1F9BFAC01C9B0E9483420E941E
:10234000EE4120E030E040E050E067EF79E082E7E6
:1023500090E00E943F212AE030E040E050E067EF4B
:1023600079E080E290E00E943F2124E130E040E00B
:1023700050E067EF79E083E790E00E943F212EE193
:1023800030E040E050E067EF79E083E290E00E94C7
:102390003F2120E030E046E450E067EF79E08DE651
:1023A00090E00E943F212AE030E046E450E067EFF1
:1023B00079E08EE690E00E943F2124E130E046E49F
:1023C00050E067EF79E08FE690E00E943F212EE138
:1023D00030E046E450E067EF79E080E790E00E946B
:1023E0003F2180912B0890912C084AE061E675E02E
:1023F0000E94AD4720E030E045E250E067EF79E031
:102400000E94513D80912F08909130084AE061E68A
:1024100075E00E94AD472AE030E045E250E067EF0A
:1024200079E00E94513D80913108909132084AE054
:1024300061E675E00E94AD4724E130E045E250E0FE
:1024400067EF79E00E94513D809133089091340804
:102450004AE061E675E00E94AD472EE130E045E2DA
:1024600050E067EF79E00E94513D809135089091EE
:1024700036084AE061E675E00E94AD4720E030E0B2
:1024800044E650E067EF79E00E94513D80913708C3
:10249000909138084AE061E675E00E94AD472AE075
:1024A00030E044E650E067EF79E00E94513D8091D2
:1024B000390890913A084AE061E675E00E94AD471C
:1024C00024E130E044E650E067EF79E00E94513DBE
:1024D00080913B0890913C084AE061E675E00E94DB
:1024E000AD472EE130E044E650E067EF79E00E942E
:1024F000513D29E330E040E050E06FED70E08CE0CA
:1025000090E00E943F2127E330E04EE650E067EF85
:1025100079E08CE390E00E943F2181E091E00E940D
:102520002C1F81E091E00E945E1F04CF08951F9B45
:10253000EDC01C991AC01C990AC02FE38DE093E0EE
:10254000215080409040E1F700C00000F4CF2FE31D
:1025500082E49FE0215080409040E1F700C00000FD
:102560000E94522280E00E94F70F1D990CC02FE3B9
:1025700082E49FE0215080409040E1F700C00000DD
:1025800081E00E94F70F0E9425220E94930F20E015
:1025900030E045E250E067EF79E08AE190E00E94A8
:1025A0003F2120E030E04DE450E067EF79E08EE13C
:1025B00090E00E943F212DE030E045E050E067EFE1
:1025C00079E08BE190E00E943F2127E130E045E097
:1025D00050E067EF79E08CE190E00E943F2121E23A
:1025E00030E045E050E067EF79E08DE190E00E9457
:1025F0003F214AE061E675E0809171059091720596
:102600000E94AD472DE030E048E250E067EF79E00E
:102610000E94513D4AE061E675E08091730590911A
:1026200074050E94AD4727E130E048E250E067EFD3
:1026300079E00E94513D4AE061E675E080917505C0
:10264000909176050E94AD4721E230E048E250E0EB
:1026500067EF79E00E94513D4AE061E675E08091C4
:102660003E0590913F050E94AD472DE030E040E5EA
:1026700050E067EF79E00E94513D4AE061E675E085
:1026800080914005909141050E94AD4727E130E0DF
:1026900040E550E067EF79E00E94513D4AE061E695
:1026A00075E080914205909143050E94AD4721E27B
:1026B00030E040E550E067EF79E00E94513D29E3CA
:1026C00030E040E050E06FED70E08CE090E00E9480
:1026D0003F2127E330E04CE650E067EF79E08CE300
:1026E00090E00E943F2127E330E04BE450E067EFA9
:1026F00079E089E190E00E943F2181E091E00E9431
:102700002C1F81E091E00E945E1F11CF0895BF92BF
:10271000CF92DF92EF92FF920F931F93CF93DF93AD
:1027200000D000D0CDB7DEB781E091E00E945E1FFF
:1027300020E030E040E050E067EF79E088E091E0B1
:102740000E943F2120E130E040E050E067EF79E077
:102750008AE091E00E943F212BE130E040E050E030
:1027600067EF79E08BE091E00E943F212BE130E0C0
:1027700048E550E067EF79E087E190E00E943F2173
:1027800026E230E040E050E067EF79E085E890E055
:102790000E943F212BE330E040E050E06FED70E01D
:1027A00089E090E00E943F2127E330E04AE050E0DA
:1027B00067EF79E08EE090E00E943F214091DC05D8
:1027C000552747FD5095425C5F4F00E12DE261E0E7
:1027D00080E090E00E943A2E4AE061E675E0809148
:1027E0002105909122050E94AD472BE130E04EE695
:1027F00050E067EF79E00E94513D8091DC05813027
:10280000D9F426E230E04DE450E067EF79E088E16A
:1028100090E00E943F2180911C0590911D054AE0A7
:1028200061E675E00E94AD4726E230E04EE650E0FA
:1028300067EF79E00E94513D80912105909122053A
:10284000181619064CF02BE130E04DE250E067EF2E
:1028500079E080E390E031C0843691054CF02BE1C3
:1028600030E04DE250E067EF79E082E390E025C090
:102870002091E405332727FD30958217930749F40B
:102880002BE130E04DE250E067EF79E081E390E04A
:1028900014C0821793074CF42BE130E04DE250E076
:1028A00067EF79E083E390E008C02BE130E04DE290
:1028B00050E067EF79E084E390E00E943F210E94BE
:1028C000B8446C0164E670E00E94F2468B014AE075
:1028D00061E675E0C8010E94AD47AE014F5F5F4FF2
:1028E00067EF79E00E94023C4AE061E675E0C801CA
:1028F0000E94AD4726E230E04DE250E067EF79E01C
:102900000E94513D2CE920037001219FF00C1124FD
:10291000EC0CFD1C0981112707FD1095035D1F4F6D
:1029200026E230E0A80167EF79E08CE091E00E94B8
:102930003F21AE014F5F5F4F67EF79E089E095E09F
:102940000E94023CC980AE014F5F5F4F67EF79E0A4
:102950008BE095E00E94023CB980DD24C7FCD09456
:102960008AE0E816F10440F04AE061E675E0C7014C
:102970000E94AD47A80116C0A8014C0D5D1D26E2BE
:1029800030E067EF79E08DE091E00E943F214AE07E
:1029900061E675E0C7010E94AD47A8014B0D511DCE
:1029A000B7FC5A954C0D5D1D26E230E067EF79E0EB
:1029B0000E94513D80912005882309F465C0E12CD7
:1029C00000E320E648E06EE081E091E00E942820EC
:1029D000EE24E39420E648E06EE081E091E00E947E
:1029E0005C208091200583FF13C02EE030E041E29F
:1029F00050E069E471E086E890E00E943F2122E225
:102A000030E04EE250E069E471E086E790E03AC0E1
:102A10008091200581FF13C02DE030E043E350E0BA
:102A200069E471E08BE490E00E943F2121E230E014
:102A300047E250E069E471E08CE490E023C08091CB
:102A4000200580FF13C02EE030E04CE150E069E447
:102A500071E089E690E00E943F2122E230E04EE200
:102A600050E069E471E087E390E00CC080912005BC
:102A700082FF0AC028E130E049E150E069E471E0FA
:102A800082E190E00E943F2181E091E00E942C1FB2
:102A900081E091E00E945E1F0F900F900F900F90C9
:102AA000DF91CF911F910F91FF90EF90DF90CF902A
:102AB000BF900895AF92BF92CF92DF92EF92FF92B4
:102AC0000F931F93CF93DF93D090E005F090E10533
:102AD000A090E2051092E0051092E1051092E20547
:102AE000D0E0C0E01F9BB6C0C111B6C081E091E04C
:102AF0000E945E1F92E0C92E10E061E1610FEE249A
:102B0000E39408E228E240E081E091E00E945C204A
:102B100086E2B82EB10E20E3210F03E044E16B2DD5
:102B200081E091E00E94BE1F28E3210F69E2610F5E
:102B300006E045E181E091E00E94BE1F01E022E055
:102B400045E16B2D81E091E00E94AE2063E3610FCF
:102B500024E045E081E091E00E94AE20CA9411F0AB
:102B600014E3CBCF29E330E040E050E06FED70E0BC
:102B70008CE090E00E943F210E94EE4180912F085E
:102B8000909130088033984F3CF080912F089091BD
:102B90003008813D97406CF0D1110BC02BE230E042
:102BA00040E150E069E471E087E890E00E943F2155
:102BB0004CC080912F0890913008843F91409CF444
:102BC00080912F08909130088D309E4F64F02BE259
:102BD00030E049E050E069E471E088E890E00E946C
:102BE0003F21D1E032C080912F089091300897FFAB
:102BF00003C081E08093E005809131089091320814
:102C000097FF03C081E08093E105809133089091A4
:102C1000340897FF03C081E08093E20580912F087C
:102C2000909130081816190684F48091310890911B
:102C30003208181619064CF4809133089091340824
:102C4000C1E0181619060CF0C0E081E091E00E9486
:102C50002C1F48CFCC2339F12BE230E048E250E082
:102C600069E471E089E890E00E943F2181E091E011
:102C70000E942C1F81E091E00E945E1F8FE794E884
:102C80002EE1815090402040E1F700C00000DF912C
:102C9000CF911F910F91FF90EF90DF90CF90BF9059
:102CA000AF900C949C16D092E005F092E105A092B2
:102CB000E205DF91CF911F910F91FF90EF90DF9090
:102CC000CF90BF90AF9008950F931F93CF93DF9352
:102CD0001F92CDB7DEB78C0169830E94E2476981FC
:102CE000861741F0C8010F90DF91CF911F910F918E
:102CF0000C94EA470F90DF91CF911F910F910895A7
:102D0000EF92FF920F931F93CF93DF93EC018B0110
:102D10007A01E80EF91ECE15DF0539F06991C80178
:102D20000E9464160F5F1F4FF6CFDF91CF911F9166
:102D30000F91FF90EF900895F89448E052E060E022
:102D400070E083EB95E00E948016789408952F92AE
:102D50003F924F925F926F927F928F929F92AF922B
:102D6000BF92CF92DF92EF92FF920F931F93CF9378
:102D7000DF93CDB7DEB7C554D1400FB6F894DEBFB0
:102D80000FBECDBF40912C07CF5BDE4F4883C154AF
:102D9000D1404AE450E06DE277E085E797E00E9499
:102DA0009B4725E436E0AE014F5C5E4FCE010196B5
:102DB0006DE1F901DC01762F01900D927A95E1F732
:102DC0008696235E3F4F8417950799F74E0183E15E
:102DD000880E911C5E0194E1A90EB11C6E01E5E123
:102DE000CE0ED11CCE014696CF5CDE4F99838883F0
:102DF000C153D1408E01025E1F4FFE017D96C75C1C
:102E0000DE4FF983E883C953D1400696CD5CDE4F8F
:102E100099838883C353D1403297C35CDE4FF983D3
:102E2000E883CD53D1400297C95CDE4F99838883F4
:102E3000C753D1403297C55CDE4FF983E883CB534B
:102E4000D1400297CB5CDE4F99838883C553D14034
:102E50007E0197E1E90EF11C3E01E5E06E0E711C6A
:102E600081E090E08C0F9D1F835B9E4FCE5BDE4F19
:102E700099838883C254D140FE013196C15CDE4FF4
:102E8000F983E883CF53D14082E0582E4424439401
:102E900049E150E0B301C80148970E949B47F40103
:102EA0003080F5012081F6013081CF5CDE4FE88172
:102EB000F981C153D1402080F30136FE02C0508217
:102EC00001C0108248E050E0B701C8010196CC5B18
:102ED000DE4F2883C454D140CB5BDE4F3883C554CA
:102EE000D1400E949B4780E090E0CB5BDE4F388171
:102EF000C554D140CC5BDE4F2881C454D140C15C65
:102F0000DE4FE881F981CF53D140E80FF91F468D9C
:102F10004D3011F44FE0468F02968830910579F7D5
:102F2000F40130FE06C030FF02C0508203C0408270
:102F300001C01082F50120FF06C020FE02C05082B1
:102F400003C0408201C01082F60131FE06C031FF8D
:102F500002C0508203C0408201C01082CF5CDE4FAD
:102F6000E881F981C153D14021FF06C021FE02C092
:102F7000508203C0408201C01082F70132FE06C0B9
:102F800032FF02C0508203C0408201C01082CB5C7D
:102F9000DE4FE881F981C553D14022FF06C022FEF1
:102FA00002C0508203C0408201C01082C55CDE4F67
:102FB000E881F981CB53D14033FE06C033FF02C014
:102FC000508203C0408201C01082C95CDE4FE8819C
:102FD000F981C753D14023FF06C023FE02C05082AF
:102FE00003C0408201C01082C35CDE4FE881F981DA
:102FF000CD53D14034FE06C034FF02C0508203C01E
:10300000408201C01082CD5CDE4FE881F981C3535C
:10301000D14024FF06C024FE02C0508203C040827B
:1030200001C01082C75CDE4FE881F981C953D140ED
:1030300035FE06C035FF02C0508203C0408201C089
:103040001082F80125FF06C025FE02C0508203C091
:10305000408201C01082C15CDE4F88819981CF53CC
:10306000D1408696C15CDE4F99838883CF53D1408F
:1030700096E2890E911CE6E2AE0EB11CF6E2CF0E8E
:10308000D11CCF5CDE4F88819981C153D140869697
:10309000CF5CDE4F99838883C153D1400A5D1F4FB7
:1030A000C75CDE4FE881F981C953D140B696C75C51
:1030B000DE4FF983E883C953D140CD5CDE4F888170
:1030C0009981C353D1408696CD5CDE4F9983888326
:1030D000C353D140C35CDE4FE881F981CD53D14069
:1030E000B696C35CDE4FF983E883CD53D140C95C0B
:1030F000DE4F88819981C753D1408696C95CDE4FE7
:1031000099838883C753D140C55CDE4FE881F9813C
:10311000CB53D140B696C55CDE4FF983E883CB53E1
:10312000D140CB5CDE4F88819981C553D1408696D2
:10313000CB5CDE4F99838883C553D14096E2E90E7C
:10314000F11CE6E26E0E711CCE5BDE4F8881998128
:10315000C254D1400817190709F09ACE8FE291E0C6
:10316000FE013196A5E4B6E001900D920197E1F7DA
:10317000CF5BDE4F9881C154D1409093740786E3B2
:103180008093B305CB5BDE4F0FB6F894DEBF0FBE66
:10319000CDBFDF91CF911F910F91FF90EF90DF9006
:1031A000CF90BF90AF909F908F907F906F905F90E7
:1031B0004F903F902F900895CF93DF9388E092E057
:1031C000E3EBF5E0DF019C011D9221503040E1F777
:1031D00086E38093B30581E08093DC0584E08093EF
:1031E000DD0592E09093410696E09093420697E0C9
:1031F000909343068093DF058EE180933E0682E341
:103200008093E405EEECF0E0C4EBD5E0ADE8B7E088
:1032100086EA9EE0249129938D939D93319630E028
:10322000E63DF307B9F78EEB9AE090938E07809313
:103230008D07E9E6F6E0CDE7D7E065E877E052E311
:103240002FE04CE934E6CF014E97DC015C934896C1
:10325000DC012C930496DC012C930297DC012C9367
:103260002083499384E6DB013D93BD01B696B7E028
:10327000E939FB0741F780934E06809377068093E8
:103280009F068093C7062CE32093E50595E0909375
:10329000E9052093EB059093EF0590E59093F105F8
:1032A00028E22093E6059AE09093E7052093EC0549
:1032B0009093ED0592E09093E8059093EE0521E060
:1032C0002093F4059093FA05909300062093060648
:1032D00080934F06809378068093A0068093C8065B
:1032E00020937E062093A6062093CE069093440654
:1032F00080E890E09093A4078093A30784E28093F2
:103300003C06DF91CF910895CF93DF931F92CDB705
:10331000DEB748E052E060E070E083EB95E00E94A9
:10332000D2478091B305853329F0863339F00E9466
:10333000DC1804C00E94A71681E001C080E08983E8
:103340000E949C1689810F90DF91CF910895CF93B1
:10335000DF93CDB7DEB7A2970FB6F894DEBF0FBEEE
:10336000CDBF0E9479281F8E1E8E03E016E01F82BB
:103370001B821E821D821D8E1C8E1B8E1A8E198E24
:10338000188E1F8A1E8A1D861C86412C512C212CCA
:10339000312C1B861A86612C712C1C8A1B8A19867B
:1033A00018861AA219A2C12CD12C7601812C912C3D
:1033B00054011A8A198A1C82188A1A8219828091E9
:1033C00018058F5F809318058091E707882331F0F7
:1033D0002D813E812F5F3F4F3E832D831430D9F1E5
:1033E00088F4112311F1133009F055C00E9487139E
:1033F0001092CC070E947C2D15E01986188631E0CA
:103400003A8349C01630E1F110F1173009F043C09A
:103410002998809120058460809320050E947C3249
:103420000E9430281092CC0732C083B1807F803F49
:1034300049F081E00E94153080916E008160809398
:103440006E0025C010926E0081E085BB24C01F9BDA
:1034500022C014E020C04F814330E0F41F9907C020
:1034600081E00E9415301092CC0717E014C08885C7
:1034700099858331934178F00E94692D13E00BC048
:103480000E944A211092CC0710E01A8204C013E077
:103490001F8201C016E0E9A1FAA1EC34FC4498F0C7
:1034A0003F813F5F3F834D815E8150931D05409377
:1034B0001C05809140061E821D821AA219A282302C
:1034C00011F451E05A8B8B899C8993FF04C0809141
:1034D0001E05806103C080911E058F7E80931E05AE
:1034E000809119058823B1F0809120058260809336
:1034F000200580913D06813091F48091200582FD68
:103500000EC08091200584608093200581E00E9498
:10351000153005C0809120058D7F809320050E9485
:10352000B8442091390630913A068217930720F467
:1035300080912005886003C080912005877F80935B
:1035400020058091200583FD08C08091200581FD24
:1035500004C08091200580FF06C080911E0584FF75
:1035600002C0299A01C0299880913D06813009F056
:1035700093C080912F089091300881349C4F44F083
:1035800080912F0890913008803C93400CF453C0F8
:10359000809131089091320881349C4F44F08091A1
:1035A000310890913208803C93400CF444C08091E3
:1035B00033089091340881349C4F3CF0809133085B
:1035C00090913408803C9340B4F180912B08909105
:1035D0002C08C39784F54CE484169406A104B10426
:1035E00068F180912F089091300880349C4F6CF4E2
:1035F000809120058B7F809320050E94A72284E183
:103600000E9415300E94302816C082EE881684EE83
:103610009806A104B10490F080912F089091300891
:10362000813C93405CF0809120058460809320056C
:1036300081E00E941530812C912C540180911F054E
:1036400080FD10C080913E06882361F080912005A6
:1036500082FD08C0BCE44B165B0638F0EB81EF5FDF
:10366000EB8301C01B82412C512C40913E06FB8113
:103670002F2F30E0842F992787FD90952817390741
:1036800084F04E3174F08091200584608093200591
:1036900081E00E94153005C0809120058B7F8093CA
:1036A00020050E94EE4180912B0890912C08C29732
:1036B0005CF4809120058E7F8093200588E1AFEE39
:1036C000B7E01D928A95E9F78091DF05880F990B85
:1036D000FC01E35DF74F20813181253F314014F03B
:1036E00022E006C0208131812D303E4F24F021E0C0
:1036F0002093B10702C01092B107033029F0209146
:10370000E305FE8DF21721F10091B107013059F068
:10371000023091F0011119C0109223051092250575
:103720001092240512C024E0209323052091E40583
:10373000332727FD309505C029E02093230524E693
:1037400030E030932505209324053091E3053E8F2A
:103750004091B1074D8B21E0401301C020E0309132
:10376000E30531111BC0FC01E35DF74F80819181BE
:1037700088519C4F97FF02C080E090E00A9664E178
:1037800070E00E940647653671050CF410C384E6AC
:1037900090E090932205809321050DC3809124052C
:1037A000909125059093220580932105222399F07D
:1037B000AD898A2F992787FD9095FC01EE0FFF1F99
:1037C000E80FF91FE00FF11D07FDFA95EA52FF4FD0
:1037D000E491E0932305332339F043EC3403C00133
:1037E00011248215930518F0222309F4A9C08091B1
:1037F0002305811105C0109225051092240522C0D1
:10380000843031F48091E405992787FD909504C0B8
:10381000893039F484E690E090932505809324055F
:1038200011C0813079F48091E405992787FD909546
:103830002091240530912505821793071CF488E018
:103840008093230580912305883079F48091E405E5
:10385000992787FD909520912405309125052817FB
:1038600039071CF481E080932305809123058B7F29
:10387000823091F4809124059091250501979093D1
:103880002505809324051816190634F01092250595
:103890001092240510922305809123058130C1F4F4
:1038A000809124059091250501969093250580939C
:1038B00024052091E405332727FD309582179307CF
:1038C0003CF0309325052093240584E08093230564
:1038D000809123058830C1F48091240590912505BD
:1038E000019790932505809324052091E4053327C3
:1038F00027FD3095281739073CF030932505209394
:10390000240584E080932305809123058B7F8330F9
:10391000A9F48091240590912505019690932505A1
:1039200080932405843691054CF0A4E6B0E0B09372
:103930002505A093240589E080932305212C312CB3
:1039400020912305222331F08091210590912205B9
:10395000009739F48CE0EBEFF7E011928A95E9F7E4
:103960000BC0293019F08436910531F48CE0AFEEAC
:10397000B7E01D928A95E9F70E94FA2B9F878E8700
:103980002C853D858217930798F480E090E0A1E0B4
:10399000B0E0821B930BA109B109EE85FF858E0F64
:1039A0009F1FA11DB11DC80ED91EEA1EFB1E0AC015
:1039B0008E859F852C853D85821B930BC80ED91E55
:1039C000E11CF11C8091B2003A8D831B880E911C82
:1039D000A11CB11C4091B2004A8F8091B2005D8D54
:1039E000851BAA85BB85A80FB11DBB87AA87B0918F
:1039F000B200BD8F8091B200EC8D8E1B680E711CE1
:103A0000F091B200FC8F8091B2002E89821B280EAB
:103A1000311C3091B2003E8B8091B2004F89841BE3
:103A2000A9A1BAA1A80FB11DBAA3A9A3B091B200D0
:103A3000BF8B8091B200E88D8E1B28853985280FB9
:103A4000311D398728873091B200388F8091B200BC
:103A5000498D841B480E511C5091B200598F8091A2
:103A6000B2009B8D891BAB89BC89A80FB11DBC8B93
:103A7000AB8BB091B200BB8FEA85FB85E738F14094
:103A800020F01B861A8631E03C8346E264167406F9
:103A900018F081E0809319050E9425220E94930F5F
:103AA0000E94FA2B16BC20911A0530911B05821733
:103AB000930748F420911A0530911B05DC01A21BE5
:103AC000B30B9D0108C020911A0530911B05FC0124
:103AD000E21BF30B9F0190931B0580931A058091C5
:103AE000CF079091D007A90160E070E0029748F4F9
:103AF00040935D0550935E0560935F05709360058C
:103B000019C08091CF079091D007A0E0B0E03FE0CE
:103B1000880F991FAA1FBB1F3A95D1F7840F951FD5
:103B2000A61FB71F80935D0590935E05A0935F0568
:103B3000B09360051092D0071092CF0760915D0599
:103B400070915E0580915F05909160050E946126ED
:103B50000E94863D8091CC07882309F49BC0E091A8
:103B60004006E2306CF4F4ECCF16F2EADF06E10432
:103B7000F10420F081E08093000102C01092000166
:103B8000298121111DC0E230D9F434ECC31632EA88
:103B9000D306E104F10420F081E08093000102C02B
:103BA000109200018091EA079091EB07A0E0B0E04D
:103BB0008093140590931505A0931605B0931705EF
:103BC0008091140590911505A0911605B0911705E7
:103BD000892B8A2B8B2BC9F1809100018823D9F086
:103BE0008091140590911505A0911605B0911705C7
:103BF000880F991FAA1FBB1F8A579F43A109B109AC
:103C00008093100590931105A0931205B0931305AE
:103C100041E049831AC02091140530911505409167
:103C2000160550911705A3E0B0E00E947F47665B40
:103C30007543810991096093100570931105809374
:103C400012059093130521E0298310921905E230A3
:103C500091F43981332379F04A89411112C01092CD
:103C6000CC070E94692D612C712CC12CD12C7601BE
:103C7000188A1A820FC0612C712CC12CD12C7601AC
:103C800009C0612C712CC12CD12C76011A8A51E00B
:103C90005A8319828091100590911105A091120507
:103CA000B09113058C159D05AE05BF0560F4298103
:103CB000222349F03889311106C00E947C2D41E051
:103CC000498B51E0588B8091CC07811108C08091BD
:103CD0004006823009F05DC08A8181115AC080910E
:103CE000CC0781111092CC0790914006E9E4F6E0F0
:103CF00020E030E080E0923039F44081411117C07B
:103D0000AC81A11125C013C0913079F440814111DB
:103D10000EC040910001411103C0BC81B11118C017
:103D200040910001411114C002C0191624F44081D1
:103D3000141674F015C0911113C040910001411187
:103D400003C04C81411104C040910001442341F063
:103D500041E050E0022E01C0440F0A94EAF7842BA0
:103D60002F5F3F4FB6962830310529F659895523E4
:103D700011F091E09A8388A30E943F3F0E9443374D
:103D80000E94E33688A10E94D84210921805198A31
:103D90001C8280912005AF8DA81316E0B0912005FC
:103DA000BF8F0D89EE85FF85FD87EC8708CB70936B
:103DB00022056093210585E080932305F7CC0F93BE
:103DC0001F93CF93DF93C7E0D0E0082F10E05C98FB
:103DD000C8010C2E02C0959587950A94E2F780FFE2
:103DE00002C0599A01C059985C9A0E94680D2197A7
:103DF00070F7DF91CF911F910F9108955F980C9408
:103E0000DF1E5F9A0C94DF1ECF93C82F81E80E94BB
:103E1000FE1E8C2FCF910C94FE1ECF93DF935D98E6
:103E20005E9887E893E10197F1F700C000005E9A81
:103E3000C8ECDDE0FE0184910E94FE1E2196FDE0AB
:103E4000C63DDF07B9F780913C060E94041F88EC4D
:103E5000DF91CF910C94FE1EDF92EF92FF920F93B1
:103E60001F93CF93DF93C6EDDDE08C01FE018491BB
:103E7000806B0E94FE1E80E00E94FE1E80E10E9478
:103E8000FE1E80EE0E94FE1E7801D12CF70181916A
:103E90007F010E94011FD394F0E8DF12F7CF219633
:103EA00000581F4F8DE0CE3DD80701F7DF91CF912D
:103EB0001F910F91FF90EF90DF90089520E034E084
:103EC000FC01A901119241505040E1F70895CF93B0
:103ED000DF93D0E08D2F806B0E94FE1EC0E08C2F00
:103EE0008F700E94FE1E8C2F82958F7080610E94C1
:103EF000FE1E80E00E94011FCF5FC03881F7DF5FA8
:103F0000D83041F7DF91CF91089567FD36C0403436
:103F1000A0F5342F369536953695E62FF0E050E033
:103F20002223A9F020E8329FE00DF11D1124E80FB3
:103F3000F91F409550954770552781E090E0042E79
:103F400001C0880F0A94EAF79081982B15C020E8E9
:103F5000329FE00DF11D1124E80FF91F4095509597
:103F60004770552781E090E0042E01C0880F0A9425
:103F7000EAF7809590819823908308959F92AF925D
:103F8000BF92CF92DF92EF92FF920F931F93CF9346
:103F9000DF93EC01162FF42ED22EA02FB0E0A41B3D
:103FA000B109B7FF03C0B195A195B109ED2DF0E0BE
:103FB000E11BF109F7FF03C0F195E195F109BB247D
:103FC000B394EA17FB0714F0B12C06C08D2DD02E48
:103FD000082F812F1F2DF82ED11630F48F2DF02EA3
:103FE000082F812F1D2DD82EAD2CA11AE02FF0E027
:103FF000EF19F109F7FF03C0F195E195F1099E2E44
:10400000CA2CC694F01610F401E010C00FEF0EC0D9
:104010002E2DBB2071F0412F6F2DCE010E94851FE8
:10402000C918C7FE02C0F00ECA0C1F5F1D1580F331
:1040300003C04F2D612FF1CFDF91CF911F910F91D1
:10404000FF90EF90DF90CF90BF90AF909F9008953A
:10405000AF92BF92CF92DF92EF92FF920F931F9396
:10406000CF93DF936C01A42EF62EC22FD0E0C60FA3
:10407000D11D10E0040F111D8F2D90E08C179D07AE
:1040800084F4BA2C8B2D90E08017910744F42E2DE8
:104090004B2D6F2DC6010E94851FB394F3CFF3946F
:1040A000EBCFDF91CF911F910F91FF90EF90DF90B9
:1040B000CF90BF90AF9008959F92AF92BF92CF9252
:1040C000DF92EF92FF920F931F93CF93DF93EC0158
:1040D000F62EB42E922E162FC22ED12CC60ED11C27
:1040E000AA24AA94A00EA40E812F90E08C159D0501
:1040F00074F42E2D4B2D612FCE010E94851F2E2D85
:104100004A2D612FCE010E94851F1F5FEDCFDB2C52
:1041100010E00B0D111DCC24CA94C90CCF0C8D2DB1
:1041200090E08017910774F42E2D4D2D6F2DCE0148
:104130000E94851F2E2D4D2D6C2DCE010E94851FB6
:10414000D394EDCFDF91CF911F910F91FF90EF901E
:10415000DF90CF90BF90AF909F9008954F925F9265
:104160006F927F928F929F92AF92BF92CF92DF9287
:10417000EF92FF920F931F93CF93DF93EC01962E54
:10418000A42EBB24B394B21A822E8194880C122FD1
:10419000742E721AE42EF12C6701C20ED11C872DE9
:1041A000992787FD9095C816D90644F0202F472DF2
:1041B000692DCE010E94851F7394F1CF712C711669
:1041C0000CF04CC0B7FC04C0115083948394B80C1D
:1041D0007394872D880F8F5FB80E6A2C611A670160
:1041E000C10ED11C17FDDA94472C490C592C5718D5
:1041F000862D992787FD9095C816D90674F0202F33
:10420000462D642DCE010E94851F202F462D652D41
:10421000CE010E94851F6394EBCF6A2C671867015B
:10422000C70CD11C77FCDA94412E490C592C511A39
:10423000862D992787FD9095C816D9060CF4BFCF17
:10424000202F462D642DCE010E94851F202F462D44
:10425000652DCE010E94851F6394EACFDF91CF9137
:104260001F910F91FF90EF90DF90CF90BF90AF9094
:104270009F908F907F906F905F904F900895880FE0
:10428000991F8252924FFC01859194910C94233D89
:104290000C94233D81E091E00E945E1F23E030E01A
:1042A00049E250E069E471E089E790E00E943F2133
:1042B00027E130E048E150E069E471E08AE790E00E
:1042C0000E943F218091200583FF13C02BE230E044
:1042D0004CE050E069E471E086E890E00E943F2104
:1042E0002BE230E040E550E069E471E086E790E0E1
:1042F00041C08091200581FF13C02BE230E04CE1EA
:1043000050E069E471E08BE490E00E943F212BE2F1
:1043100030E046E350E069E471E08CE490E02AC0CC
:104320008091200580FF13C02BE230E04AE050E08E
:1043300069E471E089E690E00E943F212BE230E0E1
:1043400041E550E069E471E087E390E013C08091BB
:1043500020052BE230E082FF07C044E150E069E431
:1043600071E08BE890E006C04CE150E069E471E058
:104370008AE890E00E943F2181E091E00C942C1F9C
:10438000CF93DF93CDB7DEB72C970FB6F894DEBF8F
:104390000FBECDBF26E0AE014F5F5F4F63E480EDFF
:1043A0000E94B423898190E0982F88272A81820F68
:1043B000911D34E0959587953A95E1F79A8789871D
:1043C0008B8190E0982F88272C81820F911D54E0DB
:1043D000959587955A95E1F798878F838D8190E021
:1043E000982F88272E81820F911D74E095958795CF
:1043F0007A95E1F79C878B8720913B06A1E7B5E092
:1044000043E024029001112480E090E02F53384EC5
:10441000F901E80FF91FE491EE0FFF0B41E050E0C6
:104420004C0F5D1FE40FF51F468157814D935D933F
:1044300001968330910561F72C960FB6F894DEBF94
:104440000FBECDBFDF91CF9108951F93CF93DF9320
:104450000E94C02120913B06C9EAD7E0A1E7B5E060
:1044600083E028029001112480E090E02155384E2D
:1044700069917991F901E80FF91F14914D915C91BF
:104480001197461B570B1403B001159F700D112493
:104490006D937D9301968330910551F7DF91CF9114
:1044A0001F910895CF9386E0E9EAF7E0DF011D92BE
:1044B0008A95E9F7C0E20E94C0214091A907509176
:1044C000AA078091710590917205480F591F50936A
:1044D000AA074093A9072091AB073091AC078091C0
:1044E000730590917405280F391F3093AC07209302
:1044F000AB078091AD079091AE0760917505709103
:104500007605860F971F9093AE078093AD07C15035
:1045100091F6E5E055954795EA95E1F75093AA079E
:104520004093A907F5E035952795FA95E1F7309383
:10453000AC072093AB07A5E095958795AA95E1F781
:104540009093AE078093AD07CF910C949C162F9259
:104550003F924F925F926F927F928F929F92AF9213
:10456000BF92CF92DF92EF92FF920F931F93CF9360
:10457000DF93CDB7DEB765970FB6F894DEBF0FBEF9
:10458000CDBF1E861D86188A1F861A8A198A0E9428
:1045900052226091A9077091AA07882777FD80951C
:1045A000982F0E94DB4569837A838B839C8360917B
:1045B000AB077091AC07882777FD8095982F0E94F4
:1045C000DB456D837E838F8398876091AD07709103
:1045D000AE07882777FD8095982F0E94DB45698775
:1045E0007A878B879C871D8A1B8AE12CF12C00E03F
:1045F00010E08091B2009D89891BE80EF11CE091CA
:10460000B200ED8BFCE4EF16FF0628F08B898F5F7C
:104610008B8BE12CF12C0E94C021FE0131966F01A1
:10462000B1E72B2EB5E03B2ECE010D965C011C8A26
:10463000F101819091901F0120E030EC49E754E4B2
:10464000F60160817181828193810E948F462B01E6
:104650003C01B401882777FD8095982F0E94DB45A7
:104660009B01AC01C301B2010E94D84420E030E0BC
:104670004AE754E40E944045F601608371838283D7
:1046800093830E94A845F5012081318126173707C1
:1046900011F000E010E0F501619371935F01FC8976
:1046A000FF5FFC8B84E0C80ED11CF33009F60F5F6E
:1046B0001F4F093C110520F00E94522281E001C0E9
:1046C00080E0E7E8F3E13197F1F700C000008111E5
:1046D00004C0FB89F63008F48CCF65960FB6F894C9
:1046E000DEBF0FBECDBFDF91CF911F910F91FF9025
:1046F000EF90DF90CF90BF90AF909F908F907F9082
:104700006F905F904F903F902F90089541E06BE63F
:1047100080ED0E949D2340E467E380ED0E949D238D
:1047200046E080914406481B6AE180ED0E949D238B
:1047300048E16BE180ED0C949D23CF93DF9300D093
:10474000CDB7DEB74A8369830E94B6436981862F5D
:104750000E9406444A81842F0E9406440F900F90C5
:10476000DF91CF910C94F743CF92DF92EF92FF92BB
:104770000F931F93CF93DF9300D01F92CDB7DEB777
:10478000182FE22E4A835B8369830E94B6436981B6
:10479000862F0E94064481E0810F0E94F5434A81E2
:1047A000C42E5B81D52E00E010E0F12C0E151F0504
:1047B00084F40F5F1F4F0E151F0519F00E94264449
:1047C00002C00E943F44F6018083FFEFCF1ADF0A48
:1047D000EDCF0F900F900F90DF91CF911F910F9120
:1047E000FF90EF90DF90CF900C94F7434F925F9241
:1047F0006F927F928F929F92AF92BF92CF92DF92F1
:10480000EF92FF92CF93DF93CDB7DEB728970FB625
:10481000F894DEBF0FBECDBF6B017C018090AB056D
:104820009090AC05A090AD05B090AE059B01AC0199
:104830000E948F4620E030E040E05FE30E948F4618
:104840009B01AC0160E070E080E89FE30E94D744E8
:1048500069837A838B839C834090AF055090B00529
:104860006090B1057090B2059B01AC01C501B40127
:104870000E948F466D837E838F839887A701960160
:10488000C301B2010E948F469B01AC016D817E8104
:104890008F8198850E94D7446093970570939805FF
:1048A0008093990590939A05A7019601C501B401DB
:1048B0000E948F466B017C0129813A814B815C818A
:1048C000C301B2010E948F469B01AC01C701B60132
:1048D0000E94D8446093770570937805809379059A
:1048E00090937A0528960FB6F894DEBF0FBECDBF21
:1048F000DF91CF91FF90EF90DF90CF90BF90AF907E
:104900009F908F907F906F905F904F900895CF927F
:10491000DF92EF92FF9269017A0125EF31EA4BE8CD
:104920005CE30E948F46A70196010E948F466B01AF
:104930007C0126EA3AE046E85EE30E948B461816C0
:104940004CF0C0928B05D0928C05E0928D05F092D0
:104950008E050CC086EA9AE0A6E8BEE380938B053C
:1049600090938C05A0938D05B0938E0526EA3AE0CE
:1049700046E85EEB60918B0570918C0580918D050A
:1049800090918E050E943C4587FF0CC086EA9AE014
:10499000A6E8BEEB80938B0590938C05A0938D05C4
:1049A000B0938E05FF90EF90DF90CF900895CF9356
:1049B000DF9300D000D0CDB7DEB720915D053091F8
:1049C0005E0540915F05509160056091870570918B
:1049D00088058091890590918A050E94872480919D
:1049E000260590912705A0912805B091290580936F
:1049F000AB059093AC05A093AD05B093AE05809147
:104A0000010590910205A0910305B09104058093E2
:104A1000AF059093B005A093B105B093B205609136
:104A20008B0570918C0580918D0590918E050E946B
:104A3000F6238091970590919805A0919905B091E2
:104A40009A058093260590932705A0932805B09397
:104A500029058091770590917805A0917905B0910D
:104A60007A058093010590930205A0930305B09306
:104A7000040520915D0530915E0540915F055091E0
:104A8000600560918F0570919005809191059091DE
:104A900092050E94872480912A0590912B05A09170
:104AA0002C05B0912D058093AB059093AC05A09398
:104AB000AD05B093AE058091010590910205A091DE
:104AC0000305B09104058093AF059093B005A093C2
:104AD000B105B093B20560918B0570918C05809102
:104AE0008D0590918E050E94F623809197059091F7
:104AF0009805A0919905B0919A0580932A05909305
:104B00002B05A0932C05B0932D05809177059091EE
:104B10007805A0917905B0917A058093010590936D
:104B20000205A0930305B093040520915D05309123
:104B30005E0540915F05509160056091750570912B
:104B40007605882777FD8095982F29833A834B83B4
:104B50005C830E94DB4529813A814B815C810E9404
:104B6000872480912A0590912B05A0912C05B09166
:104B70002D058093AB059093AC05A093AD05B09344
:104B8000AE058091260590912705A0912805B0914A
:104B900029058093AF059093B005A093B105B0931C
:104BA000B20560918B0570918C0580918D05909177
:104BB0008E050E94F6238091970590919805A0910B
:104BC0009905B0919A0580932A0590932B05A0939F
:104BD0002C05B0932D058091770590917805A091D3
:104BE0007905B0917A058093260590932705A093C7
:104BF0002805B09329050F900F900F900F90DF912B
:104C0000CF910895CF92DF92EF92FF9220E030E0B3
:104C100044EB52E40E948F466B017C0120E030E0BF
:104C2000A9016091010570910205809103059091A1
:104C300004050E943C4587FF18C020E030E0A90130
:104C4000C701B6010E948B46A701960118162CF4E5
:104C500060E070E084E393E404C060E070E084E32B
:104C600093EC0E94D7446B017C01C701B601FF9011
:104C7000EF90DF90CF90089560912A0570912B05F9
:104C800080912C0590912D050E9402266093A70526
:104C90007093A8058093A9059093AA0560912605B5
:104CA0007091270580912805909129050E94022680
:104CB00060937B0570937C0580937D0590937E05C2
:104CC00008954F925F926F927F928F929F92AF92D0
:104CD000BF92CF92DF92EF92FF920F931F93CF93E9
:104CE000DF93CDB7DEB728970FB6F894DEBF0FBEBF
:104CF000CDBF0E94D94520E836E948E15AE40E9438
:104D0000404560935D0570935E0580935F059093C9
:104D1000600560914106E62FFF27E7FDF095ED5213
:104D2000F84E649170E080E090E00E94D9456B01FC
:104D30007C010EE315E08BE9682E85E0782ED80122
:104D40006D917D918D01882777FD8095982F0E9428
:104D5000DB454B015C0120E030E040E85FE3C70148
:104D6000B6010E948B461816F4F420E030E040E8CB
:104D70005FE3C701B6010E94D744F301208131816E
:104D8000428153810E948F46A50194010E94D7441D
:104D9000A70196010E944045D3016D937D938D93A9
:104DA0009C93139709C0B7FAB094B7F8B094F30185
:104DB00080829182A282B382F4E06F0E711C85E042
:104DC0000434180709F0BBCF23EC35EF48E25FE36A
:104DD00060919B0570919C0580919D0590919E0529
:104DE0000E948F4669837A838B839C8360937F05BF
:104DF00070938005809381059093820523EC35EFB5
:104E000048E25FE360919F057091A0058091A10544
:104E10009091A2050E948F466D837E838F83988731
:104E20006093830570938405809385059093860530
:104E30006091710570917205882777FD8095982F94
:104E40000E94DB452B013C0160938F057093900518
:104E5000809391059093920560917305709174050C
:104E6000882777FD8095982F0E94DB456B017C0198
:104E700060938705709388058093890590938A05D0
:104E800020913E0530913F054091400550914105EC
:104E9000E0914205F0914305449F4001459F900CED
:104EA000900C1124B401882777FD8095982F229FBC
:104EB000A001239F500D500D11248A01222717FDB8
:104EC0002095322F600F711F821F931FEE9F90015C
:104ED000EF9F300D300D11248901222717FD2095F9
:104EE000322F600F711F821F931F0E94D9454B0103
:104EF0005C0120E034EF48E356E40E948B4618162C
:104F00000CF06BC020E038E449EA56E4C501B40176
:104F10000E943C4587FF61C020E030E040E05FE355
:104F2000609101057091020580910305909104053F
:104F30000E948B4618160CF050C0809143066BE01F
:104F400070E0681B710987FD7395882777FD809550
:104F5000982F0E94DB454B015C0129813A814B81EE
:104F60005C816091A7057091A8058091A905909139
:104F7000AA050E94D744A50194010E9440459B01C7
:104F8000AC01C301B2010E94D84460938F057093B5
:104F9000900580939105909392052D813E814F81DC
:104FA000588560917B0570917C0580917D0590917D
:104FB0007E050E94D744A50194010E9440459B01B3
:104FC000AC01C701B6010E94D84460938705709375
:104FD00088058093890590938A050E94D7240E94B2
:104FE0003C2620E030E048EC52EC6091A70570913F
:104FF000A8058091A9059091AA050E948F460E945C
:10500000A845709394056093930520E030E048EC48
:1050100052EC60917B0570917C0580917D059091AB
:105020007E050E948F460E94A84570939605609366
:10503000950528960FB6F894DEBF0FBECDBFDF9161
:10504000CF911F910F91FF90EF90DF90CF90BF9085
:10505000AF909F908F907F906F905F904F9008954A
:1050600010922A0510922B0510922C0510922D05F6
:1050700010922605109227051092280510922905F6
:1050800080E090E0A0E8BFE38093010590930205E3
:10509000A0930305B09304051092AB051092AC05E4
:1050A0001092AD051092AE051092AF051092B005AA
:1050B0001092B1051092B2051092A7051092A805A2
:1050C0001092A9051092AA0510927B0510927C05FA
:1050D00010927D0510927E051092D0071092CF0796
:1050E000109285001092840010921B0510921A05F0
:1050F0000895CF9380E381B98CEF87B98AE084B9B2
:1051000082EF8AB918B8149815982B9829985C9A48
:1051100085EF83B98CE089B92FE588ED93E02150C4
:1051200080409040E1F700C0000083B1807F803E66
:1051300021F483EF8AB90E946F0D82EF8AB98DE066
:1051400089B914BC85E085BD80916E008160809333
:105150006E0016BC10928000809181008260809366
:1051600081001092B00087E08093B100109270002F
:1051700017BA1092B2009AE0909368009FE09BBB30
:1051800095E1909369008CBB1092CC070E94841922
:10519000C82F20E030E046EA5EE0F901EE0FFF1F85
:1051A000E454F84F518340832F5F3F4F283031053F
:1051B000A1F724EC39E03093BD072093BC070E948F
:1051C0000D1F0E94671F93B1907F903609F071C048
:1051D00080EC0E94FE1E81E091E00E945E1F29E1AA
:1051E00030E04AE050E069E471E08BE390E00E9437
:1051F0003F2181E091E00E942C1F81E091E00E941C
:105200005E1FE9E4F6E080E090E04CED55E06CE6EE
:1052100077E0A0819C01220F331FA23039F4D9011D
:10522000A15CB74F11967C936E9306C0D901A15C27
:10523000B74F11965C934E930196B69688309105C0
:1052400041F783B1807F803679F46FEF8FE398E088
:105250000E948B0D2FE788E391E021508040904021
:10526000E1F700C00000EDCFE9E4F6E080E090E077
:105270002CE434E04081423041F4DC01AA0FBB1F32
:10528000A15CB74F11963C932E930196B696883049
:10529000910581F76FEF8FE398E00E948B0D2FE768
:1052A00088E391E0215080409040E1F700C0000089
:1052B000F1CF2FE78FE492E1215080409040E1F759
:1052C00000C0000093B1907F903951F580EC0E94AE
:1052D000FE1E81E091E00E945E1F29E130E048E27D
:1052E00050E069E471E086E091E00E943F2181E0B6
:1052F00091E00E942C1F81E091E00E945E1F0E94BD
:10530000DC180E949C1680913C060E94041F2FE727
:1053100084E89EE1215080409040E1F700C0000009
:10532000CC2321F180EC0E94FE1E81E091E00E94DE
:105330005E1F2DE030E04EE150E069E471E083E073
:1053400091E00E943F2125E230E041E250E069E433
:1053500071E084E091E00E943F2181E091E00E94B1
:105360002C1F81E091E00E945E1F04C081E091E06B
:105370000E942C1F2FEF88E09DE321508040904039
:10538000E1F700C0000081E091E00E945E1F81E033
:1053900091E00E942C1F0E940D1F0E9473430E94E7
:1053A00086230E94EA1081E091E00E945E1F80EC5B
:1053B0000E94FE1E29E130E042E150E069E471E024
:1053C00087E091E00E943F2181E091E00E942C1F44
:1053D00081E091E00E945E1F0E94F4100E947C2DEB
:1053E0000E9458440E94A722811128C081E091E0C8
:1053F0000E945E1F29E130E049E150E069E471E07C
:105400008DE390E00E943F2181E091E00E942C1FFB
:105410002FEF88E09DE3215080409040E1F700C0ED
:105420000000F89428E088E190E00FB6F894A89581
:10543000809360000FBE20936000FFCF0E94B844AD
:1054400090932F0580932E050E94913580913D0603
:10545000813029F48091200584608093200580911B
:10546000CC07882369F00E94EE4180912B0890912F
:105470002C08C3972CF08091200581608093200533
:105480000E94302881E0CF910C9415301F920F922A
:105490000FB60F9211248F939F938091CF07909115
:1054A000D00701969093D0078093CF079F918F915B
:1054B0000F900FBE0F901F9018951F920F920FB66E
:1054C0000F9211242F933F938F939F938091E60720
:1054D000882319F081E08093E7074B9B09C08091F6
:1054E0008400909185009093D4078093D30714C0D3
:1054F00080918400909185002091D3073091D4074A
:10550000821B930B9093BF078093BE078091DD05AC
:10551000813011F48093CC079F918F913F912F910F
:105520000F900FBE0F901F9018951F920F920FB6FD
:105530000F9211242F933F938F939F938091E607AF
:10554000882319F081E08093E7074A9B09C0809186
:105550008400909185009093D6078093D50715C05D
:1055600080918400909185002091D5073091D607D5
:10557000821B930B9093C1078093C0078091DD0538
:10558000823019F481E08093CC079F918F913F91F5
:105590002F910F900FBE0F901F9018951F920F9292
:1055A0000FB60F9211242F933F938F939F93809167
:1055B000E607882319F081E08093E707489B09C03C
:1055C00080918400909185009093D2078093D107B9
:1055D00015C080918400909185002091D107309171
:1055E000D207821B930B9093BD078093BC078091D9
:1055F000DD05811103C081E08093CC079F918F91DD
:105600003F912F910F900FBE0F901F9018951F92F2
:105610000F920FB60F9211242F933F938F939F9366
:105620008091E607882319F081E08093E707189BB3
:1056300009C080918400909185009093DA0780934F
:10564000D90715C080918400909185002091D907D9
:105650003091DA07821B930B9093C5078093C407A0
:105660008091DD05843019F481E08093CC079F910F
:105670008F913F912F910F900FBE0F901F90189513
:105680001F920F920FB60F9211242F933F934F93B7
:105690005F938F939F93AF93BF93EF93FF9380910B
:1056A000E607882319F081E08093E7078091840062
:1056B000909185002091DC052223D1F01A9B05C032
:1056C0009093D8078093D70786C02091D707309151
:1056D000D807821B930B9093C3078093C2078091D6
:1056E000DD05833009F077C081E08093CC0773C07B
:1056F0001A9971C02091E4073091E507AC01421B73
:10570000530B9A012F353A4158F42091E407309118
:10571000E507AC01421B530B9A012E3E324010F4B8
:105720001092E3079093E5078093E407E091E30785
:10573000F0E0ED54FA4FE1812091E307222339F0A4
:10574000A091E307B0E0AD54BA4F2C9101C020E026
:105750003091E307383038F4F0E0EE0FFF1FEF52DE
:10576000F84F918380833091E307332399F0309190
:10577000E307393078F430E0220F331FF901EF529C
:10578000F84F40815181841B950BF901E454F84F87
:10579000918380838091E3078F5F8093E3079091EB
:1057A000E3078091CD07891728F48091E307809360
:1057B000CD0709C09091E3078091CD07981303C0EE
:1057C00081E08093CC0780911905882321F0109205
:1057D000CD0710921905FF91EF91BF91AF919F9165
:1057E0008F915F914F913F912F910F900FBE0F902E
:1057F0001F9018952FB7F8948091840090918500A0
:105800002FBF08951F920F920FB60F9211242F935E
:105810003F934F935F936F937F938F939F93AF9338
:10582000BF93CF93EF93FF93C091C6000E94FA2BD2
:105830002091E4073091E5072091E4073091E507D6
:10584000AC01421B530B9A01253C59E0350790F0FF
:105850001092BB071092CE071092E3071092E9074F
:105860001092E8071092E2071092E1073093EB07DD
:105870002093EA079093E5078093E4078091BB07A4
:10588000893150F4E091BB0781E08E0F8093BB0714
:10589000F0E0EC5BFA4FC0838091DC05823009F0C8
:1058A00090C08091CE07883109F0FCC0CC2359F01C
:1058B00081E0CF3C08F480E091E3899FC00D112482
:1058C000C43009F0EFC080915B0585FDEBC081E03D
:1058D0008093CC0780E090E0FC01EE0FFF1FE454C2
:1058E000F84F11821082019688309105A9F7A8E53A
:1058F00070E0C0E060E0B1E021E030E0EB2FF0E0EC
:10590000EC5BFA4F808190E0062E02C0959587955A
:105910000A94E2F780FF17C0EC2FF0E0ED54FA4F45
:10592000E181F0E0EE0FFF1FE454F84F8081918198
:10593000A901072E02C0440F551F0A94E2F7842BD9
:10594000952B918380836F5F7F5F683011F4BF5F19
:1059500060E07B3011F4CF5F70E0A15079F640E059
:1059600050E0FA01EE0FFF1FE454F84F208131811F
:105970003450C9019595879595958795820F931F0A
:10598000B901A3E075956795AA95E1F7860F971F72
:10599000B901B4E075956795BA95E1F7860F971F41
:1059A000C5E035952795CA95E1F7820F931F8A5573
:1059B000914F918380834F5F5F4F4830510589F647
:1059C00071C0833009F06EC08091CE078F3008F42B
:1059D00069C0C09353058091450584FF04C0C7E0AA
:1059E00063E078E703C0C3E062E07CE3E7E4F5E06E
:1059F000DF0111972C91822F872390E0062E02C0A1
:105A0000959587950A94E2F78093E30780819091BA
:105A1000E3079830F0F52C2330E0322F2227280FAF
:105A2000311D633011F4345001C03250C901880F68
:105A3000991FA90155954795840F951FA901559563
:105A4000479555954795840F951FA901A3E0559556
:105A50004795AA95E1F7840F951FB4E035952795F2
:105A6000BA95E1F7820F931F633011F495958795EE
:105A7000A091E307B0E0AD54BA4F1196AC91B0E0FD
:105A80008A55914FAA0FBB1FA454B84F11969C93EF
:105A90008E93329645E0E535F40709F0A9CF81E011
:105AA0008093CC078091CE078F5F8093CE07FF91C4
:105AB000EF91CF91BF91AF919F918F917F916F9116
:105AC0005F914F913F912F910F900FBE0F901F90BC
:105AD0001895F89410926C00109273001DBAE1ECC6
