S01400004F70656E4165726F56544F4C2E73726563B2
S11300000C944C0F0C94A4310C946C310C94573216
S11300100C94720F0C9416320C94720F0C94DD3104
S11300200C94720F0C94720F0C94720F0C94720F48
S11300300C94720F0C94720F0C94720F0C94720F38
S11300400C94720F0C94720F0C9455310C94720F23
S11300500C9413330C94720F0C94720F0C94720F53
S11300600C94720F0C94720F0C94720F0C94720F08
S11300700C94720F0C94720F0C94720F4120AE20EA
S1130080AE2052205F2069206520792085208920B8
S11300909520783A7A3A7D3A7F3A813A833A853A9A
S11300A0873A8A3A8C3A8F3A913A933A953A973A00
S11300B0993A9B3A9D3A9F3AA23A8D3E713E743EDC
S11300C0773E7A3E7D3E803E833E863EFFFF01FFC3
S11300D001FF01FFFF010101FF0101FFFFFF00011B
S11300E002020001000102000102010002000201FB
S11300F001020003040506070001020304050607C4
S1130100050206010508030705010241050D000F5C
S1130110002200330044004F090100030007000FD0
S1130120001F000F00070003000100081C001C0052
S11301301C001C007F003E001C0008000808001C76
S1130140003E007F001C001C001C001C0005FF0179
S1130150FE007C00380010000D4000600070007844
S1130160007C007E007F007E007C007800700060D0
S113017000400001022D0D1D001F004400440044F6
S1130180007D00AA00E3011C015D019201CB020481
S1130190023D0900700000007000000070000000C3
S11301A0700000007000000070000000700000008B
S11301B0700000007000000E80FF0100F0FF0F00CF
S11301C0F8FF1F007C003E001E0078000E00700047
S11301D00E0070000E0070000E0070001E0078000B
S11301E07C003E00F8FF1F00F0FF0F0080FF0100BD
S11301F00B70007000700070007000700078007068
S113020000FCFF7F00FEFF7F00FEFF7F0000007008
S1130210000000700000007000000070000E00007C
S113022078001C007C001C007E000E0077000E008D
S113023077000E8073000EC071000EE070001E780F
S113024070001E3C7000FC1F7000F8077000F00383
S11302507000000070000E000038001C0038001C04
S11302600070000E0070000E0070000E1C70000E76
S11302701C70000E1C70000E1C70000E3E78001CDA
S1130280373C00FCF33F00F8E31F00F0C007001008
S113029000E0010000F0010000FC010000FE01008C
S11302A000DF010080CF0100E0C30100F0C10100C4
S11302B0F8C001007CC00100FEFF7F00FEFF7F004C
S11302C0FEFF7F0000C0010000C0010000C001006B
S11302D00D00003800FE1F3800FE0F7000FE0F7086
S11302E0000E0E70000E0E70000E0E70000E0E70DA
S11302F0000E1E78000E3C3C000EFC1F000EF80F92
S1130300000EE007000E00FE0300C0FF0F00F0FF28
S11303101F00F81C3E003C0C78001C0E70001E0EE2
S113032070000E0E70000E0E70000E1E78000E3C53
S11303303C001EFC1F0000F80F0000E007000E0E3A
S11303400000000E0000000E0040000E0070000EC1
S1130350007C000E007F000EC01F000EF007000E90
S1130360FC00000E3F0000CE0F0000FE030000FE64
S11303700000003E0000000E00C00700F0E11F0076
S1130380F8F33F00FC3F3C001E1F78000E0E700087
S11303900E0C70000E1C70000E1870001E3C7800CD
S11303A0FC7F3C00F8F33F00F0E11F0000C00700B1
S11303B00EE0070000F01F0000F83F78003C3C709E
S11303C0001E7870000E7070000E7070000E707851
S11303D0000E7038001E303C007C381F00F8FF0F00
S11303E000F0FF0300C07F00000102205B1300BB8C
S11303F000C500CC00CC00CC00CC010301030103F8
S11304000116012901290129013601490150015030
S1130410016F018801A401C001DF01FB021A023649
S113042002550274027B027B027B027B027B0294F4
S1130430029402BC02DB02FD0322033E035A038240
S113044003A103B403CA03EC0408042D044C04748C
S1130450048D04B504D704F9051E053D0565059909
S113046005BB05E006020602061B061B061B061B4F
S1130470061B063406500669068506A106B406D096
S113048006E906F00700071C0723074E07670786DF
S113049007A207BE07D107EA07FD08160832085D60
S11304A0087908950300000000000000000002FE27
S11304B06700FE670012780000FE010002010002DE
S11304C00100020100FE4100787000001C000007DA
S11304D000E000003800000E1E00827F0080400013
S11304E0804000804000807F00001E0006C01F0086
S11304F0F8FF003CE00107000703000601000406C2
S11305000100040300060700073CE001F8FF00C0F7
S11305101F000400000300F0030070000010000638
S113052000030000030000030000030000030000B8
S11305300300020070000070000AF00F00FC3F008E
S11305400C30000660000660000660000660000CC7
S11305503000FC3F00F00F0008186000186000181D
S11305606000FE7F00FE7F0000600000600000600D
S113057000090C7000067800066C0006660006632D
S1130580008E6100FC6000786000006000090C309F
S113059000066000066000866100866100866100D6
S11305A0CE73007C3F00381E000A0007008007005D
S11305B0C00700F006003806001C0600FE7F00FE9F
S11305C07F0000060000060009003000FE6000FE07
S11305D06000C66000C66000C66000C63100863F89
S11305E000060F000AE00F00F03F009C3000CC60D2
S11305F000C66000C66000C66000C63100863F00C9
S1130600000F0009060000064000067000067C008A
S1130610060F00C60300F600003E00000E00000AAC
S1130620381E007C3F00CE7100C66000C6600086A4
S113063061008661004E73007C3F00381E000AF0A2
S11306400000FC61008C630006630006630006631F
S1130650000633000C3900FC1F00F0070002707024
S113066000707000080C00000600000667000667B2
S113067000860100CE0000FC00003800000D0040A0
S113068000007800003F00C00700F806003E0600A6
S11306900606003E0600F80600C00700003F000002
S11306A078000040000AFE7F00FE7F00866100861D
S11306B06100866100866100C661007C73003C3F76
S11306C000001E000BE00700F81F001C38000C306F
S11306D00006600006600006600006600006600018
S11306E00620000C30000CFE7F00FE7F0006600038
S11306F00660000660000660000660000E70000CD4
S11307003000381C00F80F00E0070009FE7F00FEEF
S11307107F00C66000C66000C66000C66000C66098
S113072000C66000C6600009FE7F00FE7F008601EF
S11307300086010086010086010086010086010012
S11307400600000DE00700F81F003C3C000C3000E0
S11307500E70000660000660000663000663000673
S113076063000663000C3F000C3F000AFE7F00FE9E
S11307707F00C00000C00000C00000C00000C00036
S113078000C00000FE7F00FE7F00060660000660D9
S113079000FE7F00FE7F0006600006600007006028
S11307A000006000066000066000067000FE3F0066
S11307B0FE1F000BFE7F00FE7F00800300C00100CF
S11307C0E00300700700381C001C38000E7000069F
S11307D0600002400009FE7F00FE7F000060000010
S11307E060000060000060000060000060000060C5
S11307F0000CFE7F00FE7F000E0000380000E001C8
S113080000800700000700E001003800000E00002F
S1130810FE7F00FE7F000AFE7F00FE7F000E0000C8
S11308203C0000E00000800300001E00007800FE91
S11308307F00FE7F000DE00700F81F001C38000C4D
S11308403000066000066000066000066000066076
S1130850000C30001C3800F81F00E0070008FE7F81
S113086000FE7F000603000603000603008E03005B
S1130870FC0100F800000DE00700F81F001C380020
S11308800C300006600006600006600006E0010609
S1130890E0030C30071C3806F81F06E007060BFEC1
S11308A07F00FE7F00860100860100860100860726
S11308B000CE0E00FC1C00787000006000004000B8
S11308C00B783000FC7000CE600086610086610009
S11308D08661008661008661000633000C3F0000DB
S11308E01E000C06000006000006000006000006BC
S11308F00000FE7F00FE7F000600000600000600E8
S1130900000600000600000AFE0F00FE3F00007013
S113091000006000006000006000006000007000E3
S1130920FE3F00FE0F000D0200001E0000FC000050
S1130930E00300801F00007C00006000007C008059
S11309401F00E00300FC00001E000002000011066E
S113095000007E0000F80700803F00007800007C63
S113096000C00F007E00000600007E0000E00700CB
S1130970007E00007000807F00F807007E00000603
S113098000000B0240000660001E7800381C00E0E6
S11309900700800100E00700381E001E7800066092
S11309A0000240000C0200000600001E0000780057
S11309B000E00000C07F00C07F00E000007800007D
S11309C01E00000600000200000B067000067800FE
S11309D0067C00066E00066700C66300E6600076CB
S11309E060003E60001E60000E6000080300001FEF
S11309F00000FE0000F00700803F0000FC0100E062
S1130A000300000308003C00307E003067003063C0
S1130A1000306300303300E07F00E07F0009FF7F97
S1130A2000FF7F0060200030600030600030600014
S1130A30707000E03F00C00F0008800F00E03F002E
S1130A406030003060003060003060003060006072
S1130A50300009801F00E03F0070700030600030FB
S1130A606000306000303000FF7F00FF7F000980AD
S1130A700F00E03F006033003063003063003063F8
S1130A8000706300E06300C0330006300000FE7FA6
S1130A9000FF7F0033000033000003000009801FC3
S1130AA000E03F0670700630600630600630600675
S1130AB0303007F0FF03F0FF0108FF7F00FF7F00E5
S1130AC0600000300000300000300000F07F00E0E3
S1130AD07F0002F67F00F67F000500000630000666
S1130AE0300006F6FF07F6FF0309FF7F00FF7F00D3
S1130AF0000600000700800F00C03800707000304E
S1130B00600010400002FF7F00FF7F000EF07F00B6
S1130B10F07F00600000300000300000300000F082
S1130B207F00E07F006000003000003000003000F3
S1130B3000F07F00E07F0008F07F00F07F0060009D
S1130B4000300000300000300000F07F00E07F0043
S1130B500A800F00E03F0060300030600030600029
S1130B60306000306000603000E03F00800F00091A
S1130B70F0FF07F0FF076060003060003060003075
S1130B806000707000E03F00C00F0009801F00E0AB
S1130B903F00707000306000306000306000303022
S1130BA000F0FF07F0FF0706F07F00F07F00600011
S1130BB00030000030000030000008C03100E06365
S1130BC000306300306300306600306600303E0061
S1130BD0601C0006300000FE3F00FE7F0030600015
S1130BE030600030600008F01F00F07F00006000FB
S1130BF0006000006000003000F07F00F07F00091A
S1130C00100000F00000E00700003E00006000005B
S1130C103E00E00700F000001000000E300000F07D
S1130C200300C03F00007800007C00800700F00053
S1130C3000F00000C00700003C00007000C03F004E
S1130C40F0030030000009104000306000F078002C
S1130C50C01D00000700C01D00F0780030600010C7
S1130C60400009100000F00000E0070600BF070084
S1130C70F001003F00E00700F00000100000083021
S1130C807000307800307C00306600306300F06122
S1130C9000F060007060000102205B0B00BB00BE2E
S1130CA000C100C100C100C100D600D600D600DDDD
S1130CB000E400E400E400E900F000F300F300FEC7
S1130CC001090114011F012C01370142014D015892
S1130CD0016301660166016601660166016F016FC9
S1130CE0017C0189019801A701B201BD01CC01D9A0
S1130CF001E001E901F602010210021D022C023793
S1130D00024602530260026F027C0289029C02A91D
S1130D1002B802C502C502C502C502C502C502C5A4
S1130D2002D002DB02E602F102FC03050310031BFE
S1130D30031E03250330033303460351035C036797
S1130D400372037B0384038D039803A303B203BDDF
S1130D5003C8010000017E010A0C00120012008C7D
S1130D600160001800C60020012001C00003F80043
S1130D70060301040301040603F8000200048003CF
S1130D800320002000200001800105FC0002010274
S1130D90010201FC000504010401FE01000100013F
S1130DA00584014201220112010C010584000201A3
S1130DB012011201EC00066000500048004400FEDD
S1130DC0014000059E00120112011201E20005F823
S1130DD000140112011201E0000502008201620008
S1130DE01A00060005EC00120112011201EC0005C4
S1130DF01C0022012201A2007C00019801040200CF
S1130E00620112000C0006C001780046004600781A
S1130E1000C00106FE011201120112011C01E000D2
S1130E200778008400020102010201020184000724
S1130E30FE0102010201020102018400780005FEA4
S1130E4001120112011201120105FE011200120029
S1130E50120002000778008400020102012201222C
S1130E6001E40006FE011000100010001000FE0155
S1130E70030201FE01020104000102010201FE005D
S1130E8006FE012000300048008400020105FE0136
S1130E90000100010001000107FE010600180060C6
S1130EA00018000600FE0106FE010600180060009E
S1130EB08001FE010778008400020102010201841E
S1130EC000780005FE012200220022001C000778A1
S1130ED00084000201020102038404780406FE0176
S1130EE02200220062009C000001068C0012011204
S1130EF00122012201C40007020002000200FE01D7
S1130F0002000200020006FE0000010001000100D0
S1130F1001FE00060E0070008001800170000E00CA
S1130F2009060078008001780006007800800178C6
S1130F3000060006860148003000300048008601A3
S1130F4007020004000800F0010800040002000683
S1130F5082014201220112010A01060105C0002892
S1130F600128012801F00105FF0108010801080119
S1130F70F00005F000080108010801900005F000E8
S1130F80080108010801FF0105F0002801280128D3
S1130F9001B000040800FE010900090005F0000882
S1130FA00508050805F80305FF0108000800080006
S1130FB0F00101F9010300040804F90305FF0140ED
S1130FC00060009000080101FF0109F80108000811
S1130FD0000800F001080008000800F00105F8010D
S1130FE0080008000800F00105F0000801080108E5
S1130FF001F00005F807080108010801F00005F0F8
S113100000080108010801F80704F80110000800AD
S1131010080004300128014801C800040800FE004B
S11310200801080105F800000100010001F80105AC
S113103018006000800160001800077800800160DB
S1131040001800600080017800050801900060002D
S11310509000080105080070048003700008000473
S11310608801480128011801AF40A0A6A4A2EEC837
S11310702F24AC00F80007060504030201008518BC
S11310806F136A13651360135B13561351134C13D8
S1131090F21AEA1AF01AEE1AEC1AE51AE01ADB1A36
S11310A0D61AEA140A150515FF144A18FC1AF41A7C
S11310B0541971196C19661962195E197413501553
S11310C04715581540153B15951390138B1386132C
S11310D081137B1375132715741384157C159317CB
S11310E08E178B1781177717D713CF13CA136F1562
S11310F06A156115C0145919B4142B18271821182E
S113110018181118741385188218EF13F613E513C1
S11311107413741317151015C51AB31AA01A8E1A5E
S1131120781A691A551A411A331A241A151A061A02
S1131130F719E819D919CA19B6199D198419761914
S1131140741395139013A613AB13B013B51327158B
S113115058155015471540153B15361531152C15E6
S1131160271520151A1508180118F314DD13CA13CE
S11311707C14701474132D1424141B1417140E14DB
S11311800614741374137413011BF7149514871441
S1131190821468145D147413FF13F6137413741318
S11311A074136C19661962197918CB176F186418BF
S11311B055184A183E1830187413F417EA17E21732
S11311C0D5179E179913C117B717AB179617741332
S11311D07413401938192A191D190F190419FB1809
S11311E0F218E318D518C618BA18B318AC189F1813
S11311F0931889184819741374136F1764175317C5
S113120046173B172B171B170C17FC16EC16DC168E
S1131210CC16BC16AC169E16901681167216651660
S113122058164C164016341627161D161316061695
S1131230FB15EE15E315D615FB15C915E315741347
S1131240741384157C1576157413581453144E14A2
S1131250491444143F143A143514581550154715BD
S113126040153B15361531152C15C015B615AE15A0
S1131270A6159D1595158C15271584157C157615C1
S113128074137413AB14A214E014DA14CE141D1BDB
S1131290171B79180E1B0C1B0A1BC513C113BA1399
S11312A03F1338132E134613261374137413D01AD2
S11312B00C13FF127413F812EA12D912CC1274131D
S11312C074137413C612436C6561720044697361CC
S11312D0726D2074696D6572004E6F207369676E5C
S11312E0616C2064697361726D004D616E75616C2F
S11312F02064697361726D005265626F6F7400528D
S1131300454D4F56452050524F5053005741524E71
S1131310494E47202D2045726173657320736574AF
S113132074696E6773004F7074696F6E73005472E2
S113133069636F7074657200517561642050005167
S1131340756164205800426C616E6B00332E39560F
S113135000332E385600332E375600332E365600BF
S1131360332E355600332E345600332E3356003385
S11313702E32560000323630487A00313834487AFA
S1131380003934487A003434487A003231487A00DB
S11313903130487A0035487A004D50553630353072
S11313A0204C50463A003137487A003237487A00A8
S11313B03338487A003637487A007369676E616C4F
S11313C0006C6F7700686967680048696768004166
S11313D0726D61626C650041726D65640053796E73
S11313E063205243005265765363616C6564005315
S11313F063616C6564005265766572736564004E62
S11314006F726D616C005069746368557000536944
S11314106465776179730041667400496E7665721C
S113142074656400566572746963616C00466F721A
S113143077617264004F555438004F555437004F4C
S1131440555436004F555435004F555434004F55BC
S11314505433004F555432004F55543100284469D9
S11314607361726D656429002841726D6564290099
S1131470666F72207374617475732E005072657395
S11314807300446F6E6500486F6C64206173207351
S1131490686F776E004E6F205258207369676E61D3
S11314A06C0073657474696E67730055706461745D
S11314B0696E670043616C2E206661696C65640027
S11314C04553432043616C69627261746500486FDF
S11314D06C6420737465616479005265736574008B
S11314E04F70656E4165726F320044697361726D4D
S11314F06564004C6F770042617474657279004DC5
S11315006F64656C004C6F7374004572726F720087
S11315105369676E616C004E6F00456C65762E00F2
S11315205468726F742E004E6F6E650041555833C7
S113153000415558320041555831004765617200E9
S113154052756464657200456C657661746F7200EF
S113155041696C65726F6E005468726F74746C6567
S1131560005371727453696E650053696E65004C63
S1131570696E656172004D6F746F7200442E53651D
S113158072766F00412E536572766F00414C205085
S11315906974636800414C20526F6C6C0041636352
S11315A0506974636800416363526F6C6C004779DF
S11315B0726F596177004779726F5069746368007C
S11315C04779726F526F6C6C00503220536F757292
S11315D0636520423A00503120536F757263652071
S11315E0423A00503220566F6C756D653A005032A5
S11315F020536F7572636520413A00503120566F55
S11316006C756D653A00503120536F7572636520B7
S1131610413A005032205A206163633A005031202D
S11316205A206163633A0050322050697463682021
S1131630414C3A00503120506974636820414C0099
S1131640503220526F6C6C20414C3A005031205281
S11316506F6C6C20414C3A005032205961772067FE
S113166079726F3A00503120596177206779726F2F
S11316703A005032205069746368206779726F3A77
S1131680005031205069746368206779726F3A00A2
S1131690503220526F6C6C206779726F3A0050316F
S11316A020526F6C6C206779726F3A00503220526E
S11316B075642E20766F6C756D653A00503120523A
S11316C075642E20766F6C756D653A005032204536
S11316D06C652E20766F6C756D653A00503120452F
S11316E06C652E20766F6C756D653A005032204122
S11316F0696C2E20766F6C756D653A00503120410F
S1131700696C2E20766F6C756D653A005468726F43
S113171074746C6520637572766500503220546869
S1131720722E20766F6C756D653A005031205468C6
S1131730722E20766F6C756D653A005032204F66BC
S1131740667365743A0050312E6E204F6666736579
S1131750743A0050312E6E2025206F662074726119
S11317606E733A005031204F66667365743A0044D4
S113177065766963653A0050312E6E202D20503213
S1131780005031202D2050312E6E00503200503147
S11317902E6E005031005072657365743A004C6FC0
S11317A077205620416C61726D3A00414C20636F82
S11317B072726563743A004779726F204C50463AEE
S11317C0004163632E204C50463A0050574D20721E
S11317D06174653A0044697361726D2074696D6562
S11317E03A005361666574793A00436F6E747261AE
S11317F073743A004F7269656E746174696F6E3AFE
S113180000467574616261004A522C53706B746DAA
S113181000587472656D65005370656B7472756DF4
S113182000532D4275730050574D004350504D00E6
S11318305669626520646973706C61793A00547208
S1131840616E732E2050316E3A005472616E73696A
S113185074696F6E0050726F66696C6520436861CD
S11318606E2E3A0043682E206F726465723A0050FF
S1131870574D2073796E633A00525820747970651D
S11318803A004F4E004F4646005961772074726902
S11318906D3A00596177204920726174653A0059A4
S11318A061772049204C696D69743A005961772049
S11318B0493A0059617720503A00506974636820AE
S11318C07472696D3A005069746368204175746F6D
S11318D04C766C3A005069746368204920726174D4
S11318E0653A0050697463682049204C696D6974D5
S11318F03A00506974636820493A00506974636817
S113190020503A00526F6C6C207472696D3A005228
S11319106F6C6C204175746F4C766C3A00526F6C2E
S11319206C204920726174653A00526F6C6C2049D6
S1131930204C696D69743A00526F6C6C20493A000E
S1131940526F6C6C20503A00416363205665727488
S113195020503A00496E762E0043616C2E0041639C
S1131960630059617700506974636800526F6C6C4E
S1131970004779726F0032302E204572726F7220E8
S11319806C6F670031392E20506F732E20536572AF
S1131990766F207472766C2E202825290031382E1B
S11319A0204E65672E20536572766F207472766CB4
S11319B02E202825290031372E20536572766F207A
S11319C0646972656374696F6E0031362E204F55F9
S11319D05438204D697865720031352E204F5554A6
S11319E037204D697865720031342E204F555436B6
S11319F0204D697865720031332E204F55543520BF
S1131A004D697865720031322E204F555434204D83
S1131A10697865720031312E204F555433204D6959
S1131A207865720031302E204F555432204D69783C
S1131A30657200392E204F555431204D69786572F6
S1131A4000382E20466C696768742070726F66696E
S1131A506C65203200372E20466C696768742070EC
S1131A60726F66696C65203100362E204C65766590
S1131A706C206D6574657200352E2053656E736F2E
S1131A80722063616C6962726174696F6E00342ED6
S1131A9020537469636B20706F6C61726974790090
S1131AA0332E20526563656976657220696E7075A0
S1131AB0747300322E2052656365697665722073F3
S1131AC06574757000312E2047656E6572616C0017
S1131AD041626F72740053617665004465662E003E
S1131AE04261636B004D656E750045004400430020
S1131AF0420041004A69747465723A00506F733A47
S1131B0000426174746572793A0030002E0050729C
S1131B106F66696C653A004D6F64653A005665728C
S1131B2073696F6E3A202020312E32204233000137
S1131B30010101010101FFFFFFFF0101FF01FF019D
S1131B400100010201020000010200010201000281
S1131B50020100E17A0841C3F59040295C1F4071FD
S1131B603DCA3F52B89E3F0000803F0000803F00C6
S1131B7000803F0000B841AE4739413333BB406673
S1131B80664640C3F5E83FCDCCAC3F52B89E3F001B
S1131B9000803F030F1B27007F010028007F010006
S1131BA00A007D01000A0004010002007F01000A0E
S1131BB0817F010000007F010028007F01000A00EE
S1131BC07D01000A0004010002007F01000A817FF8
S1131BD0010000007F01003C007F010028007D011E
S1131BE000190004010002817F010000007F010050
S1131BF032000000000000000000000000000000AF
S1131C0000000000000000000000000000000000D0
S1131C1000000000000002010102837D01000001B8
S1131C2063010032837D010000837D010000007D9B
S1131C30010064007D0100640002010100837D0154
S1131C400000837D010000837D010000837D01008D
S1131C5000837D010000837D01000000020101007A
S1131C600002010100000201010000020101000064
S1131C700201010000020101000002010100000252
S1131C800101000002010100000201010000020143
S1131C9001000002010100000F01010F837D01001A
S1131CA000000F01010F837D010000000F01010FEF
S1131CB0837D010000000F01010F837D010000E21C
S1131CC000000000000000000000000000380000D8
S1131CD00000000000000000000000440044004434
S1131CE000440044004400440044004400440044D0
S1131CF0004400EE000000EE000000EE000000EEE4
S1131D000000000001010100830001039C007D012B
S1131D1003648D008D008D008D008D008D008D007D
S1131D208D00000000000000000000000000000022
S1131D30000000000000000000000000000000009F
S1131D40000000040101020002010102000401017B
S1131D500400010101000007010104002801000042
S1131D6001630100320001010100000101010000D2
S1131D700000000000050101001C320100240001E4
S1131D80010101007F01001E00080101000006019D
S1131D90010300070101020007010107010A010014
S1131DA00700030104003E00760069007400690026
S1131DB0000000004400000000007C00000035002A
S1131DC00000000025002500250000001101000D81
S1131DD01216191C1F21232628292B2D2F303233AC
S1131DE0353638393A3B3D3E3F404142434445460F
S1131DF04748494A4B4C4D4D4E4F50515152535305
S1131E00545555565757585859595A5A5B5B5C5C48
S1131E105D5D5E5E5E5F5F5F6060606161616262C6
S1131E20626262636363636363636464646464647B
S1131E306464640002030506080A0B0D0E101113F6
S1131E40141617191A1C1D1F202223252628292B96
S1131E502C2D2F303233343637383A3B3C3D3F401B
S1131E6041424344464748494A4B4C4D4E4F5051DA
S1131E70525354545556575858595A5A5B5C5C5DE2
S1131E805E5E5F5F60606061616262626363636340
S1131E90636464646464646411241FBECFEFD0E19E
S1131EA0DEBFCDBF14BE88E10FB6F8948093600006
S1131EB0109260000FBE15E0A0E0B1E0E8E5F3EA9F
S1131EC002C005900D92A631B107D9F728E0A6E12A
S1131ED0B5E001C01D92A839B207E1F70E94B61F10
S1131EE00C94AA510C94000000000895FDDFFCDF5F
S1131EF0FBDFFADF0895CF935898C6E70E94880F56
S1131F00589ACAE70E94880F8A95B1F7CF9108952D
S1131F1000C000C000C000C000C000C000C000C0BD
S1131F200000CA95A9F70895F62EEF93FF93AF9397
S1131F30BF93CF93DF930F931F932F933F934F93AD
S1131F405F936F937F93E82FF92F8F939F93A191C2
S1131F50B191A65CB040AF93BF93A7707A2FA191C3
S1131F60B191AE5BB040AF93BF93A7706A2FA191BC
S1131F70B191A65BB040AF93BF93A7705A2FA191C4
S1131F80B191AE5AB040AF93BF93A7704A2FA191BD
S1131F90B191A55AB040AF93BF93A7703A2FA191C6
S1131FA0B191AD59B040AF93BF93A7702A2FA191BF
S1131FB0B191A559B040AF93BF93A7701A2FA191C7
S1131FC0B191AD58B040AF93BF93A7700A2F972F2C
S1131FD00E940211F0FC469A0E940E11962F0E9454
S1131FE00211F1FC449A0E940E11952F0E940211D5
S1131FF0F2FC429A0E940E11942F0E940211F3FCEB
S1132000439A0E940E11932F0E940211F4FC149A19
S11320100E940E11922F0E940211F5FC159A0E9443
S11320200E11912F0E940211F6FC459A0E940E1186
S1132030902F0E940211F7FC479A0E940E110E94F1
S1132040E1100E94E1100E94E110BF91AF910E9443
S1132050FB100A2FBF91AF910E94FB101A2FBF9162
S1132060AF910E94FB102A2FBF91AF910E94FB10E9
S11320703A2FBF91AF910E94FB104A2FBF91AF91AD
S11320800E94FB105A2FBF91AF910E94FB106A2F40
S1132090BF91AF910E94FB107A2FCFEFD0E00024C4
S11320A0715019F446980C94571000C000C0615048
S11320B019F444980C945E1000C000C0515019F4F7
S11320C042980C94651000C000C0415019F4439824
S11320D00C946C1000C000C0315019F414980C9486
S11320E0731000C000C0215019F415980C947A1094
S11320F000C000C0115019F445980C94811000C020
S113210000C0015019F447980C94881000C000C016
S11321100E94EA10C150D00911F00C9450109F9104
S11321208F917F916F915F914F913F912F911F916B
S11321300F91DF91CF91BF91AF91FF91EF910895EE
S11321400F931F932F930CEF18E00024803071F04D
S1132150813079F0823081F0833089F0843091F0DD
S1132160853099F08630A1F08730A9F0469A0C9416
S1132170CE10449A0C94CE10429A0C94CE10439AEA
S11321800C94CE10149A0C94CE10159A0C94CE1074
S1132190459A0C94CE10479A0C94CE1000C000C0FF
S11321A000C000C000C000C06150700919F420E0F4
S11321B028B922B90150100989F72F911F910F9165
S11321C008950F9305E600C000C000C00150D9F780
S11321D00F9108950F9309E000C000C000C00150A2
S11321E0D9F7000000C000C00F91089500C000C0DE
S11321F000C000C00895B695A795B695A795B69565
S1132200A7950895C7E09770C92731F00E94F6108A
S1132210CA9509F0FBCF00C000000895C92FC7700C
S113222031F00E94F610CA9509F0FBCF00C0089562
S1132230CF93DF93CDB7DEB72C970FB6F894DEBFFC
S11322400FBECDBF26E0AE014F5F5F4F6BE380ED65
S11322500E94D82A898190E0982F88272A81820FAA
S1132260911D36E0959587953A95E1F798878F8388
S11322708B8190E0982F88272C81820F911D56E046
S1132280959587955A95E1F79195819591099A8746
S113229089878D8190E0982F88272E81820F911D48
S11322A076E0959587957A95E1F79C878B872091C1
S11322B05506AEE3B5E043E024029001112480E02A
S11322C090E022523F4FF901E80FF91FE491EE0F1D
S11322D0FF0B41E050E04C0F5D1FE40FF51F4681FA
S11322E057814D935D9301968330910561F72C9648
S11322F00FB6F894DEBF0FBECDBFDF91CF91089526
S11323001F93CF93DF930E9418118091D40780FD0F
S113231005C01092BC071092BB070EC08091BD0788
S11323209091BE072091C1073091C207821B930B85
S11323309093BC078093BB0720915506C7EBD7E069
S1132340AEE3B5E083E028029001112480E090E040
S113235024533F4F69917991F901E80FF91F1491C2
S11323604D915C911197461B570B1403B001159FB7
S1132370700D11246D937D9301968330910551F76F
S11323806091BD077091BE078091BB079091BC0717
S1132390681B790B882777FD8095982F0E94744FCE
S11323A02091BD053091BE054091BF055091C005F7
S11323B00E94714E0E94414F709317056093160559
S11323C0DF91CF911F9108951F93CF93DF9300D096
S11323D000D000D0CDB7DEB71A8219821C821B82CE
S11323E01E821D82811172C010E20E94181189811F
S11323F09A8120913E0530913F05820F931F9A8365
S113240089838B819C812091400530914105820F05
S1132410931F9C838B838D819E81209142053091F3
S11324204305820F931F9E838D838FE493EC019762
S1132430F1F700C000001150C1F6FE0131969E0173
S1132440295F3F4F80819181409645E0959587951E
S11324504A95E1F781939193E217F30799F78981FC
S11324609A819093B8078093B7078B819C8190934E
S1132470BA078093B90780915506992787FD9095EF
S1132480FC01EE0FFF1FE80FF91FE253FF4F4491C9
S11324902D813E814203C001439F900D11249093EE
S11324A0BE078093BD078091D40782608093D407D0
S11324B00E94BE192B9A9FE724E84EE191502040D8
S11324C04040E1F700C000002B9876C08091D4070B
S11324D081FF72C01092C0071092BF0710E20E94E1
S11324E018118091BF079091C00720914205309147
S11324F04305820F931F9093C0078093BF078FE417
S113250093EC0197F1F700C00000115041F780915E
S11325105506992787FD9095FC01EE0FFF1FE80FE4
S1132520F91FE253FF4F44912091BF073091C00738
S1132530205F3F4FB5E035952795BA95E1F7420303
S1132540C001439F900D11249093C0078093BF074F
S113255097FF32C02091BD073091BE07A901481BE7
S1132560590BCA01959587959093C2078093C1072B
S1132570281B390B3093BC072093BB078091D407E9
S113258081608093D4070E94BE192B9A5FE784E888
S11325909EE1515080409040E1F700C000002B982C
S11325A085E026960FB6F894DEBF0FBECDBFDF914F
S11325B0CF911F910C942C3826960FB6F894DEBF59
S11325C00FBECDBFDF91CF911F91089541E06BE61F
S11325D080ED0E94C12A48E06CE180ED0C94C12A90
S11325E08FEF80937E0010927B00089580937C008F
S11325F086EC80937A0080917A0086FDFCCF089562
S1132600CF92DF92EF920F93CF93DF93CBE0D0E0A2
S11326101F9B7FC00E94801160E070E0CB010E948C
S1132620392D21972097A1F720E030E040E052E4D3
S11326306091B9057091BA058091BB059091BC0574
S11326400E94714E0E94414FEB0120E030E040E8CF
S113265052E46091B5057091B6058091B7059091EB
S1132660B8050E94714E0E94414F6B01D7FD06C010
S1132670C134D1052CF0C0E4D0E002C0C0E0D0E009
S1132680D7FC08C081E8C816D10434F080E8C82E0D
S1132690D12C02C0C12CD12C27E330E042E050E021
S11326A069E071E08CE090E00E946328EE24E394FA
S11326B000E420E840E060E080E091E00E948027B0
S11326C005E125E146E166E380E091E00E94802790
S11326D008E320E448E060E480E091E00E94E22620
S11326E000E220E640E260E280E091E00E94E2261F
S11326F001E028E04C2F6C2D80E091E00E94D2276D
S113270080E091E00E94502680E091E00E948226C1
S11327107DCFDF91CF910F91EF90DF90CF9008950F
S11327209091D707E92FFF27E7FDF095E852F84F7E
S113273080839F5F93311CF49093D70703C083E198
S11327408093D7070C94BE19AF92BF92CF92DF92B9
S1132750EF92FF920F931F93CF93DF93B12C98EDD9
S1132760C92E97E0D92E24E1A22E1F9B4DC01C999F
S113277009C0F6012A2D11922A95E9F71092D7077C
S11327800E94BE191E9903C0BA94B7FCB12C1D99BE
S113279006C0B3948EE08B1514F48FE0B82E00E0DD
S11327A010E0C0E0D0E0EB2CFF24E7FCF094F7014C
S11327B0E353FA4F7F01F701EC0FFD1FE55FFD4F77
S11327C08081992787FD9095980140E050E067E962
S11327D07CE0855E9E4F0E9463282196065F1F4F12
S11327E0C530D10541F783E00E946D3580E091E06A
S11327F00E948226FFE72AE186E0F15020408040D3
S1132800E1F700C00000B1CFDF91CF911F910F918C
S1132810FF90EF90DF90CF90BF90AF9008950E940B
S113282034351F9BFAC01C9B0E94114C0E947C4BA8
S113283020E030E040E050E067E97CE082E790E0AF
S11328400E9463282AE030E040E050E067E97CE041
S113285080E290E00E94632824E130E040E050E010
S113286067E97CE083E790E00E9463282EE130E092
S113287040E050E067E97CE083E290E00E94632856
S113288020E030E046E450E067E97CE08DE690E04B
S11328900E9463282AE030E046E450E067E97CE0E7
S11328A08EE690E00E94632824E130E046E450E0A4
S11328B067E97CE08FE690E00E9463282EE130E037
S11328C046E450E067E97CE080E790E00E946328FA
S11328D080917408909175084AE066E775E00E945B
S11328E0465120E030E045E250E067E97CE00E9498
S11328F0744680917808909179084AE066E775E01B
S11329000E9446512AE030E045E250E067E97CE06D
S11329100E94744680917A0890917B084AE066E7A9
S113292075E00E94465124E130E045E250E067E959
S11329307CE00E94744680917C0890917D084AE076
S113294066E775E00E9446512EE130E045E250E032
S113295067E97CE00E94744680917E0890917F082C
S11329604AE066E775E00E94465120E030E044E624
S113297050E067E97CE00E94744680918008909161
S113298081084AE066E775E00E9446512AE030E09B
S113299044E650E067E97CE00E9474468091820836
S11329A0909183084AE066E775E00E94465124E16D
S11329B030E044E650E067E97CE00E947446809190
S11329C08408909185084AE066E775E00E944651C4
S11329D02EE130E044E650E067E97CE00E94744672
S11329E029E330E040E050E069E071E08CE090E001
S11329F00E94632827E330E04EE650E067E97CE07C
S1132A008CE390E00E94632880E091E00E945026CD
S1132A1080E091E00E94822604CF0895CF9380E065
S1132A2091E00E948226C1E01F9BE7C00E944929D1
S1132A300E94801120E030E045E250E067E97CE04C
S1132A408AE190E00E94632820E030E04DE450E009
S1132A5067E97CE08EE190E00E9463282DE030E09D
S1132A6045E050E067E97CE08BE190E00E94632858
S1132A7027E130E045E050E067E97CE08CE190E05C
S1132A800E94632821E230E045E050E067E97CE001
S1132A908DE190E00E9463284AE066E775E080914A
S1132AA08F05909190050E9446512DE030E048E258
S1132AB050E067E97CE00E9474464AE066E775E00E
S1132AC080919105909192050E94465127E130E052
S1132AD048E250E067E97CE00E9474464AE066E719
S1132AE075E080919305909194050E94465121E2EE
S1132AF030E048E250E067E97CE00E9474464AE036
S1132B0066E775E080913E0590913F050E9446512D
S1132B102DE030E040E550E067E97CE00E94744637
S1132B204AE066E775E080914005909141050E9476
S1132B30465127E130E040E550E067E97CE00E943F
S1132B4074464AE066E775E080914205909143053A
S1132B500E94465121E230E040E550E067E97CE024
S1132B600E94744629E330E040E050E069E071E0FF
S1132B708CE090E00E94632827E330E04CE650E0CC
S1132B8067E97CE08CE390E00E94632827E330E06F
S1132B904BE450E067E97CE089E190E00E9463281F
S1132BA080E091E00E94502680E091E00E9482261D
S1132BB0C1110E943B3B1C9910C00E943B3B2FE378
S1132BC082E49FE0215080409040E1F700C0000083
S1132BD00E94762980E00E94E4111D990CC02FE325
S1132BE082E49FE0215080409040E1F700C0000063
S1132BF081E00E94E411C0E017CFCF910895BF9205
S1132C00CF92DF92EF92FF920F931F93CF93DF93B4
S1132C1000D000D0CDB7DEB780E091E00E948226DC
S1132C2020E030E040E050E067E97CE088E091E0BB
S1132C300E9463282CE030E040E050E067E97CE04B
S1132C408AE091E00E94632828E130E040E050E00F
S1132C5067E97CE08BE091E00E94632828E130E0A2
S1132C6048E550E067E97CE087E190E00E94632852
S1132C702BE330E040E050E069E071E089E090E06F
S1132C800E94632827E330E04AE050E067E97CE0F3
S1132C908EE090E00E9463284091F605552747FD99
S1132CA05095425C5F4F0CE02DE261E080E090E0E3
S1132CB00E9403364AE066E775E080912105909111
S1132CC022050E94465128E130E04EE650E067E9D3
S1132CD07CE00E9474468091F6058130D9F42CE0A2
S1132CE030E04DE450E067E97CE088E190E00E9448
S1132CF0632880911C0590911D054AE066E775E004
S1132D000E9446512CE030E04EE650E067E97CE05A
S1132D100E94744680912105909122051816190687
S1132D204CF028E130E04DE250E067E97CE080E3DC
S1132D3090E031C0843691054CF028E130E04DE25A
S1132D4050E067E97CE082E390E025C02091FC0537
S1132D50332727FD30958217930749F428E130E0A3
S1132D604DE250E067E97CE081E390E014C0821713
S1132D7093074CF428E130E04DE250E067E97CE051
S1132D8083E390E008C028E130E04DE250E067E9D9
S1132D907CE084E390E00E94632880912005811107
S1132DA026C124E230E040E050E067E97CE085E8B9
S1132DB090E00E9463280E94514E7C0164E670E01A
S1132DC00E948B508B014AE066E775E0C8010E94BF
S1132DD04651AE014F5F5F4F67E97CE00E94254595
S1132DE04AE066E775E0C8010E94465124E230E0FB
S1132DF04DE250E067E97CE00E9474462CE9200330
S1132E006001219FD00C1124CE0CDF1CE980FF242B
S1132E10E7FCF0948DE2E80EF11C24E230E0A70117
S1132E2067E97CE08CE091E00E946328AE014F5F8B
S1132E305F4F67E97CE08AE095E00E9425450981BF
S1132E40AE014F5F5F4F67E97CE08CE095E00E9444
S1132E502545B980112707FD10958AE0C816D104CD
S1132E6040F04AE066E775E0C6010E944651A701BA
S1132E7016C0A701400F511F24E230E067E97CE04F
S1132E808DE091E00E9463284AE066E775E0C601A0
S1132E900E944651A7014B0D511DB7FC5A95400F96
S1132EA0511F24E230E067E97CE00E94744680917F
S1132EB0FD05813009F0EEC0E12C0AE226E44BE086
S1132EC06DE180E091E00E944C27EE24E39426E437
S1132ED04BE06DE180E091E00E94802720E030E04B
S1132EE040E151E4609144057091450580914605A7
S1132EF0909147050E9428506B017C0180918F05B9
S1132F00909190052091910530919205820F931F25
S1132F102091930530919405820F931F63E070E034
S1132F200E949F5077FF03C07195619571098827AE
S1132F3077FD8095982F0E94744F9B01AC01C701C7
S1132F40B6010E94714E20E030E040E251E40E945C
S1132F50D94E6B017C0120E030EC49E754E40E9437
S1132F60245087FF09C0C0924405D0924505E092E1
S1132F704605F09247050CC080E090ECA9E7B4E464
S1132F808093440590934505A0934605B093470567
S1132F9060914405709145058091460590914705DF
S1132FA00E94414F6B017C014AE066E775E0C6016F
S1132FB00E944651AE014F5F5F4F63E771E00E948C
S1132FC0254589819A819695879500E410E0081B30
S1132FD0190B4AE066E775E0C6010E94465124E1F8
S1132FE030E0A80163E771E00E94744653C0809109
S1132FF0200583FF13C025E230E04FE050E069EE86
S113300073E086E890E00E94632825E230E04FE414
S113301050E069EE73E08FE091E03AC080912005C2
S113302081FF13C025E230E04EE150E069EE73E029
S11330308BE490E00E94632825E230E047E350E00F
S113304069EE73E080E191E023C08091200580FF68
S113305013C025E230E04BE050E069EE73E089E60E
S113306090E00E94632825E230E042E550E069EEFA
S113307073E08EE091E00CC08091200582FF0AC0CD
S113308025E230E049E150E069EE73E082E190E04E
S11330900E94632880E091E00E94502680E091E045
S11330A00E9482260F900F900F900F90DF91CF9186
S11330B01F910F91FF90EF90DF90CF90BF900895F4
S11330C0AF92BF92CF92DF92EF92FF920F931F9332
S11330D0CF93DF93D090D607F090FE05A090D5074C
S11330E01092D6071092FE051092D507D0E0C0E0EA
S11330F01F9BD2C0C111D2C080E091E00E94822601
S113310092E0C92E10E061E1610FEE24E39408E23D
S113311028E240E080E091E00E94802786E2B82E19
S1133120B10E20E3210F03E044E16B2D80E091E038
S11331300E94E22628E3210F69E2610F06E045E1DF
S113314080E091E00E94E22601E022E045E16B2D5F
S113315080E091E00E94D22763E3610F24E045E020
S113316080E091E00E94D227CA9411F014E3CBCFFF
S113317029E330E040E050E069E071E08CE090E069
S11331800E9463280E947C4B809178089091790872
S11331908033984F3CF08091780890917908813D74
S11331A097406CF0D1110BC02BE230E040E150E0CD
S11331B069EE73E087E890E00E94632868C080911C
S11331C0780890917908843F91403CF48091780884
S11331D0909179088D309E4FE4F480917A08909113
S11331E07B08843F91403CF480917A0890917B085D
S11331F08D309E4F74F480917C0890917D08843FBB
S113320091409CF480917C0890917D088D309E4F74
S113321064F02BE230E049E050E069EE73E088E8C6
S113322090E00E946328D1E032C0809178089091A8
S1133230790897FF03C081E08093D60780917A08CC
S113324090917B0897FF03C081E08093FE058091F5
S11332507C0890917D0897FF03C081E08093D50797
S113326080917808909179081816190684F4809151
S11332707A0890917B08181619064CF480917C0802
S113328090917D08C1E0181619060CF0C0E080E0AA
S113329091E00E9450262CCFCC2339F12BE230E070
S11332A048E250E069EE73E089E890E00E94632808
S11332B080E091E00E94502680E091E00E94822606
S11332C08FE794E82EE1815090402040E1F700C060
S11332D00000DF91CF911F910F91FF90EF90DF904D
S11332E0CF90BF90AF900C94BE19D092D607F092B5
S11332F0FE05A092D507DF91CF911F910F91FF900A
S1133300EF90DF90CF90BF90AF9008950F931F93ED
S1133310CF93DF931F92CDB7DEB78C0169830E94F0
S11333207B516981861741F0C8010F90DF91CF91DD
S11333301F910F910C9483510F90DF91CF911F91A6
S11333400F910895EF92FF920F931F93CF93DF9302
S1133350EC018B017A01E80EF91ECE15DF0539F078
S11333606991C8010E9486190F5F1F4FF6CFDF9144
S1133370CF911F910F91FF90EF900895F8944FE132
S113338052E060E070E08DEC95E00E94A219789420
S113339008952F923F924F925F926F927F928F92F5
S11333A09F92AF92BF92CF92DF92EF92FF920F93D0
S11333B01F93CF93DF93CDB7DEB7C554D1400FB67B
S11333C0F894DEBF0FBECDBF40914607CF5BDE4F02
S11333D04883C154D1404AE450E067E477E08FE881
S11333E097E00E9434512FE536E0AE014F5C5E4F0A
S11333F0CE0101966DE1F901DC01762F01900D9269
S11334007A95E1F78696235E3F4F8417950799F7DF
S11334104E0183E1880E911C5E0194E1A90EB11C5A
S11334206E01E5E1CE0ED11CCE014696CF5CDE4F97
S113343099838883C153D1408E01025E1F4FFE01E0
S11334407D96C75CDE4FF983E883C953D140069665
S1133450CD5CDE4F99838883C353D1403297C35CDC
S1133460DE4FF983E883CD53D1400297C95CDE4F28
S113347099838883C753D1403297C55CDE4FF98363
S1133480E883CB53D1400297CB5CDE4F998388838A
S1133490C553D1407E0197E1E90EF11C3E01E5E000
S11334A06E0E711C81E090E08C0F9D1F835B9E4F1C
S11334B0CE5BDE4F99838883C254D140FE0131969E
S11334C0C15CDE4FF983E883CF53D14082E0582EAC
S11334D04424439449E150E0B301C80148970E9451
S11334E03451F4013080F5012081F6013081CF5C44
S11334F0DE4FE881F981C153D1402080F30136FECB
S113350002C0508201C0108248E050E0B701C801F7
S11335100196CC5BDE4F2883C454D140CB5BDE4F95
S11335203883C554D1400E94345180E090E0CB5B95
S1133530DE4F3881C554D140CC5BDE4F2881C45462
S1133540D140C15CDE4FE881F981CF53D140E80F0F
S1133550F91F468D4D3011F44FE0468F02968830A6
S1133560910579F7F40130FE06C030FF02C05082A5
S113357003C0408201C01082F50120FF06C020FE76
S113358002C0508203C0408201C01082F60131FEA5
S113359006C031FF02C0508203C0408201C01082C5
S11335A0CF5CDE4FE881F981C153D14021FF06C0D1
S11335B021FE02C0508203C0408201C01082F70184
S11335C032FE06C032FF02C0508203C0408201C0F6
S11335D01082CB5CDE4FE881F981C553D14022FFD4
S11335E006C022FE02C0508203C0408201C0108285
S11335F0C55CDE4FE881F981CB53D14033FE06C070
S113360033FF02C0508203C0408201C01082C95CF3
S1133610DE4FE881F981C753D14023FF06C023FE62
S113362002C0508203C0408201C01082C35CDE4FDE
S1133630E881F981CD53D14034FE06C034FF02C085
S1133640508203C0408201C01082CD5CDE4FE8810D
S1133650F981C353D14024FF06C024FE02C0508226
S113366003C0408201C01082C75CDE4FE881F9814B
S1133670C953D14035FE06C035FF02C0508203C095
S1133680408201C01082F80125FF06C025FE02C059
S1133690508203C0408201C01082C15CDE4F888129
S11336A09981CF53D1408696C15CDE4F998388833C
S11336B0CF53D14096E2890E911CE6E2AE0EB11CC6
S11336C0F6E2CF0ED11CCF5CDE4F88819981C153C5
S11336D0D1408696CF5CDE4F99838883C153D14015
S11336E00A5D1F4FC75CDE4FE881F981C953D140A1
S11336F0B696C75CDE4FF983E883C953D140CD5CED
S1133700DE4F88819981C353D1408696CD5CDE4FCC
S113371099838883C353D140C35CDE4FE881F98128
S1133720CD53D140B696C35CDE4FF983E883CD53C5
S1133730D140C95CDE4F88819981C753D1408696B8
S1133740C95CDE4F99838883C753D140C55CDE4F83
S1133750E881F981CB53D140B696C55CDE4FF9833D
S1133760E883CB53D140CB5CDE4F88819981C5532C
S1133770D1408696CB5CDE4F99838883C553D14074
S113378096E2E90EF11CE6E26E0E711CCE5BDE4F92
S113379088819981C254D1400817190709F09ACE3B
S11337A08FE291E0FE013196AFE5B6E001900D9213
S11337B00197E1F7CF5BDE4F9881C154D1409093DC
S11337C08E0786E38093CD05CB5BDE4F0FB6F8946E
S11337D0DEBF0FBECDBFDF91CF911F910F91FF9040
S11337E0EF90DF90CF90BF90AF909F908F907F909D
S11337F06F905F904F903F902F900895CF93DF93F9
S1133800CDB7DEB72C970FB6F894DEBF0FBECDBF91
S11338108091F605898380915A068A838091F70501
S11338208B838091F8058C838091F9058D83909129
S1133830D6079E839091FE059F839091FA05988701
S11338409091FB05998720915E062A879091FC054B
S11338509B8739E0FE013196A6EFB5E001900D9209
S11338603A95E1F720935A0690935E06883019F44E
S113387087E08093FA0587E38093CD052C960FB6F5
S1133880F894DEBF0FBECDBFDF91CF910895E091D4
S11338905B06E73028F4F0E0E25FFA4F808101C074
S11338A087E080935B06E0915C06E73028F4F0E063
S11338B0E25FFA4F808101C087E080935C0688E371
S11338C08093CD050895EEE5F6E080818093D607D8
S11338D0108289E38093CD05089580915E068093DC
S11338E0D5078AE38093CD0508950F931F93CF9353
S11338F0DF9392E1EFEFF5E0DF01292F1D922A9586
S1133900E9F7E1E1F6E0DF011D929A95E9F720E39A
S113391031E0EFE5F6E0DF01A9011D92415050408E
S1133920E1F7E3E8F6E0C7E9D7E00FE917E072E36F
S11339309FE06CE944E69F012E51310952E3D9011D
S11339407C93285E3F4FD9019C932C5F3F4FD90154
S11339509C9322503109D9019C939083699324E666
S1133960D8014D938D01B696B7E0E33BFB0719F7F9
S1133970813061F008F4CEC0823009F487C183300D
S113398009F045C281E08093570641C280935706EF
S11339905093FF059AE0909300069093010622E06D
S11339A0209302069093030650930506909306060F
S11339B09093070620930806909309064CE34093DE
S11339C00B0698E290930C0639E130930D06209390
S11339D00E06509310069093110663E1609312064D
S11339E05EE05093130623E020931406809315069B
S11339F090931706609318065093190620931A069D
S1133A0080931B0640931D0690931E0630931F0659
S1133A10209320068EE180932206ECE7F6E034E65C
S1133A2042E021E0DF01549794E63C9311963C93E5
S1133A3016974C93589681E02C932083B69657E0C2
S1133A40E431F50779F710926B0610926C062CEEB0
S1133A5020936D0632EE30936E0630936F0668ED58
S1133A60609370068093730680937906809374063E
S1133A7080937A0680937506809376062093910648
S1133A803093920610929306109294062EE120939E
S1133A90950648E2409396068093970680939D0688
S1133AA08093980680939E0680939B0680939C0641
S1133AB01092B7061092B80654E15093B9062093B9
S1133AC0BA063093BB066093BC068093BF0680930E
S1133AD0C5068093C0068093C6068093C106809372
S1133AE0C2065093DD062093DE061092DF06109284
S1133AF0E0062093E1064093E2068093E306809378
S1133B00E9068093E4068093EA068093E7068093AF
S1133B10E806A9C031E03093570688E28093FF0598
S1133B209AE0909300069093010622E02093020607
S1133B3090930306809305069093060690930706D8
S1133B4020930806909309064CE340930B06809358
S1133B500C0699E190930D0620930E0650931006DF
S1133B608093110673E1709312066EE0609313065E
S1133B7053E0509314063093150680931706709300
S1133B8018066093190650931A0630931B06409347
S1133B901D0680931E0690931F06209320068EE137
S1133BA080932206ECE7F6E024E632E081E0DF01D0
S1133BB0549794E62C9311962C9316973C931E9647
S1133BC08C9316968C9315978C9316968C931597C5
S1133BD08C9316968C9315978C9316968C931597B5
S1133BE08C9311968C9315968C938083B696A7E04C
S1133BF0E431FA07E1F62FE020936B0684E1809329
S1133C006C0641EF40936D063CEE30936E06E8ED92
S1133C10E0936F067EEC70937006409391063093A8
S1133C209206409393063093940668E26093950657
S1133C3052E3509396064093B7063093B806209308
S1133C40B9068093BA06E093BB067093BC06209332
S1133C50DD068093DE062093DF068093E006609302
S1133C60E1065093E2068BE48093050790930607E0
S1133C708093290790932A078093530790935407BE
S1133C808CE980936E0790937107C1C091E0909383
S1133C90570638E23093FF054AE04093000640930C
S1133CA00106809302064093030630930506409371
S1133CB006064093070680930806409309066CE3C2
S1133CC060930B0630930C0649E140930D068093F4
S1133CD00E065093100630931106E3E1E0931206AA
S1133CE07EE07093130653E05093140690931506E8
S1133CF030931706E09318067093190650931A062A
S1133D0090931B0660931D0630931E0640931F0676
S1133D10809320064EE14093220620936806209368
S1133D2069068093630620938E0620938F06809302
S1133D3089062093B4062093B5068093AF0640937A
S1133D406B0630936C0661EF60936D065CEE5093E6
S1133D506E069093710690937706909372069093F3
S1133D607806809373068093790680937406809313
S1133D707A0690937B0690937C0672EE709391067C
S1133D8078ED709392066093930650939406909303
S1133D90970690939D069093980690939E06809321
S1133DA0990680939F0680939A068093A006909329
S1133DB0A1069093A2064093B9063093BA06809365
S1133DC0BF068093C5068093C0068093C606909371
S1133DD0C7069093C8061092D5068BE48093E1063B
S1133DE02093E2069093E7069093E80680930507F4
S1133DF0209306078093290720932A07809353076B
S1133E00209354078CE980936E0720937107DF9108
S1133E10CF911F910F910895CF93DF938FE192E09B
S1133E20EDECF5E0DF019C011D9221503040E1F7FB
S1133E308AE38093CD0582E08093F60594E0909325
S1133E40FA0521E0209357068093F7059093F8052F
S1133E5080935B0687E080935C0693E090935A0618
S1133E6080935D068EE18093580682E38093FC057F
S1133E7080E890E09093BE078093BD0784E280932E
S1133E805606E8EFF0E0CEECD5E0A7EAB7E086EA24
S1133E909EE0249129938D939D93319631E0E030F7
S1133EA0F307B9F78EEB9AE09093A8078093A707DE
S1133EB0E3E8F6E0C7E9D7E06FE977E052E32FE003
S1133EC04CE934E6CF014E97DC015C934896DC0163
S1133ED02C930496DC012C930297DC012C93208311
S1133EE04993DB013D93BD01B696B7E0E33BFB0785
S1133EF049F780E00E94751C84E080935E06DF91A0
S1133F00CF910895CF93DF931F92CDB7DEB74FE1E2
S1133F1052E060E070E08DEC95E00E946B5180917E
S1133F20CD05873381F028F4853349F0863349F091
S1133F3012C0893361F048F08A3379F00CC00E94D2
S1133F40C9190E94FE1B0E94471C0E94631C0E9408
S1133F506D1C81E003C00E940C1F80E089830E94D5
S1133F60BE1989810F90DF91CF910895CF93DF938C
S1133F70CDB7DEB7AC970FB6F894DEBF0FBECDBF9A
S1133F800E94602F53E0852E912C19A618A663E099
S1133F90762E18E0188E312C1F8A1E8A1FA21EA2AC
S1133FA01DA21CA21BA21AA219A218A21F8E412C88
S1133FB0512C1CA61BA61B8A1A8A198A188A1A86CF
S1133FC019861E8E1D8E1A8E198E1F861E8671E608
S1133FD0C72E71E5D72EE12CF12C1D821E821F8283
S1133FE0188619821A821B821C8221E02B8700E02A
S1133FF01C8E212C1D861C86B12C809118058F5F88
S11340008093180580911808882331F04E895F89C0
S11340104F5F5F4F5F8B4E8B2E853F852C343C4426
S113402028F1288D2F5F288F4E895F8950931D05B5
S113403040931C058091F705823011F421E02C8F08
S11340400E94514E209153063091540682179307D3
S113405020F480912005886003C080912005877F2B
S1134060809320051F8A1E8A1F861E86812F90E05A
S11340708B30910508F072C0FC01E25CFF4F0C9498
S1134080F45083B1807F803F41F080916E00816065
S113409080936E0013E0188E61C010926E0081E070
S11340A085BB5CC08091FD0781114DC001114BC0DF
S11340B080911905882309F451C014E051C00E946D
S11340C0FF1516E01A8E198E4BC01F9B47C015E0D2
S11340D045C0388D3A3020F08091FD058823B1F138
S11340E01F9B36C0498D5A8D43315341B8F113E0BB
S11340F037C08091FD0781112DC001112BC0809123
S11341001905882369F118E029C00E946E2819E076
S113411027C08091FD0781111FC001111DC080912E
S113412019058823E9F010E019C029988091200529
S11341308460809320052B980E94B23A0E94172F26
S113414014E0188E0DC014E000E00AC017E006C0A9
S11341501AE006C018E001C010E000E0A12C02C083
S1134160AA24A394809119058823A1F080912005A5
S113417082608093200580915706813081F480917C
S1134180200582FD0CC08091200584608093200569
S11341902B9805C0809120058D7F80932005809108
S11341A0200583FD08C08091200581FD04C0809115
S11341B0200580FF06C080911E0584FF02C0299A55
S11341C001C0299880915706813009F09CC08091E4
S11341D078089091790881349C4F3CF0809178085C
S11341E090917908803C934014F180917A089091E1
S11341F07B0881349C4F3CF080917A0890917B0835
S1134200803C9340A4F080917C0890917D08813497
S11342109C4F3CF080917C0890917D08803C9340B9
S113422034F08091740890917508C39724F0198232
S11342301A821B821C828091200529813A814B813C
S11342405C8182FF1EC02C343C444105510508F4B6
S113425061C0809178089091790880349C4F0CF06B
S113426059C0809120058B7F809320050E94CB2923
S11342702B9A0E94172F8091FD0581114FC010E0E9
S11342804DC0223E344E41055105A0F0809178087E
S113429090917908813C93406CF080912005846072
S11342A0809320052B9882E00E94901319821A8231
S11342B01B821C8280911F0580FD0BC080915806D3
S11342C0882339F02BA53CA52C343C4428F03394A6
S11342D001C0312C1CA61BA640915806232D30E0AA
S11342E0842F992787FD909528173907F4F04E31CC
S11342F0E4F0809120058460809320052B9884E06D
S11343000E94901312C0809120058B7F809320051A
S11343102B9A0BC0312C1CA61BA607C0312C1CA643
S11343201BA619821A821B821C828091FD07882396
S113433009F476C10E947C4B8091740890917508B1
S1134340C2975CF4809120058E7F8093200588E1DC
S1134350A0E2B8E01D928A95E9F78091FA05880FEA
S1134360990BFC01EA58F74F20813181253F3140F8
S113437014F022E006C0208131812D303E4F24F01C
S113438021E02093CB0702C01092CB07F3E07F1605
S113439029F02091FB0538A5321751F17090CB0715
S11343A041E0741661F052E07516B1F071101DC051
S11343B010922305109225051092240516C024E0BE
S11343C0209323052091FC05332727FD3095309356
S11343D025052093240509C029E020932305A4E69C
S11343E0B0E0B0932505A09324052091FB0528A7F0
S11343F03091CB073B8F31E04B8D471101C030E04A
S11344002091FB0521111BC0FC01EA58F74F808164
S1134410918188519C4F97FF02C080E090E00A96FA
S113442064E170E00E949F50653671050CF4BEC3D0
S113443084E690E09093220580932105BBC380918C
S1134440240590912505909322058093210533231B
S113445099F04B8D842F992787FD9095FC01EE0FE1
S1134460FF1FE80FF91FE70DF11D77FCFA95E050E7
S1134470FF4FE491E0932305222349F053EC2503F5
S1134480C00111244A895B898417950718F03323E6
S113449009F4A9C080912305811105C01092250556
S11344A01092240522C0843031F48091FC059927B0
S11344B087FD909504C0893039F484E690E09093A8
S11344C025058093240511C0813079F48091FC0581
S11344D0992787FD90952091240530912505821711
S11344E093071CF488E0809323058091230588308A
S11344F079F48091FC05992787FD909520912405F6
S113450030912505281739071CF481E08093230591
S1134510809123058B7F823091F4809124059091C2
S113452025050197909325058093240518161906EF
S113453034F01092250510922405109223058091E1
S113454023058130C1F480912405909125050196BD
S113455090932505809324052091FC05332727FD9E
S11345603095821793073CF030932505209324055A
S113457084E080932305809123058830C1F48091E1
S11345802405909125050197909325058093240592
S11345902091FC05332727FD3095281739073CF077
S11345A0309325052093240584E08093230580918E
S11345B023058B7F8330A9F48091240590912505F0
S11345C001969093250580932405843691054CF03B
S11345D0A4E6B0E0B0932505A093240589E0809378
S11345E023051B8A1A8A20912305222331F0809106
S11345F0210590912205009739F48CE0ECE2F8E073
S113460011928A95E9F70DC0293019F08436910585
S113461041F48CE0A0E2B8E01D928A95E9F701C06C
S11346207B8E0E944F329D8B8C8B84159505B8F43C
S113463080E090E0A1E0B0E084199509A109B109F6
S11346402C893D89820F931FA11DB11D2D813E81AF
S11346504F815885280F391F4A1F5B1F0CC08C8956
S11346609D89841995092D813E814F815885280F94
S1134670391F411D511D2D833E834F8358878091DF
S1134680B2003BA1831B29813A814B815C81280FB5
S1134690311D411D511D29833A834B835C83309125
S11346A0B2003BA38091B2004EA1841B28893989B2
S11346B0280F311D398B288B3091B2003EA3809195
S11346C0B2004DA1841B29853A85280F311D3A87F4
S11346D029873091B2003DA38091B2004F8D841B95
S11346E02A893B89280F311D3B8B2A8B3091B200DC
S11346F03F8F8091B20048A1841B2E853F85280FEF
S1134700311D3F872E873091B20038A38091B200CB
S113471049A1841B298D3A8D280F311D3A8F298F89
S11347203091B20039A38091B2004AA1841B2BA519
S11347303CA5280F311D3CA72BA73091B2003AA30A
S11347408091B2004CA1841B2D8D3E8D280F311D0C
S11347503E8F2D8F3091B2003CA34D8D5E8D8091A4
S11347601E0553FF02C0806101C08F7E80931E0529
S1134770288939892D32314020F0198A188A222457
S1134780239429853A852632364290F08091190582
S113479081110BC080915706813039F48091200536
S11347A082FD03C083E00E94901381E08093190589
S11347B00E9449290E9480110E944F3216BC209108
S11347C01A0530911B058217930748F420911A05A6
S11347D030911B05DC01A21BB30B9D0108C0209185
S11347E01A0530911B05FC01E21BF30B9F0190930A
S11347F01B0580931A058091000890910108A90176
S113480060E070E0029718F42A013B0111C0409067
S1134810000850900108612C712C2FE0440C551CA9
S1134820661C771C2A95D1F7440E551E661E771E0A
S11348301092010810920008C301B2010E94392DA0
S1134840C301B2010E94A9468091FD07882309F49F
S1134850C0C08091F705823064F421E02B872D815C
S11348603E814F815885243C324A4105510508F464
S11348701B86B1100EC0823009F0A0C180911B08C4
S113488090911C0821E02B87843C924A40F41B86BB
S11348903BC0823009F092C14B854423A9F158EC06
S11348A0C5165BE4D506E104F10408F097C186E27D
S11348B0C8168FE3D806E104F10408F093C191E22D
S11348C0C91696E3D906E104F10408F08FC1ADE5F9
S11348D0CA16AFE2DA06E104F10408F073C1BCECD5
S11348E0CB16B9E2DB06E104F10408F06FC1BB2486
S11348F0B394E4EECE16E5E2DE06E104F10488F5B5
S11349009AE0892E912C34C0FDECCF16F6E4DF0634
S1134910E104F10408F05EC124EAC21628E3D206D9
S1134920E104F10408F05AC133E3C3163FE2D306AD
S1134930E104F10408F056C145E7C41648E2D40680
S1134940E104F10408F052C1BB24B39456E6C51641
S113495053E2D506E104F10440F488E0882E912C5A
S113496007C0B9E08B2E912C03C0A7E08A2E912CAE
S1134970109219050E944F329D8B8C8B8091F70504
S11349808230B1F4BB20A1F02C8D211118C080918C
S1134990FD07811101E01092FD070E9421351A865E
S11349A019861D821E821F8218861D861C8611C0D0
S11349B01A8619861D821E821F8218860AC01A86CC
S11349C019861D821E821F8218861C8E31E03C8748
S11349D0B12C8091FD07811108C08091F7058230C8
S11349E009F0C3C04C854111A1C08091FD07882303
S11349F019F01092FD0701E09091F705E3E6F6E067
S1134A0020E030E080E0923029F44081442309F42E
S1134A10F3C00BC0913039F44081411106C04B857D
S1134A2041110EC0E9C0191624F44081141644F053
S1134A300FC091110DC04B85411102C0222041F0DD
S1134A4041E050E0022E01C0440F0A94EAF7842B9F
S1134A502F5F3F4FB69628303105A9F6222011F07A
S1134A60198A188A51E08516910419F5923009F5CE
S1134A709DE8491690E259066104710490F07301AF
S1134A806201A2E64A16A1E55A066104710430F0F7
S1134A90F1E6CF2EF1E5DF2EE12CF12C21E02C877D
S1134AA008C0EDE8CE2EE0E2DE2EE12CF12C31E060
S1134AB03C878AA70E94A0480E94E43F0E94843F4A
S1134AC0909119058AA5911109C0AA20F9F08BEEDD
S1134AD09CE20197F1F700C000001AC0E3E6F6E09B
S1134AE020E030E09081923051F4D901AA0FBB1F2D
S1134AF0A857B74F4CE454E011965C934E932F5F44
S1134B003F4FB6962830310569F7DFCF0E94664CD7
S1134B108091F705823031F4181419041CF491E0E3
S1134B20891A910810921805212C1FC0BB2079F115
S1134B302D85222309F463C080911905811115C0C4
S1134B4080E090E02091FD0721110EC0853251E0F4
S1134B50950750F42091B2003FA1231B820F911DB1
S1134B604091B2004FA3EECF00E0181419047CF07A
S1134B70BB2069F02D8521110AC08091F705823090
S1134B8029F40E94343531E03D8701C01D868091AF
S1134B90200549A5481719F0111101C017E020910B
S1134BA0200529A77B8C4C885D8827CA7093220531
S1134BB06093210585E08093230549CC8824839460
S1134BC0912CD6CE57E0852E912C13C048E0842E2C
S1134BD0912C0FC033E0832E912C0BC024E0822E45
S1134BE0912C07C095E0892E912C03C086E0882E75
S1134BF0912CBB24B394BCCE211022CF16CF181411
S1134C0019042CF2BACF0F931F93CF93DF93C7E00D
S1134C10D0E0082F10E05C98C8010C2E02C09595D6
S1134C2087950A94E2F780FF02C0599A01C0599807
S1134C305C9A0E94740F219770F7DF91CF911F91B6
S1134C400F9108955F980C9403265F9A0C940326A1
S1134C50CF93C82F81E80E9422268C2FCF910C94E9
S1134C602226CF93DF935D985E9887E893E10197BE
S1134C70F1F700C000005E9AC8E6D0E1FE0184911D
S1134C800E9422262196F0E1C637DF07B9F780910A
S1134C9056060E94282688ECDF91CF910C94222698
S1134CA0DF92EF92FF920F931F93CF93DF93C6E7A8
S1134CB0D0E18C01FE018491806B0E94222680E069
S1134CC00E94222680E10E94222680EE0E94222653
S1134CD07801D12CF70181917F010E942526D3947C
S1134CE0F0E8DF12F7CF219600581F4F80E1CE374E
S1134CF0D80701F7DF91CF911F910F91FF90EF90AB
S1134D00DF90089520E034E0FC01A90111924150A4
S1134D105040E1F70895CF93DF93D0E08D2F806B5F
S1134D200E942226C0E08C2F8F700E9422268C2F96
S1134D3082958F7080610E94222680E00E94252641
S1134D40CF5FC03881F7DF5FD83041F7DF91CF9173
S1134D50089567FD36C04034A0F5342F3695369556
S1134D603695E62FF0E050E02223A9F020E8329FA8
S1134D70E00DF11D1124E80FF91F4095509547707F
S1134D80552781E090E0042E01C0880F0A94EAF7C9
S1134D909081982B15C020E8329FE00DF11D11245D
S1134DA0E80FF91F409550954770552781E090E032
S1134DB0042E01C0880F0A94EAF780959081982305
S1134DC0908308959F92AF92BF92CF92DF92EF9219
S1134DD0FF920F931F93CF93DF93EC01162FF42EC2
S1134DE0D22EA02FB0E0A41BB109B7FF03C0B19528
S1134DF0A195B109ED2DF0E0E11BF109F7FF03C026
S1134E00F195E195F109BB24B394EA17FB0714F07B
S1134E10B12C06C08D2DD02E082F812F1F2DF82EDA
S1134E20D11630F48F2DF02E082F812F1D2DD82E62
S1134E30AD2CA11AE02FF0E0EF19F109F7FF03C040
S1134E40F195E195F1099E2ECA2CC694F01610F442
S1134E5001E010C00FEF0EC02E2DBB2071F0412FCA
S1134E606F2DCE010E94A926C918C7FE02C0F00EFC
S1134E70CA0C1F5F1D1580F303C04F2D612FF1CFA6
S1134E80DF91CF911F910F91FF90EF90DF90CF9022
S1134E90BF90AF909F900895AF92BF92CF92DF9250
S1134EA0EF92FF920F931F93CF93DF936C01A42E85
S1134EB0F62EC22FD0E0C60FD11D10E0040F111D35
S1134EC08F2D90E08C179D0784F4BA2C8B2D90E0E5
S1134ED08017910744F42E2D4B2D6F2DC6010E948F
S1134EE0A926B394F3CFF394EBCFDF91CF911F9125
S1134EF00F91FF90EF90DF90CF90BF90AF90089507
S1134F009F92AF92BF92CF92DF92EF92FF920F9354
S1134F101F93CF93DF93EC01F62EB42E922E162F0F
S1134F20C22ED12CC60ED11CAA24AA94A00EA40E63
S1134F30812F90E08C159D0574F42E2D4B2D612F3F
S1134F40CE010E94A9262E2D4A2D612FCE010E944A
S1134F50A9261F5FEDCFDB2C10E00B0D111DCC2417
S1134F60CA94C90CCF0C8D2D90E08017910774F46E
S1134F702E2D4D2D6F2DCE010E94A9262E2D4D2DA7
S1134F806C2DCE010E94A926D394EDCFDF91CF9151
S1134F901F910F91FF90EF90DF90CF90BF90AF9053
S1134FA09F9008954F925F926F927F928F929F92FB
S1134FB0AF92BF92CF92DF92EF92FF920F931F9323
S1134FC0CF93DF93EC01962EA42EBB24B394B21A94
S1134FD0822E8194880C122F742E721AE42EF12CD6
S1134FE06701C20ED11C872D992787FD9095C8169D
S1134FF0D90644F0202F472D692DCE010E94A92601
S11350007394F1CF712C71160CF04CC0B7FC04C032
S1135010115083948394B80C7394872D880F8F5FF9
S1135020B80E6A2C611A6701C10ED11C17FDDA94FF
S1135030472C490C592C5718862D992787FD909594
S1135040C816D90674F0202F462D642DCE010E9477
S1135050A926202F462D652DCE010E94A9266394F2
S1135060EBCF6A2C67186701C70CD11C77FCDA9464
S1135070412E490C592C511A862D992787FD90955C
S1135080C816D9060CF4BFCF202F462D642DCE01AF
S11350900E94A926202F462D652DCE010E94A92607
S11350A06394EACFDF91CF911F910F91FF90EF901E
S11350B0DF90CF90BF90AF909F908F907F906F9034
S11350C05F904F900895880F991F82589F4EFC015E
S11350D0859194910C9446460C94464680E091E068
S11350E00E94822623E030E049E250E069EE73E05A
S11350F089E790E00E94632827E130E048E150E02E
S113510069EE73E08AE790E00E94632880912005AD
S113511083FF13C02BE230E04CE050E069EE73E013
S113512086E890E00E9463282BE230E040E550E0FE
S113513069EE73E086E790E041C08091200581FF2D
S113514013C02BE230E04CE150E069EE73E08BE4F5
S113515090E00E9463282BE230E046E350E069EEE1
S113516073E08CE490E02AC08091200580FF13C096
S11351702BE230E04AE050E069EE73E089E690E02B
S11351800E9463282BE230E041E550E069EE73E0D1
S113519087E390E013C0809120052BE230E082FF8A
S11351A007C044E150E069EE73E08BE890E006C08C
S11351B04CE150E069EE73E08AE890E00E946328D5
S11351C080E091E00C945026CF93DF93CDB7DEB707
S11351D02C970FB6F894DEBF0FBECDBF26E0AE010C
S11351E04F5F5F4F63E480ED0E94D82A898190E08D
S11351F0982F88272A81820F911D34E095958795F1
S11352003A95E1F79A8789878B8190E0982F8827D0
S11352102C81820F911D54E0959587955A95E1F75D
S113522098878F838D8190E0982F88272E81820F15
S1135230911D74E0959587957A95E1F79C878B8706
S113524020915506AFE8B5E043E024029001112413
S113525080E090E02F5B344EF901E80FF91FE491F0
S1135260EE0FFF0B41E050E04C0F5D1FE40FF51F04
S1135270468157814D935D9301968330910561F783
S11352802C960FB6F894DEBF0FBECDBFDF91CF9141
S113529008951F93CF93DF930E94E428209155062D
S11352A0C3ECD7E0AFE8B5E083E028029001112415
S11352B080E090E0215D344E69917991F901E80F25
S11352C0F91F14914D915C911197461B570B1403D0
S11352D0B001159F700D11246D937D930196833059
S11352E0910551F7DF91CF911F910895CF9386E0F7
S11352F0E3ECF7E0DF011D928A95E9F7C0E20E9432
S1135300E4284091C3075091C40780918F05909180
S11353109005480F591F5093C4074093C307209129
S1135320C5073091C6078091910590919205280F89
S1135330391F3093C6072093C5078091C707909102
S1135340C8076091930570919405860F971F9093F9
S1135350C8078093C707C15091F6E5E05595479576
S1135360EA95E1F75093C4074093C307F5E03595F8
S11353702795FA95E1F73093C6072093C507A5E072
S113538095958795AA95E1F79093C8078093C707E9
S1135390CF910C94BE192F923F924F925F926F92CD
S11353A07F928F929F92AF92BF92CF92DF92EF92B1
S11353B0FF920F931F93CF93DF93CDB7DEB765971B
S11353C00FB6F894DEBF0FBECDBF1E861D86188AA9
S11353D01F861A8A198A0E9476296091C3077091E0
S11353E0C407882777FD8095982F0E94744F69839E
S11353F07A838B839C836091C5077091C607882745
S113540077FD8095982F0E94744F6D837E838F83E0
S113541098876091C7077091C807882777FD8095A2
S1135420982F0E94744F69877A878B879C871D8A7F
S11354301B8AE12CF12C00E010E08091B2009D89E0
S1135440891BE80EF11CE091B200ED8BFCE4EF1631
S1135450FF0628F08B898F5F8B8BE12CF12C0E9447
S1135460E428FE0131966F01BFE82B2EB5E03B2EF8
S1135470CE010D965C011C8AF101819091901F016F
S113548020E030EC49E754E4F601608171818281C7
S113549093810E9428502B013C01B401882777FD99
S11354A08095982F0E94744F9B01AC01C301B201F7
S11354B00E94714E20E030E04AE754E40E94D94E45
S11354C0F60160837183828393830E94414FF501C7
S11354D0208131812617370711F000E010E0F50133
S11354E0619371935F01FC89FF5FFC8B84E0C80EBC
S11354F0D11CF33009F60F5F1F4F093C110520F052
S11355000E94762981E001C080E0E7E8F3E1319769
S1135510F1F700C00000811104C0FB89F63008F4E3
S11355208CCF65960FB6F894DEBF0FBECDBFDF916A
S1135530CF911F910F91FF90EF90DF90CF90BF908C
S1135540AF909F908F907F906F905F904F903F901F
S11355502F90089541E06BE680ED0E94C12A40E45B
S113556067E380ED0E94C12A46E080915A06481BF9
S11355706AE180ED0E94C12A48E16BE180ED0C9460
S1135580C12ACF93DF9300D0CDB7DEB74A836983B6
S11355900E94444D6981862F0E94944D4A81842F34
S11355A00E94944D0F900F90DF91CF910C94854DF4
S11355B0CF92DF92EF92FF920F931F93CF93DF93DB
S11355C000D01F92CDB7DEB7182FE22E4A835B833B
S11355D069830E94444D6981862F0E94944D81E025
S11355E0810F0E94834D4A81C42E5B81D52E00E039
S11355F010E0F12C0E151F0584F40F5F1F4F0E15DC
S11356001F0519F00E94B44D02C00E94CD4DF60151
S11356108083FFEFCF1ADF0AEDCF0F900F900F902A
S1135620DF91CF911F910F91FF90EF90DF90CF907A
S11356300C94854D4F925F926F927F928F929F92BE
S1135640AF92BF92CF92DF92EF92FF92CF93DF930C
S1135650CDB7DEB728970FB6F894DEBF0FBECDBF27
S11356606B017C018090C5059090C605A090C7058C
S1135670B090C8059B01AC010E94285020E030E0A6
S113568040E05FE30E9428509B01AC0160E070E0C1
S113569080E89FE30E94704E69837A838B839C83A6
S11356A04090C9055090CA056090CB057090CC0518
S11356B09B01AC01C501B4010E9428506D837E8317
S11356C08F839887A7019601C301B2010E942850D5
S11356D09B01AC016D817E818F8198850E94704E03
S11356E06093B1057093B2058093B3059093B405AC
S11356F0A7019601C501B4010E9428506B017C01E9
S113570029813A814B815C81C301B2010E942850F6
S11357109B01AC01C701B6010E94714E60939505CF
S113572070939605809397059093980528960FB6E5
S1135730F894DEBF0FBECDBFDF91CF91FF90EF9005
S1135740DF90CF90BF90AF909F908F907F906F909D
S11357505F904F900895CF92DF92EF92FF9269018C
S11357607A0125EF31EA4BE85CE30E942850A70157
S113577096010E9428506B017C0126EA3AE046E833
S11357805EE30E94245018169CF026EA3AE046E8AC
S11357905EEBC701B6010E94D54E87FF11C086EAB1
S11357A0C82E8AE0D82E86E8E82E8EEBF82E08C0A4
S11357B096EAC92E9AE0D92E96E8E92E9EE3F92EB0
S11357C0C701B601FF90EF90DF90CF9008958F92BC
S11357D09F92AF92BF92CF92DF92EF92FF920F937C
S11357E01F936B017C016091A5057091A6058091C2
S11357F0A7059091A805A70196010E94AB2B0091E3
S1135800260510912705209128053091290500933C
S1135810C5051093C6052093C7053093C8050091AC
S113582000051091010520910205309103050093B4
S1135830C9051093CA052093CB053093CC050E946B
S11358401A2B8091B1059091B205A091B305B09146
S1135850B4058093260590932705A0932805B0935B
S113586029058090950590909605A0909705B09095
S113587098058092000590920105A0920205B092CD
S113588003056091A9057091AA058091AB059091DB
S1135890AC05A70196010E94AB2B00912A0510913B
S11358A02B0520912C0530912D050093C5051093EF
S11358B0C6052093C7053093C8058092C905909208
S11358C0CA05A092CB05B092CC050E941A2B8090F9
S11358D0B1059090B205A090B305B090B405809244
S11358E02A0590922B05A0922C05B0922D0580914B
S11358F0950590919605A0919705B0919805809390
S1135900000590930105A0930205B09303056091EF
S1135910930570919405882777FD8095982F0E94B0
S1135920744FA70196010E94AB2B8092C5059092FB
S1135930C605A092C705B092C805C0902605D090B0
S11359402705E0902805F0902905C092C905D0925A
S1135950CA05E092CB05F092CC050E941A2B8091E7
S1135960B1059091B205A091B305B091B4058093AF
S11359702A0590932B05A0932C05B0932D058091B7
S1135980950590919605A0919705B09198058093FF
S1135990260590932705A0932805B09329051F9108
S11359A00F91FF90EF90DF90CF90BF90AF909F90BA
S11359B08F900895CF92DF92EF92FF9220E030E033
S11359C044EB52E40E9428506B017C0120E030E05B
S11359D0A9016091000570910105809102059091E3
S11359E003050E94D54E87FF18C020E030E0A901CE
S11359F0C701B6010E942450A701960118162CF481
S1135A0060E070E084E393E404C060E070E084E369
S1135A1093EC0E94704E6B017C01C701B601FF90AC
S1135A20EF90DF90CF90089560912A0570912B0537
S1135A3080912C0590912D050E94DA2C6093C1056C
S1135A407093C2058093C3059093C40560912605A5
S1135A507091270580912805909129050E94DA2CE0
S1135A606093990570939A0580939B0590939C0588
S1135A7008954F925F926F927F928F929F92AF920E
S1135A80BF92CF92DF92EF92FF920F931F93CF9327
S1135A90DF93CDB7DEB760970FB6F894DEBF0FBEC5
S1135AA0CDBF0E94724F69837A838B839C8320E8E5
S1135AB036E948E15AE40E94D94E6D877E878F8784
S1135AC0988B8091F70560915B06823039F084E011
S1135AD06802B00111246D58744E06C094E0690246
S1135AE0B00111246D5A744E44E050E0CE01019689
S1135AF00E942B5150905B06C980DA80EB80FC80B9
S1135B002EE3622E25E0722E05EB15E0D3016D9194
S1135B107D913D01882777FD8095982F0E94744FD1
S1135B204B015C01B7E05B16F1F020E030E040E8A7
S1135B305FE3C701B6010E94704EF80120813181F4
S1135B40428153810E942850A50194010E94704E05
S1135B50A70196010E94D94ED8016D937D938D9330
S1135B609C93139709C0B7FAB094B7F8B094F801AE
S1135B7080829182A282B3820C5F1F4FF4E46F167D
S1135B80F5E07F0619F623EC35EF48E25FE3609118
S1135B90B5057091B6058091B7059091B8050E943E
S1135BA028506D837E838F83988760939D057093BF
S1135BB09E0580939F059093A00523EC35EF48E262
S1135BC05FE36091B9057091BA058091BB0590912E
S1135BD0BC050E94285069877A878B879C876093CD
S1135BE0A1057093A2058093A3059093A4056091E9
S1135BF08F0570919005882777FD8095982F0E94D6
S1135C00744F2B013C016093A9057093AA058093FE
S1135C10AB059093AC05609191057091920588272E
S1135C2077FD8095982F0E94744F6B017C016093DF
S1135C30A5057093A6058093A7059093A8052091C8
S1135C403E0530913F054091400550914105E0915A
S1135C504205F0914305449F4001459F900C900CF0
S1135C601124B401882777FD8095982F229FA001E5
S1135C70239F500D500D11248A01222717FD2095D2
S1135C80322F600F711F821F931FEE9F9001EF9FB1
S1135C90300D300D11248901222717FD2095322F54
S1135CA0600F711F821F931F0E94724F4B015C0192
S1135CB020E034EF48E356E40E94245018160CF018
S1135CC06FC020E038E449EA56E4C501B4010E94FB
S1135CD0D54E87FF65C020E030E040E05FE360918F
S1135CE000057091010580910205909103050E94C1
