:100000000C94B2150C94C9410C9487410C949A42FB
:100010000C94D8150C944F420C94D8150C940C42A7
:100020000C94D8150C94D8150C94D8150C94D8159C
:100030000C94D8150C94D8150C94D8150C94D8158C
:100040000C94D8150C94D8150C9470410C94D815B8
:100050000C9468430C94D8150C94D8150C94D815AE
:100060000C94D8150C94D8150C94D8150C94D8155C
:100070000C94D8150C94D8150C94D815B92DC72DFF
:10008000C72DC72DBB2DC72DC72DC72DBD2DBF2DEE
:10009000C12DC32DC92D612EE42EE42E732E812E89
:1000A0008D2E882E9F2EAE2EB42EC72E5C4C5E4C0D
:1000B000604C624C644C664C684C684CB74CBB4C12
:1000C000BF4CC24CC64CCA4CCE4CD24CDF4CE34C5D
:1000D000E74CF04CF44CF84CFC4CF44DF84DFD4D15
:1000E000004E044E084E0C4E104E1D4E214E254E15
:1000F0002E4E324E364E3A4E414EF850FA50FD508A
:10010000FF5001510351055107510A510C510E5135
:10011000105113511551175119511B511D511F5198
:1001200021512351265128512A51C255A655A9556E
:10013000AC55AF55B255B555B855BB55FFFF01018C
:10014000FF01010101FF0101FFFFFF01FFFF01FFAF
:1001500001FFFF0101FFFFFFFFFFFF01FF0101FFA3
:100160000101FFFF01FFFF010101010101FFFF018B
:1001700001FF01010101FF01FF01FFFFFFFFFFFF81
:1001800001FF010100010201000200010201000261
:10019000000201010200000201010200000102014F
:1001A000000200010201000200020101020000023F
:1001B000010102000200010201000200010201002F
:1001C0000200010201000200010201000102030518
:1001D00000040607010200030405060700010203EC
:1001E000040506070502060105080307050102418B
:1001F000050D000F002200330044004F09010003E9
:100200000007000F001F000F000700030001000897
:100210001C001C001C001C007F003E001C0008008D
:100220000808001C003E007F001C001C001C001C75
:100230000005FF01FE007C00380010000D4000604A
:1002400000700078007C007E007F007E007C0078DB
:100250000070006000400001022D0D1D001F0044D1
:1002600000440044007D00AA00E3011C015D0192EE
:1002700001CB0204023D0900700000007000000084
:1002800070000000700000007000000070000000AE
:1002900070000000700000007000000E80FF010080
:1002A000F0FF0F00F8FF1F007C003E001E007800EA
:1002B0000E0070000E0070000E0070000E00700046
:1002C0001E0078007C003E00F8FF1F00F0FF0F00CA
:1002D00080FF01000B7000700070007000700070F3
:1002E0000078007000FCFF7F00FEFF7F00FEFF7FB4
:1002F000000000700000007000000070000000703E
:10030000000E000078001C007C001C007E000E0027
:1003100077000E0077000E8073000EC071000EE0B3
:1003200070001E7870001E3C7000FC1F7000F80703
:100330007000F0037000000070000E000038001C18
:100340000038001C0070000E0070000E0070000EDF
:100350001C70000E1C70000E1C70000E1C70000E35
:100360003E78001C373C00FCF33F00F8E31F00F030
:10037000C007001000E0010000F0010000FC0100D7
:1003800000FE010000DF010080CF0100E0C301009A
:10039000F0C10100F8C001007CC00100FEFF7F0039
:1003A000FEFF7F00FEFF7F0000C0010000C00100D3
:1003B00000C001000D00003800FE1F3800FE0F7065
:1003C00000FE0F70000E0E70000E0E70000E0E700C
:1003D000000E0E70000E1E78000E3C3C000EFC1F3E
:1003E000000EF80F000EE007000E00FE0300C0FF35
:1003F0000F00F0FF1F00F81C3E003C0C78001C0EA4
:1004000070001E0E70000E0E70000E0E70000E1E9C
:1004100078000E3C3C001EFC1F0000F80F0000E0BE
:1004200007000E0E0000000E0000000E0040000E3F
:100430000070000E007C000E007F000EC01F000E3A
:10044000F007000EFC00000E3F0000CE0F0000FE83
:10045000030000FE0000003E0000000E00C0070088
:10046000F0E11F00F8F33F00FC3F3C001E1F780046
:100470000E0E70000E0C70000E1C70000E18700036
:100480001E3C7800FC7F3C00F8F33F00F0E11F00C9
:1004900000C007000EE0070000F01F0000F83F78E2
:1004A000003C3C70001E7870000E7070000E707082
:1004B000000E7078000E7038001E303C007C381F33
:1004C00000F8FF0F00F0FF0300C07F0000010220D2
:1004D0005F1300C300CD00D400E7010C0128015FC9
:1004E0000187018E01A101B401D001F502020215BC
:1004F000021C02350254026D028902A502C402E008
:1005000002FF031B033A03590360036D038F03B11A
:1005100003D303EC041D04450464048604AB04C740
:1005200004E3050B052A053D05530575059105B640
:1005300005D505FD0616063E0660068206A706C618
:1005400006EE072207440769078B079B07B407C419
:1005500007E9080E081B083408500869088508A137
:1005600008B408D008E908F00900091C0923094E5D
:100570000967098609A209BE09D109EA09FD0A1617
:100580000A320A5D0A790A950AAE0ACA0AD10AED48
:100590000300000000000000000002FE6700FE678C
:1005A00000061F00001F00000000000000001F00E8
:1005B000001F00000C000400200400206400201F25
:1005C00000F80400260400206400201F00F8040046
:1005D00026040020040020000009E03000F0610043
:1005E000986100186300FFFF031863001862001889
:1005F0003E00181C0012780000FE010002010002FB
:100600000100020100FE4100787000001C0000079C
:1006100000E000003800000E1E00827F00804000D5
:10062000804000804000807F00001E000D001E0002
:100630003C3F00FC7100C66000C66000C661007EE1
:1006400063003C3600001C00801F00803700006003
:1006500000004000021F00001F000006C01F00F83D
:10066000FF003CE00107000703000601000406014B
:1006700000040300060700073CE001F8FF00C01F6C
:100680000009C600004400006C0000280000FF01C3
:10069000002800006C0000440000C600000C0003AD
:1006A00000000300000300000300000300F87F00C7
:1006B000F87F0000030000030000030000030000B7
:1006C00003000400000300F00300700000100006A7
:1006D000000300000300000300000300000300000B
:1006E0000300020070000070000800000300E00337
:1006F00000FC01803F00F00700FE00001F00000327
:1007000000000AF00F00FC3F000C300006600006FD
:1007100060000660000660000C3000FC3F00F00F37
:100720000008186000186000186000FE7F00FE7F5F
:1007300000006000006000006000090C7000067896
:1007400000066C000666000663008E6100FC600017
:10075000786000006000090C300006600006600050
:10076000866100866100866100CE73007C3F0038A0
:100770001E000A000700800700C00700F0060038CE
:1007800006001C0600FE7F00FE7F0000060000063B
:100790000009003000FE6000FE6000C66000C66018
:1007A00000C66000C63100863F00060F000AE00F59
:1007B00000F03F009C3000CC6000C66000C66000C6
:1007C000C66000C63100863F00000F000906000029
:1007D000064000067000067C00060F00C60300F607
:1007E00000003E00000E00000A381E007C3F00CED4
:1007F0007100C66000C660008661008661004E73AD
:10080000007C3F00381E000AF00000FC61008C6391
:10081000000663000663000663000633000C39001F
:10082000FC1F00F0070002707000707000040000F0
:100830000370F0037070000010000B0001008003D3
:1008400000800300C00600C00600600C00600C00C1
:100850003018003018001830001830000BC00C00A1
:10086000C00C00C00C00C00C00C00C00C00C00C0CC
:100870000C00C00C00C00C00C00C00C00C000B1819
:100880003000183000301800301800600C00600C88
:1008900000C00600C00600800300800300000100C5
:1008A000080C0000060000066700066700860100CD
:1008B000CE0000FC000038000010C00F00F03F0028
:1008C0003870000CC000848F00C69F016230012286
:1008D0002001222001221001E23F01E4BF010C208F
:1008E00000382000F03F00C00F000D0040000078ED
:1008F00000003F00C00700F806003E0600060600A4
:100900003E0600F80600C00700003F000078000027
:1009100040000AFE7F00FE7F00866100866100863F
:100920006100866100C661007C73003C3F00001ED0
:10093000000BE00700F81F001C38000C30000660B8
:1009400000066000066000066000066000062000E9
:100950000C30000CFE7F00FE7F0006600006600089
:100960000660000660000660000E70000C30003863
:100970001C00F80F00E0070009FE7F00FE7F00C6A4
:100980006000C66000C66000C66000C66000C66049
:1009900000C6600009FE7F00FE7F00860100860120
:1009A0000086010086010086010086010006000025
:1009B0000DE00700F81F003C3C000C30000E7000FA
:1009C000066000066000066300066300066300061A
:1009D00063000C3F000C3F000AFE7F00FE7F00C05A
:1009E0000000C00000C00000C00000C00000C00047
:1009F00000FE7F00FE7F0006066000066000FE7FAE
:100A000000FE7F00066000066000070060000060D6
:100A100000066000066000067000FE3F00FE1F003A
:100A20000BFE7F00FE7F00800300C00100E003009A
:100A3000700700381C001C38000E700006600002B1
:100A4000400009FE7F00FE7F0000600000600000A3
:100A500060000060000060000060000060000CFEAC
:100A60007F00FE7F000E0000380000E001008007DC
:100A700000000700E001003800000E0000FE7F00CB
:100A8000FE7F000AFE7F00FE7F000E00003C00009B
:100A9000E00000800300001E00007800FE7F00FEE2
:100AA0007F000DE00700F81F001C38000C30000626
:100AB00060000660000660000660000660000C3002
:100AC000001C3800F81F00E0070008FE7F00FE7FD2
:100AD000000603000603000603008E0300FC01006D
:100AE000F800000DE00700F81F001C38000C300073
:100AF00006600006600006600006E00106E0030CE8
:100B000030071C3806F81F06E007060BFE7F00FEC4
:100B10007F00860100860100860100860700CE0E58
:100B200000FC1C007870000060000040000B783072
:100B300000FC7000CE600086610086610086610066
:100B40008661008661000633000C3F00001E000C29
:100B5000060000060000060000060000060000FE79
:100B60007F00FE7F00060000060000060000060071
:100B7000000600000AFE0F00FE3F0000700000604B
:100B800000006000006000006000007000FE3F0098
:100B9000FE0F000D0200001E0000FC0000E003003C
:100BA000801F00007C00006000007C00801F00E0CF
:100BB0000300FC00001E0000020000110600007E81
:100BC0000000F80700803F00007800007C00C00FA4
:100BD000007E00000600007E0000E00700007E00AE
:100BE000007000807F00F807007E00000600000B08
:100BF0000240000660001E7800381C00E0070080FC
:100C00000100E00700381E001E7800066000024068
:100C1000000C0200000600001E0000780000E0004A
:100C200000C07F00C07F00E000007800001E0000D0
:100C30000600000200000B067000067800067C002B
:100C4000066E00066700C66300E660007660003E40
:100C500060001E60000E600005FFFF07FFFF070138
:100C60000004010004010004080300001F0000FE4E
:100C70000000F00700803F0000FC0100E0030000DE
:100C80000305010004010004010004FFFF07FFFF4A
:100C9000070C800000C000006000003800000C005D
:100CA000000600000600001C000038000060000084
:100CB000C000008000000C000002000002000002E2
:100CC000000002000002000002000002000002001A
:100CD0000002000002000002000002040100000304
:100CE000000007000004000008003C00307E0030D7
:100CF0006700306300306300303300E07F00E07F46
:100D00000009FF7F00FF7F0060200030600030603E
:100D100000306000707000E03F00C00F0008800FDE
:100D200000E03F0060300030600030600030600064
:100D300030600060300009801F00E03F00707000EC
:100D4000306000306000306000303000FF7F00FF16
:100D50007F0009800F00E03F006033003063003007
:100D60006300306300706300E06300C0330006304E
:100D70000000FE7F00FF7F0033000033000003000F
:100D80000009801F00E03F0670700630600630608A
:100D900006306006303007F0FF03F0FF0108FF7FE8
:100DA00000FF7F00600000300000300000300000D5
:100DB000F07F00E07F0002F67F00F67F0005000074
:100DC00006300006300006F6FF07F6FF0309FF7F36
:100DD00000FF7F00000600000700800F00C0380001
:100DE00070700030600010400002FF7F00FF7F0045
:100DF0000EF07F00F07F0060000030000030000047
:100E0000300000F07F00E07F006000003000003024
:100E10000000300000F07F00E07F0008F07F00F06D
:100E20007F00600000300000300000300000F07FE4
:100E300000E07F000A800F00E03F0060300030607B
:100E400000306000306000306000603000E03F0043
:100E5000800F0009F0FF07F0FF07606000306000BE
:100E6000306000306000707000E03F00C00F00098B
:100E7000801F00E03F007070003060003060003084
:100E80006000303000F0FF07F0FF0706F07F00F051
:100E90007F0060000030000030000030000008C01B
:100EA0003100E0630030630030630030660030667C
:100EB00000303E00601C0006300000FE3F00FE7F58
:100EC0000030600030600030600008F01F00F07FEC
:100ED00000006000006000006000003000F07F0053
:100EE000F07F0009100000F00000E00700003E0065
:100EF000006000003E00E00700F000001000000E5F
:100F0000300000F00300C03F00007800007C00804B
:100F10000700F00000F00000C00700003C00007077
:100F200000C03F00F00300300000091040003060B6
:100F300000F07800C01D00000700C01D00F0780020
:100F400030600010400009100000F00000E00706CB
:100F500000BF0700F001003F00E00700F0000010B4
:100F6000000008307000307800307C0030660030BF
:100F70006300F06100F060007060000102205F0B10
:100F800000C300C600C900D000DF00EA00FF010E68
:100F900001110118011F012A0139013E01450148D3
:100FA0000153015E01690174017F018C019701A267
:100FB00001AD01B801C301C601CB01D801E701F4BD
:100FC00001FD020E021B0228023702460251025C9A
:100FD000026B0278027F0288029502A002AF02BC77
:100FE00002CB02D602E502F202FF030E031B032826
:100FF000033B034803570364036B0376037D038CB1
:10100000039B03A003AB03B603C103CC03D703E0E8
:1010100003EB03F603F90400040B040E0421042C73
:1010200004370442044D0456045F04680473047ECC
:10103000048D049804A304AC04B704BA04C50100E9
:1010400000017E0103070000000700074000C801FF
:101050007800CE0178004E0008000518012401FF39
:10106000072401C4000A0C00120012008C01600069
:101070001800C60020012001C00007EC0012011278
:10108000012C01C000B000000101070003F80006B8
:101090000301040301040603F800050A0004001F0D
:1010A0000004000A0007200020002000FC012000AE
:1010B0002000200002000480030320002000200004
:1010C000018001050003C00030000C00030005FC96
:1010D00000020102010201FC000504010401FE01FD
:1010E000000100010584014201220112010C0105E9
:1010F0008400020112011201EC0006600050004859
:10110000004400FE014000059E0012011201120180
:10111000E20005F800140112011201E000050200CE
:10112000820162001A00060005EC00120112011291
:1011300001EC00051C0022012201A2007C000198A4
:10114000010200049803062000200050005000888F
:101150000088000750005000500050005000500020
:101160005000068800880050005000200020000435
:101170000200620112000C0008F800040172028AE9
:10118000028A027A0282007C0006C00178004600D2
:1011900046007800C00106FE011201120112011C76
:1011A00001E000077800840002010201020102014F
:1011B000840007FE0102010201020102018400789D
:1011C0000005FE01120112011201120105FE0112B9
:1011D00000120012000200077800840002010201E0
:1011E00022012201E40006FE011000100010001090
:1011F00000FE01030201FE010201040001020102DE
:1012000001FE0006FE0120003000480084000201BB
:1012100005FE01000100010001000107FE010600BA
:101220001800600018000600FE0106FE0106001806
:101230000060008001FE01077800840002010201C5
:1012400002018400780005FE012200220022001C19
:10125000000778008400020102010203840478047C
:1012600006FE012200220062009C000001068C00A4
:101270001201120122012201C40007020002000231
:1012800000FE0102000200020006FE000001000153
:1012900000010001FE00060E007000800180017058
:1012A000000E000906007800800178000600780032
:1012B00080017800060006860148003000300048B2
:1012C00000860107020004000800F0010800040085
:1012D00002000682014201220112010A01060103F5
:1012E000FF07010401040503000C003000C00000EA
:1012F000030301040104FF070710000800040002B3
:1013000000040008001000070004000400040004AA
:10131000000400040004020100020005C0002801CE
:1013200028012801F00105FF01080108010801F06A
:101330000005F000080108010801900005F0000810
:101340000108010801FF0105F0002801280128011A
:10135000B000040800FE010900090005F0000805BE
:1013600008050805F80305FF01080008000800F05B
:101370000101F9010300040804F90305FF0140001D
:1013800060009000080101FF0109F8010800080051
:101390000800F001080008000800F00105F8010845
:1013A0000008000800F00105F0000801080108012C
:1013B000F00005F807080108010801F00005F00039
:1013C000080108010801F80704F8011000080008E6
:1013D0000004300128014801C800040800FE00088C
:1013E00001080105F800000100010001F8010518DD
:1013F0000060008001600018000778008001600034
:1014000018006000800178000508019000600090DD
:1014100000080105080070048003700008000488BB
:1014200001480128011801AF40A0A6A4A2EEC82FD0
:1014300024AC00F8000706050403020100D320478E
:101440001A421A3D1A381A331A2E1A291A241A9CCB
:101450002394239A23982396238F238A23852380FA
:1014600023A61CC61CC11CBB1C9720A6239E23B40C
:1014700021D521D021CA21C621C221BE210C1D03A4
:101480001D141DFC1CF71C6D1A681A631A5E1A598C
:101490001A531A4D1AE31C4C1A401D381D471F429F
:1014A0001F3F1F351F2B1F9B1A931A8E1A2B1D26A9
:1014B0001D1D1D7C1CB921701C2D20292023201AE4
:1014C0002013200820D320D020B31ABA1AA91A0951
:1014D000194C1AD31CCC1C6F235D234A23382322BA
:1014E000231323FF22EB22E122CE22BF22B022A12E
:1014F000229222832274226522562242222922101D
:1015000022FB21E821DA214C1A4C1A4C1A4C1A14ED
:101510001D0C1D031DFC1CF71CF21CED1CE81CE33C
:101520001CDC1CD61C4C1A4C1AAF1CA11A8E1A3883
:101530001C2C1C4C1AE91BE01BD71BD31BCA1BC25B
:101540001BF81FF11FE71FE01FB31C511C431C3E7B
:101550001C241C191C4C1AC31ABA1A4C1A4C1A4CCB
:101560001AD021CA21C621C7209D1FBD20B220A3A9
:1015700020422032208720772066205320D31FC6A8
:101580001FBC1FB41FA71F701F711A931F891F7DD7
:101590001F681FA12199218B217E216E2154214B8F
:1015A00021422133212521142108210121FA20ED96
:1015B00020E120D720A9214C1A231F131F031FF558
:1015C0001EE51ED51EC51EB51EA51E951E871E79BD
:1015D0001E6A1E5B1E4E1E411E351E291E111E0454
:1015E0001EF61DE81DDB1DD01DC31DB81DAB1DD093
:1015F0001D9E1DB81D4C1A4C1A4C1A4C1A4C1A4CF4
:101600001A401D381D321D9319141C0F1C0A1C058D
:101610001C001CFB1BF61BF11B4C1A4C1A4C1A4CE1
:101620001A4C1A4C1A4C1A4C1A4C1A4C1A4C1A4C8A
:101630001A4C1A4C1A4C1AE31C401D381D321D4C12
:101640001A4C1A671C5E1C9C1C961C8A1CC723C162
:1016500023C720B823B623B423891A851A7E1A1704
:101660001A101A061A1E1AFE194C1A4C1A7A23E47A
:1016700019D7194C1AD019C219B119A4194C1AAB9F
:10168000234C1A9E194C1A4C1A4C1AB91BB01BA6A3
:101690001B9C1B921B881B801B751B6A1B5E1B52AD
:1016A0001B471B3C1B301B271B1C1B121B071BFF54
:1016B0001AF51AEA1ADF1AD61ACA1A4C1AD31C7A61
:1016C0001985194C1A5B1F4E1F4C1F4A1FA12199E7
:1016D000218B217E215F2154214B21422133212561
:1016E00021142108210121FA20ED20E120D720A991
:1016F00021231F131F031FF51EE51ED51EC51EB592
:101700001EA51E951E871E791E6A1E5B1E4E1E415B
:101710001E1E1E291E111E041EF61DE81DDB1DD0F7
:101720001DC31DB81DAB1DD01D9E1DB81D4C1A4CF0
:101730001A4C1A4C1A4C1A4C1A4C1A4C1A7218633E
:10174000185418451836182718181809184C1A4C28
:101750001A4C1A4C1A2D20292023201A2013200855
:101760002004206819561942192E191E190E194CF9
:101770001A05190119FD18F918F418EF18EA18E5F7
:1017800018E31C4C1A4C1A0519D218CA18DA180595
:10179000190119FD18F918F418EF18EA18E5189549
:1017A0001D8B1D831D7B1D6B1D631D5A1D481DE375
:1017B0001C0519D218CA18DA1805190119FD18F9EB
:1017C00018F418EF18EA18E518951D8B1D831D7481
:1017D0001D6B1D531D5A1D481DE31C4C1A4C1A4C01
:1017E0001A4C1A4C1AC718C418C118BE18BB18B81E
:1017F00018B518B218AE18A918A4189F189A1895F9
:101800001890188B188618811843682E3820467552
:101810006E6374696F6E3A0043682E372046756EAA
:101820006374696F6E3A0043682E362046756E63A6
:1018300074696F6E3A0043682E352046756E637486
:10184000696F6E3A0043682E342046756E63746982
:101850006F6E3A0043682E332046756E6374696F6D
:101860006E3A0043682E322046756E6374696F6E5F
:101870003A0043682E312046756E6374696F6E3A84
:10188000004158333A004158323A004158313A0049
:101890004745523A005255443A00454C453A0041BA
:1018A000494C3A005448523A004F55543A00506E51
:1018B0003A00383A00373A00363A00353A00343ABE
:1018C00000333A00323A00313A00437572766520AF
:1018D00044004375727665204300436F6C6C65630A
:1018E00074697665004155583300415558320041BE
:1018F00055583100474541520052554400454C452A
:101900000041494C00544852004352433A00476555
:101910006E65726963204375727665204400476581
:101920006E6572696320437572766520430050329C
:1019300020436F6C6C6563746976652043757276BD
:101940006500503120436F6C6C6563746976652067
:101950004375727665005032205468726F74746CEF
:1019600065204375727665005031205468726F743B
:10197000746C6520437572766500456172746820E9
:101980007265662E00566572742E20415020726575
:10199000662E00416C742E2044616D703A00436CD9
:1019A0006561720044697361726D2074696D65725E
:1019B000004E6F207369676E616C20646973617299
:1019C0006D004D616E75616C2064697361726D00AC
:1019D0005265626F6F740052454D4F56452050520C
:1019E0004F5053005741524E494E47202D204572CB
:1019F000617365732073657474696E6773004F70EB
:101A000074696F6E7300547269636F7074657200ED
:101A10005175616420500051756164205800426C1A
:101A2000616E6B00332E395600332E385600332E3C
:101A3000375600332E365600332E355600332E34AB
:101A40005600332E335600332E32560000323630D5
:101A5000487A00313834487A003934487A003434CE
:101A6000487A003231487A003130487A0035487A75
:101A7000004D505536303530204C50463A00736991
:101A8000676E616C006C6F77006869676800486911
:101A900067680041726D61626C650041726D6564DA
:101AA0000053796E63205243005265765363616C34
:101AB0006564005363616C6564005265766572739A
:101AC0006564004E6F726D616C0052696768742DB9
:101AD00046726F6E740052696768742D55700052BB
:101AE000696768742D4261636B0052696768742D81
:101AF000446F776E004C6566742D4261636B004CD9
:101B00006566742D5570004C6566742D46726F6E57
:101B100074004C6566742D446F776E0046726F6E6C
:101B2000742D4C6566740046726F6E742D5570008E
:101B300046726F6E742D52696768740046726F6EDC
:101B4000742D446F776E00426F74742E2D4C656651
:101B50007400426F74742E2D46726F6E7400426F63
:101B600074742E2D526967687400426F74742E2D40
:101B70004261636B004261636B2D52696768740058
:101B80004261636B2D5570004261636B2D4C65663D
:101B900074004261636B2D446F776E00546F702D3B
:101BA000526967687400546F702D46726F6E7400CE
:101BB000546F702D4C65667400546F702D526561C2
:101BC0007200506974636855700053696465776189
:101BD00079730041667400496E76657274656400BD
:101BE000566572746963616C00466F7277617264E6
:101BF000004F555438004F555437004F5554360058
:101C00004F555435004F555434004F555433004F01
:101C1000555432004F555431002844697361726D38
:101C2000656429002841726D65642900666F722021
:101C30007374617475732E00507265737300446F12
:101C40006E6500486F6C642061732073686F776EF7
:101C5000004E6F205258207369676E616C00736587
:101C60007474696E6773005570646174696E67009F
:101C700043616C2E206661696C65640045534320A6
:101C800063616C69627261746500486F6C64207393
:101C90007465616479005265736574004F70656E98
:101CA0004165726F320044697361726D6564004C06
:101CB0006F770042617474657279004D6F64656C72
:101CC000004C6F7374004572726F72005369676ED7
:101CD000616C004E6F00456C65762E005468726F23
:101CE000742E004E6F6E65004155583300415558B3
:101CF0003200415558310047656172005275646485
:101D0000657200456C657661746F720041696C653F
:101D1000726F6E005468726F74746C6500537172E8
:101D20007453696E650053696E65004C696E656138
:101D300072004D6F746F7200442E536572766F009F
:101D4000412E536572766F00416C742E2064616D74
:101D5000703A00414C2059617700414C2050697421
:101D6000636800414C20526F6C6C004163635069A2
:101D70007463680041636359617700416363526F24
:101D80006C6C004779726F596177004779726F50B8
:101D900069746368004779726F526F6C6C005032DF
:101DA00020536F7572636520423A00503120536FA3
:101DB0007572636520423A00503220566F6C756D23
:101DC000653A00503220536F7572636520413A00C6
:101DD000503120566F6C756D653A00503120536F4D
:101DE0007572636520413A00503220416C742E2098
:101DF00064616D703A00503120416C742E20646132
:101E00006D703A00503220506974636820414C3A3A
:101E100000503120506974636820414C3A005031C1
:101E20002059617720414C3A00503220526F6C6C3F
:101E300020414C3A00503120526F6C6C20414C3A9A
:101E400000503220596177206779726F3A00503123
:101E500020596177206779726F3A005032205069BB
:101E6000746368206779726F3A005031205069744A
:101E70006368206779726F3A00503220526F6C6C41
:101E8000206779726F3A00503120526F6C6C206776
:101E900079726F3A005032205275642E20766F6C42
:101EA000756D653A005031205275642E20766F6C46
:101EB000756D653A00503220456C652E20766F6C4A
:101EC000756D653A00503120456C652E20766F6C3B
:101ED000756D653A0050322041696C2E20766F6C2A
:101EE000756D653A0050312041696C2E20766F6C1B
:101EF000756D653A005472616E732E20637572764B
:101F0000653A005032205468722E20766F6C756DE1
:101F1000653A005031205468722E20766F6C756DD2
:101F2000653A004465766963653A0050312E6E204B
:101F30002D205032005031202D2050312E6E005077
:101F4000320050312E6E0050310020002000503100
:101F500020726566726E63652E3A005031206F7292
:101F600069656E746E2E3A005072657365743A003E
:101F70004C6F77205620616C61726D3A00414C20A5
:101F8000636F72726563743A004779726F204C50C8
:101F9000463A004163632E204C50463A0050574D5C
:101FA00020726174653A0044697361726D207469CE
:101FB0006D653A005361666574793A00436F6E74DB
:101FC000726173743A005461696C2073697474654A
:101FD000723A004F7269656E746174696F6E3A008F
:101FE000437573746F6D004D756C7469706C6578B2
:101FF00000467574616261004A522F5370656B74BC
:1020000072756D00524157004D6F646520422F5527
:10201000444900587472656D65005370656B747245
:10202000756D00532D4275730050574D004350504D
:102030004D00496E626F756E64207472616E732E0E
:102040003A004F7574626F756E64207472616E73BE
:102050002E3A00566962726174696F6E206469730A
:10206000706C61793A005472616E736974696F6E55
:1020700020686967683A005472616E736974696FA9
:102080006E206D69643A005472616E736974696F91
:102090006E206C6F773A005472616E736974696F69
:1020A0006E3A0050726F66696C65206368616E2ECF
:1020B0003A0043682E206F726465723A0050574DA3
:1020C0002073796E633A00525820747970653A0033
:1020D0004F4E004F464600596177207472696D3A41
:1020E00000596177204920726174653A005961771F
:1020F0002049206C696D69743A0059617720493A2A
:102100000059617720503A005069746368207472F6
:10211000696D3A005069746368206175746F6C650D
:1021200076656C3A00506974636820492072617466
:10213000653A0050697463682049206C696D697460
:102140003A00506974636820493A005069746368C2
:1021500020503A00526F6C6C207472696D3A0059CD
:102160006177206175746F6C6576656C3A00526FAB
:102170006C6C206175746F6C6576656C3A00526F9B
:102180006C6C204920726174653A00526F6C6C204F
:1021900049206C696D69743A00526F6C6C20493A41
:1021A00000526F6C6C20503A00416C742E206461B8
:1021B0006D703A00496E762E0043616C2E00494DD9
:1021C000550041636300596177005069746368008A
:1021D000526F6C6C004779726F0032342E2045725A
:1021E000726F72206C6F670032332E20496E2F4F52
:1021F000757420646973706C61790032322E2043EB
:102200007573746F6D2043682E206F726465720061
:1022100032312E20506F732E20536572766F2074EA
:1022200072766C2E202825290032302E204E6567CC
:102230002E20536572766F207472766C2E202825BE
:10224000290031392E20536572766F2064697265DA
:102250006374696F6E0031382E204F555438204D0D
:10226000697865720031372E204F555437204D69FB
:102270007865720031362E204F555436204D6978DE
:1022800065720031352E204F555435204D697865E3
:10229000720031342E204F555434204D69786572C8
:1022A0000031332E204F555433204D69786572002C
:1022B00031322E204F555432204D697865720031ED
:1022C000312E204F555431204D69786572003130E0
:1022D0002E204F7574707574206F66667365747305
:1022E00000392E2043757276657300382E20466CB7
:1022F000696768742070726F66696C652032003798
:102300002E20466C696768742070726F66696C6510
:10231000203100362E204C6576656C206D65746525
:102320007200352E2053656E736F722063616C6985
:1023300062726174696F6E00342E20537469636B2E
:1023400020706F6C617269747900332E205265635E
:10235000656976657220696E7075747300322E201F
:1023600052656365697665722073657475700031B6
:102370002E2047656E6572616C0041626F72740059
:1023800053617665004465662E004261636B004DC3
:10239000656E7500450044004300420041004A69F3
:1023A000747465723A00506F733A004261747465D8
:1023B00072793A0030002E0050726F66696C653A8F
:1023C000004D6F64653A0056657273696F6E3A200E
:1023D000312E33204265746120313700010101FF45
:1023E0000101FFFF0101FF01FF0101FF01FFFFFFED
:1023F000FFFFFF0101FFFFFFFFFFFF01FF0101FFE3
:1024000001FF0101FFFF0101FF010101FFFF01FFCA
:10241000FFFF01FFFF01FF010101010101FFFF01BA
:10242000FFFF0101000102010002000102010002A0
:10243000020100020001020100020001000102018C
:10244000000200010201000202010002000102017B
:10245000000200010102000002010102000002016D
:10246000010200000201010200000201E17A0841BC
:10247000C3F59040295C1F40713DCA3F52B89E3F52
:102480000000803F0000803F0000803F0000B84116
:10249000AE4739413333BB4066664640C3F5E83F3B
:1024A000CDCCAC3F52B89E3F0000803F00070101F9
:1024B00000000701010100070101020007010103FB
:1024C00000070101040007010105000701010600E2
:1024D00007010107550055005500550055005500EE
:1024E00055005500690069006900690069006900CC
:1024F00069006900006401000000640100110064CB
:102500000100210064010032006401004200640106
:102510000053006401006400000101000064010038
:102520000000640100110064010021006401003218
:102530000064010042006401005300640100640073
:10254000000101009C6401009C9C640100BE9C642D
:102550000100DF9C640100009C640100219C640177
:1025600000429C6401006400000101009C640100C1
:102570009C9C640100BE9C640100DF9C640100001F
:102580009C640100219C640100429C640100640081
:10259000000101009C6401009C9C640100BE9C64DD
:1025A0000100DF9C640100009C640100219C640127
:1025B00000429C6401006405140101149C64010044
:1025C0009C9C640100BE9C640100DF9C64010000CF
:1025D0009C640100219C640100429C64010064052C
:1025E00014010114800080008000800080008000C1
:1025F000000000000000000000000000030F1B2787
:10260000007F010028007F01000A007D01000A0010
:1026100006010002007F01000A817F010000007FA7
:10262000010028007F01000A007D01000A00060168
:102630000002007F01000A817F010000007F01008D
:102640003C007F010028007D010019000601000206
:10265000817F010000007F010032550055005500C8
:1026600055005500550055005500550055005500C2
:102670005500550055005500550055005500000007
:10268000000000000000000000000000000000004A
:10269000000000000000000000000000000000003A
:1026A00000000002010102007D010064007D0100C4
:1026B000640002010100837D010000837D010000B0
:1026C000837D010000837D010000837D0100008384
:1026D0007D01000000020101000002010100000272
:1026E00001010000020101000002010100000201DD
:1026F00001000002010100000201010000020101CD
:1027000000000201010000020101000002010100BD
:102710000114010114837D010000011401011483DF
:102720007D0100000114010114837D0100000114EA
:10273000010114837D01000055005C005C005C0019
:102740005C005C005C005C005C005C005C005C00A9
:102750005C005C005C005C005C005C005C005C0099
:102760005C005C004D004D004D004D004D004D00E3
:102770004D004D00E20000000000380000000000A5
:102780000000000000000000440044004400440039
:102790004400440044004400440044004400440019
:1027A000BA010000A5010000BA010000A501000067
:1027B000E2000000000038000000000000000000FF
:1027C0000000000044004400440044004400440071
:1027D000440044004400440044004400A5010000BB
:1027E000A5010000A5010000A5010000837D0100F6
:1027F00000837D010000837D010000837D010000D6
:10280000837D010000837D010000837D01000000C5
:1028100000010100837D010000837D010000837DB4
:10282000010000837D010000837D010000837D01A4
:102830000000837D0100000000010100837D010094
:1028400000837D010000837D010000837D01000085
:10285000837D010000837D010000837D0100000075
:1028600000010100837D010000837D010000837D64
:10287000010000837D010000837D010000837D0154
:102880000000837D0100000000010100837D010044
:1028900000837D010000837D010000837D01000035
:1028A000837D010000837D010000837D0100000025
:1028B00000010100837D010000837D010000837D14
:1028C000010000837D010000837D010000837D0104
:1028D0000000837D0100000000010100837D0100F4
:1028E00000837D010000837D010000837D010000E5
:1028F000837D010000837D010000837D01000000D5
:1029000000010100837D010000837D010000837DC3
:10291000010000837D010000837D010000837D01B3
:102920000000837D010000000001010080008000A4
:102930008000800080008000800080000000000097
:102940000000000000000000000000000001010184
:1029500000830001039C007D01036450005000507F
:1029600000500050005000500050005000500050E7
:1029700000500050005000500050005000500050D7
:1029800000500050005000500050008D008D008D10
:10299000008D008D008D008D008D00000000000076
:1029A0000000000000000000000000000000000027
:1029B0000000000000000000000000040506070AF7
:1029C0000B08090C0D0E0F02030001111213101752
:1029D00014151600050101020002010102000401A4
:1029E00001040003010100000701010400280100A7
:1029F00000002801000000630100000163010032B3
:102A000001640100640001010100001701010000E0
:102A1000020101001C320100240001010101007FBC
:102A200001001E000801010000060101030007016A
:102A300001020007010107020B0100060003010467
:102A4000004100410041003C004B005F005F005F1F
:102A5000005F005F005F00460043004300430050FA
:102A6000005000500050005000500050008C017683
:102A70000069008200690000000000000000000002
:102A8000004400270140010000350000000000253F
:102A9000002500250000001101000D1216191C1F51
:102AA00021232628292B2D2F303233353638393A39
:102AB0003B3D3E3F404142434445464748494A4BDF
:102AC0004C4D4D4E4F5051515253535455555657EE
:102AD00057585859595A5A5B5B5C5C5D5D5E5E5E47
:102AE0005F5F5F60606061616162626262626363D6
:102AF0006363636363646464646464646464000261
:102B0000030506080A0B0D0E101113141617191AD7
:102B10001C1D1F202223252628292B2C2D2F303247
:102B200033343637383A3B3C3D3F404142434446DC
:102B30004748494A4B4C4D4E4F50515253545455AF
:102B400056575858595A5A5B5C5C5D5E5E5F5F60D1
:102B5000606061616262626363636363646464644E
:102B60006464640011241FBECFEFD0E1DEBFCDBF8F
:102B700014BE88E10FB6F894809360001092600054
:102B80000FBE15E0A0E0B1E0E6E5FAED02C0059069
:102B90000D92A632B107D9F729E0A6E2B5E001C04F
:102BA0001D92A636B207E1F70E94D22D0C94296D32
:102BB0000C94000000000895FDDFFCDFFBDFFADF6E
:102BC0000895CF935898C6E70E94EE15589ACAE721
:102BD0000E94EE158A95B1F7CF91089500C000C00C
:102BE00000C000C000C000C000C000C00000CA9506
:102BF000A9F70895F62EEF93FF93AF93BF93CF936A
:102C0000DF930F931F932F933F934F935F936F9394
:102C10007F93E82FF92F8F939F93A191B191A65C99
:102C2000B040AF93BF93A7707A2FA191B191AE5BE3
:102C3000B040AF93BF93A7706A2FA191B191A65BEB
:102C4000B040AF93BF93A7705A2FA191B191AE5AE4
:102C5000B040AF93BF93A7704A2FA191B191A55AED
:102C6000B040AF93BF93A7703A2FA191B191AD59E6
:102C7000B040AF93BF93A7702A2FA191B191A559EE
:102C8000B040AF93BF93A7701A2FA191B191AD58E7
:102C9000B040AF93BF93A7700A2F972F0E94681779
:102CA000F0FC469A0E947417962F0E946817F1FC58
:102CB000449A0E947417952F0E946817F2FC429A5A
:102CC0000E947417942F0E946817F3FC439A0E9485
:102CD0007417932F0E946817F4FC149A0E947417BB
:102CE000922F0E946817F5FC159A0E947417912F75
:102CF0000E946817F6FC459A0E947417902F0E9454
:102D00006817F7FC479A0E9474170E9447170E94A1
:102D100047170E944717BF91AF910E9461170A2F72
:102D2000BF91AF910E9461171A2FBF91AF910E947E
:102D300061172A2FBF91AF910E9461173A2FBF915F
:102D4000AF910E9461174A2FBF91AF910E94611706
:102D50005A2FBF91AF910E9461176A2FBF91AF9117
:102D60000E9461177A2FCFEFD0E00024715019F440
:102D700046980C94BD1600C000C0615019F44498E8
:102D80000C94C41600C000C0515019F442980C9421
:102D9000CB1600C000C0415019F443980C94D216D1
:102DA00000C000C0315019F414980C94D91600C01A
:102DB00000C0215019F415980C94E01600C000C012
:102DC000115019F445980C94E71600C000C001504A
:102DD00019F447980C94EE1600C000C00E945017DA
:102DE000C150D00911F00C94B6169F918F917F912C
:102DF0006F915F914F913F912F911F910F91DF91B3
:102E0000CF91BF91AF91FF91EF9108950F931F93D1
:102E10002F930CEF18E00024803071F0813079F0AE
:102E2000823081F0833089F0843091F0853099F0E0
:102E30008630A1F08730A9F0469A0C943417449A52
:102E40000C943417429A0C943417439A0C94341708
:102E5000149A0C943417159A0C943417459A0C94C0
:102E60003417479A0C94341700C000C000C000C04B
:102E700000C000C06150700919F420E028B922B9DF
:102E80000150100989F72F911F910F9108950F9309
:102E900005E600C000C000C00150D9F70F910895A9
:102EA0000F9309E000C000C000C00150D9F7000036
:102EB00000C000C00F91089500C000C000C000C055
:102EC0000895B695A795B695A795B695A795089533
:102ED000C7E09770C92731F00E945C17CA9509F0C6
:102EE000FBCF00C000000895C92FC77031F00E94C9
:102EF0005C17CA9509F0FBCF00C00895CF92DF920E
:102F0000EF92FF920F931F93CF93DF93CDB7DEB76E
:102F10002C970FB6F894DEBF0FBECDBF26E08E0112
:102F20000F5F1F4FA8016BE380ED0E94BD3A8981BE
:102F300090E0982F88272A81820F911D98878F8390
:102F40008B8190E0982F88272C81820F911D91957D
:102F5000819591099A8789878D8190E0982F88279C
:102F60002E81820F911D9C878B8740912D08209187
:102F7000A3063DE6E32E35E0F32EA9E7B5E083E0B6
:102F80004802A0011124E3E02E029001112480E008
:102F900090E04C575E4F2C573E4F6801FA01E80F06
:102FA000F91FE491EE0FFF0BE00FF11F66817781AF
:102FB000E6E075956795EA95E1F7F70161937193FE
:102FC0007F01F901E80FF91FE491EE0FFF0BEC0D03
:102FD000FD1D66817781F6E075956795FA95E1F7B5
:102FE0006D937D93019683309105C1F62C960FB6B3
:102FF000F894DEBF0FBECDBFDF91CF911F910F912F
:10300000FF90EF90DF90CF9008954F925F926F9274
:103010007F928F929F92AF92BF92CF92DF92EF9268
:10302000FF920F931F93CF93DF930E947E174091DF
:10303000030840FD05C01092EB071092EA070EC08E
:103040008091EC079091ED072091F0073091F10706
:10305000821B930B9093EB078093EA0742FD05C018
:103060001092200810921F080EC0809121089091A4
:1030700022082091250830912608821B930B9093FB
:10308000200880931F085DE6652E55E0752E69E7E0
:10309000C62E65E0D62E0BE118E073E7E72E75E04B
:1030A000F72EC0E0D0E0E4E64E2E512C8091A4062D
:1030B0006091A306882309F44CC040912D08552740
:1030C00047FD5095FA01EE0FFF1FE40FF51FEC0FBF
:1030D000FD1FE45CFE4F7491F30120813181D80122
:1030E000D5974D915C91241B350B7203C001739FE2
:1030F000900D1124262F332727FD3095F901EE0F6F
:10310000FF1FE20FF31FEC0FFD1FE45CFE4F649105
:10311000F60120813181F80140815181241B350B5A
:1031200062034001639F900C112420913705309178
:103130003805B201621B730B0E94DB565C01609183
:10314000370570913805C4010E94DB568A0D9B1D1E
:103150001BC0862F992787FD9095FC01EE0FFF1F5E
:10316000E80FF91FEC0FFD1FE45CFE4F4491F601E0
:1031700020813181F80180819181281B390B420324
:10318000C001439F900D1124F70191838083219604
:10319000F2E06F0E711C82E0C80ED11C0E5F1F4F53
:1031A000E2E0EE0EF11CC230D10509F07FCF809134
:1031B000A4066091A30640917D0550917E05209163
:1031C0001F0830912008882309F443C0A0912D08DE
:1031D000BB27A7FDB095FD01EE0FFF1FEA0FFB1FF8
:1031E000E25CFE4F749100917105109172057003BD
:1031F000C001719F900D1124E091EA07F091EB0757
:103200008E1B9F0B772767FD7095FB01EE0FFF1F4D
:10321000E60FF71FE25CFE4F64916403E001659FD7
:10322000D00D1124C21BD30B64E670E0209137054A
:1032300030913805621B730B0E94DB568C01609144
:10324000370570913805CE010E94DB56800F911F23
:1032500013C0862F992787FD9095FC01EE0FFF1F65
:10326000E80FF91FE25CFE4F64916403C001659FA3
:10327000900D1124821B930B909378058093770512
:103280008091A4060091210810912208C0911F0886
:10329000D0912008882309F44FC0C0900806D09030
:1032A0000906E0900A06F0900B066091EC07709119
:1032B000ED078091EA079091EB07681B790B88274F
:1032C00077FD8095982F0E94F36A9B01AC01C7019E
:1032D000B6010E94F0690E94C06A4B015C01B8010E
:1032E0006C1B7D0B882777FD8095982F0E94F36AD1
:1032F0009B01AC01C701B6010E94F0690E94C06A3F
:103300006B017C0164E670E080913705909138058F
:10331000681B790BC4010E94DB56EC0160913705F4
:1033200070913805C6010E94DB568C0F9D1F90934B
:1033300027058093260519C0B8016C1B7D0B8827D3
:1033400077FD8095982F0E94F36A209108063091AE
:10335000090640910A0650910B060E94F0690E94EE
:10336000C06A7093270560932605DF91CF911F9166
:103370000F91FF90EF90DF90CF90BF90AF909F9014
:103380008F907F906F905F904F9008951F93CF9391
:10339000DF9300D000D000D0CDB7DEB71A821982FB
:1033A0001C821B821E821D822091370530913805B8
:1033B0008111E0C02036310524F48091A4068111EA
:1033C00063C010E20E947E1789819A81209179055D
:1033D00030917A05820F931F9A8389838B819C8118
:1033E00020917B0530917C05820F931F9C838B83FA
:1033F0008D819E8120917D0530917E05820F931FE6
:103400009E838D838FE493EC0197F1F700C0000059
:103410001150C1F6FE0131969E01295F3F4F808118
:1034200091814096B5E095958795BA95E1F781939E
:103430009193E217F30799F789819A8190931C0879
:1034400080931B088B819C8190931E0880931D089C
:103450008091A306992787FD9095FC01EE0FFF1F31
:10346000E80FF91FE25CFE4F44912D813E8142033B
:10347000C001439F900D112490932208809321084E
:1034800080910308886066C0263031050CF049C180
:1034900010E20E947E1789819A8120916D053091FA
:1034A0006E05820F931F9A8389838B819C81209163
:1034B0006F0530917005820F931F9C838B838D81E4
:1034C0009E812091710530917205820F931F9E831A
:1034D0008D838FE493EC0197F1F700C00000115049
:1034E000C1F6FE0131969E01295F3F4F8081918197
:1034F000409675E0959587957A95E1F7819391933C
:10350000E217F30799F789819A819093E7078093EF
:10351000E6078B819C819093E9078093E80780916F
:103520002D08992787FD9095FC01EE0FFF1FE80FEE
:10353000F91FE25CFE4F44912D813E814203C001A0
:10354000439F900D11249093ED078093EC07809199
:1035500003088260809303080E9420262B9A9FE72D
:1035600024E84EE1915020404040E1F700C00000C7
:103570002B98D7C0809103082036310524F4909110
:10358000A40691115AC083FFCCC010922408109257
:10359000230810E20E947E1780912308909124084E
:1035A00020917D0530917E05820F931F9093240812
:1035B000809323088FE493EC0197F1F700C000009B
:1035C000115041F78091A306992787FD9095FC0142
:1035D000EE0FFF1FE80FF91FE25CFE4F44912091B0
:1035E000230830912408205F3F4F55E035952795FB
:1035F0005A95E1F74203C001439F900D1124909327
:1036000024088093230897FF8CC0209121083091D3
:103610002208A901481B590BCA01959587959093DB
:10362000260880932508281B390B30932008209307
:103630001F0880910308846059C081FF72C01092F6
:10364000EF071092EE0710E20E947E178091EE07BE
:103650009091EF072091710530917205820F931FB1
:103660009093EF078093EE078FE493EC0197F1F7C7
:1036700000C00000115041F780912D08992787FD67
:103680009095FC01EE0FFF1FE80FF91FE25CFE4F63
:1036900044912091EE073091EF07205F3F4FB5E056
:1036A00035952795BA95E1F74203C001439F900DE8
:1036B00011249093EF078093EE0797FF32C020917B
:1036C000EC073091ED07A901481B590BCA019595EC
:1036D00087959093F1078093F007281B390B30935F
:1036E000EB072093EA078091030881608093030829
:1036F0000E9420262B9A5FE784E89EE1515080408B
:103700009040E1F700C000002B9885E026960FB6A8
:10371000F894DEBF0FBECDBFDF91CF911F910C9407
:103720008C4E26960FB6F894DEBF0FBECDBFDF914C
:10373000CF911F91089541E06BE680ED0E94A63A7B
:1037400048E06CE180ED0C94A63A8FEF80937E0008
:1037500010927B00089580937C0086EC80937A0021
:1037600080917A0086FDFCCF0895CF92DF92EF9290
:103770000F93CF93DF93CBE0D0E01F9B83C00E94D9
:10378000A0660E948A670E94051860E070E0CB0185
:103790000E941C3D2197209781F720E030E040E017
:1037A00052E460910406709105068091060690919E
:1037B00007060E94F0690E94C06AEB0120E030E039
:1037C00040E852E460910006709101068091020683
:1037D000909103060E94F0690E94C06A6B01D7FDB8
:1037E00006C0C134D1052CF0C0E4D0E002C0C0E076
:1037F000D0E0D7FC08C081E8C816D10434F080E8D6
:10380000C82ED12C02C0C12CD12C27E330E042E0DD
:1038100050E06DEE71E08CE090E00E943337EE24D2
:10382000E39400E420E840E060E080E091E00E9462
:10383000503605E125E146E166E380E091E00E9433
:10384000503608E320E448E060E480E091E00E9424
:10385000B23500E220E640E260E280E091E00E94C2
:10386000B23501E028E04C2F6C2D80E091E00E9401
:10387000A23680E091E00E94203580E091E00E9435
:10388000523579CFDF91CF910F91EF90DF90CF90AC
:1038900008952F923F924F925F926F927F928F92F4
:1038A0009F92AF92BF92CF92DF92EF92FF920F93CF
:1038B0001F93CF93DF93CDB7DEB7A5970FB6F894DC
:1038C000DEBF0FBECDBF0E9457460AE0202E312C2E
:1038D00088EE482E83E0582E95E0A92EB12C24E1E5
:1038E000622E712C34E6832E912C1F9B3EC30E94C6
:1038F000A0660E942F380E9405180E9492429C01E7
:1039000016BC80912E0590912F052817390748F491
:1039100080912E0590912F05A901481B590BCA01D2
:1039200008C080912E0590912F05F901E81BF90B35
:10393000CF0130932F0520932E052091CA08309196
:10394000CB08A0E0B0E02230310518F46C017D0115
:1039500011C0C090CA08D090CB08E12CF12C1FE018
:10396000CC0CDD1CEE1CFF1C1A95D1F7C80ED91E1D
:10397000EA1EFB1E1092CB081092CA08C701B601BE
:103980000E941C3DC701B6010E94EC600E94C46306
:103990000E948A670E94BB580E94B956E2EBF6E08B
:1039A00020E030E08901000F111FD801AA5AB64F5C
:1039B0008D919C914081423041F0865A9E40959570
:1039C0008795BC0164527A4F08C0880F991F880FF1
:1039D000991F0596B1010E941E6CD801AA5AB64FD4
:1039E00011967C936E932F5F3F4FB296283031052E
:1039F000C9F6E1E2F6E020E030E0A901440F551FEE
:103A0000DA01AA5AB64F0D90BC91A02D8281938104
:103A10008A179B073CF060817181CD01A617B7071B
:103A20000CF4CB01DA01AA5AB64F11969C938E93EF
:103A30002F5F3F4F349628303105F9F680914209C7
:103A400090914309C2972CF0FE01719620E030E07E
:103A500015C0E2EBF6E080E090E02081223041F4F6
:103A6000DC01AA0FBB1FAA5AB64F11965C924E9268
:103A70000196B2968830910581F7E6CFD901AA0F59
:103A8000BB1FAA5AB64F8D919C91AC014C5D55401D
:103A90005183408357FD03C08A5D954002C08E5D0F
:103AA0009540B5010E941E6C718360832F5F3F4F6C
:103AB00032962830310511F7AE014F5F5F4F7A0122
:103AC00000E010E0F801EE0FFF1FEC5BF64F6081A5
:103AD0007181882777FD8095982F0E94F36A20E0F6
:103AE00030E040E251E40E94586A0E94C06AF70147
:103AF000619371937F010F5F1F4F0830110511F71C
:103B000023E030E040E050E06BE77FE08EED91E0B5
:103B10000E9433372DE030E040E050E06BE77FE07B
:103B20008FED91E00E94333727E130E040E050E034
:103B30006BE77FE080EE91E00E94333721E230E0D6
:103B400040E050E06BE77FE081EE91E00E94333788
:103B50002BE230E040E050E06BE77FE082EE91E066
:103B60000E94333725E330E040E050E06BE77FE030
:103B700083EE91E00E94333780914209909143098E
:103B8000B3010E941E6CCB014AE065EA75E00E9419
:103B9000C56C23E030E049E150E06BE77FE00E9434
:103BA000B7604AE065EA75E08B819C810E94C56C34
:103BB0002DE030E049E150E06BE77FE00E94B76024
:103BC0004AE065EA75E08D819E810E94C56C27E11F
:103BD00030E049E150E06BE77FE00E94B7604AE0E7
:103BE00065EA75E08F8198850E94C56C21E230E01E
:103BF00049E150E06BE77FE00E94B7604AE065EA88
:103C000075E089859A850E94C56C2BE230E049E118
:103C100050E06BE77FE00E94B7604AE065EA75E03C
:103C20008B859C850E94C56C25E330E049E150E01E
:103C30006BE77FE00E94B76023E030E040E350E0B4
:103C40006BE77FE084EE91E00E9433372DE030E0B7
:103C500040E350E06BE77FE085EE91E00E94333770
:103C600027E130E040E350E06BE77FE08DED91E04D
:103C70000E94333721E230E040E350E06BE77FE021
:103C800084ED91E00E9433372BE230E040E350E0D6
:103C90006BE77FE085ED91E00E94333725E330E06C
:103CA00040E350E06BE77FE086ED91E00E94333720
:103CB0004AE065EA75E08D859E850E94C56C23E02B
:103CC00030E047E450E06BE77FE00E94B7604AE0F5
:103CD00065EA75E08F8598890E94C56C2DE030E01B
:103CE00047E450E06BE77FE00E94B7604AE065EA96
:103CF00075E089899A890E94C56C21E230E049E328
:103D000050E06BE77FE00E94B7604AE065EA75E04B
:103D10008B899C890E94C56C2BE230E049E350E01E
:103D20006BE77FE00E94B7604AE065EA75E08D8945
:103D30009E890E94C56C25E330E049E350E06BE7C3
:103D40007FE00E94B76023E030E04EE550E06BE793
:103D50007FE087ED91E00E9433372DE030E04EE5C3
:103D600050E06BE77FE088ED91E00E94333727E178
:103D700030E04EE550E06BE77FE089ED91E00E9496
:103D8000333721E230E04EE550E06BE77FE08AED2B
:103D900091E00E9433372BE230E04EE550E06BE7D4
:103DA0007FE08BED91E00E94333725E330E048E57A
:103DB00050E06BE77FE08CED91E00E9433374AE002
:103DC00065EA75E08F89988D0E94C56C23E030E02C
:103DD00048E650E06BE77FE00E94B7604AE065EAA2
:103DE00075E0898D9A8D0E94C56C2DE030E048E623
:103DF00050E06BE77FE00E94B7604AE065EA75E05B
:103E00008B8D9C8D0E94C56C27E130E048E650E028
:103E10006BE77FE00E94B7604AE065EA75E08D8D50
:103E20009E8D0E94C56C21E230E048E650E06BE7D1
:103E30007FE00E94B7604AE065EA75E08F8D98A147
:103E40000E94C56C2BE230E048E650E06BE77FE073
:103E50000E94B760C0903705D0903805F4E6CF0EC9
:103E6000D11CC601B4010E940A6C7B014AE065EADC
:103E700075E0C7010E94C56CAE014F5D5F4F6BE7F7
:103E80007FE00E94685F4AE065EA75E0C7010E9432
:103E9000C56C25E330E048E650E06BE77FE00E9428
:103EA000B7602CE9A70124038001259F100D112480
:103EB0000C0D1D1DE9A0FF24E7FCF09458E6E50E6B
:103EC000F11C25E330E0A7016BE77FE08CE091E097
:103ED0000E943337AE014F5D5F4F6BE77FE08BE0B1
:103EE00095E00E94685FC9A0AE014F5D5F4F6BE730
:103EF0007FE08DE095E00E94685F89A18DA3DD24BD
:103F0000C7FCD0940A30110540F04AE065EA75E03C
:103F1000C8010E94C56CA70117C0A7014C0D5D1D0B
:103F200025E330E06BE77FE08DE091E00E943337DE
:103F30004AE065EA75E0C8010E94C56CA701EDA1E1
:103F40004E0F511DE7FD5A954C0D5D1D25E330E0E8
:103F50006BE77FE00E94B76080E091E00E9420352F
:103F600080E091E00E945235C0CCA5960FB6F8943F
:103F7000DEBF0FBECDBFDF91CF911F910F91FF909C
:103F8000EF90DF90CF90BF90AF909F908F907F90F9
:103F90006F905F904F903F902F900895AF92BF9297
:103FA000CF92DF92EF92FF920F931F93CF93DF9305
:103FB000B12C97E0C92E98E0D92E24E1A22E1F9BA8
:103FC0004DC01C9909C0F6012A2D11922A95E9F7D6
:103FD000109206080E9420261E9903C0BA94B7FCCE
:103FE000B12C1D9906C0B3948EE08B1514F48FE0AC
:103FF000B82E00E010E0C0E0D0E0EB2CFF24E7FC9E
:10400000F094F701E85EF94F7F01F701EC0FFD1F17
:10401000E151FE4F8081992787FD9095980140E0FE
:1040200050E06BE77FE0855E9E4F0E94333721961C
:10403000065F1F4FC530D10541F783E00E94A847B6
:1040400080E091E00E945235FFE72AE186E0F150DE
:1040500020408040E1F700C00000B1CFDF91CF9158
:104060001F910F91FF90EF90DF90CF90BF90AF9096
:1040700008950E9457461F9BFAC01C9B0E943567FB
:104080000E94A06620E030E040E050E06BE77FE077
:1040900082E790E00E9433372AE030E040E050E0D1
:1040A0006BE77FE080E290E00E94333724E130E06C
:1040B00040E050E06BE77FE083E790E00E94333719
:1040C0002EE130E040E050E06BE77FE083E290E0FB
:1040D0000E94333720E030E046E450E06BE77FE0B9
:1040E0008DE690E00E9433372AE030E046E450E06D
:1040F0006BE77FE08EE690E00E94333724E130E00A
:1041000046E450E06BE77FE08FE690E00E943337B3
:104110002EE130E046E450E06BE77FE080E790E09E
:104120000E94333780914209909143094AE065EA41
:1041300075E00E94C56C20E030E045E250E06BE79E
:104140007FE00E94B76080914609909147094AE05C
:1041500065EA75E00E94C56C2AE030E045E250E077
:104160006BE77FE00E94B760809148099091490910
:104170004AE065EA75E00E94C56C24E130E045E262
:1041800050E06BE77FE00E94B76080914A09909110
:104190004B094AE065EA75E00E94C56C2EE130E00B
:1041A00045E250E06BE77FE00E94B76080914C09E8
:1041B00090914D094AE065EA75E00E94C56C20E0E7
:1041C00030E044E650E06BE77FE00E94B76080910A
:1041D0004E0990914F094AE065EA75E00E94C56C6E
:1041E0002AE030E044E650E06BE77FE00E94B760F1
:1041F00080915009909151094AE065EA75E00E946A
:10420000C56C24E130E044E650E06BE77FE00E94BB
:10421000B76080915209909153094AE065EA75E0D0
:104220000E94C56C2EE130E044E650E06BE77FE091
:104230000E94B76029E330E040E050E06DEE71E0AD
:104240008CE090E00E94333727E330E04EE650E008
:104250006BE77FE08CE390E00E94333780E091E0F1
:104260000E94203580E091E00E94523504CF0895ED
:10427000FF920F931F93CF93DF9380E091E00E9412
:104280005235FF24F394C4E6D0E01F9B6EC10E9418
:10429000A0660E948A670E942F380E9405180E941B
:1042A000924216BC20912E0530912F0520912E05AB
:1042B00030912F058C01021B130B90932F058093D7
:1042C0002E058091CA089091CB0820E030E002973B
:1042D00018F4C901B80111C06091CA087091CB08E7
:1042E00080E090E04FE0660F771F881F991F4A9586
:1042F000D1F7600F711F821F931F1092CB0810928D
:10430000CA080E941C3D20E030E045E250E06BE727
:104310007FE08AE190E00E94333720E030E048E41B
:1043200050E06BE77FE08EE190E00E94333720E0C1
:1043300030E04BE650E06BE77FE08FE190E00E94D9
:1043400033372DE030E045E050E06BE77FE08BE174
:1043500090E00E94333727E130E045E050E06BE722
:104360007FE08CE190E00E94333721E230E045E0CD
:1043700050E06BE77FE08DE190E00E9433374AE048
:1043800065EA75E08091D0059091D1050E94C56CD9
:104390002DE030E048E250E06BE77FE00E94B7603C
:1043A0004AE065EA75E08091D2059091D3050E94BC
:1043B000C56C27E130E048E250E06BE77FE00E9407
:1043C000B7604AE065EA75E08091D4059091D50523
:1043D0000E94C56C21E230E048E250E06BE77FE0EC
:1043E0000E94B7604AE065EA75E08091730590919C
:1043F00074050E94C56C2DE030E04BE450E06BE7A3
:104400007FE00E94B7604AE065EA75E0809175053B
:10441000909176050E94C56C27E130E04BE450E0B6
:104420006BE77FE00E94B7604AE065EA75E0809143
:104430007705909178050E94C56C21E230E04BE44D
:1044400050E06BE77FE00E94B7608091F8059091A3
:10445000F905BE010E941E6CCB014AE065EA75E0D9
:104460000E94C56C2DE030E04BE650E06BE77FE04A
:104470000E94B7608091FA059091FB05BE010E94F1
:104480001E6CCB014AE065EA75E00E94C56C27E12D
:1044900030E04BE650E06BE77FE00E94B7602DE232
:1044A00030E045E050E06BE77FE085EE90E00E9471
:1044B00033374AE065EA75E080912605909127053B
:1044C0000E94C56C2DE230E04CE350E06BE77FE0EA
:1044D0000E94B76029E330E040E050E06DEE71E00B
:1044E0008CE090E00E94333727E330E04CE650E068
:1044F0006BE77FE08CE390E00E94333727E330E006
:104500004BE450E06BE77FE089E190E00E943337B5
:1045100080E091E00E94203580E091E00E945235D9
:10452000F1100E94C3511C9910C00E94C3512FE387
:1045300082E49FE0215080409040E1F700C00000FD
:104540000E94FE3880E00E94C6191D990CC02FE31E
:1045500082E49FE0215080409040E1F700C00000DD
:1045600081E00E94C619F12C90CEDF91CF911F916E
:104570000F91FF900895BF92CF92DF92EF92FF923A
:104580000F931F93CF93DF9300D000D0CDB7DEB74A
:1045900080E091E00E94523520E030E040E050E0C1
:1045A0006BE77FE088E091E00E9433372CE030E059
:1045B00040E050E06BE77FE08AE091E00E94333713
:1045C00028E130E040E050E06BE77FE08BE091E0F5
:1045D0000E94333728E130E048E550E06BE77FE0A8
:1045E00087E190E00E9433372BE330E040E050E079
:1045F0006DEE71E089E090E00E94333727E330E010
:104600004AE050E06BE77FE08EE090E00E943337B5
:1046100040914106552747FD5095425C5F4F0CE0A5
:104620002DE261E080E090E00E9475484AE065EA92
:1046300075E080913705909138050E94C56C28E19E
:1046400030E04EE650E06BE77FE00E94B76080917B
:1046500041068130D9F42CE030E04DE450E06BE7C6
:104660007FE088E190E00E9433378091300590919F
:1046700031054AE065EA75E00E94C56C2CE030E047
:104680004EE650E06BE77FE00E94B760809137050F
:1046900090913805181619064CF028E130E04DE2EB
:1046A00050E06BE77FE080E390E031C08436910515
:1046B0004CF028E130E04DE250E06BE77FE082E330
:1046C00090E025C020914906332727FD30958217B9
:1046D000930749F428E130E04DE250E06BE77FE0DA
:1046E00081E390E014C0821793074CF428E130E096
:1046F0004DE250E06BE77FE083E390E008C028E103
:1047000030E04DE250E06BE77FE084E390E00E9410
:104710003337809134058111CCC024E230E040E091
:1047200050E06BE77FE081E291E00E9433370E9426
:10473000D0697C0164E670E00E940A6C8B014AE05B
:1047400065EA75E0C8010E94C56CAE014F5F5F4F1E
:104750006BE77FE00E94685F4AE065EA75E0C801A8
:104760000E94C56C24E230E04DE250E06BE77FE050
:104770000E94B7602CE920036001219FD00C112416
:10478000CE0CDF1CE980FF24E7FCF0948DE2E80EFC
:10479000F11C24E230E0A7016BE77FE08CE091E0C0
:1047A0000E943337AE014F5F5F4F6BE77FE08BE0D6
:1047B00095E00E94685F0981AE014F5F5F4F6BE734
:1047C0007FE08DE095E00E94685FB980112707FDCA
:1047D00010958AE0C816D10440F04AE065EA75E019
:1047E000C6010E94C56CA70116C0A701400F511F4A
:1047F00024E230E06BE77FE08DE091E00E94333708
:104800004AE065EA75E0C6010E94C56CA7014B0D40
:10481000511DB7FC5A95400F511F24E230E06BE761
:104820007FE00E94B76080914B06813009F094C010
:10483000E12C0AE226E44BE06DE180E091E00E9489
:104840001C36EE24E39426E44BE06DE180E091E039
:104850000E94503660913E0970913F098091400955
:10486000909141090E94C06A6B017C014AE065EAAF
:1048700075E0C6010E94C56CAE014F5F5F4F67E5F2
:1048800072E00E94685F89819A819695879500E41D
:1048900010E0081B190B4AE065EA75E0C6010E94AA
:1048A000C56C24E130E0A80167E572E00E94B760C2
:1048B00053C08091340583FF13C025E230E04FE000
:1048C00050E06DEC74E086E890E00E94333725E21A
:1048D00030E04FE450E06DEC74E08FE091E03AC0DE
:1048E0008091340581FF13C025E230E04EE150E0B5
:1048F0006DEC74E08BE490E00E94333725E230E009
:1049000047E350E06DEC74E080E191E023C08091DA
:10491000340580FF13C025E230E04BE050E06DEC41
:1049200074E089E690E00E94333725E230E042E50A
:1049300050E06DEC74E08EE091E00CC080913405A5
:1049400082FF0AC025E230E049E150E06DEC74E0FE
:1049500082E190E00E94333780E091E00E942035B0
:1049600080E091E00E9452350F900F900F900F90D1
:10497000DF91CF911F910F91FF90EF90DF90CF903B
:10498000BF900895AF92BF92CF92DF92EF92FF92C5
:104990000F931F93CF93DF93D0900508F0904C06B0
:1049A000A09004081092050810924C06109204087A
:1049B000D0E0C0E01F9BD2C0C111D2C080E091E026
:1049C0000E94523592E0C92E10E061E1610FEE24A1
:1049D000E39408E228E240E080E091E00E94503653
:1049E00086E2B82EB10E20E3210F03E044E16B2DE7
:1049F00080E091E00E94B23528E3210F69E2610F67
:104A000006E045E180E091E00E94B23501E022E05D
:104A100045E16B2D80E091E00E94A23663E3610FD7
:104A200024E045E080E091E00E94A236CA9411F0B3
:104A300014E3CBCF29E330E040E050E06DEE71E0CD
:104A40008CE090E00E9433370E94A0668091460976
:104A5000909147098033984F3CF08091460990919E
:104A60004709813D97406CF0D1110BC02BE230E03B
:104A700040E150E06DEC74E087E890E00E9433374D
:104A800068C08091460990914709843F91403CF469
:104A900080914609909147098D309E4FE4F48091B2
:104AA000480990914909843F91403CF4809148091C
:104AB000909149098D309E4F74F480914A099091EC
:104AC0004B09843F91409CF480914A0990914B0995
:104AD0008D309E4F64F02BE230E049E050E06DEC09
:104AE00074E088E890E00E943337D1E032C08091D2
:104AF00046099091470997FF03C081E0809305081C
:104B0000809148099091490997FF03C081E0809303
:104B10004C0680914A0990914B0997FF03C081E0B0
:104B20008093040880914609909147091816190648
:104B300084F48091480990914909181619064CF49B
:104B400080914A0990914B09C1E0181619060CF0A2
:104B5000C0E080E091E00E9420352CCFCC2339F1D9
:104B60002BE230E048E250E06DEC74E089E890E040
:104B70000E94333780E091E00E94203580E091E090
:104B80000E9452358FE794E82EE1815090402040FA
:104B9000E1F700C00000DF91CF911F910F91FF90CE
:104BA000EF90DF90CF90BF90AF900C942026D092E2
:104BB0000508F0924C06A0920408DF91CF911F9156
:104BC0000F91FF90EF90DF90CF90BF90AF9008953E
:104BD0000F931F93CF93DF931F92CDB7DEB78C0156
:104BE00069830E94FA6C6981861741F0C8010F90B1
:104BF000DF91CF911F910F910C94026D0F90DF9177
:104C0000CF911F910F910895EF92FF920F931F93F1
:104C1000CF93DF93EC018B017A01E80EF91ECE15DC
:104C2000DF0539F06991C8010E94E8250F5F1F4F29
:104C3000F6CFDF91CF911F910F91FF90EF900895E4
:104C4000F8944EE852E060E070E088E196E00E945F
:104C50000426789408952F923F924F925F926F921C
:104C60007F928F929F92AF92BF92CF92DF92EF92FC
:104C7000FF920F931F93CF93DF93CDB7DEB7C3554A
:104C8000D1400FB6F894DEBF0FBECDBFAE014F5C72
:104C90005E4F80914106FA0180838091A506818351
:104CA000809142068283809143068383309144063B
:104CB000348380914806858380914906868380915C
:104CC00045068783809146068087F0914706C05B42
:104CD000DE4FF883C055D1408F2FFA01818789E0DC
:104CE000A1E4B6E001900D928A95E1F78091A906C2
:104CF000FA0180832091A6062183F091A706C35B69
:104D0000DE4FF883CD54D1408F2FFA0182838091FA
:104D1000A806838380819181A281B3818093A506B7
:104D20009093A606A093A706B093A806383019F46E
:104D300087E0809345061092A90688E4E2E9F7E04F
:104D4000AAEDB7E001900D928A95E1F76AEA76E064
:104D5000CE0101963DE1FB01DC01132F01900D9284
:104D60001A95E1F78696635E7F4F8417950799F74A
:104D70006E0193E1C90ED11CFE017496C35CDE4F37
:104D8000F983E883CD53D140CE014596C15CDE4F17
:104D900099838883CF53D1401E0196E1290E311C9F
:104DA0008E01025E1F4F3996CF5BDE4FF983E88399
:104DB000C154D140CE014C96C95BDE4F99838883A4
:104DC000C754D1403297CB5BDE4FF983E883C5549B
:104DD000D1400297C55BDE4F99838883CB54D14085
:104DE0003297CD5BDE4FF983E883C354D1400297FD
:104DF000C75BDE4F99838883C954D1407E0197E118
:104E0000E90EF11C5E01E5E0AE0EB11C81E090E020
:104E10008C0F9D1F835B9E4FCF5ADE4F99838883F3
:104E2000C155D140FE013196C25BDE4FF983E88364
:104E3000CE54D14082E0982E8824839449E150E0FA
:104E4000B501C8014897CD5ADE4F2883C355D140DC
:104E50000E94B36CF6017080C35CDE4FE881F9817B
:104E6000CD53D1405080C15CDE4FE881F981CF53F2
:104E7000D1404080F1016080CD5ADE4F2881C3557A
:104E8000D140F50176FE02C0908201C0108248E058
:104E900050E0B701C8010196CD5ADE4F2883C355B3
:104EA000D1400E94B36C80E090E0CD5ADE4F288163
:104EB000C355D140C25BDE4FE881F981CE54D14069
:104EC000E80FF91F368D3D3011F434E1368F02962C
:104ED0008830910579F7F60170FE06C040FE02C0E9
:104EE000908203C0808201C01082C35CDE4FE881E3
:104EF000F981CD53D14050FE06C060FE02C09082C1
:104F000003C0808201C01082C15CDE4FE881F9815C
:104F1000CF53D14071FE06C041FE02C0908203C053
:104F2000808201C01082F10151FE06C061FE02C004
:104F3000908203C0808201C01082F70172FE06C019
:104F400042FE02C0908203C0808201C01082C75B13
:104F5000DE4FE881F981C954D14052FE06C062FE9D
:104F600002C0908203C0808201C01082CD5BDE4F00
:104F7000E881F981C354D14073FE06C043FE02C0EC
:104F8000908203C0808201C01082C55BDE4FE88141
:104F9000F981CB54D14053FE06C063FE02C090821B
:104FA00003C0808201C01082CB5BDE4FE881F981B3
:104FB000C554D14074FE06C044FE02C0908203C0B6
:104FC000808201C01082C95BDE4FE881F981C7543D
:104FD000D14054FE06C064FE02C0908203C08082AD
:104FE00001C01082CF5BDE4FE881F981C154D1400E
:104FF00075FE06C045FE02C0908203C0808201C0DB
:105000001082F80155FE06C065FE02C0908203C002
:10501000808201C01082C25BDE4F88819981CE54AC
:10502000D1408696C25BDE4F99838883CE54D140AF
:1050300096E2C90ED11CC35CDE4FE881F981CD53E5
:10504000D140B696C35CDE4FF983E883CD53D1409F
:10505000C15CDE4F88819981CF53D1408696C15C77
:10506000DE4F99838883CF53D14096E2290E311CBD
:105070000A5D1F4FCF5BDE4FE881F981C154D140FB
:10508000B696CF5BDE4FF983E883C154D140C95B4C
:10509000DE4F88819981C754D1408696C95BDE4F27
:1050A00099838883C754D140CB5BDE4FE881F98177
:1050B000C554D140B696CB5BDE4FF983E883C55427
:1050C000D140C55BDE4F88819981CB54D140869613
:1050D000C55BDE4F99838883CB54D140CD5BDE4FD7
:1050E000E881F981C354D140B696CD5BDE4FF98398
:1050F000E883C354D140C75BDE4F88819981C9548E
:10510000D1408696C75BDE4F99838883C954D140CE
:1051100096E2E90EF11CE6E2AE0EB11CCF5ADE4F6C
:1051200088819981C155D1400817190709F086CEA9
:1051300080E391E0FE013196AAEAB6E001900D927B
:105140000197E1F7273030F4E22FF0E0E15FFA4F0A
:10515000808101C087E08093A606C35BDE4F388163
:10516000CD54D140373030F4E32FF0E0E15FFA4F17
:10517000808101C087E08093A706C05BDE4F388145
:10518000C055D14030932008CD5ADE4F0FB6F89469
:10519000DEBF0FBECDBFDF91CF911F910F91FF906A
:1051A000EF90DF90CF90BF90AF909F908F907F90C7
:1051B0006F905F904F903F902F900895CF93E09124
:1051C000A806E150EA3028F4F0E0E55EFA4F80816D
:1051D00001C086E08093A80680914806809321084C
:1051E00010924806E091A006E150E53028F4F0E086
:1051F000EA5EFA4FC08101C0C0E08BE2E2E2F8E073
:10520000DF011D928A95E9F740E851E061EA76E016
:1052100082EA96E00E94B36CC093A0061092A106A9
:10522000CF910895EFECF6E0DF0116978C918C5F3B
:105230008C9312968C918C5F8C9312968C918C5FD0
:105240008C9380818C5F8083B69667E0EF3FF60792
:1052500059F710924B0851E150934C0841E24093AA
:105260004D0832E330934E0823E420934F0893E532
:105270009093500884E680935108109253085093FD
:10528000540840935508309356082093570890933C
:10529000580880935908EBE5F8E05CE94DEB3FEDE9
:1052A00021E293E4508341833283138224839583E4
:1052B0008683389668E0EB37F607A1F7109252081C
:1052C00010925A081092620810926A0884E1809342
:1052D000720880937A0880E090E0FC01E452FE4F6F
:1052E000E491DC01A558B74FEC9301968830910505
:1052F000A1F708951F93CF93DF93C8E1D6E01EA5D1
:105300004CE352E067E476E088E496E00E94B36CF8
:10531000109347068FE38883DF91CF911F91089503
:105320000F931F93CF93DF93CDB7DEB7C053D14018
:105330000FB6F894DEBF0FBECDBF80E391E0ECEA7C
:10534000F6E0DE01119601900D920197E1F78CEAEB
:1053500096E09E012F5F3F4F45E0F901DC01542F9D
:1053600001900D925A95E1F782962A5D3F4F57E0E2
:105370008C3B950791F781EB96E09E01265F3F4FAE
:105380004DE1F901DC01542F01900D925A95E1F79E
:1053900082962A5D3F4FA7E0813C9A0791F747EA42
:1053A00050E06CED77E08CEB97E00E94B36C10E47A
:1053B000E4E6F8E0DF01512F1D925A95E9F70091DC
:1053C00048064DE552E068E476E08AE496E00E9403
:1053D000B36C109248060093490684E680934A060F
:1053E00010931806C05DDE4F0FB6F894DEBF0FBEF7
:1053F000CDBFDF91CF911F910F910895CF93DF9390
:1054000088EC96E0EEECF6E0CAECD6E04CEC56E028
:1054100024E1DC013C91333109F42C93DA013C9115
:10542000333109F42C933881333109F428833081E6
:10543000333109F420838296B296A2964E5D5F4F77
:10544000B7E0EE3DFB0729F781E480931806DF9172
:10545000CF910895CF93DF9392E1EDE4F6E0DF0181
:10546000292F1D922A95E9F7EFE5F6E0DF011D925D
:105470009A95E9F720E131E0EEEAF6E0DF01A901D3
:105480001D9241505040E1F7EEECF6E0C6ECD7E05B
:105490006EEC77E094E15CE944E69F012650310927
:1054A000D9019C932C5F3F4FD9019C932250310925
:1054B000D9019C939083599324E6DB014D93BD0160
:1054C000B296B7E0EE3DFB0741F7813061F008F49A
:1054D000CFC0823009F497C1833009F064C281E003
:1054E0008093A60660C28093A60622E320934D0611
:1054F0009AE090934E0690934F0632E03093500618
:10550000909351062093530690935406909355061A
:1055100030935606909357065CE35093590698E2F1
:1055200090935A0649E140935B0630935C062093C2
:105530005E0690935F0663E1609360063EE0309301
:10554000610623E0209362068093630690936506CC
:105550006093660630936706209368068093690619
:1055600050936B0690936C0640936D0620936E06E5
:105570008EE180937006E7ECF6E034E642E021E04D
:10558000DF01549794E63C9311963C9312974C9309
:10559000549681E02C932083B29657E0EF34F507C0
:1055A00079F71092B6061092B7062CEE2093B80643
:1055B00032EE3093B9063093BA0668ED6093BB06BD
:1055C0008093BE068093C4068093BF068093C50671
:1055D0008093C0068093C1062093D8063093D906E5
:1055E0001092DA061092DB062EE12093DC0648E2E8
:1055F0004093DD068093DE068093E4068093DF0609
:105600008093E5068093E2068093E3061092FA0603
:105610001092FB0654E15093FC062093FD06309354
:10562000FE066093FF06809302078093080780932D
:10563000030780930907809304078093050750931D
:105640001C0720931D0710921E0710921F0720931E
:105650002007409321078093220780932807809397
:105660002307809329078093260780932707AAC0E2
:1056700031E03093A60688E280934D069AE090933D
:105680004E0690934F0622E02093500690935106C9
:105690008093530690935406909355062093560694
:1056A000909357064CE34093590680935A0699E12C
:1056B00090935B0620935C0652E350935E068093C2
:1056C0005F0673E1709360066EE06093610653E0DD
:1056D0005093620630936306809365067093660666
:1056E00060936706509368063093690640936B0693
:1056F00080936C0690936D0620936E068EE18093E6
:105700007006E7ECF6E024E632E081E0DF01549732
:1057100094E62C9311962C9312973C931A968C93A3
:1057200016968C9315978C9316968C9315978C934D
:1057300016968C9315978C9316968C9315978C933D
:1057400011968C9315968C938083B296A7E0EF34D4
:10575000FA07E1F62FE02093B60684E18093B706BE
:1057600041EF4093B8063CEE3093B906E8EDE09384
:10577000BA067EEC7093BB064093D8063093D906E8
:105780004093DA063093DB0668E26093DC0652E36E
:105790005093DD064093FA063093FB062093FC06F7
:1057A0008093FD06E093FE067093FF0620931C078E
:1057B00080931D0720931E0780931F076093200787
:1057C000509321078BE48093400790934107809387
:1057D00060079093610780938607909387078CE911
:1057E00080939E088DEB80939F088FED8093A00897
:1057F0001092A10881E28093A20883E48093A30819
:105800009093A408D0C091E09093A60638E230931C
:105810004D064AE040934E0640934F068093500653
:1058200040935106309353064093540640935506D7
:1058300080935606409357065CE350935906309385
:105840005A0649E140935B0680935C0662E36093ED
:105850005E0630935F06E3E1E09360067EE07093BE
:10586000610663E060936206909363063093650679
:10587000E0936606709367066093680690936906E6
:1058800050936B0630936C0640936D0680936E06C2
:105890004EE1409370062093B3062093B4068093A4
:1058A000B2062093D5062093D6068093D406209383
:1058B000F7062093F8068093F6064093B6063093D9
:1058C000B70661EF6093B8065CEE5093B90690930B
:1058D000BC069093C2069093BD069093C306809336
:1058E000BE068093C4068093BF068093C50690933E
:1058F000C6069093C70672EE7093D80678ED709343
:10590000D9066093DA065093DB069093DE069093F7
:10591000E4069093DF069093E5068093E00680937B
:10592000E6068093E1068093E7069093E80690935D
:10593000E9064093FC063093FD06809302078093AE
:105940000807809303078093090790930A079093B1
:105950000B07109218078BE48093200720932107F0
:105960009093260790932707809340072093410741
:1059700080936007209361078093860720938707B1
:105980008CE980939E088DEB80939F088FED809328
:10599000A0081092A10881E28093A20883E480937A
:1059A000A3082093A408DF91CF910895CF93DF93AC
:1059B0008EE892E0E8E1F6E0DF019C011D922150C3
:1059C0003040E1F780E48093180682E0809341063E
:1059D00094E09093450621E02093A606809342062A
:1059E000909343068093AA0687E08093AB0683E0FA
:1059F0008093A90686E08093AC068EE18093A7068B
:105A000082E38093490684E680934A0680E890E02A
:105A10009093ED078093EC079093220880932108E0
:105A200084E28093A506C9E1D6E0A6EDB7E0ECEDEF
:105A3000F1E086EA9EE0249129938D939D9331961F
:105A400031E0E43EF307B9F78EEB9AE09093D70785
:105A50008093D607EEECF6E0C6ECD7E06EEC77E08C
:105A600024E14CE934E6CF010697DC012C9304963F
:105A7000DC012C930297DC012C932083499384E66C
:105A8000DB013D93BD01B296B7E0EE3DFB0759F750
:105A900051E150932F0841E24093300832E33093B4
:105AA000310823E42093320893E5909333088093E0
:105AB00034085093370840933808309339082093BE
:105AC0003A0890933B0880933C08E4E4F8E05CE9F2
:105AD0004DEB3FED21E293E4DF0116975C931196C5
