:100000000C94D3150C94E0420C949E420C94B14392
:100010000C94FC150C9466430C94FC150C9423432F
:100020000C94FC150C94FC150C94FC150C94FC150C
:100030000C94FC150C94FC150C94FC150C94FC15FC
:100040000C94FC150C94FC150C9487420C94FC1534
:100050000C947F440C94FC150C94FC150C94FC152A
:100060000C94FC150C94FC150C94FC150C94FC15CC
:100070000C94FC150C94FC150C94FC15982EAA2ECF
:10008000AA2EAA2E9A2EAA2EAA2EAA2E9C2E9E2EDA
:10009000A02EA22EA42EA62EAC2E432FC62FC62FE6
:1000A000552F642F702F6B2F862F922F982FAB2FE9
:1000B000AE4DA24DA44DA64DA84DAA4DAC4DAC4D94
:1000C000074E0B4E0F4E134E174E1B4E204E2D4E0D
:1000D000314E354E394E3D4E414E444E3B4F3F4FD3
:1000E000434F474F4B4F4F4F524F564F634F664F03
:1000F0006A4F6E4F724F794F7C4F834F315233525C
:10010000365238523A523C523E5240524352455275
:10011000475249524C524E525052525254525652D9
:1001200058525A525C525F52615263520557E95617
:10013000EC56EF56F256F556F856FB56FE56FFFFB4
:100140000101FF01010101FF0101FFFFFF01FFFFAD
:1001500001FF01FFFF0101FFFFFFFFFFFF01FF01A3
:1001600001FF0101FFFF01FFFF010101010101FF8B
:10017000FF0101FF01010101FF01FF01FFFFFFFF7F
:10018000FFFF01FF01010001020100020001020165
:100190000002000201010200000201010200000150
:1001A000020100020001020100020002010102003E
:1001B000000201010200020001020100020001022E
:1001C000010002000102010002000102010001021F
:1001D00003050004060701020003040506070001E9
:1001E00002030405060705020601050803070501C9
:1001F0000241050D000F002200330044004F0901A9
:1002000000030007000F001F000F0007000300019C
:1002100000081C001C001C001C007F003E001C008D
:1002200008000808001C003E007F001C001C001C89
:10023000001C0005FF01FE007C00380010000D408E
:10024000006000700078007C007E007F007E007CF3
:1002500000780070006000400001022D0D1D001F9D
:10026000004400440044007D00AA00E3011C015D3D
:10027000019201CB0204023D0900700000007000F1
:1002800000007000000070000000700000007000AE
:10029000000070000000700000007000000E80FF81
:1002A0000100F0FF0F00F8FF1F007C003E001E0061
:1002B00078000E0070000E0070000E0070000E003E
:1002C00070001E0078007C003E00F8FF1F00F0FF69
:1002D0000F0080FF01000B70007000700070007054
:1002E00000700078007000FCFF7F00FEFF7F00FEC2
:1002F000FF7F000000700000007000000070000030
:100300000070000E000078001C007C001C007E00C5
:100310000E0077000E0077000E8073000EC0710093
:100320000EE070001E7870001E3C7000FC1F700014
:10033000F8077000F0037000000070000E00003835
:10034000001C0038001C0070000E0070000E0070D1
:10035000000E1C70000E1C70000E1C70000E1C7035
:10036000000E3E78001C373C00FCF33F00F8E31F12
:1003700000F0C007001000E0010000F0010000FCE8
:10038000010000FE010000DF010080CF0100E0C39A
:100390000100F0C10100F8C001007CC00100FEFFB7
:1003A0007F00FEFF7F00FEFF7F0000C0010000C055
:1003B000010000C001000D00003800FE1F3800FEE3
:1003C0000F7000FE0F70000E0E70000E0E70000E0B
:1003D0000E70000E0E70000E1E78000E3C3C000EDB
:1003E000FC1F000EF80F000EE007000E00FE0300D9
:1003F000C0FF0F00F0FF1F00F81C3E003C0C78000F
:100400001C0E70001E0E70000E0E70000E0E70009E
:100410000E1E78000E3C3C001EFC1F0000F80F0072
:1004200000E007000E0E0000000E0000000E00406D
:10043000000E0070000E007C000E007F000EC01F3A
:10044000000EF007000EFC00000E3F0000CE0F0073
:1004500000FE030000FE0000003E0000000E00C091
:100460000700F0E11F00F8F33F00FC3F3C001E1FB7
:1004700078000E0E70000E0C70000E1C70000E182E
:1004800070001E3C7800FC7F3C00F8F33F00F0E178
:100490001F0000C007000EE0070000F01F0000F87A
:1004A0003F78003C3C70001E7870000E7070000EAB
:1004B0007070000E7078000E7038001E303C007CAA
:1004C000381F00F8FF0F00F0FF0300C07F0000019D
:1004D00002205F1300C300CD00D400E7010C012807
:1004E000015F0187018E01A101B401D001F5020273
:1004F0000215021C02350254026D028902A502C4D3
:1005000002E002FF031B033A03590360036D038FEC
:1005100003B103D303EC041D04450464048604AB57
:1005200004C704E3050B052A053D05530575059130
:1005300005B605D505FD0616063E0660068206A729
:1005400006C606EE072207440769078B079B07B418
:1005500007C407E9080E081B083408500869088515
:1005600008A108B408D008E908F00900091C09230B
:10057000094E0967098609A209BE09D109EA09FDE0
:100580000A160A320A5D0A790A950AAE0ACA0AD11F
:100590000AED0300000000000000000002FE6700FA
:1005A000FE6700061F00001F0000000000000000A2
:1005B0001F00001F00000C00040020040020640045
:1005C000201F00F80400260400206400201F00F80B
:1005D000040026040020040020000009E03000F0A0
:1005E0006100986100186300FFFF03186300186240
:1005F00000183E00181C0012780000FE01000201E5
:1006000000020100020100FE4100787000001C00A1
:10061000000700E000003800000E1E00827F00800E
:100620004000804000804000807F00001E000D00E0
:100630001E003C3F00FC7100C66000C66000C66141
:10064000007E63003C3600001C00801F00803700E5
:10065000006000004000021F00001F000006C01FD5
:1006600000F8FF003CE0010700070300060100045A
:10067000060100040300060700073CE001F8FF0044
:10068000C01F0009C600004400006C0000280000E4
:10069000FF01002800006C0000440000C600000CB0
:1006A000000300000300000300000300000300F843
:1006B0007F00F87F00000300000300000300000338
:1006C000000003000400000300F0030070000010AD
:1006D0000006000300000300000300000300000305
:1006E000000003000200700000700008000003001A
:1006F000E00300FC01803F00F00700FE00001F0047
:10070000000300000AF00F00FC3F000C3000066000
:10071000000660000660000660000C3000FC3F0030
:10072000F00F0008186000186000186000FE7F00DD
:10073000FE7F00006000006000006000090C700097
:10074000067800066C000666000663008E6100FCF9
:100750006000786000006000090C30000660000650
:100760006000866100866100866100CE73007C3F78
:1007700000381E000A000700800700C00700F006CE
:10078000003806001C0600FE7F00FE7F0000060009
:1007900000060009003000FE6000FE6000C6600038
:1007A000C66000C66000C63100863F00060F000A22
:1007B000E00F00F03F009C3000CC6000C66000C637
:1007C0006000C66000C63100863F00000F000906C9
:1007D0000000064000067000067C00060F00C603FD
:1007E00000F600003E00000E00000A381E007C3FAC
:1007F00000CE7100C66000C66000866100866100A0
:100800004E73007C3F00381E000AF00000FC6100BF
:100810008C63000663000663000663000633000C69
:100820003900FC1F00F007000270700070700004B7
:1008300000000370F0037070000010000B00010056
:10084000800300800300C00600C00600600C00604A
:100850000C003018003018001830001830000BC0A1
:100860000C00C00C00C00C00C00C00C00C00C00C80
:1008700000C00C00C00C00C00C00C00C00C00C007C
:100880000B183000183000301800301800600C00D1
:10089000600C00C00600C00600800300800300005A
:1008A0000100080C000006000006670006670086CD
:1008B0000100CE0000FC000038000010C00F00F066
:1008C0003F003870000CC000848F00C69F0162306A
:1008D00001222001222001221001E23F01E4BF0198
:1008E0000C2000382000F03F00C00F000D00400039
:1008F000007800003F00C00700F806003E06000632
:1009000006003E0600F80600C00700003F00007821
:10091000000040000AFE7F00FE7F008661008661C5
:1009200000866100866100C661007C73003C3F0068
:10093000001E000BE00700F81F001C38000C300000
:1009400006600006600006600006600006600006A3
:1009500020000C30000CFE7F00FE7F0006600006C9
:1009600060000660000660000660000E70000C303B
:1009700000381C00F80F00E0070009FE7F00FE7F32
:1009800000C66000C66000C66000C66000C66000A9
:10099000C66000C6600009FE7F00FE7F0086010081
:1009A000860100860100860100860100860100069E
:1009B00000000DE00700F81F003C3C000C30000E6A
:1009C00070000660000660000663000663000663B0
:1009D000000663000C3F000C3F000AFE7F00FE7F14
:1009E00000C00000C00000C00000C00000C0000047
:1009F000C00000FE7F00FE7F00060660000660006B
:100A0000FE7F00FE7F0006600006600007006000B9
:100A1000006000066000066000067000FE3F00FEF9
:100A20001F000BFE7F00FE7F00800300C00100E07E
:100A30000300700700381C001C38000E70000660B0
:100A40000002400009FE7F00FE7F000060000060A1
:100A500000006000006000006000006000006000B6
:100A60000CFE7F00FE7F000E0000380000E0010059
:100A7000800700000700E001003800000E0000FEC3
:100A80007F00FE7F000AFE7F00FE7F000E00003C1C
:100A90000000E00000800300001E00007800FE7FE0
:100AA00000FE7F000DE00700F81F001C38000C302E
:100AB0000006600006600006600006600006600038
:100AC0000C30001C3800F81F00E0070008FE7F0013
:100AD000FE7F000603000603000603008E0300FCF1
:100AE0000100F800000DE00700F81F001C38000CA2
:100AF000300006600006600006600006E00106E0C7
:100B0000030C30071C3806F81F06E007060BFE7FB3
:100B100000FE7F0086010086010086010086070036
:100B2000CE0E00FC1C007870000060000040000B3E
:100B3000783000FC7000CE6000866100866100861F
:100B400061008661008661000633000C3F00001ED4
:100B5000000C06000006000006000006000006006B
:100B600000FE7F00FE7F0006000006000006000079
:100B70000600000600000AFE0F00FE3F00007000A5
:100B8000006000006000006000006000007000FE77
:100B90003F00FE0F000D0200001E0000FC0000E000
:100BA0000300801F00007C00006000007C00801FAC
:100BB00000E00300FC00001E00000200001106001F
:100BC000007E0000F80700803F00007800007C00F5
:100BD000C00F007E00000600007E0000E00700005D
:100BE0007E00007000807F00F807007E0000060095
:100BF000000B0240000660001E7800381C00E00771
:100C000000800100E00700381E001E78000660002A
:100C10000240000C0200000600001E0000780000E8
:100C2000E00000C07F00C07F00E000007800001EF0
:100C300000000600000200000B06700006780006A7
:100C40007C00066E00066700C66300E66000766002
:100C5000003E60001E60000E600005FFFF07FFFF02
:100C600007010004010004010004080300001F0044
:100C700000FE0000F00700803F0000FC0100E003E0
:100C800000000305010004010004010004FFFF0748
:100C9000FFFF070C800000C000006000003800006B
:100CA0000C00000600000600001C00003800006078
:100CB0000000C000008000000C00000200000200E4
:100CC000000200000200000200000200000200001A
:100CD0000200000200000200000200000204010005
:100CE0000003000007000004000008003C00307E04
:100CF00000306700306300306300303300E07F0075
:100D0000E07F0009FF7F00FF7F006020003060006F
:100D1000306000306000707000E03F00C00F0008DD
:100D2000800F00E03F006030003060003060003035
:100D3000600030600060300009801F00E03F0070FC
:100D40007000306000306000306000303000FF7FA5
:100D500000FF7F0009800F00E03F00603300306338
:100D600000306300306300706300E06300C0330054
:100D700006300000FE7F00FF7F00330000330000DC
:100D800003000009801F00E03F0670700630600617
:100D9000306006306006303007F0FF03F0FF0108D6
:100DA000FF7F00FF7F006000003000003000003057
:100DB0000000F07F00E07F0002F67F00F67F000574
:100DC000000006300006300006F6FF07F6FF0309B4
:100DD000FF7F00FF7F00000600000700800F00C0BB
:100DE000380070700030600010400002FF7F00FF8C
:100DF0007F000EF07F00F07F0060000030000030C8
:100E00000000300000F07F00E07F00600000300054
:100E100000300000300000F07F00E07F0008F07F2D
:100E200000F07F0060000030000030000030000063
:100E3000F07F00E07F000A800F00E03F006030009C
:100E4000306000306000306000306000603000E0F2
:100E50003F00800F0009F0FF07F0FF0760600030DF
:100E60006000306000306000707000E03F00C00F34
:100E70000009801F00E03F007070003060003060AB
:100E800000306000303000F0FF07F0FF0706F07F11
:100E900000F07F00600000300000300000300000F3
:100EA00008C03100E063003063003063003066004A
:100EB000306600303E00601C0006300000FE3F003F
:100EC000FE7F0030600030600030600008F01F00DE
:100ED000F07F00006000006000006000003000F063
:100EE0007F00F07F0009100000F00000E007000024
:100EF0003E00006000003E00E00700F0000010002F
:100F0000000E300000F00300C03F00007800007CBD
:100F100000800700F00000F00000C00700003C0067
:100F2000007000C03F00F0030030000009104000D6
:100F3000306000F07800C01D00000700C01D00F008
:100F4000780030600010400009100000F00000E060
:100F5000070600BF0700F001003F00E00700F000B7
:100F60000010000008307000307800307C003066DF
:100F700000306300F06100F060007060000102204A
:100F80005F0B00C300C600C900D000DF00EA00FF0D
:100F9000010E01110118011F012A0139013E01450D
:100FA00001480153015E01690174017F018C0197C1
:100FB00001A201AD01B801C301C601CB01D801E70F
:100FC00001F401FD020E021B022802370246025103
:100FD000025C026B0278027F0288029502A002AFD7
:100FE00002BC02CB02D602E502F202FF030E031B93
:100FF0000328033B034803570364036B0376037D15
:10100000038C039B03A003AB03B603C103CC03D73C
:1010100003E003EB03F603F90400040B040E0421C0
:10102000042C04370442044D0456045F046804731E
:10103000047E048D049804A304AC04B704BA04C568
:10104000010000017E0103070000000700074000C7
:10105000C8017800CE0178004E0008000518012470
:1010600001FF072401C4000A0C00120012008C01C9
:1010700060001800C60020012001C00007EC00122B
:101080000112012C01C000B000000101070003F8AB
:1010900000060301040301040603F800050A000426
:1010A000001F0004000A0007200020002000FC01AF
:1010B0002000200020000200048003032000200004
:1010C0002000018001050003C00030000C00030077
:1010D00005FC00020102010201FC000504010401FB
:1010E000FE01000100010584014201220112010CF0
:1010F00001058400020112011201EC00066000509B
:101100000048004400FE014000059E00120112014B
:101110001201E20005F800140112011201E00005BD
:101120000200820162001A00060005EC00120112A2
:10113000011201EC00051C0022012201A2007C002A
:10114000019801020004980306200020005000507E
:1011500000880088000750005000500050005000E8
:1011600050005000068800880050005000200020E9
:1011700000040200620112000C0008F80004017271
:10118000028A028A027A0282007C0006C00178008C
:10119000460046007800C00106FE0112011201124D
:1011A000011C01E000077800840002010201020135
:1011B0000201840007FE0102010201020102018412
:1011C00000780005FE01120112011201120105FE54
:1011D00001120012001200020007780084000201D0
:1011E000020122012201E40006FE0110001000109D
:1011F000001000FE01030201FE01020104000102D1
:10120000010201FE0006FE012000300048008400BB
:10121000020105FE01000100010001000107FE01BD
:1012200006001800600018000600FE0106FE010618
:1012300000180060008001FE0107780084000201B0
:10124000020102018400780005FE01220022002232
:10125000001C0007780084000201020102038404DC
:10126000780406FE012200220062009C00000106B4
:101270008C001201120122012201C40007020002A7
:10128000000200FE0102000200020006FE00000152
:10129000000100010001FE00060E007000800180C8
:1012A0000170000E00090600780080017800060039
:1012B0007800800178000600068601480030003082
:1012C000004800860107020004000800F001080041
:1012D000040002000682014201220112010A0106F5
:1012E0000103FF07010401040503000C003000C0E6
:1012F0000000030301040104FF07071000080004B5
:1013000000020004000800100007000400040004AC
:101310000004000400040004020100020005C000F3
:10132000280128012801F00105FF01080108010832
:1013300001F00005F000080108010801900005F027
:1013400000080108010801FF0105F000280128013B
:101350002801B000040800FE010900090005F000A2
:10136000080508050805F80305FF0108000800083E
:1013700000F00101F9010300040804F90305FF016D
:10138000400060009000080101FF0109F801080019
:1013900008000800F001080008000800F00105F846
:1013A00001080008000800F00105F000080108012C
:1013B0000801F00005F807080108010801F0000520
:1013C000F000080108010801F80704F801100008FE
:1013D00000080004300128014801C800040800FE8C
:1013E000000801080105F800000100010001F801F2
:1013F0000518006000800160001800077800800177
:10140000600018006000800178000508019000600D
:1014100000900008010508007004800370000800B7
:10142000048801480128011801AF40A0A6A4A2EE3B
:10143000C82F24AC00F8000706050403020100E0F1
:1014400020431A3E1A391A341A2F1A2A1A251A203A
:101450001AC223BA23C023BE23BC23B523B023ABB7
:1014600023A623A21CC21CBD1CB71CA420CC23C4D1
:1014700023DA21FB21F621F021EC21E821E42108E7
:101480001DFF1C101DF81CF31C691A641A5F1A5A00
:101490001A551A4F1A491ADF1C481A3C1D341D3CB4
:1014A0001F371F341F2A1F201F971A8F1A8A1A27C7
:1014B0001D221D191D781CDF216C1C2A20262020CE
:1014C00020172010200520E020DD20AF1AB61AA535
:1014D0001A0B19481ACF1CC81C9523832370235E4E
:1014E0002348233923252311230723F422E522D679
:1014F00022C722B822A9229A228B227C2268224F5C
:1015000022362221220E220022481A481A481A485E
:101510001A101D081DFF1CF81CF31CEE1CE91CE42E
:101520001CDF1CD81CD21C481A481AAB1C9D1A8AF6
:101530001A341C281C481AE51BDC1BD31BCF1BC606
:101540001BBE1BF51FEE1FE41FDD1FAF1C4D1C3F14
:101550001C3A1C201C151C481ABF1AB61AF621F09A
:1015600021EC21D4209A1FCA20BF20B0204F203F59
:101570002094208420732060202F20D01FC31FB907
:101580001FB11FA41F6D1F6D1A901F861F7A1F6544
:101590001F5D1F481A481AD221CA21BC21AF219FC2
:1015A0002185217C21732164215621452139213255
:1015B000212B211E2112210821FE20F420E42018D5
:1015C0001F081FF81EEA1EDA1ECA1EBA1EAA1E9A9D
:1015D0001E8A1E7C1E6E1E5F1E501E431E361E2A55
:1015E0001E1E1E061EF91DEB1DDD1DD01DC51DB8DE
:1015F0001DAD1DA01DC51D931DAD1D481A481A48DF
:101600001A481A3C1D341D2E1D9519101C0B1C0662
:101610001C011CFC1BF71BF21BED1B481A481A4847
:101620001A481A481A481A481A481A481A481A48AA
:101630001A481A481A481A481ADF1C3C1D341D2E35
:101640001D481A481A631C5A1C981C921C861CEDD3
:1016500023E723D420DE23DC23DA23851A811A7AB8
:101660001A131A0C1A021A1A1AFA19481A481AA046
:1016700023E019D319481ACC19BE19AD19A019487D
:101680001AD123481A9A19481A481A481AB51BAC95
:101690001BA21B981B8E1B841B7C1B711B661B5A79
:1016A0001B4E1B431B381B2C1B231B181B0E1B0321
:1016B0001BFB1AF11AE61ADB1AD21AC61A481ACFFD
:1016C0001C7C198719481A501F431F411F3F1FD206
:1016D00021CA21BC21AF21902185217C2173216465
:1016E0002156214521392132212B211E2112210889
:1016F00021FE20F420E420181F081FF81EEA1EDA3D
:101700001ECA1EBA1EAA1E9A1E8A1E7C1E6E1E5F4E
:101710001E501E431E361E131E1E1E061EF91DEBF6
:101720001DDD1DD01DC51DB81DAD1DA01DC51D9302
:101730001DAD1D481A481A481A481A481A481A7402
:1017400018651856184718381829181A180B184809
:101750001A481A481A481A2A202620202017201032
:1017600020052001206A1958194419301920191030
:1017700019481A07190319FF18FB18F618F118EC85
:1017800018E718DF1C481A481A0719D418CC18DCB7
:101790001807190319FF18FB18F618F118EC18E7C9
:1017A000188A1D801D781D721D6C1D5E1D551D44FF
:1017B0001DDF1C0719D418CC18DC1807190319FFF2
:1017C00018FB18F618F118EC18E7188A1D801D7818
:1017D0001D661D6C1D4E1D551D441DDF1C481A48FD
:1017E0001A481A481A481AC918C618C318C018BD8A
:1017F00018BA18B718B418B018AB18A618A1189CC6
:1018000018971892188D188818831843682E382056
:1018100046756E6374696F6E3A0043682E372046D2
:10182000756E6374696F6E3A0043682E3620467594
:101830006E6374696F6E3A0043682E352046756E8C
:101840006374696F6E3A0043682E342046756E6388
:1018500074696F6E3A0043682E332046756E637468
:10186000696F6E3A0043682E322046756E63746964
:101870006F6E3A0043682E312046756E6374696F4F
:101880006E3A004158333A004158323A00415831DB
:101890003A004745523A005255443A00454C453AC1
:1018A0000041494C3A005448523A004F55543A00CE
:1018B000506E3A00383A00373A00363A00353A006E
:1018C000343A00333A00323A00313A0043757276C6
:1018D000652044004375727665204300436F6C6C4D
:1018E0006563746976650041555833004155583237
:1018F000004155583100474541520052554400457A
:101900004C450041494C00544852004352433A0070
:1019100047656E6572696320437572766520440081
:1019200047656E6572696320437572766520430072
:10193000503220436F6C6C65637469766520437523
:1019400072766500503120436F6C6C656374697604
:1019500065204375727665005032205468726F744A
:10196000746C65204375727665005031205468723E
:101970006F74746C6520437572766500456172748E
:1019800068207265662E00566572742E20415020C4
:101990007265662E00416C742E00436C65617200A6
:1019A00044697361726D2074696D6572004E6F20B9
:1019B0007369676E616C2064697361726D004D615B
:1019C0006E75616C2064697361726D005265626F3F
:1019D0006F740052454D4F56452050524F505300A2
:1019E0005741524E494E47202D2045726173657311
:1019F0002073657474696E6773004F7074696F6EDD
:101A00007300547269636F7074657200517561641C
:101A100020500051756164205800426C616E6B006B
:101A2000332E395600332E385600332E37560033B6
:101A30002E365600332E355600332E345600332EB4
:101A4000335600332E32560000323630487A003199
:101A50003834487A003934487A003434487A0032CD
:101A600031487A003130487A0035487A004D505577
:101A700036303530204C50463A007369676E616CE1
:101A8000006C6F77006869676800486967680041A3
:101A9000726D61626C650041726D65640053796EB0
:101AA00063205243005265765363616C6564005352
:101AB00063616C6564005265766572736564004E9F
:101AC0006F726D616C0052696768742D46726F6E3B
:101AD000740052696768742D5570005269676874A4
:101AE0002D4261636B0052696768742D446F776E95
:101AF000004C6566742D4261636B004C6566742D05
:101B00005570004C6566742D46726F6E74004C659E
:101B100066742D446F776E0046726F6E742D4C653F
:101B200066740046726F6E742D55700046726F6E4B
:101B3000742D52696768740046726F6E742D446F1D
:101B4000776E00426F74742E2D4C65667400426F80
:101B500074742E2D46726F6E7400426F74742E2D45
:101B6000526967687400426F74742E2D4261636B12
:101B7000004261636B2D5269676874004261636B58
:101B80002D5570004261636B2D4C65667400426197
:101B9000636B2D446F776E00546F702D52696768C8
:101BA0007400546F702D46726F6E7400546F702DF8
:101BB0004C65667400546F702D52656172005069F7
:101BC0007463685570005369646577617973004187
:101BD000667400496E766572746564005665727449
:101BE0006963616C00466F7277617264004F55548F
:101BF00038004F555437004F555436004F55543523
:101C0000004F555434004F555433004F5554320053
:101C10004F555431002844697361726D6564290021
:101C20002841726D65642900666F72207374617457
:101C300075732E00507265737300446F6E650048B3
:101C40006F6C642061732073686F776E004E6F2035
:101C50005258207369676E616C0073657474696EA5
:101C60006773005570646174696E670043616C2E20
:101C7000206661696C6564004553432063616C694B
:101C8000627261746500486F6C642073746561648E
:101C900079005265736574004F70656E4165726FAF
:101CA000320044697361726D6564004C6F77004265
:101CB000617474657279004D6F64656C004C6F736C
:101CC00074004572726F72005369676E616C004EEA
:101CD0006F00456C65762E005468726F742E004E4E
:101CE0006F6E6500415558330041555832004155DB
:101CF0005831004765617200527564646572004531
:101D00006C657661746F720041696C65726F6E000C
:101D10005468726F74746C65005371727453696E99
:101D2000650053696E65004C696E656172004D6FA8
:101D3000746F7200442E536572766F00412E5365A6
:101D400072766F00416C742E2064616D7000414C9E
:101D50002059617700414C20506974636800414C00
:101D600020526F6C6C00416363205A004163632012
:101D700059004163632058004779726F59617700B9
:101D80004779726F5069746368004779726F526F58
:101D90006C6C00503220536F7572636520423A00BC
:101DA000503120536F7572636520423A00503220E3
:101DB000566F6C756D653A00503220536F757263C3
:101DC0006520413A00503120566F6C756D653A00C0
:101DD000503120536F7572636520413A00503220B4
:101DE000416C742E2064616D703A00503120416C5A
:101DF000742E2064616D703A005032205069746313
:101E00006820414C3A005031205069746368204189
:101E10004C3A0050312059617720414C3A00503201
:101E200020526F6C6C20414C3A00503120526F6C44
:101E30006C20414C3A00503220596177206779720A
:101E40006F3A00503120596177206779726F3A00FC
:101E50005032205069746368206779726F3A00507D
:101E600031205069746368206779726F3A0050328C
:101E700020526F6C6C206779726F3A00503120529B
:101E80006F6C6C206779726F3A0050322052756423
:101E90002E20766F6C756D653A0050312052756456
:101EA0002E20766F6C756D653A00503220456C655A
:101EB0002E20766F6C756D653A00503120456C654B
:101EC0002E20766F6C756D653A0050322041696C3A
:101ED0002E20766F6C756D653A0050312041696C2B
:101EE0002E20766F6C756D653A005472616E732E9C
:101EF0002063757276653A005032205468722E2045
:101F0000766F6C756D653A005031205468722E20E2
:101F1000766F6C756D653A004465766963653A0065
:101F200050312E6E202D205032005031202D205067
:101F3000312E6E0050320050312E6E005031002094
:101F4000002000503120726566726E63652E3A0083
:101F50005031206F7269656E746E2E3A0042757A48
:101F60007A65723A005072657365743A004C6F7707
:101F7000205620616C61726D3A00414C20636F7293
:101F8000726563743A004779726F204C50463A008C
:101F90004163632E204C50463A0050574D207261E9
:101FA00074653A0044697361726D2074696D653AB5
:101FB000005361666574793A00436F6E74726173A1
:101FC000743A005461696C207369747465723A00E4
:101FD0004F7269656E746174696F6E3A0043757310
:101FE000746F6D004D756C7469706C657800467522
:101FF00074616261004A522F5370656B7472756D23
:1020000000524157004D6F646520422F55444900EE
:10201000587472656D65005370656B7472756D00F0
:10202000532D4275730050574D004350504D0041A1
:102030006363566572742066696C7465723A004910
:102040006E626F756E64207472616E732E3A004F0B
:102050007574626F756E64207472616E732E3A00CF
:10206000566962726174696F6E20646973706C6125
:10207000793A005472616E736974696F6E20686991
:1020800067683A005472616E736974696F6E206D8F
:1020900069643A005472616E736974696F6E206C82
:1020A0006F773A005472616E736974696F6E3A00AB
:1020B00050726F66696C65206368616E2E3A0043EA
:1020C000682E206F726465723A0050574D20737904
:1020D0006E633A00525820747970653A004F4E0092
:1020E0004F4646005A2D617869732049206C696D0E
:1020F00069743A005A2D6178697320493A005A2D63
:102100006178697320503A00596177207472696D63
:102110003A00596177204920726174653A0059612B
:10212000772049206C696D69743A005961772049BC
:102130003A0059617720503A0050697463682074FE
:1021400072696D3A005069746368206175746F6CD0
:102150006576656C3A005069746368204920726145
:1021600074653A0050697463682049206C696D6930
:10217000743A00506974636820493A005069746386
:102180006820503A00526F6C6C207472696D3A008E
:10219000596177206175746F6C6576656C3A005291
:1021A0006F6C6C206175746F6C6576656C3A00526B
:1021B0006F6C6C204920726174653A00526F6C6CD0
:1021C0002049206C696D69743A00526F6C6C20492B
:1021D0003A00526F6C6C20503A00496E762E0043E4
:1021E000616C2E00494D55004163630059617700D1
:1021F000506974636800526F6C6C004779726F00AD
:1022000032342E204572726F72206C6F6700323349
:102210002E20496E2F4F757420646973706C61793C
:102220000032322E20437573746F6D2043682E2068
:102230006F726465720032312E20506F732E2053FE
:102240006572766F207472766C2E202825290032F4
:10225000302E204E65672E20536572766F20747283
:10226000766C2E202825290031392E205365727670
:102270006F20646972656374696F6E0031382E2057
:102280004F555438204D697865720031372E204FF4
:10229000555437204D697865720031362E204F55E0
:1022A0005436204D697865720031352E204F5554D3
:1022B00035204D697865720031342E204F555434E5
:1022C000204D697865720031332E204F55543320EC
:1022D0004D697865720031322E204F555432204DB1
:1022E000697865720031312E204F555431204D6987
:1022F0007865720031302E204F7574707574206FC0
:1023000066667365747300392E2043757276657343
:1023100000382E20466C696768742070726F666999
:102320006C65203200372E20466C69676874207017
:10233000726F66696C65203100362E204C657665BB
:102340006C206D6574657200352E2053656E736F59
:10235000722063616C6962726174696F6E00342E01
:1023600020537469636B20706F6C617269747900BB
:10237000332E20526563656976657220696E7075CB
:10238000747300322E20526563656976657220731E
:102390006574757000312E2047656E6572616C0042
:1023A00041626F72740053617665004465662E0069
:1023B0004261636B004D656E75004500440043004B
:1023C000420041004A69747465723A00506F733A72
:1023D00000426174746572793A0030002E005072C8
:1023E0006F66696C653A004D6F64653A00566572B8
:1023F00073696F6E3A20312E3400010101FF010133
:10240000FFFF0101FF01FF0101FF01FFFFFFFFFFD0
:10241000FF0101FFFFFFFFFFFF01FF0101FF01FFC0
:102420000101FFFF0101FF010101FFFF01FFFFFFAC
:1024300001FFFF01FF010101010101FFFF01FFFF9A
:10244000010100010201000200010201000202017B
:10245000000200010201000200010001020100026D
:10246000000102010002020100020001020100025B
:10247000000101020000020101020000020101024C
:1024800000000201010200000201E17A0841C3F5E7
:102490009040295C1F40713DCA3F52B89E3F0000EA
:1024A000803F0000803F0000803F0000B841AE4701
:1024B00039413333BB4066664640C3F5E83FCDCC77
:1024C000AC3F52B89E3F0000803F00070101000072
:1024D00007010101000701010200070101030007D4
:1024E00001010400070101050007010106000701C1
:1024F0000107550055005500550055005500550081
:102500005500690069006900690069006900690097
:102510006900006401000000640100110064010012
:102520002100640100320064010042006401005394
:10253000006401006400000101000064010000006B
:102540006401001100640100210064010032006494
:1025500001004200640100530064010064000001B6
:1025600001009C6401009C9C640100BE9C6401000D
:10257000DF9C640100009C640100219C6401004216
:102580009C6401006400000101009C6401009C9CAB
:10259000640100BE9C640100DF9C640100009C6437
:1025A0000100219C640100429C6401006400000160
:1025B00001009C6401009C9C640100BE9C640100BD
:1025C000DF9C640100009C640100219C64010042C6
:1025D0009C6401006404140101149C6401009C9C2F
:1025E000640100BE9C640100DF9C640100009C64E7
:1025F0000100219C640100429C64010064041401F8
:1026000001148000800080008000800080000000B5
:1026100000000000000000000000030F1B27007FE7
:10262000010028007F01000A007D01000A00070167
:102630000002007F01000A817F010000007F01008D
:1026400028007F01000A007D01000A000701000246
:10265000007F01000A817F010000007F01003C0033
:102660007F010028007D0100190007010002817F21
:10267000010000007F010028007F010014007D019F
:10268000000A5500550055005500550055005500ED
:102690005500550055005500550055005500550092
:1026A0005500550055005500550000000000000081
:1026B000000000000000000000000000000000001A
:1026C000000000000000000000000000000000000A
:1026D00000000002010102007D010064007D010094
:1026E000640002010100837D010000837D01000080
:1026F000837D010000837D010000837D0100008354
:102700007D01000000020101000002010100000241
:1027100001010000020101000002010100000201AC
:10272000010000020101000002010100000201019C
:10273000000002010100000201010000020101008D
:102740000114010114837D010000011401011483AF
:102750007D0100000114010114837D0100000114BA
:10276000010114837D01000055005C005C005C00E9
:102770005C005C005C005C005C005C005C005C0079
:102780005C005C005C005C005C005C005C005C0069
:102790005C005C004D004D004D004D004D004D00B3
:1027A0004D004D00E2000000000038000000000075
:1027B0000000000000000000440044004400440009
:1027C00044004400440044004400440044004400E9
:1027D000BA010000A5010000BA010000A501000037
:1027E000E2000000000038000000000000000000CF
:1027F0000000000044004400440044004400440041
:10280000440044004400440044004400A50100008A
:10281000A5010000A5010000A5010000837D0100C5
:1028200000837D010000837D010000837D010000A5
:10283000837D010000837D010000837D0100000095
:1028400000010100837D010000837D010000837D84
:10285000010000837D010000837D010000837D0174
:102860000000837D0100000000010100837D010064
:1028700000837D010000837D010000837D01000055
:10288000837D010000837D010000837D0100000045
:1028900000010100837D010000837D010000837D34
:1028A000010000837D010000837D010000837D0124
:1028B0000000837D0100000000010100837D010014
:1028C00000837D010000837D010000837D01000005
:1028D000837D010000837D010000837D01000000F5
:1028E00000010100837D010000837D010000837DE4
:1028F000010000837D010000837D010000837D01D4
:102900000000837D0100000000010100837D0100C3
:1029100000837D010000837D010000837D010000B4
:10292000837D010000837D010000837D01000000A4
:1029300000010100837D010000837D010000837D93
:10294000010000837D010000837D010000837D0183
:102950000000837D01000000000101008000800074
:102960008000800080008000800080000000000067
:102970000000000000000000000000000001010154
:1029800000830001039C007D01036450005000504F
:1029900000500050005000500050005000500050B7
:1029A00000500050005000500050005000500050A7
:1029B00000500050005000500050008D008D008DE0
:1029C000008D008D008D008D008D00000000000046
:1029D00000000000000000000000000000000000F7
:1029E0000000000000000000000000040506070AC7
:1029F0000B08090C0D0E0F02030001111213101722
:102A00001415160005010102000201010200040173
:102A10000104000301010000070101040028010076
:102A20000000280100000063010000016301003282
:102A300001640100640001010100007F0100140035
:102A40001701010000020101001A2201001E00010D
:102A5000010101007F01001E0008010100000601C4
:102A6000010300070101020007010107020B010039
:102A70000600030104000001010101410041004181
:102A8000003C004B005F005F005F005F005F005F85
:102A9000005F0046004300430043005000500050D8
:102AA00000500050005000500050008C017600692A
:102AB00000820069000000000000000000000044E7
:102AC0000000002701400100003500000000002543
:102AD0000025002500000011014400000D12161908
:102AE0001C1F21232628292B2D2F30323335363831
:102AF000393A3B3D3E3F40414243444546474849C1
:102B00004A4B4C4D4D4E4F505151525353545555C5
:102B1000565757585859595A5A5B5B5C5C5D5D5E15
:102B20005E5E5F5F5F60606061616162626262629F
:102B3000636363636363636464646464646464645C
:102B40000002030506080A0B0D0E101113141617C8
:102B5000191A1C1D1F202223252628292B2C2D2F36
:102B6000303233343637383A3B3C3D3F40414243C4
:102B700044464748494A4B4C4D4E4F50515253548E
:102B8000545556575858595A5A5B5C5C5D5E5E5FA7
:102B90005F60606061616262626363636363646417
:102BA00064646464640011241FBECFEFD0E1DEBF13
:102BB000CDBF14BE0FB6F894A895809160008861CF
:102BC00080936000109260000FBE15E0A0E0B1E0BD
:102BD000EEE2FFED02C005900D92A632B107D9F7E3
:102BE00029E0A6E2B5E001C01D92A538B207E1F7E1
:102BF0000E94B52E0C94956F0C940000000008956F
:102C0000FDDFFCDFFBDFFADF0895CF935898C6E7BE
:102C10000E941216589ACAE70E9412168A95B1F7B6
:102C2000CF91089500C000C000C000C000C000C027
:102C300000C000C00000CA95A9F70895F62EEF93D2
:102C4000FF93AF93BF93CF93DF930F931F932F9374
:102C50003F934F935F936F937F93E82FF92F8F9359
:102C60009F93A191B191A65CB040AF93BF93A77021
:102C70007A2FA191B191AE5BB040AF93BF93A77093
:102C80006A2FA191B191A65BB040AF93BF93A7709B
:102C90005A2FA191B191AE5AB040AF93BF93A77094
:102CA0004A2FA191B191A55AB040AF93BF93A7709D
:102CB0003A2FA191B191AD59B040AF93BF93A77096
:102CC0002A2FA191B191A559B040AF93BF93A7709E
:102CD0001A2FA191B191AD58B040AF93BF93A77097
:102CE0000A2F972F0E948C17F0FC469A0E94981783
:102CF000962F0E948C17F1FC449A0E949817952FEA
:102D00000E948C17F2FC429A0E949817942F0E94FE
:102D10008C17F3FC439A0E949817932F0E948C17EC
:102D2000F4FC149A0E949817922F0E948C17F5FCBD
:102D3000159A0E949817912F0E948C17F6FC459ABD
:102D40000E949817902F0E948C17F7FC479A0E94B8
:102D500098170E946B170E946B170E946B17BF9108
:102D6000AF910E9485170A2FBF91AF910E948517DE
:102D70001A2FBF91AF910E9485172A2FBF91AF9153
:102D80000E9485173A2FBF91AF910E9485174A2F55
:102D9000BF91AF910E9485175A2FBF91AF910E94AA
:102DA00085176A2FBF91AF910E9485177A2FCFEFB9
:102DB000D0E00024715019F446980C94E11600C03C
:102DC00000C0615019F444980C94E81600C000C08B
:102DD000515019F442980C94EF1600C000C04150B5
:102DE00019F443980C94F61600C000C0315019F441
:102DF00014980C94FD1600C000C0215019F41598C9
:102E00000C94041700C000C0115019F445980C949C
:102E10000B1700C000C0015019F447980C9412170A
:102E200000C000C00E947417C150D00911F00C946A
:102E3000DA169F918F917F916F915F914F913F91A2
:102E40002F911F910F91DF91CF91BF91AF91FF9182
:102E5000EF9108950F931F932F930CEF18E0002428
:102E6000803071F0813079F0823081F0833089F0E8
:102E7000843091F0853099F08630A1F08730A9F048
:102E8000469A0C945817449A0C945817429A0C94EA
:102E90005817439A0C945817149A0C945817159A6B
:102EA0000C945817459A0C945817479A0C94581735
:102EB00000C000C000C000C000C000C06150700968
:102EC00019F420E028B922B90150100989F72F918F
:102ED0001F910F9108950F9305E600C000C000C038
:102EE0000150D9F70F9108950F9309E000C000C079
:102EF00000C00150D9F7000000C000C00F91089534
:102F000000C000C000C000C00895B695A795B69552
:102F1000A795B695A7950895C7E09770C92731F092
:102F20000E948017CA9509F0FBCF00C000000895E9
:102F3000C92FC77031F00E948017CA9509F0FBCFE6
:102F400000C008950F931F93CF93DF93CDB7DEB7E3
:102F50002C970FB6F894DEBF0FBECDBF26E0AE01B2
:102F60004F5F5F4F6BE380ED0E94C83B898190E02B
:102F7000982F88272A81820F911D98878F838B81B4
:102F800090E0982F88272C81820F911D9195819533
:102F900091099A8789878D8190E0982F88272E81C3
:102FA000820F911D9C878B87409143082091B80622
:102FB0006AE675E0A6E7B5E003E04002A00111244F
:102FC00013E021029001112480E090E0FC01E40F65
:102FD000F51FEA57FE4FE491EE0FFF0B01E010E002
:102FE0000C0F1D1FE00FF11F0680F781E02D8F01F0
:102FF000E6E015950795EA95E1F7FB01019311933A
:10300000BF01FC01E20FF31FEA57FE4FE491EE0F00
:10301000FF0B01E010E00C0F1D1FE00FF11F0680F9
:10302000F781E02D16E0F595E7951A95E1F7ED9318
:10303000FD9301968330910549F62C960FB6F894CE
:10304000DEBF0FBECDBFDF91CF911F910F910895CD
:103050004F925F926F927F928F929F92AF92BF92A8
:10306000CF92DF92EF92FF920F931F93CF93DF9354
:103070000E94A2172091190820FD05C01092010896
:10308000109200080EC080910208909103084091B0
:10309000060850910708841B950B909301088093B4
:1030A000000822FD05C010923608109235080EC0A7
:1030B000809137089091380820913B0830913C0866
:1030C000821B930B90933608809335086AE6662E30
:1030D00065E0762E76E7C72E75E0D72E01E318E07F
:1030E000E0E7EE2EE5E0FE2EC0E0D0E0F4E64F2E65
:1030F000512C8091B9063091B806882309F44CC050
:1031000080914308082E000C990BFC01EE0FFF1F65
:103110008E0F9F1F8C0F9D1FFC01E25CFE4F2491C0
:10312000F30140815181F801F59780819181481B1D
:10313000590B2403C001259F900D1124E32F330F59
:10314000FF0B9F01220F331FE20FF31FEC0FFD1F38
:10315000E25CFE4F2491F60140815181F8016081CB
:103160007181461B570B24034001259F900C1124AD
:103170002091380530913905B201621B730B0E9412
:103180009F585C016091380570913905C4010E9417
:103190009F588A0D9B1D1AC0E32F330FFF0BCF01E1
:1031A000880F991FE80FF91FEC0FFD1FE25CFE4F1F
:1031B0002491F60140815181F80180819181481B61
:1031C000590B2403C001259F900D1124F701918311
:1031D0008083F2E06F0E711C82E0C80ED11C0E5F7E
:1031E0001F4FE2E0EE0EF11C219719F0C1E0D0E094
:1031F00080CF8091B9069091B80660917A05709160
:103200007B054091350850913608882309F444C065
:10321000E09143080E2E000CFF0B9F01220F331F7D
:10322000E20FF31FE05CFE4F249100916E051091B8
:103230006F052003D001219FB00D112420910008BB
:1032400030910108A21BB30BE92F990FFF0BCF019F
:10325000880F991FE80FF91FE05CFE4F24912603A9
:103260008001279F100D1124041B150B8091380538
:103270009091390564E670E0681B790BCD010E94DE
:103280009F58EC016091380570913905C8010E9482
:103290009F588C0F9D1F12C0E92F990FFF0BCF0174
:1032A000880F991FE80FF91FE05CFE4F2491260359
:1032B000C001279F900D1124841B950B90937505D9
:1032C000809374058091B906C0913708D091380871
:1032D0000091350810913608882309F45CC0C0902D
:1032E0000906D0900A06E0900B06F0900C0680913B
:1032F0000208909103082091000830910108821B78
:10330000930BBC01990F880B990B0E94546D9B0184
:10331000AC01C701B6010E94396C0E941C6D4B01C3
:103320005C01C01BD10BBE01DD0F880B990B0E9405
:10333000546D9B01AC01C701B6010E94396C0E941B
:103340001C6D6B017C01809138059091390524E654
:1033500030E0B901681B790BC4010E949F588C01B1
:103360006091380570913905C6010E949F58EC01A3
:10337000B801110F880B990B0E94546D6B017C01F1
:10338000BE01DD0F880B990B0E94546D9B01AC01AF
:10339000C701B60113C0BE01601B710B072E000CE4
:1033A000880B990B0E94546D9B01AC01609109063A
:1033B00070910A0680910B0690910C060E94396C60
:1033C000609326057093270580932805909329051F
:1033D000DF91CF911F910F91FF90EF90DF90CF90F1
:1033E000BF90AF909F908F907F906F905F904F9025
:1033F00008951F93CF93DF9300D000D000D0CDB7B6
:10340000DEB71A8219821C821B821E821D822091C5
:103410003805309139058111E0C02036310524F49A
:103420008091B906811163C010E20E94A217298120
:103430003A818091760590917705820F931F9A8348
:1034400089832B813C818091780590917905820F49
:10345000931F9C838B832D813E8180917A0590916F
:103460007B05820F931F9E838D838FE493EC0197DE
:10347000F1F700C000001150C1F6FE0131969E0127
:10348000295F3F4F80819181409665E095958795B2
:103490006A95E1F781939193E217F30799F7898190
:1034A0009A8190933208809331088B819C8190930C
:1034B000340880933308E091B8060E2E000CFF0B01
:1034C000CF01880F991FE80FF91FE05CFE4F249190
:1034D0004D815E812403C001259F900D112490939E
:1034E00038088093370880911908886066C02630B4
:1034F00031050CF047C110E20E94A21729813A81E0
:1035000080916A0590916B05820F931F9A8389833E
:103510002B813C8180916C0590916D05820F931FEA
:103520009C838B832D813E8180916E0590916F05E8
:10353000820F931F9E838D838FE493EC0197F1F7A5
:1035400000C000001150C1F6FE0131969E01295FB6
:103550003F4F80819181409645E0959587954A95AA
:10356000E1F781939193E217F30799F789819A81A3
:103570009093FD078093FC078B819C819093FF07BC
:103580008093FE07E09143080E2E000CFF0BCF0145
:10359000880F991FE80FF91FE05CFE4F24914D81C1
:1035A0005E812403C001259F900D11249093030890
:1035B00080930208809119088260809319080E9404
:1035C0005C262B9A9FE724E88EE1915020408040B2
:1035D000E1F700C000002B98D5C080911908203673
:1035E000310524F49091B906911159C083FFCAC0E6
:1035F00010923A081092390810E20E94A217209106
:10360000390830913A0880917A0590917B05820FB4
:10361000931F90933A08809339088FE493EC0197B5
:10362000F1F700C00000115041F7E091B8060E2EEE
:10363000000CFF0BCF01880F991FE80FF91FE05C0A
:10364000FE4F24914091390850913A08405F5F4FF6
:10365000B5E055954795BA95E1F72403B001259F4C
:10366000700D112470933A086093390877FF8AC06F
:1036700080913708909138089C01261B370B3595AF
:10368000279530933C0820933B08821B930B909323
:1036900036088093350880911908846058C081FFEE
:1036A00071C0109205081092040810E20E94A2173F
:1036B000209104083091050880916E0590916F0566
:1036C000820F931F90930508809304088FE493EC76
:1036D0000197F1F700C00000115041F7E091430855
:1036E0000E2E000CFF0BCF01880F991FE80FF91F5A
:1036F000E05CFE4F24914091040850910508405F22
:103700005F4F65E0559547956A95E1F72403B00151
:10371000259F700D1124709305086093040877FFAE
:1037200031C080910208909103089C01261B370B41
:10373000359527953093070820930608821B930B35
:10374000909301088093000880911908816080930C
:1037500019080E945C262B9A9FE724E88EE191507D
:1037600020408040E1F700C000002B9885E02696BD
:103770000FB6F894DEBF0FBECDBFDF91CF911F9182
:103780000C94CD4F26960FB6F894DEBF0FBECDBF7A
:10379000DF91CF911F91089541E06BE680ED0E948B
:1037A000B13B48E06CE180ED0C94B13B8FEF80932E
:1037B0007E0010927B00089580937C0086EC8093BD
:1037C0007A0080917A0086FDFCCF0895CF92DF9237
:1037D000EF920F93CF93DF938CE10E940236CBE000
:1037E000D0E01F9B82C00E94D0680E94C0690E94E6
:1037F000281860E070E0CB010E94283E219789F7ED
:1038000020E030E040E052E4609105067091060649
:1038100080910706909108060E94396C0E941C6DE9
:103820006B0120E030E040E852E4609101067091C5
:10383000020680910306909104060E94396C0E9452
:103840001C6DEB01D7FC08C081E4C816D10434F02C
:1038500080E4C82ED12C02C0C12CD12CD7FD06C0CB
:10386000C138D1052CF0C0E8D0E002C0C0E0D0E003
:1038700027E330E042E050E06FEE71E08CE090E052
:103880000E943B38EE24E39400E420E840E060E04E
:1038900080E091E00E945C3705E125E146E166E3C6
:1038A00080E091E00E945C3708E320E448E060E4B7
:1038B00080E091E00E94BE3600E220E640E260E255
:1038C00080E091E00E94BE3601E028E04C2D6C2F94
:1038D00080E091E00E94AB3780E091E00E942A36C0
:1038E00080E091E00E945F367ACF80E091E00E9414
:1038F0005F3680E091E00E942A368091BA06DF911F
:10390000CF910F91EF90DF90CF900C9402362F92D1
:103910003F924F925F926F927F928F929F92AF925F
:10392000BF92CF92DF92EF92FF920F931F93CF93AC
:10393000DF93CDB7DEB7A5970FB6F894DEBF0FBE05
:10394000CDBF0E947A470AE0202E312C88EE482E07
:1039500083E0582E95E0A92EB12C24E1622E712C23
:1039600034E6832E912C1F9B2EC30E94D0680E94A8
:103970003A390E9428180E94A94316BC20912F05AD
:103980003091300520912F05309130056C01C21A1D
:10399000D30A9093300580932F058091E108909190
:1039A000E208E12CF12C029788F08091E1089091D7
:1039B000E208A0E0B0E01FE0880F991FAA1FBB1F1C
:1039C0001A95D1F7C80ED91EEA1EFB1E1092E20806
:1039D0001092E108C701B6010E94283EC701B60156
:1039E0000E9486620E94F7650E94C0690E947A5A0E
:1039F0000E94805808EC16E0780120E030E0F901E0
:103A0000EE0FFF1FDF01AB58B64F8D919C91D70190
:103A10004C91423051F0BC01665A7E40CB019595E5
:103A20008795BC0164527A4F08C0880F991F880F90
:103A3000991F0596B1010E948A6EEB58F64F71836B
:103A400060832F5F3F4FB2E2EB0EF11C283031054F
:103A5000B1F6E9E1F6E020E030E0A901440F551F9E
:103A6000DA01AB58B64F0D90BC91A02D838594859B
:103A70008A179B073CF061857285CD01A617B707B1
:103A80000CF4CB01DA01AB58B64F11969C938E9390
:103A90002F5F3F4F349628303105F9F68091610948
:103AA00090916209C2972CF0FE01719620E030E0FF
:103AB00014C080E090E0F8012081223039F4FC014C
:103AC000EE0FFF1FEB58F64F5182408201960E5DBC
:103AD0001F4F8830910579F7E7CFD901AA0FBB1F97
:103AE000AB58B64F8D919C91AC014C5D55405183C4
:103AF000408357FD03C08A5D954002C08E5D9540AE
:103B0000B5010E948A6E718360832F5F3F4F3296AA
:103B10002830310511F7AE014F5F5F4F7A0100E0A9
:103B200010E0F801EE0FFF1FED59F64F6081718133
:103B3000072E000C880B990B0E94546D20E030E09A
:103B400040E251E40E94AA6C0E941C6DD7016D9363
:103B50007D937D010F5F1F4F0830110511F723E0A2
:103B600030E040E050E06DE77FE08EED91E00E94B4
:103B70003B382DE030E040E050E06DE77FE08FED36
:103B800091E00E943B3827E130E040E050E06DE7F3
:103B90007FE080EE91E00E943B3821E230E040E09F
:103BA00050E06DE77FE081EE91E00E943B382BE230
:103BB00030E040E050E06DE77FE082EE91E00E946F
:103BC0003B3825E330E040E050E06DE77FE083EEF6
:103BD00091E00E943B388091610990916209B301A4
:103BE0000E948A6ECB014AE062EA75E00E94316F62
:103BF00023E030E049E150E06DE77FE00E94516250
:103C00004AE062EA75E08B819C810E94316F2DE071
:103C100030E049E150E06DE77FE00E9451624AE008
:103C200062EA75E08D819E810E94316F27E130E06C
:103C300049E150E06DE77FE00E9451624AE062EAAC
:103C400075E08F8198850E94316F21E230E049E173
:103C500050E06DE77FE00E9451624AE062EA75E061
:103C600089859A850E94316F2BE230E049E150E06E
:103C70006DE77FE00E9451624AE062EA75E08B8561
:103C80009C850E94316F25E330E049E150E06DE70B
:103C90007FE00E94516223E030E040E350E06DE7B6
:103CA0007FE084EE91E00E943B382DE030E040E37D
:103CB00050E06DE77FE085EE91E00E943B3827E120
:103CC00030E040E350E06DE77FE08DED91E00E9451
:103CD0003B3821E230E040E350E06DE77FE084EDE7
:103CE00091E00E943B382BE230E040E350E06DE78A
:103CF0007FE085ED91E00E943B3825E330E040E332
:103D000050E06DE77FE086ED91E00E943B384AE0AD
:103D100062EA75E08D859E850E94316F23E030E078
:103D200047E450E06DE77FE00E9451624AE062EABA
:103D300075E08F8598890E94316F2DE030E047E46F
:103D400050E06DE77FE00E9451624AE062EA75E070
:103D500089899A890E94316F21E230E049E350E07D
:103D60006DE77FE00E9451624AE062EA75E08B896C
:103D70009C890E94316F2BE230E049E350E06DE70F
:103D80007FE00E9451624AE062EA75E08D899E8977
:103D90000E94316F25E330E049E350E06DE77FE0BA
:103DA0000E94516223E030E04EE550E06DE77FE095
:103DB00087ED91E00E943B382DE030E04EE550E089
:103DC0006DE77FE088ED91E00E943B3827E130E02D
:103DD0004EE550E06DE77FE089ED91E00E943B38D1
:103DE00021E230E04EE550E06DE77FE08AED91E0C2
:103DF0000E943B382BE230E04EE550E06DE77FE07B
:103E00008BED91E00E943B3825E330E048E550E03F
:103E10006DE77FE08CED91E00E943B384AE062EA7A
:103E200075E08F89988D0E94316F23E030E048E67D
:103E300050E06DE77FE00E9451624AE062EA75E07F
:103E4000898D9A8D0E94316F2DE030E048E650E078
:103E50006DE77FE00E9451624AE062EA75E08B8D77
:103E60009C8D0E94316F27E130E048E650E06DE71D
:103E70007FE00E9451624AE062EA75E08D8D9E8D7E
:103E80000E94316F21E230E048E650E06DE77FE0CC
:103E90000E9451624AE062EA75E08F8D98A10E940B
:103EA000316F2BE230E048E650E06DE77FE00E94A2
:103EB0005162C0903805D090390586010C591F4FCA
:103EC000C801B4010E94766E7B014AE062EA75E0A7
:103ED000C7010E94316FAE014F5D5F4F6DE77FE01C
:103EE0000E94FE604AE062EA75E0C7010E94316FFD
:103EF00025E330E048E650E06DE77FE00E94516244
:103F00002CE9A70124036001259FD00C1124C00EC9
:103F1000D11E09A1002E000C110B08591F4F25E3DB
:103F200030E0A8016DE77FE08CE091E00E943B3833
:103F3000AE014F5D5F4F6DE77FE08BE095E00E9443
:103F4000FE60E9A0AE014F5D5F4F6DE77FE08DE061
:103F500095E00E94FE6059A15DA30E2C000CFF08A5
:103F60008AE0C816D10438F04AE062EA75E0C6017A
:103F70000E94316F16C0A8014E0D5F1D25E330E091
:103F80006DE77FE08DE091E00E943B384AE062EA15
:103F900075E0C6010E94316FADA10A0F111DA7FD8A
:103FA0001A95A8014E0D5F1D25E330E06DE77FE017
:103FB0000E94516280E091E00E942A3680E091E008
:103FC0000E945F36D0CCA5960FB6F894DEBF0FBE28
:103FD000CDBFDF91CF911F910F91FF90EF90DF90B8
:103FE000CF90BF90AF909F908F907F906F905F9099
:103FF0004F903F902F900895CF92DF92EF92FF92D3
:104000000F931F93CF93DF93C0E08DE1C82E88E01C
:10401000D82ED4E11F9B45C01C9909C0F6012D2F55
:1040200011922A95E9F710921C080E945C261E99AD
:1040300003C0C150C7FDC0E01D9904C0CF5FCF30A1
:104040000CF0CFE08C2F0C2E000C990BFC01E35EE2
:10405000F74F7F0100E010E0F70181917F01082E0A
:10406000000C990B980140E050E06DE77FE0855E21
:104070009E4F0E943B38065F1F4F0233110561F7C8
:1040800083E00E94CF4880E091E00E945F36FFE726
:104090002AE136E0F15020403040E1F700C0000056
:1040A000B9CFDF91CF911F910F91FF90EF90DF90EB
:1040B000CF9008950E947A471F9BFAC01C9B0E94D4
:1040C00065690E94D06820E030E040E050E06DE794
:1040D0007FE082E790E00E943B382AE030E040E059
:1040E00050E06DE77FE080E290E00E943B3824E101
:1040F00030E040E050E06DE77FE083E790E00E9431
:104100003B382EE130E040E050E06DE77FE083E2B5
:1041100090E00E943B3820E030E046E450E06DE75C
:104120007FE08DE690E00E943B382AE030E046E4F4
:1041300050E06DE77FE08EE690E00E943B3824E19E
:1041400030E046E450E06DE77FE08FE690E00E94CB
:104150003B382EE130E046E450E06DE77FE080E759
:1041600090E00E943B3880916109909162094AE099
:1041700062EA75E00E94316F20E030E045E250E0F5
:104180006DE77FE00E945162809165099091660918
:104190004AE062EA75E00E94316F2AE030E045E2D1
:1041A00050E06DE77FE00E94516280916709909135
:1041B00068094AE062EA75E00E94316F24E130E06C
:1041C00045E250E06DE77FE00E945162809169090D
:1041D00090916A094AE062EA75E00E94316F2EE12F
:1041E00030E045E250E06DE77FE00E94516280914F
:1041F0006B0990916C094AE062EA75E00E94316FA8
:1042000020E030E044E650E06DE77FE00E9451623C
:1042100080916D0990916E094AE062EA75E00E9412
:10422000316F2AE030E044E650E06DE77FE00E9425
:10423000516280916F09909170094AE062EA75E0DD
:104240000E94316F24E130E044E650E06DE77FE00A
:104250000E94516280917109909172094AE062EA6C
:1042600075E00E94316F2EE130E044E650E06DE7EA
:104270007FE00E94516229E330E040E050E06FEEC1
:1042800071E08CE090E00E943B3827E330E04EE69E
:1042900050E06DE77FE08CE390E00E943B3880E0E7
:1042A00091E00E942A3680E091E00E945F3604CFC0
:1042B0000895CF92DF92EF92FF921F93CF93DF93F7
:1042C00080E091E00E945F3611E0C4E6D0E01F9BE1
:1042D00079C10E94D0680E94C0690E943A390E9448
:1042E00028180E94A94316BC20912F053091300553
:1042F00020912F05309130056C01C21AD30A90939A
:10430000300580932F058091E1089091E208E12C1F
:10431000F12C029788F08091E1089091E208A0E0EA
:10432000B0E02FE0880F991FAA1FBB1F2A95D1F775
:10433000C80ED91EEA1EFB1E1092E2081092E10878
:10434000C701B6010E94283EC701B6010E948662DD
:1043500020E030E045E250E06DE77FE08AE190E068
:104360000E943B3820E030E048E450E06DE77FE019
:104370008EE190E00E943B3820E030E04BE650E0D8
:104380006DE77FE08FE190E00E943B382DE030E068
:1043900045E050E06DE77FE08BE190E00E943B3824
:1043A00027E130E045E050E06DE77FE08CE190E010
:1043B0000E943B3821E230E045E050E06DE77FE0CD
:1043C0008DE190E00E943B384AE062EA75E080911E
:1043D000CD059091CE050E94316F2DE030E048E28E
:1043E00050E06DE77FE00E9451624AE062EA75E0CA
:1043F0008091CF059091D0050E94316F27E130E088
:1044000048E250E06DE77FE00E9451624AE062EAD4
:1044100075E08091D1059091D2050E94316F21E223
:1044200030E048E250E06DE77FE00E9451624AE0F0
:1044300062EA75E080917005909171050E94316F7C
:104440002DE030E04BE450E06DE77FE00E945162E8
:104450004AE062EA75E080917205909173050E94CE
:10446000316F27E130E04BE450E06DE77FE00E94E0
:1044700051624AE062EA75E0809174059091750599
:104480000E94316F21E230E04BE450E06DE77FE0C5
:104490000E9451628091F9059091FA05BE010E9437
:1044A0008A6ECB014AE062EA75E00E94316F2DE02E
:1044B00030E04BE650E06DE77FE00E945162809172
:1044C000FB059091FC05BE010E948A6ECB014AE07B
:1044D00062EA75E00E94316F27E130E04BE650E080
:1044E0006DE77FE00E9451622DE230E045E050E050
:1044F0006DE77FE085EE90E00E943B3860912605F5
:104500007091270580912805909129050E941C6DC6
:10451000DC01CB014AE062EA75E00E94316F2DE2D6
:1045200030E048E250E06DE77FE00E94516229E30D
:1045300030E040E050E06FEE71E08CE090E00E94EF
:104540003B3827E330E04CE650E06DE77FE08CE35A
:1045500090E00E943B3827E330E04BE450E06DE709
:104560007FE089E190E00E943B3880E091E00E948A
:104570002A3680E091E00E945F3611110E94FC52C1
:104580001C9910C00E94FC522FE382E49FE021504E
:1045900080409040E1F700C000000E94073A80E0B0
:1045A0000E94F9191D990CC02FE382E49FE021506D
:1045B00080409040E1F700C0000081E00E94F919BE
:1045C00010E085CEDF91CF911F91FF90EF90DF90AB
:1045D000CF900895BF92CF92DF92EF92FF920F9308
:1045E0001F93CF93DF9300D000D0CDB7DEB780E02C
:1045F00091E00E945F3620E030E040E050E06DE75F
:104600007FE088E091E00E943B382CE030E040E021
:1046100050E06DE77FE08AE091E00E943B3828E1BE
:1046200030E040E050E06DE77FE08BE091E00E94F9
:104630003B3828E130E048E550E06DE77FE087E176
:1046400090E00E943B382BE330E040E050E06FEE1A
:1046500071E089E090E00E943B3827E330E04AE0D7
:1046600050E06DE77FE08EE090E00E943B384091A3
:104670004206042E000C550B425C5F4F0CE02DE20D
:1046800061E080E090E00E949C494AE062EA75E0C7
:1046900080913805909139050E94316F28E130E012
:1046A0004EE650E06DE77FE00E9451628091420645
:1046B0008130D9F42CE030E04DE450E06DE77FE04C
:1046C00088E190E00E943B3880913105909132055D
:1046D0004AE062EA75E00E94316F2CE030E04EE67D
:1046E00050E06DE77FE00E945162209138053091E3
:1046F0003905121613064CF028E130E04DE250E087
:104700006DE77FE080E390E031C0243631054CF066
:1047100028E130E04DE250E06DE77FE082E390E099
:1047200025C080914A06082E000C990B28173907DE
:1047300049F428E130E04DE250E06DE77FE081E3AD
:1047400090E014C0281739074CF428E130E04DE21E
:1047500050E06DE77FE083E390E008C028E130E0BF
:104760004DE250E06DE77FE084E390E00E943B384B
:10477000809135058111CAC024E230E040E050E06C
:104780006DE77FE081E291E00E943B380E94196C66
:104790007C0164E670E00E94766E8B014AE062EA7A
:1047A00075E0C8010E94316FAE014F5F5F4F6DE74A
:1047B0007FE00E94FE604AE062EA75E0C8010E9464
:1047C000316F24E230E04DE250E06DE77FE00E947F
:1047D00051622CE920036001219FD00C1124CE0CE2
:1047E000DF1C0981002E000C110B035D1F4F24E21A
:1047F00030E0A8016DE77FE08CE091E00E943B385B
:10480000AE014F5F5F4F6DE77FE08BE095E00E9468
:10481000FE60E980AE014F5F5F4F6DE77FE08DE0A6
:1048200095E00E94FE60B9800E2C000CFF088AE023
:10483000C816D10438F04AE062EA75E0C6010E9469
:10484000316F15C0A8014E0D5F1D24E230E06DE709
:104850007FE08DE091E00E943B384AE062EA75E03B
:10486000C6010E94316F0B0D111DB7FC1A95A801EE
:104870004E0D5F1D24E230E06DE77FE00E94516243
:1048800080914C06813009F094C0E12C0AE226E4C4
:104890004BE06DE180E091E00E942837EE24E39444
:1048A00026E44BE06DE180E091E00E945C3760918E
:1048B0005D0970915E0980915F09909160090E9485
:1048C0001C6D6B017C014AE062EA75E0C6010E9442
:1048D000316FAE014F5F5F4F69E572E00E94FE608D
:1048E00029813A813695279500E410E0021B130BCD
:1048F0004AE062EA75E0C6010E94316F24E130E0CF
:10490000A80169E572E00E94516253C080913505AB
:1049100083FF13C025E230E04FE050E06FEC74E01D
:1049200086E890E00E943B3825E230E04FE450E01A
:104930006FEC74E08FE091E03AC08091350581FF23
:1049400013C025E230E04EE150E06FEC74E08BE400
:1049500090E00E943B3825E230E047E350E06FEC06
:1049600074E080E191E023C08091350580FF13C0A1
:1049700025E230E04BE050E06FEC74E089E690E037
:104980000E943B3825E230E042E550E06FEC74E0F5
:104990008EE091E00CC08091350582FF0AC025E2CF
:1049A00030E049E150E06FEC74E082E190E00E9479
:1049B0003B3880E091E00E942A3680E091E00E943E
:1049C0005F360F900F900F900F90DF91CF911F9156
:1049D0000F91FF90EF90DF90CF90BF900895AF922E
:1049E000BF92CF92DF92EF92FF920F931F93CF93DC
:1049F000DF9300D0CDB7DEB7B0901B08C090BC08E5
:104A0000D0901A0810921B081092BC0810921A0835
:104A100010E0A12C1F9BD9C0A110D9C080E091E06B
:104A20000E945F3632E050E061E1650FEE24E394CE
:104A300008E228E240E080E091E03A8359830E9456
:104A40005C37598186E2F82EF50E20E3250F03E04E
:104A500044E16F2D80E091E00E94BE36598128E349
:104A6000250F69E2650F06E045E180E091E00E94D4
:104A7000BE3601E022E045E16F2D80E091E00E942A
:104A8000AB37598163E3650F24E045E080E091E0B6
:104A90000E94AB3754E33A81313011F031E0C4CF9A
:104AA00029E330E040E050E06FEE71E08CE090E010
:104AB0000E943B380E94D0688091650990916609F8
:104AC0008033984F3CF08091650990916609813D53
:104AD00097406CF011110BC02BE230E040E150E048
:104AE0006FEC74E087E890E00E943B3869C08091E9
:104AF000650990916609843F91403CF48091650975
:104B0000909166098D309E4FE4F4809167099091F1
:104B10006809843F91403CF480916709909168094D
:104B20008D309E4F74F48091690990916A09843F99
:104B300091409CF48091690990916A098D309E4F53
:104B400064F02BE230E049E050E06FEC74E088E87C
:104B500090E00E943B3811E033C08091650990914C
:104B6000660997FF03C081E080931B088091670965
:104B70009091680997FF03C081E08093BC08809101
:104B8000690990916A0997FF03C081E080931A0830
:104B90008091650990916609181619068CF4809128
:104BA0006709909168091816190654F480916909EB
:104BB00090916A09AA24A394181619060CF0A12C46
:104BC00080E091E00E942A3625CFAA2049F12BE20D
:104BD00030E048E250E06FEC74E089E890E00E9439
:104BE0003B3880E091E00E942A3680E091E00E940C
:104BF0005F368FE794E82EE1815090402040E1F746
:104C000000C000000F900F90DF91CF911F910F9186
:104C1000FF90EF90DF90CF90BF90AF900C945C2608
:104C2000B0921B08C092BC08D0921A080F900F9047
:104C3000DF91CF911F910F91FF90EF90DF90CF9078
:104C4000BF90AF9008950F931F93CF93DF931F9260
:104C5000CDB7DEB78C0169830E947F6F69818617AB
:104C600041F0C8010F90DF91CF911F910F910C94EB
:104C7000876F0F90DF91CF911F910F910895EF9261
:104C8000FF920F931F93CF93DF93EC017B018C0175
:104C9000040F151FC017D10741F06991C7010E9489
:104CA00023268FEFE81AF80AF5CFDF91CF911F91F5
:104CB0000F91FF90EF900895F89444EA52E060E07D
:104CC00070E089E196E00E943F26789408952F9243
:104CD0003F924F925F926F927F928F929F92AF928C
:104CE000BF92CF92DF92EF92FF920F931F93CF93D9
:104CF000DF93CDB7DEB7C355D1400FB6F894DEBF12
:104D00000FBECDBF80914206CF5CDE4F8883C1537A
:104D1000D1408091A606CE5CDE4F8883C253D1403D
:104D200080914306CD5CDE4F8883C353D140809190
:104D30004406CC5CDE4F8883C453D1408091450645
:104D4000CB5CDE4F8883C553D14090914906CA5C45
:104D5000DE4F9883C653D14090914A06C95CDE4F1E
:104D60009883C753D14090914606C85CDE4F988324
:104D7000C853D14090914706C75CDE4F9883C95312
:104D8000D14020904806C65CDE4F2882CA53D140ED
:104D900099E0FE01EF5CFE4FA2E4B6E001900D92B7
:104DA0009A95E1F79091AA06CF5CDE4F9883C153A4
:104DB000D1409091A706CF5ADE4F9883C155D1407C
:104DC000CE5CDE4F9883C253D140E091A806CE5A04
:104DD000DE4FE883C255D140CD5CDE4FE883C3533C
:104DE000D1409091A906CC5CDE4F9883C453D1404A
:104DF000CF5CDE4F488159816A817B81C153D140AC
:104E00004093A6065093A7066093A8067093A90640
:104E1000883019F487E0809346061092AA0648E489
:104E200050E063E977E08BED97E00E941F6F9E01F1
:104E30002F5F3F4F80E090E04DE1FC01E555F94FD9
:104E4000D901542F01900D925A95E1F72A5D3F4FF9
:104E50004D96883E910589F74E01F5E08F0E911C25
:104E6000CE014396C15CDE4F99838883CF53D140F6
:104E7000FE017496CD5BDE4FF983E883C354D140C5
:104E80000296CF5BDE4F99838883C154D1406E0177
:104E900096E1C90ED11C7E01EEE1EE0EF11CCE01B1
:104EA0004D96C55BDE4F99838883CB54D140FE017C
:104EB0007C96C75BDE4FF983E883C954D1400297E3
:104EC000C95BDE4F99838883C754D1403297CB5B4F
:104ED000DE4FF983E883C554D1400297C15BDE4FB2
:104EE00099838883CF54D1403297C35BDE4FF983D7
:104EF000E883CD54D1405E01F7E1AF0EB11C8B5C6D
:104F00009E4FC35CDE4F99838883CD53D14012E01E
:104F100001E049E150E0B401C70148970E941F6FCA
:104F2000C15CDE4FE881F981CF53D1405080CD5B29
:104F3000DE4FE881F981C354D1403080CF5BDE4F32
:104F4000E881F981C154D1402081F6014080F4010B
:104F500056FE02C0108301C010823701FFEF6F1AA6
:104F60007F0A48E050E0B501C301CD5ADE4F2883E7
:104F7000C355D1400E941F6F80E0CD5ADE4F28817B
:104F8000C355D140F30190819D3011F494E1908399
:104F90008E5FE2E06E0E711C8830A1F7C15CDE4FBF
:104FA000E881F981CF53D14050FE06C020FF02C0F6
:104FB000108303C0008301C01082CD5BDE4FE88107
:104FC000F981C354D14030FE06C040FE02C01083B8
:104FD00003C0008301C01082CF5BDE4FE881F981FE
:104FE000C154D14051FE06C021FF02C0108303C04E
:104FF000008301C01082F60131FE06C041FE02C0EE
:10500000108303C0008301C01082F50152FE06C068
:1050100022FF02C0108303C0008301C01082C35B63
:10502000DE4FE881F981CD54D14032FE06C042FE08
:1050300002C0108303C0008301C01082C15BDE4F39
:10504000E881F981CF54D14053FE06C023FF02C04E
:10505000108303C0008301C01082CB5BDE4FE88168
:10506000F981C554D14033FE06C043FE02C010830F
:1050700003C0008301C01082C95BDE4FE881F98163
:10508000C754D14054FE06C024FF02C0108303C0A1
:10509000008301C01082C75BDE4FE881F981C954EB
:1050A000D14034FE06C044FE02C0108303C000831A
:1050B00001C01082C55BDE4FE881F981CB54D1403D
:1050C00055FE06C025FF02C0108303C0008301C047
:1050D0001082F70135FE06C045FE02C0108303C0F2
:1050E000008301C01082F6E28F0E911CC15CDE4F7E
:1050F00088819981CF53D1408696C15CDE4F9983D8
:105100008883CF53D140CD5BDE4FE881F981C35412
:10511000D140B696CD5BDE4FF983E883C354D140CE
:10512000CF5BDE4F88819981C154D1408696CF5B99
:10513000DE4F99838883C154D14096E2C90ED11CB9
:10514000E6E2EE0EF11CC55BDE4F88819981CB54FF
:10515000D1408696C55BDE4F99838883CB54D1407E
:10516000C75BDE4FE881F981C954D140B696C75B71
:10517000DE4FF983E883C954D140C95BDE4F888193
:105180009981C754D1408696C95BDE4F9983888345
:10519000C754D140CB5BDE4FE881F981C554D14083
:1051A000B696CB5BDE4FF983E883C554D140C15B33
:1051B000DE4F88819981CF54D1408696C15BDE4F06
:1051C00099838883CF54D140C35BDE4FE881F98156
:1051D000CD54D140B696C35BDE4FF983E883CD54FE
:1051E000D140F6E2AF0EB11CC35CDE4F88819981DD
:1051F000CD53D140E816F90609F08BCE80E391E05B
:10520000FE013196ABEAB6E001900D920197E1F70D
:10521000CF5ADE4F9881C155D140973030F4E92FF5
:10522000F0E0E15FFA4F808101C087E08093A7063C
:10523000CE5ADE4FE881C255D140E73028F4F0E085
:10524000E15FFA4F808101C087E08093A806209239
:105250002108CD5ADE4F0FB6F894DEBF0FBECDBF8A
:10526000DF91CF911F910F91FF90EF90DF90CF9042
:10527000BF90AF909F908F907F906F905F904F9076
:105280003F902F900895CF93E091A906E150EA3026
:1052900028F4F0E0E55EFA4F808101C086E080935B
:1052A000A906809149068093220810924906E09150
:1052B000A106E150E53028F4F0E0EA5EFA4FC08143
:1052C00001C0C0E08BE2E3E2F8E0DF011D928A95C5
:1052D000E9F740E851E062EA76E083EA96E00E946E
:1052E0001F6FC093A1061092A206CF910895E0ED22
:1052F000F6E0DF0116978C918C5F8C9312968C915F
:105300008C5F8C9312968C918C5F8C9380818C5FD8
:105310008083B69668E0E030F60759F710924C08A3
:1053200051E150934D0841E240934E0832E33093EF
:105330004F0823E42093500893E59093510884E6A6
:105340008093520810925408509355084093560881
:1053500030935708209358089093590880935A081F
:10536000ECE5F8E05CE94DEB3FED21E293E450839E
:10537000418332831382248395838683389668E041
:10538000EC37F607A1F71092530810925B081092C1
:10539000630810926B0884E18093730880937B0804
:1053A00080E090E0FC01E252FE4FE491DC01A45861
:1053B000B74FEC93019688309105A1F708951F939C
:1053C000CF93DF93C9E1D6E01EA54CE352E068E439
:1053D00076E089E496E00E941F6F1FA78FE3888321
:1053E000DF91CF911F9108950F931F93CF93DF9378
:1053F000CDB7DEB7C053D1400FB6F894DEBF0FBEB5
:10540000CDBF80E391E0EDEAF6E0DE011196019078
:105410000D920197E1F7CE01019620E030E045E0E2
:10542000D901A355B94FFC01542F01900D925A9503
:10543000E1F72E5D3F4F8696203151E0350781F729
:105440009E01265F3F4F80E090E04DE1DC01AE54CD
:10545000B94FF901542F01900D925A95E1F78296B8
:105460002A5D3F4F8031A1E09A0781F747EA50E07B
:105470006DED77E08DEB97E00E941F6F10E4E5E69D
:10548000F8E0DF01512F1D925A95E9F70091490686
:105490004DE552E069E476E08BE496E00E941F6FF0
:1054A0001092490600934A0684E680934B061093B7
:1054B0001906C05DDE4F0FB6F894DEBF0FBECDBF3C
:1054C000DF91CF911F910F910895E4EEF6E084E112
:1054D000DF0116979C91933109F48C93DF011297A9
:1054E0009C91933109F48C93DF0114979C91933133
:1054F00009F48C939081933109F48083B29697E0FC
:10550000E43FF90729F781E4809319060895FF9293
:105510000F931F93CF93DF93C9E1D6E0FCA814E16A
:1055200010934D0644E052E062EA76E086EB96E0A6
:105530000E941F6F48E150E06AE876E086E996E055
:105540000E941F6F00E2E6E9F6E0DF01802F1D9266
:105550008A95E9F748E150E062E776E086E796E071
:105560000E941F6FE6E7F6E0DF011D920A95E9F75A
:1055700044E150E060E676E082E696E00E941F6F2C
:1055800088E280935F06109360068AE0809361064C
:10559000109273061092740610927506F092BB0872
:1055A00082E48883DF91CF911F910F91FF9008953E
:1055B00048EF51E063EC76E084EC96E00E941F6FC8
:1055C00081E08093C30683E4809319060895CF9306
:1055D00094E1EEE4F6E0DF01292F1D922A95E9F728
:1055E000E2E6F6E0DF011D929A95E9F720E131E06D
:1055F000E4ECF6E0DF01A9011D9241505040E1F7D3
:10560000A4EEB7E060E070E094E1CCE954E69B01E1
:10561000275E394FF901EB53FF4F44E190833496F5
:1056200090833297908334969083FD013897C0839E
:1056300024E65D936E5D7F4F603131E0730739F78B
:10564000813061F008F4E7C0823009F4B3C18330DF
:1056500009F083C281E08093BB067FC28093BB06C2
:1056600040934D0628E220935F06409360069AE03F
:105670009093610642E340934E0690934F069093B9
:10568000500632E0309351069093520640935406F0
:10569000909355069093560630935706909358066C
:1056A0005CE350935A0620935B0649E140935C0605
:1056B00030935D062093620663E1609363063EE0EB
:1056C0003093640693E0909365068093660620937A
:1056D00068066093690630936A0690936B06809320
:1056E0006C0650936E0620936F064093700690935D
:1056F000710640E050E074E6A2E061E09A01275EA6
:10570000394FF901E055FF4F94E67083319670836D
:105710003297A083749681E06083319660834E5DFA
:105720005F4F4838510551F72CEE2093CE0632EEEC
:105730003093CF063093D00668ED6093D106809306
:10574000D4068093DA068093D5068093DB06809397
:10575000D6068093D7062093EE063093EF062EE10F
:105760002093F20648E24093F3068093F406809378
:10577000FA068093F5068093FB068093F8068093E3
:10578000F90654E15093120720931307309314073E
:10579000609315078093180780931E07809319075D
:1057A00080931F0780931A0780931B07509332073B
:1057B00020933307209336074093370780933807A9
:1057C00080933E078093390780933F0780933C077F
:1057D00080933D078BE480935607909357078093FF
:1057E00076079093770780939C0790939D078CE9A9
:1057F0008093B4088DEB8093B5088FED8093B60845
:105800001092B70881E28093B80883E48093B908C6
:105810009093BA08A2C131E03093BB0640934D0685
:1058200088E280935F06409360069AE09093610659
:1058300080934E0690934F069093500622E020935B
:105840005106909352068093540690935506909378
:10585000560620935706909358064CE340935A06F9
:1058600080935B0699E190935C0620935D0680939C
:10587000620673E1709363066EE06093640653E022
:1058800050936506309366068093680670936906A8
:1058900060936A0650936B0630936C0640936E06D5
:1058A00080936F06909370062093710689E196E0CD
:1058B00044E652E021E0FC01E055FF4F34E640832E
:1058C00031964083329750833A96208336962083D0
:1058D000359720833696208335972083369620830C
:1058E0003597208336962083359720833196208301
:1058F0003596208331962083829666E0813A96071A
:10590000D1F69FE09093CC0684E18093CD0641EFE1
:105910004093CE062CEE2093CF06E8EDE093D00620
:105920007EEC7093D1064093EE062093EF064093F1
:10593000F0062093F10668E26093F20652E350937A
:10594000F30640931007209311079093120780935A
:105950001307E09314077093150790933207809311
:10596000330790933407809335076093360750933D
:1059700037078BE480935607309357078093760759
:105980003093770780939C0730939D078CE9809331
:10599000B4088DEB8093B5088FED8093B608109214
:1059A000B70881E28093B80883E48093B908309304
:1059B000BA08D3C091E09093BB0640934D0638E2FD
:1059C00030935F06409360064AE04093610630934F
:1059D0004E0640934F0640935006809351064093E5
:1059E00052063093540640935506409356068093D2
:1059F0005706409358065CE350935A0630935B0673
:105A000049E140935C0680935D0630936206E3E1D2
:105A1000E09363067EE07093640663E0609365063E
:105A20009093660630936806E093690670936A0661
:105A300060936B0690936C0650936E0630936F06DE
:105A400040937006809371062093C9062093CA067E
:105A50008093C8062093EB062093EC068093EA0619
:105A600020930D0720930E0780930C074EE140937F
:105A7000CC063093CD0661EF6093CE065CEE50937A
:105A8000CF069093D2069093D8069093D306909326
:105A9000D9068093D4068093DA068093D506809346
:105AA000DB069093DC069093DD0672EE7093EE06B3
:105AB00078ED7093EF066093F0065093F1069093A3
:105AC000F4069093FA069093F5069093FB06809364
:105AD000F6068093FC068093F7068093FD0690936C
