:100000000C944C0F0C941C310C94E4300C94CF31B4
:100010000C94720F0C948E310C94720F0C94553119
:100020000C94720F0C94720F0C94720F0C94720F4C
:100030000C94720F0C94720F0C94720F0C94720F3C
:100040000C94720F0C94720F0C94CD300C94720FB0
:100050000C948B320C94720F0C94720F0C94720FE0
:100060000C94720F0C94720F0C94720F0C94720F0C
:100070000C94720F0C94720F0C94720FDD1F4A20B7
:100080004A20EE1FFB1F05200120152021202520DE
:100090003120F039F239F539F739F939FB39FD39C1
:1000A000FF39023A043A073A093A0B3A0D3A0F3A45
:1000B000113A133A153A173A1A3A053EE93DEC3D22
:1000C000EF3DF23DF53DF83DFB3DFE3DFFFF01FFFD
:1000D00001FF01FFFF010101FF0101FFFFFF00011F
:1000E00002020001000102000102010002000201FF
:1000F00001020003040506070001020304050607C8
:10010000050206010508030705010241050D000F60
:10011000002200330044004F090100030007000FD4
:10012000001F000F00070003000100081C001C0056
:100130001C001C007F003E001C0008000808001C7A
:10014000003E007F001C001C001C001C0005FF017D
:10015000FE007C00380010000D4000600070007848
:10016000007C007E007F007E007C007800700060D4
:1001700000400001022D0D1D001F004400440044FA
:10018000007D00AA00E3011C015D019201CB020485
:10019000023D0900700000007000000070000000C7
:1001A000700000007000000070000000700000008F
:1001B000700000007000000E80FF0100F0FF0F00D3
:1001C000F8FF1F007C003E001E0078000E0070004B
:1001D0000E0070000E0070000E0070001E0078000F
:1001E0007C003E00F8FF1F00F0FF0F0080FF0100C1
:1001F0000B7000700070007000700070007800706C
:1002000000FCFF7F00FEFF7F00FEFF7F000000700C
:10021000000000700000007000000070000E000080
:1002200078001C007C001C007E000E0077000E0091
:1002300077000E8073000EC071000EE070001E7813
:1002400070001E3C7000FC1F7000F8077000F00387
:100250007000000070000E000038001C0038001C08
:100260000070000E0070000E0070000E1C70000E7A
:100270001C70000E1C70000E1C70000E3E78001CDE
:10028000373C00FCF33F00F8E31F00F0C00700100C
:1002900000E0010000F0010000FC010000FE010090
:1002A00000DF010080CF0100E0C30100F0C10100C8
:1002B000F8C001007CC00100FEFF7F00FEFF7F0050
:1002C000FEFF7F0000C0010000C0010000C001006F
:1002D0000D00003800FE1F3800FE0F7000FE0F708A
:1002E000000E0E70000E0E70000E0E70000E0E70DE
:1002F000000E1E78000E3C3C000EFC1F000EF80F96
:10030000000EE007000E00FE0300C0FF0F00F0FF2C
:100310001F00F81C3E003C0C78001C0E70001E0EE6
:1003200070000E0E70000E0E70000E1E78000E3C57
:100330003C001EFC1F0000F80F0000E007000E0E3E
:100340000000000E0000000E0040000E0070000EC5
:10035000007C000E007F000EC01F000EF007000E94
:10036000FC00000E3F0000CE0F0000FE030000FE68
:100370000000003E0000000E00C00700F0E11F007A
:10038000F8F33F00FC3F3C001E1F78000E0E70008B
:100390000E0C70000E1C70000E1870001E3C7800D1
:1003A000FC7F3C00F8F33F00F0E11F0000C00700B5
:1003B0000EE0070000F01F0000F83F78003C3C70A2
:1003C000001E7870000E7070000E7070000E707855
:1003D000000E7038001E303C007C381F00F8FF0F04
:1003E00000F0FF0300C07F00000102205B1300BB90
:1003F00000C500CC00CC00CC00CC010301030103FC
:100400000116012901290129013601490150015034
:10041000016F018801A401C001DF01FB021A02364D
:1004200002550274027B027B027B027B027B0294F8
:10043000029402BC02DB02FD0322033E035A038244
:1004400003A103B403CA03EC0408042D044C047490
:10045000048D04B504D704F9051E053D056505990D
:1004600005BB05E006020602061B061B061B061B53
:10047000061B063406500669068506A106B406D09A
:1004800006E906F00700071C0723074E07670786E3
:1004900007A207BE07D107EA07FD08160832085D64
:1004A000087908950300000000000000000002FE2B
:1004B0006700FE670012780000FE010002010002E2
:1004C0000100020100FE4100787000001C000007DE
:1004D00000E000003800000E1E00827F0080400017
:1004E000804000804000807F00001E0006C01F008A
:1004F000F8FF003CE00107000703000601000406C6
:100500000100040300060700073CE001F8FF00C0FB
:100510001F000400000300F003007000001000063C
:1005200000030000030000030000030000030000BC
:100530000300020070000070000AF00F00FC3F0092
:100540000C30000660000660000660000660000CCB
:100550003000FC3F00F00F00081860001860001821
:100560006000FE7F00FE7F00006000006000006011
:1005700000090C7000067800066C00066600066331
:10058000008E6100FC6000786000006000090C30A3
:1005900000066000066000866100866100866100DA
:1005A000CE73007C3F00381E000A00070080070061
:1005B000C00700F006003806001C0600FE7F00FEA3
:1005C0007F0000060000060009003000FE6000FE0B
:1005D0006000C66000C66000C66000C63100863F8D
:1005E00000060F000AE00F00F03F009C3000CC60D6
:1005F00000C66000C66000C66000C63100863F00CD
:10060000000F0009060000064000067000067C008E
:10061000060F00C60300F600003E00000E00000AB0
:10062000381E007C3F00CE7100C66000C6600086A8
:1006300061008661004E73007C3F00381E000AF0A6
:100640000000FC61008C6300066300066300066323
:10065000000633000C3900FC1F00F0070002707028
:1006600000707000080C00000600000667000667B6
:1006700000860100CE0000FC00003800000D0040A4
:1006800000007800003F00C00700F806003E0600AA
:100690000606003E0600F80600C00700003F000006
:1006A00078000040000AFE7F00FE7F008661008621
:1006B0006100866100866100C661007C73003C3F7A
:1006C00000001E000BE00700F81F001C38000C3073
:1006D000000660000660000660000660000660001C
:1006E0000620000C30000CFE7F00FE7F000660003C
:1006F0000660000660000660000660000E70000CD8
:100700003000381C00F80F00E0070009FE7F00FEF3
:100710007F00C66000C66000C66000C66000C6609C
:1007200000C66000C6600009FE7F00FE7F008601F3
:100730000086010086010086010086010086010016
:100740000600000DE00700F81F003C3C000C3000E4
:100750000E70000660000660000663000663000677
:1007600063000663000C3F000C3F000AFE7F00FEA2
:100770007F00C00000C00000C00000C00000C0003A
:1007800000C00000FE7F00FE7F00060660000660DD
:1007900000FE7F00FE7F000660000660000700602C
:1007A00000006000066000066000067000FE3F006A
:1007B000FE1F000BFE7F00FE7F00800300C00100D3
:1007C000E00300700700381C001C38000E700006A3
:1007D000600002400009FE7F00FE7F000060000014
:1007E00060000060000060000060000060000060C9
:1007F000000CFE7F00FE7F000E0000380000E001CC
:1008000000800700000700E001003800000E000033
:10081000FE7F00FE7F000AFE7F00FE7F000E0000CC
:100820003C0000E00000800300001E00007800FE95
:100830007F00FE7F000DE00700F81F001C38000C51
:10084000300006600006600006600006600006607A
:10085000000C30001C3800F81F00E0070008FE7F85
:1008600000FE7F000603000603000603008E03005F
:10087000FC0100F800000DE00700F81F001C380024
:100880000C300006600006600006600006E001060D
:10089000E0030C30071C3806F81F06E007060BFEC5
:1008A0007F00FE7F0086010086010086010086072A
:1008B00000CE0E00FC1C00787000006000004000BC
:1008C0000B783000FC7000CE60008661008661000D
:1008D0008661008661008661000633000C3F0000DF
:1008E0001E000C06000006000006000006000006C0
:1008F0000000FE7F00FE7F000600000600000600EC
:10090000000600000600000AFE0F00FE3F00007017
:1009100000006000006000006000006000007000E7
:10092000FE3F00FE0F000D0200001E0000FC000054
:10093000E00300801F00007C00006000007C00805D
:100940001F00E00300FC00001E0000020000110672
:1009500000007E0000F80700803F00007800007C67
:1009600000C00F007E00000600007E0000E00700CF
:10097000007E00007000807F00F807007E00000607
:1009800000000B0240000660001E7800381C00E0EA
:100990000700800100E00700381E001E7800066096
:1009A000000240000C0200000600001E000078005B
:1009B00000E00000C07F00C07F00E0000078000081
:1009C0001E00000600000200000B06700006780002
:1009D000067C00066E00066700C66300E6600076CF
:1009E00060003E60001E60000E6000080300001FF3
:1009F0000000FE0000F00700803F0000FC0100E066
:100A00000300000308003C00307E003067003063C4
:100A100000306300303300E07F00E07F0009FF7F9B
:100A200000FF7F0060200030600030600030600018
:100A3000707000E03F00C00F0008800F00E03F0032
:100A40006030003060003060003060003060006076
:100A5000300009801F00E03F0070700030600030FF
:100A60006000306000303000FF7F00FF7F000980B1
:100A70000F00E03F006033003063003063003063FC
:100A800000706300E06300C0330006300000FE7FAA
:100A900000FF7F0033000033000003000009801FC7
:100AA00000E03F0670700630600630600630600679
:100AB000303007F0FF03F0FF0108FF7F00FF7F00E9
:100AC000600000300000300000300000F07F00E0E7
:100AD0007F0002F67F00F67F00050000063000066A
:100AE000300006F6FF07F6FF0309FF7F00FF7F00D7
:100AF000000600000700800F00C038007070003052
:100B0000600010400002FF7F00FF7F000EF07F00BA
:100B1000F07F00600000300000300000300000F086
:100B20007F00E07F006000003000003000003000F7
:100B300000F07F00E07F0008F07F00F07F006000A1
:100B400000300000300000300000F07F00E07F0047
:100B50000A800F00E03F006030003060003060002D
:100B6000306000306000603000E03F00800F00091E
:100B7000F0FF07F0FF076060003060003060003079
:100B80006000707000E03F00C00F0009801F00E0AF
:100B90003F00707000306000306000306000303026
:100BA00000F0FF07F0FF0706F07F00F07F00600015
:100BB0000030000030000030000008C03100E06369
:100BC00000306300306300306600306600303E0065
:100BD000601C0006300000FE3F00FE7F0030600019
:100BE00030600030600008F01F00F07F00006000FF
:100BF000006000006000003000F07F00F07F00091E
:100C0000100000F00000E00700003E00006000005F
:100C10003E00E00700F000001000000E300000F081
:100C20000300C03F00007800007C00800700F00057
:100C300000F00000C00700003C00007000C03F0052
:100C4000F0030030000009104000306000F0780030
:100C5000C01D00000700C01D00F0780030600010CB
:100C6000400009100000F00000E0070600BF070088
:100C7000F001003F00E00700F00000100000083025
:100C80007000307800307C00306600306300F06126
:100C900000F060007060000102205B0B00BB00BE32
:100CA00000C100C100C100C100D600D600D600DDE1
:100CB00000E400E400E400E900F000F300F300FECB
:100CC00001090114011F012C01370142014D015896
:100CD000016301660166016601660166016F016FCD
:100CE000017C0189019801A701B201BD01CC01D9A4
:100CF00001E001E901F602010210021D022C023797
:100D0000024602530260026F027C0289029C02A921
:100D100002B802C502C502C502C502C502C502C5A8
:100D200002D002DB02E602F102FC03050310031B02
:100D3000031E03250330033303460351035C03679B
:100D40000372037B0384038D039803A303B203BDE3
:100D500003C8010000017E010A0C00120012008C81
:100D60000160001800C60020012001C00003F80047
:100D7000060301040301040603F8000200048003D3
:100D80000320002000200001800105FC0002010278
:100D9000010201FC000504010401FE010001000143
:100DA0000584014201220112010C010584000201A7
:100DB00012011201EC00066000500048004400FEE1
:100DC000014000059E00120112011201E20005F827
:100DD00000140112011201E000050200820162000C
:100DE0001A00060005EC00120112011201EC0005C8
:100DF0001C0022012201A2007C00019801040200D3
:100E0000620112000C0006C001780046004600781E
:100E100000C00106FE011201120112011C01E000D6
:100E20000778008400020102010201020184000728
:100E3000FE0102010201020102018400780005FEA8
:100E400001120112011201120105FE01120012002D
:100E50001200020007780084000201020122012230
:100E600001E40006FE011000100010001000FE0159
:100E7000030201FE01020104000102010201FE0061
:100E800006FE012000300048008400020105FE013A
:100E9000000100010001000107FE010600180060CA
:100EA0000018000600FE0106FE01060018006000A2
:100EB0008001FE0107780084000201020102018422
:100EC00000780005FE012200220022001C000778A5
:100ED0000084000201020102038404780406FE017A
:100EE0002200220062009C000001068C0012011208
:100EF0000122012201C40007020002000200FE01DB
:100F000002000200020006FE0000010001000100D4
:100F100001FE00060E0070008001800170000E00CE
:100F200009060078008001780006007800800178CA
:100F300000060006860148003000300048008601A7
:100F400007020004000800F0010800040002000687
:100F500082014201220112010A01060105C0002896
:100F60000128012801F00105FF010801080108011D
:100F7000F00005F000080108010801900005F000EC
:100F8000080108010801FF0105F0002801280128D7
:100F900001B000040800FE010900090005F0000886
:100FA0000508050805F80305FF010800080008000A
:100FB000F00101F9010300040804F90305FF0140F1
:100FC0000060009000080101FF0109F80108000815
:100FD000000800F001080008000800F00105F80111
:100FE000080008000800F00105F0000801080108E9
:100FF00001F00005F807080108010801F00005F0FC
:1010000000080108010801F80704F80110000800B1
:10101000080004300128014801C800040800FE004F
:101020000801080105F800000100010001F80105B0
:1010300018006000800160001800077800800160DF
:101040000018006000800178000508019000600031
:101050009000080105080070048003700008000477
:101060008801480128011801AF40A0A6A4A2EEC83B
:101070002F24AC00F80007060504030201008518C0
:101080006F136A13651360135B13561351134C13DC
:10109000F21AEA1AF01AEE1AEC1AE51AE01ADB1A3A
:1010A000D61AEA140A150515FF144A18FC1AF41A80
:1010B000541971196C19661962195E197413501557
:1010C0004715581540153B15951390138B13861330
:1010D00081137B1375132715741384157C159317CF
:1010E0008E178B1781177717D713CF13CA136F1566
:1010F0006A156115C0145919B4142B182718211832
:1011000018181118741385188218EF13F613E513C5
:101110007413741317151015C51AB31AA01A8E1A62
:10112000781A691A551A411A331A241A151A061A06
:10113000F719E819D919CA19B6199D198419761918
:10114000741395139013A613AB13B013B51327158F
:1011500058155015471540153B15361531152C15EA
:10116000271520151A1508180118F314DD13CA13D2
:101170007C14701474132D1424141B1417140E14DF
:101180000614741374137413011BF7149514871445
:10119000821468145D147413FF13F613741374131C
:1011A00074136C19661962197918CB176F186418C3
:1011B00055184A183E1830187413F417EA17E21736
:1011C000D5179E179913C117B717AB179617741336
:1011D0007413401938192A191D190F190419FB180D
:1011E000F218E318D518C618BA18B318AC189F1817
:1011F000931889184819741374136F1764175317C9
:1012000046173B172B171B170C17FC16EC16DC1692
:10121000CC16BC16AC169E16901681167216651664
:1012200058164C164016341627161D161316061699
:10123000FB15EE15E315D615FB15C915E31574134B
:10124000741384157C1576157413581453144E14A6
:10125000491444143F143A143514581550154715C1
:1012600040153B15361531152C15C015B615AE15A4
:10127000A6159D1595158C15271584157C157615C5
:1012800074137413AB14A214E014DA14CE141D1BDF
:10129000171B79180E1B0C1B0A1BC513C113BA139D
:1012A0003F1338132E134613261374137413D01AD6
:1012B0000C13FF127413F812EA12D912CC12741321
:1012C00074137413C612436C6561720044697361D0
:1012D000726D2074696D6572004E6F207369676E60
:1012E000616C2064697361726D004D616E75616C33
:1012F0002064697361726D005265626F6F74005291
:10130000454D4F56452050524F5053005741524E75
:10131000494E47202D2045726173657320736574B3
:1013200074696E6773004F7074696F6E73005472E6
:1013300069636F707465720051756164205000516B
:10134000756164205800426C616E6B00332E395613
:1013500000332E385600332E375600332E365600C3
:10136000332E355600332E345600332E3356003389
:101370002E32560000323630487A00313834487AFE
:10138000003934487A003434487A003231487A00DF
:101390003130487A0035487A004D50553630353076
:1013A000204C50463A003137487A003237487A00AC
:1013B0003338487A003637487A007369676E616C53
:1013C000006C6F770068696768004869676800416A
:1013D000726D61626C650041726D65640053796E77
:1013E00063205243005265765363616C6564005319
:1013F00063616C6564005265766572736564004E66
:101400006F726D616C005069746368557000536948
:101410006465776179730041667400496E76657220
:1014200074656400566572746963616C00466F721E
:1014300077617264004F555438004F555437004F50
:10144000555436004F555435004F555434004F55C0
:101450005433004F555432004F55543100284469DD
:101460007361726D656429002841726D656429009D
:10147000666F72207374617475732E005072657399
:101480007300446F6E6500486F6C64206173207355
:10149000686F776E004E6F205258207369676E61D7
:1014A0006C0073657474696E677300557064617461
:1014B000696E670043616C2E206661696C6564002B
:1014C0004553432043616C69627261746500486FE3
:1014D0006C6420737465616479005265736574008F
:1014E0004F70656E4165726F320044697361726D51
:1014F0006564004C6F770042617474657279004DC9
:101500006F64656C004C6F7374004572726F72008B
:101510005369676E616C004E6F00456C65762E00F6
:101520005468726F742E004E6F6E650041555833CB
:1015300000415558320041555831004765617200ED
:1015400052756464657200456C657661746F7200F3
:1015500041696C65726F6E005468726F74746C656B
:10156000005371727453696E650053696E65004C67
:10157000696E656172004D6F746F7200442E536521
:1015800072766F00412E536572766F00414C205089
:101590006974636800414C20526F6C6C0041636356
:1015A000506974636800416363526F6C6C004779E3
:1015B000726F596177004779726F50697463680080
:1015C0004779726F526F6C6C00503220536F757296
:1015D000636520423A00503120536F757263652075
:1015E000423A00503220566F6C756D653A005032A9
:1015F00020536F7572636520413A00503120566F59
:101600006C756D653A00503120536F7572636520BB
:10161000413A005032205A206163633A0050312031
:101620005A206163633A0050322050697463682025
:10163000414C3A00503120506974636820414C009D
:10164000503220526F6C6C20414C3A005031205285
:101650006F6C6C20414C3A00503220596177206702
:1016600079726F3A00503120596177206779726F33
:101670003A005032205069746368206779726F3A7B
:10168000005031205069746368206779726F3A00A6
:10169000503220526F6C6C206779726F3A00503173
:1016A00020526F6C6C206779726F3A005032205272
:1016B00075642E20766F6C756D653A00503120523E
:1016C00075642E20766F6C756D653A00503220453A
:1016D0006C652E20766F6C756D653A005031204533
:1016E0006C652E20766F6C756D653A005032204126
:1016F000696C2E20766F6C756D653A005031204113
:10170000696C2E20766F6C756D653A005468726F47
:1017100074746C652063757276650050322054686D
:10172000722E20766F6C756D653A005031205468CA
:10173000722E20766F6C756D653A005032204F66C0
:10174000667365743A0050312E6E204F666673657D
:10175000743A0050312E6E2025206F66207472611D
:101760006E733A005031204F66667365743A0044D8
:1017700065766963653A0050312E6E202D20503217
:10178000005031202D2050312E6E0050320050314B
:101790002E6E005031005072657365743A004C6FC4
:1017A00077205620416C61726D3A00414C20636F86
:1017B00072726563743A004779726F204C50463AF2
:1017C000004163632E204C50463A0050574D207222
:1017D0006174653A0044697361726D2074696D6566
:1017E0003A005361666574793A00436F6E747261B2
:1017F00073743A004F7269656E746174696F6E3A02
:1018000000467574616261004A522C53706B746DAE
:1018100000587472656D65005370656B7472756DF8
:1018200000532D4275730050574D004350504D00EA
:101830005669626520646973706C61793A0054720C
:10184000616E732E2050316E3A005472616E73696E
:1018500074696F6E0050726F66696C6520436861D1
:101860006E2E3A0043682E206F726465723A005003
:10187000574D2073796E633A005258207479706521
:101880003A004F4E004F4646005961772074726906
:101890006D3A00596177204920726174653A0059A8
:1018A00061772049204C696D69743A00596177204D
:1018B000493A0059617720503A00506974636820B2
:1018C0007472696D3A005069746368204175746F71
:1018D0004C766C3A005069746368204920726174D8
:1018E000653A0050697463682049204C696D6974D9
:1018F0003A00506974636820493A0050697463681B
:1019000020503A00526F6C6C207472696D3A00522C
:101910006F6C6C204175746F4C766C3A00526F6C32
:101920006C204920726174653A00526F6C6C2049DA
:10193000204C696D69743A00526F6C6C20493A0012
:10194000526F6C6C20503A0041636320566572748C
:1019500020503A00496E762E0043616C2E004163A0
:10196000630059617700506974636800526F6C6C52
:10197000004779726F0032302E204572726F7220EC
:101980006C6F670031392E20506F732E20536572B3
:10199000766F207472766C2E202825290031382E1F
:1019A000204E65672E20536572766F207472766CB8
:1019B0002E202825290031372E20536572766F207E
:1019C000646972656374696F6E0031362E204F55FD
:1019D0005438204D697865720031352E204F5554AA
:1019E00037204D697865720031342E204F555436BA
:1019F000204D697865720031332E204F55543520C3
:101A00004D697865720031322E204F555434204D87
:101A1000697865720031312E204F555433204D695D
:101A20007865720031302E204F555432204D697840
:101A3000657200392E204F555431204D69786572FA
:101A400000382E20466C696768742070726F666972
:101A50006C65203200372E20466C696768742070F0
:101A6000726F66696C65203100362E204C65766594
:101A70006C206D6574657200352E2053656E736F32
:101A8000722063616C6962726174696F6E00342EDA
:101A900020537469636B20706F6C61726974790094
:101AA000332E20526563656976657220696E7075A4
:101AB000747300322E2052656365697665722073F7
:101AC0006574757000312E2047656E6572616C001B
:101AD00041626F72740053617665004465662E0042
:101AE0004261636B004D656E750045004400430024
:101AF000420041004A69747465723A00506F733A4B
:101B000000426174746572793A0030002E005072A0
:101B10006F66696C653A004D6F64653A0056657290
:101B200073696F6E3A202020312E32204236000138
:101B3000010101010101FFFFFFFF0101FF01FF01A1
:101B40000100010201020000010200010201000285
:101B5000020100E17A0841C3F59040295C1F407101
:101B60003DCA3F52B89E3F0000803F0000803F00CA
:101B700000803F0000B841AE4739413333BB406677
:101B8000664640C3F5E83FCDCCAC3F52B89E3F001F
:101B900000803F030F1B27007F010028007F01000A
:101BA0000A007D01000A0004010002007F01000A12
:101BB000817F010000007F010028007F01000A00F2
:101BC0007D01000A0004010002007F01000A817FFC
:101BD000010000007F01003C007F010028007D0122
:101BE00000190004010002817F010000007F010054
:101BF00032000000000000000000000000000000B3
:101C000000000000000000000000000000000000D4
:101C100000000000000002010102837D01000001BC
:101C200063010032837D010000837D010000007D9F
:101C3000010064007D0100640002010100837D0158
:101C40000000837D010000837D010000837D010091
:101C500000837D010000837D01000000020101007E
:101C60000002010100000201010000020101000068
:101C70000201010000020101000002010100000256
:101C80000101000002010100000201010000020147
:101C900001000002010100000F01010F837D01001E
:101CA00000000F01010F837D010000000F01010FF3
:101CB000837D010000000F01010F837D010000E220
:101CC00000000000000000000000000000380000DC
:101CD0000000000000000000000000440044004438
:101CE00000440044004400440044004400440044D4
:101CF000004400EE000000EE000000EE000000EEE8
:101D00000000000001010100830001039C007D012F
:101D100003648D008D008D008D008D008D008D0081
:101D20008D00000000000000000000000000000026
:101D300000000000000000000000000000000000A3
:101D4000000000040101020002010102000401017F
:101D50000400010101000007010104002801000046
:101D600001630100320001010100000101010000D6
:101D70000000000000050101001C320100240001E8
:101D8000010101007F01001E0008010100000601A1
:101D9000010300070101020007010107010A010018
:101DA0000700030104003E0076006900740069002A
:101DB000000000004400000000007C00000035002E
:101DC0000000000025002500250000001101000D85
:101DD0001216191C1F21232628292B2D2F303233B0
:101DE000353638393A3B3D3E3F4041424344454613
:101DF0004748494A4B4C4D4D4E4F50515152535309
:101E0000545555565757585859595A5A5B5B5C5C4C
:101E10005D5D5E5E5E5F5F5F6060606161616262CA
:101E2000626262636363636363636464646464647F
:101E30006464640002030506080A0B0D0E101113FA
:101E4000141617191A1C1D1F202223252628292B9A
:101E50002C2D2F303233343637383A3B3C3D3F401F
:101E600041424344464748494A4B4C4D4E4F5051DE
:101E7000525354545556575858595A5A5B5C5C5DE6
:101E80005E5E5F5F60606061616262626363636344
:101E9000636464646464646411241FBECFEFD0E1A2
:101EA000DEBFCDBF14BE88E10FB6F894809360000A
:101EB000109260000FBE15E0A0E0B1E0EAE0F4EAA5
:101EC00002C005900D92A631B107D9F728E0A6E12E
:101ED000B5E001C01D92A63AB207E1F70E94521F79
:101EE0000C9403520C94000000000895FDDFFCDF09
:101EF000FBDFFADF0895CF935898C6E70E94880F5A
:101F0000589ACAE70E94880F8A95B1F7CF91089531
:101F100000C000C000C000C000C000C000C000C0C1
:101F20000000CA95A9F70895F62EEF93FF93AF939B
:101F3000BF93CF93DF930F931F932F933F934F93B1
:101F40005F936F937F93E82FF92F8F939F93A191C6
:101F5000B191A65CB040AF93BF93A7707A2FA191C7
:101F6000B191AE5BB040AF93BF93A7706A2FA191C0
:101F7000B191A65BB040AF93BF93A7705A2FA191C8
:101F8000B191AE5AB040AF93BF93A7704A2FA191C1
:101F9000B191A55AB040AF93BF93A7703A2FA191CA
:101FA000B191AD59B040AF93BF93A7702A2FA191C3
:101FB000B191A559B040AF93BF93A7701A2FA191CB
:101FC000B191AD58B040AF93BF93A7700A2F972F30
:101FD0000E940211F0FC469A0E940E11962F0E9458
:101FE0000211F1FC449A0E940E11952F0E940211D9
:101FF000F2FC429A0E940E11942F0E940211F3FCEF
:10200000439A0E940E11932F0E940211F4FC149A1D
:102010000E940E11922F0E940211F5FC159A0E9447
:102020000E11912F0E940211F6FC459A0E940E118A
:10203000902F0E940211F7FC479A0E940E110E94F5
:10204000E1100E94E1100E94E110BF91AF910E9447
:10205000FB100A2FBF91AF910E94FB101A2FBF9166
:10206000AF910E94FB102A2FBF91AF910E94FB10ED
:102070003A2FBF91AF910E94FB104A2FBF91AF91B1
:102080000E94FB105A2FBF91AF910E94FB106A2F44
:10209000BF91AF910E94FB107A2FCFEFD0E00024C8
:1020A000715019F446980C94571000C000C061504C
:1020B00019F444980C945E1000C000C0515019F4FB
:1020C00042980C94651000C000C0415019F4439828
:1020D0000C946C1000C000C0315019F414980C948A
:1020E000731000C000C0215019F415980C947A1098
:1020F00000C000C0115019F445980C94811000C024
:1021000000C0015019F447980C94881000C000C01A
:102110000E94EA10C150D00911F00C9450109F9108
:102120008F917F916F915F914F913F912F911F916F
:102130000F91DF91CF91BF91AF91FF91EF910895F2
:102140000F931F932F930CEF18E00024803071F051
:10215000813079F0823081F0833089F0843091F0E1
:10216000853099F08630A1F08730A9F0469A0C941A
:10217000CE10449A0C94CE10429A0C94CE10439AEE
:102180000C94CE10149A0C94CE10159A0C94CE1078
:10219000459A0C94CE10479A0C94CE1000C000C003
:1021A00000C000C000C000C06150700919F420E0F8
:1021B00028B922B90150100989F72F911F910F9169
:1021C00008950F9305E600C000C000C00150D9F784
:1021D0000F9108950F9309E000C000C000C00150A6
:1021E000D9F7000000C000C00F91089500C000C0E2
:1021F00000C000C00895B695A795B695A795B69569
:10220000A7950895C7E09770C92731F00E94F6108E
:10221000CA9509F0FBCF00C000000895C92FC77010
:1022200031F00E94F610CA9509F0FBCF00C0089566
:10223000CF93DF93CDB7DEB72C970FB6F894DEBF00
:102240000FBECDBF26E0AE014F5F5F4F6BE380ED69
:102250000E94502A898190E0982F88272A81820F36
:10226000911D98878F838B8190E0982F88272C81F0
:10227000820F911D9195819591099A8789878D810A
:1022800090E0982F88272E81820F911D9C878B8745
:1022900020915F06AEE4B5E043E0240290011124F2
:1022A00080E090E022523F4FF901E80FF91FE491DE
:1022B000EE0FFF0B41E050E04C0F5D1FE40FF51FE8
:1022C0004681578166E0559547956A95E1F74D93AC
:1022D0005D9301968330910539F72C960FB6F894EB
:1022E000DEBF0FBECDBFDF91CF9108951F93CF9377
:1022F000DF930E9418118091DE0780FD05C01092C7
:10230000C6071092C5070EC08091C7079091C807F5
:102310002091CB073091CC07821B930B9093C6077B
:102320008093C50720915F06C1ECD7E0AEE4B5E02D
:1023300083E028029001112480E090E024533F4F75
:1023400069917991F901E80FF91F14914D915C9110
:102350001197461B570B1403B001159F700D1124E4
:102360006D937D9301968330910551F76091C70776
:102370007091C8078091C5079091C607681B790BBB
:10238000882777FD8095982F0E94CD4F2091C70513
:102390003091C8054091C9055091CA050E94CA4EA6
:1023A0000E949A4F7093170560931605DF91CF91A5
:1023B0001F9108951F93CF93DF9300D000D000D0DA
:1023C000CDB7DEB71A8219821C821B821E821D8243
:1023D000811172C010E20E94181189819A812091A6
:1023E0004E0530914F05820F931F9A8389838B810D
:1023F0009C812091500530915105820F931F9C8341
:102400008B838D819E812091520530915305820FDF
:10241000931F9E838D838FE493EC0197F1F700C0A7
:1024200000001150C1F6FE0131969E01295F3F4F19
:1024300080819181409645E0959587954A95E1F791
:1024400081939193E217F30799F789819A81909389
:10245000C2078093C1078B819C819093C4078093AE
:10246000C30780915F06992787FD9095FC01EE0FC9
:10247000FF1FE80FF91FE253FF4F44912D813E816A
:102480004203C001439F900D11249093C80780938D
:10249000C7078091DE0782608093DE070E945A1989
:1024A0002B9A9FE724E84EE1915020404040E1F70D
:1024B00000C000002B9876C08091DE0781FF72C0BB
:1024C0001092CA071092C90710E20E941811809159
:1024D000C9079091CA072091520530915305820F88
:1024E000931F9093CA078093C9078FE493EC0197D9
:1024F000F1F700C00000115041F780915F06992765
:1025000087FD9095FC01EE0FFF1FE80FF91FE253C6
:10251000FF4F44912091C9073091CA07205F3F4F78
:1025200015E0359527951A95E1F74203C001439FC1
:10253000900D11249093CA078093C90797FF32C06A
:102540002091C7073091C807A901481B590BCA0140
:10255000959587959093CC078093CB07281B390BD3
:102560003093C6072093C5078091DE078160809372
:10257000DE070E945A192B9A5FE784E89EE15150CA
:1025800080409040E1F700C000002B9885E026963F
:102590000FB6F894DEBF0FBECDBFDF91CF911F9174
:1025A0000C94A43726960FB6F894DEBF0FBECDBFAD
:1025B000DF91CF911F91089541E06BE680ED0E947D
:1025C000392A48E06CE180ED0C94392A8FEF809332
:1025D0007E0010927B00089580937C0086EC8093AF
:1025E0007A0080917A0086FDFCCF0895CF92DF9229
:1025F000EF920F93CF93DF93CBE0D0E01F9B7FC090
:102600000E94761160E070E0CB010E94B12C21970E
:102610002097A1F720E030E040E052E46091C3054C
:102620007091C4058091C5059091C6050E94CA4E5F
:102630000E949A4FEB0120E030E040E852E46091C4
:10264000BF057091C0058091C1059091C2050E949F
:10265000CA4E0E949A4F6B01D7FD06C0C134D10506
:102660002CF0C0E4D0E002C0C0E0D0E0D7FC08C04D
:1026700081E8C816D10434F080E8C82ED12C02C0FD
:10268000C12CD12C27E330E042E050E069E071E05A
:102690008CE090E00E94E627EE24E39400E420E83A
:1026A00040E060E080E091E00E94032705E125E141
:1026B00046E166E380E091E00E94032708E320E41E
:1026C00048E060E480E091E00E94652600E220E6B8
:1026D00040E260E280E091E00E94652601E028E0AF
:1026E0004C2F6C2D80E091E00E94552780E091E016
:1026F0000E94D32580E091E00E9405267DCFDF91E6
:10270000CF910F91EF90DF90CF9008959091E107D6
:10271000E92FFF27E7FDF095EE51F84F80839F5F8B
:1027200093311CF49093E10703C083E18093E107A8
:102730000C945A19AF92BF92CF92DF92EF92FF9210
:102740000F931F93CF93DF93B12C92EEC92E97E096
:10275000D92E24E1A22E1F9B4DC01C9909C0F60161
:102760002A2D11922A95E9F71092E1070E945A1931
:102770001E9903C0BA94B7FCB12C1D9906C0B3943E
:102780008EE08B1514F48FE0B82E00E010E0C0E06E
:10279000D0E0EB2CFF24E7FCF094F701E952FA4F6C
:1027A0007F01F701EC0FFD1FE55FFD4F8081992749
:1027B00087FD9095980140E050E067E97CE0855EF8
:1027C0009E4F0E94E6272196065F1F4FC530D10518
:1027D00041F783E00E94E53480E091E00E94052605
:1027E000FFE72AE186E0F15020408040E1F700C099
:1027F0000000B1CFDF91CF911F910F91FF90EF902B
:10280000DF90CF90BF90AF9008950E94AC341F9B93
:10281000FAC01C9B0E946A4C0E94D54B20E030E01D
:1028200040E050E067E97CE082E790E00E94E62724
:102830002AE030E040E050E067E97CE080E290E0B0
:102840000E94E62724E130E040E050E067E97CE0C8
:1028500083E790E00E94E6272EE130E040E050E080
:1028600067E97CE083E290E00E94E62720E030E028
:1028700046E450E067E97CE08DE690E00E94E627C0
:102880002AE030E046E450E067E97CE08EE690E044
:102890000E94E62724E130E046E450E067E97CE06E
:1028A0008FE690E00E94E6272EE130E046E450E01B
:1028B00067E97CE080E790E00E94E627809182084B
:1028C000909183084AE06AE775E00E949F5120E0FA
:1028D00030E045E250E067E97CE00E94EC45809101
:1028E0008608909187084AE06AE775E00E949F5148
:1028F0002AE030E045E250E067E97CE00E94EC45E8
:1029000080918808909189084AE06AE775E00E9402
:102910009F5124E130E045E250E067E97CE00E940D
:10292000EC4580918A0890918B084AE06AE775E04F
:102930000E949F512EE130E045E250E067E97CE0E3
:102940000E94EC4580918C0890918D084AE06AE7DE
:1029500075E00E949F5120E030E044E650E067E9D6
:102960007CE00E94EC4580918E0890918F084AE0AF
:102970006AE775E00E949F512AE030E044E650E0AB
:1029800067E97CE00E94EC45809190089091910865
:102990004AE06AE775E00E949F5124E130E044E696
:1029A00050E067E97CE00E94EC45809192089091AC
:1029B00093084AE06AE775E00E949F512EE130E0FB
:1029C00044E650E067E97CE00E94EC4529E330E012
:1029D00040E050E069E071E08CE090E00E94E62782
:1029E00027E330E04EE650E067E97CE08CE390E0DE
:1029F0000E94E62780E091E00E94D32580E091E0EC
:102A00000E94052604CF0895CF9380E091E00E94B4
:102A10000526C1E01F9BE7C00E94C1280E947611D5
:102A200020E030E045E250E067E97CE08AE190E0B8
:102A30000E94E62720E030E04DE450E067E97CE0CA
:102A40008EE190E00E94E6272DE030E045E050E086
:102A500067E97CE08BE190E00E94E62727E130E027
:102A600045E050E067E97CE08CE190E00E94E627D9
:102A700021E230E045E050E067E97CE08DE190E064
:102A80000E94E6274AE06AE775E0809193059091FD
:102A900094050E949F512DE030E048E250E067E944
:102AA0007CE00E94EC454AE06AE775E0809195057C
:102AB000909196050E949F5127E130E048E250E056
:102AC00067E97CE00E94EC454AE06AE775E08091A6
:102AD0009705909198050E949F5121E230E048E2CD
:102AE00050E067E97CE00E94EC454AE06AE775E067
:102AF00080914E0590914F050E949F512DE030E04E
:102B000040E550E067E97CE00E94EC454AE06AE776
:102B100075E080915005909151050E949F5127E1E9
:102B200030E040E550E067E97CE00E94EC454AE097
:102B30006AE775E080915205909153050E949F517C
:102B400021E230E040E550E067E97CE00E94EC459E
:102B500029E330E040E050E069E071E08CE090E093
:102B60000E94E62727E330E04CE650E067E97CE08E
:102B70008CE390E00E94E62727E330E04BE450E04E
:102B800067E97CE089E190E00E94E62780E091E03F
:102B90000E94D32580E091E00E940526C1110E9489
:102BA000B33A1C9910C00E94B33A2FE382E49FE02D
:102BB000215080409040E1F700C000000E94EE28C4
:102BC00080E00E94DA111D990CC02FE382E49FE09F
:102BD000215080409040E1F700C0000081E00E9459
:102BE000DA11C0E017CFCF910895BF92CF92DF9254
:102BF000EF92FF920F931F93CF93DF9300D000D0FB
:102C0000CDB7DEB780E091E00E94052620E030E0FD
:102C100040E050E067E97CE088E091E00E94E62730
:102C20002CE030E040E050E067E97CE08AE091E0B1
:102C30000E94E62728E130E040E050E067E97CE0D0
:102C40008BE091E00E94E62728E130E048E550E083
:102C500067E97CE087E190E00E94E6272BE330E023
:102C600040E050E069E071E089E090E00E94E627F2
:102C700027E330E04AE050E067E97CE08EE090E056
:102C80000E94E62740910006552747FD5095425C7B
:102C90005F4F0CE02DE261E080E090E00E947B3528
:102CA0004AE06AE775E080912105909122050E9433
:102CB0009F5128E130E04EE650E067E97CE00E9459
:102CC000EC45809100068130D9F42CE030E04DE4F1
:102CD00050E067E97CE088E190E00E94E62780917F
:102CE0001C0590911D054AE06AE775E00E949F511E
:102CF0002CE030E04EE650E067E97CE00E94EC45D5
:102D00008091210590912205181619064CF028E1B2
:102D100030E04DE250E067E97CE080E390E031C0D4
:102D2000843691054CF028E130E04DE250E067E94F
:102D30007CE082E390E025C020910606332727FD42
:102D400030958217930749F428E130E04DE250E0D6
:102D500067E97CE081E390E014C0821793074CF4AC
:102D600028E130E04DE250E067E97CE083E390E069
:102D700008C028E130E04DE250E067E97CE084E300
:102D800090E00E94E627809120058111CCC024E2CA
:102D900030E040E050E067E97CE085E890E00E94A8
:102DA000E6270E94AA4E7C0164E670E00E94E4508F
:102DB0008B014AE06AE775E0C8010E949F51AE01AD
:102DC0004F5F5F4F67E97CE00E949D444AE06AE7FD
:102DD00075E0C8010E949F5124E230E04DE250E0CE
:102DE00067E97CE00E94EC452CE920036001219F0B
:102DF000D00C1124CE0CDF1CE980FF24E7FCF094FA
:102E00008DE2E80EF11C24E230E0A70167E97CE0E6
:102E10008CE091E00E94E627AE014F5F5F4F67E9CB
:102E20007CE08AE095E00E949D440981AE014F5FFD
:102E30005F4F67E97CE08CE095E00E949D44B9809B
:102E4000112707FD10958AE0C816D10440F04AE02A
:102E50006AE775E0C6010E949F51A70116C0A7014D
:102E6000400F511F24E230E067E97CE08DE091E003
:102E70000E94E6274AE06AE775E0C6010E949F517A
:102E8000A7014B0D511DB7FC5A95400F511F24E26D
:102E900030E067E97CE00E94EC45809107068130D4
:102EA00009F094C0E12C0AE226E44BE06DE180E0F9
:102EB00091E00E94CF26EE24E39426E44BE06DE1FE
:102EC00080E091E00E94032760917E0870917F0866
:102ED00080918008909181080E949A4F6B017C013B
:102EE0004AE06AE775E0C6010E949F51AE014F5F5C
:102EF0005F4F63E771E00E949D4489819A819695B6
:102F0000879500E410E0081B190B4AE06AE775E0BA
:102F1000C6010E949F5124E130E0A80163E771E0FF
:102F20000E94EC4553C08091200583FF13C025E229
:102F300030E04FE050E069EE73E086E890E00E94F8
:102F4000E62725E230E04FE450E069EE73E08FE0E1
:102F500091E03AC08091200581FF13C025E230E066
:102F60004EE150E069EE73E08BE490E00E94E627CA
:102F700025E230E047E350E069EE73E080E191E064
:102F800023C08091200580FF13C025E230E04BE094
:102F900050E069EE73E089E690E00E94E62725E2C2
:102FA00030E042E550E069EE73E08EE091E00CC065
:102FB0008091200582FF0AC025E230E049E150E01F
:102FC00069EE73E082E190E00E94E62780E091E004
:102FD0000E94D32580E091E00E9405260F900F907B
:102FE0000F900F90DF91CF911F910F91FF90EF9075
:102FF000DF90CF90BF900895AF92BF92CF92DF92B3
:10300000EF92FF920F931F93CF93DF93D090E0073F
:10301000F0900806A090DF071092E00710920806D3
:103020001092DF07D0E0C0E01F9BD2C0C111D2C018
:1030300080E091E00E94052692E0C92E10E061E157
:10304000610FEE24E39408E228E240E080E091E0A2
:103050000E94032786E2B82EB10E20E3210F03E081
:1030600044E16B2D80E091E00E94652628E3210F6A
:1030700069E2610F06E045E180E091E00E9465268B
:1030800001E022E045E16B2D80E091E00E945527B0
:1030900063E3610F24E045E080E091E00E94552762
:1030A000CA9411F014E3CBCF29E330E040E050E0C4
:1030B00069E071E08CE090E00E94E6270E94D54B29
:1030C00080918608909187088033984F3CF08091DA
:1030D000860890918708813D97406CF0D1110BC014
:1030E0002BE230E040E150E069EE73E087E890E0E9
:1030F0000E94E62768C08091860890918708843FE7
:1031000091403CF480918608909187088D309E4FC5
:10311000E4F48091880890918908843F91403CF4C0
:1031200080918808909189088D309E4F74F4809129
:103130008A0890918B08843F91409CF480918A0882
:1031400090918B088D309E4F64F02BE230E049E087
:1031500050E069EE73E088E890E00E94E627D1E055
:1031600032C0809186089091870897FF03C081E064
:103170008093E007809188089091890897FF03C0A9
:1031800081E08093080680918A0890918B0897FFD0
:1031900003C081E08093DF078091860890918708C3
:1031A0001816190684F480918808909189081816D9
:1031B00019064CF480918A0890918B08C1E018168A
:1031C00019060CF0C0E080E091E00E94D3252CCFDE
:1031D000CC2339F12BE230E048E250E069EE73E0B5
:1031E00089E890E00E94E62780E091E00E94D325E4
:1031F00080E091E00E9405268FE794E82EE181505F
:1032000090402040E1F700C00000DF91CF911F9176
:103210000F91FF90EF90DF90CF90BF90AF900C9404
:103220005A19D092E007F0920806A092DF07DF91CA
:10323000CF911F910F91FF90EF90DF90CF90BF90B3
:10324000AF9008950F931F93CF93DF931F92CDB745
:10325000DEB78C0169830E94D4516981861741F0E1
:10326000C8010F90DF91CF911F910F910C94DC5109
:103270000F90DF91CF911F910F910895EF92FF92E0
:103280000F931F93CF93DF93EC018B017A01E80E2C
:10329000F91ECE15DF0539F06991C8010E94221987
:1032A0000F5F1F4FF6CFDF91CF911F910F91FF90CE
:1032B000EF900895F8944FE152E060E070E087ED00
:1032C00095E00E943E19789408952F923F924F9274
:1032D0005F926F927F928F929F92AF92BF92CF92A6
:1032E000DF92EF92FF920F931F93CF93DF93CDB7AF
:1032F000DEB7C554D1400FB6F894DEBF0FBECDBFC8
:1033000040915007CF5BDE4F4883C154D1404AE41F
:1033100050E061E577E089E997E00E948D5129E668
:1033200036E0AE014F5C5E4FCE0101966DE1F901D2
:10333000DC01762F01900D927A95E1F78696235E57
:103340003F4F8417950799F74E0183E1880E911C32
:103350005E0194E1A90EB11C6E01E5E1CE0ED11C17
:10336000CE014696CF5CDE4F99838883C153D1400E
:103370008E01025E1F4FFE017D96C75CDE4FF98312
:10338000E883C953D1400696CD5CDE4F998388838C
:10339000C353D1403297C35CDE4FF983E883CD53EA
:1033A000D1400297C95CDE4F99838883C753D140CF
:1033B0003297C55CDE4FF983E883CB53D140029747
:1033C000CB5CDE4F99838883C553D1407E0197E162
:1033D000E90EF11C3E01E5E06E0E711C81E090E00B
:1033E0008C0F9D1F835B9E4FCE5BDE4F998388833E
:1033F000C254D140FE013196C15CDE4FF983E883AF
:10340000CF53D14082E0582E4424439449E150E008
:10341000B301C80148970E948D51F4013080F50135
:103420002081F6013081CF5CDE4FE881F981C15304
:10343000D1402080F30136FE02C0508201C01082CC
:1034400048E050E0B701C8010196CC5BDE4F28830D
:10345000C454D140CB5BDE4F3883C554D1400E9469
:103460008D5180E090E0CB5BDE4F3881C554D14078
:10347000CC5BDE4F2881C454D140C15CDE4FE88173
:10348000F981CF53D140E80FF91F468D4D3011F42B
:103490004FE0468F02968830910579F7F40130FEAF
:1034A00006C030FF02C0508203C0408201C01082BB
:1034B000F50120FF06C020FE02C0508203C04082FA
:1034C00001C01082F60131FE06C031FF02C05082F9
:1034D00003C0408201C01082CF5CDE4FE881F981D9
:1034E000C153D14021FF06C021FE02C0508203C05B
:1034F000408201C01082F70132FE06C032FF02C0D6
:10350000508203C0408201C01082CB5CDE4FE88154
:10351000F981C553D14022FF06C022FE02C050826D
:1035200003C0408201C01082C55CDE4FE881F98192
:10353000CB53D14033FE06C033FF02C0508203C0DC
:10354000408201C01082C95CDE4FE881F981C75317
:10355000D14023FF06C023FE02C0508203C0408238
:1035600001C01082C35CDE4FE881F981CD53D140A8
:1035700034FE06C034FF02C0508203C0408201C046
:103580001082CD5CDE4FE881F981C353D14024FF26
:1035900006C024FE02C0508203C0408201C01082D7
:1035A000C75CDE4FE881F981C953D14035FE06C0C2
:1035B00035FF02C0508203C0408201C01082F80172
:1035C00025FF06C025FE02C0508203C0408201C014
:1035D0001082C15CDE4F88819981CF53D14086969D
:1035E000C15CDE4F99838883CF53D14096E2890E28
:1035F000911CE6E2AE0EB11CF6E2CF0ED11CCF5C00
:10360000DE4F88819981C153D1408696CF5CDE4FD1
:1036100099838883C153D1400A5D1F4FC75CDE4F39
:10362000E881F981C953D140B696C75CDE4FF98372
:10363000E883C953D140CD5CDE4F88819981C35363
:10364000D1408696CD5CDE4F99838883C353D140A9
:10365000C35CDE4FE881F981CD53D140B696C35C9F
:10366000DE4FF983E883CD53D140C95CDE4F8881BA
:103670009981C753D1408696C95CDE4F9983888370
:10368000C753D140C55CDE4FE881F981CB53D140AF
:10369000B696C55CDE4FF983E883CB53D140CB5C53
:1036A000DE4F88819981C553D1408696CB5CDE4F31
:1036B00099838883C553D14096E2E90EF11CE6E276
:1036C0006E0E711CCE5BDE4F88819981C254D14051
:1036D0000817190709F09ACE8FE291E0FE013196A2
:1036E000A9E6B6E001900D920197E1F7CF5BDE4FBE
:1036F0009881C154D1409093980786E38093D70571
:10370000CB5BDE4F0FB6F894DEBF0FBECDBFDF91AF
:10371000CF911F910F91FF90EF90DF90CF90BF90CE
:10372000AF909F908F907F906F905F904F903F9061
:103730002F900895CF93DF93CDB7DEB72C970FB6B8
:10374000F894DEBF0FBECDBF8091000689838091C3
:1037500064068A83809101068B83809102068C83A4
:10376000809103068D839091E0079E8390910806D7
:103770009F839091040698879091050699872091E0
:1037800068062A87909106069B8739E0FE013196EC
:10379000A0E0B6E001900D923A95E1F7209364061F
:1037A00090936806883019F487E08093040687E3D5
:1037B0008093D7052C960FB6F894DEBF0FBECDBF11
:1037C000DF91CF910895E0916506E73028F4F0E0AD
:1037D000E25FFA4F808101C087E080936506E09147
:1037E0006606E73028F4F0E0E25FFA4F808101C01E
:1037F00087E08093660688E38093D7050895E8E61E
:10380000F6E080818093E007108289E38093D705FA
:103810000895809168068093DF078AE38093D70537
:1038200008950F931F93CF93DF9392E1E9E0F6E0C1
:10383000DF01292F1D922A95E9F7EBE1F6E0DF0180
:103840001D929A95E9F720E331E0E9E6F6E0DF0121
:10385000A9011D9241505040E1F7EDE8F6E0C1EAC0
:10386000D7E009EA17E072E39FE06CE944E69F01C4
:103870002E51310952E3D9017C93285E3F4FD90183
:103880009C932C5F3F4FD9019C9322503109D90161
:103890009C939083699324E6D8014D938D01B6964D
:1038A000B7E0ED3BFB0719F7813061F008F4CEC0BB
:1038B000823009F487C1833009F045C281E08093EA
:1038C000610641C280936106509309069AE0909385
:1038D0000A0690930B0622E020930C0690930D06A7
:1038E00050930F06909310069093110620931206A2
:1038F000909313064CE34093150698E290931606B6
:1039000039E1309317062093180650931A069093C6
:103910001B0663E160931C065EE050931D0623E0E6
:1039200020931E0680931F06909321066093220623
:103930005093230620932406809325064093270660
:10394000909328063093290620932A068EE18093CF
:103950002C06E6E8F6E034E642E021E0DF01549789
:1039600094E63C9311963C9316974C93589681E0BD
:103970002C932083B69657E0EE31F50779F7109235
:103980007506109276062CEE2093770632EE309371
:1039900078063093790668ED60937A0680937D0609
:1039A0008093830680937E068093840680937F06AF
:1039B0008093800620939B0630939C0610929D0670
:1039C00010929E062EE120939F0648E24093A006A7
:1039D0008093A1068093A7068093A2068093A806F1
:1039E0008093A5068093A6061092C1061092C20687
:1039F00054E15093C3062093C4063093C5066093E8
:103A0000C6068093C9068093CF068093CA0680932A
:103A1000D0068093CB068093CC065093E706209384
:103A2000E8061092E9061092EA062093EB0640930E
:103A3000EC068093ED068093F3068093EE06809368
:103A4000F4068093F1068093F206A9C031E030932A
:103A5000610688E2809309069AE090930A069093A3
:103A60000B0622E020930C0690930D0680930F0620
:103A700090931006909311062093120690931306CC
:103A80004CE3409315068093160699E19093170630
:103A90002093180650931A0680931B0673E17093C7
:103AA0001C066EE060931D0653E050931E06309393
:103AB0001F0680932106709322066093230650937D
:103AC000240630932506409327068093280690937A
:103AD000290620932A068EE180932C06E6E8F6E07C
:103AE00024E632E081E0DF01549794E62C931196AE
:103AF0002C9316973C931E968C9316968C93159741
:103B00008C9316968C9315978C9316968C93159789
:103B10008C9316968C9315978C9311968C9315967F
:103B20008C938083B696A7E0EE31FA07E1F62FE09A
:103B30002093750684E18093760641EF40937706E3
:103B40003CEE30937806E8EDE09379067EEC7093D6
:103B50007A0640939B0630939C0640939D063093D3
:103B60009E0668E260939F0652E35093A00640933E
:103B7000C1063093C2062093C3068093C406E09327
:103B8000C5067093C6062093E7068093E806209347
:103B9000E9068093EA066093EB065093EC068BE40B
:103BA00080930F0790931007809333079093340707
:103BB00080935D0790935E078CE9809378079093DC
:103BC0007B07C1C091E09093610638E2309309060B
:103BD0004AE040930A0640930B0680930C064093FC
:103BE0000D0630930F064093100640931106809304
:103BF0001206409313066CE3609315063093160685
:103C000049E1409317068093180650931A063093A3
:103C10001B06E3E1E0931C067EE070931D0653E073
:103C200050931E0690931F0630932106E0932206C0
:103C300070932306509324069093250660932706DD
:103C4000309328064093290680932A064EE140933C
:103C50002C06209372062093730680936D062093A2
:103C6000980620939906809393062093BE0620938E
:103C7000BF068093B906409375063093760661EFD0
:103C8000609377065CEE5093780690937B06909352
:103C9000810690937C069093820680937D068093A4
:103CA000830680937E068093840690938506909386
:103CB000860672EE70939B0678ED70939C06609377
:103CC0009D0650939E069093A1069093A70690930D
:103CD000A2069093A8068093A3068093A9068093DA
:103CE000A4068093AA069093AB069093AC064093EB
:103CF000C3063093C4068093C9068093CF06809391
:103D0000CA068093D0069093D1069093D206109263
:103D1000DF068BE48093EB062093EC069093F1068C
:103D20009093F20680930F07209310078093330738
:103D30002093340780935D0720935E078CE980937E
:103D4000780720937B07DF91CF911F910F91089502
:103D5000CF93DF938FE192E0E7EDF5E0DF019C0187
:103D60001D9221503040E1F78AE38093D70582E02D
:103D70008093000694E09093040621E0209361066E
:103D800080930106909302068093650687E08093F6
:103D9000660693E090936406809367068EE18093B5
:103DA000620682E38093060680E890E09093C8075D
:103DB0008093C70784E280936006E8EFF0E0C8EDE7
:103DC000D5E0A1EBB7E086EA9EE0249129938D939C
:103DD0009D93319631E0E030F307B9F78EEB9AE02E
:103DE0009093B2078093B107EDE8F6E0C1EAD7E01F
:103DF00069EA77E052E32FE04CE934E6CF014E97D1
:103E0000DC015C934896DC012C930496DC012C9336
:103E10000297DC012C9320834993DB013D93BD0184
:103E2000B696B7E0ED3BFB0749F780E00E94111C16
:103E300084E080936806DF91CF910895CF93DF935C
:103E40001F92CDB7DEB74FE152E060E070E087ED42
:103E500095E00E94C4518091D705873381F028F402
:103E6000853349F0863349F012C0893361F048F058
:103E70008A3379F00CC00E9465190E949A1B0E9437
:103E8000E31B0E94FF1B0E94091C81E003C00E94EB
:103E9000A81E80E089830E945A1989810F90DF91C2
:103EA000CF910895CF93DF93CDB7DEB7AC970FB620
:103EB000F894DEBF0FBECDBF0E94D82E23E030E0C5
:103EC0003CA72BA719A618A6B3E0BB2E18E0188EA6
:103ED0001F821F8A1E8A1FA21EA21DA21CA21BA235
:103EE0001AA219A218A21F8E812C912C1A82198253
:103EF0001B8A1A8A198A188A198618861D8E1C8EA2
:103F00001A8E198E1F861E8601E6C02E01E5D02E60
:103F1000E12CF12C1B821C821D821E82212C312C53
:103F2000210131E03A87612C1B8E1B861D861C8681
:103F300000E0809118058F5F80931805809122081A
:103F4000882331F04E895F894F5F5F4F5F8B4E8BC7
:103F50002E853F852C343C4428F1288D2F5F288FF7
:103F60004E895F8950931D0540931C058091010681
:103F7000823011F421E02B8F0E94AA4E20915D0621
:103F800030915E068217930720F4809120058860A7
:103F900003C080912005877F809320051F8A1E8A99
:103FA0001F861E86812F90E08B30910508F072C02D
:103FB000FC01E25CFF4F0C944D5183B1807F803F48
:103FC00041F080916E00816080936E0013E0188E46
:103FD00061C010926E0081E085BB5CC080910708D3
:103FE00081114DC061104BC080911905882309F4DF
:103FF00051C014E051C00E94F51516E01A8E198EBA
:104000004BC01F9B47C015E045C0388D3A3020F0AB
:10401000809107068823B1F11F9B36C0498D5A8DC8
:1040200043315341B8F113E037C080910708811143
:104030002DC061102BC080911905882369F118E00B
:1040400029C00E94F12719E027C08091070881113B
:104050001FC061101DC0809119058823E9F010E090
:1040600019C02998809120058460809320052B98A1
:104070000E942A3A0E948F2E14E0188E0DC014E080
:10408000612C0AC017E006C01AE006C018E001C0A3
:1040900010E0612C712C02C0772473948091190573
:1040A0008823A1F080912005826080932005809173
:1040B0006106813081F48091200582FD0CC08091E1
:1040C00020058460809320052B9805C080912005F1
:1040D0008D7F809320058091200583FD08C080910D
:1040E000200581FD04C08091200580FF06C08091DD
:1040F0001E0584FF02C0299A01C02998809161069B
:10410000813009F09CC080918608909187088134A5
:104110009C4F3CF08091860890918708803C9340AA
:1041200014F1809188089091890881349C4F3CF06B
:104130008091880890918908803C9340A4F08091F8
:104140008A0890918B0881349C4F3CF080918A08BA
:1041500090918B08803C934034F08091820890913C
:104160008308C3971CF0212C312C2101809120055C
:1041700082FF1FC04CE4241634064104510408F4A5
:1041800065C0809186089091870880349C4F0CF020
:104190005DC0809120058B7F809320050E9443297C
:1041A0002B9A0E948F2E80910706811153C010E038
:1041B00051C082EE281684EE38064104510498F06E
:1041C0008091860890918708813C934064F08091AB
:1041D00020058460809320052B9882E00E9486133E
:1041E000212C312C210180911F0580FD0DC0809173
:1041F0006206882349F029813A812C343C4438F006
:104200002F812F5F2F8301C01F821A821982409154
:1042100062065F81252F30E0842F992787FD9095D6
:1042200028173907ECF04E31DCF0809120058460CE
:10423000809320052B9884E00E94861311C0809102
:1042400020058B7F809320052B9A0AC01F821A823B
:10425000198206C01F821A821982212C312C210159
:104260000E94D54B8091820890918308C2975CF49C
:10427000809120058E7F8093200588E1AAE2B8E036
:104280001D928A95E9F780910406880F990BFC012D
:10429000EC57F74F20813181253F314014F022E067
:1042A00006C0208131812D303E4F24F021E0209343
:1042B000D50702C01092D507F3E0BF1629F0209170
:1042C000050638A5321751F1B090D50741E0B41674
:1042D00061F052E0B516B1F0B1101DC01092230587
:1042E000109225051092240516C024E02093230582
:1042F00020910606332727FD30953093250520931E
:10430000240509C029E020932305A4E6B0E0B0937A
:104310002505A09324052091050628A73091D507EF
:104320003E8F31E04E8D4B1101C030E020910506EB
:1043300021111BC0FC01EC57F74F808191818851FE
:104340009C4F97FF02C080E090E00A9664E170E025
:104350000E94F850653671050CF4ACC384E690E019
:104360009093220580932105A9C380912405909103
:1043700025059093220580932105332399F04E8DD6
:10438000842F992787FD9095FC01EE0FFF1FE80F02
:10439000F91FEB0DF11DB7FCFA95E050FF4FE491CA
:1043A000E0932305222349F053EC2503C001112497
:1043B0004A895B898417950718F0332309F4A9C04B
:1043C00080912305811105C01092250510922405C6
:1043D00022C0843031F480910606992787FD90959C
:1043E00004C0893039F484E690E0909325058093E9
:1043F000240511C0813079F480910606992787FD44
:1044000090952091240530912505821793071CF47F
:1044100088E08093230580912305883079F480918A
:104420000606992787FD9095209124053091250552
:10443000281739071CF481E0809323058091230518
:104440008B7F823091F4809124059091250501970E
:1044500090932505809324051816190634F01092C0
:1044600025051092240510922305809123058130A3
:10447000C1F480912405909125050196909325051E
:104480008093240520910606332727FD3095821757
:1044900093073CF0309325052093240584E0809316
:1044A0002305809123058830C1F4809124059091E3
:1044B00025050197909325058093240520910606F4
:1044C000332727FD3095281739073CF03093250511
:1044D0002093240584E080932305809123058B7F1E
:1044E0008330A9F48091240590912505019690933D
:1044F000250580932405843691054CF0A4E6B0E0B0
:10450000B0932505A093240589E0809323051B8A99
:104510001A8A20912305222331F080912105909160
:104520002205009739F48CE0E6E3F8E011928A95D1
:10453000E9F70BC0293019F08436910531F48CE08D
:10454000AAE2B8E01D928A95E9F70E94C7319D8BD7
:104550008C8B88159905B8F480E090E0A1E0B0E07C
:1045600088199909A109B1092C893D89820F931FE6
:10457000A11DB11D2B813C814D815E81280F391F0A
:104580004A1F5B1F0CC08C899D89881999092B8152
:104590003C814D815E81280F391F411D511D2B83A8
:1045A0003C834D835E838091B2003BA1831B280E28
:1045B000311C411C511C4091B2004BA38091B200B0
:1045C0002EA1821B48895989480F511D598B488B50
:1045D0002091B2002EA38091B2003DA1831B48859B
:1045E0005985480F511D598748872091B2002DA346
:1045F0008091B2003F8D831B4A895B89480F511D12
:104600005B8B4A8B2091B2002F8F8091B20038A132
:10461000831B4E855F85480F511D5F874E87209114
:10462000B20028A38091B20039A1831B498D5A8D15
:10463000480F511D5A8F498F2091B20029A38091B4
:10464000B2003AA1831B49815A81480F511D5A83F8
:1046500049832091B2002AA38091B2003CA1831B20
:104660004C8D5D8D480F511D5D8F4C8F2091B20098
:104670002CA380911E0553FF02C0806101C08F7E74
:1046800080931E05488959894D32514020F0198A7E
:10469000188A21E02B87488559854632564290F08A
:1046A0008091190581110BC080916106813039F428
:1046B0008091200582FD03C083E00E94861381E083
:1046C000809319050E94C1280E9476110E94C7316B
:1046D00016BC20911A0530911B0520911A053091C6
:1046E0001B05AC01421B530B90931B0580931A05CD
:1046F00080910A0890910B0860E070E0029718F42E
:104700004A015B0111C080900A0890900B08A12C0F
:10471000B12CEFE0880C991CAA1CBB1CEA95D1F7C0
:10472000840E951EA61EB71E10920B0810920A0842
:10473000C501B4010E94B12CC501B4010E942146FB
:1047400080910708882309F4C0C080910106823057
:1047500064F421E02A872B813C814D815E81243CD9
:10476000324A4105510508F41A8601110EC0823003
:1047700009F0A8C1809125089091260821E02A8798
:10478000843C924A40F41A8639C0823009F09AC1BA
:104790004A85442399F158ECC5165BE4D506E1043B
:1047A000F10408F09DC186E2C8168FE3D806E10443
:1047B000F10408F098C191E2C91696E3D906E10424
:1047C000F10408F093C1ADE5CA16AFE2DA06E104E0
:1047D000F10408F07AC1BCECCB16B9E2DB06E104C7
:1047E000F10408F075C101E0E4EECE16E5E2DE0664
:1047F000E104F10470F52AE030E02DC03DECC31671
:1048000036E4D306E104F10408F065C144EAC416B5
:1048100048E3D406E104F10408F062C153E3C5168D
:104820005FE2D506E104F10408F05DC185E7C81632
:1048300088E2D806E104F10408F058C101E096E6E8
:10484000C91693E2D906E104F10440F428E030E00F
:1048500002C029E030E03CA72BA704C047E050E0AD
:104860005CA74BA7109219050E94C7319D8B8C8BBA
:10487000809101068230C1F40023B1F02B8D21110B
:104880001AC080910708882311F06624639410925F
:1048900007080E949934198618861B821C821D8283
:1048A0001E821D861C8611C0198618861B821C82DA
:1048B0001D821E820AC0198618861B821C821D82D8
:1048C0001E821B8E31E03C8700E080910708811139
:1048D00008C080910106823009F0C9C04C854111A1
:1048E000A8C080910708882321F010920708662449
:1048F000639490910106EDE6F6E020E030E080E080
:10490000923029F44081442309F4F6C00BC0913061
:1049100039F44081411106C04A8541110FC0ECC0F5
:10492000191624F4408114164CF010C091110EC0D9
:104930004A85411103C04B85442341F041E050E0DA
:10494000022E01C0440F0A94EAF7842B2F5F3F4FD9
:10495000B69628303105A1F62B85222311F0198A4D
:10496000188A4BA55CA54130510519F5923009F51F
:104970005DE8851650E29506A104B10490F075013A
:10498000640192E6891691E59906A104B10430F01C
:1049900031E6C32E31E5D32EE12CF12C21E02C871A
:1049A00008C02DE8C22E20E2D22EE12CF12C31E0FD
:1049B0003C878AA70E94F9480E945C3F0E94FC3E07
:1049C000909119058AA5911109C07720F9F08BEE15
:1049D0009CE20197F1F700C000001AC0EDE6F6E096
:1049E00020E030E09081923051F4D901AA0FBB1F32
:1049F000AA56B74F4CE454E011965C934E932F5F48
:104A00003F4FB6962830310569F7DFCF0E94BF4C83
:104A100080910106823049F42BA53CA5121613069D
:104A200024F4215031093CA72BA7109218051B86AE
:104A30001EC0002381F13D85332309F461C08091BC
:104A40001905811114C080E090E020910708211120
:104A50000EC0853231E0930750F42091B2004FA18F
:104A6000241B820F911D2091B2002FA3EECF4BA5E6
:104A70005CA5141615067CF0002369F02D85211124
:104A80000AC080910106823029F40E94AC3431E0E2
:104A90003D8701C01D868091200549A5481719F062
:104AA000111101C017E02091200529A7BE8C8C8828
:104AB0009D883FCA709322056093210585E080930D
:104AC00023055BCC41E050E0CBCE47E050E005C091
:104AD00028E030E00DC043E050E05CA74BA70AC0DF
:104AE00024E030E005C045E050E0F7CF26E030E0BC
:104AF0003CA72BA701E0B6CE4B8541111FCF12CFAB
:104B00002BA53CA51216130634F2BBCF0F931F93AF
:104B1000CF93DF93C7E0D0E0082F10E05C98C80186
:104B20000C2E02C0959587950A94E2F780FF02C08B
:104B3000599A01C059985C9A0E94740F219770F796
:104B4000DF91CF911F910F9108955F980C94862566
:104B50005F9A0C948625CF93C82F81E80E94A525E3
:104B60008C2FCF910C94A525CF93DF935D985E9801
:104B700087E893E10197F1F700C000005E9AC8E66C
:104B8000D0E1FE0184910E94A5252196F0E1C6376F
:104B9000DF07B9F7809160060E94AB2588ECDF91B2
:104BA000CF910C94A525DF92EF92FF920F931F9364
:104BB000CF93DF93C6E7D0E18C01FE018491806B37
:104BC0000E94A52580E00E94A52580E10E94A525E0
:104BD00080EE0E94A5257801D12CF70181917F01FB
:104BE0000E94A825D394F0E8DF12F7CF2196005851
:104BF0001F4F80E1CE37D80701F7DF91CF911F918A
:104C00000F91FF90EF90DF90089520E034E0FC01D9
:104C1000A901119241505040E1F70895CF93DF93DD
:104C2000D0E08D2F806B0E94A525C0E08C2F8F7067
:104C30000E94A5258C2F82958F7080610E94A525EA
:104C400080E00E94A825CF5FC03881F7DF5FD830B1
:104C500041F7DF91CF91089567FD36C04034A0F54C
:104C6000342F369536953695E62FF0E050E0222326
:104C7000A9F020E8329FE00DF11D1124E80FF91F83
:104C8000409550954770552781E090E0042E01C073
:104C9000880F0A94EAF79081982B15C020E8329F7C
:104CA000E00DF11D1124E80FF91F40955095477054
:104CB000552781E090E0042E01C0880F0A94EAF79E
:104CC000809590819823908308959F92AF92BF9290
:104CD000CF92DF92EF92FF920F931F93CF93DF93C8
:104CE000EC01162FF42ED22EA02FB0E0A41BB10998
:104CF000B7FF03C0B195A195B109ED2DF0E0E11B1F
:104D0000F109F7FF03C0F195E195F109BB24B394D4
:104D1000EA17FB0714F0B12C06C08D2DD02E082FFA
:104D2000812F1F2DF82ED11630F48F2DF02E082F45
:104D3000812F1D2DD82EAD2CA11AE02FF0E0EF19F8
:104D4000F109F7FF03C0F195E195F1099E2ECA2CF8
:104D5000C694F01610F401E010C00FEF0EC02E2D17
:104D6000BB2071F0412F6F2DCE010E942C26C91857
:104D7000C7FE02C0F00ECA0C1F5F1D1580F303C0F2
:104D80004F2D612FF1CFDF91CF911F910F91FF90A8
:104D9000EF90DF90CF90BF90AF909F900895AF922B
:104DA000BF92CF92DF92EF92FF920F931F93CF9318
:104DB000DF936C01A42EF62EC22FD0E0C60FD11DBA
:104DC00010E0040F111D8F2D90E08C179D0784F4C7
:104DD000BA2C8B2D90E08017910744F42E2D4B2D8B
:104DE0006F2DC6010E942C26B394F3CFF394EBCF22
:104DF000DF91CF911F910F91FF90EF90DF90CF90B7
:104E0000BF90AF9008959F92AF92BF92CF92DF92E2
:104E1000EF92FF920F931F93CF93DF93EC01F62E47
:104E2000B42E922E162FC22ED12CC60ED11CAA241F
:104E3000AA94A00EA40E812F90E08C159D0574F409
:104E40002E2D4B2D612FCE010E942C262E2D4A2D6A
:104E5000612FCE010E942C261F5FEDCFDB2C10E0CE
:104E60000B0D111DCC24CA94C90CCF0C8D2D90E0D4
:104E70008017910774F42E2D4D2D6F2DCE010E94B9
:104E80002C262E2D4D2D6C2DCE010E942C26D39438
:104E9000EDCFDF91CF911F910F91FF90EF90DF90B9
:104EA000CF90BF90AF909F9008954F925F926F9276
:104EB0007F928F929F92AF92BF92CF92DF92EF92AA
:104EC000FF920F931F93CF93DF93EC01962EA42EA6
:104ED000BB24B394B21A822E8194880C122F742EA4
:104EE000721AE42EF12C6701C20ED11C872D99276E
:104EF00087FD9095C816D90644F0202F472D692DBF
:104F0000CE010E942C267394F1CF712C71160CF0F7
:104F10004CC0B7FC04C0115083948394B80C7394B4
:104F2000872D880F8F5FB80E6A2C611A6701C10E3A
:104F3000D11C17FDDA94472C490C592C5718862D93
:104F4000992787FD9095C816D90674F0202F462D15
:104F5000642DCE010E942C26202F462D652DCE01DA
:104F60000E942C266394EBCF6A2C67186701C70C4C
:104F7000D11C77FCDA94412E490C592C511A862DFC
:104F8000992787FD9095C816D9060CF4BFCF202F1E
:104F9000462D642DCE010E942C26202F462D652DF6
:104FA000CE010E942C266394EACFDF91CF911F910E
:104FB0000F91FF90EF90DF90CF90BF90AF909F90B8
:104FC0008F907F906F905F904F900895880F991FFA
:104FD00082589F4EFC01859194910C94BE450C948F
:104FE000BE4580E091E00E94052623E030E049E2E2
:104FF00050E069EE73E089E790E00E94E62727E140
:1050000030E048E150E069EE73E08AE790E00E940A
:10501000E6278091200583FF13C02BE230E04CE0AF
:1050200050E069EE73E086E890E00E94E6272BE20C
:1050300030E040E550E069EE73E086E790E041C083
:105040008091200581FF13C02BE230E04CE150E05D
:1050500069EE73E08BE490E00E94E6272BE230E0FB
:1050600046E350E069EE73E08CE490E02AC0809162
:10507000200580FF13C02BE230E04AE050E069EEEB
:1050800073E089E690E00E94E6272BE230E041E5FC
:1050900050E069EE73E087E390E013C08091200553
:1050A0002BE230E082FF07C044E150E069EE73E09C
:1050B0008BE890E006C04CE150E069EE73E08AE8CE
:1050C00090E00E94E62780E091E00C94D325CF93F6
:1050D000DF9300D000D000D0CDB7DEB726E0AE0120
:1050E0004F5F5F4F63E480ED0E94502A898190E01A
:1050F000982F88272A81820F911D90939C05809379
:105100009B058B8190E0982F88272C81820F911D21
:1051100090939A05809399058D8190E0982F882728
:105120002E81820F911D90939E0580939D05209165
:105130005F06A3E9B5E083E028029001112480E036
:1051400090E02F5B344EF901E80FF91FE491EE0F68
:10515000FF0BE756FA4F4081518164E05595479522
:105160006A95E1F74D935D9301968330910559F768
:1051700026960FB6F894DEBF0FBECDBFDF91CF915C
:1051800008951F93CF93DF930E94672820915F06B5
:10519000CDECD7E0A3E9B5E083E02802900111242B
:1051A00080E090E0215D344E69917991F901E80F3A
:1051B000F91F14914D915C911197461B570B1403E5
:1051C000B001159F700D11246D937D93019683306E
:1051D000910551F7DF91CF911F910895CF9386E00C
:1051E000EDECF7E0DF011D928A95E9F7C0E20E943D
:1051F00067284091CD075091CE07809193059091FB
:105200009405480F591F5093CE074093CD07209126
:10521000CF073091D0078091950590919605280F82
:10522000391F3093D0072093CF078091D1079091F9
:10523000D2076091970570919805860F971F9093FC
:10524000D2078093D107C15091F6A5E055954795B7
:10525000AA95E1F75093CE074093CD07B5E0359579
:105260002795BA95E1F73093D0072093CF07C5E093
:1052700095958795CA95E1F79093D2078093D107CA
:10528000CF910C945A192F923F924F925F926F9246
:105290007F928F929F92AF92BF92CF92DF92EF92C6
:1052A000FF920F931F93CF93DF93CDB7DEB7659730
:1052B0000FB6F894DEBF0FBECDBF1E861D86188ABE
:1052C0001F861A8A198A0E94EE286091CD07709174
:1052D000CE07882777FD8095982F0E94CD4F698350
:1052E0007A838B839C836091CF077091D007882746
:1052F00077FD8095982F0E94CD4F6D837E838F839D
:1053000098876091D1077091D207882777FD8095A3
:10531000982F0E94CD4F69877A878B879C871D8A3B
:105320001B8AE12CF12C00E010E08091B2009D89F5
:10533000891BE80EF11CE091B200ED8BFCE4EF1646
:10534000FF0628F08B898F5F8B8BE12CF12C0E945C
:105350006728FE0131966F0183E9282E85E0382EFB
:10536000CE010D965C011C8AF101819091901F0184
:1053700020E030EC49E754E4F601608171818281DC
:1053800093810E9481502B013C01B401882777FD55
:105390008095982F0E94CD4F9B01AC01C301B201B3
:1053A0000E94CA4E20E030E04AE754E40E94324FA7
:1053B000F60160837183828393830E949A4FF50183
:1053C000208131812617370711F000E010E0F50148
:1053D000619371935F01FC89FF5FFC8B84E0C80ED1
:1053E000D11CF33009F60F5F1F4F093C110520F067
:1053F0000E94EE2881E001C080E0E7E8F3E1319708
:10540000F1F700C00000811104C0FB89F63008F4F8
:105410008CCF65960FB6F894DEBF0FBECDBFDF917F
:10542000CF911F910F91FF90EF90DF90CF90BF90A1
:10543000AF909F908F907F906F905F904F903F9034
:105440002F90089541E06BE680ED0E94392A40E4F8
:1054500067E380ED0E94392A46E080916406481B8C
:105460006AE180ED0E94392A48E16BE180ED0C94FD
:10547000392ACF93DF9300D0CDB7DEB74A83698353
:105480000E949D4D6981862F0E94ED4D4A81842F97
:105490000E94ED4D0F900F90DF91CF910C94DE4D57
:1054A000CF92DF92EF92FF920F931F93CF93DF93F0
:1054B00000D01F92CDB7DEB7182FE22E4A835B8350
:1054C00069830E949D4D6981862F0E94ED4D81E088
:1054D000810F0E94DC4D4A81C42E5B81D52E00E0F5
:1054E00010E0F12C0E151F0584F40F5F1F4F0E15F1
:1054F0001F0519F00E940D4E02C00E94264EF601B3
:105500008083FFEFCF1ADF0AEDCF0F900F900F903F
:10551000DF91CF911F910F91FF90EF90DF90CF908F
:105520000C94DE4D4F925F926F927F928F929F927A
:10553000AF92BF92CF92DF92EF92FF92CF93DF9321
:10554000CDB7DEB728970FB6F894DEBF0FBECDBF3C
:105550006B017C018090CF059090D005A090D10583
:10556000B090D2059B01AC010E94815020E030E058
:1055700040E05FE30E9481509B01AC0160E070E07D
:1055800080E89FE30E94C94E69837A838B839C8362
:105590004090D3055090D4056090D5057090D60505
:1055A0009B01AC01C501B4010E9481506D837E83D3
:1055B0008F839887A7019601C301B2010E94815091
:1055C0009B01AC016D817E818F8198850E94C94EBF
:1055D0006093BB057093BC058093BD059093BE0599
:1055E000A7019601C501B4010E9481506B017C01A5
:1055F00029813A814B815C81C301B2010E948150B3
:105600009B01AC01C701B6010E94CA4E60939F0581
:105610007093A0058093A1059093A20528960FB6DC
:10562000F894DEBF0FBECDBFDF91CF91FF90EF901A
:10563000DF90CF90BF90AF909F908F907F906F90B2
:105640005F904F900895CF92DF92EF92FF926901A1
:105650007A0125EF31EA4BE85CE30E948150A70113
:1056600096010E9481506B017C0126EA3AE046E8EF
:105670005EE30E947D5018169CF026EA3AE046E868
:105680005EEBC701B6010E942E4F87FF11C086EA6C
:10569000C82E8AE0D82E86E8E82E8EEBF82E08C0B9
:1056A00096EAC92E9AE0D92E96E8E92E9EE3F92EC5
:1056B000C701B601FF90EF90DF90CF9008958F92D1
:1056C0009F92AF92BF92CF92DF92EF92FF920F9391
:1056D0001F936B017C016091AF057091B0058091C3
:1056E000B1059091B205A70196010E94232B00916C
:1056F0002605109127052091280530912905009352
:10570000CF051093D0052093D1053093D205009199
:1057100000051091010520910205309103050093C9
:10572000D3051093D4052093D5053093D6050E9458
:10573000922A8091BB059091BC05A091BD05B091C6
:10574000BE058093260590932705A0932805B09366
:10575000290580909F059090A005A090A105B0908C
:10576000A2058092000590920105A0920205B092D8
:1057700003056091B3057091B4058091B5059091D2
:10578000B605A70196010E94232B00912A051091CE
:105790002B0520912C0530912D050093CF051093FA
:1057A000D0052093D1053093D2058092D3059092F5
:1057B000D405A092D505B092D6050E94922A809079
:1057C000BB059090BC05A090BD05B090BE05809231
:1057D0002A0590922B05A0922C05B0922D05809160
:1057E0009F059091A005A091A105B091A20580937D
:1057F000000590930105A0930205B0930305609105
:10580000970570919805882777FD8095982F0E94BD
:10581000CD4FA70196010E94232B8092CF05909235
:10582000D005A092D105B092D205C0902605D090A7
:105830002705E0902805F0902905C092D305D09265
:10584000D405E092D505F092D6050E94922A809167
:10585000BB059091BC05A091BD05B091BE0580939C
:105860002A0590932B05A0932C05B0932D058091CC
:105870009F059091A005A091A105B091A2058093EC
:10588000260590932705A0932805B09329051F911D
:105890000F91FF90EF90DF90CF90BF90AF909F90CF
:1058A0008F900895CF92DF92EF92FF9220E030E048
:1058B00044EB52E40E9481506B017C0120E030E017
:1058C000A9016091000570910105809102059091F8
:1058D00003050E942E4F87FF18C020E030E0A90189
:1058E000C701B6010E947D50A701960118162CF43D
:1058F00060E070E084E393E404C060E070E084E37F
:1059000093EC0E94C94E6B017C01C701B601FF9068
:10591000EF90DF90CF90089560912A0570912B054C
:1059200080912C0590912D050E94522C6093CB05FF
:105930007093CC058093CD059093CE05609126059C
:105940007091270580912805909129050E94522C7D
:105950006093A3057093A4058093A5059093A60575
:1059600008954F925F926F927F928F929F92AF9223
:10597000BF92CF92DF92EF92FF920F931F93CF933C
:10598000DF93CDB7DEB760970FB6F894DEBF0FBEDA
:10599000CDBF0E94CB4F69837A838B839C8320E8A1
:1059A00036E948E15AE40E94324F6D877E878F873F
:1059B000988B8091010660916506823039F084E011
:1059C0006802B00111246D58744E06C094E069025B
:1059D000B00111246D5A744E44E050E0CE0101969E
:1059E0000E94845150906506C980DA80EB80FC806B
:1059F0002EE4622E25E0722E0FEB15E0D3016D919F
:105A00007D913D01882777FD8095982F0E94CD4F8D
:105A10004B015C01B7E05B16F1F020E030E040E8BC
:105A20005FE3C701B6010E94C94EF80120813181B0
:105A3000428153810E948150A50194010E94C94E68
:105A4000A70196010E94324FD8016D937D938D93EB
:105A50009C93139709C0B7FAB094B7F8B094F801C3
:105A600080829182A282B3820C5F1F4FF4E56F1691
:105A7000F5E07F0619F623EC35EF48E25FE360912D
:105A8000BF057091C0058091C1059091C2050E942B
:105A900081506D837E838F8398876093A705709371
:105AA000A8058093A9059093AA0523EC35EF48E259
:105AB0005FE36091C3057091C4058091C505909125
:105AC000C6050E94815069877A878B879C8760937F
:105AD000AB057093AC058093AD059093AE056091D6
