:100000000C94400D0C94322B0C94FA2A0C94E52B92
:100010000C94660D0C94A42B0C94660D0C946B2B15
:100020000C94660D0C94660D0C94660D0C94660D84
:100030000C94660D0C94660D0C94660D0C94660D74
:100040000C94660D0C94660D0C94E32A0C94660DCA
:100050000C94A12C0C94660D0C94660D0C94660DFA
:100060000C94660D0C94660D0C94660D0C94660D44
:100070000C94660D0C94660D0C94660D07330933D1
:100080000C330E33103312331433163319331B333E
:100090001D331F3321332333253327332A332C33A6
:1000A0002E33FFFF01FF01FF01FFFF010101FF01EF
:1000B00001FFFFFF00010202000100010200010236
:1000C000010002000201010200030405060700010D
:1000D00002030405060705020601050803070501DA
:1000E0000241050D000F002200330044004F0901BA
:1000F00000030007000F001F000F000700030001AE
:1001000000081C001C001C001C007F003E001C009E
:1001100008000808001C003E007F001C001C001C9A
:10012000001C0005FF01FE007C00380010000D409F
:10013000006000700078007C007E007F007E007C04
:100140000078007000600040000102205B1300BBDB
:1001500000C500CC00CC00CC00CC0103010301039E
:1001600001160129012901290136014901500150D7
:10017000016F018801A401C001DF01FB021A0236F0
:1001800002550274027B027B027B027B027B02949B
:10019000029402BC02DB02FD0322033E035A0382E7
:1001A00003A103B403CA03EC0408042D044C047433
:1001B000048D04B504D704F9051E053D05650599B0
:1001C00005BB05E006020602061B061B061B061BF6
:1001D000061B063406500669068506A106B406D03D
:1001E00006E906F00700071C0723074E0767078686
:1001F00007A207BE07D107EA07FD08160832085D07
:10020000087908950300000000000000000002FECD
:100210006700FE670012780000FE01000201000284
:100220000100020100FE4100787000001C00000780
:1002300000E000003800000E1E00827F00804000B9
:10024000804000804000807F00001E0006C01F002C
:10025000F8FF003CE0010700070300060100040668
:100260000100040300060700073CE001F8FF00C09E
:100270001F000400000300F00300700000100006DF
:10028000000300000300000300000300000300005F
:100290000300020070000070000AF00F00FC3F0035
:1002A0000C30000660000660000660000660000C6E
:1002B0003000FC3F00F00F000818600018600018C4
:1002C0006000FE7F00FE7F000060000060000060B4
:1002D00000090C7000067800066C000666000663D4
:1002E000008E6100FC6000786000006000090C3046
:1002F000000660000660008661008661008661007D
:10030000CE73007C3F00381E000A00070080070003
:10031000C00700F006003806001C0600FE7F00FE45
:100320007F0000060000060009003000FE6000FEAD
:100330006000C66000C66000C66000C63100863F2F
:1003400000060F000AE00F00F03F009C3000CC6078
:1003500000C66000C66000C66000C63100863F006F
:10036000000F0009060000064000067000067C0031
:10037000060F00C60300F600003E00000E00000A53
:10038000381E007C3F00CE7100C66000C66000864B
:1003900061008661004E73007C3F00381E000AF049
:1003A0000000FC61008C63000663000663000663C6
:1003B000000633000C3900FC1F00F00700027070CB
:1003C00000707000080C0000060000066700066759
:1003D00000860100CE0000FC00003800000D004047
:1003E00000007800003F00C00700F806003E06004D
:1003F0000606003E0600F80600C00700003F0000A9
:1004000078000040000AFE7F00FE7F0086610086C3
:100410006100866100866100C661007C73003C3F1C
:1004200000001E000BE00700F81F001C38000C3015
:1004300000066000066000066000066000066000BE
:100440000620000C30000CFE7F00FE7F00066000DE
:100450000660000660000660000660000E70000C7A
:100460003000381C00F80F00E0070009FE7F00FE96
:100470007F00C66000C66000C66000C66000C6603F
:1004800000C66000C6600009FE7F00FE7F00860196
:1004900000860100860100860100860100860100B9
:1004A0000600000DE00700F81F003C3C000C300087
:1004B0000E7000066000066000066300066300061A
:1004C00063000663000C3F000C3F000AFE7F00FE45
:1004D0007F00C00000C00000C00000C00000C000DD
:1004E00000C00000FE7F00FE7F0006066000066080
:1004F00000FE7F00FE7F00066000066000070060CF
:1005000000006000066000066000067000FE3F000C
:10051000FE1F000BFE7F00FE7F00800300C0010075
:10052000E00300700700381C001C38000E70000645
:10053000600002400009FE7F00FE7F0000600000B6
:10054000600000600000600000600000600000606B
:10055000000CFE7F00FE7F000E0000380000E0016E
:1005600000800700000700E001003800000E0000D6
:10057000FE7F00FE7F000AFE7F00FE7F000E00006F
:100580003C0000E00000800300001E00007800FE38
:100590007F00FE7F000DE00700F81F001C38000CF4
:1005A000300006600006600006600006600006601D
:1005B000000C30001C3800F81F00E0070008FE7F28
:1005C00000FE7F000603000603000603008E030002
:1005D000FC0100F800000DE00700F81F001C3800C7
:1005E0000C300006600006600006600006E00106B0
:1005F000E0030C30071C3806F81F06E007060BFE68
:100600007F00FE7F008601008601008601008607CC
:1006100000CE0E00FC1C007870000060000040005E
:100620000B783000FC7000CE6000866100866100AF
:100630008661008661008661000633000C3F000081
:100640001E000C0600000600000600000600000662
:100650000000FE7F00FE7F0006000006000006008E
:10066000000600000600000AFE0F00FE3F000070BA
:10067000000060000060000060000060000070008A
:10068000FE3F00FE0F000D0200001E0000FC0000F7
:10069000E00300801F00007C00006000007C008000
:1006A0001F00E00300FC00001E0000020000110615
:1006B00000007E0000F80700803F00007800007C0A
:1006C00000C00F007E00000600007E0000E0070072
:1006D000007E00007000807F00F807007E000006AA
:1006E00000000B0240000660001E7800381C00E08D
:1006F0000700800100E00700381E001E7800066039
:10070000000240000C0200000600001E00007800FD
:1007100000E00000C07F00C07F00E0000078000023
:100720001E00000600000200000B067000067800A4
:10073000067C00066E00066700C66300E660007671
:1007400060003E60001E60000E6000080300001F95
:100750000000FE0000F00700803F0000FC0100E008
:100760000300000308003C00307E00306700306367
:1007700000306300303300E07F00E07F0009FF7F3E
:1007800000FF7F00602000306000306000306000BB
:10079000707000E03F00C00F0008800F00E03F00D5
:1007A0006030003060003060003060003060006019
:1007B000300009801F00E03F0070700030600030A2
:1007C0006000306000303000FF7F00FF7F00098054
:1007D0000F00E03F0060330030630030630030639F
:1007E00000706300E06300C0330006300000FE7F4D
:1007F00000FF7F0033000033000003000009801F6A
:1008000000E03F067070063060063060063060061B
:10081000303007F0FF03F0FF0108FF7F00FF7F008B
:10082000600000300000300000300000F07F00E089
:100830007F0002F67F00F67F00050000063000060C
:10084000300006F6FF07F6FF0309FF7F00FF7F0079
:10085000000600000700800F00C0380070700030F4
:10086000600010400002FF7F00FF7F000EF07F005D
:10087000F07F00600000300000300000300000F029
:100880007F00E07F0060000030000030000030009A
:1008900000F07F00E07F0008F07F00F07F00600044
:1008A00000300000300000300000F07F00E07F00EA
:1008B0000A800F00E03F00603000306000306000D0
:1008C000306000306000603000E03F00800F0009C1
:1008D000F0FF07F0FF07606000306000306000301C
:1008E0006000707000E03F00C00F0009801F00E052
:1008F0003F007070003060003060003060003030C9
:1009000000F0FF07F0FF0706F07F00F07F006000B7
:100910000030000030000030000008C03100E0630B
:1009200000306300306300306600306600303E0007
:10093000601C0006300000FE3F00FE7F00306000BB
:1009400030600030600008F01F00F07F00006000A1
:10095000006000006000003000F07F00F07F0009C0
:10096000100000F00000E00700003E000060000002
:100970003E00E00700F000001000000E300000F024
:100980000300C03F00007800007C00800700F000FA
:1009900000F00000C00700003C00007000C03F00F5
:1009A000F0030030000009104000306000F07800D3
:1009B000C01D00000700C01D00F07800306000106E
:1009C000400009100000F00000E0070600BF07002B
:1009D000F001003F00E00700F000001000000830C8
:1009E0007000307800307C00306600306300F061C9
:1009F00000F060007060000102205B0B00BB00BED5
:100A000000C100C100C100C100D600D600D600DD83
:100A100000E400E400E400E900F000F300F300FE6D
:100A200001090114011F012C01370142014D015838
:100A3000016301660166016601660166016F016F6F
:100A4000017C0189019801A701B201BD01CC01D946
:100A500001E001E901F602010210021D022C023739
:100A6000024602530260026F027C0289029C02A9C4
:100A700002B802C502C502C502C502C502C502C54B
:100A800002D002DB02E602F102FC03050310031BA5
:100A9000031E03250330033303460351035C03673E
:100AA0000372037B0384038D039803A303B203BD86
:100AB00003C8010000017E010A0C00120012008C24
:100AC0000160001800C60020012001C00003F800EA
:100AD000060301040301040603F800020004800376
:100AE0000320002000200001800105FC000201021B
:100AF000010201FC000504010401FE0100010001E6
:100B00000584014201220112010C01058400020149
:100B100012011201EC00066000500048004400FE83
:100B2000014000059E00120112011201E20005F8C9
:100B300000140112011201E00005020082016200AE
:100B40001A00060005EC00120112011201EC00056A
:100B50001C0022012201A2007C0001980104020075
:100B6000620112000C0006C00178004600460078C1
:100B700000C00106FE011201120112011C01E00079
:100B800007780084000201020102010201840007CB
:100B9000FE0102010201020102018400780005FE4B
:100BA00001120112011201120105FE0112001200D0
:100BB00012000200077800840002010201220122D3
:100BC00001E40006FE011000100010001000FE01FC
:100BD000030201FE01020104000102010201FE0004
:100BE00006FE012000300048008400020105FE01DD
:100BF000000100010001000107FE0106001800606D
:100C00000018000600FE0106FE0106001800600044
:100C10008001FE01077800840002010201020184C4
:100C200000780005FE012200220022001C00077847
:100C30000084000201020102038404780406FE011C
:100C40002200220062009C000001068C00120112AA
:100C50000122012201C40007020002000200FE017D
:100C600002000200020006FE000001000100010077
:100C700001FE00060E0070008001800170000E0071
:100C8000090600780080017800060078008001786D
:100C9000000600068601480030003000480086014A
:100CA00007020004000800F001080004000200062A
:100CB00082014201220112010A01060105C0002839
:100CC0000128012801F00105FF01080108010801C0
:100CD000F00005F000080108010801900005F0008F
:100CE000080108010801FF0105F00028012801287A
:100CF00001B000040800FE010900090005F0000829
:100D00000508050805F80305FF01080008000800AC
:100D1000F00101F9010300040804F90305FF014093
:100D20000060009000080101FF0109F801080008B7
:100D3000000800F001080008000800F00105F801B3
:100D4000080008000800F00105F00008010801088B
:100D500001F00005F807080108010801F00005F09E
:100D600000080108010801F80704F8011000080054
:100D7000080004300128014801C800040800FE00F2
:100D80000801080105F800000100010001F8010553
:100D90001800600080016000180007780080016082
:100DA00000180060008001780005080190006000D4
:100DB000900008010508007004800370000800041A
:100DC0008801480128011801AF40A0A6A4A2EEC8DE
:100DD0002F24AC00F80007060504030201001B15D0
:100DE0000E1009100410FF0FFA0F13101310131038
:100DF00074176C17721770176E17671762175D17E5
:100E000058176F118F118A118411B6147E17761737
:100E1000EA1507160216FC15F815F4151310D5116E
:100E2000CC11DD11C511C01123101E1019101410A2
:100E300033102D1027105C105410091201121A14CF
:100E4000151412140814FE13131013104F10F4117C
:100E5000EF11E6114511EF153911A514A1149B14DA
:100E60009214131013101B15181574107B106A10B0
:100E7000131013109C1195114D173B1728171617B7
:100E80000017F116DD16C916BB16AC169D168E1688
:100E90007F167016611652163E1625160C16131084
:100EA000131023101E101910451014104A10AC1105
:100EB000DD11D511CC11C511C011BB11B611B11185
:100EC000AC11A5119F1189148214781162104F1072
:100ED0000111F5101310B210A910A0109C1093105E
:100EE0008B1013101310131083177C111A110C118F
:100EF0000711ED10E210131084107B101310131063
:100F000013100216FC15F8150F150515FA14EB143D
:100F1000DD14CE14C114B614AA1475146B14631422
:100F200056141D144C14421438142C143810131079
:100F30001310D615CE15C015B315A5159A15911514
:100F4000881579156B155C15501549154215351521
:100F500029151F15DE1513101310F613EB13DA13F2
:100F6000CD13C213B213A21393138313731363131A
:100F7000531343133313251317130813F912EC12E9
:100F8000DF12D312C712BB12AE12A4129A128D1224
:100F9000821275126A125D12821250126A121310B6
:100FA000131009120112FB111310DD10D810D31009
:100FB000CE10C910C410BF10BA10DD11D511CC115C
:100FC000C511C011BB11B611B11147123D12351236
:100FD0002D1224121B121112AC1109120112FB1155
:100FE000131013103011271165115F1153119F1742
:100FF00099170F1590178E178C17332E395600330B
:101000002E385600332E375600332E365600332EE8
:10101000355600003434487A003231487A00313095
:10102000487A0035487A00323630487A0031383410
:10103000487A003934487A004D50553630353020E2
:101040004C50463A003332487A003734487A0048E8
:101050006967680041726D61626C650041726D651F
:10106000640053796E632052430052657653636186
:101070006C6564005363616C6564005265766572EB
:10108000736564004E6F726D616C005069746368C3
:101090005570005369646577617973004166740027
:1010A000496E766572746564005665727469636131
:1010B0006C00466F7277617264004F555438004F70
:1010C000555437004F555436004F555435004F5541
:1010D0005434004F555433004F555432004F55543B
:1010E00031002844697361726D656429002841727A
:1010F0006D65642900666F72207374617475732E58
:1011000000507265737300446F6E6500486F6C64C5
:101110002061732073686F776E004E6F20525820E5
:101120007369676E616C0073657474696E677300D0
:101130005570646174696E670043616C2E2066614E
:10114000696C6564004553432043616C6962726158
:10115000746500486F6C6420737465616479005233
:1011600065736574004F70656E4165726F3200443F
:10117000697361726D6564004C6F770042617474CD
:10118000657279004D6F64656C004C6F7374004537
:1011900072726F72005369676E616C004E6F00452A
:1011A0006C65762E005468726F742E004E6F6E65FB
:1011B00000415558330041555832004155583100CF
:1011C000476561720052756464657200456C6576AE
:1011D00061746F720041696C65726F6E0054687261
:1011E0006F74746C65005371727453696E6500534B
:1011F000696E65004C696E656172004D6F746F7247
:1012000000442E536572766F00412E536572766FDF
:1012100000414C2050697463683A00414C20526F81
:101220006C6C3A00416363506974636800416363A6
:10123000526F6C6C004779726F5961770047797211
:101240006F5069746368004779726F526F6C6C00FD
:10125000503220536F7572636520423A005031203E
:10126000536F7572636520423A00503220566F6C9E
:10127000756D653A00503220536F75726365204179
:101280003A00503120566F6C756D653A0050312030
:10129000536F7572636520413A005032205A2061C5
:1012A00063633A005031205A206163633A00503240
:1012B00020506974636820414C3A005031205069D5
:1012C00074636820414C00503220526F6C6C204196
:1012D0004C3A00503120526F6C6C20414C3A005017
:1012E0003220596177206779726F3A005031205966
:1012F0006177206779726F3A0050322050697463C9
:1013000068206779726F3A005031205069746368C1
:10131000206779726F3A00503220526F6C6C2067F0
:1013200079726F3A00503120526F6C6C206779727D
:101330006F3A005032205275642E20766F6C756DB6
:10134000653A005031205275642E20766F6C756DB1
:10135000653A00503220456C652E20766F6C756DB5
:10136000653A00503120456C652E20766F6C756DA6
:10137000653A0050322041696C2E20766F6C756D95
:10138000653A0050312041696C2E20766F6C756D86
:10139000653A005468726F74746C65206375727678
:1013A00065005032205468722E20766F6C756D6522
:1013B0003A005031205468722E20766F6C756D653E
:1013C0003A005032204F66667365743A0050312EF1
:1013D0006E204F66667365743A0050312E6E20257C
:1013E000206F66207472616E733A005031204F6630
:1013F000667365743A004465766963653A005031F6
:101400002E6E202D205032005031202D2050312EB4
:101410006E0050320050312E6E005031004D696E1A
:101420002E2063656C6C202856293A00414C2063BD
:101430006F72726563743A004779726F204C504640
:101440003A004163632E204C50463A0050574D20DD
:10145000726174653A0044697361726D2074696DDC
:10146000653A005361666574793A00436F6E747231
:101470006173743A004F7269656E746174696F6E5E
:101480003A00467574616261004A522C53706B7465
:101490006D005370656B7472756D00532D427573DA
:1014A0000050574D004350504D005472616E732EE2
:1014B0002050316E3A005472616E736974696F6EB8
:1014C0000052756464657220706F6C2E3A00456C32
:1014D000657661746F7220706F6C2E3A0041696C92
:1014E00065726F6E20706F6C2E3A0050726F666975
:1014F0006C65204368616E2E3A0043682E206F723F
:101500006465723A0050574D2073796E633A005209
:101510005820747970653A004F4E004F4646005986
:101520006177207472696D3A0059617720492072A1
:101530006174653A005961772049204C696D69747E
:101540003A0059617720493A0059617720503A00B2
:101550005069746368207472696D3A0050697463ED
:1015600068204175746F4C766C3A005069746368FA
:10157000204920726174653A00506974636820499B
:10158000204C696D69743A00506974636820493A67
:1015900000506974636820503A00526F6C6C20747C
:1015A00072696D3A00526F6C6C204175746F4C76A5
:1015B0006C3A00526F6C6C204920726174653A007D
:1015C000526F6C6C2049204C696D69743A00526FFF
:1015D0006C6C20493A00526F6C6C20503A004163A9
:1015E00063205665727420503A00496E762E00438F
:1015F000616C2E0041636300596177005069746328
:101600006800526F6C6C004779726F0031392E2080
:10161000506F732E20536572766F207472766C2E25
:10162000202825290031382E204E65672E2053654D
:1016300072766F207472766C2E202825290031373F
:101640002E20536572766F20646972656374696FCA
:101650006E0031362E204F555438204D6978657212
:101660000031352E204F555437204D697865720072
:1016700031342E204F555436204D69786572003133
:10168000332E204F555435204D6978657200313224
:101690002E204F555434204D697865720031312E1B
:1016A000204F555433204D697865720031302E201B
:1016B0004F555432204D6978657200392E204F55B0
:1016C0005431204D6978657200382E20466C696768
:1016D00068742070726F66696C65203200372E2046
:1016E000466C696768742070726F66696C6520313A
:1016F00000362E204C6576656C206D657465720031
:10170000352E2053656E736F722063616C6962724F
:101710006174696F6E00342E20537469636B20709E
:101720006F6C617269747900332E2052656365694C
:1017300076657220696E7075747300322E20526562
:1017400063656976657220736574757000312E204B
:1017500047656E6572616C0053617665004465662D
:101760002E004261636B004D656E750045004400BC
:101770004300420041004A69747465723A00506F38
:10178000733A00426174746572793A0030002E0039
:1017900050726F66696C653A004D6F64653A005629
:1017A000657273696F6E3A20312E31204237000125
:1017B000010101010101FFFFFFFF0101FF01FF0125
:1017C0000100010201020000010200010201000209
:1017D000020100170C0604030201030F1B27007F00
:1017E00001003C007F010028007D01000A00040187
:1017F0000002007F010005817F010000007F0100E1
:101800003C007F010028007D01000A000401000265
:10181000007F010005817F010000007F0100500072
:101820007F010000007D0100000004010001817FB4
:10183000010000007F010000000000000000000027
:101840000000000000000000000000020101008311
:101850007D0100000163010032837D010000837D72
:10186000010000007D010064007D010064000201B0
:101870000100837D010000837D010000837D010064
:1018800000837D010000837D010000837D01000055
:10189000000201010000020101000002010100003C
:1018A000020101000002010100000201010000022A
:1018B000010100000201010000020101000002011B
:1018C000010000020101000002010100000F0101FE
:1018D0000F837D010000000F01010F837D010000D7
:1018E000000F01010F837D010000000F01010F8334
:1018F0007D010000E2000000000000380000000050
:101900000000444444444444444444444444EE00B9
:10191000EE00EE00EE000001010100830001039CD7
:10192000007D0103648D8D8D8D8D8D8D8D0000006A
:1019300000000000000000000000000000000301A3
:10194000010100040101040001010100000801017E
:10195000040001010100000101010000010101007A
:1019600000280100000163010032000000000000B7
:10197000050101001C320100240001010101007F6A
:1019800001001E0005010100000201010000060126
:1019900001020006010106010A010007000601011B
:1019A000023E6974698D8D8D0000007C002C000062
:1019B0007662620025000D1216191C1F21232628AD
:1019C000292B2D2F303233353638393A3B3D3E3FC7
:1019D000404142434445464748494A4B4C4D4D4E91
:1019E0004F505151525353545555565757585859B3
:1019F000595A5A5B5B5C5C5D5D5E5E5E5F5F5F601B
:101A000060606161616262626262636363636363B7
:101A100063646464646464646464000203050608C7
:101A20000A0B0D0E101113141617191A1C1D1F2066
:101A30002223252628292B2C2D2F303233343637DC
:101A4000383A3B3C3D3F4041424344464748494A7F
:101A50004B4C4D4E4F505152535454555657585865
:101A6000595A5A5B5C5C5D5E5E5F5F60606061619D
:101A70006262626363636363646464646464640095
:101A800011241FBECFEFD0E1DEBFCDBF14BE88E171
:101A90000FB6F89480936000109260000FBE15E0BE
:101AA000A0E0B1E0ECEAF1E902C005900D92A231AC
:101AB000B107D9F728E0A2E1B5E001C01D92AD342D
:101AC000B207E1F70E948B190C94D4480C940000E3
:101AD00000000895FDDFFCDFFBDFFADF0895CF9300
:101AE000AF93A5E05898C6E70E947F0D589ACAE7C1
:101AF0000E947F0DAA95B1F7AF91CF91089500C0D4
:101B000000C000C000C000C000C000C000C0000095
:101B1000CA95A9F70895F62EEF93FF93AF93BF935D
:101B2000CF93DF930F931F932F933F934F935F9325
:101B30006F937F93E82FF92F8F939F93A191B1918A
:101B4000A65CB040AF93BF93A7707A2FA191B191DB
:101B5000AE5BB040AF93BF93A7706A2FA191B191D4
:101B6000A65BB040AF93BF93A7705A2FA191B191DC
:101B7000AE5AB040AF93BF93A7704A2FA191B191D5
:101B8000A55AB040AF93BF93A7703A2FA191B191DE
:101B9000AD59B040AF93BF93A7702A2FA191B191D7
:101BA000A559B040AF93BF93A7701A2FA191B191DF
:101BB000AD58B040AF93BF93A7700A2F972F0E94E4
:101BC000F90EF0FC469A0E94050F962F0E94F90E1E
:101BD000F1FC449A0E94050F952F0E94F90EF2FC29
:101BE000429A0E94050F942F0E94F90EF3FC439A2B
:101BF0000E94050F932F0E94F90EF4FC149A0E9484
:101C0000050F922F0E94F90EF5FC159A0E94050F00
:101C1000912F0E94F90EF6FC459A0E94050F902F15
:101C20000E94F90EF7FC479A0E94050F0E94D80EF9
:101C30000E94D80E0E94D80EBF91AF910E94F20E62
:101C40000A2FBF91AF910E94F20E1A2FBF91AF9150
:101C50000E94F20E2A2FBF91AF910E94F20E3A2FEE
:101C6000BF91AF910E94F20E4A2FBF91AF910E9497
:101C7000F20E5A2FBF91AF910E94F20E6A2FBF91C0
:101C8000AF910E94F20E7A2FCFEFD0E00024715076
:101C900019F446980C944E0E00C000C0615019F41F
:101CA00044980C94550E00C000C0515019F442984D
:101CB0000C945C0E00C000C0415019F443980C9481
:101CC000630E00C000C0315019F414980C946A0ED1
:101CD00000C000C0215019F415980C94710E00C07A
:101CE00000C0115019F445980C94780E00C000C043
:101CF000015019F447980C947F0E00C000C00E9458
:101D0000E10EC150D00911F00C94470E9F918F91B4
:101D10007F916F915F914F913F912F911F910F9103
:101D2000DF91CF91BF91AF91FF91EF9108950F9304
:101D30001F932F930CEF18E00024803071F0813056
:101D400079F0823081F0833089F0843091F08530F1
:101D500099F08630A1F08730A9F0469A0C94C50E10
:101D6000449A0C94C50E429A0C94C50E439A0C9456
:101D7000C50E149A0C94C50E159A0C94C50E459A6E
:101D80000C94C50E479A0C94C50E00C000C000C04C
:101D900000C000C000C06150700919F420E028B9EB
:101DA00022B90150100989F72F911F910F910895C1
:101DB0000F9305E600C000C000C00150D9F70F9195
:101DC00008950F9309E000C000C000C00150D9F78A
:101DD000000000C000C00F91089500C000C000C006
:101DE00000C00895B695A795B695A795B695A79501
:101DF0000895C7E09770C92731F00E94ED0ECA958B
:101E000009F0FBCF00C000000895C92FC77031F062
:101E10000E94ED0ECA9509F0FBCF00C00895CF9344
:101E2000DF93CDB7DEB72C970FB6F894DEBF0FBEA9
:101E3000CDBF26E0AE014F5F5F4F6BE380ED0E94A8
:101E40009D24898190E0982F88272A81820F911DF7
:101E500036E0959587953A95E1F798878F838B8142
:101E600090E0982F88272C81820F911D56E0959540
:101E700087955A95E1F79195819591099A87898778
:101E80008D8190E0982F88272E81820F911D76E01A
:101E9000959587957A95E1F79C878B8720913906F0
:101EA000A4E4B5E043E024029001112480E090E036
:101EB0002C543F4FF901E80FF91FE491EE0FFF0B8F
:101EC00041E050E04C0F5D1FE40FF51F4681578144
:101ED0004D935D9301968330910561F72C960FB673
:101EE000F894DEBF0FBECDBFDF91CF9108951F9351
:101EF000CF93DF930E940F0F8091B80780FD05C03C
:101F00001092A00710929F070EC08091A107909198
:101F1000A2072091A5073091A607821B930B9093EF
:101F2000A00780939F0720913906CBE9D7E0A4E46E
:101F3000B5E083E028029001112480E090E02E5566
:101F40003F4F69917991F901E80FF91F14914D9173
:101F50005C911197461B570B1403B001159F700D30
:101F600011246D937D9301968330910551F7609113
:101F7000A1077091A20780919F079091A007681B0D
:101F8000790B882777FD8095982F0E949E46209197
:101F9000A1053091A2054091A3055091A4050E948E
:101FA0009B450E946B467093130560931205DF9169
:101FB000CF911F9108951F93CF93DF9300D000D04E
:101FC00000D0CDB7DEB71A8219821C821B821E8216
:101FD0001D8281116FC010E20E940F0F89819A81CA
:101FE0002091440530914505820F931F9A83898380
:101FF0008B819C812091460530914705820F931F6C
:102000009C838B838D819E81209148053091490569
:10201000820F931F9E838D838FE493EC0197F1F7DA
:1020200000C000001150C1F6FE0131969E01295FEB
:102030003F4F80819181409645E0959587954A95DF
:10204000E1F781939193E217F30799F789819A81D8
:1020500090939C0780939B078B819C8190939E0714
:1020600080939D0780913906992787FD9095FC0103
:10207000EE0FFF1FE80FF91FEC55FF4F44912D8124
:102080003E814203C001439F900D11249093A2070B
:102090008093A1078091B80782608093B8070E945F
:1020A00080162B9A9FE724E84EE191502040404053
:1020B000E1F767C08091B80781FF66C01092A4075E
:1020C0001092A30710E20E940F0F8091A307909136
:1020D000A4072091480530914905820F931F9093E2
:1020E000A4078093A3078FE493EC0197F1F700C056
:1020F0000000115041F780913906992787FD90958E
:10210000FC01EE0FFF1FE80FF91FEC55FF4F449144
:102110002091A3073091A407205F3F4FB5E035958C
:102120002795BA95E1F74203C001439F900D112412
:102130009093A4078093A30797FF26C02091A1073F
:102140003091A207A901481B590BCA0195958795A3
:102150009093A6078093A507281B390B3093A007FF
:1021600020939F078091B80781608093B8070E94F1
:1021700080162B9A5FE784E89EE1515080409040A2
:10218000E1F700C000002B9826960FB6F894DEBF4A
:102190000FBECDBFDF91CF911F91089541E06BE657
:1021A00080ED0E94862448E06CE180ED0C9486244A
:1021B0008FEF80937E0010927B00089580937C00C7
:1021C00086EC80937A0080917A0086FDFCCF08959A
:1021D000CF92DF92EF920F93CF93DF931F9B85C037
:1021E0000E94770F60E070E0CB010E94FE2620E0A5
:1021F00030E040E052E460919D0570919E05809131
:102200009F059091A0050E949B450E946B46EB01A3
:1022100020E030E040E852E46091990570919A0521
:1022200080919B0590919C050E949B450E946B4666
:102230006B01D7FD06C0C134D1052CF0C0E4D0E05D
:1022400002C0C0E0D0E0D7FC08C021E8C216D1042B
:1022500034F080E8C82ED12C02C0C12CD12C27E349
:1022600030E042E050E06FED70E08CE090E00E94E2
:102270002822EE24E39400E420E840E060E085E0DA
:1022800091E00E94452105E125E146E166E385E014
:1022900091E00E94452108E320E448E060E485E005
:1022A00091E00E94A72000E220E640E260E285E0A3
:1022B00091E00E94A72001E028E04C2F6C2D85E0E2
:1022C00091E00E94972185E091E00E94152085E031
:1022D00091E00E9447208FE798E321E081509040F1
:1022E0002040E1F700C0000079CFDF91CF910F913E
:1022F000EF90DF90CF9008950E94222E1F9BFAC08E
:102300001C9B0E9446430E94B14220E030E040E026
:1023100050E067EF79E082E790E00E9428222AE00F
:1023200030E040E050E067EF79E080E290E00E942A
:10233000282224E130E040E050E067EF79E083E7D5
:1023400090E00E9428222EE130E040E050E067EF6C
:1023500079E083E290E00E94282220E030E046E429
:1023600050E067EF79E08DE690E00E9428222AE0B5
:1023700030E046E450E067EF79E08EE690E00E94BE
:10238000282224E130E046E450E067EF79E08FE670
:1023900090E00E9428222EE130E046E450E067EF12
:1023A00079E080E790E00E942822809129089091AE
:1023B0002A084AE063E675E00E94704820E030E0B9
:1023C00045E250E067EF79E00E94143E80912D08CD
:1023D00090912E084AE063E675E00E9470482AE07A
:1023E00030E045E250E067EF79E00E94143E8091D2
:1023F0002F08909130084AE063E675E00E9470482B
:1024000024E130E045E250E067EF79E00E94143EBD
:1024100080913108909132084AE063E675E00E94AD
:1024200070482EE130E045E250E067EF79E00E942D
:10243000143E80913308909134084AE063E675E0D9
:102440000E94704820E030E044E650E067EF79E019
:102450000E94143E80913508909136084AE063E668
:1024600075E00E9470482AE030E044E650E067EFF3
:1024700079E00E94143E80913708909138084AE034
:1024800063E675E00E94704824E130E044E650E0E5
:1024900067EF79E00E94143E8091390890913A08E4
:1024A0004AE063E675E00E9470482EE130E044E6C1
:1024B00050E067EF79E00E94143E29E330E040E00D
:1024C00050E06FED70E08CE090E00E94282227E35E
:1024D00030E04EE650E067EF79E08CE390E00E9458
:1024E000282285E091E00E94152085E091E00E947D
:1024F000472004CF08951F9BEDC01C991AC01C995A
:102500000AC02FE38DE093E0215080409040E1F736
:1025100000C00000F4CF2FE382E49FE02150804010
:102520009040E1F700C000000E943B2380E00E9441
:10253000DB0F1D990CC02FE382E49FE02150804007
:102540009040E1F700C0000081E00E94DB0F0E9494
:102550000E230E94770F20E030E045E250E067EF65
:1025600079E08AE190E00E94282220E030E04DE40A
:1025700050E067EF79E08EE190E00E9428222DE0A4
:1025800030E045E050E067EF79E08BE190E00E94B9
:10259000282227E130E045E050E067EF79E08CE168
:1025A00090E00E94282221E230E045E050E067EF11
:1025B00079E08DE190E00E9428224AE063E675E030
:1025C00080917305909174050E9470482DE030E071
:1025D00048E250E067EF79E00E94143E4AE063E68B
:1025E00075E080917505909176050E94704827E10D
:1025F00030E048E250E067EF79E00E94143E4AE0A4
:1026000063E675E080917705909178050E947048A7
:1026100021E230E048E250E067EF79E00E94143EAA
:102620004AE063E675E080914405909145050E947B
:1026300070482DE030E040E550E067EF79E00E941F
:10264000143E4AE063E675E08091460590914705A7
:102650000E94704827E130E040E550E067EF79E004
:102660000E94143E4AE063E675E08091480590912F
:1026700049050E94704821E230E040E550E067EFF4
:1026800079E00E94143E29E330E040E050E06FED35
:1026900070E08CE090E00E94282227E330E04CE6D6
:1026A00050E067EF79E08CE390E00E94282227E376
:1026B00030E04BE450E067EF79E089E190E00E9480
:1026C000282285E091E00E94152085E091E00E949B
:1026D000472011CF0895BF92CF92DF92EF92FF92E1
:1026E0000F931F93CF93DF9300D000D0CDB7DEB709
:1026F00085E091E00E94472020E030E040E050E09B
:1027000067EF79E088E091E00E94282220E130E044
:1027100040E050E067EF79E08AE091E00E942822F3
:102720002BE130E040E050E067EF79E08BE091E0B2
:102730000E9428222BE130E048E550E067EF79E085
:1027400087E190E00E94282226E230E040E050E05D
:1027500067EF79E085E890E00E9428222BE330E0E3
:1027600040E050E06FED70E089E090E00E942822A8
:1027700027E330E04AE050E067EF79E08EE090E058
:102780000E9428224091DA05552747FD5095425C6A
:102790005F4F00E12DE261E080E090E00E94E02EDA
:1027A0004AE063E675E080912305909124050E943C
:1027B00070482BE130E04EE650E067EF79E00E9490
:1027C000143E8091DA058130D9F426E230E04DE400
:1027D00050E067EF79E088E190E00E942822809144
:1027E0001E0590911F054AE063E675E00E9470485F
:1027F00026E230E04EE650E067EF79E00E94143EBA
:102800008091230590912405181619064CF02BE1B0
:1028100030E04DE250E067EF79E080E390E031C0D6
:10282000843691054CF02BE130E04DE250E067EF4B
:1028300079E082E390E025C02091E205332727FD6F
:1028400030958217930749F42BE130E04DE250E0D8
:1028500067EF79E081E390E014C0821793074CF4AE
:102860002BE130E04DE250E067EF79E083E390E068
:1028700008C02BE130E04DE250E067EF79E084E3FF
:1028800090E00E9428220E947B456C0164E670E083
:102890000E94B5478B014AE063E675E0C8010E94DB
:1028A0007048AE014F5F5F4F67EF79E00E94C53C13
:1028B0004AE063E675E0C8010E94704826E230E015
:1028C0004DE250E067EF79E00E94143E2CE92003CE
:1028D0007001219FF00C1124EC0CFD1C09811127C3
:1028E00007FD1095035D1F4F26E230E0A80167EF5A
:1028F00079E08CE091E00E942822AE014F5F5F4FAB
:1029000067EF79E08DE095E00E94C53CC980AE019B
:102910004F5F5F4F67EF79E08FE095E00E94C53C25
:10292000B980DD24C7FCD0948AE0E816F10440F0B9
:102930004AE063E675E0C7010E947048A80116C02E
:10294000A8014C0D5D1D26E230E067EF79E08DE0D7
:1029500091E00E9428224AE063E675E0C7010E94E8
:102960007048A8014B0D511DB7FC5A954C0D5D1DCB
:1029700026E230E067EF79E00E94143E8091220564
:10298000882309F465C0E12C00E320E648E06EE00E
:1029900085E091E00E941121EE24E39420E648E0D6
:1029A0006EE085E091E00E9445218091220583FF41
:1029B00013C02EE030E041E250E069E471E086E8C7
:1029C00090E00E94282222E230E04EE250E069E4EA
:1029D00071E086E790E03AC08091220581FF13C044
:1029E0002DE030E043E350E069E471E08BE490E0F7
:1029F0000E94282221E230E047E250E069E471E0E1
:102A00008CE490E023C08091220580FF13C02EE06B
:102A100030E04CE150E069E471E089E690E00E942A
:102A2000282222E230E04EE250E069E471E087E3E0
:102A300090E00CC08091220582FF0AC028E130E0BE
:102A400049E150E069E471E082E190E00E942822CF
:102A500085E091E00E94152085E091E00E944720EA
:102A60000F900F900F900F90DF91CF911F910F91CA
:102A7000FF90EF90DF90CF90BF900895AF92BF92FC
:102A8000CF92DF92EF92FF920F931F93CF93DF933A
:102A9000D090DE05F090DF05A090E0051092DE05F5
:102AA0001092DF051092E005D0E0C0E01F9BB6C099
:102AB000C111B6C085E091E00E94472092E0C92E86
:102AC00010E061E1610FEE24E39408E228E240E0C7
:102AD00085E091E00E94452186E2B82EB10E20E308
:102AE000210F03E044E16B2D85E091E00E94A720D7
:102AF00028E3210F69E2610F06E045E185E091E0FE
:102B00000E94A72001E022E045E16B2D85E091E0E5
:102B10000E94972163E3610F24E045E085E091E0A6
:102B20000E949721CA9411F014E3CBCF29E330E03F
:102B300040E050E06FED70E08CE090E00E942822D1
:102B40000E94B14280912D0890912E088033984FB9
:102B50003CF080912D0890912E08813D97406CF0BB
:102B6000D1110BC02BE230E040E150E069E471E0AC
:102B700087E890E00E9428224CC080912D08909117
:102B80002E08843F91409CF480912D0890912E084E
:102B90008D309E4F64F02BE230E049E050E069E474
:102BA00071E088E890E00E942822D1E032C0809154
:102BB0002D0890912E0897FF03C081E08093DE05D9
:102BC00080912F089091300897FF03C081E0809397
:102BD000DF05809131089091320897FF03C081E0B2
:102BE0008093E00580912D0890912E081816190603
:102BF00084F480912F0890913008181619064CF42F
:102C00008091310890913208C1E0181619060CF035
:102C1000C0E085E091E00E94152048CFCC2339F137
:102C20002BE230E048E250E069E471E089E890E0AE
:102C30000E94282285E091E00E94152085E091E025
:102C40000E9447208FE794E82EE181509040204079
:102C5000E1F700C00000DF91CF911F910F91FF902D
:102C6000EF90DF90CF90BF90AF900C948016D092F1
:102C7000DE05F092DF05A092E005DF91CF911F9174
:102C80000F91FF90EF90DF90CF90BF90AF9008959D
:102C90000F931F93CF93DF931F92CDB7DEB78C01B5
:102CA00069830E94A5486981861741F0C8010F9089
:102CB000DF91CF911F910F910C94AD480F90DF9150
:102CC000CF911F910F910895EF92FF920F931F9351
:102CD000CF93DF93EC018B017A01E80EF91ECE153C
:102CE000DF0539F06991C8010E9448160F5F1F4F38
:102CF000F6CFDF91CF911F910F91FF90EF90089544
:102D0000F89448E052E060E070E081EB95E00E94CA
:102D10006416789408952F923F924F925F926F922B
:102D20007F928F929F92AF92BF92CF92DF92EF925B
:102D3000FF920F931F93CF93DF93CDB7DEB7C554A8
:102D4000D1400FB6F894DEBF0FBECDBF40912C0727
:102D5000CF5BDE4F4883C154D1404AE450E06DE27E
:102D600077E083E797E00E945E4823E436E0AE0117
:102D70004F5C5E4FCE0101966DE1F901DC01762FCB
:102D800001900D927A95E1F78696235E3F4F841766
:102D9000950799F74E0183E1880E911C5E0194E13D
:102DA000A90EB11C6E01E5E1CE0ED11CCE014696F6
:102DB000CF5CDE4F99838883C153D1408E01025E80
:102DC0001F4FFE017D96C75CDE4FF983E883C95330
:102DD000D1400696CD5CDE4F99838883C353D140A2
:102DE0003297C35CDE4FF983E883CD53D14002971D
:102DF000C95CDE4F99838883C753D1403297C55C45
:102E0000DE4FF983E883CB53D1400297CB5CDE4F92
:102E100099838883C553D1407E0197E1E90EF11C67
:102E20003E01E5E06E0E711C81E090E08C0F9D1F6D
:102E3000835B9E4FCE5BDE4F99838883C254D14023
:102E4000FE013196C15CDE4FF983E883CF53D14058
:102E500082E0582E4424439449E150E0B301C80174
:102E600048970E945E48F4013080F5012081F60108
:102E70003081CF5CDE4FE881F981C153D1402080A1
:102E8000F30136FE02C0508201C0108248E050E0DB
:102E9000B701C8010196CC5BDE4F2883C454D140F2
:102EA000CB5BDE4F3883C554D1400E945E4880E042
:102EB00090E0CB5BDE4F3881C554D140CC5BDE4F18
:102EC0002881C454D140C15CDE4FE881F981CF53E1
:102ED000D140E80FF91F468D4D3011F44FE0468F79
:102EE00002968830910579F7F40130FE06C030FF74
:102EF00002C0508203C0408201C01082F50120FF51
:102F000006C020FE02C0508203C0408201C0108271
:102F1000F60131FE06C031FF02C0508203C040827C
:102F200001C01082CF5CDE4FE881F981C153D140EE
:102F300021FF06C021FE02C0508203C0408201C0B2
:102F40001082F70132FE06C032FF02C0508203C079
:102F5000408201C01082CB5CDE4FE881F981C5530D
:102F6000D14022FF06C022FE02C0508203C0408230
:102F700001C01082C55CDE4FE881F981CB53D1409E
:102F800033FE06C033FF02C0508203C0408201C03E
:102F90001082C95CDE4FE881F981C753D14023FF1D
:102FA00006C023FE02C0508203C0408201C01082CE
:102FB000C35CDE4FE881F981CD53D14034FE06C0B9
:102FC00034FF02C0508203C0408201C01082CD5C39
:102FD000DE4FE881F981C353D14024FF06C024FEAF
:102FE00002C0508203C0408201C01082C75CDE4F25
:102FF000E881F981C953D14035FE06C035FF02C0D2
:10300000508203C0408201C01082F80125FF06C033
:1030100025FE02C0508203C0408201C01082C15C04
:10302000DE4F88819981CF53D1408696C15CDE4FB7
:1030300099838883CF53D14096E2890E911CE6E2B2
:10304000AE0EB11CF6E2CF0ED11CCF5CDE4F8881F4
:103050009981C153D1408696CF5CDE4F9983888396
:10306000C153D1400A5D1F4FC75CDE4FE881F98133
:10307000C953D140B696C75CDE4FF983E883C95384
:10308000D140CD5CDE4F88819981C353D140869673
:10309000CD5CDE4F99838883C353D140C35CDE4F40
:1030A000E881F981CD53D140B696C35CDE4FF983F8
:1030B000E883CD53D140C95CDE4F88819981C753E5
:1030C000D1408696C95CDE4F99838883C753D1402F
:1030D000C55CDE4FE881F981CB53D140B696C55C23
:1030E000DE4FF983E883CB53D140CB5CDE4F888140
:1030F0009981C553D1408696CB5CDE4F99838883F6
:10310000C553D14096E2E90EF11CE6E26E0E711C49
:10311000CE5BDE4F88819981C254D14008171907D0
:1031200009F09ACE8FE291E0FE013196A3E4B6E079
:1031300001900D920197E1F7CF5BDE4F9881C1546A
:10314000D1409093720786E38093B105CB5BDE4F4D
:103150000FB6F894DEBF0FBECDBFDF91CF911F91A8
:103160000F91FF90EF90DF90CF90BF90AF909F9026
:103170008F907F906F905F904F903F902F90089529
:10318000CF93DF9388E092E0E1EBF5E0DF019C0173
:103190001D9221503040E1F786E38093B10581E034
:1031A0008093DA0584E08093DB0592E090933F06FC
:1031B00096E09093400697E0909341068093DD055A
:1031C0008EE180933C0682E38093E205EEECF0E032
:1031D000C2EBD5E0ABE8B7E086EA9EE02491299304
:1031E0008D939D93319630E0E63DF307B9F78EEB72
:1031F0009AE090938C0780938B07E7E6F6E0CBE7A5
:10320000D7E063E877E052E32FE04CE934E6CF0102
:103210004E97DC015C934896DC012C930496DC010C
:103220002C930297DC012C932083499384E6DB01E5
:103230003D93BD01B696B7E0E739FB0741F78093B0
:103240004C068093750680939D068093C5062CE3FB
:103250002093E30595E09093E7052093E90590938B
:10326000ED0590E59093EF0528E22093E4059AE0C0
:103270009093E5052093EA059093EB0592E09093F7
:10328000E6059093EC0521E02093F2059093F80574
:103290009093FE052093040680934D068093760656
:1032A00080939E068093C60620937C062093A406F6
:1032B0002093CC069093420680E890E09093A2077A
:1032C0008093A10784E280933A06DF91CF9108951D
:1032D000CF93DF931F92CDB7DEB748E052E060E0B6
:1032E00070E081EB95E00E9495488091B1058533AF
:1032F00029F0863339F00E94C01804C00E948B1652
:1033000081E001C080E089830E94801689810F904E
:10331000DF91CF910895CF93DF93CDB7DEB76F974D
:103320000FB6F894DEBF0FBECDBF0E94162923E072
:1033300030E03F8F2E8F1C8E1B8E53E0752E16E0D3
:103340001A86612C198618861A8E198E188E1F8A75
:103350001E8A1D8A1C8A1B8A1E861D861C821B8251
:10336000412C512C812C912C212C312C1A8A198A18
:103370001C861B86A12CB12CC12CD12C7601188A5D
:103380001D821F861A82198280911A058F5F809391
:103390001A058091E507882331F0488559854F5FEC
:1033A0005F4F598748871430D9F188F4112311F100
:1033B000133009F055C00E946B131092CA070E9487
:1033C000222E15E01C861B8621E02A8349C0163078
:1033D000E1F110F1173009F043C0299880912205DE
:1033E0008460809322050E943F330E94CD28109272
:1033F000CA0732C083B1807F803F49F081E00E94DC
:10340000D83080916E00816080936E0025C010924C
:103410006E0081E085BB24C01F9B22C014E020C049
:103420003A853330E0F41F9907C081E00E94D8301C
:103430001092CA0717E014C04B855C854331534195
:1034400078F00E940F2E13E00BC00E9433221092DE
:10345000CA0710E01A8204C013E01A8601C016E001
:103460009CE4A916B90698F02A852F5F2A8748851B
:10347000598550931F0540931E0580913E0619867D
:103480001886A12CB12C823011F421E0288B4989B7
:103490005A898091200553FF02C0806101C08F7E50
:1034A0008093200580911B058823B1F0809122052F
:1034B00082608093220580913B06813091F4809157
:1034C000220582FD0EC08091220584608093220532
:1034D00081E00E94D83005C0809122058D7F8093C5
:1034E00022050E947B4520913706309138068217CD
:1034F000930720F480912205886003C08091220503
:10350000877F809322058091220583FD08C08091EA
:10351000220581FD04C08091220580FF06C08091B4
:10352000200584FF02C0299A01C0299880913B069A
:10353000813009F091C080912D0890912E0881343E
:103540009C4F44F080912D0890912E08803C934030
:103550000CF453C080912F089091300881349C4F17
:1035600044F080912F0890913008803C93400CF4F7
:1035700044C0809131089091320881349C4F3CF0D6
:103580008091310890913208803C9340B4F1809151
:10359000290890912A08C39784F53CE4C316D30602
:1035A000E104F10468F180912D0890912E08803497
:1035B0009C4F6CF4809122058B7F809322050E94A2
:1035C000902384E10E94D8300E94CD2816C052EE8C
:1035D000C51654EED506E104F10490F080912D0853
:1035E00090912E08813C93405CF08091220584608C
:1035F0008093220581E00E94D830C12CD12C760125
:103600008091210580FD0FC080913C06882359F0F0
:103610008091220582FD07C02B813C812C343C44E3
:1036200028F0639401C0612C1C821B8240913C06EF
:10363000262D30E0842F992787FD9095281739078C
:1036400084F04E3174F080912205846080932205CD
:1036500081E00E94D83005C0809122058B7F809345
:1036600022050E94B1428091290890912A08C297B0
:103670005CF4809122058E7F8093220588E1ADEE77
:10368000B7E01D928A95E9F78091DD05880F990BC7
:10369000FC01E55DF74F20813181253F314014F079
:1036A00022E006C0208131812D303E4F24F021E000
:1036B0002093AF0702C01092AF07F3E07F1629F006
:1036C0002091E1053B8D321751F17090AF0741E039
:1036D000741661F052E07516B1F071101DC01092B1
:1036E0002505109227051092260516C024E0209388
:1036F00025052091E205332727FD309530932705D6
:103700002093260509C029E020932505A4E6B0E012
:10371000B0932705A09326052091E1052B8F0091FA
:10372000AF0721E0071101C020E03091E105311120
:103730001BC0FC01E55DF74F8081918188519C4F52
:1037400097FF02C080E090E00A9664E170E00E947A
:10375000C947653671050CF40BC444E650E050933C
:1037600024054093230508C48091260590912705E0
:103770009093240580932305222391F0802F99278D
:1037800087FD9095FC01EE0FFF1FE80FF91FE70D75
:10379000F11D77FCFA95EA52FF4FE491E09325057D
:1037A000332339F053EC3503C001112484159505FA
:1037B00018F0222309F4A9C080912505811105C0C4
:1037C000109227051092260522C0843031F4809192
:1037D000E205992787FD909504C0893039F484E685
:1037E00090E0909327058093260511C0813079F4ED
:1037F0008091E205992787FD9095209126053091CB
:103800002705821793071CF488E080932505809193
:103810002505883079F48091E205992787FD9095F8
:103820002091260530912705281739071CF481E0DF
:1038300080932505809125058B7F823091F48091BE
:1038400026059091270501979093270580932605DB
:103850001816190634F010922705109226051092BA
:103860002505809125058130C1F480912605909130
:103870002705019690932705809326052091E20560
:10388000332727FD3095821793073CF030932705A7
:103890002093260584E080932505809125058830B6
:1038A000C1F48091260590912705019790932705F3
:1038B000809326052091E205332727FD30952817B0
:1038C00039073CF0309327052093260584E0809348
:1038D0002505809125058B7F8330A9F480912605ED
:1038E00090912705019690932705809326058436AD
:1038F00091054CF0A4E6B0E0B0932705A09326050F
:1039000089E080932505412C512C20912505222307
:1039100031F08091230590912405009739F48CE0D3
:10392000E9EFF7E011928A95E9F70BC0293019F019
:103930008436910531F48CE0ADEEB7E01D928A95A6
:10394000E9F70E94DD2B9F838E832D853E85409174
:103950001605509117056091180570911905821789
:103960009307D8F480E090E0A1E0B0E0821B930BD5
:10397000A109B1092E813F81820F931FA11DB11DA5
:10398000840F951FA61FB71F8093160590931705E8
:10399000A0931805B093190512C08E819F812D85C3
:1039A0003E85821B930B480F591F611D711D40936B
:1039B00016055093170560931805709319058091AB
:1039C000B2003F89831BC80ED11CE11CF11C409141
:1039D000B2004F8B8091B2002A8D821B880E911C01
:1039E0003091B2003A8F8091B200498D841B280E2D
:1039F000311C2091B200298F8091B2003B89831B3A
:103A0000480E511C4091B2004B8B8091B2002C8922
:103A1000821BA80EB11C3091B2003C8B8091B20089
:103A20004D89841B2B853C85280F311D3C872B87B6
:103A30003091B2003D8B8091B2004E89841B2B8166
:103A40003C81280F311D3C832B833091B2003E8B8B
:103A50008091B200488D841B29893A89280F311D35
:103A60003A8B298B3091B200388F41E6841641E0C1
:103A7000940620F0812C912C21E02D8336E2231630
:103A8000330618F081E080931B050E940E230E94EC
:103A9000770F0E94DD2B16BC20911C0530911D056F
:103AA0008217930748F420911C0530911D05AC0145
:103AB000421B530B9A0108C020911C0530911D0533
:103AC000DC01A21BB30B9D0190931D0580931C0587
:103AD0008091CD079091CE07A90160E070E0029738
:103AE00048F4409328055093290560932A05709364
:103AF0002B0519C08091CD079091CE07A0E0B0E0D2
:103B00002FE0880F991FAA1FBB1F2A95D1F7840F9A
:103B1000951FA61FB71F8093280590932905A09392
:103B20002A05B0932B051092CE071092CD07609115
:103B300028057091290580912A0590912B050E94F6
:103B4000FE260E94493E8091CA07882309F43DC1A0
:103B500020913E0622309CF4809116059091170525
:103B6000A0911805B0911905843C924AA105B105B0
:103B700020F081E08093000102C0109200013981A1
:103B80003111FEC1223009F0FEC18091E807909109
:103B9000E907843C924A20F081E08093000102C052
:103BA0001092000180910001882309F477C0809170
:103BB000010190910201A0910301B09104018039AB
:103BC0009C44A105B10528F024E030E03F8F2E8F02
:103BD00004C045E050E05F8F4E8F809101019091CD
:103BE0000201A0910301B09104018D3C9F43A10506
:103BF000B10530F42E8D3F8D2F5F3F4F3F8F2E8FBD
:103C00008091010190910201A0910301B091040102
:103C1000803B9643A105B10530F44E8D5F8D4F5F1B
:103C20005F4F5F8F4E8F8091010190910201A091B3
:103C30000301B09104018A3D9F42A105B10530F412
:103C40002E8D3F8D2F5F3F4F3F8F2E8F8091010133
:103C500090910201A0910301B091040188389A4229
:103C6000A105B10530F44E8D5F8D4F5F5F4F5F8FC3
:103C70004E8F8091010190910201A0910301B091BA
:103C8000040188349642A105B10508F069C02E8D63
:103C90003F8D2F5F3F4F3F8F2E8F65C08091010179
:103CA00090910201A0910301B091040185309844E4
:103CB000A105B10528F023E030E03F8F2E8F04C02E
:103CC00044E050E05F8F4E8F80910101909102019E
:103CD000A0910301B09104018E399943A105B1056A
:103CE00030F42E8D3F8D2F5F3F4F3F8F2E8F809171
:103CF000010190910201A0910301B09104018E365F
:103D00009E42A105B10530F44E8D5F8D4F5F5F4F30
:103D10005F8F4E8F8091010190910201A09103016C
:103D2000B09104018E399742A105B10530F42E8D72
:103D30003F8D2F5F3F4F3F8F2E8F809101019091DC
:103D40000201A0910301B09104018B399242A105B7
:103D5000B10548F44E8D5F8D4F5F5F4F5F8F4E8F83
:103D600021E0298302C031E039834E8D5F8D50936D
:103D700015054093140510921B051092160510921C
:103D8000170510921805109219050E94DD2B9F83CC
:103D90008E8380913E06823079F42981222361F05E
:103DA000388931110CC01092CA070E940F2E212CA5
:103DB000312C1F861A8209C0212C312C06C0212CDF
:103DC000312C188A41E04A8319828091CA078111F7
:103DD00008C080913E06823009F0A9C02A812111D5
:103DE000A6C08091CA0781111092CA0790913E0621
:103DF000E7E4F6E020E030E080E0923029F4408112
:103E0000411115C04D810EC0913079F440814111AE
:103E10000EC040910001411103C04D81411118C0F5
:103E200040910001411114C002C0191624F44081D0
:103E3000141674F015C0911113C040910001411186
:103E400003C04D81411104C040910001442341F061
:103E500041E050E0022E01C0440F0A94EAF7842B9F
:103E60002F5F3F4FB6962830310539F62D8122233A
:103E700011F0812C912C4E8D5F8D41305105E9F56B
:103E80009230D9F5409128055091290560912A0575
:103E900070912B05413651456105710500F5409142
:103EA00028055091290560912A0570912B05413113
:103EB00057426105710598F04091280550912905F8
:103EC00060912A0570912B054093010150930201E6
:103ED000609303017093040121E02A830EC021E660
:103EE00031E540E050E0209301013093020140931E
:103EF00003015093040131E03A838D8F0E94024008
:103F00000E9406380E94A6378D8D0E949B438091A7
:103F10003E06823049F44E8D5F8D1416150624F44A
:103F2000415051095F8F4E8F10921A051D822E8DC0
:103F30003F8D1216130674F03981332359F04F85E3
:103F4000411108C080913E06823021F40E94222E49
:103F500021E02F87809122053C8D381316E0409197
:103F600022054C8F702E2E813F813E872D870CCAF3
:103F7000709324056093230585E080932505FCCB91
:103F8000223009F40FCE41E050E05F8F4E8FEDCE2E
:103F90000F931F93CF93DF93C7E0D0E0082F10E07B
:103FA0005C98C8010C2E02C0959587950A94E2F79B
:103FB00080FF02C0599A01C059985C9A0E94680D0E
:103FC000219770F7DF91CF911F910F9108955F981E
:103FD0000C94C81F5F9A0C94C81FCF93C82F81E818
:103FE0000E94E71F8C2FCF910C94E71FCF93DF9394
:103FF0005D985E9887E893E10197F1F700C00000B3
:104000005E9AC8ECDDE0FE0184910E94E71F2196D4
:10401000FDE0C63DDF07B9F780913A060E94ED1F2B
:1040200088ECDF91CF910C94E71FDF92EF92FF9223
:104030000F931F93CF93DF93C6EDDDE08C01FE015C
:104040008491806B0E94E71F80E00E94E71F80E15F
:104050000E94E71F80EE0E94E71F7801D12CF70134
:1040600081917F010E94EA1FD394F0E8DF12F7CF1D
:10407000219600581F4F8DE0CE3DD80701F7DF9104
:10408000CF911F910F91FF90EF90DF90089520E066
:1040900034E0FC01A901119241505040E1F708952C
:1040A000CF93DF93D0E08D2F806B0E94E71FC0E09D
:1040B0008C2F8F700E94E71F8C2F82958F708061EC
:1040C0000E94E71F80E00E94EA1FCF5FC03881F79F
:1040D000DF5FD83041F7DF91CF91089567FD36C09B
:1040E0004034A0F5342F369536953695E62FF0E01E
:1040F00050E02223A9F020E8329FE00DF11D1124A9
:10410000E80FF91F409550954770552781E090E0E2
:10411000042E01C0880F0A94EAF79081982B15C0ED
:1041200020E8329FE00DF11D1124E80FF91F4095A2
:1041300050954770552781E090E0042E01C0880F0C
:104140000A94EAF7809590819823908308959F922E
:10415000AF92BF92CF92DF92EF92FF920F931F9395
:10416000CF93DF93EC01162FF42ED22EA02FB0E0C8
:10417000A41BB109B7FF03C0B195A195B109ED2DFD
:10418000F0E0E11BF109F7FF03C0F195E195F109BA
:10419000BB24B394EA17FB0714F0B12C06C08D2D95
:1041A000D02E082F812F1F2DF82ED11630F48F2DF1
:1041B000F02E082F812F1D2DD82EAD2CA11AE02F07
:1041C000F0E0EF19F109F7FF03C0F195E195F1096E
:1041D0009E2ECA2CC694F01610F401E010C00FEF0A
:1041E0000EC02E2DBB2071F0412F6F2DCE010E94ED
:1041F0006E20C918C7FE02C0F00ECA0C1F5F1D1545
:1042000080F303C04F2D612FF1CFDF91CF911F912C
:104210000F91FF90EF90DF90CF90BF90AF909F9065
:104220000895AF92BF92CF92DF92EF92FF920F93D9
:104230001F93CF93DF936C01A42EF62EC22FD0E0F4
:10424000C60FD11D10E0040F111D8F2D90E08C17AB
:104250009D0784F4BA2C8B2D90E08017910744F4CD
:104260002E2D4B2D6F2DC6010E946E20B394F3CFDF
:10427000F394EBCFDF91CF911F910F91FF90EF90CF
:10428000DF90CF90BF90AF9008959F92AF92BF9272
:10429000CF92DF92EF92FF920F931F93CF93DF9312
:1042A000EC01F62EB42E922E162FC22ED12CC60E55
:1042B000D11CAA24AA94A00EA40E812F90E08C15E4
:1042C0009D0574F42E2D4B2D612FCE010E946E2082
:1042D0002E2D4A2D612FCE010E946E201F5FEDCF43
:1042E000DB2C10E00B0D111DCC24CA94C90CCF0C93
:1042F0008D2D90E08017910774F42E2D4D2D6F2D8C
:10430000CE010E946E202E2D4D2D6C2DCE010E94CF
:104310006E20D394EDCFDF91CF911F910F91FF903D
:10432000EF90DF90CF90BF90AF909F9008954F9205
:104330005F926F927F928F929F92AF92BF92CF9235
:10434000DF92EF92FF920F931F93CF93DF93EC01D5
:10435000962EA42EBB24B394B21A822E8194880C7C
:10436000122F742E721AE42EF12C6701C20ED11C8A
:10437000872D992787FD9095C816D90644F0202FE0
:10438000472D692DCE010E946E207394F1CF712CC0
:1043900071160CF04CC0B7FC04C011508394839488
:1043A000B80C7394872D880F8F5FB80E6A2C611A32
:1043B0006701C10ED11C17FDDA94472C490C592C0A
:1043C0005718862D992787FD9095C816D90674F041
:1043D000202F462D642DCE010E946E20202F462DC9
:1043E000652DCE010E946E206394EBCF6A2C671876
:1043F0006701C70CD11C77FCDA94412E490C592C6B
:10440000511A862D992787FD9095C816D9060CF468
:10441000BFCF202F462D642DCE010E946E20202F6D
:10442000462D652DCE010E946E206394EACFDF9168
:10443000CF911F910F91FF90EF90DF90CF90BF90A1
:10444000AF909F908F907F906F905F904F90089566
:10445000880F991F8252924FFC01859194910C9480
:10446000E63D0C94E63D85E091E00E94472023E084
:1044700030E049E250E069E471E089E790E00E94B1
:10448000282227E130E048E150E069E471E08AE762
:1044900090E00E9428228091220583FF13C02BE226
:1044A00030E04CE050E069E471E086E890E00E9482
:1044B00028222BE230E040E550E069E471E086E735
:1044C00090E041C08091220581FF13C02BE230E0D3
:1044D0004CE150E069E471E08BE490E00E94282216
:1044E0002BE230E046E350E069E471E08CE490E0D8
:1044F0002AC08091220580FF13C02BE230E04AE001
:1045000050E069E471E089E690E00E9428222BE205
:1045100030E041E550E069E471E087E390E013C0EA
:10452000809122052BE230E082FF07C044E150E099
:1045300069E471E08BE890E006C04CE150E069E48A
:1045400071E08AE890E00E94282285E091E00C94D6
:104550001520CF93DF93CDB7DEB72C970FB6F89425
:10456000DEBF0FBECDBF26E0AE014F5F5F4F63E4FD
:1045700080ED0E949D24898190E0982F88272A81D0
:10458000820F911D34E0959587953A95E1F79A87CA
:1045900089878B8190E0982F88272C81820F911D2D
:1045A00054E0959587955A95E1F798878F838D818B
:1045B00090E0982F88272E81820F911D74E09595A9
:1045C00087957A95E1F79C878B8720913906A3E739
:1045D000B5E043E024029001112480E090E02F53E5
:1045E000384EF901E80FF91FE491EE0FFF0B41E09F
:1045F00050E04C0F5D1FE40FF51F468157814D932E
:104600005D9301968330910561F72C960FB6F8946F
:10461000DEBF0FBECDBFDF91CF9108951F93CF9323
:10462000DF930E94A92220913906C7EAD7E0A3E7C9
:10463000B5E083E028029001112480E090E021554C
:10464000384E69917991F901E80FF91F14914D9154
:104650005C911197461B570B1403B001159F700D09
:1046600011246D937D9301968330910551F7DF916D
:10467000CF911F910895CF9386E0E7EAF7E0DF013D
:104680001D928A95E9F7C0E20E94A9224091A707EE
:104690005091A8078091730590917405480F591F98
:1046A0005093A8074093A7072091A9073091AA0724
:1046B0008091750590917605280F391F3093AA07D0
:1046C0002093A9078091AB079091AC076091770583
:1046D00070917805860F971F9093AC078093AB0776
:1046E000C15091F6E5E055954795EA95E1F750936D
:1046F000A8074093A707F5E035952795FA95E1F7C8
:104700003093AA072093A907A5E095958795AA95C8
:10471000E1F79093AC078093AB07CF910C94801690
:104720002F923F924F925F926F927F928F929F92C1
:10473000AF92BF92CF92DF92EF92FF920F931F93AF
:10474000CF93DF93CDB7DEB765970FB6F894DEBF92
:104750000FBECDBF1E861D86188A1F861A8A198A2B
:104760000E943B236091A7077091A807882777FDD7
:104770008095982F0E949E4669837A838B839C83C1
:104780006091A9077091AA07882777FD8095982FD7
:104790000E949E466D837E838F8398876091AB07CE
:1047A0007091AC07882777FD8095982F0E949E46D0
:1047B00069877A878B879C871D8A1B8AE12CF12C5D
:1047C00000E010E08091B2009D89891BE80EF11C89
:1047D000E091B200ED8BFCE4EF16FF0628F08B8928
:1047E0008F5F8B8BE12CF12C0E94A922FE01319668
:1047F0006F01B3E72B2EB5E03B2ECE010D965C0189
:104800001C8AF101819091901F0120E030EC49E772
:1048100054E4F60160817181828193810E94524744
:104820002B013C01B401882777FD8095982F0E94C9
:104830009E469B01AC01C301B2010E949B4520E052
:1048400030E04AE754E40E940346F6016083718336
:10485000828393830E946B46F50120813181261764
:10486000370711F000E010E0F501619371935F01EB
:10487000FC89FF5FFC8B84E0C80ED11CF33009F685
:104880000F5F1F4F093C110520F00E943B2381E080
:1048900001C080E0E7E8F3E13197F1F700C00000E4
:1048A000811104C0FB89F63008F48CCF65960FB6F1
:1048B000F894DEBF0FBECDBFDF91CF911F910F9156
:1048C000FF90EF90DF90CF90BF90AF909F908F9030
:1048D0007F906F905F904F903F902F90089541E0B0
:1048E0006BE680ED0E94862440E467E380ED0E9441
:1048F000862446E080914206481B6AE180ED0E94D2
:10490000862448E16BE180ED0C948624CF93DF93FD
:1049100000D0CDB7DEB74A8369830E9479446981AC
:10492000862F0E94C9444A81842F0E94C9440F9057
:104930000F90DF91CF910C94BA44CF92DF92EF9217
:10494000FF920F931F93CF93DF9300D01F92CDB7A9
:10495000DEB7182FE22E4A835B8369830E94794475
:104960006981862F0E94C94481E0810F0E94B8446A
:104970004A81C42E5B81D52E00E010E0F12C0E158B
:104980001F0584F40F5F1F4F0E151F0519F00E94BD
:10499000E94402C00E940245F6018083FFEFCF1A6E
:1049A000DF0AEDCF0F900F900F90DF91CF911F9105
:1049B0000F91FF90EF90DF90CF900C94BA444F92FC
:1049C0005F926F927F928F929F92AF92BF92CF929F
:1049D000DF92EF92FF92CF93DF93CDB7DEB72897A8
:1049E0000FB6F894DEBF0FBECDBF6B017C01809087
:1049F000A9059090AA05A090AB05B090AC059B01CD
:104A0000AC010E94524720E030E040E05FE30E94AA
:104A100052479B01AC0160E070E080E89FE30E9498
:104A20009A4569837A838B839C834090AD0550902F
:104A3000AE056090AF057090B0059B01AC01C5015B
:104A4000B4010E9452476D837E838F839887A701AC
:104A50009601C301B2010E9452479B01AC016D81D6
:104A60007E818F8198850E949A4560939505709309
:104A700096058093970590939805A7019601C50127
:104A8000B4010E9452476B017C0129813A814B811C
:104A90005C81C301B2010E9452479B01AC01C70176
:104AA000B6010E949B456093790570937A058093C7
:104AB0007B0590937C0528960FB6F894DEBF0FBE59
:104AC000CDBFDF91CF91FF90EF90DF90CF90BF905F
:104AD000AF909F908F907F906F905F904F900895D0
:104AE000CF92DF92EF92FF9269017A0125EF31EACE
:104AF0004BE85CE30E945247A70196010E9452478F
:104B00006B017C0126EA3AE046E85EE30E944E47EC
:104B100018169CF026EA3AE046E85EEBC701B601BB
:104B20000E94FF4587FF11C086EAC82E8AE0D82E72
:104B300086E8E82E8EEBF82E08C096EAC92E9AE099
:104B4000D92E96E8E92E9EE3F92EC701B601FF9013
:104B5000EF90DF90CF9008958F929F92AF92BF9287
:104B6000CF92DF92EF92FF920F931F936B017C0124
:104B70006091890570918A0580918B0590918C05D3
:104B8000A70196010E94702500912C0510912D051A
:104B900020912E0530912F050093A9051093AA05A9
:104BA0002093AB053093AC050091050510910605E7
:104BB00020910705309108050093AD051093AE05CF
:104BC0002093AF053093B0050E94DF2480919505B6
:104BD00090919605A0919705B091980580932C052A
:104BE00090932D05A0932E05B0932F058090790505
:104BF00090907A05A0907B05B0907C058092050589
:104C000090920605A0920705B092080560918D0567
:104C100070918E0580918F0590919005A701960166
:104C20000E947025009130051091310520913205C8
:104C3000309133050093A9051093AA052093AB0585
:104C40003093AC058092AD059092AE05A092AF0571
:104C5000B092B0050E94DF24809095059090960553
:104C6000A0909705B09098058092300590923105FC
:104C7000A0923205B09233058091790590917A0522
:104C8000A0917B05B0917C05809305059093060566
:104C9000A0930705B093080560917705709178059A
:104CA000882777FD8095982F0E949E46A701960140
:104CB0000E9470258092A9059092AA05A092AB054A
:104CC000B092AC05C0902C05D0902D05E0902E053B
:104CD000F0902F05C092AD05D092AE05E092AF05E1
:104CE000F092B0050E94DF24809195059091960581
:104CF000A0919705B0919805809330059093310568
:104D0000A0933205B09333058091790590917A058F
:104D1000A0917B05B0917C0580932C0590932D0587
:104D2000A0932E05B0932F051F910F91FF90EF9048
:104D3000DF90CF90BF90AF909F908F900895CF92CB
:104D4000DF92EF92FF9220E030E044EB52E40E94C9
:104D500052476B017C0120E030E0A901609105051C
:104D60007091060580910705909108050E94FF4506
:104D700087FF18C020E030E0A901C701B6010E94FA
:104D80004E47A701960118162CF460E070E084E30A
:104D900093E404C060E070E084E393EC0E949A45E1
:104DA0006B017C01C701B601FF90EF90DF90CF90BF
:104DB0000895609130057091310580913205909190
:104DC00033050E949F266093A5057093A6058093E6
:104DD000A7059093A80560912C0570912D058091F1
:104DE0002E0590912F050E949F2660937D0570935C
:104DF0007E0580937F059093800508954F925F9282
:104E00006F927F928F929F92AF92BF92CF92DF92DA
:104E1000EF92FF920F931F93CF93DF93CDB7DEB73F
:104E20002C970FB6F894DEBF0FBECDBF0E949C46F4
:104E300020E836E948E15AE40E94034669877A8708
:104E40008B879C8760913F06E62FFF27E7FDF09553
:104E5000ED52F84E649170E080E090E00E949C4634
:104E60006B017C0104E415E029E9622E25E0722E35
:104E7000D8016D917D918D01882777FD8095982FC0
:104E80000E949E464B015C0120E030E040E85FE379
:104E9000C701B6010E944E471816F4F420E030E036
:104EA00040E85FE3C701B6010E949A45F301208103
:104EB0003181428153810E945247A50194010E9491
:104EC0009A45A70196010E940346D3016D937D93F5
:104ED0008D939C93139709C0B7FAB094B7F8B09428
:104EE000F30180829182A282B382F4E06F0E711C82
:104EF00085E00A34180709F0BBCF23EC35EF48E210
:104F00005FE36091990570919A0580919B0590915E
:104F10009C050E94524769837A838B839C836093AC
:104F2000810570938205809383059093840523EC1B
:104F300035EF48E25FE360919D0570919E05809199
:104F40009F059091A0050E9452476D837E838F83B9
:104F50009887609385057093860580938705909365
:104F600088056091730570917405882777FD809599
:104F7000982F0E949E462B013C0160938D057093F3
:104F80008E0580938F0590939005609175057091C3
:104F90007605882777FD8095982F0E949E466B01A5
:104FA0007C016093890570938A0580938B059093AB
:104FB0008C0520914405309145054091460550915E
:104FC0004705E0914805F0914905449F4001459F00
:104FD000900C900C1124B401882777FD8095982FB0
:104FE000229FA001239F500D500D11248A012227DA
:104FF00017FD2095322F600F711F821F931FEE9FA8
:105000009001EF9F300D300D11248901222717FDEB
:105010002095322F600F711F821F931F0E949C46A4
:105020004B015C0120E034EF48E356E40E944E4718
:1050300018160CF06BC020E038E449EA56E4C501CC
:10504000B4010E94FF4587FF61C020E030E040E0EE
:105050005FE36091050570910605809107059091C9
:1050600008050E944E4718160CF050C0809141066A
:105070006BE070E0681B710987FD7395882777FDE9
:105080008095982F0E949E464B015C0129813A81B0
:105090004B815C816091A5057091A6058091A70563
:1050A0009091A8050E949A45A50194010E9403468B
:1050B0009B01AC01C301B2010E949B4560938D0529
:1050C00070938E0580938F05909390052D813E817E
:1050D0004F81588560917D0570917E0580917F0597
:1050E000909180050E949A45A50194010E94034673
:1050F0009B01AC01C701B6010E949B4560938905E5
:1051000070938A0580938B0590938C0569857A85C9
:105110008B859C850E94AC250E94D92620E030E03A
:1051200048EC52EC6091A5057091A6058091A70509
:105130009091A8050E9452470E946B467093920579
:105140006093910520E030E048EC52EC60917D05E1
:1051500070917E0580917F05909180050E94524755
:105160000E946B4670939405609393052C960FB63E
:10517000F894DEBF0FBECDBFDF91CF911F910F918D
:10518000FF90EF90DF90CF90BF90AF909F908F9067
:105190007F906F905F904F9008951092300510921D
:1051A0003105109232051092330510922C051092A1
:1051B0002D0510922E0510922F0580E090E0A0E8BA
:1051C000BFE38093050590930605A0930705B09370
:1051D00008051092A9051092AA051092AB0510922D
:1051E000AC051092AD051092AE051092AF0510926D
:1051F000B0051092A5051092A6051092A705109271
:10520000A80510927D0510927E0510927F051092E0
:1052100080051092CE071092CD0710928500109253
:10522000840010921D0510921C050895CF9380E311
:1052300081B98CEF87B98AE084B982EF8AB918B84E
:10524000149815982B9829985C9A85EF83B98CE06F
:1052500089B92FE588ED93E0215080409040E1F737
:1052600000C0000083B1807F803E21F483EF8AB9C3
:105270000E946F0D82EF8AB98DE089B914BC85E078
:1052800085BD80916E00816080936E0016BC109287
:105290008000809181008260809381001092B00034
:1052A00087E08093B1001092700017BA1092B2009C
:1052B0009AE0909368009FE09BBB95E19093690012
:1052C0008CBB1092CA070E946819C82F20E030E0FA
:1052D00046EA5EE0F901EE0FFF1FE654F84F5183F6
:1052E00040832F5F3F4F28303105A1F724EC39E090
:1052F0003093BB072093BA070E94F61F0E945020EC
:1053000093B1907F903609F071C080EC0E94E71F46
:1053100085E091E00E94472029E130E04AE050E03A
:1053200069E471E08BE390E00E94282285E091E03F
:105330000E94152085E091E00E944720E7E4F6E016
:1053400080E090E04CED55E06CE677E0A0819C01B8
:10535000220F331FA23039F4D901A35CB74F119645
:105360007C936E9306C0D901A35CB74F11965C93F2
:105370004E930196B6968830910541F783B1807FB0
:10538000803679F46FEF8DE398E00E948B0D2FE764
:1053900088E391E0215080409040E1F700C0000098
:1053A000EDCFE7E4F6E080E090E02CE434E04081EB
:1053B000423041F4DC01AA0FBB1FA35CB74F11962A
:1053C0003C932E930196B6968830910581F76FEF46
:1053D0008DE398E00E948B0D2FE788E391E0215048
:1053E00080409040E1F700C00000F1CF2FE78FE44C
:1053F00092E1215080409040E1F700C0000093B15D
:10540000907F903951F580EC0E94E71F85E091E094
:105410000E94472029E130E048E250E069E471E071
:1054200086E091E00E94282285E091E00E9415200C
:1054300085E091E00E9447200E94C0180E948016DB
:1054400080913A060E94ED1F2FE784E89EE12150EB
:1054500080409040E1F700C00000CC2321F180ECB7
:105460000E94E71F85E091E00E9447202DE030E098
:105470004EE150E069E471E083E091E00E9428226F
:1054800025E230E041E250E069E471E084E091E03F
:105490000E94282285E091E00E94152085E091E09D
:1054A0000E94472004C085E091E00E9415202FEF64
:1054B00088E09DE3215080409040E1F700C000006B
:1054C00085E091E00E94472085E091E00E94152050
:1054D0000E94F61F0E9436440E946F240E94CE1044
:1054E00085E091E00E94472080EC0E94E71F29E1BF
:1054F00030E042E150E069E471E087E091E00E9431
:10550000282285E091E00E94152085E091E00E942C
:1055100047200E94D8100E94222E0E941B450E9404
:105520009023811128C085E091E00E94472029E165
:1055300030E049E150E069E471E08DE390E00E94E1
:10554000282285E091E00E9415202FEF88E09DE35E
:10555000215080409040E1F700C00000F89428E01E
:1055600088E190E00FB6F894A895809360000FBE94
:1055700020936000FFCF0E947B4590933505809378
:1055800034050E94543680913B06813029F4809185
:1055900022058460809322058091CA07882369F0E0
:1055A0000E94B1428091290890912A08C3972CF05B
:1055B000809122058160809322050E94CD2881E0A0
:1055C000CF910C94D8301F920F920FB60F921124E6
:1055D0008F939F938091CD079091CE0701969093E2
:1055E000CE078093CD079F918F910F900FBE0F90A4
:1055F0001F9018951F920F920FB60F9211242F93A0
:105600003F938F939F938091E407882319F081E063
:105610008093E5074B9B09C08091840090918500A1
:105620009093D2078093D10714C080918400909109
:1056300085002091D1073091D207821B930B909364
:10564000BD078093BC078091DB05813011F4809306
:10565000CA079F918F913F912F910F900FBE0F908E
:105660001F9018951F920F920FB60F9211242F932F
:105670003F938F939F938091E407882319F081E0F3
:105680008093E5074A9B09C0809184009091850032
:105690009093D4078093D30715C080918400909194
:1056A00085002091D3073091D407821B930B9093F0
:1056B000BF078093BE078091DB05823019F481E03B
:1056C0008093CA079F918F913F912F910F900FBEAA
:1056D0000F901F9018951F920F920FB60F921124E2
:1056E0002F933F938F939F938091E407882319F022
:1056F00081E08093E507489B09C0809184009091E8
:1057000085009093D0078093CF0715C080918400C7
:10571000909185002091CF073091D007821B930B89
:105720009093BB078093BA078091DB05811103C07A
:1057300081E08093CA079F918F913F912F910F90A5
:105740000FBE0F901F9018951F920F920FB60F92D9
:1057500011242F933F938F939F938091E407882385
:1057600019F081E08093E507189B09C080918400BF
:10577000909185009093D8078093D70715C08091AA
:105780008400909185002091D7073091D807821B23
:10579000930B9093C3078093C2078091DB058430FD
:1057A00019F481E08093CA079F918F913F912F91C7
:1057B0000F900FBE0F901F9018952FB7F8948091FF
:1057C0008400909185002FBF08951F920F920FB60D
:1057D0000F9211242F933F934F935F936F937F9377
:1057E0008F939F93AF93BF93EF93FF938091E407C1
:1057F000882319F081E08093E5070E94DD2B20913A
:10580000DA052223D1F01A9B05C09093D607809326
:10581000D50786C02091D5073091D607821B930B00
:105820009093C1078093C0078091DB05833009F016
:1058300077C081E08093CA0773C01A9971C0209124
:10584000E2073091E307AC01421B530B9A012F355D
:105850003A4158F42091E2073091E307AC01421B32
:10586000530B9A012E3E324010F41092E1079093B0
:10587000E3078093E207E091E107F0E0EF54FA4F8D
:10588000E1812091E107222339F0A091E107B0E006
:10589000AF54BA4F2C9101C020E03091E10738306D
:1058A00038F4F0E0EE0FFF1FE153F84F918380834F
:1058B0003091E107332399F03091E107393078F4E2
:1058C00030E0220F331FF901E153F84F408151813D
:1058D000841B950BF901E654F84F918380838091E6
:1058E000E1078F5F8093E1079091E1078091CB07FB
:1058F000891728F48091E1078093CB0709C0909124
:10590000E1078091CB07981303C081E08093CA0719
:1059100080911B05882321F01092CB0710921B0564
:10592000FF91EF91BF91AF919F918F917F916F9177
:105930005F914F913F912F910F900FBE0F901F904D
:1059400018951F920F920FB60F9211242F933F9329
:105950004F935F936F937F938F939F93AF93BF9377
:10596000CF93EF93FF938091E407882319F081E0B0
:105970008093E507C091C6000E94DD2B2091E207CD
:105980003091E3072091E2073091E307AC01421B1D
:10599000530B9A01253C59E0350790F01092B90756
:1059A0001092CC071092E1071092E7071092E607D9
:1059B0001092E0071092DF073093E9072093E80781
:1059C0009093E3078093E2078091B907893150F4FF
:1059D000E091B90781E08E0F8093B907F0E0E65BB4
:1059E000FA4FC0838091DA05823009F090C080912F
:1059F000CC07883109F0FCC0CC2359F081E0CF3CC2
:105A000008F480E091E3899FC00D1124C43009F0AF
:105A1000EFC08091610585FDEBC081E08093CA07EE
:105A200080E090E0FC01EE0FFF1FE654F84F11827A
:105A30001082019688309105A9F7A8E570E0C0E0D2
:105A400060E0B1E021E030E0EB2FF0E0E65BFA4F00
:105A5000808190E0062E02C0959587950A94E2F722
:105A600080FF17C0EC2FF0E0EF54FA4FE181F0E037
:105A7000EE0FFF1FE654F84F80819181A901072E98
:105A800002C0440F551F0A94E2F7842B952B918393
:105A900080836F5F7F5F683011F4BF5F60E07B30B1
:105AA00011F4CF5F70E0A15079F640E050E0FA01C8
:105AB000EE0FFF1FE654F84F208131813450C901A9
:105AC0009595879595958795820F931FB901A3E0CA
:105AD00075956795AA95E1F7860F971FB901B4E010
