S01400004F70656E4165726F56544F4C2E73726563B2
S11300000C94D8150C945E430C941C430C942F440C
S11300100C9401160C94E4430C9401160C94A14323
S11300200C9401160C9401160C9401160C940116F0
S11300300C9401160C9401160C9401160C940116E0
S11300400C9401160C9401160C9405430C9401169F
S11300500C94FD440C9401160C9401160C94011696
S11300600C9401160C9401160C9401160C940116B0
S11300700C9401160C9401160C940116882E9A2ED9
S11300809A2E9A2E8A2E9A2E9A2E9A2E8C2E8E2E56
S1130090902E922E942E962E9C2E9C2E332FE12F52
S11300A0E12F452F532F5E2F5A2F742F812F872F27
S11300B09A2FB24EA64EA84EAA4EAC4EAE4EB04E9D
S11300C0B04E0B4F0F4F134F174F1B4F1F4F244F63
S11300D0314F354F394F3D4F414F454F484F3F50BA
S11300E0435047504B504F50535056505A506750FE
S11300F06A506E50725076507D5080508750355300
S113010037533A533C533E5340534253445347535B
S113011049534B534D5350535253545356535853BE
S11301205A535C535E536053635365536753E757A5
S1130130CB57CE57D157D457D757DA57DD57E05757
S1130140EA6CEA6CB06CCD6CA76CCD6CCD6CFFFF27
S11301500101FF01010101FF0101FFFFFF01FFFF99
S113016001FF01FFFF0101FFFFFFFFFFFF01FF018F
S113017001FF0101FFFF01FFFF010101010101FF77
S1130180FF0101FF01010101FF01FF01FFFFFFFF6B
S1130190FFFF01FF01010001020100020001020151
S11301A0000200020101020000020101020000013C
S11301B0020100020001020100020002010102002A
S11301C0000201010200020001020100020001021A
S11301D0010002000102010002000102010001020B
S11301E003050004060701020003040506070001D5
S11301F002030405060705020601050803070501B5
S11302000241050D000F002200330044004F090194
S113021000030007000F001F000F00070003000188
S113022000081C001C001C001C007F003E001C0079
S113023008000808001C003E007F001C001C001C75
S1130240001C0005FF01FE007C00380010000D407A
S1130250006000700078007C007E007F007E007CDF
S113026000780070006000400001022D0D1D001F89
S1130270004400440044007D00AA00E3011C015D29
S1130280019201CB0204023D0900700000007000DD
S1130290000070000000700000007000000070009A
S11302A0000070000000700000007000000E80FF6D
S11302B00100F0FF0F00F8FF1F007C003E001E004D
S11302C078000E0070000E0070000E0070000E002A
S11302D070001E0078007C003E00F8FF1F00F0FF55
S11302E00F0080FF01000B70007000700070007040
S11302F000700078007000FCFF7F00FEFF7F00FEAE
S1130300FF7F00000070000000700000007000001B
S11303100070000E000078001C007C001C007E00B1
S11303200E0077000E0077000E8073000EC071007F
S11303300EE070001E7870001E3C7000FC1F700000
S1130340F8077000F0037000000070000E00003821
S1130350001C0038001C0070000E0070000E0070BD
S1130360000E1C70000E1C70000E1C70000E1C7021
S1130370000E3E78001C373C00FCF33F00F8E31FFE
S113038000F0C007001000E0010000F0010000FCD4
S1130390010000FE010000DF010080CF0100E0C386
S11303A00100F0C10100F8C001007CC00100FEFFA3
S11303B07F00FEFF7F00FEFF7F0000C0010000C041
S11303C0010000C001000D00003800FE1F3800FECF
S11303D00F7000FE0F70000E0E70000E0E70000EF7
S11303E00E70000E0E70000E1E78000E3C3C000EC7
S11303F0FC1F000EF80F000EE007000E00FE0300C5
S1130400C0FF0F00F0FF1F00F81C3E003C0C7800FA
S11304101C0E70001E0E70000E0E70000E0E70008A
S11304200E1E78000E3C3C001EFC1F0000F80F005E
S113043000E007000E0E0000000E0000000E004059
S1130440000E0070000E007C000E007F000EC01F26
S1130450000EF007000EFC00000E3F0000CE0F005F
S113046000FE030000FE0000003E0000000E00C07D
S11304700700F0E11F00F8F33F00FC3F3C001E1FA3
S113048078000E0E70000E0C70000E1C70000E181A
S113049070001E3C7800FC7F3C00F8F33F00F0E164
S11304A01F0000C007000EE0070000F01F0000F866
S11304B03F78003C3C70001E7870000E7070000E97
S11304C07070000E7078000E7038001E303C007C96
S11304D0381F00F8FF0F00F0FF0300C07F00000189
S11304E002205F1300C300CD00D400E7010C0128F3
S11304F0015F0187018E01A101B401D001F502025F
S11305000215021C02350254026D028902A502C4BE
S113051002E002FF031B033A03590360036D038FD8
S113052003B103D303EC041D04450464048604AB43
S113053004C704E3050B052A053D0553057505911C
S113054005B605D505FD0616063E0660068206A715
S113055006C606EE072207440769078B079B07B404
S113056007C407E9080E081B083408500869088501
S113057008A108B408D008E908F00900091C0923F7
S1130580094E0967098609A209BE09D109EA09FDCC
S11305900A160A320A5D0A790A950AAE0ACA0AD10B
S11305A00AED0300000000000000000002FE6700E6
S11305B0FE6700061F00001F00000000000000008E
S11305C01F00001F00000C00040020040020640031
S11305D0201F00F80400260400206400201F00F8F7
S11305E0040026040020040020000009E03000F08C
S11305F06100986100186300FFFF0318630018622C
S113060000183E00181C0012780000FE01000201D0
S113061000020100020100FE4100787000001C008D
S1130620000700E000003800000E1E00827F0080FA
S11306304000804000804000807F00001E000D00CC
S11306401E003C3F00FC7100C66000C66000C6612D
S1130650007E63003C3600001C00801F00803700D1
S1130660006000004000021F00001F000006C01FC1
S113067000F8FF003CE00107000703000601000446
S1130680060100040300060700073CE001F8FF0030
S1130690C01F0009C600004400006C0000280000D0
S11306A0FF01002800006C0000440000C600000C9C
S11306B0000300000300000300000300000300F82F
S11306C07F00F87F00000300000300000300000324
S11306D0000003000400000300F003007000001099
S11306E000060003000003000003000003000003F1
S11306F00000030002007000007000080000030006
S1130700E00300FC01803F00F00700FE00001F0032
S1130710000300000AF00F00FC3F000C30000660EC
S1130720000660000660000660000C3000FC3F001C
S1130730F00F0008186000186000186000FE7F00C9
S1130740FE7F00006000006000006000090C700083
S1130750067800066C000666000663008E6100FCE5
S11307606000786000006000090C3000066000063C
S11307706000866100866100866100CE73007C3F64
S113078000381E000A000700800700C00700F006BA
S1130790003806001C0600FE7F00FE7F00000600F5
S11307A000060009003000FE6000FE6000C6600024
S11307B0C66000C66000C63100863F00060F000A0E
S11307C0E00F00F03F009C3000CC6000C66000C623
S11307D06000C66000C63100863F00000F000906B5
S11307E00000064000067000067C00060F00C603E9
S11307F000F600003E00000E00000A381E007C3F98
S113080000CE7100C66000C660008661008661008B
S11308104E73007C3F00381E000AF00000FC6100AB
S11308208C63000663000663000663000633000C55
S11308303900FC1F00F007000270700070700004A3
S113084000000370F0037070000010000B00010042
S1130850800300800300C00600C00600600C006036
S11308600C003018003018001830001830000BC08D
S11308700C00C00C00C00C00C00C00C00C00C00C6C
S113088000C00C00C00C00C00C00C00C00C00C0068
S11308900B183000183000301800301800600C00BD
S11308A0600C00C00600C006008003008003000046
S11308B00100080C000006000006670006670086B9
S11308C00100CE0000FC000038000010C00F00F052
S11308D03F003870000CC000848F00C69F01623056
S11308E001222001222001221001E23F01E4BF0184
S11308F00C2000382000F03F00C00F000D00400025
S1130900007800003F00C00700F806003E0600061D
S113091006003E0600F80600C00700003F0000780D
S1130920000040000AFE7F00FE7F008661008661B1
S113093000866100866100C661007C73003C3F0054
S1130940001E000BE00700F81F001C38000C3000EC
S1130950066000066000066000066000066000068F
S113096020000C30000CFE7F00FE7F0006600006B5
S113097060000660000660000660000E70000C3027
S113098000381C00F80F00E0070009FE7F00FE7F1E
S113099000C66000C66000C66000C66000C6600095
S11309A0C66000C6600009FE7F00FE7F008601006D
S11309B0860100860100860100860100860100068A
S11309C000000DE00700F81F003C3C000C30000E56
S11309D0700006600006600006630006630006639C
S11309E0000663000C3F000C3F000AFE7F00FE7F00
S11309F000C00000C00000C00000C00000C0000033
S1130A00C00000FE7F00FE7F000606600006600056
S1130A10FE7F00FE7F0006600006600007006000A5
S1130A20006000066000066000067000FE3F00FEE5
S1130A301F000BFE7F00FE7F00800300C00100E06A
S1130A400300700700381C001C38000E700006609C
S1130A500002400009FE7F00FE7F0000600000608D
S1130A6000006000006000006000006000006000A2
S1130A700CFE7F00FE7F000E0000380000E0010045
S1130A80800700000700E001003800000E0000FEAF
S1130A907F00FE7F000AFE7F00FE7F000E00003C08
S1130AA00000E00000800300001E00007800FE7FCC
S1130AB000FE7F000DE00700F81F001C38000C301A
S1130AC00006600006600006600006600006600024
S1130AD00C30001C3800F81F00E0070008FE7F00FF
S1130AE0FE7F000603000603000603008E0300FCDD
S1130AF00100F800000DE00700F81F001C38000C8E
S1130B00300006600006600006600006E00106E0B2
S1130B10030C30071C3806F81F06E007060BFE7F9F
S1130B2000FE7F0086010086010086010086070022
S1130B30CE0E00FC1C007870000060000040000B2A
S1130B40783000FC7000CE6000866100866100860B
S1130B5061008661008661000633000C3F00001EC0
S1130B60000C060000060000060000060000060057
S1130B7000FE7F00FE7F0006000006000006000065
S1130B800600000600000AFE0F00FE3F0000700091
S1130B90006000006000006000006000007000FE63
S1130BA03F00FE0F000D0200001E0000FC0000E0EC
S1130BB00300801F00007C00006000007C00801F98
S1130BC000E00300FC00001E00000200001106000B
S1130BD0007E0000F80700803F00007800007C00E1
S1130BE0C00F007E00000600007E0000E007000049
S1130BF07E00007000807F00F807007E0000060081
S1130C00000B0240000660001E7800381C00E0075C
S1130C1000800100E00700381E001E780006600016
S1130C200240000C0200000600001E0000780000D4
S1130C30E00000C07F00C07F00E000007800001EDC
S1130C4000000600000200000B0670000678000693
S1130C507C00066E00066700C66300E660007660EE
S1130C60003E60001E60000E600005FFFF07FFFFEE
S1130C7007010004010004010004080300001F0030
S1130C8000FE0000F00700803F0000FC0100E003CC
S1130C9000000305010004010004010004FFFF0734
S1130CA0FFFF070C800000C0000060000038000057
S1130CB00C00000600000600001C00003800006064
S1130CC00000C000008000000C00000200000200D0
S1130CD00002000002000002000002000002000006
S1130CE002000002000002000002000002040100F1
S1130CF00003000007000004000008003C00307EF0
S1130D0000306700306300306300303300E07F0060
S1130D10E07F0009FF7F00FF7F006020003060005B
S1130D20306000306000707000E03F00C00F0008C9
S1130D30800F00E03F006030003060003060003021
S1130D40600030600060300009801F00E03F0070E8
S1130D507000306000306000306000303000FF7F91
S1130D6000FF7F0009800F00E03F00603300306324
S1130D7000306300306300706300E06300C0330040
S1130D8006300000FE7F00FF7F00330000330000C8
S1130D9003000009801F00E03F0670700630600603
S1130DA0306006306006303007F0FF03F0FF0108C2
S1130DB0FF7F00FF7F006000003000003000003043
S1130DC00000F07F00E07F0002F67F00F67F000560
S1130DD0000006300006300006F6FF07F6FF0309A0
S1130DE0FF7F00FF7F00000600000700800F00C0A7
S1130DF0380070700030600010400002FF7F00FF78
S1130E007F000EF07F00F07F0060000030000030B3
S1130E100000300000F07F00E07F00600000300040
S1130E2000300000300000F07F00E07F0008F07F19
S1130E3000F07F006000003000003000003000004F
S1130E40F07F00E07F000A800F00E03F0060300088
S1130E50306000306000306000306000603000E0DE
S1130E603F00800F0009F0FF07F0FF0760600030CB
S1130E706000306000306000707000E03F00C00F20
S1130E800009801F00E03F00707000306000306097
S1130E9000306000303000F0FF07F0FF0706F07FFD
S1130EA000F07F00600000300000300000300000DF
S1130EB008C03100E0630030630030630030660036
S1130EC0306600303E00601C0006300000FE3F002B
S1130ED0FE7F0030600030600030600008F01F00CA
S1130EE0F07F00006000006000006000003000F04F
S1130EF07F00F07F0009100000F00000E007000010
S1130F003E00006000003E00E00700F0000010001A
S1130F10000E300000F00300C03F00007800007CA9
S1130F2000800700F00000F00000C00700003C0053
S1130F30007000C03F00F0030030000009104000C2
S1130F40306000F07800C01D00000700C01D00F0F4
S1130F50780030600010400009100000F00000E04C
S1130F60070600BF0700F001003F00E00700F000A3
S1130F700010000008307000307800307C003066CB
S1130F8000306300F06100F0600070600001022036
S1130F905F0B00C300C600C900D000DF00EA00FFF9
S1130FA0010E01110118011F012A0139013E0145F9
S1130FB001480153015E01690174017F018C0197AD
S1130FC001A201AD01B801C301C601CB01D801E7FB
S1130FD001F401FD020E021B0228023702460251EF
S1130FE0025C026B0278027F0288029502A002AFC3
S1130FF002BC02CB02D602E502F202FF030E031B7F
S11310000328033B034803570364036B0376037D00
S1131010038C039B03A003AB03B603C103CC03D728
S113102003E003EB03F603F90400040B040E0421AC
S1131030042C04370442044D0456045F046804730A
S1131040047E048D049804A304AC04B704BA04C554
S1131050010000017E0103070000000700074000B3
S1131060C8017800CE0178004E000800051801245C
S113107001FF072401C4000A0C00120012008C01B5
S113108060001800C60020012001C00007EC001217
S11310900112012C01C000B000000101070003F897
S11310A000060301040301040603F800050A000412
S11310B0001F0004000A0007200020002000FC019B
S11310C020002000200002000480030320002000F0
S11310D02000018001050003C00030000C00030063
S11310E005FC00020102010201FC000504010401E7
S11310F0FE01000100010584014201220112010CDC
S113110001058400020112011201EC000660005086
S11311100048004400FE014000059E001201120137
S11311201201E20005F800140112011201E00005A9
S11311300200820162001A00060005EC001201128E
S1131140011201EC00051C0022012201A2007C0016
S1131150019801020004980306200020005000506A
S113116000880088000750005000500050005000D4
S113117050005000068800880050005000200020D5
S113118000040200620112000C0008F8000401725D
S1131190028A028A027A0282007C0006C001780078
S11311A0460046007800C00106FE01120112011239
S11311B0011C01E000077800840002010201020121
S11311C00201840007FE01020102010201020184FE
S11311D000780005FE01120112011201120105FE40
S11311E001120012001200020007780084000201BC
S11311F0020122012201E40006FE01100010001089
S1131200001000FE01030201FE01020104000102BC
S1131210010201FE0006FE012000300048008400A7
S1131220020105FE01000100010001000107FE01A9
S113123006001800600018000600FE0106FE010604
S113124000180060008001FE01077800840002019C
S1131250020102018400780005FE0122002200221E
S1131260001C0007780084000201020102038404C8
S1131270780406FE012200220062009C00000106A0
S11312808C001201120122012201C4000702000293
S1131290000200FE0102000200020006FE0000013E
S11312A0000100010001FE00060E007000800180B4
S11312B00170000E00090600780080017800060025
S11312C0780080017800060006860148003000306E
S11312D0004800860107020004000800F00108002D
S11312E0040002000682014201220112010A0106E1
S11312F00103FF07010401040503000C003000C0D2
S11313000000030301040104FF07071000080004A0
S11313100002000400080010000700040004000498
S11313200004000400040004020100020005C000DF
S1131330280128012801F00105FF0108010801081E
S113134001F00005F000080108010801900005F013
S113135000080108010801FF0105F0002801280127
S11313602801B000040800FE010900090005F0008E
S1131370080508050805F80305FF0108000800082A
S113138000F00101F9010300040804F90305FF0159
S1131390400060009000080101FF0109F801080005
S11313A008000800F001080008000800F00105F832
S11313B001080008000800F00105F0000801080118
S11313C00801F00005F807080108010801F000050C
S11313D0F000080108010801F80704F801100008EA
S11313E000080004300128014801C800040800FE78
S11313F0000801080105F800000100010001F801DE
S11314000518006000800160001800077800800162
S113141060001800600080017800050801900060F9
S113142000900008010508007004800370000800A3
S1131430048801480128011801AF40A0A6A4A2EE27
S1131440C82F24AC00F8000706050403020100EBD2
S113145020361A311A2C1A271A221A1D1A181A138E
S11314601ACD23C523CB23C923C723C023BB23B64B
S113147023B123A71CC71CC21CBC1CAF20D723CF7D
S113148023E52106220122FB21F721F321EF210D7F
S11314901D041D151DFD1CF81C5C1A571A521A4D0B
S11314A01A481A421A3C1AE41C3B1A411D391D41C0
S11314B01F3C1F391F2F1F251F8A1A821A7D1A2CC1
S11314C01D271D1E1D6B1CEA215F1C9E1C951C3BC9
S11314D01A3B1A3B1A3B1AEB20E820A21AA91A98C5
S11314E01AFB183B1AD41CCD1CA0238E237B236922
S11314F0235323442330231C231223FF22F022E10D
S113150022D222C322B422A5229622872273225AEF
S11315102241222C2219220B223B1A3B1A3B1A3B52
S11315201A151D0D1D041DFD1CF81CF31CEE1CE9F1
S11315301CE41CDD1CD71C3B1A3B1AB01C901A7D02
S11315401A271C1B1C3B1AD81BCF1BC61BC21BB95A
S11315501BB11BFA1FF31FE91FE21FB41C401C320E
S11315601C2D1C131C081C3B1AB21AA91A0122FBBD
S113157021F721DF209F1FD520CA20BB205A204AF3
S1131580209F208F207E206B203A20D51FC81FBEAD
S11315901FB61FA91F721F601A951F8B1F7F1F6A1A
S11315A01F621F3B1A3B1ADD21D521C721BA21AA8C
S11315B021902187217E216F216121502144213DE9
S11315C021362129211D2113210921FF20EF201D6E
S11315D01F0D1FFD1EEF1EDF1ECF1EBF1EAF1E9F61
S11315E01E8F1E811E731E641E551E481E3B1E2F19
S11315F01E231E0B1EFE1DF01DE21DD51DCA1DBDA2
S11316001DB21DA51DCA1D981DB21D3B1A3B1A3BD8
S11316101A3B1A411D391D331D8519031CFE1BF984
S11316201BF41BEF1BEA1BE51BE01B3B1A3B1A3B9D
S11316301A3B1A3B1A3B1A3B1A3B1A3B1A3B1A3BFE
S11316401A3B1A3B1A3B1A3B1AE41C411D391D3341
S11316501D3B1A3B1A561C4D1C8B1C851C791CF80F
S113166023F223DF20E923E723E523781A741A6D94
S11316701A061AFF19F5190D1AED193B1A3B1AAB84
S113168023D319C6193B1ABF19B119A7199A19906E
S113169019DC233B1A8A193B1A3B1A3B1AA81B9FD5
S11316A01B951B8B1B811B771B6F1B641B591B4DCD
S11316B01B411B361B2B1B1F1B161B0B1B011BF675
S11316C01AEE1AE41AD91ACE1AC51AB91A3B1AD440
S11316D01C6C1977193B1A551F481F461F441FDD00
S11316E021D521C721BA219B21902187217E216FF9
S11316F0216121502144213D21362129211D21131D
S1131700210921FF20EF201D1F0D1FFD1EEF1EDFED
S11317101ECF1EBF1EAF1E9F1E8F1E811E731E6412
S11317201E551E481E3B1E181E231E0B1EFE1DF0BA
S11317301DE21DD51DCA1DBD1DB21DA51DCA1D98C6
S11317401DB21D3B1A3B1A3B1A3B1A3B1A3B1A6843
S1131750185D18521847183C18311826181B183BE6
S11317601A3B1A3B1A3B1A352031202B2022201B0E
S113177020102006205A194819341920191019006C
S1131780193B1AF718F318EF18EB18E618E118DCF0
S113179018D718E41C3B1A3B1AF718C418BC18CC09
S11317A018F718F318EF18EB18E618E118DC18D737
S11317B0188F1D851D7D1D771D711D631D5A1D49C3
S11317C01DE41CF718C418BC18CC18F718F318EF4C
S11317D018EB18E618E118DC18D7188F1D851D7D45
S11317E01D6B1D711D531D5A1D491DE41C3B1A3BE5
S11317F01A3B1A3B1A3B1AB918B618B318B018ADED
S113180018AA18A718A418A0189B18961891188C31
S113181018871882187D187818731854582063682C
S1131820616E2E2038005458206368616E2E203774
S1131830005458206368616E2E203600545820638B
S113184068616E2E2035005458206368616E2E2026
S113185034005458206368616E2E2033005458209D
S11318606368616E2E2032005458206368616E2EC6
S11318702031004158333A004158323A004158313E
S11318803A004745523A005255443A00454C453ACD
S11318900041494C3A005448523A004F55543A00DA
S11318A0506E3A00383A00373A00363A00353A007A
S11318B0343A00333A00323A00313A0043757276D2
S11318C0652044004375727665204300436F6C6C59
S11318D06563746976650041555833004155583243
S11318E00041555831004745415200525544004586
S11318F04C450041494C00544852004352433A007D
S113190047656E657269632043757276652044008D
S113191047656E657269632043757276652043007E
S1131920503220436F6C6C6563746976652043752F
S113193072766500503120436F6C6C656374697610
S113194065204375727665005032205468726F7456
S1131950746C65204375727665005031205468724A
S11319606F74746C6520437572766500456172749A
S113197068207265662E00566572742E20415020D0
S11319807265662E00416C742E00436C65617200B2
S1131990424F442072657365740044697361726DCB
S11319A02074696D6572004E6F207369676E616C97
S11319B0004D616E75616C2064697361726D0052D3
S11319C065626F6F740052454D4F56452050524F1B
S11319D05053005741524E494E47202D20457261C5
S11319E07365732073657474696E6773004F7074E4
S11319F0696F6E7300547269636F7074657200511D
S1131A0075616420500051756164205800426C6116
S1131A106E6B00332E395600332E385600332E3772
S1131A205600332E365600332E355600332E345698
S1131A3000332E335600332E3256000032363048EF
S1131A407A00313834487A003934487A00343448DA
S1131A507A003231487A003130487A0035487A00C9
S1131A604D505536303530204C50463A0073696736
S1131A706E616C006C6F770068696768004869671D
S1131A80680041726D61626C650041726D6564004D
S1131A9053796E63205243005265765363616C65DB
S1131AA064005363616C65640052657665727365A6
S1131AB064004E6F726D616C0052696768742D46E4
S1131AC0726F6E740052696768742D5570005269A4
S1131AD06768742D4261636B0052696768742D44B2
S1131AE06F776E004C6566742D4261636B004C65C4
S1131AF066742D5570004C6566742D46726F6E7455
S1131B00004C6566742D446F776E0046726F6E7478
S1131B102D4C6566740046726F6E742D55700046C8
S1131B20726F6E742D52696768740046726F6E74BA
S1131B302D446F776E00426F74742E2D4C6566745D
S1131B4000426F74742E2D46726F6E7400426F746F
S1131B50742E2D526967687400426F74742E2D427E
S1131B6061636B004261636B2D5269676874004264
S1131B7061636B2D5570004261636B2D4C65667417
S1131B80004261636B2D446F776E00546F702D5269
S1131B906967687400546F702D46726F6E740054D8
S1131BA06F702D4C65667400546F702D52656172B0
S1131BB0005069746368557000536964657761798E
S1131BC0730041667400496E7665727465640056EC
S1131BD06572746963616C00466F72776172640048
S1131BE04F555438004F555437004F555436004F15
S1131BF0555435004F555434004F555433004F5508
S1131C005432004F555431002844697361726D6534
S1131C106429002841726D65642900666F7220731F
S1131C2074617475732E00507265737300446F6E23
S1131C306500486F6C642061732073686F776E0071
S1131C404E6F205258207369676E616C007365741F
S1131C5074696E6773005570646174696E670043DC
S1131C60616C2E206661696C656400455343206392
S1131C70616C69627261746500486F6C642073748E
S1131C8065616479005265736574004F70656E41D7
S1131C9065726F32004F63637572726564004272DD
S1131CA06F776E6F75740044697361726D6564005B
S1131CB04C6F770042617474657279004D6F64658E
S1131CC06C004C6F7374004572726F7200536967D5
S1131CD06E616C004E6F00456C65762E0054687220
S1131CE06F742E004E6F6E65004155583300415598
S1131CF0583200415558310047656172005275648D
S1131D0064657200456C657661746F720041696C3C
S1131D1065726F6E005468726F74746C65005371F1
S1131D20727453696E650053696E65004C696E6523
S1131D306172004D6F746F7200442E536572766F3A
S1131D4000412E536572766F00416C742E206461DD
S1131D506D7000414C2059617700414C20506974EA
S1131D60636800414C20526F6C6C00416363205ADD
S1131D70004163632059004163632058004779722E
S1131D806F596177004779726F50697463680047CF
S1131D9079726F526F6C6C00503220536F7572639E
S1131DA06520423A00503120536F757263652042BA
S1131DB03A00503220566F6C756D653A00503220EF
S1131DC0536F7572636520413A00503120566F6C31
S1131DD0756D653A00503120536F7572636520410B
S1131DE03A00503220416C742E2064616D703A00C8
S1131DF0503120416C742E2064616D703A00503271
S1131E0020506974636820414C3A00503120506975
S1131E1074636820414C3A00503120596177204165
S1131E204C3A00503220526F6C6C20414C3A0050B6
S1131E303120526F6C6C20414C3A00503220596171
S1131E4077206779726F3A005031205961772067A3
S1131E5079726F3A00503220506974636820677950
S1131E60726F3A0050312050697463682067797248
S1131E706F3A00503220526F6C6C206779726F3A5F
S1131E8000503120526F6C6C206779726F3A0050A9
S1131E9032205275642E20766F6C756D653A005051
S1131EA031205275642E20766F6C756D653A005042
S1131EB03220456C652E20766F6C756D653A005046
S1131EC03120456C652E20766F6C756D653A005037
S1131ED0322041696C2E20766F6C756D653A005026
S1131EE0312041696C2E20766F6C756D653A005413
S1131EF072616E732E2063757276653A00503220DB
S1131F005468722E20766F6C756D653A00503120DE
S1131F105468722E20766F6C756D653A0044657650
S1131F206963653A0050312E6E202D2050320050E6
S1131F3031202D2050312E6E0050320050312E6E43
S1131F400050310020002000503120726566726E0E
S1131F5063652E3A005031206F7269656E746E2E7F
S1131F603A0042757A7A65723A0050726573657404
S1131F703A004C6F77205620616C61726D3A0041D3
S1131F804C20636F72726563743A004779726F20F4
S1131F904C50463A004163632E204C50463A005060
S1131FA0574D20726174653A0044697361726D2003
S1131FB074696D653A005361666574793A00436FDC
S1131FC06E74726173743A005461696C207369743D
S1131FD07465723A004F7269656E746174696F6EEC
S1131FE03A00437573746F6D004D756C7469706C51
S1131FF0657800467574616261004A522F537065BA
S11320006B7472756D00486F54542053554D4400E1
S11320104D6F646520422F55444900587472656DB4
S113202065005370656B7472756D00532D42757342
S11320300050574D004350504D0041636356657244
S1132040742066696C7465723A00496E626F756ECD
S113205064207472616E732E3A004F7574626F75EA
S11320606E64207472616E732E3A005669627261F6
S113207074696F6E20646973706C61793A0054728C
S1132080616E736974696F6E20686967683A005499
S113209072616E736974696F6E206D69643A00547D
S11320A072616E736974696F6E206C6F773A005455
S11320B072616E736974696F6E3A0050726F66690B
S11320C06C65206368616E2E3A0043682E206F723F
S11320D06465723A0050574D2073796E633A00522A
S11320E05820747970653A004F4E004F4646005AA6
S11320F02D617869732049206C696D69743A005ABE
S11321002D6178697320493A005A2D6178697320EA
S1132110503A00596177207472696D3A00596177B9
S1132120204920726174653A005961772049206C16
S1132130696D69743A0059617720493A00596177A9
S113214020503A005069746368207472696D3A00D3
S11321505069746368206175746F6C6576656C3A58
S1132160005069746368204920726174653A0050B4
S1132170697463682049206C696D69743A00506918
S113218074636820493A00506974636820503A00C7
S1132190526F6C6C207472696D3A005961772061DA
S11321A075746F6C6576656C3A00526F6C6C206167
S11321B075746F6C6576656C3A00526F6C6C20496F
S11321C020726174653A00526F6C6C2049206C690E
S11321D06D69743A00526F6C6C20493A00526F6C0E
S11321E06C20503A00496E762E0043616C2E0049F3
S11321F04D55004163630059617700506974636809
S113220000526F6C6C004779726F0032342E204597
S113221072726F72206C6F670032332E20496E2FFA
S11322204F757420646973706C61790032322E20AA
S1132230437573746F6D2043682E206F72646572EA
S11322400032312E20506F732E20536572766F202A
S11322507472766C2E202825290032302E204E658B
S1132260672E20536572766F207472766C2E202848
S113227025290031392E20536572766F20646972E6
S1132280656374696F6E0031382E204F55543820C1
S11322904D697865720031372E204F555437204DE3
S11322A0697865720031362E204F555436204D69B9
S11322B07865720031352E204F555435204D69789C
S11322C065720031342E204F555434204D697865A1
S11322D0720031332E204F555433204D6978657286
S11322E00031322E204F555432204D6978657200EA
S11322F031312E204F555431204D697865720031AB
S1132300302E204F7574707574206F666673657413
S11323107300392E2043757276657300382E20467B
S11323206C696768742070726F66696C652032002E
S1132330372E20466C696768742070726F66696C0A
S113234065203100362E204C6576656C206D6574F1
S1132350657200352E2053656E736F722063616C55
S11323606962726174696F6E00342E2053746963FC
S11323706B20706F6C617269747900332E20526522
S113238063656976657220696E7075747300322EA8
S11323902052656365697665722073657475700093
S11323A0312E2047656E6572616C0041626F7274F4
S11323B00053617665004465662E004261636B00DC
S11323C04D656E7500450044004300420041004ADB
S11323D069747465723A00506F733A0042617474A0
S11323E06572793A0030002E0050726F66696C6530
S11323F03A004D6F64653A0056657273696F6E3AC0
S113240020312E3500010101FF0101FFFF0101FF11
S113241001FF0101FF01FFFFFFFFFFFF0101FFFFBC
S1132420FFFFFFFF01FF0101FF01FF0101FFFF01AA
S113243001FF010101FFFF01FFFFFF01FFFF01FF9A
S1132440010101010101FFFF01FFFF010100010280
S11324500100020001020100020201000200010267
S1132460010002000100010201000200010201005A
S11324700202010002000102010002000101020047
S11324800002010102000002010102000002010138
S11324900200000201E17A0841C3F59040295C1F63
S11324A040713DCA3F52B89E3F0000803F0000800B
S11324B03F0000803F0000B841AE4739413333BB91
S11324C04066664640C3F5E83FCDCCAC3F52B89E6B
S11324D03F0000803F0007010100000701010100E7
S11324E007010102000701010300070101040007BD
S11324F00101050007010106000701010746004626
S11325000046004600460046004600460069006951
S113251000690069006900690069006900006401DC
S11325200000006401001100640100210064010046
S1132530320064010042006401005300640100643D
S113254000000101000064010000006401001100AA
S1132550640100210064010032006401004200644F
S1132560010053006401006400000101009C640147
S1132570009C9C640100BE9C640100DF9C6401001B
S1132580009C640100219C640100429C640100647D
S113259000000101009C6401009C9C640100BE9C3D
S11325A0640100DF9C640100009C640100219C64C0
S11325B00100429C6401006400000101009C64016C
S11325C0009C9C640100BE9C640100DF9C640100CB
S11325D0009C640100219C640100429C640100642D
S11325E004140101149C6401009C9C640100BE9CC1
S11325F0640100DF9C640100009C640100219C6470
S11326000100429C640100640414010114800080F0
S113261000800080008000800000000000000000B6
S11326200000000000030F1B27007F010028007F2B
S113263001000A007D01000A0007010002007F0179
S1132640000A817F010000007F010028007F010053
S11326500A007D01000A0007010002007F01000A50
S1132660817F010000007F01003C007F0100280001
S11326707D0100190007010002817F010000007F35
S1132680010028007F010014007D01000A55005557
S1132690005500550055005500550055005500558E
S11326A0005500550055005500550055005500557E
S11326B0005500550000000000000000000000006C
S11326C00000000000000000000000000000000006
S11326D000000000000000000000000000000201F3
S11326E00102007D010064007D010064000201011B
S11326F000837D010000837D010000837D010000D3
S1132700837D010000837D010000837D01000000C2
S113271002010100000201010000020101000002A7
S11327200101000002010100000201010000020198
S11327300100000201010000020101000002010188
S11327400000020101000002010100011401011452
S1132750837D0100000114010114837D0100000147
S113276014010114837D0100000114010114837D0F
S113277001000055005C005C005C005C005C005CD7
S1132780005C005C005C005C005C005C005C005C65
S1132790005C005C005C005C005C005C005C004D64
S11327A0004D004D004D004D004D004D004D00E228
S11327B000000000003800000000000000000000DD
S11327C00000004400440044004400440044004429
S11327D00044004400440044004400BA010000A541
S11327E0010000BA010000A5010000E200000000A1
S11327F00038000000000000000000000000004459
S113280000440044004400440044004400440044A4
S113281000440044004400A5010000A5010000A5F7
S1132820010000A5010000837D010000837D0100FB
S113283000837D010000837D010000837D01000091
S1132840837D010000837D010000000001010083FD
S11328507D010000837D010000837D010000837DF4
S1132860010000837D010000837D010000837D0160
S113287000000000010100837D010000837D010050
S113288000837D010000837D010000837D01000041
S1132890837D010000837D010000000001010083AD
S11328A07D010000837D010000837D010000837DA4
S11328B0010000837D010000837D010000837D0110
S11328C000000000010100837D010000837D010000
S11328D000837D010000837D010000837D010000F1
S11328E0837D010000837D0100000000010100835D
S11328F07D010000837D010000837D010000837D54
S1132900010000837D010000837D010000837D01BF
S113291000000000010100837D010000837D0100AF
S113292000837D010000837D010000837D010000A0
S1132930837D010000837D0100000000010100830C
S11329407D010000837D010000837D010000837D03
S1132950010000837D010000837D010000837D016F
S113296000000000010100800080008000800080E1
S113297000800080008000000000000000000000D3
S113298000000000000000000101010083000103B9
S11329909C007D0103645000500050005000500022
S11329A050005000500050005000500050005000A3
S11329B05000500050005000500050005000500093
S11329C05000500050008D008D008D008D008D0052
S11329D08D008D008D00000000000000000000004C
S11329E000000000000000000000000000000000E3
S11329F0000000000000040506070A0B08090C0D7E
S1132A000E0F0203000111121310171415160006FD
S1132A10010102000201010200040101040003019A
S1132A200100000701010400280100000028010042
S1132A3000006301000001630100320164010064CD
S1132A400001010100007F010014001701010000D2
S1132A50020101001C320100240001010101007F78
S1132A6001001E0008010100000601010300070126
S1132A7001020007010107020B0100060003010423
S1132A800000010101014100410041003C004B00F4
S1132A905F005F005F005F005F005F005F00460053
S1132AA043004300430050005000500050005000C9
S1132AB05000500050008C017600690082006900CB
S1132AC00000000000000000000044000000270196
S1132AD0400100003500000000002500250025000D
S1132AE0000011014400000D1216191C1F21232699
S1132AF028292B2D2F303233353638393A3B3D3E99
S1132B003F404142434445464748494A4B4C4D4D5A
S1132B104E4F505151525353545555565757585878
S1132B2059595A5A5B5B5C5C5D5D5E5E5E5F5F5FDC
S1132B306060606161616262626262636363636375
S1132B406363646464646464646464000203050627
S1132B50080A0B0D0E101113141617191A1C1D1F39
S1132B60202223252628292B2C2D2F3032333436AE
S1132B7037383A3B3C3D3F4041424344464748494D
S1132B804A4B4C4D4E4F505152535454555657582E
S1132B9058595A5A5B5C5C5D5E5E5F5F6060606161
S1132BA061626262636363636364646464646464EF
S1132BB011241FBECFEFD0E1DEBFCDBF14BE0FB6D0
S1132BC0F894A895809160008861809360001092C9
S1132BD060000FBE15E0A0E0B1E0E0E0F1EE02C05D
S1132BE005900D92A632B107D9F729E0A6E2B5E027
S1132BF001C01D92A53AB207E1F70E94A52E0C94DC
S1132C007E700C94000000000895FDDFFCDFFBDF04
S1132C10FADF0895CF935898C6E70E941716589A7A
S1132C20CAE70E9417168A95B1F7CF91089500C09C
S1132C3000C000C000C000C000C000C000C0000050
S1132C40CA95A9F70895F62EEF93FF93AF93BF9318
S1132C50CF93DF930F931F932F933F934F935F93E0
S1132C606F937F93E82FF92F8F939F93A191B19145
S1132C70A65CB040AF93BF93A7707A2FA191B19196
S1132C80AE5BB040AF93BF93A7706A2FA191B1918F
S1132C90A65BB040AF93BF93A7705A2FA191B19197
S1132CA0AE5AB040AF93BF93A7704A2FA191B19190
S1132CB0A55AB040AF93BF93A7703A2FA191B19199
S1132CC0AD59B040AF93BF93A7702A2FA191B19192
S1132CD0A559B040AF93BF93A7701A2FA191B1919A
S1132CE0AD58B040AF93BF93A7700A2F972F0E949F
S1132CF09117F0FC469A0E949D17962F0E949117F7
S1132D00F1FC449A0E949D17952F0E949117F2FCA2
S1132D10429A0E949D17942F0E949117F3FC439AA4
S1132D200E949D17932F0E949117F4FC149A0E94FD
S1132D309D17922F0E949117F5FC159A0E949D17DA
S1132D40912F0E949117F6FC459A0E949D17902F8F
S1132D500E949117F7FC479A0E949D170E947017D2
S1132D600E9470170E947017BF91AF910E948A173A
S1132D700A2FBF91AF910E948A171A2FBF91AF916A
S1132D800E948A172A2FBF91AF910E948A173A2F67
S1132D90BF91AF910E948A174A2FBF91AF910E94B1
S1132DA08A175A2FBF91AF910E948A176A2FBF9139
S1132DB0AF910E948A177A2FCFEFD0E00024715090
S1132DC019F446980C94E61600C000C0615019F43A
S1132DD044980C94ED1600C000C0515019F4429868
S1132DE00C94F41600C000C0415019F443980C949C
S1132DF0FB1600C000C0315019F414980C9402174B
S1132E0000C000C0215019F415980C94091700C093
S1132E1000C0115019F445980C94101700C000C05C
S1132E20015019F447980C94171700C000C00E9471
S1132E307917C150D00911F00C94DF169F918F912E
S1132E407F916F915F914F913F912F911F910F91BE
S1132E50DF91CF91BF91AF91FF91EF9108950F93BF
S1132E601F932F930CEF18E00024803071F0813011
S1132E7079F0823081F0833089F0843091F08530AC
S1132E8099F08630A1F08730A9F0469A0C945D172A
S1132E90449A0C945D17429A0C945D17439A0C94CF
S1132EA05D17149A0C945D17159A0C945D17459A46
S1132EB00C945D17479A0C945D1700C000C000C0C5
S1132EC000C000C000C06150700919F420E028B9A6
S1132ED022B90150100989F72F911F910F9108957C
S1132EE00F9305E600C000C000C00150D9F70F9150
S1132EF008950F9309E000C000C000C00150D9F745
S1132F00000000C000C00F91089500C000C000C0C0
S1132F1000C00895B695A795B695A795B695A795BB
S1132F200895C7E09770C92731F00E948517CA95A4
S1132F3009F0FBCF00C000000895C92FC77031F01D
S1132F400E948517CA9509F0FBCF00C008950F931E
S1132F501F93CF93DF93CDB7DEB72C970FB6F894BA
S1132F60DEBF0FBECDBF26E0AE014F5F5F4F6BE308
S1132F7080ED0E94193C898190E0982F88272A814E
S1132F80820F911D98878F838B8190E0982F8827DB
S1132F902C81820F911D9195819591099A8789873A
S1132FA08D8190E0982F88272E81820F911D9C8718
S1132FB08B87409163082091D8066AE675E0A6E7FE
S1132FC0B5E003E04002A001112413E021029001C6
S1132FD0112480E090E0FC01E40FF51FEA56FE4F57
S1132FE0E491EE0FFF0B01E010E00C0F1D1FE00F4A
S1132FF0F11F0680F781E02D8F01E6E01595079516
S1133000EA95E1F7FB0101931193BF01FC01E20F83
S1133010F31FEA56FE4FE491EE0FFF0B01E010E0C0
S11330200C0F1D1FE00FF11F0680F781E02D16E045
S1133030F595E7951A95E1F7ED93FD9301968330A5
S1133040910549F62C960FB6F894DEBF0FBECDBF9E
S1133050DF91CF911F910F9108954F925F926F92DC
S11330607F928F929F92AF92BF92CF92DF92EF9214
S1133070FF920F931F93CF93DF930E94A717209182
S1133080390820FD05C010922108109220080EC0B6
S11330908091220890912308409126085091270896
S11330A0841B950B909321088093200822FD05C072
S11330B010925608109255080EC0809157089091AE
S11330C0580820915B0830915C08821B930B909305
S11330D05608809355086AE6662E65E0762E76E7F4
S11330E0C72E75E0D72E01E518E0E0E7EE2EE5E007
S11330F0FE2EC0E0D0E0F4E64F2E512C8091D9068C
S11331003091D806882309F44CC080916308082EB6
S1133110000C990BFC01EE0FFF1F8E0F9F1F8C0FED
S11331209D1FFC01E25BFE4F2491F301408151811C
S1133130F801F59780819181481B590B2403C00144
S1133140259F900D1124E32F330FFF0B9F01220FB6
S1133150331FE20FF31FEC0FFD1FE25BFE4F2491C0
S1133160F60140815181F80160817181461B570B42
S113317024034001259F900C11242091380530919F
S11331803905B201621B730B0E945F595C016091A7
S1133190380570913905C4010E945F598A0D9B1D41
S11331A01AC0E32F330FFF0BCF01880F991FE80FCD
S11331B0F91FEC0FFD1FE25BFE4F2491F6014081E5
S11331C05181F80180819181481B590B2403C0016E
S11331D0259F900D1124F70191838083F2E06F0EF7
S11331E0711C82E0C80ED11C0E5F1F4FE2E0EE0E90
S11331F0F11C219719F0C1E0D0E080CF8091D9066D
S11332009091D80660917A0570917B05409155089C
S113321050915608882309F444C0E09163080E2EA7
S1133220000CFF0B9F01220F331FE20FF31FE05B23
S1133230FE4F249100916E0510916F052003D0017B
S1133240219FB00D11242091200830912108A21B48
S1133250B30BE92F990FFF0BCF01880F991FE80FCC
S1133260F91FE05BFE4F249126038001279F100D78
S11332701124041B150B809138059091390564E6DF
S113328070E0681B790BCD010E945F59EC016091DD
S1133290380570913905C8010E945F598C0F9D1F34
S11332A012C0E92F990FFF0BCF01880F991FE80F68
S11332B0F91FE05BFE4F24912603C001279F900D68
S11332C01124841B950B909375058093740580914C
S11332D0D906C0915708D09158080091550810910B
S11332E05608882309F45CC0C0902906D0902A06A9
S11332F0E0902B06F0902C068091220890912308F0
S11333002091200830912108821B930BBC01990F56
S1133310880B990B0E943D6E9B01AC01C701B6015D
S11333200E94226D0E94056E4B015C01C01BD10BF3
S1133330BE01DD0F880B990B0E943D6E9B01AC0111
S1133340C701B6010E94226D0E94056E6B017C01CB
S1133350809138059091390524E630E0B901681B65
S1133360790BC4010E945F598C01609138057091FA
S11333703905C6010E945F59EC01B801110F880B91
S1133380990B0E943D6E6B017C01BE01DD0F880B21
S1133390990B0E943D6E9B01AC01C701B60113C09D
S11333A0BE01601B710B072E000C880B990B0E9449
S11333B03D6E9B01AC016091290670912A068091B3
S11333C02B0690912C060E94226D60932605709323
S11333D027058093280590932905DF91CF911F91AC
S11333E00F91FF90EF90DF90CF90BF90AF909F90A0
S11333F08F907F906F905F904F9008951F93CF931D
S1133400DF9300D000D000D0CDB7DEB71A82198286
S11334101C821B821E821D82209138053091390541
S11334208111E0C02036310524F48091D906811140
S113343063C010E20E94A71729813A818091760522
S113344090917705820F931F9A8389832B813C8106
S11334508091780590917905820F931F9C838B83CB
S11334602D813E8180917A0590917B05820F931F77
S11334709E838D838FE493EC0197F1F700C00000E5
S11334801150C1F6FE0131969E01295F3F4F8081A4
S11334909181409665E0959587956A95E1F78193CA
S11334A09193E217F30799F789819A8190935208CF
S11334B0809351088B819C81909354088093530886
S11334C0E091D8060E2E000CFF0BCF01880F991F38
S11334D0E80FF91FE05BFE4F24914D815E812403C8
S11334E0C001259F900D112490935808809357088C
S11334F080913908886066C0263031050CF047C1D8
S113350010E20E94A71729813A8180916A0590915F
S11335106B05820F931F9A8389832B813C81809151
S11335206C0590916D05820F931F9C838B832D8175
S11335303E8180916E0590916F05820F931F9E834B
S11335408D838FE493EC0197F1F700C000001150D4
S1133550C1F6FE0131969E01295F3F4F8081918122
S1133560409645E0959587954A95E1F78193919327
S1133570E217F30799F789819A8190931D08809344
S11335801C088B819C8190931F0880931E08E091F6
S113359063080E2E000CFF0BCF01880F991FE80F54
S11335A0F91FE05BFE4F24914D815E812403C0012D
S11335B0259F900D112490932308809322088091D5
S11335C039088260809339080E9453262B9A9FE71A
S11335D024E88EE1915020408040E1F700C00000D3
S11335E02B98D5C0809139082036310524F4909168
S11335F0D906911159C083FFCAC010925A0810927B
S1133600590810E20E94A7172091590830915A08CE
S113361080917A0590917B05820F931F90935A08AD
S1133620809359088FE493EC0197F1F700C00000F0
S1133630115041F7E091D8060E2E000CFF0BCF017C
S1133640880F991FE80FF91FE05BFE4F249140910A
S1133650590850915A08405F5F4FB5E0559547951A
S1133660BA95E1F72403B001259F700D11247093DE
S11336705A086093590877FF8AC08091570890913F
S113368058089C01261B370B3595279530935C0809
S113369020935B08821B930B9093560880935508E4
S11336A080913908846058C081FF71C01092250848
S11336B01092240810E20E94A71720912408309148
S11336C0250880916E0590916F05820F931F90934A
S11336D02508809324088FE493EC0197F1F700C048
S11336E00000115041F7E09163080E2E000CFF0B0F
S11336F0CF01880F991FE80FF91FE05BFE4F24915B
S11337004091240850912508405F5F4F65E055952E
S113371047956A95E1F72403B001259F700D1124A4
S1133720709325086093240877FF31C080912208A4
S1133730909123089C01261B370B359527953093D0
S1133740270820932608821B930B909321088093CB
S11337502008809139088160809339080E9453269B
S11337602B9A9FE724E88EE1915020408040E1F7B6
S113377000C000002B9885E026960FB6F894DEBFB3
S11337800FBECDBFDF91CF911F910C94D1502696DF
S11337900FB6F894DEBF0FBECDBFDF91CF911F915E
S11337A0089541E06BE680ED0E94023C48E06CE144
S11337B080ED0C94023C8FEF80937E0010927B008E
S11337C0089580937C0086EC80937A0080917A003F
S11337D086FDFCCF0895CF92DF92EF920F93CF93A3
S11337E0DF93CBE0D0E01F9B82C00E9490690E94CF
S11337F0806A0E942D1860E070E0CB010E94793E3F
S1133800219789F720E030E040E052E460912506FA
S11338107091260680912706909128060E94226DB9
S11338200E94056E6B0120E030E040E852E46091B4
S113383021067091220680912306909124060E940D
S1133840226D0E94056EEB01D7FC08C081E4C81606
S1133850D10434F080E4C82ED12C02C0C12CD12C68
S1133860D7FD06C0C138D1052CF0C0E8D0E002C0B5
S1133870C0E0D0E027E330E042E050E06FEF71E0D9
S11338808CE090E00E948C38EE24E39400E420E87D
S113389040E060E080E091E00E94AD3705E125E181
S11338A046E166E380E091E00E94AD3708E320E45E
S11338B048E060E480E091E00E940F3700E220E6F7
S11338C040E260E280E091E00E940F3701E028E0EE
S11338D04C2D6C2F80E091E00E94FC3780E091E059
S11338E00E947B3680E091E00E94B0367ACFDF916F
S11338F0CF910F91EF90DF90CF9008952F923F9248
S11339004F925F926F927F928F929F92AF92BF92EB
S1133910CF92DF92EF92FF920F931F93CF93DF9397
S1133920CDB7DEB7A5970FB6F894DEBF0FBECDBFF7
S11339300E9493480AE0202E312C88EE482E83E022
S1133940582E95E0A92EB12C24E1622E712C34E678
S1133950832E912C1F9B2EC30E9490690E948B3949
S11339600E942D180E94274416BC20912F053091E7
S1133970300520912F05309130056C01C21AD30A0D
S11339809093300580932F0580910109909102094D
S1133990E12CF12C029788F08091010990910209A1
S11339A0A0E0B0E01FE0880F991FAA1FBB1F1A9563
S11339B0D1F7C80ED91EEA1EFB1E109202091092FE
S11339C00109C701B6010E94793EC701B6010E94F0
S11339D046630E94B7660E94806A0E943A5B0E9416
S11339E0405908EE16E0780120E030E0F901EE0FCE
S11339F0FF1FDF01AB56B64F8D919C91D7014C91BF
S1133A00423051F0BC01665A7E40CB0195958795B2
S1133A10BC0164527A4F08C0880F991F880F991F00
S1133A200596B1010E94736FEB56F64F7183608364
S1133A302F5F3F4FB2E2EB0EF11C28303105B1F697
S1133A40E9E3F6E020E030E0A901440F551FDA0174
S1133A50AB56B64F0D90BC91A02D838594858A17E3
S1133A609B073CF061857285CD01A617B7070CF45E
S1133A70CB01DA01AB56B64F11969C938E932F5F10
S1133A803F4F349628303105F9F6809181099091A1
S1133A908209C2972CF0FE01719620E030E014C038
S1133AA080E090E0F8012081223039F4FC01EE0F2F
S1133AB0FF1FEB56F64F5182408201960E5D1F4F59
S1133AC08830910579F7E7CFD901AA0FBB1FAB5610
S1133AD0B64F8D919C91AC014C5D55405183408310
S1133AE057FD03C08A5D954002C08E5D9540B501C7
S1133AF00E94736F718360832F5F3F4F329628302B
S1133B00310511F7AE014F5F5F4F7A0100E010E01D
S1133B10F801EE0FFF1FED57F64F60817181072EFC
S1133B20000C880B990B0E943D6E20E030E040E2CF
S1133B3051E40E94936D0E94056ED7016D937D93AD
S1133B407D010F5F1F4F0830110511F723E030E0AE
S1133B5040E050E06DE87FE08EED91E00E948C380B
S1133B602DE030E040E050E06DE87FE08FED91E043
S1133B700E948C3827E130E040E050E06DE87FE0BF
S1133B8080EE91E00E948C3821E230E040E050E089
S1133B906DE87FE081EE91E00E948C382BE230E00A
S1133BA040E050E06DE87FE082EE91E00E948C38C6
S1133BB025E330E040E050E06DE87FE083EE91E003
S1133BC00E948C388091810990918209B3010E94EE
S1133BD0736FCB014AE062EC75E00E941A7023E037
S1133BE030E049E150E06DE87FE00E9411634AE073
S1133BF062EC75E08B819C810E941A702DE030E0AC
S1133C0049E150E06DE87FE00E9411634AE062EC14
S1133C1075E08D819E810E941A7027E130E049E1B0
S1133C2050E06DE87FE00E9411634AE062EC75E0C9
S1133C308F8198850E941A7021E230E049E150E0BA
S1133C406DE87FE00E9411634AE062EC75E08985CB
S1133C509A850E941A702BE230E049E150E06DE849
S1133C607FE00E9411634AE062EC75E08B859C85DD
S1133C700E941A7025E330E049E150E06DE87FE0EE
S1133C800E94116323E030E040E350E06DE87FE000
S1133C9084EE91E00E948C382DE030E040E350E067
S1133CA06DE87FE085EE91E00E948C3827E130E0FA
S1133CB040E350E06DE87FE08DED91E00E948C38A8
S1133CC021E230E040E350E06DE87FE084ED91E0F4
S1133CD00E948C382BE230E040E350E06DE87FE056
S1133CE085ED91E00E948C3825E330E040E350E01C
S1133CF06DE87FE086ED91E00E948C384AE062EC4A
S1133D0075E08D859E850E941A7023E030E047E4BB
S1133D1050E06DE87FE00E9411634AE062EC75E0D8
S1133D208F8598890E941A702DE030E047E450E0B6
S1133D306DE87FE00E9411634AE062EC75E08989D6
S1133D409A890E941A7021E230E049E350E06DE85C
S1133D507FE00E9411634AE062EC75E08B899C89E4
S1133D600E941A702BE230E049E350E06DE87FE0F6
S1133D700E9411634AE062EC75E08D899E890E947D
S1133D801A7025E330E049E350E06DE87FE00E94DB
S1133D90116323E030E04EE550E06DE87FE087ED0D
S1133DA091E00E948C382DE030E04EE550E06DE863
S1133DB07FE088ED91E00E948C3827E130E04EE509
S1133DC050E06DE87FE089ED91E00E948C3821E2BB
S1133DD030E04EE550E06DE87FE08AED91E00E942E
S1133DE08C382BE230E04EE550E06DE87FE08BED5F
S1133DF091E00E948C3825E330E048E550E06DE81E
S1133E007FE08CED91E00E948C384AE062EC75E032
S1133E108F89988D0E941A7023E030E048E650E0C4
S1133E206DE87FE00E9411634AE062EC75E0898DE1
S1133E309A8D0E941A702DE030E048E650E06DE85B
S1133E407FE00E9411634AE062EC75E08B8D9C8DEB
S1133E500E941A7027E130E048E650E06DE87FE008
S1133E600E9411634AE062EC75E08D8D9E8D0E9484
S1133E701A7021E230E048E650E06DE87FE00E94ED
S1133E8011634AE062EC75E08F8D98A10E941A706C
S1133E902BE230E048E650E06DE87FE00E941163D9
S1133EA0C0903805D090390586010C591F4FC801C0
S1133EB0B4010E945F6F7B014AE062EC75E0C701C8
S1133EC00E941A70AE014F5D5F4F6DE87FE00E9463
S1133ED0BE614AE062EC75E0C7010E941A7025E3F6
S1133EE030E048E650E06DE87FE00E9411632CE981
S1133EF0A70124036001259FD00C1124C00ED11EFC
S1133F0009A1002E000C110B08591F4F25E330E0C6
S1133F10A8016DE87FE08CE091E00E948C38AE014E
S1133F204F5D5F4F6DE87FE08BE095E00E94BE61DE
S1133F30E9A0AE014F5D5F4F6DE87FE08DE095E055
S1133F400E94BE6159A15DA30E2C000CFF088AE0FB
S1133F50C816D10438F04AE062EC75E0C6010E944C
S1133F601A7016C0A8014E0D5F1D25E330E06DE800
S1133F707FE08DE091E00E948C384AE062EC75E0CD
S1133F80C6010E941A70ADA10A0F111DA7FD1A9552
S1133F90A8014E0D5F1D25E330E06DE87FE00E942F
S1133FA0116380E091E00E947B3680E091E00E9402
S1133FB0B036D0CCA5960FB6F894DEBF0FBECDBFF9
S1133FC0DF91CF911F910F91FF90EF90DF90CF90F1
S1133FD0BF90AF909F908F907F906F905F904F9025
S1133FE03F902F900895CF92DF92EF92FF920F931C
S1133FF01F93CF93DF93C0E08DE3C82E88E0D82EC3
S1134000D4E11F9B45C01C9909C0F6012D2F1192C4
S11340102A95E9F710923C080E9453261E9903C082
S1134020C150C7FDC0E01D9904C0CF5FCF300CF074
S1134030CFE08C2F0C2E000C990BFC01E35CF74FA6
S11340407F0100E010E0F70181917F01082E000C50
S1134050990B980140E050E06DE87FE0855E9E4F4B
S11340600E948C38065F1F4F0233110561F783E00D
S11340700E94D34980E091E00E94B036FFE72AE134
S113408036E0F15020403040E1F700C00000B9CFE5
S1134090DF91CF911F910F91FF90EF90DF90CF9020
S11340A008950E9493481F9BFAC01C9B0E94256A96
S11340B00E94906920E030E040E050E06DE87FE04D
S11340C082E790E00E948C382AE030E040E050E043
S11340D06DE87FE080E290E00E948C3824E130E0DB
S11340E040E050E06DE87FE083E790E00E948C3888
S11340F02EE130E040E050E06DE87FE083E290E0C4
S11341000E948C3820E030E046E450E06DE87FE027
S11341108DE690E00E948C382AE030E046E450E0DE
S11341206DE87FE08EE690E00E948C3824E130E078
S113413046E450E06DE87FE08FE690E00E948C3822
S11341402EE130E046E450E06DE87FE080E790E067
S11341500E948C3880918109909182094AE062EC36
S113416075E00E941A7020E030E045E250E06DE80E
S11341707FE00E94116380918509909186094AE04D
S113418062EC75E00E941A702AE030E045E250E0EB
S11341906DE87FE00E9411638091870990918809FE
S11341A04AE062EC75E00E941A7024E130E045E2D6
S11341B050E06DE87FE00E9411638091890990913D
S11341C08A094AE062EC75E00E941A702EE130E040
S11341D045E250E06DE87FE00E94116380918B0915
S11341E090918C094AE062EC75E00E941A7020E01C
S11341F030E044E650E06DE87FE00E941163809176
S11342008D0990918E094AE062EC75E00E941A7063
S11342102AE030E044E650E06DE87FE00E9411635C
S113422080918F09909190094AE062EC75E00E94B8
S11342301A7024E130E044E650E06DE87FE00E942B
S1134240116380919109909192094AE062EC75E0C2
S11342500E941A702EE130E044E650E06DE87FE001
S11342600E94116329E330E040E050E06FEF71E019
S11342708CE090E00E948C3827E330E04EE650E07A
S11342806DE87FE08CE390E00E948C3880E091E060
S11342900E947B3680E091E00E94B03604CF0895FE
S11342A0CF92DF92EF92FF921F93CF93DF9380E040
S11342B091E00E94B03611E0C4E6D0E01F9B79C1C2
S11342C00E9490690E94806A0E948B390E942D1876
S11342D00E94274416BC20912F053091300520916F
S11342E02F05309130056C01C21AD30A9093300522
S11342F080932F058091010990910209E12CF12C02
S1134300029788F08091010990910209A0E0B0E041
S11343102FE0880F991FAA1FBB1F2A95D1F7C80E3B
S1134320D91EEA1EFB1E1092020910920109C70150
S1134330B6010E94793EC701B6010E94466320E09F
S113434030E045E250E06DE87FE08AE190E00E94D1
S11343508C3820E030E048E450E06DE87FE08EE106
S113436090E00E948C3820E030E04BE650E06DE8AD
S11343707FE08FE190E00E948C382DE030E045E052
S113438050E06DE87FE08BE190E00E948C3827E1FB
S113439030E045E050E06DE87FE08CE190E00E9481
S11343A08C3821E230E045E050E06DE87FE08DE1BB
S11343B090E00E948C384AE062EC75E08091ED0553
S11343C09091EE050E941A702DE030E048E250E032
S11343D06DE87FE00E9411634AE062EC75E0809131
S11343E0EF059091F0050E941A7027E130E048E251
S11343F050E06DE87FE00E9411634AE062EC75E0F2
S11344008091F1059091F2050E941A7021E230E04A
S113441048E250E06DE87FE00E9411634AE062ECFC
S113442075E080917005909171050E941A702DE0DD
S113443030E04BE450E06DE87FE00E9411634AE015
S113444062EC75E080917205909173050E941A7078
S113445027E130E04BE450E06DE87FE00E94116317
S11344604AE062EC75E080917405909175050E94B4
S11344701A7021E230E04BE450E06DE87FE00E94E6
S113448011638091190690911A06BE010E94736F00
S1134490CB014AE062EC75E00E941A702DE030E036
S11344A04BE650E06DE87FE00E94116380911B06AB
S11344B090911C06BE010E94736FCB014AE062EC2E
S11344C075E00E941A7027E130E04BE650E06DE899
S11344D07FE00E9411632DE230E045E050E06DE89A
S11344E07FE085EE90E00E948C3860912605709103
S11344F0270580912805909129050E94056EDC010D
S1134500CB014AE062EC75E00E941A702DE230E0C3
S113451048E250E06DE87FE00E94116329E330E057
S113452040E050E06FEF71E08CE090E00E948C3846
S113453027E330E04CE650E06DE87FE08CE390E068
S11345400E948C3827E330E04BE450E06DE87FE0D4
S113455089E190E00E948C3880E091E00E947B36F3
S113456080E091E00E94B03611110E9400541C9921
S113457010C00E9400542FE382E49FE02150804049
S11345809040E1F700C000000E94583A80E00E9489
S1134590FE191D990CC02FE382E49FE02150804056
S11345A09040E1F700C0000081E00E94FE1910E095
S11345B085CEDF91CF911F91FF90EF90DF90CF9048
S11345C00895BF92CF92DF92EF92FF920F931F93C1
S11345D0CF93DF9300D000D0CDB7DEB780E091E079
S11345E00E94B03620E030E040E050E06DE87FE02B
S11345F088E091E00E948C382CE030E040E050E00C
S11346006DE87FE08AE091E00E948C3828E130E098
S113461040E050E06DE87FE08BE091E00E948C3850
S113462028E130E048E550E06DE87FE087E190E084
S11346300E948C382BE330E040E050E06FEF71E0F3
S113464089E090E00E948C3827E330E04AE050E0B3
S11346506DE87FE08EE090E00E948C384091620625
S1134660042E000C550B44575E4F0CE02DE261E024
S113467080E090E00E94A04A4AE062EC75E08091FC
S11346803805909139050E941A7028E130E04EE611
S113469050E06DE87FE00E941163809162068130F2
S11346A0D9F42CE030E04DE450E06DE87FE088E19F
S11346B090E00E948C3880913105909132054AE057
S11346C062EC75E00E941A702CE030E04EE650E097
S11346D06DE87FE00E94116320913805309139051F
S11346E0121613064CF028E130E04DE250E06DE87C
S11346F07FE080E390E031C0243631054CF028E1BE
S113470030E04DE250E06DE87FE082E390E025C0C8
S113471080916A06082E000C990B2817390749F472
S113472028E130E04DE250E06DE87FE081E390E085
S113473014C0281739074CF428E130E04DE250E06A
S11347406DE87FE083E390E008C028E130E04DE2CB
S113475050E06DE87FE084E390E00E948C38809123
S113476035058111CAC024E230E040E050E06DE834
S11347707FE081E291E00E948C380E94026D7C010E
S113478064E670E00E945F6F8B014AE062EC75E0C2
S1134790C8010E941A70AE014F5F5F4F6DE87FE061
S11347A00E94BE614AE062EC75E0C8010E941A7082
S11347B024E230E04DE250E06DE87FE00E941163B6
S11347C02CE920036001219FD00C1124CE0CDF1CA6
S11347D00981002E000C110B035D1F4F24E230E011
S11347E0A8016DE87FE08CE091E00E948C38AE0176
S11347F04F5F5F4F6DE87FE08BE095E00E94BE6104
S1134800E980AE014F5F5F4F6DE87FE08DE095E09A
S11348100E94BE61B9800E2C000CFF088AE0C81605
S1134820D10438F04AE062EC75E0C6010E941A70C7
S113483015C0A8014E0D5F1D24E230E06DE87FE055
S11348408DE091E00E948C384AE062EC75E0C6018C
S11348500E941A700B0D111DB7FC1A95A8014E0D7C
S11348605F1D24E230E06DE87FE00E9411638091D7
S11348706C06813009F094C0E12C0AE226E44BE096
S11348806DE180E091E00E947937EE24E39426E420
S11348904BE06DE180E091E00E94AD3760917D09CD
S11348A070917E0980917F09909180090E94056E24
S11348B06B017C014AE062EC75E0C6010E941A704B
S11348C0AE014F5F5F4F69E672E00E94BE612981CD
S11348D03A813695279500E410E0021B130B4AE059
S11348E062EC75E0C6010E941A7024E130E0A80170
S11348F069E672E00E94116353C08091350583FF1D
S113490013C025E230E04FE050E06FED74E086E83C
S113491090E00E948C3825E230E04FE450E06FEDE7
S113492074E08FE091E03AC08091350581FF13C0B7
S113493025E230E04EE150E06FED74E08BE490E06E
S11349400E948C3825E230E047E350E06FED74E0DC
S113495080E191E023C08091350580FF13C025E2FA
S113496030E04BE050E06FED74E089E690E00E94A7
S11349708C3825E230E042E550E06FED74E08EE0E3
S113498091E00CC08091350582FF0AC025E230E039
S113499049E150E06FED74E082E190E00E948C38D0
S11349A080E091E00E947B3680E091E00E94B03686
S11349B00F900F900F900F90DF91CF911F910F9157
S11349C0FF90EF90DF90CF90BF900895AF92BF9289
S11349D0CF92DF92EF92FF920F931F93CF93DF93C7
S11349E000D0CDB7DEB7B0903B08C090DC08D090C3
S11349F03A0810923B081092DC0810923A0810E032
S1134A00A12C1F9BD9C0A110D9C080E091E00E94C5
S1134A10B03632E050E061E1650FEE24E39408E241
S1134A2028E240E080E091E03A8359830E94AD3768
S1134A30598186E2F82EF50E20E3250F03E044E1C8
S1134A406F2D80E091E00E940F37598128E3250FF4
S1134A5069E2650F06E045E180E091E00E940F37CE
S1134A6001E022E045E16F2D80E091E00E94FC37F7
S1134A70598163E3650F24E045E080E091E00E9402
S1134A80FC3754E33A81313011F031E0C4CF29E3EB
S1134A9030E040E050E06FEF71E08CE090E00E9485
S1134AA08C380E94906980918509909186098033A1
S1134AB0984F3CF08091850990918609813D9740FB
S1134AC06CF011110BC02BE230E040E150E06FEDCF
S1134AD074E087E890E00E948C3869C08091850971
S1134AE090918609843F91403CF48091850990918E
S1134AF086098D309E4FE4F480918709909188094E
S1134B00843F91403CF480918709909188098D30CD
S1134B109E4F74F48091890990918A09843F914051
S1134B209CF48091890990918A098D309E4F64F09C
S1134B302BE230E049E050E06FED74E088E890E06B
S1134B400E948C3811E033C08091850990918609C8
S1134B5097FF03C081E080933B088091870990917F
S1134B60880997FF03C081E08093DC08809189095C
S1134B7090918A0997FF03C081E080933A0880915D
S1134B80850990918609181619068CF48091870975
S1134B90909188091816190654F480918909909106
S1134BA08A09AA24A394181619060CF0A12C80E0F3
S1134BB091E00E947B3625CFAA2049F12BE230E018
S1134BC048E250E06FED74E089E890E00E948C3890
S1134BD080E091E00E947B3680E091E00E94B03654
S1134BE08FE794E82EE1815090402040E1F700C027
S1134BF000000F900F90DF91CF911F910F91FF90C4
S1134C00EF90DF90CF90BF90AF900C945326B0926A
S1134C103B08C092DC08D0923A080F900F90DF91C5
S1134C20CF911F910F91FF90EF90DF90CF90BF90A5
S1134C30AF9008950F931F93CF93DF931F92CDB737
S1134C40DEB78C0169830E9468706981861741F020
S1134C50C8010F90DF91CF911F910F910C94707048
S1134C600F90DF91CF911F910F910895EF92FF92D2
S1134C700F931F93CF93DF93EC017B018C01040FFF
S1134C80151FC017D10741F06991C7010E941A2668
S1134C908FEFE81AF80AF5CFDF91CF911F910F91AA
S1134CA0FF90EF900895F89444EA52E060E070E0D9
S1134CB089E396E00E943626789408952F923F92D5
S1134CC04F925F926F927F928F929F92AF92BF9218
S1134CD0CF92DF92EF92FF920F931F93CF93DF93C4
S1134CE0CDB7DEB7C355D1400FB6F894DEBF0FBEC3
S1134CF0CDBF80916206CF5CDE4F8883C153D14023
S1134D008091C606CE5CDE4F8883C253D140809129
S1134D106306CD5CDE4F8883C353D1408091640623
S1134D20CC5CDE4F8883C453D14080916506CB5C54
S1134D30DE4F8883C553D14090916906CA5CDE4F2B
S1134D409883C653D14090916A06C95CDE4F98831C
S1134D50C753D14090916606C85CDE4F9883C85310
S1134D60D14090916706C75CDE4F9883C953D14008
S1134D7020906806C65CDE4F2882CA53D14099E071
S1134D80FE01EF5CFE4FA2E6B6E001900D929A950B
S1134D90E1F79091CA06CF5CDE4F9883C153D140AE
S1134DA09091C706CF5ADE4F9883C155D140CE5C4F
S1134DB0DE4F9883C253D140E091C806CE5ADE4FED
S1134DC0E883C255D140CD5CDE4FE883C353D14064
S1134DD09091C906CC5CDE4F9883C453D140CF5C1C
S1134DE0DE4F488159816A817B81C153D140409310
S1134DF0C6065093C7066093C8067093C9068830E8
S1134E0019F487E0809366061092CA0648E450E0DD
S1134E1063EB77E08BEF97E00E9408709E012F5FB1
S1134E203F4F80E090E04DE1FC01E553F94FD9019B
S1134E30542F01900D925A95E1F72A5D3F4F4D96FC
S1134E40883E910589F74E01F5E08F0E911CCE0145
S1134E504396C15CDE4F99838883CF53D140FE01D2
S1134E607496CD5BDE4FF983E883C354D140029638
S1134E70CF5BDE4F99838883C154D1406E0196E1A4
S1134E80C90ED11C7E01EEE1EE0EF11CCE014D9651
S1134E90C55BDE4F99838883CB54D140FE017C9659
S1134EA0C75BDE4FF983E883C954D1400297C95BDD
S1134EB0DE4F99838883C754D1403297CB5BDE4F52
S1134EC0F983E883C554D1400297C15BDE4F9983CF
S1134ED08883CF54D1403297C35BDE4FF983E88394
S1134EE0CD54D1405E01F7E1AF0EB11C8B5C9E4FF7
S1134EF0C35CDE4F99838883CD53D14012E001E037
S1134F0049E150E0B401C70148970E940870C15CB0
S1134F10DE4FE881F981CF53D1405080CD5BDE4F25
S1134F20E881F981C354D1403080CF5BDE4FE88102
S1134F30F981C154D1402081F6014080F40156FE2C
S1134F4002C0108301C010823701FFEF6F1A7F0A7D
S1134F5048E050E0B501C301CD5ADE4F2883C35564
S1134F60D1400E94087080E0CD5ADE4F2881C3559D
S1134F70D140F30190819D3011F494E190838E5FD0
S1134F80E2E06E0E711C8830A1F7C15CDE4FE8814F
S1134F90F981CF53D14050FE06C020FF02C01083D8
S1134FA003C0008301C01082CD5BDE4FE881F9812C
S1134FB0C354D14030FE06C040FE02C0108303C07B
S1134FC0008301C01082CF5BDE4FE881F981C154B8
S1134FD0D14051FE06C021FF02C0108303C00083EC
S1134FE001C01082F60131FE06C041FE02C01083EA
S1134FF003C0008301C01082F50152FE06C022FFE7
S113500002C0108303C0008301C01082C35BDE4F63
S1135010E881F981CD54D14032FE06C042FE02C07F
S1135020108303C0008301C01082C15BDE4FE8819E
S1135030F981CF54D14053FE06C023FF02C0108330
S113504003C0008301C01082CB5BDE4FE881F9818D
S1135050C554D14033FE06C043FE02C0108303C0D2
S1135060008301C01082C95BDE4FE881F981C75417
S1135070D14054FE06C024FF02C0108303C0008345
S113508001C01082C75BDE4FE881F981C954D14069
S113509034FE06C044FE02C0108303C0008301C076
S11350A01082C55BDE4FE881F981CB54D14055FEB7
S11350B006C025FF02C0108303C0008301C0108214
S11350C0F70135FE06C045FE02C0108303C000830D
S11350D001C01082F6E28F0E911CC15CDE4F888104
S11350E09981CF53D1408696C15CDE4F99838883E2
S11350F0CF53D140CD5BDE4FE881F981C354D14019
S1135100B696CD5BDE4FF983E883C354D140CF5BC1
S1135110DE4F88819981C154D1408696CF5BDE4FA2
S113512099838883C154D14096E2C90ED11CE6E22A
S1135130EE0EF11CC55BDE4F88819981CB54D140C2
S11351408696C55BDE4F99838883CB54D140C75B79
S1135150DE4FE881F981C954D140B696C75BDE4F72
S1135160F983E883C954D140C95BDE4F88819981B2
S1135170C754D1408696C95BDE4F99838883C75450
S1135180D140CB5BDE4FE881F981C554D140B6965E
S1135190CB5BDE4FF983E883C554D140C15BDE4F5E
S11351A088819981CF54D1408696C15BDE4F998323
S11351B08883CF54D140C35BDE4FE881F981CD545D
S11351C0D140B696C35BDE4FF983E883CD54D1401A
S11351D0F6E2AF0EB11CC35CDE4F88819981CD53DA
S11351E0D140E816F90609F08BCE80E391E0FE0188
S11351F03196ABECB6E001900D920197E1F7CF5AEE
S1135200DE4F9881C155D140973030F4E92FF0E05A
S1135210E15FFA4F808101C087E08093C706CE5AD0
S1135220DE4FE881C255D140E73028F4F0E0E15F79
S1135230FA4F808101C087E08093C806209241081C
S1135240CD5ADE4F0FB6F894DEBF0FBECDBFDF914F
S1135250CF911F910F91FF90EF90DF90CF90BF906F
S1135260AF909F908F907F906F905F904F903F9002
S11352702F900895CF93E091C906E150EA3028F4C5
S1135280F0E0E55EFA4F808101C086E08093C906B4
S1135290809169068093420810926906E091C106E4
S11352A0E150E53028F4F0E0EA5EFA4FC08101C035
S11352B0C0E08BE2E3E4F8E0DF011D928A95E9F7B0
S11352C040E851E062EC76E083EC96E00E940870DE
S11352D0C093C1061092C206CF910895E0EFF6E0A4
S11352E0DF0116978C918C5F8C9312968C918C5F56
S11352F08C9312968C918C5F8C9380818C5F8083CD
S1135300B69668E0E032F60759F710926C0851E15E
S113531050936D0841E240936E0832E330936F0876
S113532023E42093700893E59093710884E68093B6
S1135330720810927408509375084093760830935D
S11353407708209378089093790880937A08ECE79B
S1135350F8E05CE94DEB3FED21E293E450834183B7
S113536032831382248395838683389668E0EC39EC
S1135370F607A1F71092730810927B081092830825
S113538010928B0884E18093930880939B0880E0BB
S113539090E0FC01E251FE4FE491DC01A456B74FCA
S11353A0EC93019688309105A1F708951F93CF934C
S11353B0DF93C9E3D6E01EA54CE352E068E676E04D
S11353C089E696E00E9408701FA78FE38883DF9127
S11353D0CF911F9108950F931F93CF93DF93CDB770
S11353E0DEB7C053D1400FB6F894DEBF0FBECDBFB9
S11353F080E391E0EDECF6E0DE01119601900D9270
S11354000197E1F7CE01019620E030E045E0D901B3
S1135410A353B94FFC01542F01900D925A95E1F713
S11354202E5D3F4F8696203151E0350781F79E016E
S1135430265F3F4F80E090E04DE1DC01AE52B94F72
S1135440F901542F01900D925A95E1F782962A5D45
S11354503F4F8031A1E09A0781F747EA50E06DEFB2
S113546077E08DED97E00E94087010E4E5E8F8E03D
S1135470DF01512F1D925A95E9F7009169064DE518
S113548052E069E676E08BE696E00E94087010929E
S1135490690600936A0684E680936B0610933906C6
S11354A0C05DDE4F0FB6F894DEBF0FBECDBFDF91F7
S11354B0CF911F910F910895E4E0F7E084E1DF01BB
S11354C016979C91933109F48C93DF0112979C9168
S11354D0933109F48C93DF0114979C91933109F46F
S11354E08C939081933109F48083B29698E0E431EF
S11354F0F90729F781E4809339060895FF920F9301
S11355001F93CF93DF93C9E3D6E0FCA814E1109373
S11355106D0644E052E062EC76E086ED96E00E948F
S1135520087048E150E06AEA76E086EB96E00E9473
S1135530087000E2E6EBF6E0DF01802F1D928A9509
S1135540E9F748E150E062E976E086E996E00E94F6
S11355500870E6E9F6E0DF011D920A95E9F744E1F7
S113556050E060E876E082E896E00E94087088E205
S113557080937F06109380068AE0809381061092C0
S113558093061092940610929506F092DB0882E43A
S11355908883DF91CF911F910F91FF90089548EF79
S11355A051E063EE76E084EE96E00E94087081E0BC
S11355B08093E30683E4809339060895CF9394E1BE
S11355C0EEE6F6E0DF01292F1D922A95E9F7E2E8DD
S11355D0F6E0DF011D929A95E9F720E131E0E4EE6F
S11355E0F6E0DF01A9011D9241505040E1F7A4E02B
S11355F0B8E060E070E094E1CCE954E69B01275CFC
S1135600394FF901EB53FF4F44E190833496908373
S11356103297908334969083FD013897C08324E6B3
S11356205D936E5D7F4F603131E0730739F78130F0
S113563061F008F4E7C0823009F4B3C1833009F0A3
S113564083C281E08093DB067FC28093DB064093B4
S11356506D0628E220937F06409380069AE090939B
S1135660810642E340936E0690936F069093700612
S113567032E03093710690937206409374069093CF
S113568075069093760630937706909378065CE3DC
S113569050937A0620937B0649E140937C0630932D
S11356A07D062093820663E1609383063EE0309397
S11356B0840693E09093850680938606209388065B
S11356C06093890630938A0690938B0680938C06A8
S11356D050938E0620938F064093900690939106E4
S11356E040E050E074E6A2E061E09A01275C394FA3
S11356F0F901E055FF4F94E6708331967083329739
S1135700A083749681E06083319660834E5D5F4F21
S11357104838510551F72CEE2093EE0632EE3093C3
S1135720EF063093F00668ED6093F1068093F4067B
S11357308093FA068093F5068093FB068093F60621
S11357408093F70620930E0730930F072EE12093E2
S1135750120748E2409313078093140780931A07B3
S11357608093150780931B0780931807809319076C
S113577054E15093320720933307309334076093F6
S113578035078093380780933E07809339078093C9
S11357903F0780933A0780933B0750935207209327
S11357A053072093560740935707809358078093D5
S11357B05E078093590780935F0780935C0780930B
S11357C05D078BE480937607909377078093960721
S11357D0909397078093BC079093BD078CE98093BF
S11357E0D4088DEB8093D5088FED8093D608109262
S11357F0D70881E28093D80883E48093D9089093F2
S1135800DA08A2C131E03093DB0640936D0688E2EA
S113581080937F06409380069AE09093810680935C
S11358206E0690936F069093700622E020937106A3
S113583090937206809374069093750690937606FF
S113584020937706909378064CE340937A068093EE
S11358507B0699E190937C0620937D0680938206D3
S113586073E1709383066EE06093840653E0509373
S11358708506309386068093880670938906609324
S11358808A0650938B0630938C0640938E06809341
S11358908F06909390062093910689E396E044E660
S11358A052E021E0FC01E055FF4F34E6408331969D
S11358B04083329750833A962083369620833597D7
S11358C02083369620833597208336962083359718
S11358D0208336962083359720833196208335960E
S11358E0208331962083829666E0813C9607D1F628
S11358F09FE09093EC0684E18093ED0641EF4093A2
S1135900EE062CEE2093EF06E8EDE093F0067EEC35
S11359107093F10640930E0720930F0740931007EE
S11359202093110768E26093120752E35093130720
S113593040933007209331079093320780933307C5
S1135940E09334077093350790935207809353077D
S113595090935407809355076093560750935707C5
S11359608BE4809376073093770780939607309380
S113597097078093BC073093BD078CE98093D408C4
S11359808DEB8093D5088FED8093D6081092D708BD
S113599081E28093D80883E48093D9083093DA08AD
S11359A0D3C091E09093DB0640936D0638E23093C8
S11359B07F06409380064AE04093810630936E064A
S11359C040936F064093700680937106409372066D
S11359D03093740640937506409376068093770659
S11359E0409378065CE350937A0630937B0649E152
S11359F040937C0680937D0630938206E3E1E09336
S1135A0083067EE07093840663E06093850690933A
S1135A10860630938806E093890670938A0660931D
S1135A208B0690938C0650938E0630938F0640938A
S1135A309006809391062093E9062093EA068093CA
S1135A40E80620930B0720930C0780930A07209302
S1135A502D0720932E0780932C074EE14093EC06EC
S1135A603093ED0661EF6093EE065CEE5093EF0623
S1135A709093F2069093F8069093F3069093F906A8
S1135A808093F4068093FA068093F5068093FB06D0
S1135A909093FC069093FD0672EE70930E0778EDDA
S1135AA070930F0760931007509311079093140796
S1135AB090931A079093150790931B0780931607EA
S1135AC080931C078093170780931D0790931E07EC
S1135AD090931F074093320730933307809338071E
S1135AE080933E078093390780933F079093400744
S1135AF09093410710924E078BE4809356072093AE
S1135B00570790935C0790935D07809376072093E3
S1135B10770780939607209397078093BC07209379
S1135B20BD078CE98093D4088DEB8093D5088FED65
S1135B308093D6081092D70881E28093D80883E432
S1135B408093D9082093DA08CF910895CF93DF93F7
S1135B5084EA92E0E9E3F6E0DF019C011D92215022
S1135B603040E1F784E48093390682E08093620652
S1135B7024E02093660691E09093DB06809363060D
S1135B80209364068093DF0687E08093E00683E039
S1135B908093DE0686E08093E1068EE18093DC0646
S1135BA082E380936A0684E680936B0684E18093A3
S1135BB06D069093E30680E890E090932308809329
S1135BC02208909358088093570884E28093DA0659
S1135BD0CCE0D8E080E090E026EA3EE0FC01E2512F
S1135BE0FE4F4491DC01A75CB94F11964C93119779
S1135BF0E491A55ABD4FEC932993399301968830CB
S1135C00910561F78EEB9AE090930D0880930C0850
S1135C10A4E0B8E020E030E044E16CE954E6C901D6
S1135C20875C994FFC01EB53FF4F408334964083CC
S1135C303297408334964083FD013897608384E62D
S1135C405D932E5D3F4F203191E0390741F751E1DB
S1135C505093650841E24093660832E33093670845
S1135C6023E42093680893E59093690880936A0875
S1135C7050936D0840936E0830936F08209370081A
S1135C80909371088093720889E396E07CE96DEB48
S1135C905FED33E424E6FC01E55CFD4F708331964F
S1135CA060833196508331961082319640833196C9
S1135CB03083319620830896A6E089359A0759F7F0
S1135CC084E180938B088093930880E00E94DE2A0D
S1135CD084E08093E206DF91CF910895CF93DF9320
S1135CE01F92CDB7DEB744EA52E060E070E089E38A
