:100000000C94130E0C947E2F0C94462F0C943130CC
:100010000C94390E0C94F02F0C94390E0C94B72FCD
:100020000C94390E0C94390E0C94390E0C94390E34
:100030000C94390E0C94390E0C94390E0C94390E24
:100040000C94390E0C94390E0C942F2F0C94390EFD
:100050000C94ED300C94390E0C94390E0C94390E2E
:100060000C94390E0C94390E0C94390E0C94390EF4
:100070000C94390E0C94390E0C94390E731EDC1E40
:10008000DC1E841E911E9B1E971EA71EB31EB71E4C
:10009000C31E68386A386D386F38713873387538F0
:1000A00077387A387C387F38813883388538873894
:1000B00089388B388D388F3892387D3C613C643C70
:1000C000673C6A3C6D3C703C733C763CFFFF01FF33
:1000D00001FF01FFFF010101FF0101FFFFFF00011F
:1000E00002020001000102000102010002000201FF
:1000F00001020003040506070001020304050607C8
:10010000050206010508030705010241050D000F60
:10011000002200330044004F090100030007000FD4
:10012000001F000F00070003000100081C001C0056
:100130001C001C007F003E001C0008000808001C7A
:10014000003E007F001C001C001C001C0005FF017D
:10015000FE007C00380010000D4000600070007848
:10016000007C007E007F007E007C007800700060D4
:100170000040000102205B1300BB00C500CC00CC96
:1001800000CC00CC01030103010301160129012960
:1001900001290136014901500150016F018801A474
:1001A00001C001DF01FB021A023602550274027B14
:1001B000027B027B027B027B0294029402BC02DB84
:1001C00002FD0322033E035A038203A103B403CAC0
:1001D00003EC0408042D044C0474048D04B504D706
:1001E00004F9051E053D0565059905BB05E00602F8
:1001F0000602061B061B061B061B061B06340650C2
:100200000669068506A106B406D006E906F00700D1
:10021000071C0723074E0767078607A207BE07D1FB
:1002200007EA07FD08160832085D087908950300FB
:10023000000000000000000002FE6700FE670012E0
:10024000780000FE0100020100020100020100FE30
:100250004100787000001C00000700E0000038003A
:10026000000E1E00827F0080400080400080400021
:10027000807F00001E0006C01F00F8FF003CE00168
:10028000070007030006010004060100040300063E
:100290000700073CE001F8FF00C01F000400000356
:1002A00000F00300700000100006000300000300CF
:1002B00000030000030000030000030002007000C0
:1002C0000070000AF00F00FC3F000C3000066000D8
:1002D0000660000660000660000C3000FC3F00F085
:1002E0000F0008186000186000186000FE7F00FE14
:1002F0007F00006000006000006000090C700006D4
:100300007800066C000666000663008E6100FC60E3
:1003100000786000006000090C3000066000066094
:1003200000866100866100866100CE73007C3F001C
:10033000381E000A000700800700C00700F0060012
:100340003806001C0600FE7F00FE7F00000600004D
:10035000060009003000FE6000FE6000C66000C6B6
:100360006000C66000C63100863F00060F000AE04C
:100370000F00F03F009C3000CC6000C66000C660FB
:1003800000C66000C63100863F00000F000906006D
:1003900000064000067000067C00060F00C6030041
:1003A000F600003E00000E00000A381E007C3F00F0
:1003B000CE7100C66000C660008661008661004E96
:1003C00073007C3F00381E000AF00000FC61008CC6
:1003D00063000663000663000663000633000C3901
:1003E00000FC1F00F0070002707000707000080C25
:1003F0000000060000066700066700860100CE00C8
:1004000000FC00003800000D004000007800003FB4
:1004100000C00700F806003E06000606003E060083
:10042000F80600C00700003F000078000040000A06
:10043000FE7F00FE7F008661008661008661008687
:100440006100C661007C73003C3F00001E000BE0B1
:100450000700F81F001C38000C3000066000066022
:10046000000660000660000660000620000C3000F8
:100470000CFE7F00FE7F0006600006600006600044
:100480000660000660000E70000C3000381C00F89A
:100490000F00E0070009FE7F00FE7F00C66000C677
:1004A0006000C66000C66000C66000C66000C6602E
:1004B0000009FE7F00FE7F008601008601008601A4
:1004C000008601008601008601000600000DE0079D
:1004D00000F81F003C3C000C30000E70000660006D
:1004E0000660000663000663000663000663000CF6
:1004F0003F000C3F000AFE7F00FE7F00C00000C0EE
:100500000000C00000C00000C00000C00000FE7F6E
:1005100000FE7F0006066000066000FE7F00FE7F92
:1005200000066000066000070060000060000660D2
:1005300000066000067000FE3F00FE1F000BFE7FFD
:1005400000FE7F00800300C00100E0030070070090
:10055000381C001C38000E700006600002400009C4
:10056000FE7F00FE7F000060000060000060000071
:1005700060000060000060000060000CFE7F00FE74
:100580007F000E0000380000E00100800700000737
:1005900000E001003800000E0000FE7F00FE7F003A
:1005A0000AFE7F00FE7F000E00003C0000E000001D
:1005B000800300001E00007800FE7F00FE7F000D1B
:1005C000E00700F81F001C38000C30000660000631
:1005D00060000660000660000660000C30001C38F9
:1005E00000F81F00E0070008FE7F00FE7F00060302
:1005F000000603000603008E0300FC0100F8000063
:100600000DE00700F81F001C38000C3000066000E9
:1006100006600006600006E00106E0030C30071CDF
:100620003806F81F06E007060BFE7F00FE7F0086F7
:100630000100860100860100860700CE0E00FC1C2A
:10064000007870000060000040000B783000FC7003
:1006500000CE6000866100866100866100866100D0
:100660008661000633000C3F00001E000C060000EF
:10067000060000060000060000060000FE7F00FEE7
:100680007F000600000600000600000600000600CD
:10069000000AFE0F00FE3F000070000060000060D6
:1006A00000006000006000007000FE3F00FE0F00D0
:1006B0000D0200001E0000FC0000E00300801F008F
:1006C000007C00006000007C00801F00E00300FC54
:1006D00000001E0000020000110600007E0000F86D
:1006E0000700803F00007800007C00C00F007E0003
:1006F000000600007E0000E00700007E00007000A1
:10070000807F00F807007E00000600000B0240001A
:100710000660001E7800381C00E00700800100E041
:100720000700381E001E78000660000240000C0220
:1007300000000600001E0000780000E00000C07FFE
:1007400000C07F00E000007800001E0000060000EE
:100750000200000B067000067800067C00066E00A2
:10076000066700C66300E660007660003E60001E1B
:1007700060000E6000080300001F0000FE0000F093
:100780000700803F0000FC0100E0030000030800B8
:100790003C00307E0030670030630030630030334F
:1007A00000E07F00E07F0009FF7F00FF7F00602006
:1007B00000306000306000306000707000E03F008A
:1007C000C00F0008800F00E03F0060300030600084
:1007D00030600030600030600060300009801F0031
:1007E000E03F00707000306000306000306000302A
:1007F0003000FF7F00FF7F0009800F00E03F0060B6
:100800003300306300306300306300706300E063E6
:1008100000C0330006300000FE7F00FF7F00330081
:100820000033000003000009801F00E03F067070E5
:1008300006306006306006306006303007F0FF0397
:10084000F0FF0108FF7F00FF7F0060000030000024
:10085000300000300000F07F00E07F0002F67F00F3
:10086000F67F0005000006300006300006F6FF07A0
:10087000F6FF0309FF7F00FF7F000006000007006E
:10088000800F00C03800707000306000104000021F
:10089000FF7F00FF7F000EF07F00F07F0060000010
:1008A000300000300000300000F07F00E07F00608A
:1008B0000000300000300000300000F07F00E07FDA
:1008C0000008F07F00F07F00600000300000300082
:1008D00000300000F07F00E07F000A800F00E03F62
:1008E0000060300030600030600030600030600038
:1008F000603000E03F00800F0009F0FF07F0FF07C5
:10090000606000306000306000306000707000E0B7
:100910003F00C00F0009801F00E03F0070700030F2
:100920006000306000306000303000F0FF07F0FF02
:100930000706F07F00F07F0060000030000030000C
:100940000030000008C03100E06300306300306315
:1009500000306600306600303E00601C000630004B
:1009600000FE3F00FE7F003060003060003060001D
:1009700008F01F00F07F00006000006000006000D1
:10098000003000F07F00F07F0009100000F0000050
:10099000E00700003E00006000003E00E00700F0BD
:1009A00000001000000E300000F00300C03F000007
:1009B0007800007C00800700F00000F00000C00715
:1009C00000003C00007000C03F00F0030030000059
:1009D00009104000306000F07800C01D00000700E2
:1009E000C01D00F0780030600010400009100000C9
:1009F000F00000E0070600BF0700F001003F00E044
:100A00000700F0000010000008307000307800305F
:100A10007C00306600306300F06100F060007060C0
:100A2000000102205B0B00BB00BE00C100C100C181
:100A300000C100D600D600D600DD00E400E400E4EA
:100A400000E900F000F300F300FE01090114011FAA
:100A5000012C01370142014D015801630166016615
:100A6000016601660166016F016F017C01890198D1
:100A700001A701B201BD01CC01D901E001E901F6F4
:100A800002010210021D022C0237024602530260CC
:100A9000026F027C0289029C02A902B802C502C54B
:100AA00002C502C502C502C502C502D002DB02E6CC
:100AB00002F102FC03050310031B031E0325033090
:100AC000033303460351035C03670372037B038410
:100AD000038D039803A303B203BD03C80100000103
:100AE0007E010A0C00120012008C0160001800C682
:100AF0000020012001C00003F800060301040301E7
:100B0000040603F8000200048003032000200020F4
:100B10000001800105FC00020102010201FC000548
:100B200004010401FE0100010001058401420122CB
:100B30000112010C01058400020112011201EC00F6
:100B4000066000500048004400FE014000059E0081
:100B5000120112011201E20005F800140112011243
:100B600001E000050200820162001A00060005ECA7
:100B700000120112011201EC00051C0022012201E9
:100B8000A2007C00019801040200620112000C0026
:100B900006C0017800460046007800C00106FE014C
:100BA0001201120112011C01E0000778008400020A
:100BB00001020102010201840007FE01020102019B
:100BC000020102018400780005FE011201120112E7
:100BD00001120105FE011200120012000200077846
:100BE0000084000201020122012201E40006FE014C
:100BF0001000100010001000FE01030201FE0102AF
:100C00000104000102010201FE0006FE0120003085
:100C10000048008400020105FE01000100010001FE
:100C2000000107FE0106001800600018000600FE23
:100C30000106FE010600180060008001FE01077831
:100C40000084000201020102018400780005FE0117
:100C50002200220022001C0007780084000201020A
:100C60000102038404780406FE01220022006200CF
:100C70009C000001068C001201120122012201C415
:100C80000007020002000200FE0102000200020052
:100C900006FE000001000100010001FE00060E003A
:100CA00070008001800170000E000906007800804D
:100CB00001780006007800800178000600068601B1
:100CC0004800300030004800860107020004000898
:100CD00000F0010800040002000682014201220126
:100CE00012010A01060105C000280128012801F0AF
:100CF0000105FF01080108010801F00005F00008E6
:100D00000108010801900005F00008010801080130
:100D1000FF0105F000280128012801B000040800A7
:100D2000FE010900090005F000080508050805F89E
:100D30000305FF01080008000800F00101F90103A4
:100D400000040804F90305FF01400060009000085A
:100D50000101FF0109F801080008000800F001087E
:100D60000008000800F00105F8010800080008006C
:100D7000F00105F000080108010801F00005F8077E
:100D8000080108010801F00005F000080108010849
:100D900001F80704F80110000800080004300128D9
:100DA000014801C800040800FE000801080105F818
:100DB00000000100010001F8010518006000800139
:100DC0006000180007780080016000180060008053
:100DD00001780005080190006000900008010508F6
:100DE0000070048003700008000488014801280195
:100DF0001801AF40A0A6A4A2EEC82F24AC00F800B2
:100E0000070605040302010012160A11051100115C
:100E1000FB10F610F110EC10E7107F1877187D1812
:100E20007B18791872186D18681863188512A51246
:100E3000A0129A12D71589188118E116FE16F91614
:100E4000F316EF16EB160F11EB12E212F312DB1290
:100E5000D61230112B11261121111C11161110114F
:100E6000C2120F111F1317132E15291526151C1545
:100E7000121572116A1165110A130513FC125B1227
:100E8000E6164F12C615C215BC15B315AC150F11D9
:100E900012160F168A11911180110F110F11B21233
:100EA000AB12521840182D181B180518F617E21728
:100EB000CE17C017B117A2179317841775176617A7
:100EC000571743172A17111703170F1130112B113A
:100ED000411146114B115011C212F312EB12E212E2
:100EE000DB12D612D112CC12C712C212BB12B5122B
:100EF000A3159C158E127811651117120B120F1184
:100F0000C811BF11B611B211A911A1110F110F1102
:100F10000F118E189212301222121D120312F811A4
:100F20000F119A1191110F110F110F11F916F316DC
:100F3000EF1606166615FC15F115E215D715CB153B
:100F4000591050108F1585157D15701539153411F0
:100F50005C155215461531150F110F11CD16C5161A
:100F6000B716AA169C16911688167F16701662166A
:100F700053164716401639162C1620161616D51677
:100F80000F110F110A15FF14EE14E114D614C61434
:100F9000B614A714971487147714671457144714BA
:100FA00039142B141C140D140014F313E713DB1362
:100FB000CF13C213B813AE13A113961389137E1364
:100FC0007113961364137E130F110F111F13171350
:100FD00011130F11F311EE11E911E411DF11DA1100
:100FE000D511D011F312EB12E212DB12D612D1128C
:100FF000CC12C7125B13511349134113381330132A
:101000002713C2121F13171311130F110F114612BA
:101010003D127B1275126912AA18A41806169B18A5
:101020009918971860115C115511DA10D310C91076
:10103000E110C1100F110F115D18A7109A100F11B8
:1010400093108510741067100F110F110F1161109C
:10105000506974636820443A00526F6C6C20443AC3
:1010600000436C6561720044697361726D2074693C
:101070006D6572004E6F207369676E616C206469E4
:101080007361726D004D616E75616C20646973618E
:10109000726D005265626F6F740052454D4F564538
:1010A0002050524F5053005741524E494E47202D29
:1010B000204572617365732073657474696E67731C
:1010C000004F7074696F6E7300547269636F70744F
:1010D000657200517561642050005175616420583B
:1010E00000426C616E6B00332E395600332E385639
:1010F00000332E375600332E365600332E35560029
:10110000332E345600332E335600332E3256000021
:10111000323630487A00313834487A003934487AE7
:10112000003434487A003231487A003130487A004D
:1011300035487A004D505536303530204C50463ABF
:10114000003137487A003237487A003338487A001D
:101150003637487A007369676E616C006C6F770090
:101160006869676800486967680041726D61626C10
:10117000650041726D65640053796E6320524300CF
:101180005265765363616C6564005363616C65649A
:10119000005265766572736564004E6F726D616CA6
:1011A00000506974636855700053696465776179AC
:1011B000730041667400496E76657274656400560A
:1011C0006572746963616C00466F72776172640066
:1011D0004F555438004F555437004F555436004F33
:1011E000555435004F555434004F555433004F5526
:1011F0005432004F555431002844697361726D6553
:101200006429002841726D65642900666F7220733D
:1012100074617475732E00507265737300446F6E41
:101220006500486F6C642061732073686F776E008F
:101230004E6F205258207369676E616C007365743D
:1012400074696E6773005570646174696E670043FA
:10125000616C2E206661696C6564004553432043D0
:10126000616C69627261746500486F6C64207374AC
:1012700065616479005265736574004F70656E41F5
:1012800065726F320044697361726D6564004C6F02
:10129000770042617474657279004D6F64656C000B
:1012A0004C6F7374004572726F72005369676E61A0
:1012B0006C004E6F00456C65762E005468726F743A
:1012C0002E004E6F6E65004155583300415558321F
:1012D000004155583100476561720052756464657C
:1012E0007200456C657661746F720041696C65725D
:1012F0006F6E005468726F74746C65005371727411
:1013000053696E650053696E65004C696E65617264
:10131000004D6F746F7200442E536572766F0041FA
:101320002E536572766F00414C20506974636800DB
:10133000414C20526F6C6C00416363506974636868
:1013400000416363526F6C6C004779726F5961772B
:10135000004779726F5069746368004779726F5201
:101360006F6C6C00503220536F7572636520423A87
:1013700000503120536F7572636520423A0050323D
:1013800020566F6C756D653A00503220536F757240
:10139000636520413A00503120566F6C756D653A97
:1013A00000503120536F7572636520413A0050320E
:1013B000205A206163633A005031205A20616363F0
:1013C0003A00503220506974636820414C3A005012
:1013D0003120506974636820414C00503220526FB4
:1013E0006C6C20414C3A00503120526F6C6C2041A3
:1013F0004C3A00503220596177206779726F3A0079
:10140000503120596177206779726F3A005032204D
:101410005069746368206779726F3A0050312050C8
:1014200069746368206779726F3A00503220526F96
:101430006C6C206779726F3A00503120526F6C6C7F
:10144000206779726F3A005032205275642E2076F0
:101450006F6C756D653A005031205275642E2076A0
:101460006F6C756D653A00503220456C652E2076A4
:101470006F6C756D653A00503120456C652E207695
:101480006F6C756D653A0050322041696C2E207684
:101490006F6C756D653A0050312041696C2E207675
:1014A0006F6C756D653A005468726F74746C65206A
:1014B0006375727665005032205468722E20766F04
:1014C0006C756D653A005031205468722E20766F2D
:1014D0006C756D653A005032204F66667365743ADC
:1014E0000050312E6E204F66667365743A0050319D
:1014F0002E6E2025206F66207472616E733A005044
:1015000031204F66667365743A0044657669636599
:101510003A0050312E6E202D205032005031202DB7
:101520002050312E6E0050320050312E6E0050315E
:10153000005072657365743A004C6F7720562041F5
:101540006C61726D3A00414C20636F727265637416
:101550003A004779726F204C50463A004163632E3F
:10156000204C50463A0050574D20726174653A0045
:1015700044697361726D2074696D653A00536166E8
:101580006574793A00436F6E74726173743A004FF8
:101590007269656E746174696F6E3A004675746144
:1015A0006261004A522C53706B746D0058747265FE
:1015B0006D65005370656B7472756D00532D4275C7
:1015C000730050574D004350504D005472616E737C
:1015D0002E2050316E3A005472616E736974696FD7
:1015E0006E0050726F66696C65204368616E2E3ABA
:1015F0000043682E206F726465723A0050574D2088
:1016000073796E633A00525820747970653A004FCE
:101610004E004F464600596177207472696D3A005A
:10162000596177204920726174653A0059617720C9
:1016300049204C696D69743A0059617720493A0034
:1016400059617720503A0050697463682074726958
:101650006D3A005069746368204175746F4C766C04
:101660003A005069746368204920726174653A00D9
:1016700050697463682049204C696D69743A005060
:101680006974636820493A00506974636820503A6D
:1016900000526F6C6C207472696D3A00526F6C6C02
:1016A000204175746F4C766C3A00526F6C6C204917
:1016B00020726174653A00526F6C6C2049204C694D
:1016C0006D69743A00526F6C6C20493A00526F6C2D
:1016D0006C20503A00416363205665727420503A82
:1016E00000496E762E0043616C2E00416363005901
:1016F000617700506974636800526F6C6C004779C1
:10170000726F0032302E204572726F72206C6F67DC
:101710000031392E20506F732E20536572766F2062
:101720007472766C2E202825290031382E204E65C3
:10173000672E20536572766F207472766C2E202887
:1017400025290031372E20536572766F2064697227
:10175000656374696F6E0031362E204F5554382002
:101760004D697865720031352E204F555437204D24
:10177000697865720031342E204F555436204D69FA
:101780007865720031332E204F555435204D6978DD
:1017900065720031322E204F555434204D697865E2
:1017A000720031312E204F555433204D69786572C7
:1017B0000031302E204F555432204D69786572002B
:1017C000392E204F555431204D6978657200382EDE
:1017D00020466C696768742070726F66696C65205A
:1017E0003200372E20466C696768742070726F660D
:1017F000696C65203100362E204C6576656C206D55
:101800006574657200352E2053656E736F722063A8
:10181000616C6962726174696F6E00342E2053745A
:1018200069636B20706F6C617269747900332E206C
:10183000526563656976657220696E7075747300B0
:10184000322E205265636569766572207365747502
:101850007000312E2047656E6572616C0041626FC9
:1018600072740053617665004465662E00426163C0
:101870006B004D656E750045004400430042004119
:10188000004A69747465723A00506F733A0042619D
:1018900074746572793A0030002E0050726F666978
:1018A0006C653A004D6F64653A0056657273696FF6
:1018B0006E3A202020312E322042320001010101F7
:1018C000010101FFFFFFFF0101FF01FF0101000115
:1018D00002010200000102000102010002020100F7
:1018E000E17A0841C3F59040295C1F40713DCA3F31
:1018F00052B89E3F0000803F0000803F0000803FC4
:101900000000B841AE4739413333BB4066664640BC
:10191000C3F5E83FCDCCAC3F52B89E3F0000803FBE
:10192000030F1B27007F010028007F01000A007DB4
:1019300001000A0004010002007F01000A817F010A
:101940000000007F010028007F01000A007D0100E7
:101950000A0004010002007F01000A817F010000EB
:10196000007F01003C007F010028007D010019007C
:1019700004010002817F010000007F0100320000AD
:101980000000000000000000000000000000000057
:101990000000000000000000000000000000000047
:1019A00000000002010102837D01000001630100CB
:1019B00032837D010000837D010000007D01006411
:1019C000007D0100640002010100837D01000083AD
:1019D0007D010000837D010000837D010000837D87
:1019E000010000837D0100000002010100000201EE
:1019F00001000002010100000201010000020101DA
:101A000000000201010000020101000002010100CA
:101A100000020101000002010100000201010000BA
:101A200002010100000F01010F837D010000000F82
:101A300001010F837D010000000F01010F837D0173
:101A40000000000F01010F837D010000E200000093
:101A5000000000000000000000003800000000004E
:101A60000000000000000000440044004400440066
:101A70004400440044004400440044004400440046
:101A8000EE000000EE000000EE000000EE0000009E
:101A90000001010100830001039C007D0103648DAE
:101AA000008D008D008D008D008D008D008D00005B
:101AB0000000000000000000000000000000000026
:101AC0000000000000000000000000000000000016
:101AD00004010102000201010200040101040001ED
:101AE0000101000007010104002801000001630159
:101AF0000032817F010000817F01000000000000B2
:101B00000000050101001C32010024000101010157
:101B1000007F01001E000801010000060101030012
:101B2000070101020007010107010A010007000384
:101B30000104003E007600690074006900000000A6
:101B4000000000000000007C0000003500000000E4
:101B50000025002500250000001101000D121619B6
:101B60001C1F21232628292B2D2F303233353638C0
:101B7000393A3B3D3E3F4041424344454647484950
:101B80004A4B4C4D4D4E4F50515152535354555555
:101B9000565757585859595A5A5B5B5C5C5D5D5EA5
:101BA0005E5E5F5F5F60606061616162626262622F
:101BB00063636363636363646464646464646464EC
:101BC0000002030506080A0B0D0E10111314161758
:101BD000191A1C1D1F202223252628292B2C2D2FC6
:101BE000303233343637383A3B3C3D3F4041424354
:101BF00044464748494A4B4C4D4E4F50515253541E
:101C0000545556575858595A5A5B5C5C5D5E5E5F36
:101C10005F606060616162626263636363636464A6
:101C200064646464640011241FBECFEFD0E1DEBFA2
:101C3000CDBF14BE88E10FB6F89480936000109277
:101C400060000FBE15E0A0E0B1E0E4E6F0EA02C0FB
:101C500005900D92A631B107D9F728E0A6E1B5E0CD
:101C600001C01D92AB3AB207E1F70E94E81D0C9447
:101C700030500C94000000000895FDDFFCDFFBDF16
:101C8000FADF0895CF93AF93A5E05898C6E70E9476
:101C9000520E589ACAE70E94520EAA95B1F7AF9118
:101CA000CF91089500C000C000C000C000C000C0B7
:101CB00000C000C00000CA95A9F70895F62EEF9362
:101CC000FF93AF93BF93CF93DF930F931F932F9304
:101CD0003F934F935F936F937F93E82FF92F8F93E9
:101CE0009F93A191B191A65CB040AF93BF93A770B1
:101CF0007A2FA191B191AE5BB040AF93BF93A77023
:101D00006A2FA191B191A65BB040AF93BF93A7702A
:101D10005A2FA191B191AE5AB040AF93BF93A77023
:101D20004A2FA191B191A55AB040AF93BF93A7702C
:101D30003A2FA191B191AD59B040AF93BF93A77025
:101D40002A2FA191B191A559B040AF93BF93A7702D
:101D50001A2FA191B191AD58B040AF93BF93A77026
:101D60000A2F972F0E94CC0FF0FC469A0E94D80FA2
:101D7000962F0E94CC0FF1FC449A0E94D80F952F09
:101D80000E94CC0FF2FC429A0E94D80F942F0E941E
:101D9000CC0FF3FC439A0E94D80F932F0E94CC0FD4
:101DA000F4FC149A0E94D80F922F0E94CC0FF5FCDD
:101DB000159A0E94D80F912F0E94CC0FF6FC459ADD
:101DC0000E94D80F902F0E94CC0FF7FC479A0E94D8
:101DD000D80F0E94AB0F0E94AB0F0E94AB0FBF91B8
:101DE000AF910E94C50F0A2FBF91AF910E94C50FFE
:101DF0001A2FBF91AF910E94C50F2A2FBF91AF91AB
:101E00000E94C50F3A2FBF91AF910E94C50F4A2F74
:101E1000BF91AF910E94C50F5A2FBF91AF910E9401
:101E2000C50F6A2FBF91AF910E94C50F7A2FCFEFD8
:101E3000D0E00024715019F446980C94210F00C092
:101E400000C0615019F444980C94280F00C000C0E1
:101E5000515019F442980C942F0F00C000C041500B
:101E600019F443980C94360F00C000C0315019F497
:101E700014980C943D0F00C000C0215019F415981F
:101E80000C94440F00C000C0115019F445980C94F4
:101E90004B0F00C000C0015019F447980C94520F2A
:101EA00000C000C00E94B40FC150D00911F00C94C2
:101EB0001A0F9F918F917F916F915F914F913F91F9
:101EC0002F911F910F91DF91CF91BF91AF91FF9112
:101ED000EF9108950F931F932F930CEF18E00024B8
:101EE000803071F0813079F0823081F0833089F078
:101EF000843091F0853099F08630A1F08730A9F0D8
:101F0000469A0C94980F449A0C94980F429A0C9409
:101F1000980F439A0C94980F149A0C94980F159A52
:101F20000C94980F459A0C94980F479A0C94980F1C
:101F300000C000C000C000C000C000C061507009F7
:101F400019F420E028B922B90150100989F72F911E
:101F50001F910F9108950F9305E600C000C000C0C7
:101F60000150D9F70F9108950F9309E000C000C008
:101F700000C00150D9F7000000C000C00F910895C3
:101F800000C000C000C000C00895B695A795B695E2
:101F9000A795B695A7950895C7E09770C92731F022
:101FA0000E94C00FCA9509F0FBCF00C00000089541
:101FB000C92FC77031F00E94C00FCA9509F0FBCF3E
:101FC00000C00895CF93DF93CDB7DEB72C970FB63F
:101FD000F894DEBF0FBECDBF26E0AE014F5F5F4F6E
:101FE0006BE380ED0E94D128898190E0982F8827AB
:101FF0002A81820F911D36E0959587953A95E1F7F4
:1020000098878F838B8190E0982F88272C81820F6F
:10201000911D56E0959587955A95E1F79195819593
:1020200091099A8789878D8190E0982F88272E8142
:10203000820F911D76E0959587957A95E1F79C87BB
:102040008B8720914906AEE3B5E043E0240290017E
:10205000112480E090E022523F4FF901E80FF91F70
:10206000E491EE0FFF0B41E050E04C0F5D1FE40FD9
:10207000F51F468157814D935D93019683309105FD
:1020800061F72C960FB6F894DEBF0FBECDBFDF917F
:10209000CF9108951F93CF93DF930E94E20F809119
:1020A000C80780FD05C01092B0071092AF070EC0A0
:1020B0008091B1079091B2072091B5073091B60792
:1020C000821B930B9093B0078093AF072091490632
:1020D000CBEAD7E0AEE3B5E083E02802900111241B
:1020E00080E090E024533F4F69917991F901E80F26
:1020F000F91F14914D915C911197461B570B1403D6
:10210000B001159F700D11246D937D93019683305E
:10211000910551F76091B1077091B2078091AF07B7
:102120009091B007681B790B882777FD8095982FD1
:102130000E94FA4D2091B1053091B2054091B3054E
:102140005091B4050E94F74C0E94C74D709317053B
:1021500060931605DF91CF911F9108951F93CF9340
:10216000DF9300D000D000D0CDB7DEB71A8219823D
:102170001C821B821E821D82811172C010E20E948D
:10218000E20F89819A8120913E0530913F05820FAF
:10219000931F9A8389838B819C8120914005309184
:1021A0004105820F931F9C838B838D819E8120919B
:1021B000420530914305820F931F9E838D838FE4E8
:1021C00093EC0197F1F700C000001150C1F6FE0139
:1021D00031969E01295F3F4F80819181409645E075
:1021E000959587954A95E1F781939193E217F307C7
:1021F00099F789819A819093AC078093AB078B8183
:102200009C819093AE078093AD07809149069927F2
:1022100087FD9095FC01EE0FFF1FE80FF91FE253B9
:10222000FF4F44912D813E814203C001439F900D99
:1022300011249093B2078093B1078091C807826000
:102240008093C8070E94EC172B9A9FE724E84EE181
:10225000915020404040E1F700C000002B9876C02C
:102260008091C80781FF72C01092B4071092B30723
:1022700010E20E94E20F8091B3079091B407209181
:10228000420530914305820F931F9093B4078093CA
:10229000B3078FE493EC0197F1F700C000001150F1
:1022A00041F780914906992787FD9095FC01EE0F33
:1022B000FF1FE80FF91FE253FF4F44912091B3072E
:1022C0003091B407205F3F4FB5E035952795BA951B
:1022D000E1F74203C001439F900D11249093B4078E
:1022E0008093B30797FF32C02091B1073091B207B6
:1022F000A901481B590BCA01959587959093B6077C
:102300008093B507281B390B3093B0072093AF0794
:102310008091C80781608093C8070E94EC172B9AB0
:102320005FE784E89EE1515080409040E1F700C0B3
:1023300000002B9885E026960FB6F894DEBF0FBEFE
:10234000CDBFDF91CF911F910C941C3626960FB60E
:10235000F894DEBF0FBECDBFDF91CF911F910895DE
:1023600041E06BE680ED0E94BA2848E06CE180ED28
:102370000C94BA288FEF80937E0010927B00089512
:1023800080937C0086EC80937A0080917A0086FDB1
:10239000FCCF0895CF92DF92EF920F93CF93DF930C
:1023A000CBE0D0E01F9B7FC00E944A1060E070E04D
:1023B000CB010E94322B21972097A1F720E030E03B
:1023C00040E052E46091AD057091AE058091AF059B
:1023D0009091B0050E94F74C0E94C74DEB0120E0A0
:1023E00030E040E852E46091A9057091AA0580911F
:1023F000AB059091AC050E94F74C0E94C74D6B0154
:10240000D7FD06C0C134D1052CF0C0E4D0E002C035
:10241000C0E0D0E0D7FC08C081E8C816D10434F091
:1024200080E8C82ED12C02C0C12CD12C27E330E08B
:1024300042E050E069E071E08CE090E00E945C26B0
:10244000EE24E39400E420E840E060E080E091E0E6
:102450000E94792505E125E146E166E380E091E00F
:102460000E94792508E320E448E060E480E091E000
:102470000E940F2500E220E640E260E280E091E069
:102480000E940F2501E028E04C2F6C2D80E091E0A8
:102490000E94CB2580E091E00E947D2480E091E0C5
:1024A0000E94AF247DCFDF91CF910F91EF90DF900D
:1024B000CF9008959091CC07E92FFF27E7FDF09585
:1024C000E353F84F80839F5F93311CF49093CC07C4
:1024D00003C083E18093CC070C94EC17AF92BF92BA
:1024E000CF92DF92EF92FF920F931F93CF93DF93E0
:1024F000B12C9DECC92E97E0D92E24E1A22E1F9B72
:102500004DC01C9909C0F6012A2D11922A95E9F7B0
:102510001092CC070E94EC171E9903C0BA94B7FC26
:10252000B12C1D9906C0B3948EE08B1514F48FE086
:10253000B82E00E010E0C0E0D0E0EB2CFF24E7FC78
:10254000F094F701EF53FA4F7F01F701EC0FFD1FF5
:10255000E45FFD4F8081992787FD9095980140E0C9
:1025600050E061E27AE0855E9E4F0E945C262196F3
:10257000065F1F4FC530D10541F783E00E945D33F0
:1025800080E091E00E94AF24FFE72AE186E0F1506D
:1025900020408040E1F700C00000B1CFDF91CF9133
:1025A0001F910F91FF90EF90DF90CF90BF90AF9071
:1025B00008950E9424331F9BFAC01C9B0E94974AD7
:1025C0000E94024A20E030E040E050E061E27AE020
:1025D00082E790E00E945C262AE030E040E050E094
:1025E00061E27AE080E290E00E945C2624E130E043
:1025F00040E050E061E27AE083E790E00E945C26F0
:102600002EE130E040E050E061E27AE083E290E0E9
:102610000E945C2620E030E046E450E061E27AE08F
:102620008DE690E00E945C262AE030E046E450E02F
:1026300061E27AE08EE690E00E945C2624E130E0E0
:1026400046E450E061E27AE08FE690E00E945C268A
:102650002EE130E046E450E061E27AE080E790E08D
:102660000E945C2680918708909188084AE06AE67B
:1026700075E00E94CC4F20E030E045E250E061E29E
:102680007AE00E94644480918B0890918C084AE023
:102690006AE675E00E94CC4F2AE030E045E250E067
:1026A00061E27AE00E94644480918D0890918E08E6
:1026B0004AE06AE675E00E94CC4F24E130E045E252
:1026C00050E061E27AE00E94644480918F0890912A
:1026D00090084AE06AE675E00E94CC4F2EE130E0B7
:1026E00045E250E061E27AE00E9464448091910802
:1026F000909192084AE06AE675E00E94CC4F20E093
:1027000030E044E650E061E27AE00E946444809167
:102710009308909194084AE06AE675E00E94CC4FD5
:102720002AE030E044E650E061E27AE00E9464444E
:1027300080919508909196084AE06AE675E00E94BB
:10274000CC4F24E130E044E650E061E27AE00E94C0
:10275000644480919708909198084AE06AE675E091
:102760000E94CC4F2EE130E044E650E061E27AE096
:102770000E94644429E330E040E050E069E071E009
:102780008CE090E00E945C2627E330E04EE650E0CB
:1027900061E27AE08CE390E00E945C2680E091E0C8
:1027A0000E947D2480E091E00E94AF2404CF089530
:1027B000CF9380E091E00E94AF24C1E01F9BE7C06F
:1027C0000E9442270E944A1020E030E045E250E09B
:1027D00061E27AE08AE190E00E945C2620E030E04D
:1027E0004DE450E061E27AE08EE190E00E945C26E8
:1027F0002DE030E045E050E061E27AE08BE190E0EE
:102800000E945C2627E130E045E050E061E27AE09A
:102810008CE190E00E945C2621E230E045E050E04F
:1028200061E27AE08DE190E00E945C264AE06AE68F
:1028300075E080918305909184050E94CC4F2DE036
:1028400030E048E250E061E27AE00E9464444AE00D
:102850006AE675E080918505909186050E94CC4FCF
:1028600027E130E048E250E061E27AE00E9464440F
:102870004AE06AE675E080918705909188050E949C
:10288000CC4F21E230E048E250E061E27AE00E9481
:1028900064444AE06AE675E080913E0590913F0508
:1028A0000E94CC4F2DE030E040E550E061E27AE05C
:1028B0000E9464444AE06AE675E080914005909188
:1028C00041050E94CC4F27E130E040E550E061E255
:1028D0007AE00E9464444AE06AE675E0809142052D
:1028E000909143050E94CC4F21E230E040E550E05A
:1028F00061E27AE00E94644429E330E040E050E085
:1029000069E071E08CE090E00E945C2627E330E013
:102910004CE650E061E27AE08CE390E00E945C26B5
:1029200027E330E04BE450E061E27AE089E190E0B7
:102930000E945C2680E091E00E947D2480E091E08E
:102940000E94AF24C1110E942B391C9910C00E9413
:102950002B392FE382E49FE0215080409040E1F743
:1029600000C000000E946F2780E00E94AE101D99F9
:102970000CC02FE382E49FE0215080409040E1F7BB
:1029800000C0000081E00E94AE10C0E017CFCF91E0
:102990000895BF92CF92DF92EF92FF920F931F9311
:1029A000CF93DF9300D000D0CDB7DEB780E091E0C9
:1029B0000E94AF2420E030E040E050E061E27AE0A5
:1029C00088E091E00E945C262CE030E040E050E09E
:1029D00061E27AE08AE091E00E945C2628E130E042
:1029E00040E050E061E27AE08BE091E00E945C26FA
:1029F00028E130E048E550E061E27AE087E190E0EC
:102A00000E945C262BE330E040E050E069E071E09A
:102A100089E090E00E945C2627E330E04AE050E045
:102A200061E27AE08EE090E00E945C264091EA0547
:102A3000552747FD5095425C5F4F0CE02DE261E069
:102A400080E090E00E94F3334AE06AE675E080910E
:102A50002105909122050E94CC4F28E130E04EE6FE
:102A600050E061E27AE00E9464448091EA0581309E
:102A7000D9F42CE030E04DE450E061E27AE088E106
:102A800090E00E945C2680911C0590911D054AE013
:102A90006AE675E00E94CC4F2CE030E04EE650E054
:102AA00061E27AE00E9464448091210590912205C0
:102AB000181619064CF028E130E04DE250E061E2D2
:102AC0007AE080E390E031C0843691054CF028E153
:102AD00030E04DE250E061E27AE082E390E025C030
:102AE0002091F005332727FD30958217930749F48D
:102AF00028E130E04DE250E061E27AE081E390E0ED
:102B000014C0821793074CF428E130E04DE250E006
:102B100061E27AE083E390E008C028E130E04DE232
:102B200050E061E27AE084E390E00E945C268091CC
:102B30002005811185C024E230E040E050E061E2F0
:102B40007AE085E890E00E945C260E94D74C6C01F8
:102B500064E670E00E94114F8B014AE06AE675E07E
:102B6000C8010E94CC4FAE014F5F5F4F61E27AE037
:102B70000E9415434AE06AE675E0C8010E94CC4F06
:102B800024E230E04DE250E061E27AE00E946444E9
:102B90002CE920037001219FF00C1124EC0CFD1C8A
:102BA0000981112707FD1095035D1F4F24E230E0D6
:102BB000A80161E27AE08CE091E00E945C26AE011F
:102BC0004F5F5F4F61E27AE08AE095E00E94154333
:102BD000C980AE014F5F5F4F61E27AE08CE095E023
:102BE0000E941543B980DD24C7FCD0948AE0E81622
:102BF000F10440F04AE06AE675E0C7010E94CC4F5C
:102C0000A80116C0A8014C0D5D1D24E230E061E270
:102C10007AE08DE091E00E945C264AE06AE675E089
:102C2000C7010E94CC4FA8014B0D511DB7FC5A950E
:102C30004C0D5D1D24E230E061E27AE00E946444C4
:102C400080912005882309F453C08091200583FFDB
:102C500013C025E230E04FE050E063E771E086E822
:102C600090E00E945C2625E230E04FE450E063E70C
:102C700071E08FE091E03AC08091200581FF13C0A0
:102C800025E230E04EE150E063E771E08BE490E054
:102C90000E945C2625E230E047E350E063E771E004
:102CA00080E191E023C08091200580FF13C025E2E0
:102CB00030E04BE050E063E771E089E690E00E948D
:102CC0005C2625E230E042E550E063E771E08EE00B
:102CD00091E00CC08091200582FF0AC025E230E01F
:102CE00049E150E063E771E082E190E00E945C26F8
:102CF00080E091E00E947D2480E091E00E94AF247A
:102D00000F900F900F900F90DF91CF911F910F9127
:102D1000FF90EF90DF90CF90BF900895AF92BF9259
:102D2000CF92DF92EF92FF920F931F93CF93DF9397
:102D3000D090CA07F090CB07A090C9071092CA079D
:102D40001092CB071092C907D0E0C0E01F9BD2C001
:102D5000C111D2C080E091E00E94AF2492E0C92E60
:102D600010E061E1610FEE24E39408E228E240E024
:102D700080E091E00E94792586E2B82EB10E20E332
:102D8000210F03E044E16B2D80E091E00E940F25CC
:102D900028E3210F69E2610F06E045E180E091E060
:102DA0000E940F2501E022E045E16B2D80E091E0DB
:102DB0000E94CB2563E3610F24E045E080E091E0D1
:102DC0000E94CB25CA9411F014E3CBCF29E330E065
:102DD00040E050E069E071E08CE090E00E945C2609
:102DE0000E94024A80918B0890918C088033984F02
:102DF0003CF080918B0890918C08813D97406CF05D
:102E0000D1110BC02BE230E040E150E063E771E00C
:102E100087E890E00E945C2668C080918B089091C2
:102E20008C08843F91403CF480918B0890918C08F1
:102E30008D309E4FE4F480918D0890918E08843FF0
:102E400091403CF480918D0890918E088D309E4F7A
:102E500074F480918F0890919008843F91409CF485
:102E600080918F08909190088D309E4F64F02BE2F6
:102E700030E049E050E063E771E088E890E00E94CC
:102E80005C26D1E032C080918B0890918C0897FF2E
:102E900003C081E08093CA0780918D0890918E08CD
:102EA00097FF03C081E08093CB0780918F089091BA
:102EB000900897FF03C081E08093C90780918B0839
:102EC00090918C081816190684F480918D089091C1
:102ED0008E08181619064CF480918F08909190086E
:102EE000C1E0181619060CF0C0E080E091E00E94E5
:102EF0007D242CCFCC2339F12BE230E048E250E0A6
:102F000063E771E089E890E00E945C2680E091E050
:102F10000E947D2480E091E00E94AF248FE794E836
:102F20002EE1815090402040E1F700C00000DF9189
:102F3000CF911F910F91FF90EF90DF90CF90BF90B6
:102F4000AF900C94EC17D092CA07F092CB07A092E6
:102F5000C907DF91CF911F910F91FF90EF90DF9004
:102F6000CF90BF90AF9008950F931F93CF93DF93AF
:102F70001F92CDB7DEB78C0169830E940150698131
:102F8000861741F0C8010F90DF91CF911F910F91EB
:102F90000C9409500F90DF91CF911F910F910895DC
:102FA000EF92FF920F931F93CF93DF93EC018B016E
:102FB0007A01E80EF91ECE15DF0539F06991C801D6
:102FC0000E94B4170F5F1F4FF6CFDF91CF911F9173
:102FD0000F91FF90EF900895F89440E252E060E086
:102FE00070E081EC95E00E94D017789408952F92BC
:102FF0003F924F925F926F927F928F929F92AF9289
:10300000BF92CF92DF92EF92FF920F931F93CF93D5
:10301000DF93CDB7DEB7C554D1400FB6F894DEBF0D
:103020000FBECDBF40913A07CF5BDE4F4883C154FE
:10303000D1404AE450E06BE377E083E897E00E94F8
:10304000BA4F23E536E0AE014F5C5E4FCE010196EC
:103050006DE1F901DC01762F01900D927A95E1F78F
:103060008696235E3F4F8417950799F74E0183E1BB
:10307000880E911C5E0194E1A90EB11C6E01E5E180
:10308000CE0ED11CCE014696CF5CDE4F998388834D
:10309000C153D1408E01025E1F4FFE017D96C75C79
:1030A000DE4FF983E883C953D1400696CD5CDE4FED
:1030B00099838883C353D1403297C35CDE4FF98331
:1030C000E883CD53D1400297C95CDE4F9983888352
:1030D000C753D1403297C55CDE4FF983E883CB53A9
:1030E000D1400297CB5CDE4F99838883C553D14092
:1030F0007E0197E1E90EF11C3E01E5E06E0E711CC8
:1031000081E090E08C0F9D1F835B9E4FCE5BDE4F76
:1031100099838883C254D140FE013196C15CDE4F51
:10312000F983E883CF53D14082E0582E442443945E
:1031300049E150E0B301C80148970E94BA4FF40139
:103140003080F5012081F6013081CF5CDE4FE881CF
:10315000F981C153D1402080F30136FE02C0508274
:1031600001C0108248E050E0B701C8010196CC5B75
:10317000DE4F2883C454D140CB5BDE4F3883C55427
:10318000D1400E94BA4F80E090E0CB5BDE4F3881A7
:10319000C554D140CC5BDE4F2881C454D140C15CC2
:1031A000DE4FE881F981CF53D140E80FF91F468DFA
:1031B0004D3011F44FE0468F02968830910579F733
:1031C000F40130FE06C030FF02C0508203C04082CE
:1031D00001C01082F50120FF06C020FE02C050820F
:1031E00003C0408201C01082F60131FE06C031FFEB
:1031F00002C0508203C0408201C01082CF5CDE4F0B
:10320000E881F981C153D14021FF06C021FE02C0EF
:10321000508203C0408201C01082F70132FE06C016
:1032200032FF02C0508203C0408201C01082CB5CDA
:10323000DE4FE881F981C553D14022FF06C022FE4E
:1032400002C0508203C0408201C01082C55CDE4FC4
:10325000E881F981CB53D14033FE06C033FF02C071
:10326000508203C0408201C01082C95CDE4FE881F9
:10327000F981C753D14023FF06C023FE02C050820C
:1032800003C0408201C01082C35CDE4FE881F98137
:10329000CD53D14034FE06C034FF02C0508203C07B
:1032A000408201C01082CD5CDE4FE881F981C353BA
:1032B000D14024FF06C024FE02C0508203C04082D9
:1032C00001C01082C75CDE4FE881F981C953D1404B
:1032D00035FE06C035FF02C0508203C0408201C0E7
:1032E0001082F80125FF06C025FE02C0508203C0EF
:1032F000408201C01082C15CDE4F88819981CF532A
:10330000D1408696C15CDE4F99838883CF53D140EC
:1033100096E2890E911CE6E2AE0EB11CF6E2CF0EEB
:10332000D11CCF5CDE4F88819981C153D1408696F4
:10333000CF5CDE4F99838883C153D1400A5D1F4F14
:10334000C75CDE4FE881F981C953D140B696C75CAE
:10335000DE4FF983E883C953D140CD5CDE4F8881CD
:103360009981C353D1408696CD5CDE4F9983888383
:10337000C353D140C35CDE4FE881F981CD53D140C6
:10338000B696C35CDE4FF983E883CD53D140C95C68
:10339000DE4F88819981C753D1408696C95CDE4F44
:1033A00099838883C753D140C55CDE4FE881F9819A
:1033B000CB53D140B696C55CDE4FF983E883CB533F
:1033C000D140CB5CDE4F88819981C553D140869630
:1033D000CB5CDE4F99838883C553D14096E2E90EDA
:1033E000F11CE6E26E0E711CCE5BDE4F8881998186
:1033F000C254D1400817190709F09ACE8FE291E024
:10340000FE013196A3E5B6E001900D920197E1F738
:10341000CF5BDE4F9881C154D1409093820786E301
:103420008093C105CB5BDE4F0FB6F894DEBF0FBEB5
:10343000CDBFDF91CF911F910F91FF90EF90DF9063
:10344000CF90BF90AF909F908F907F906F905F9044
:103450004F903F902F900895CF93DF93CDB7DEB775
:103460002C970FB6F894DEBF0FBECDBF8091EA0552
:10347000898380914E068A838091EB058B838091AE
:10348000EC058C838091ED058D839091F1059E83F1
:103490009091F2059F839091EE0598879091EF05AA
:1034A0009987209152062A879091F0059B8739E0F1
:1034B000FE013196AAEEB5E001900D923A95E1F742
:1034C00020934E0690935206883019F487E080933B
:1034D000EE0587E38093C1052C960FB6F894DEBF06
:1034E0000FBECDBFDF91CF910895E0914F06E73039
:1034F00028F4F0E0E25FFA4F808101C087E080931A
:103500004F06E0915006E73028F4F0E0E25FFA4F12
:10351000808101C087E08093500688E38093C105D5
:103520000895E2E5F6E080818093C907108289E37F
:103530008093C10508958091F1058093CA07809119
:10354000F2058093CB078AE38093C10508950F931A
:103550001F93CF93DF9392E1E3EFF5E0DF01292F93
:103560001D922A95E9F7E5E0F6E0DF011D929A95B4
:10357000E9F720E331E0E3E5F6E0DF01A9011D9280
:1035800041505040E1F7E7E7F6E0CBE8D7E003E948
:1035900017E072E39FE06CE944E69F012E51310988
:1035A00052E3D9017C93285E3F4FD9019C932C5F55
:1035B0003F4FD9019C9322503109D9019C939083AC
:1035C000699324E6D8014D938D01B696B7E0E73AAA
:1035D000FB0719F7813061F008F4CEC0823009F49E
:1035E00087C1833009F045C281E080934B0641C218
:1035F00080934B065093F3059AE09093F4059093D3
:10360000F50522E02093F6059093F7055093F90510
:103610009093FA059093FB052093FC059093FD058C
:103620004CE34093FF0598E29093000639E1309314
:10363000010620930206509304069093050663E169
:10364000609306065EE05093070623E02093080689
:103650008093090690930B0660930C0650930D0619
:1036600020930E0680930F06409311069093120646
:1036700030931306209314068EE180931606E0E73C
:10368000F6E034E642E021E0DF01549794E63C9313
:1036900011963C9316974C93589681E02C93208377
:1036A000B69657E0E830F50779F710925F0610926A
:1036B00060062CEE2093610632EE30936206309362
:1036C000630668ED609364068093670680936D06D9
:1036D0008093680680936E068093690680936A06DD
:1036E00020938506309386061092870610928806EE
:1036F0002EE12093890648E240938A0680938B0648
:103700008093910680938C068093920680938F0617
:10371000809390061092AB061092AC0654E1509341
:10372000AD062093AE063093AF066093B00680934B
:10373000B3068093B9068093B4068093BA0680934B
:10374000B5068093B6065093D1062093D206109208
:10375000D3061092D4062093D5064093D6068093C4
:10376000D7068093DD068093D8068093DE0680938B
:10377000DB068093DC06A9C031E030934B0688E27B
:103780008093F3059AE09093F4059093F50522E079
:103790002093F6059093F7058093F9059093FA0529
:1037A0009093FB052093FC059093FD054CE340931B
:1037B000FF058093000699E190930106209302068D
:1037C000509304068093050673E1709306066EE03D
:1037D0006093070653E050930806309309068093E0
:1037E0000B0670930C0660930D0650930E063093F3
:1037F0000F064093110680931206909313062093B0
:1038000014068EE180931606E0E7F6E024E632E047
:1038100081E0DF01549794E62C9311962C93169730
:103820003C931E968C9316968C9315978C931696B4
:103830008C9315978C9316968C9315978C9316965C
:103840008C9315978C9311968C9315968C938083FB
:10385000B696A7E0E830FA07E1F62FE020935F067E
:1038600084E18093600641EF409361063CEE309323
:103870006206E8EDE09363067EEC70936406409385
:10388000850630938606409387063093880668E263
:103890006093890652E350938A064093AB063093B7
:1038A000AC062093AD068093AE06E093AF0670930E
:1038B000B0062093D1068093D2062093D30680933E
:1038C000D4066093D5065093D6068BE48093F90610
:1038D0009093FA0680931D0790931E0780934707E5
:1038E000909348078CE98093620790936507C1C065
:1038F00091E090934B0638E23093F3054AE0409311
:10390000F4054093F5058093F6054093F705309351
:10391000F9054093FA054093FB058093FC0540931D
:10392000FD056CE36093FF053093000649E1409389
:103930000106809302065093040630930506E3E1E6
:10394000E09306067EE07093070653E05093080666
:103950009093090630930B06E0930C0670930D06C6
:1039600050930E0690930F06609311063093120643
:1039700040931306809314064EE14093160620935D
:103980005C0620935D068093570620938206209361
:10399000830680937D062093A8062093A906809332
:1039A000A30640935F063093600661EF6093610663
:1039B0005CEE509362069093650690936B0690932D
:1039C000660690936C068093670680936D068093DD
:1039D000680680936E0690936F069093700672EE61
:1039E0007093850678ED70938606609387065093F2
:1039F000880690938B069093910690938C069093F3
:103A0000920680938D068093930680938E06809312
:103A1000940690939506909396064093AD06309346
:103A2000AE068093B3068093B9068093B406809364
:103A3000BA069093BB069093BC061092C9068BE41D
:103A40008093D5062093D6069093DB069093DC06F0
:103A50008093F9062093FA0680931D0720931E0792
:103A600080934707209348078CE98093620720934F
:103A70006507DF91CF911F910F910895CF93DF9349
:103A800080E292E0E1ECF5E0DF019C011D92215023
:103A90003040E1F78AE38093C10582E08093EA0534
:103AA00094E09093EE0521E020934B068093EB0584
:103AB0009093EC0580934F0687E08093500693E047
:103AC00090934E06809351068EE180934C0682E3DC
:103AD0008093F00580E890E09093B2078093B1075F
:103AE00084E280934A06E8EFF0E0C2ECD5E0ABE96F
:103AF000B7E086EA9EE0249129938D939D933196B9
:103B000031E0E030F307B9F78EEB9AE090939C0731
:103B100080939B07E7E7F6E0CBE8D7E063E977E03F
:103B200052E32FE04CE934E6CF014E97DC015C9381
:103B30004896DC012C930496DC012C930297DC015F
:103B40002C9320834993DB013D93BD01B696B7E0EA
:103B5000E73AFB0749F780E00E94A71A84E08093C8
:103B60005206DF91CF910895CF93DF931F92CDB787
:103B7000DEB740E252E060E070E081EC95E00E9448
:103B8000F14F8091C105873381F028F4853349F0E6
:103B9000863349F012C0893361F048F08A3379F0F6
:103BA0000CC00E94F7170E942C1A0E94751A0E94DE
:103BB000911A0E949B1A81E003C00E943E1D80E082
:103BC00089830E94EC1789810F90DF91CF9108952E
:103BD000CF93DF93CDB7DEB7AC970FB6F894DEBFC7
:103BE0000FBECDBF0E94592DB3E08B2E912C19A68C
:103BF00018A613E0712E18E0188EB12C1F8A1E8AA9
:103C00001FA21EA21DA21CA21BA21AA219A218A2C8
:103C10001F8E412C512C212C312C1B8A1A8A198A77
:103C2000188A1CA61BA61E8E1D8E1A8E198E1F8624
:103C30001E8601E6C02E01E5D02EE12CF12C1E825D
:103C40001F82188619861A821B821C821D8221E01F
:103C50002A8700E01C8E1B861D861C861982809197
:103C600018058F5F8093180580910D08882331F027
:103C70004E895F894F5F5F4F5F8B4E8B2E853F85EF
:103C80002C343C4428F1288D2F5F288F4E895F8982
:103C900050931D0540931C058091EB05823011F473
:103CA00021E02C8F0E94D74C209147063091480686
:103CB0008217930720F480912005886003C08091CB
:103CC0002005877F809320051F8A1E8A1F861E86F7
:103CD000812F90E08B30910508F06EC0FC01E25C12
:103CE000FF4F0C947A4F83B1807F803F41F08091E9
:103CF0006E00816080936E0013E0188E5DC010929C
:103D00006E0081E085BB58C08091F207811149C0E7
:103D1000011147C080911905882309F44DC014E0B2
:103D20004DC00E94C91416E01A8E198E47C01F9B01
:103D300043C015E041C0388D3A30B0F51F9B36C006
:103D4000498D5A8D43315341B8F113E037C080910A
:103D5000F20781112DC001112BC080911905882314
:103D600069F118E029C00E94672619E027C08091F8
:103D7000F20781111FC001111DC080911905882310
:103D8000E9F010E019C029988091200584608093A3
:103D900020052B980E94A2380E94102D14E0188E46
:103DA0000DC014E000E00AC017E006C01AE006C02B
:103DB00018E001C010E000E0A12C02C0AA24A394E6
:103DC000809119058823A1F080912005826080935D
:103DD000200580914B06813081F48091200582FD81
:103DE0000CC0809120058460809320052B9805C02D
:103DF000809120058D7F809320058091200583FD93
:103E000008C08091200581FD04C08091200580FFBD
:103E100006C080911E0584FF02C0299A01C029981E
:103E200080914B06813009F09DC080918B08909164
:103E30008C0881349C4F3CF080918B0890918C08C9
:103E4000803C934014F180918D0890918E088134CC
:103E50009C4F3CF080918D0890918E08803C93405F
:103E6000A4F080918F089091900881349C4F3CF091
:103E700080918F0890919008803C934034F080911D
:103E8000870890918808C39724F01A821B821C82AD
:103E90001D82809120052A813B814C815D8182FFBA
:103EA00020C02C343C444105510508F462C0809187
:103EB0008B0890918C0880349C4F0CF05AC08091F4
:103EC00020058B7F809320050E94C4272B9A0E9497
:103ED000102DB12C212C312C1A821B821C821D82A8
:103EE0004BC0223E344E41055105A0F080918B0815
:103EF00090918C08813C93406CF080912005846007
:103F0000809320052B9882E00E945A121A821B820D
:103F10001C821D8280911F0580FD0AC080914C0685
:103F2000882331F0BCE42B163B0628F0B39401C083
:103F3000B12C212C312C40914C062B2D30E0842FBC
:103F4000992787FD909528173907B4F04E31A4F0D2
:103F5000809120058460809320052B9884E00E9446
:103F60005A120AC0809120058B7F809320052B9ADE
:103F700003C0B12C212C312C8091F207882309F445
:103F800076C10E94024A8091870890918808C29762
:103F90005CF4809120058E7F8093200588E1E1E22A
:103FA000F8E011928A95E9F78091EE05880F990B58
:103FB000FC01E757F74F20813181253F314014F054
:103FC00022E006C0208131812D303E4F24F021E0D7
:103FD0002093BF0702C01092BF07A3E07A1629F012
:103FE0002091EF0538A5321751F17090BF0741E0DD
:103FF000741661F052E07516B1F071101DC0109288
:104000002305109225051092240516C024E0209364
:1040100023052091F005332727FD309530932505A2
:104020002093240509C029E020932305A4E6B0E0ED
:10403000B0932505A09324052091EF0528A7309182
:10404000BF073B8F31E04B8D471101C030E020911D
:10405000EF0521111BC0FC01E757F74F80819181CB
:1040600088519C4F97FF02C080E090E00A9664E17F
:1040700070E00E94254F653671050CF4B4C384E6E8
:1040800090E09093220580932105B1C3809124058F
:10409000909125059093220580932105332399F073
:1040A0004B8D842F992787FD9095FC01EE0FFF1F04
:1040B000E80FF91FE70DF11D77FCFA95E050FF4F6F
:1040C000E491E0932305222349F053EC2503C0013A
:1040D00011244A895B898417950718F0332309F462
:1040E000A9C080912305811105C010922505109269
:1040F000240522C0843031F48091F005992787FD92
:10410000909504C0893039F484E690E090932505B9
:104110008093240511C0813079F48091F0059927AE
:1041200087FD9095209124053091250582179307EE
:104130001CF488E08093230580912305883079F46E
:104140008091F005992787FD909520912405309165
:104150002505281739071CF481E0809323058091F9
:1041600023058B7F823091F4809124059091250561
:10417000019790932505809324051816190634F0AD
:104180001092250510922405109223058091230595
:104190008130C1F48091240590912505019690937A
:1041A0002505809324052091F005332727FD3095C0
:1041B000821793073CF0309325052093240584E073
:1041C00080932305809123058830C1F480912405D4
:1041D00090912505019790932505809324052091C2
:1041E000F005332727FD3095281739073CF0309329
:1041F00025052093240584E08093230580912305E1
:104200008B7F8330A9F48091240590912505019638
:104210009093250580932405843691054CF0A4E6FF
:10422000B0E0B0932505A093240589E08093230591
:104230001B8A1A8A20912305222331F080912105BF
:1042400090912205009739F48CE0EDE2F8E01192AC
:104250008A95E9F70DC0293019F08436910541F4AB
:104260008CE0A1E2B8E01D928A95E9F701C07B8E4F
:104270000E9429309D8B8C8B84159505B8F480E0C5
:1042800090E0A1E0B0E084199509A109B1092C8959
:104290003D89820F931FA11DB11D2E813F8148854D
:1042A0005985280F391F4A1F5B1F0CC08C899D89B7
:1042B000841995092E813F8148855985280F391F1A
:1042C000411D511D2E833F83488759878091B2003D
:1042D0003BA1831B2A813B814C815D81280F311DCD
:1042E000411D511D2A833B834C835D833091B20075
:1042F0003BA38091B2004EA1841B28893989280FE5
:10430000311D398B288B3091B2003EA38091B200D1
:104310004DA1841B2BA53CA5280F311D3CA72BA725
:104320003091B2003DA38091B2004F8D841B2A8949
:104330003B89280F311D3B8B2A8B3091B2003F8F78
:104340008091B20048A1841B2E853F85280F311D26
:104350003F872E873091B20038A38091B20049A1E7
:10436000841B298D3A8D280F311D3A8F298F30916A
:10437000B20039A38091B2004AA1841B280E311CDF
:104380002091B2002AA38091B2003CA1831B4D8DE5
:104390005E8D480F511D5E8F4D8F2091B2002CA372
:1043A00080911E0553FF02C0806101C08F7E809303
:1043B0001E05488959894D32514020F0198A188AC2
:1043C00021E02B874BA55CA54632564290F08091A8
:1043D000190581110BC080914B06813039F4809111
:1043E000200582FD03C083E00E945A1281E0809381
:1043F00019050E9442270E944A100E94293016BCCB
:1044000020911A0530911B0520911A0530911B054A
:10441000AC01421B530B90931B0580931A058091AE
:10442000F5079091F60760E070E0029718F42A0112
:104430003B0111C04090F5075090F607612C712C9C
:10444000EFE0440C551C661C771CEA95D1F7440E2E
:10445000551E661E771E1092F6071092F507C301CF
:10446000B2010E94322BC301B2010E949944809193
:10447000F207882309F4C6C08091EB05823064F40A
:1044800021E02A872E813F8148855985243C324A84
:104490004105510508F41A86298121110EC0823088
:1044A00009F0A9C1809110089091110831E03A8774
:1044B000843C924A40F41A863BC0823009F09BC18A
:1044C0002A852223A9F138ECC3163BE4D306E10484
:1044D000F10408F094C146E2C4164FE3D406E104A7
:1044E000F10408F090C151E2C51656E3D506E10487
:1044F000F10408F08CC18DE5C8168FE2D806E104FE
:10450000F10408F088C19CECC91699E2D906E104CF
:10451000F10408F084C1A4EECA16A5E2DA06E104AB
:10452000F10498F521E029837AE0872E912C38C098
:104530003DECC31636E4D306E104F10408F075C17E
:1045400044EAC41648E3D406E104F10408F071C15A
:1045500053E3C5165FE2D506E104F10408F06DC12E
:1045600085E7C81688E2D806E104F10408F069C1BD
:1045700096E6C91693E2D906E104F10460F421E05D
:10458000298368E0862E912C0BC031E0398359E0F5
:10459000852E912C05C041E0498347E0842E912C63
:1045A000109219050E9429309D8B8C8B8091EB0510
:1045B0008230B9F429812223A1F03C8D311118C039
:1045C0008091F207811101E01092F2070E941133ED
:1045D0001CA61BA61E821F82188619861D861C8695
:1045E00011C01CA61BA61E821F82188619860AC02F
:1045F0001CA61BA61E821F82188619861C8E41E0EF
:104600004C8719828091F207811108C08091EB05D7
:10461000823009F0C6C02C852111A3C08091F20719
:10462000882319F01092F20701E09091EB05E7E57D
:10463000F6E020E030E080E0923029F4408144232D
:1046400009F405C10BC0913039F44081411106C015
:104650004A8541110FC0FBC0191624F4408114167D
:104660004CF010C091110EC04A85411103C04B851A
:10467000442341F041E050E0022E01C0440F0A946F
:10468000EAF7842B2F5F3F4FB69628303105A1F60D
:104690002B85222311F0198A188A31E083169104A0
:1046A00019F5923009F54DE8441640E254066104CC
:1046B000710490F07301620152E6451651E555060A
:1046C0006104710430F031E6C32E31E5D32EE12CC4
:1046D000F12C21E02C8708C02DE8C22E20E2D22E3A
:1046E000E12CF12C31E03C878AA70E94B9460E9458
:1046F000D43D0E94743D909119058AA5911109C07D
:10470000AA20F9F08BEE9CE20197F1F700C00000BF
:104710001AC0E7E5F6E020E030E09081923051F4F5
:10472000D901AA0FBB1FA556B74F4CE454E0119610
:104730005C934E932F5F3F4FB6962830310569F753
:10474000DFCF0E94EC4A8091EB05823031F41814DF
:1047500019041CF491E0891A9108109218051B861F
:1047600020C02981222381F13D85332309F473C0C0
:1047700080911905811115C080E090E02091F20729
:1047800021110EC0853231E0930750F42091B20020
:104790004FA1241B820F911D2091B2002FA3EECFB9
:1047A00000E01814190484F04981442369F02D8530
:1047B00021110AC08091EB05823029F40E94243334
:1047C00031E03D8701C01D868091200549A548172D
:1047D00019F0111101C017E02091200529A77B8C49
:1047E0004C885D883CCA709322056093210585E062
:1047F0008093230553CC88248394912CD1CEE4E07C
:104800008E2E912C0FC075E0872E912C0BC066E088
:10481000862E912C07C057E0852E912C03C048E0CE
:10482000842E912C31E03983BBCE33E0832E912C42
:104830000BC024E0822E912C07C095E0892E912C8C
:1048400003C086E0882E912C41E04983A9CE4B8598
:10485000411110CF03CF181419040CF4B5CFAACF0F
:104860000F931F93CF93DF93C7E0D0E0082F10E0A2
:104870005C98C8010C2E02C0959587950A94E2F7C2
:1048800080FF02C0599A01C059985C9A0E943B0E61
:10489000219770F7DF91CF911F910F9108955F9845
:1048A0000C9430245F9A0C943024CF93C82F81E865
:1048B0000E944F248C2FCF910C944F24CF93DF93E1
:1048C0005D985E9887E893E10197F1F700C00000DA
:1048D0005E9AC2EFDDE0FE0184910E944F24219692
:1048E000FEE0C030DF07B9F780914A060E945524E8
:1048F00088ECDF91CF910C944F24DF92EF92FF92DE
:104900000F931F93CF93DF93C0E0DEE08C01FE0195
:104910008491806B0E944F2480E00E944F2480E1AC
:104920000E944F2480EE0E944F247801D12CF70181
:1049300081917F010E945224D394F0E8DF12F7CFD7
:10494000219600581F4F8EE0C830D80701F7DF913D
:10495000CF911F910F91FF90EF90DF90089520E08D
:1049600034E0FC01A901119241505040E1F7089553
:10497000CF93DF93D0E08D2F806B0E944F24C0E057
:104980008C2F8F700E944F248C2F82958F708061A6
:104990000E944F2480E00E945224CF5FC03881F7EC
:1049A000DF5FD83041F7DF91CF91089567FD36C0C2
:1049B0004034A0F5342F369536953695E62FF0E045
:1049C00050E02223A9F020E8329FE00DF11D1124D0
:1049D000E80FF91F409550954770552781E090E00A
:1049E000042E01C0880F0A94EAF79081982B15C015
:1049F00020E8329FE00DF11D1124E80FF91F4095CA
:104A000050954770552781E090E0042E01C0880F33
:104A10000A94EAF7809590819823908308959F9255
:104A2000AF92BF92CF92DF92EF92FF920F931F93BC
:104A3000CF93DF93EC01162FF42ED22EA02FB0E0EF
:104A4000A41BB109B7FF03C0B195A195B109ED2D24
:104A5000F0E0E11BF109F7FF03C0F195E195F109E1
:104A6000BB24B394EA17FB0714F0B12C06C08D2DBC
:104A7000D02E082F812F1F2DF82ED11630F48F2D18
:104A8000F02E082F812F1D2DD82EAD2CA11AE02F2E
:104A9000F0E0EF19F109F7FF03C0F195E195F10995
:104AA0009E2ECA2CC694F01610F401E010C00FEF31
:104AB0000EC02E2DBB2071F0412F6F2DCE010E9414
:104AC000D624C918C7FE02C0F00ECA0C1F5F1D1500
:104AD00080F303C04F2D612FF1CFDF91CF911F9154
:104AE0000F91FF90EF90DF90CF90BF90AF909F908D
:104AF00008959F92AF92BF92CF92DF92EF92FF9272
:104B00000F931F93CF93DF93EC01F62EB42E922ECA
:104B1000162FC22ED12CC60ED11CAA24AA94A00EE8
:104B2000A40E812F90E08C159D0574F42E2D4B2D35
:104B3000612FCE010E94D6242E2D4A2D612FCE0149
:104B40000E94D6241F5FEDCFDB2C10E00B0D111D52
:104B5000CC24CA94C90CCF0C8D2D90E080179107FE
:104B600074F42E2D4D2D6F2DCE010E94D6242E2DA6
:104B70004D2D6C2DCE010E94D624D394EDCFDF9124
:104B8000CF911F910F91FF90EF90DF90CF90BF904A
:104B9000AF909F9008954F925F926F927F928F9205
:104BA0009F92AF92BF92CF92DF92EF92FF920F93BC
:104BB0001F93CF93DF93EC01962EA42EBB24B394C6
:104BC000B21A822E8194880C122F742E721AE42E3F
:104BD000F12C6701C20ED11C872D992787FD909576
:104BE000C816D90644F0202F472D692DCE010E940A
:104BF000D6247394F1CF712C71160CF04CC0B7FC15
:104C000004C0115083948394B80C7394872D880F3B
:104C10008F5FB80E6A2C611A6701C10ED11C17FD97
:104C2000DA94472C490C592C5718862D992787FD63
:104C30009095C816D90674F0202F462D642DCE010C
:104C40000E94D624202F462D652DCE010E94D62409
:104C50006394EBCF6A2C67186701C70CD11C77FCF3
:104C6000DA94412E490C592C511A862D992787FD2B
:104C70009095C816D9060CF4BFCF202F462D642D71
:104C8000CE010E94D624202F462D652DCE010E94F4
:104C9000D6246394EACFDF91CF911F910F91FF90BB
:104CA000EF90DF90CF90BF90AF909F908F907F90CC
:104CB0006F905F904F900895880F991F885F914F74
:104CC000FC01859194910C9436440C94364480E018
:104CD00091E00E94AF2423E030E049E250E063E736
:104CE00071E089E790E00E945C2627E130E048E12E
:104CF00050E063E771E08AE790E00E945C268091D3
:104D0000200583FF13C02BE230E04CE050E063E766
:104D100071E086E890E00E945C262BE230E040E5FE
:104D200050E063E771E086E790E041C080912005A4
:104D300081FF13C02BE230E04CE150E063E771E00B
:104D40008BE490E00E945C262BE230E046E350E0EA
:104D500063E771E08CE490E02AC08091200580FF39
:104D600013C02BE230E04AE050E063E771E089E6EF
:104D700090E00E945C262BE230E041E550E063E7E2
:104D800071E087E390E013C0809120052BE230E0D2
:104D900082FF07C044E150E063E771E08BE890E0F8
:104DA00006C04CE150E063E771E08AE890E00E94C1
:104DB0005C2680E091E00C947D24CF93DF93CDB707
:104DC000DEB72C970FB6F894DEBF0FBECDBF26E03E
:104DD000AE014F5F5F4F63E480ED0E94D12889816F
:104DE00090E0982F88272A81820F911D34E09595B5
:104DF00087953A95E1F79A8789878B8190E0982F7C
:104E000088272C81820F911D54E0959587955A959E
:104E1000E1F798878F838D8190E0982F88272E81E6
:104E2000820F911D74E0959587957A95E1F79C879F
:104E30008B8720914906A3E8B5E043E02402900166
:104E4000112480E090E02253374EF901E80FF91F5A
:104E5000E491EE0FFF0B41E050E04C0F5D1FE40FBB
:104E6000F51F468157814D935D93019683309105DF
:104E700061F72C960FB6F894DEBF0FBECDBFDF9161
:104E8000CF9108951F93CF93DF930E94DD26209149
:104E90004906C7EBD7E0A3E8B5E083E0280290011C
:104EA000112480E090E02454374E69917991F90102
:104EB000E80FF91F14914D915C911197461B570B08
:104EC0001403B001159F700D11246D937D9301960D
:104ED0008330910551F7DF91CF911F910895CF93C2
:104EE00086E0E7EBF7E0DF011D928A95E9F7C0E283
:104EF0000E94DD264091B7075091B8078091830545
:104F000090918405480F591F5093B8074093B707F5
:104F10002091B9073091BA07809185059091860557
:104F2000280F391F3093BA072093B9078091BB0728
:104F30009091BC076091870570918805860F971F37
:104F40009093BC078093BB07C15091F6E5E055955F
:104F50004795EA95E1F75093B8074093B707F5E016
:104F600035952795FA95E1F73093BA072093B9075D
:104F7000A5E095958795AA95E1F79093BC07809356
:104F8000BB07CF910C94EC172F923F924F925F92F8
:104F90006F927F928F929F92AF92BF92CF92DF9249
:104FA000EF92FF920F931F93CF93DF93CDB7DEB7AE
:104FB00065970FB6F894DEBF0FBECDBF1E861D8667
:104FC000188A1F861A8A198A0E946F276091B7076C
:104FD0007091B807882777FD8095982F0E94FA4D29
:104FE00069837A838B839C836091B9077091BA0738
:104FF000882777FD8095982F0E94FA4D6D837E83D8
:105000008F8398876091BB077091BC07882777FDD5
:105010008095982F0E94FA4D69877A878B879C87A5
:105020001D8A1B8AE12CF12C00E010E08091B20077
:105030009D89891BE80EF11CE091B200ED8BFCE428
:10504000EF16FF0628F08B898F5F8B8BE12CF12CFC
:105050000E94DD26FE0131966F01B3E82B2EB5E0EC
:105060003B2ECE010D965C011C8AF101819091903E
:105070001F0120E030EC49E754E4F60160817181C2
:10508000828193810E94AE4E2B013C01B40188279E
:1050900077FD8095982F0E94FA4D9B01AC01C301CA
:1050A000B2010E94F74C20E030E04AE754E40E944D
:1050B0005F4DF60160837183828393830E94C74DA5
:1050C000F501208131812617370711F000E010E04B
:1050D000F501619371935F01FC89FF5FFC8B84E0B4
:1050E000C80ED11CF33009F60F5F1F4F093C1105A4
:1050F00020F00E946F2781E001C080E0E7E8F3E143
:105100003197F1F700C00000811104C0FB89F6302F
:1051100008F48CCF65960FB6F894DEBF0FBECDBFF6
:10512000DF91CF911F910F91FF90EF90DF90CF9083
:10513000BF90AF909F908F907F906F905F904F90B7
:105140003F902F90089541E06BE680ED0E94BA28D1
:1051500040E467E380ED0E94BA2846E080914E0665
:10516000481B6AE180ED0E94BA2848E16BE180EDBE
:105170000C94BA28CF93DF9300D0CDB7DEB74A8323
:1051800069830E94CA4B6981862F0E941A4C4A810A
:10519000842F0E941A4C0F900F90DF91CF910C94A6
:1051A0000B4CCF92DF92EF92FF920F931F93CF930E
:1051B000DF9300D01F92CDB7DEB7182FE22E4A83BF
:1051C0005B8369830E94CA4B6981862F0E941A4CB7
:1051D00081E0810F0E94094C4A81C42E5B81D52E4B
:1051E00000E010E0F12C0E151F0584F40F5F1F4F37
:1051F0000E151F0519F00E943A4C02C00E94534C34
:10520000F6018083FFEFCF1ADF0AEDCF0F900F90EA
:105210000F90DF91CF911F910F91FF90EF90DF9052
:10522000CF900C940B4C4F925F926F927F928F9223
:105230009F92AF92BF92CF92DF92EF92FF92CF9365
:10524000DF93CDB7DEB728970FB6F894DEBF0FBE59
:10525000CDBF6B017C018090B9059090BA05A090FC
:10526000BB05B090BC059B01AC010E94AE4E20E096
:1052700030E040E05FE30E94AE4E9B01AC0160E095
:1052800070E080E89FE30E94F64C69837A838B8309
:105290009C834090BD055090BE056090BF05709006
:1052A000C0059B01AC01C501B4010E94AE4E6D83E7
:1052B0007E838F839887A7019601C301B2010E9464
:1052C000AE4E9B01AC016D817E818F8198850E94DD
:1052D000F64C6093A5057093A6058093A70590935F
:1052E000A805A7019601C501B4010E94AE4E6B014D
:1052F0007C0129813A814B815C81C301B2010E940A
:10530000AE4E9B01AC01C701B6010E94F74C609301
:10531000890570938A0580938B0590938C05289658
:105320000FB6F894DEBF0FBECDBFDF91CF91FF90D7
:10533000EF90DF90CF90BF90AF909F908F907F9035
:105340006F905F904F900895CF92DF92EF92FF920F
:1053500069017A0125EF31EA4BE85CE30E94AE4E29
:10536000A70196010E94AE4E6B017C0126EA3AE04D
:1053700046E85EE30E94AA4E18169CF026EA3AE040
:1053800046E85EEBC701B6010E945B4D87FF11C086
:1053900086EAC82E8AE0D82E86E8E82E8EEBF82E14
:1053A00008C096EAC92E9AE0D92E96E8E92E9EE327
:1053B000F92EC701B601FF90EF90DF90CF900895CE
:1053C0008F929F92AF92BF92CF92DF92EF92FF9215
:1053D0000F931F936B017C016091990570919A0561
:1053E00080919B0590919C05A70196010E94A4299C
:1053F0000091260510912705209128053091290557
:105400000093B9051093BA052093BB053093BC05F2
:1054100000910005109101052091020530910305CE
:105420000093BD051093BE052093BF053093C005C2
:105430000E9413298091A5059091A605A091A7052A
:10544000B091A8058093260590932705A093280581
:10545000B09329058090890590908A05A0908B05CE
:10546000B0908C058092000590920105A0920205F3
:10547000B092030560919D0570919E0580919F05F6
:105480009091A005A70196010E94A42900912A05E8
:1054900010912B0520912C0530912D050093B90515
:1054A0001093BA052093BB053093BC058092BD05CF
:1054B0009092BE05A092BF05B092C0050E9413292C
:1054C0008090A5059090A605A090A705B090A8058E
:1054D00080922A0590922B05A0922C05B0922D0562
:1054E0008091890590918A05A0918B05B0918C05DA
:1054F0008093000590930105A0930205B0930305E6
:105500006091870570918805882777FD8095982F91
:105510000E94FA4DA70196010E94A4298092B90524
:105520009092BA05A092BB05B092BC05C09026052A
:10553000D0902705E0902805F0902905C092BD0580
:10554000D092BE05E092BF05F092C0050E941329DB
:105550008091A5059091A605A091A705B091A805F9
:1055600080932A0590932B05A0932C05B0932D05CD
:105570008091890590918A05A0918B05B0918C0549
:105580008093260590932705A0932805B0932905BD
:105590001F910F91FF90EF90DF90CF90BF90AF9051
:1055A0009F908F900895CF92DF92EF92FF9220E02C
:1055B00030E044EB52E40E94AE4E6B017C0120E0EF
:1055C00030E0A9016091000570910105809102050C
:1055D000909103050E945B4D87FF18C020E030E0EA
:1055E000A901C701B6010E94AA4EA701960118168B
:1055F0002CF460E070E084E393E404C060E070E0C9
:1056000084E393EC0E94F64C6B017C01C701B60168
:10561000FF90EF90DF90CF90089560912A057091F0
:105620002B0580912C0590912D050E94D32A609323
:10563000B5057093B6058093B7059093B805609152
:1056400026057091270580912805909129050E94D3
:10565000D32A60938D0570938E0580938F05909368
:10566000900508954F925F926F927F928F929F92D2
:10567000AF92BF92CF92DF92EF92FF920F931F9360
:10568000CF93DF93CDB7DEB760970FB6F894DEBF48
:105690000FBECDBF0E94F84D69837A838B839C83B4
:1056A00020E836E948E15AE40E945F4D6D877E8725
:1056B0008F87988B8091EB0560914F06823039F08F
:1056C00084E06802B00111246050774E06C094E077
:1056D0006902B00111246052774E44E050E0CE01DF
:1056E00001960E94B14F50904F06C980DA80EB803E
:1056F000FC802EE3622E25E0722E09EA15E0D3012C
:105700006D917D913D01882777FD8095982F0E94AE
:10571000FA4D4B015C01B7E05B16F1F020E030E0A0
:1057200040E85FE3C701B6010E94F64CF801208112
:105730003181428153810E94AE4EA50194010E94A5
:10574000F64CA70196010E945F4DD8016D937D93A1
:105750008D939C93139709C0B7FAB094B7F8B0949F
:10576000F80180829182A282B3820C5F1F4FF4E421
:105770006F16F5E07F0619F623EC35EF48E25FE39C
:105780006091A9057091AA058091AB059091AC0537
:105790000E94AE4E6D837E838F83988760939105C0
:1057A00070939205809393059093940523EC35EFC5
:1057B00048E25FE36091AD057091AE058091AF0561
:1057C0009091B0050E94AE4E69877A878B879C873F
:1057D000609395057093960580939705909398052F
:1057E0006091830570918405882777FD8095982FB7
:1057F0000E94FA4D2B013C0160939D0570939E051C
:1058000080939F059093A005609185057091860512
:10581000882777FD8095982F0E94FA4D6B017C01B7
:105820006093990570939A0580939B0590939C05CE
:1058300020913E0530913F05409140055091410532
:10584000E0914205F0914305449F4001459F900C33
:10585000900C1124B401882777FD8095982F229F02
:10586000A001239F500D500D11248A01222717FDFE
:105870002095322F600F711F821F931FEE9F9001A2
:10588000EF9F300D300D11248901222717FD20953F
:10589000322F600F711F821F931F0E94F84D4B0122
:1058A0005C0120E034EF48E356E40E94AA4E18164B
:1058B0000CF06FC020E038E449EA56E4C501B401B9
:1058C0000E945B4D87FF65C020E030E040E05FE371
:1058D000609100057091010580910205909103058A
:1058E0000E94AA4E18160CF054C0809151066BE02D
:1058F00070E0681B710987FD7395882777FD809597
:10590000982F0E94FA4D4B015C012D813E814F8101
:1059100058856091B5057091B6058091B705909155
:10592000B8050E94F64CA50194010E945F4D9B01B1
:10593000AC01C301B2010E94F74C60939D057093C6
:105940009E0580939F059093A00529853A854B85F8
:105950005C8560918D0570918E0580918F05909189
:1059600090050E94F64CA50194010E945F4D9B0199
:10597000AC0169837A838B839C83C701B6010E9443
:10598000F74C6093990570939A0580939B059093CB
:105990009C056D857E858F8598890E94E0290E94EF
:1059A0000D2B20E030E048EC52EC6091B505709191
:1059B000B6058091B7059091B8050E94AE4E0E9441
:1059C000C74D7093A2056093A10520E030E048EC3C
:1059D00052EC60918D0570918E0580918F059091AC
:1059E00090050E94AE4E0E94C74D7093A40560932F
:1059F000A30560960FB6F894DEBF0FBECDBFDF9152
:105A0000CF911F910F91FF90EF90DF90CF90BF90BB
:105A1000AF909F908F907F906F905F904F90089580
:105A200010922A0510922B0510922C0510922D052C
:105A3000109226051092270510922805109229052C
:105A400080E090E0A0E8BFE380930005909301051B
:105A5000A0930205B09303051092B9051092BA0500
:105A60001092BB051092BC051092BD051092BE05A8
:105A70001092BF051092C0051092B5051092B605A0
:105A80001092B7051092B80510928D0510928E05F0
:105A900010928F05109290051092F6071092F5075C
:105AA000109285001092840010921B0510921A0526
:105AB0000895CF9380E381B98CEF87B98AE084B9E8
:105AC00082EF8AB918B8149815982B9829985C9A7F
:105AD00085EF83B91C9911C08CE089B92FE588ED59
