:100000000C944E0D0C94D3250C949B250C948626B1
:100010000C94740D0C9445260C94740D0C940C26C1
:100020000C94740D0C94740D0C94740D0C94740D4C
:100030000C94740D0C94740D0C94740D0C94740D3C
:100040000C94740D0C94740D0C9484250C94740D04
:100050000C9442270C94740D0C94740D0C94740D34
:100060000C94740D0C94740D0C94740D0C94740D0C
:100070000C94740D0C94740D0C94740D9217081854
:100080000818A417B117BD17B817CB17D817DC1766
:10009000E817192E1B2E1D2E202E232E252E292E3D
:1000A0002B2E2E2E312E332E352E372E392E3B2E43
:1000B0003D2E3F2E432E452E472E492E4B2E4F2EA2
:1000C000C431A831AB31AE31B131B431B731BA310D
:1000D000BD31FFFF01FF01FF01FFFF010101FF0132
:1000E00001FFFFFF00010202000100010200010206
:1000F00001000200020101020003040506070001DD
:10010000020304050607010241050D000F0022004D
:10011000330044004F090100030007000F001F00D7
:100120000F00070003000100081C001C001C001C3D
:10013000007F003E001C0008000808001C003E0074
:100140007F001C001C001C001C0005FF01FE007C41
:1001500000380010000D40006000700078007C0046
:100160007E007F007E007C00780070006000400010
:100170000102205B1300BB00C500CC00CC00CC000A
:10018000CC01030103010301160129012901290101
:1001900036014901500150016F018801A401C001DD
:1001A000DF01FB021A023602550274027B027B0257
:1001B0007B027B027B0294029402BC02DB02FD0301
:1001C00022033E035A038203A103B403CA03EC04CF
:1001D00008042D044C0474048D04B504D704F905F7
:1001E0001E053D0565059905BB05E00602060206EC
:1001F0001B061B061B061B061B063406500669065B
:100200008506A106B406D006E906F00700071C071C
:1002100023074E0767078607A207BE07D107EA072D
:10022000FD08160832085D087908950300000000F3
:10023000000000000002FE6700FE67001278000068
:10024000FE0100020100020100020100FE410078EF
:100250007000001C00000700E000003800000E1EC7
:1002600000827F00804000804000804000807F004E
:10027000001E0006C01F00F8FF003CE00107000759
:10028000030006010004060100040300060700073E
:100290003CE001F8FF00C01F000400000300F00371
:1002A00000700000100006000300000300000300BF
:1002B0000003000003000003000200700000700053
:1002C0000AF00F00FC3F000C3000066000066000E2
:1002D0000660000660000C3000FC3F00F00F0008D4
:1002E000186000186000186000FE7F00FE7F0000AC
:1002F0006000006000006000090C700006780006D5
:100300006C000666000663008E6100FC6000786089
:1003100000006000090C3000066000066000866185
:1003200000866100866100CE73007C3F00381E00AD
:100330000A000700800700C00700F006003806002A
:100340001C0600FE7F00FE7F00000600000600097C
:10035000003000FE6000FE6000C66000C66000C69F
:100360006000C63100863F00060F000AE00F00F073
:100370003F009C3000CC6000C66000C66000C660D4
:1003800000C63100863F00000F000906000006404D
:1003900000067000067C00060F00C60300F6000091
:1003A0003E00000E00000A381E007C3F00CE7100A7
:1003B000C66000C660008661008661004E73007CE6
:1003C0003F00381E000AF00000FC61008C6300064C
:1003D00063000663000663000633000C3900FC1F4F
:1003E00000F0070002707000707000080C0000063A
:1003F0000000066700066700860100CE0000FC00D2
:10040000003800000D004000007800003F00C007E9
:1004100000F806003E06000606003E0600F806004C
:10042000C00700003F000078000040000AFE7F0087
:10043000FE7F00866100866100866100866100C6DD
:1004400061007C73003C3F00001E000BE00700F8D9
:100450001F001C38000C30000660000660000660BB
:10046000000660000660000620000C30000CFE7FD5
:1004700000FE7F0006600006600006600006600067
:100480000660000E70000C3000381C00F80F00E011
:10049000070009FE7F00FE7F00C66000C66000C640
:1004A0006000C66000C66000C66000C6600009FE4D
:1004B0007F00FE7F00860100860100860100860124
:1004C000008601008601000600000DE00700F81F0D
:1004D000003C3C000C30000E70000660000660001E
:1004E0000663000663000663000663000C3F000C11
:1004F0003F000AFE7F00FE7F00C00000C00000C079
:100500000000C00000C00000C00000FE7F00FE7FB1
:100510000006066000066000FE7F00FE7F000660A9
:1005200000066000070060000060000660000660D2
:1005300000067000FE3F00FE1F000BFE7F00FE7FE6
:1005400000800300C00100E00300700700381C00B9
:100550001C38000E700006600002400009FE7F009B
:10056000FE7F00006000006000006000006000008E
:1005700060000060000060000CFE7F00FE7F000E47
:100580000000380000E00100800700000700E001E3
:10059000003800000E0000FE7F00FE7F000AFE7F94
:1005A00000FE7F000E00003C0000E0000080030021
:1005B000001E00007800FE7F00FE7F000DE00700B7
:1005C000F81F001C38000C300006600006600006B2
:1005D00060000660000660000C30001C3800F81F48
:1005E00000E0070008FE7F00FE7F00060300060310
:1005F000000603008E0300FC0100F800000DE00778
:1006000000F81F001C38000C300006600006600077
:1006100006600006E00106E0030C30071C3806F80F
:100620001F06E007060BFE7F00FE7F0086010086A6
:100630000100860100860700CE0E00FC1C007870C9
:10064000000060000040000B783000FC7000CE60BD
:100650000086610086610086610086610086610017
:100660000633000C3F00001E000C060000060000D0
:10067000060000060000060000FE7F00FE7F000668
:1006800000000600000600000600000600000AFE4A
:100690000F00FE3F0000700000600000600000607E
:1006A00000006000007000FE3F00FE0F000D020021
:1006B000001E0000FC0000E00300801F00007C0022
:1006C000006000007C00801F00E00300FC00001EB2
:1006D0000000020000110600007E0000F807008004
:1006E0003F00007800007C00C00F007E0000060084
:1006F000007E0000E00700007E00007000807F00A8
:10070000F807007E00000600000B024000066000B3
:100710001E7800381C00E00700800100E007003868
:100720001E001E78000660000240000C0200000659
:1007300000001E0000780000E00000C07F00C07FC5
:1007400000E000007800001E00000600000200002B
:100750000B067000067800067C00066E0006670037
:10076000C66300E660007660003E60001E60000E1A
:100770006000080300001F0000FE0000F00700807A
:100780003F0000FC0100E00300000308003C0030D3
:100790007E00306700306300306300303300E07F5C
:1007A00000E07F0009FF7F00FF7F006020003060D5
:1007B00000306000306000707000E03F00C00F004B
:1007C00008800F00E03F00603000306000306000C3
:1007D00030600030600060300009801F00E03F00A2
:1007E000707000306000306000306000303000FF1A
:1007F0007F00FF7F0009800F00E03F006033003082
:100800006300306300306300706300E06300C03356
:100810000006300000FE7F00FF7F00330000330041
:100820000003000009801F00E03F06707006306082
:1008300006306006306006303007F0FF03F0FF013D
:1008400008FF7F00FF7F00600000300000300000E4
:10085000300000F07F00E07F0002F67F00F67F00AE
:1008600005000006300006300006F6FF07F6FF031D
:1008700009FF7F00FF7F00000600000700800F00D7
:10088000C0380070700030600010400002FF7F0030
:10089000FF7F000EF07F00F07F006000003000005E
:1008A000300000300000F07F00E07F00600000308A
:1008B0000000300000300000F07F00E07F0008F012
:1008C0007F00F07F0060000030000030000030004A
:1008D00000F07F00E07F000A800F00E03F00603002
:1008E0000030600030600030600030600060300038
:1008F000E03F00800F0009F0FF07F0FF0760600095
:10090000306000306000306000707000E03F00C078
:100910000F0009801F00E03F007070003060003061
:100920006000306000303000F0FF07F0FF0706F095
:100930007F00F07F006000003000003000003000D9
:100940000008C03100E063003063003063003066AF
:1009500000306600303E00601C0006300000FE3FA4
:1009600000FE7F0030600030600030600008F01F43
:1009700000F07F00006000006000006000003000B8
:10098000F07F00F07F0009100000F00000E0070099
:10099000003E00006000003E00E00700F000001094
:1009A00000000E300000F00300C03F00007800009F
:1009B0007C00800700F00000F00000C00700003C51
:1009C00000007000C03F00F003003000000910403C
:1009D00000306000F07800C01D00000700C01D005E
:1009E000F0780030600010400009100000F00000B6
:1009F000E0070600BF0700F001003F00E00700F03D
:100A0000000010000008307000307800307C0030AA
:100A10006600306300F06100F06000706000010269
:100A2000205B0B00BB00BE00C100C100C100C100C3
:100A3000D600D600D600DD00E400E400E400E900C2
:100A4000F000F300F300FE01090114011F012C0165
:100A5000370142014D0158016301660166016601DB
:100A6000660166016F016F017C0189019801A70190
:100A7000B201BD01CC01D901E001E901F602010298
:100A800010021D022C0237024602530260026F025E
:100A90007C0289029C02A902B802C502C502C502F5
:100AA000C502C502C502C502D002DB02E602F102A0
:100AB000FC03050310031B031E032503300333034C
:100AC000460351035C03670372037B0384038D03B6
:100AD0009803A303B203BD03C8010000017E010A0D
:100AE0000C00120012008C0160001800C6002001EA
:100AF0002001C00003F800060301040301040603FB
:100B0000F800020004800303200020002000018080
:100B10000105FC00020102010201FC0005040104C0
:100B200001FE0100010001058401420122011201C0
:100B30000C01058400020112011201EC00066000A4
:100B4000500048004400FE014000059E00120112C2
:100B5000011201E20005F800140112011201E00087
:100B6000050200820162001A00060005EC00120175
:100B700012011201EC00051C0022012201A2007CDE
:100B800000019801040200620112000C0006C0017D
:100B90007800460046007800C00106FE01120112EE
:100BA0000112011C01E0000778008400020102012B
:100BB00002010201840007FE01020102010201029A
:100BC000018400780005FE011201120112011201D8
:100BD00005FE0112001200120002000778008400D6
:100BE0000201020122012201E40006FE01100010B0
:100BF0000010001000FE01030201FE0102010400CA
:100C00000102010201FE0006FE0120003000480042
:100C10008400020105FE010001000100010001073E
:100C2000FE0106001800600018000600FE0106FE26
:100C3000010600180060008001FE010778008400B2
:100C40000201020102018400780005FE0122002257
:100C50000022001C00077800840002010201020348
:100C60008404780406FE012200220062009C000039
:100C700001068C001201120122012201C4000702A8
:100C80000002000200FE0102000200020006FE0057
:100C90000001000100010001FE00060E007000804E
:100CA00001800170000E00090600780080017800C4
:100CB00006007800800178000600068601480030B2
:100CC0000030004800860107020004000800F0011F
:100CD0000800040002000682014201220112010AFA
:100CE00001060105C000280128012801F00105FFC7
:100CF00001080108010801F00005F00008010801E1
:100D00000801900005F000080108010801FF010535
:100D1000F000280128012801B000040800FE0109A4
:100D200000090005F000080508050805F80305FF9F
:100D300001080008000800F00101F901030004089F
:100D400004F90305FF01400060009000080101FF65
:100D50000109F801080008000800F0010800080077
:100D60000800F00105F801080008000800F001057E
:100D7000F000080108010801F00005F80708010863
:100D8000010801F00005F000080108010801F8075A
:100D900004F801100008000800043001280148018F
:100DA000C800040800FE000801080105F800000161
:100DB00000010001F80105180060008001600018C2
:100DC0000007780080016000180060008001780052
:100DD00005080190006000900008010508007004FB
:100DE000800370000800048801480128011801AF41
:100DF00040A0A6A4A2EEC82F24AC00F80007060568
:100E0000040302010040113A112E11C1169C16A8CC
:100E100013B216B016AE1692168A1690168E168C4F
:100E200016851680167B16761694167A117411AAFA
:100E3000144F124812D5124112D014CB14C514C14C
:100E400014BD142310AA11A111B2119A119511B356
:100E500014BF13BC13B113C911C111BB1185107B91
:100E60001094149F142D13131320131713261323F8
:100E700010231023107510701023102310B81422A3
:100E800011BF131E10191014100F100A10051000B6
:100E900010FB0F23106D11311029106A1163116BB3
:100EA0001659164716341620160C16F815E215D3E7
:100EB00015C415B515A6159715881579156A155B0E
:100EC00015471534151B150215EC14D5142310BF46
:100ED00013BC1335102310B211AA11A1119A119548
:100EE0001190118B118611811123102310101309F9
:100EF00013FF12311029102410FA10EF1068105F40
:100F00001056105210491041105D1158115211A481
:100F1000164A111411061100112310231023103A40
:100F2000103510BF13BC133510CB14C514C114A851
:100F3000139E13931384137413661359134B133FA7
:100F40001383123213BB167812A111AA119A119CA5
:100F500016F212E812DE12D512C812BB12B112A597
:100F6000129B128E12B211AA11A1119A1195119011
:100F7000118B118611BE10B410AC10A4109B1093ED
:100F8000108A1081119F149414891481147914719A
:100F900014631455144A143E1435142C14231414D9
:100FA000140514F913EF13E813E113DA13CD13C387
:100FB0001339122C1214121F1214120912FD11F3FC
:100FC00011E911DE11D1111412D1111412231023C1
:100FD0001023102310EA10E510E010DB10D610D11A
:100FE00010CC10C710811174126F126A1265126052
:100FF000125A125412811123102310332E39560025
:10100000332E385600332E375600332E36560033E3
:101010002E355600332E345600332E335600332EE1
:1010200032560000486967680053796E6320524366
:10103000004C6F77005265762E004E6F726D616CBA
:10104000005069746368557000536964657761790D
:10105000730041667400496E76657274656400566B
:101060006572746963616C00466F727761726400C7
:101070004164762E00466978656400417869732082
:101080006C6F636B005261746500414C2050697451
:10109000636800414C20526F6C6C0041636350697F
:1010A00074636800416363526F6C6C004779726FC0
:1010B000596177004779726F5069746368004779A6
:1010C000726F526F6C6C004F555438004F55543747
:1010D000004F555436004F555435004F5554340089
:1010E0004F555433004F555432004F55543100661C
:1010F0006F7220737461747573005072657373003E
:10110000446F6E652100486F6C64206173207368C2
:101110006F776E004E6F205258207369676E616C56
:101120003F0043616C2E206661696C656400486F06
:101130006C64207374656164790052657365740032
:101140004F70656E4165726F3200426174746572F2
:1011500079004D6F64656C004C6F7374004572725A
:101160006F72005369676E616C004E6F0053656E5D
:10117000736F7200456C65762E005468726F742E22
:10118000004E6F6E6500415558330041555832008E
:10119000415558310047656172005275646465724B
:1011A00000456C657661746F720041696C65726FA1
:1011B0006E005468726F74746C65004D6F746F725A
:1011C00000442E536572766F00412E536572766F20
:1011D000004578742E20536F757263653A0050692C
:1011E000746368206163633A00526F6C6C206163C2
:1011F000633A00596177206779726F3A00506974D9
:101200006368206779726F3A00526F6C6C2067795F
:10121000726F3A00566F6C756D652825293A005239
:101220004320736F7572636520423A005243207306
:101230006F7572636520413A004465766963653A6B
:10124000004D616E75616C00462E57696E670041F6
:1012500065726F00323630487A00313834487A008F
:101260003934487A003434487A003231487A0031CF
:1012700030487A0035487A005448522E706F7320F7
:10128000253A004C6F636B20726174653A004D50D3
:101290005536303530204C50463A004163632E209D
:1012A0004C50463A00414C20636F72726563743A49
:1012B000004C4D412074696D653A004C6F772056A3
:1012C00020416C61726D3A0043616D2E2063656E42
:1012D0007465723A0043616D737461622E005057F9
:1012E0004D20726174653A00436F6E74726173745D
:1012F0003A004F7269656E746174696F6E3A00539B
:101300006174656C6C697465004675746162610036
:101310004A520050574D005370656B7472756D00E2
:10132000532D42757300587472656D6500435050BB
:101330004D004465616462616E642825293A004667
:101340006C61702073706565643A00446966666517
:1013500072656E7469616C3A0044796E2E476169FA
:101360006E2825293A0044796E2E4761696E204324
:10137000682E3A00326E642041696C2E2043686109
:101380006E2E3A0050726F66696C65204368616E1C
:101390002E3A0043682E206F726465723A005057EF
:1013A0004D2073796E633A00525820747970653A13
:1013B0000048616E64732046726565004F4E004FB1
:1013C000464600596177207472696D3A0059617719
:1013D0002049204C696D69743A0059617720443A7C
:1013E0000059617720493A0059617720503A0059F5
:1013F0006177206779726F3A00506974636820746E
:1014000072696D3A005069746368204175746F4C5D
:10141000766C3A0050697463682049204C696D69A4
:10142000743A00506974636820443A0050697463E8
:101430006820493A00506974636820503A00506946
:10144000746368206779726F3A00526F6C6C207415
:1014500072696D3A00526F6C6C204175746F4C76F6
:101460006C3A00526F6C6C2049204C696D69743A7B
:1014700000526F6C6C20443A00526F6C6C20493AF9
:1014800000526F6C6C20503A00526F6C6C20677980
:10149000726F3A004175746F6C6576656C3A0053F3
:1014A000746162696C6974793A004661696C736150
:1014B000666500496E762E0043616C2E00416363C1
:1014C0000059617700506974636800526F6C6C005A
:1014D0004779726F0032332E204661696C73616602
:1014E0006520706F736974696F6E730032322E20DD
:1014F0004661696C736166652073657474696E67B3
:10150000730032312E20506F732E20536572766F28
:10151000207472766C2E202825290032302E204E21
:1015200065672E20536572766F207472766C2E205C
:101530002825290031392E20536572766F20747268
:10154000696D202825290031382E20536572766F69
:1015500020646972656374696F6E0031372E204FA5
:10156000555438204D697865720031362E204F551C
:101570005437204D697865720031352E204F55540F
:1015800036204D697865720031342E204F55543520
:10159000204D697865720031332E204F5554342028
:1015A0004D697865720031322E204F555433204DED
:1015B000697865720031312E204F555432204D69C3
:1015C0007865720031302E204F555431204D6978A6
:1015D000657200392E204C6576656C206D657465EA
:1015E0007200382E2053656E736F722063616C69D0
:1015F00062726174696F6E00372E20466C6967688D
:10160000742070726F66696C65203300362E204638
:101610006C696768742070726F66696C652032004F
:10162000352E20466C696768742070726F66696C2D
:1016300065203100342E205265636569766572201D
:10164000696E7075747300332E20537469636B2058
:10165000706F6C617269747900322E205265636517
:101660006976657220736574757000312E20476548
:101670006E6572616C0053617665004465662E008C
:101680004261636B004D656E750045004400430088
:10169000420041004A69747465723A005072657381
:1016A00065743A00467265652052414D3A0030003B
:1016B0002E0050726F66696C653A004D6F64653A32
:1016C0000056657273696F6E3A20202056312E34B1
:1016D0002042320001010101010101FFFFFFFF0172
:1016E00001FF01FF010100010201020000010200EF
:1016F0000102010002020100E17A0841C3F59040B5
:10170000295C1F40713DCA3F52B89E3F0000803F98
:101710000000803F0000803F0000B841AE473941E3
:101720003333BB4066664640C3F5E83FCDCCAC3FA3
:1017300052B89E3F0000803F030F1B2700010101AC
:101740000000020101000001010100007F010050C2
:10175000007F010000007F010000007D010000000B
:101760007F01003C817F0100000001010100007F3A
:10177000010050007F010000007F010000007D019A
:101780000000007F01003C817F0100000001010199
:1017900000007F010050007F010000007F01000079
:1017A000007D010000817F01000026262C00000042
:1017B0000000002C0000000000002C0000000000D1
:1017C00000020101000008010100837D010000000A
:1017D00008010108837D01000000020101000002F0
:1017E00001010000020101000002010100000201EC
:1017F0000100000F01010F837D010000000F0101B6
:101800000F837D01000029690069008F8F8F8F8F02
:10181000B000B0000001010100837D0103008300DE
:1018200001039C007D010364837D0103008D8D8D88
:101830008D8D8D8D8D0000000000000000000000E7
:101840000000000000000000000000000000000098
:101850000000000000000301010100040101040078
:10186000010101000008010104000801010800084D
:10187000010105006405006400640100000014011A
:101880000000000401000300050100020001010145
:10189000009C6401009C837D010000837D010000A9
:1018A000837D010000000000000000000000000037
:1018B0000000000000000000000000000000000028
:1018C000000000000301010000050101001C3201BD
:1018D00000240002010100000101010000010101DA
:1018E000000008010100001E010003010A010007B9
:1018F0000007010102000000000030697469696995
:10190000000000000038000000000000000000009F
:10191000167C007765653E0000F1000000000800BD
:10192000080000000000000F000F00000000080089
:10193000080000010000010F000F00000000080077
:10194000080000000100000F000F00000000080068
:10195000080001000001000F000F00000000080057
:10196000080000000000000F000F000000000264EB
:10197000080000010000010F000F000000000364D8
:10198000080000000100000F000F000000000164CB
:10199000080001000001000F000F000000020064B9
:1019A000080000000000000F000F000000000132DE
:1019B000023201010001010F000F0000000001CE02
:1019C000023201010001010F000F0000000003645A
:1019D000080000000100000F000F000000000800D8
:1019E000080000000000000F000F000000000800C9
:1019F000080000000000000F000F000000000800B9
:101A0000080000000000000F000F000000000800A8
:101A1000080000000000000F000F0000000200643A
:101A2000080000000000000F000F0000000001642B
:101A3000080001000001000F000F00000000026418
:101A4000080000010000010F000F00000000036407
:101A5000080000000100000F000F00000000080057
:101A6000080001000001000F000F00000000080046
:101A7000080000000000000F000F00000000080038
:101A8000080000000000000F000F00000000080028
:101A9000080000000000000F000F000011241FBE0E
:101AA000CFEFD8E0DEBFCDBF14BE88E10FB6F8940B
:101AB00080936000109260000FBE11E0A0E0B1E0E2
:101AC000E2E8FEE702C005900D92AC30B107D9F70D
:101AD00027E0ACE0B1E001C01D92A83DB207E1F7FC
:101AE0000E9403170C943F3F0C94000000000895DF
:101AF000FDDFFCDFFBDFFADF0895CF93AF93A5E0B6
:101B00005898C6E70E948D0D589ACAE70E948D0D1D
:101B1000AA95B1F7AF91CF91089500C000C000C061
:101B200000C000C000C000C000C00000CA95A9F7F6
:101B30000895F62EEF93FF93AF93BF93CF93DF9368
:101B40000F931F932F933F934F935F936F937F93C5
:101B5000E82FF92F8F939F93A191B191A65CB0408C
:101B6000AF93BF93A7707A2FA191B191AE5BB040B4
:101B7000AF93BF93A7706A2FA191B191A65BB040BC
:101B8000AF93BF93A7705A2FA191B191AE5AB040B5
:101B9000AF93BF93A7704A2FA191B191A55AB040BE
:101BA000AF93BF93A7703A2FA191B191AD59B040B7
:101BB000AF93BF93A7702A2FA191B191A559B040BF
:101BC000AF93BF93A7701A2FA191B191AD58B040B8
:101BD000AF93BF93A7700A2F972F0E94060FF0FCB8
:101BE000469A0E94120F962F0E94060FF1FC449A0B
:101BF0000E94120F952F0E94060FF2FC429A0E943B
:101C0000120F942F0E94060FF3FC439A0E94120FAA
:101C1000932F0E94060FF4FC419A0E94120F922FFC
:101C20000E94060FF5FC409A0E94120F912F0E940D
:101C3000060FF6FC459A0E94120F902F0E94060F85
:101C4000F7FC479A0E94120F0E94E50E0E94E50ED3
:101C50000E94E50EBF91AF910E94FF0E0A2FBF9127
:101C6000AF910E94FF0E1A2FBF91AF910E94FF0EFD
:101C70002A2FBF91AF910E94FF0E3A2FBF91AF91D3
:101C80000E94FF0E4A2FBF91AF910E94FF0E5A2F64
:101C9000BF91AF910E94FF0E6A2FBF91AF910E943A
:101CA000FF0E7A2FCFEFD0E00024715019F4469840
:101CB0000C945C0E00C000C0615019F444980C9460
:101CC000630E00C000C0515019F442980C946A0E83
:101CD00000C000C0415019F443980C94710E00C02C
:101CE00000C0315019F441980C94780E00C000C027
:101CF000215019F440980C947F0E00C000C0115080
:101D000019F445980C94860E00C000C0015019F4D7
:101D100047980C948D0E00C000C00E94EE0EC1507A
:101D2000D00911F00C94550E9F918F917F916F9176
:101D30005F914F913F912F911F910F91DF91CF9123
:101D4000BF91AF91FF91EF9108950F931F932F9340
:101D50000CEF18E00024803071F0813079F082308F
:101D600081F0833089F0843091F0853099F08630AD
:101D7000A1F08730A9F0469A0C94D30E449A0C94A3
:101D8000D30E429A0C94D30E439A0C94D30E419ADC
:101D90000C94D30E409A0C94D30E459A0C94D30E07
:101DA000479A0C94D30E00C000C000C000C000C011
:101DB00000C06150700911F420E028B901501009E9
:101DC00091F72F911F910F9108950F9305E600C091
:101DD00000C000C00150D9F70F9108950F9309E09A
:101DE00000C000C000C00150D9F7000000C000C012
:101DF0000F91089500C000C000C000C00895B695BE
:101E0000A795B695A795B695A7950895C7E097703D
:101E1000C92731F00E94FA0ECA9509F0FBCF00C025
:101E200000000895C92FC77031F00E94FA0ECA95BC
:101E300009F0FBCF00C00895A6E0B0E0E2E2FFE0C9
:101E40000C94923E86E00E949F10809178009091C1
:101E500079009A83898385E00E949F1080917800A1
:101E6000909179009C838B8387E00E949F108091E2
:101E70007800909179009E838D8320917606A6E369
:101E8000B1E043E024029001112480E090E02C5165
:101E90003F4FF901E80FF91FE491EE0FFF0B41E00E
:101EA00050E04C0F5D1FE40FF51F408151814D93B1
:101EB0005D9301968330910561F72696E2E00C94DC
:101EC000AE3E1F93CF93DF930E941C0F8091570764
:101ED00080FD03C083E892E00AC080913E079091A4
:101EE0003F072091420730914307821B930B909349
:101EF0003D0780933C0720917606C8E3D7E0A6E330
:101F0000B1E083E028029001112480E090E02E529D
:101F10003F4F69917991F901E80FF91F14914D91A3
:101F20005C911197461B570B1403B001159F700D60
:101F300011246D937D9301968330910551F7DF91C4
:101F4000CF911F910895A6E0B0E0E9EAFFE00C947C
:101F5000913E1A8219821C821B821E821D8281116F
:101F600072C010E20E941C0F89819A812091360173
:101F700030913701820F931F9A8389838B819C81D3
:101F80002091380130913901820F931F9C838B83FC
:101F90008D819E8120913A0130913B01820F931FE8
:101FA0009E838D838FE493EC0197F1F700C00000CE
:101FB0001150C1F6FE0131969E01295F3F4F80818D
:101FC00091814096A5E095958795AA95E1F7819333
:101FD0009193E217F30799F789819A8190933907D2
:101FE000809338078B819C8190933B0780933A07BD
:101FF00080917606992787FD9095FC01EE0FFF1FD3
:10200000E80FF91FEC52FF4F44912D813E814203AE
:10201000C001439F900D112490933F0780933E078A
:10202000809157078260809357070E94E4162B9A8D
:102030009FE724E84EE1915020404040E1F700C086
:1020400000002B9872C08091570781FF6EC01092DC
:1020500041071092400710E20E941C0F8091400738
:102060009091410720913A0130913B01820F931FDB
:1020700090934107809340078FE493EC0197F1F729
:1020800000C00000115041F780917606992787FD26
:102090009095FC01EE0FFF1FE80FF91FEC52FF4F68
:1020A00044912091400730914107205F3F4F65E008
:1020B000359527956A95E1F74203C001439F900D3E
:1020C0001124909341078093400720913C07309161
:1020D0003D078217930748F520913E0730913F074F
:1020E000A901481B590BCA01959587959093430701
:1020F00080934207281B390B30933D0720933C0700
:10210000809157078160809357070E94E4162B9AAD
:102110005FE784E89EE1515080409040E1F700C0C5
:1021200000002B9885E00E94082C2696E3E00C9492
:10213000AD3E8FEF80937E0010927B0008958093D8
:102140007C0086EC80937A0080917A0086FDFCCF3B
:102150000895CF92DF92EF920F93CF93DF93CBE06E
:10216000D0E01F9B7EC00E94610F60E070E0CB0159
:102170000E94792221972097A1F720E030E040E0EB
:1021800052E46091A5057091A6058091A7059091F4
:10219000A8050E94EA3B0E94BA3CEB0120E030E037
:1021A00040E852E46091A1057091A2058091A305D9
:1021B0009091A4050E94EA3B0E94BA3C6B01D7FDB6
:1021C00006C0C134D1052CF0C0E4D0E002C0C0E0AC
:1021D000D0E0D7FC08C081E8C816D10434F080E80C
:1021E000C82ED12C02C0C12CD12C27E330E042E014
:1021F00050E066E071E08CE00E945E1EEE24E39405
:1022000000E420E840E060E08CE391E00E949D1D46
:1022100005E125E146E166E38CE391E00E949D1D26
:1022200008E320E448E060E48CE391E00E94151D9F
:1022300000E220E640E260E28CE391E00E94151D9E
:1022400001E028E04C2F6C2D8CE391E00E94E31D0F
:102250008CE391E00E94871C8CE391E00E94B51C06
:102260007ECFDF91CF910F91EF90DF90CF900895C7
:102270000E9479291F9B0EC11C9B0E946C3A1D9BDA
:102280000E94B53A0E947D3920E030E040E050E005
:102290006EE17AE083E10E945E1E2AE030E040E0D9
:1022A00050E06EE17AE080E20E945E1E24E130E0C0
:1022B00040E050E06EE17AE084E10E945E1E2EE193
:1022C00030E040E050E06EE17AE083E20E945E1E82
:1022D00020E030E046E450E06EE17AE08DE60E94D6
:1022E0005E1E2AE030E046E450E06EE17AE08EE6E1
:1022F0000E945E1E24E130E046E450E06EE17AE0A8
:102300008FE60E945E1E2EE130E046E450E06EE172
:102310007AE080E70E945E1E8091B4079091B50735
:102320004AE062E675E00E94E43E20E030E045E2EB
:1023300050E06EE17AE00E947B368091B807909180
:10234000B9074AE062E675E00E94E43E2AE030E028
:1023500045E250E06EE17AE00E947B368091BA0758
:102360009091BB074AE062E675E00E94E43E24E1FA
:1023700030E045E250E06EE17AE00E947B368091E9
:10238000BC079091BD074AE062E675E00E94E43E1A
:102390002EE130E045E250E06EE17AE00E947B36CB
:1023A0008091BE079091BF074AE062E675E00E9407
:1023B000E43E20E030E044E650E06EE17AE00E9446
:1023C0007B368091C0079091C1074AE062E675E0D4
:1023D0000E94E43E2AE030E044E650E06EE17AE01C
:1023E0000E947B368091C2079091C3074AE062E663
:1023F00075E00E94E43E24E130E044E650E06EE106
:102400007AE00E947B368091C4079091C5074AE02C
:1024100062E675E00E94E43E2EE130E044E650E0E2
:102420006EE17AE00E947B3629E330E040E050E044
:1024300066E071E08CE00E945E1E27E330E048E237
:1024400050E06EE17AE085E10E945E1E2BE330E011
:1024500040E550E066E071E089E00E945E1E27E3FF
:1024600030E044E650E06EE17AE08CE30E945E1ECC
:102470002BE330E047E750E066E071E089E00E943E
:102480005E1E8CE391E00E94871C8CE391E00E9429
:10249000B51CF0CE0895CF938CE391E00E94B51C5B
:1024A000C1E01F9BDFC00E94211F0E94610F20E03E
:1024B00030E045E250E06EE17AE08AE10E945E1E83
:1024C00020E030E04DE450E06EE17AE08EE10E94E1
:1024D0005E1E2DE030E045E050E06EE17AE08BE1F9
:1024E0000E945E1E27E130E045E050E06EE17AE0B8
:1024F0008CE10E945E1E21E230E045E050E06EE19A
:102500007AE08DE10E945E1E4AE062E675E080910D
:102510007B0590917C050E94E43E2DE030E048E28E
:1025200050E06EE17AE00E947B364AE062E675E0B8
:1025300080917D0590917E050E94E43E27E130E088
:1025400048E250E06EE17AE00E947B364AE062E6C3
:1025500075E080917F05909180050E94E43E21E224
:1025600030E048E250E06EE17AE00E947B364AE0DB
:1025700062E675E080913601909137010E94E43E59
:102580002DE030E040E550E06EE17AE00E947B36DD
:102590004AE062E675E080913801909139010E942D
:1025A000E43E27E130E040E550E06EE17AE00E9451
:1025B0007B364AE062E675E080913A0190913B01FA
:1025C0000E94E43E21E230E040E550E06EE17AE036
:1025D0000E947B3629E330E040E050E066E071E0A5
:1025E0008CE00E945E1E27E330E04BE450E06EE199
:1025F0007AE085E20E945E1E27E330E04CE650E080
:102600006EE17AE08CE30E945E1E8CE391E00E9412
:10261000871C8CE391E00E94B51CC1110E94D52E4D
:102620001C9910C00E94D52E2FE382E49FE0215018
:1026300080409040E1F700C000000E944E1F80E003
:102640000E94A30F1D990CC02FE382E49FE021504C
:1026500080409040E1F700C0000081E00E94A30F9D
:10266000C0E01FCFCF910895A4E0B0E0EAE3F3E12A
:102670000C948B3E8CE391E00E94B51C20E030E08E
:1026800040E050E06EE17AE084E00E945E1E2BE0C4
:1026900030E040E050E06EE17AE083E00E945E1EB0
:1026A00026E130E040E050E06EE17AE085E00E9413
:1026B0005E1E21E230E040E050E06EE17AE086E02C
:1026C0000E945E1E2BE330E040E050E066E071E0E7
:1026D00089E00E945E1E27E330E04AE050E06EE1B0
:1026E0007AE08EE00E945E1E409175064A5E00E030
:1026F0002DE261E080E090E00E94272A40910206EE
:10270000405D06E12DE261E080E090E00E94272A32
:1027100080914A07992787FD90954AE062E675E027
:1027200001960E94E43E21E230E04DE250E06EE18D
:102730007AE00E947B36809102068130D1F42CE24F
:1027400030E040E050E06EE17AE082E10E945E1EFF
:1027500080911001909111014AE062E675E00E94BB
:10276000E43E2CE230E04DE250E06EE17AE00E947F
:102770007B36EE24E39402E32CE144E064E68CE350
:1027800091E00E949D1D05E028E040E06EE68CE3AC
:1027900091E00E949D1D0E94CA3B6C0180911E0128
:1027A00090911F0120916F0630917006C216D306DA
:1027B000A0F0821B930B62E370E00E94183E161695
:1027C00017065CF4C601821B930B0E94043E633320
:1027D00071052CF062E370E002C060E070E046E357
:1027E000461BEE24E394062F2CE164E68CE391E093
:1027F0000E94731DC60164E670E00E94043E7B01E6
:102800004AE062E675E0C7010E94E43EAE014F5F18
:102810005F4F6EE17AE00E9463354AE062E675E060
:10282000C7010E94E43E27E330E046E650E06EE157
:102830007AE00E947B362CE9A70124038001259FC2
:10284000100D11240C0D1D1DC980DD24C7FCD09472
:1028500056E6C50ED11C27E330E0A6016EE17AE012
:1028600087E00E945E1EAE014F5F5F4F6EE17AE02F
:1028700087E091E00E946335E980AE014F5F5F4FD2
:102880006EE17AE089E091E00E946335B980FF242F
:10289000E7FCF0940A30110540F04AE062E675E08A
:1028A000C8010E94E43EA60115C0A6014E0D5F1DA1
:1028B00027E330E06EE17AE088E00E945E1E4AE0A5
:1028C00062E675E0C8010E94E43EA6014B0D511D71
:1028D000B7FC5A954E0D5F1D27E330E06EE17AE0BC
:1028E0000E947B3680911501882309F467C0E12C92
:1028F00000E320E648E06EE08CE391E00E94731D67
:10290000EE24E39420E648E06EE08CE391E00E9440
:102910009D1D8091150184FF11C02EE030E041E241
:1029200050E060E771E086E80E945E1E22E230E03F
:102930004EE250E060E771E087E73EC0809115010C
:1029400082FF11C02DE030E043E350E060E771E02A
:102950008BE40E945E1E21E230E047E250E060E737
:1029600071E08CE429C08091150183FF11C02EE035
:1029700030E04DE250E060E771E083E80E945E1EC7
:1029800022E230E048E250E060E771E084E814C001
:102990008091150181FF12C02EE030E04CE150E043
:1029A00060E771E089E60E945E1E22E230E04EE2BE
:1029B00050E060E771E089E70E945E1E8CE391E0E1
:1029C0000E94871C8CE391E00E94B51C2496E9E0EC
:1029D0000C94A73EA0E0B0E0E0EFF4E10C94893E57
:1029E000C0905807D0905907F0905A0790905B0715
:1029F000109258071092590710925A0710925B07CD
:102A0000D0E0C0E01F9BDEC0C111DEC08CE391E0CE
:102A10000E94B51C92E0B92E10E061E1610FEE2436
:102A2000E39408E228E240E08CE391E00E949D1DDF
:102A300086E2A82EA10E20E3210F03E044E16A2DD7
:102A40008CE391E00E94151D28E3210F69E2610FDC
:102A500006E045E18CE391E00E94151D01E022E0D3
:102A600045E16A2D8CE391E00E94E31D63E3610F71
:102A700024E045E08CE391E00E94E31DBA9411F05C
:102A800014E3CBCF29E330E040E050E066E071E0B2
:102A90008CE00E945E1E0E947D398091B807909163
:102AA000B9078033984F3CF08091B8079091B907EF
:102AB000813D974064F0D1110AC02BE230E04EE036
:102AC00050E060E771E087E80E945E1E76C080916A
:102AD000B8079091B907843F91403CF48091B807C2
:102AE0009091B9078D309E4FE4F48091BA07909190
:102AF000BB07843F91403CF48091BA079091BB079B
:102B00008D309E4F74F48091BC079091BD07843F37
:102B1000914094F48091BC079091BD078D309E4FF9
:102B20005CF02BE230E049E050E060E771E088E8DB
:102B30000E945E1ED1E041C08091B8079091B90714
:102B400097FF03C081E080935807E0910606E830C4
:102B500059F0EE0FFF0BEA54F84F8081918197FFF7
:102B600003C081E0809359078091BA079091BB0719
:102B700097FF03C081E080935A078091BC07909132
:102B8000BD0797FF03C081E080935B078091B80782
:102B90009091B9071816190684F48091BA0790919C
:102BA000BB07181619064CF48091BC079091BD071D
:102BB000C1E0181619060CF0C0E08CE391E00E9409
:102BC000871C20CFCC23E9F02BE230E048E250E034
:102BD00060E771E089E80E945E1E8CE391E00E944C
:102BE000871C8CE391E00E94B51C8FE794E82EE1EE
:102BF000815090402040E1F700C000000E94E416A0
:102C000008C0C0925807D0925907F0925A07909284
:102C10005B07CDB7DEB7EBE00C94A53ECF93DF9317
:102C200083EA91E0E9EBF5E0DF01EC011D922197E9
:102C3000E9F788E18093B90560E177E0A8E1B7E0C2
:102C4000EEE8F6E04CE934E62FE0EB014993BE01F3
:102C50003D93CF010297EC01288320837096D7E043
:102C6000A032BD0791F7EEEFF0E0CAEBD5E0A8E2A5
:102C7000B7E086EA9EE0249129938D939D93319647
:102C800021E0E630F207B9F78EEB9AE0909329073E
:102C9000809328078CE9809320078BE19AE10E94BA
:102CA000693121E02093020684E0809303061092AC
:102CB00004068DE692E090933907809338078FE6FB
:102CC00092E090933B0780933A0783E892E09093D9
:102CD0003D0780933C078DEF92E090933F078093F0
:102CE0003E072093280620933E0620933F06E4E209
:102CF000F6E080E522E394E1DF011F978C931196C3
:102D00002C9316968C9311962C9316968C93808305
:102D10001A979C9317969C93769636E0E636F307BF
:102D200059F782E080937E0697E090937D0698E0C5
:102D30009093070624E62093080624E020930506D6
:102D4000909306061092760694E29093770610927E
:102D50007C061092780693E090930B0680930C0605
:102D60008CE980930E06DF91CF910895A1E0B0E049
:102D7000ECEBF6E10C94903E8C0169830E94193FC4
:102D80006981861719F0C8010E94213F2196E4E06D
:102D90000C94AC3EEF92FF920F931F93CF93DF936F
:102DA000EC018B017A01E80EF91ECE15DF0539F032
:102DB0006991C8010E94B6160F5F1F4FF6CFCDB7BD
:102DC000DEB7E6E00C94AA3EF89443EA51E060E0F6
:102DD00070E089EB95E00E94CA167894089580E02F
:102DE00090E00E94193F883129F00E940E160E943F
:102DF000E416089543EA51E060E070E089EB95E065
:102E00000E94093F0895A5E2B0E0E9E0F7E10C94E3
:102E1000823E0E947B24B3E06B2E712C19A218A273
:102E200028E02CA31B8A1E8A1A8A198A1F8E1E8EDE
:102E30001D8E1C8EB12C1B8E1A8E812C912C1E8601
:102E40001D861A821982198E188E1D8A1C8A1C866C
:102E50001B8611E6C12E11E5D12EE12CF12C212C7F
:102E6000312C21011F82188619861A8631E03C8395
:102E700010E01F8A1B821E821D821DA280910C0100
:102E80008F5F80930C0180918807882331F04989F6
:102E90005A894F5F5F4F5A8B498B2B853C852C3469
:102EA0003C44A0F15B895F5F5B8B29893A89309351
:102EB00011012093100180917806823011F431E0E5
:102EC0003F8B0E94CA3B20916F063091700682179B
:102ED000930720F480911501806103C08091150152
:102EE0008F7E809315018091150182FF0BC00E9497
:102EF0005F3B4FE956E881E0415050408040E1F7A8
:102F000000C000001A8A198A1C861B862CA1822FF9
:102F100090E08B30910508F07BC0FC01E25CFF4F34
:102F20000C944B3E83B1807F803F49F080916E00CE
:102F3000816080936E0033E03CA31B8A69C01092CD
:102F40006E0081E085BB64C080916D07811149C02E
:102F500011114AC080910D01882309F459C034E051
:102F600047C00E94341346E04CA31D8A1C8A52C0FD
:102F70001F9B4EC045E04CA34BC05B895330D0F53E
:102F80001F9B3BC02C893D892331334108F440C04D
:102F900053E05CA33FC080916D07811131C01111D6
:102FA00032C080910D018823A9F128E02CA330C004
:102FB0000E946C1E39E01CC080916D07811126C0F3
:102FC000111124C080910D01882321F11CA220C081
:102FD00029980E94602E0E94322444E04CA31B8A50
:102FE00019C054E05CA302C024E02CA310E012C07E
:102FF0003CA310C057E05CA30BC02AE02CA30AC07E
:1030000038E03CA304C048E04CA301C01CA210E07F
:1030100000E001C001E080910D01882369F08091FA
:103020007906811109C08091150184608093150192
:1030300080911401846008C0809115018B7F80937A
:103040001501809114018B7F809314018091B2004F
:103050005091B2005AA39091140193FD08C0909131
:103060007C06992321F090917906913039F4809172
:103070001501877F809315011E8A15C08B192F813A
:10308000388549855A85280F311D411D511D2F83D3
:10309000388749875A872539314E4141510538F0E3
:1030A0002E892F5F2E8B1F82188619861A864091D3
:1030B0007C065E89252F30E0842F992787FD909527
:1030C000281739073CF0442329F0809115018860C6
:1030D000809315010E94CA3B20916F0630917006C3
:1030E0008217930720F480911501806103C08091BD
:1030F00015018F7E809315018091150184FD0CC010
:103100008091150183FD08C08091150181FD04C0E7
:103110008091150182FF06C08091120185FF02C0D7
:10312000299A01C0299880916D07811103C011234C
:1031300009F463C00E947D398091140182FD12C0A0
:103140008091B4079091B507C297D4F4809115018E
:103150008D7F809315018CE0A0E9B7E01D928A95E0
:10316000E9F70EC080E090E0FC01EE0FFF1FEA548B
:10317000F84F11821082019688309105A9F7E0CFAF
:10318000E0910506EE0FFF0BEA54F84F8081918124
:10319000853F914024F480917906813011F482E0DA
:1031A00006C0808191818D309E4F24F081E0809314
:1031B0004A0702C010924A0720914A07332727FD89
:1031C000309548A1842F90E02817390721F4809189
:1031D000130183FF10C080911301877F8093130137
:1031E0000E9477318CE0A0E9B7E01D928A95E9F75B
:1031F00020914A0728A30E94353AE0914A078E2F72
:10320000992787FD909536E1E302F0011124ED5EE8
:10321000F94F2081213069F0223019F021110EC0C0
:1032200004C02091140124FD04C0209114012E7FBC
:1032300003C02091140121602093140120910D06F8
:10324000213069F42091140122FF09C020917906F0
:10325000211105C02091140121602093140126E161
:10326000289FF001299FF00D1124EE5EF94F808117
:10327000882331F0813049F480911401826003C0C9
:10328000809114018D7F809314018091140181FD40
:1032900006C08CE0A0E9B7E01D928A95E9F70E948C
:1032A0007E26988B8F878815990598F480E090E0AA
:1032B000A1E0B0E088199909A109B1092F853889E1
:1032C000820F931FA11DB11D280E391E4A1E5B1EC1
:1032D00008C08F85988988199909280E391E411CC4
:1032E000511C8091B2003E8D831B4D855E85480F39
:1032F000511D5E874D875091B2005E8F8091B20064
:103300002D8D821B49815A81480F511D5A83498353
:103310005091B2005D8F8091B2002A8D821B4B8547
:103320005C85480F511D5C874B875091B2005A8FC6
:103330008091B2002B8D821B4C895D89480F511DF5
:103340005D8B4C8B5091B2005B8F8091B2002C8DC5
:10335000821B488D598D480F511D598F488F5091B0
:10336000B2005C8F288D398D8091120133FF02C02D
:10337000806201C08F7D809312014D855E854D3244
:10338000514020F01E861D8621E02B8349815A8101
:10339000463286E2580758F081E080930D014C34A4
:1033A0005C4438F02BE43CE43A83298302C0109259
:1033B0000D010E94211F0E94610F0E947E2616BCF3
:1033C00020910E0130910F018217930748F420914C
:1033D0000E0130910F01AC01421B530B9A0108C042
:1033E00020910E0130910F01DC01A21BB30B9D0156
:1033F00090930F0180930E01809170079091710757
:10340000A90160E070E0029718F44A015B0111C065
:103410008090700790907107A12CB12CEFE0880C80
:10342000991CAA1CBB1CEA95D1F7840E951EA61EFA
:10343000B71E1092710710927007C501B4010E9467
:103440007922C501B4010E94A23680916D078823BC
:1034500009F483C080917806823074F421E02C83D3
:1034600034EC231632EA33064104510408F41C827A
:1034700010920D010E947E264DA141110FC0809136
:103480007806823009F0B9C180918B0790918C0742
:1034900051E05C83843C924A08F41C828091780657
:1034A000823009F0A8C12C81222309F45BC138ECD9
:1034B000C3163BE4D306E104F10408F0A2C146E2DE
:1034C000C4164FE3D406E104F10408F09EC151E2B2
:1034D000C51656E3D506E104F10408F09AC18DE55E
:1034E000C8168FE2D806E104F10408F096C19CECFE
:1034F000C91699E2D906E104F10408F092C1A4EEDC
:10350000CA16A5E2DA06E104F10408F058C121E088
:103510002DA37AE0672E712C10920D010E947E2659
:10352000988B8F8780917806823009F054C15DA115
:10353000552309F450C12F89211153C180916D0782
:10354000811111E010926D070E9466291A8219827A
:10355000212C312C21011E821D8280916D07811149
:1035600010C080917806823019F44D81442349F0CF
:103570009091140192FD05C090917906913009F067
:10358000A9C080916D07882319F010926D0711E092
:1035900090917806E2E8F6E020E030E080E09230BA
:1035A00029F44081442309F458C10BC0913039F407
:1035B0004081411106C05C81511117C04AC11916E2
:1035C00064F440811416CCF440910D01442369F059
:1035D00040910D01442389F005C091110EC05C811A
:1035E000511103C04B81442341F041E050E0022ED1
:1035F00001C0440F0A94EAF7842B2F5F3F4F709667
:103600002830310561F65B81552311F01E861D8639
:10361000A1E06A16710419F5923009F5BDE88B1620
:10362000B0E29B06A104B10490F075016401E2E6EA
:103630008E16E1E59E06A104B10430F031E6C32EFA
:1036400031E5D32EE12CF12C21E02D8308C02DE8AB
:10365000C22E20E2D22EE12CF12C31E03D838BA34F
:103660000E94A5370E94E53290910D018BA1911126
:1036700009C00023F9F08BEE9CE20197F1F700C03E
:1036800000001AC0E2E8F6E020E030E090819230DD
:1036900051F4D901AA0FBB1FA853B84F4CE454E012
:1036A00011965C934E932F5F3F4F709628303105F3
:1036B00069F7DFCF0E94E73A80917806823031F4D3
:1036C000161417041CF491E0691A710810920C0189
:1036D0001B8224C0823011F52D812223F9F03DA1F7
:1036E000332379F14E81442309F4BBC080910D014D
:1036F000811114C080E090E020916D0721110EC06F
:10370000853231E0930750F42091B2005F8D251B84
:10371000820F911D2091B2002F8FEECF1614170447
:1037200084F04DA1442369F05E8151110AC080915B
:103730007806823029F40E94792921E02E8301C085
:103740001E828091150139A1381729F04CA1411131
:1037500002C057E05CA32091150129A3BAA08F8471
:1037600098888CCB3DECC31636E4D306E104F10413
:1037700008F05DC044EAC41648E3D406E104F1044D
:1037800008F059C053E3C5165FE2D506E104F10421
:1037900008F055C085E7C81688E2D806E104F104B0
:1037A00008F051C096E6C91693E2D906E104F10487
:1037B00060F421E02DA368E0662E712CADCE31E0DF
:1037C0003DA359E0652E712CA7CE41E04DA347E003
:1037D000642E712CA1CE1A821982212C312C210148
:1037E000BCCE1A821982212C312C21011F8A31E092
:1037F0003D831DA2B2CE31E03DA366246394712CBB
:103800008BCEE4E06E2E712C0FC075E0672E712C0C
:103810000BC066E0662E712C07C057E0652E712C38
:1038200003C048E0642E712C41E04DA375CE33E017
:10383000632E712C0BC024E0622E712C07C095E022
:10384000692E712C03C086E0682E712C51E05DA3B7
:1038500063CE4B814111C9CEB4CE5B815111C5CE2F
:10386000B0CE161417040CF46CCF61CF0F931F93D6
:10387000CF93DF93C7E0D0E0082F10E05C98C80139
:103880000C2E02C0959587950A94E2F780FF02C03E
:10389000599A01C059985C9A0E94760D219770F749
:1038A000DF91CF911F910F9108955F980E94361C70
:1038B00008955F9A0E94361C0895CF93C82F81E81F
:1038C0000E94551C8C2F0E94551CCF910895CF93B8
:1038D000DF935D985E9887E893E10197F1F700C068
:1038E00000005E9ACFEEDDE0FE0184910E94551C3F
:1038F0002196FDE0CD3FDF07B9F7809177060E9462
:103900005D1C88EC0E94551CDF91CF910895A0E0CA
:10391000B0E0EDE8FCE10C948D3ECDEFDDE08C01F4
:10392000FE018491806B0E94551C80E00E94551C12
:1039300080E10E94551C80EE0E94551C7801D12C1C
:10394000F70181917F010E94591CD394F0E8DF12A6
:10395000F7CF219600581F4F8EE0C530D80701F7EA
:10396000CDB7DEB7E7E00C94A93E20E034E0FC01DF
:10397000A901119241505040E1F70895CF93DF9390
:10398000D0E08D2F806B0E94551CC0E08C2F8F7073
:103990000E94551C8C2F82958F7080610E94551C4F
:1039A00080E00E94591CCF5FC03881F7DF5FD830BC
:1039B00041F7DF91CF91089567FD36C04034A0F5FF
:1039C000342F369536953695E62FF0E050E02223D9
:1039D000A9F020E8329FE00DF11D1124E80FF91F36
:1039E000409550954770552781E090E0042E01C026
:1039F000880F0A94EAF79081982B15C020E8329F2F
:103A0000E00DF11D1124E80FF91F40955095477006
:103A1000552781E090E0042E01C0880F0A94EAF750
:103A200080959081982390830895A0E0B0E0EBE129
:103A3000FDE10C94893EEC01162FF42ED22EA02F1E
:103A4000B0E0A41BB109B7FF03C0B195A195B109BE
:103A5000ED2DF0E0E11BF109F7FF03C0F195E195D1
:103A6000F109BB24B394EA17FB0714F0B12C06C08C
:103A70008D2DD02E082F812F1F2DF82ED11630F42A
:103A80008F2DF02E082F812F1D2DD82EAD2CA11A91
:103A9000E02FF0E0EF19F109F7FF03C0F195E19590
:103AA000F1099E2ECA2CC694F01610F401E010C045
:103AB0000FEF0EC02E2DBB2071F0412F6F2DCE01C8
:103AC0000E94DC1CC918C7FE02C0F00ECA0C1F5FA2
:103AD0001D1580F303C04F2D612FF1CFCDB7DEB799
:103AE000EBE00C94A53EA0E0B0E0E9E7FDE10C942A
:103AF0008A3E6C01A42EF62EC22FD0E0C60FD11D37
:103B000010E0040F111D8F2D90E08C179D0784F499
:103B1000BA2C8B2D90E08017910744F42E2D4B2D5D
:103B20006F2DC6010E94DC1CB394F3CFF394EBCF4E
:103B3000CDB7DEB7EAE00C94A63EA0E0B0E0E3EA41
:103B4000FDE10C94893EEC01F62EB42E922E162F38
:103B5000C22ED12CC60ED11CAA24AA94A00EA40E4B
:103B6000812F90E08C159D0574F42E2D4B2D612F27
:103B7000CE010E94DC1C2E2D4A2D612FCE010E9409
:103B8000DC1C1F5FEDCFDB2C10E00B0D111DCC24D6
:103B9000CA94C90CCF0C8D2D90E08017910774F456
:103BA0002E2D4D2D6F2DCE010E94DC1C2E2D4D2D66
:103BB0006C2DCE010E94DC1CD394EDCFCDB7DEB7C7
:103BC000EBE00C94A53EA0E0B0E0E9EEFDE10C9442
:103BD000843EEC01962EA42EBB24B394B21A822EFE
:103BE0008194880C122F742E721AE42EF12C670126
:103BF000C20ED11C872D992787FD9095C816D9062E
:103C000044F0202F472D692DCE010E94DC1C7394B7
:103C1000F1CF712C71160CF04CC0B7FC04C01150E0
:103C200083948394B80C7394872D880F8F5FB80E9C
:103C30006A2C611A6701C10ED11C17FDDA94472C5A
:103C4000490C592C5718862D992787FD9095C81631
:103C5000D90674F0202F462D642DCE010E94DC1C65
:103C6000202F462D652DCE010E94DC1C6394EBCFE6
:103C70006A2C67186701C70CD11C77FCDA94412EB7
:103C8000490C592C511A862D992787FD9095C816F5
:103C9000D9060CF4BFCF202F462D642DCE010E94F3
:103CA000DC1C202F462D652DCE010E94DC1C639468
:103CB000EACFCDB7DEB7E0E10C94A03EE82FF0E00C
:103CC000EE0FFF1FEB5FF14F859194910E945736E5
:103CD00008950E94573608958CE391E00E94B51C28
:103CE00023E030E048E250E060E771E08AE70E94BC
:103CF0005E1E27E130E048E150E060E771E08BE7CD
:103D00000E945E1E8091150184FF11C02BE230E0FD
:103D10004CE050E060E771E086E80E945E1E2BE216
:103D200030E040E550E060E771E087E73EC0809119
:103D3000150182FF11C02BE230E04CE150E060E75A
:103D400071E08BE40E945E1E2BE230E046E350E01F
:103D500060E771E08CE429C08091150183FF11C0F8
:103D60002BE230E04AE050E060E771E083E80E9437
:103D70005E1E2BE230E041E550E060E771E084E850
:103D800014C08091150181FF12C02BE230E04AE09F
:103D900050E060E771E089E60E945E1E2BE230E0B1
:103DA00041E550E060E771E089E70E945E1E8CE328
:103DB00091E00E94871C0895A6E0B0E0E2EEFEE1EB
:103DC0000C94923E81E00E949F1080917800909127
:103DD00079009A83898384E00E949F108091780003
:103DE000909179009C838B8382E00E949F10809148
:103DF0007800909179009E838D8320917606ABE7C1
:103E0000B5E043E024029001112480E090E02A51C3
:103E1000394EF901E80FF91FE491EE0FFF0B41E075
:103E200050E04C0F5D1FE40FF51F408151814D9311
:103E30005D9301968330910561F72696E2E00C943C
:103E4000AE3E1F93CF93DF930E94DC1E2091760637
:103E5000C4E4D7E0ABE7B5E083E028029001112489
:103E600080E090E02C52394E69917991F901E80F88
:103E7000F91F14914D915C911197461B570B140338
:103E8000B001159F700D11246D937D9301968330C1
:103E9000910551F7DF91CF911F910895CF9386E05F
:103EA000E4E4F7E0DF011D928A95E9F7C0E20E94A1
:103EB000DC1E409144075091450780917B0590910D
:103EC0007C05480F591F50934507409344072091A4
:103ED00046073091470780917D0590917E05280F18
:103EE000391F3093470720934607809148079091E8
:103EF000490760917F0570918005860F971F909309
:103F0000490780934807C15091F665E0559547955C
:103F10006A95E1F7509345074093440775E035955E
:103F200027957A95E1F73093470720934607E5E018
:103F300095958795EA95E1F790934907809348070F
:103F40000E94E416CF910895A5E1B0E0EAEAFFE10E
:103F50000C94823E1E861D86188A1F861A8A198A2C
:103F60000E944E1F6091440770914507882777FD96
:103F70008095982F0E94ED3C69837A838B839C8384
:103F80006091460770914707882777FD8095982FA5
:103F90000E94ED3C6D837E838F83988760914807F4
:103FA00070914907882777FD8095982F0E94ED3CF6
:103FB00069877A878B879C871D8A1B8AE12CF12C65
:103FC00000E010E08091B2009D89891BE80EF11C91
:103FD000E091B200ED8BFCE4EF16FF0628F08B8930
:103FE0008F5F8B8BE12CF12C0E94DC1EFE01319641
:103FF0006F01FBE72F2EF5E03F2ECE010D965C0101
:104000001C8AF101819091901F0120E030EC49E77A
:1040100054E4F60160817181828193810E94A13D07
:104020002B013C01B401882777FD8095982F0E94D1
:10403000ED3C9B01AC01C301B2010E94EA3B20E0D0
:1040400030E04AE754E40E94523CF60160837183F9
:10405000828393830E94BA3CF50120813181261727
:10406000370711F000E010E0F501619371935F01F3
:10407000FC89FF5FFC8B84E0C80ED11CF33009F68D
:104080000F5F1F4F093C110520F00E944E1F81E079
:1040900001C080E0E7E8F3E13197F1F700C00000EC
:1040A000811104C0FB89F63008F48CCF6596E2E1FB
:1040B0000C949E3E4F925F926F927F928F929F924E
:1040C000AF92BF92CF92DF92EF92FF92CF93DF93A6
:1040D000CDB7DEB728970FB6F894DEBF0FBECDBFC1
:1040E0006B017C018090B1059090B205A090B30562
:1040F000B090B4059B01AC010E94A13D20E030E0EE
:1041000040E05FE30E94A13D9B01AC0160E070E0F4
:1041100080E89FE30E94E93B69837A838B839C83D9
:104120004090B5055090B6056090B7057090B80501
:104130009B01AC01C501B4010E94A13D6D837E834A
:104140008F839887A7019601C301B2010E94A13D08
:104150009B01AC016D817E818F8198850E94E93B36
:1041600060939D0570939E0580939F059093A00595
:10417000A7019601C501B4010E94A13D6B017C011C
:1041800029813A814B815C81C301B2010E94A13D2A
:104190009B01AC01C701B6010E94EA3B6093810517
:1041A00070938205809383059093840528960FB6BB
:1041B000F894DEBF0FBECDBFDF91CF91FF90EF909F
:1041C000DF90CF90BF90AF909F908F907F906F9037
:1041D0005F904F900895CF92DF92EF92FF92690126
:1041E0007A0125EF31EA4BE85CE30E94A13DA7018B
:1041F00096010E94A13D6B017C0126EA3AE046E867
:104200005EE30E949D3D18169CF026EA3AE046E8DF
:104210005EEBC701B6010E944E3C87FF11C086EAE3
:10422000C82E8AE0D82E86E8E82E8EEBF82E08C03D
:1042300096EAC92E9AE0D92E96E8E92E9EE3F92E49
:10424000C701B601FF90EF90DF90CF9008958F9255
:104250009F92AF92BF92CF92DF92EF92FF920F9315
:104260001F936B017C016091910570919205809183
:10427000930590919405A70196010E94EB2000916F
:104280001601109117012091180130911901009326
:10429000B1051093B2052093B3053093B405009196
:1042A000000110910101209102013091030100935E
:1042B000B5051093B6052093B7053093B8050E9455
:1042C0005A2080919D0590919E05A0919F05B091E7
:1042D000A0058093160190931701A0931801B09345
:1042E00019018090810590908205A0908305B0907F
:1042F00084058092000190920101A0920201B09287
:1043000003016091950570919605809197059091B4
:104310009805A70196010E94EB2000911A011091C7
:104320001B0120911C0130911D010093B1051093D8
:10433000B2052093B3053093B4058092B5059092F1
:10434000B605A092B705B092B8050E945A20809099
:104350009D0590909E05A0909F05B090A00580922D
:104360001A0190921B01A0921C01B0921D01809134
:10437000810590918205A0918305B0918405809379
:10438000000190930101A0930201B0930301609199
:104390007F0570918005882777FD8095982F0E9472
:1043A000ED3CA70196010E94EB208092B10590920E
:1043B000B205A092B305B092B405C0901601D0909A
:1043C0001701E0901801F0901901C092B505D09244
:1043D000B605E092B705F092B8050E945A20809188
:1043E0009D0590919E05A0919F05B091A005809399
:1043F0001A0190931B01A0931C01B0931D018091A1
:10440000810590918205A0918305B09184058093E8
:10441000160190931701A0931801B09319011F91F1
:104420000F91FF90EF90DF90CF90BF90AF909F9053
:104430008F900895CF92DF92EF92FF9220E030E0CC
:1044400044EB52E40E94A13D6B017C0120E030E08E
:10445000A901609100017091010180910201909188
:1044600003010E944E3C87FF18C020E030E0A90104
:10447000C701B6010E949D3DA701960118162CF4B4
:1044800060E070E084E393E404C060E070E084E303
:1044900093EC0E94E93B6B017C01C701B601FF90E0
:1044A000EF90DF90CF90089560911A0170911B01F9
:1044B00080911C0190911D010E941A226093AD050C
:1044C0007093AE058093AF059093B005609116018F
:1044D0007091170180911801909119010E941A2280
:1044E0006093850570938605809387059093880572
:1044F0000895A0E1B0E0EFE7F2E20C94843E0E9460
:10450000EB3C69837A838B839C8320E836E948E11E
:104510005AE40E94523C6D877E878F87988B8091EA
:10452000780660917E06823039F084E06802B0013E
:104530001124685E784E06C094E06902B00111242F
:104540006850794E44E050E0CE0101960E94DB3E77
:1045500050907E06C980DA80EB80FC8026E3622ED4
:1045600021E0722E01EA15E0D3016D917D913D01AC
:10457000882777FD8095982F0E94ED3C4B015C01C8
:10458000B7E05B16F1F020E030E040E85FE3C70100
:10459000B6010E94E93BF8012081318142815381BB
:1045A0000E94A13DA50194010E94E93BA70196014B
:1045B0000E94523CD8016D937D938D939C931397E9
:1045C00009C0B7FAB094B7F8B094F801808291822C
:1045D000A282B3820C5F1F4FFCE36F16F1E07F06EF
:1045E00019F623EC35EF48E25FE36091A105709185
:1045F000A2058091A3059091A4050E94A13D6D8321
:104600007E838F8398876093890570938A05809352
:104610008B0590938C0523EC35EF48E25FE36091C6
:10462000A5057091A6058091A7059091A8050E9407
:10463000A13D69877A878B879C8760938D057093EE
:104640008E0580938F059093900560917B05709106
:104650007C05882777FD8095982F0E94ED3C2B01E3
:104660003C01609395057093960580939705909310
:10467000980560917D0570917E05882777FD80956E
:10468000982F0E94ED3C6B017C0160939105709323
:104690009205809393059093940520913601309173
:1046A00037014091380150913901E0913A01F09180
:1046B0003B01449F4001459F900C900C1124B40194
:1046C000882777FD8095982F229FA001239F500D6A
:1046D000500D11248A01222717FD2095322F600FDB
:1046E000711F821F931FEE9F9001EF9F300D300DC1
:1046F00011248901222717FD2095322F600F711F89
:10470000821F931F0E94EB3C4B015C0120E034EFC1
:1047100048E356E40E949D3D18160CF06FC020E05F
:1047200038E449EA56E4C501B4010E944E3C87FFD3
:1047300065C020E030E040E05FE3609100017091EF
:10474000010180910201909103010E949D3D181684
:104750000CF054C080917D066BE070E0681B71091D
:1047600087FD7395882777FD8095982F0E94ED3CF3
:104770004B015C012D813E814F8158856091AD05D3
:104780007091AE058091AF059091B0050E94E93B14
:10479000A50194010E94523C9B01AC01C301B201EE
:1047A0000E94EA3B60939505709396058093970568
:1047B0009093980529853A854B855C8560918505A0
:1047C0007091860580918705909188050E94E93B4C
:1047D000A50194010E94523C9B01AC0169837A833C
:1047E0008B839C83C701B6010E94EA3B60939105CD
:1047F0007093920580939305909394056D857E85C3
:104800008F8598890E9427210E94542220E030E061
:1048100048EC52EC6091AD057091AE058091AF050A
:104820009091B0050E94A13D0E94BA3C70939A05F8
:104830006093990520E030E048EC52EC60918505EA
:104840007091860580918705909188050E94A13D11
:104850000E94BA3C70939C0560939B056096E0E1D2
:104860000C94A03E10921A0110921B0110921C0190
:1048700010921D011092160110921701109218014A
:104880001092190180E090E0A0E8BFE3809300015E
:1048900090930101A0930201B09303011092B1051E
:1048A0001092B2051092B3051092B4051092B5059E
:1048B0001092B6051092B7051092B8051092AD058A
:1048C0001092AE051092AF051092B00510928505BA
:1048D0001092860510928705109288051092710734
:1048E00010927007109285001092840010920F01B0
:1048F00010920E01089511B88FEF87B98AE084B93C
:1049000082EF8AB918B8419840982B9829985C9AF8
:1049100085EF83B91C9911C08CE089B92FE588ED2A
:1049200093E0215080409040E1F700C0000083EF09
:104930008AB90E947D0D82EF8AB98DE089B914BCD5
:1049400085E085BD80916E00816080936E0016BC0D
:10495000109280008091810082608093810010928B
:10496000B00087E08093B1001092700017BA1092E7
:10497000B2009AE0909368009FE09BBB95E1909312
:1049800069008CBB10926D07809113018860809341
:1049900013010E94671C0E94BE1C2FE78FE492E166
:1049A000215080409040E1F700C0000083B1807F3B
:1049B000803951F580EC0E94551C8CE391E00E94F7
:1049C000B51C29E130E048E250E060E771E081E0A9
:1049D0000E945E1E8CE391E00E94871C8CE391E0B4
:1049E0000E94B51C0E940E160E94E4168091770664
:1049F0000E945D1C2FE784E89EE12150804090409A
:104A0000E1F700C0000002C00E94EF168091770617
:104A10000E945D1C8CE391E00E94B51C8CE391E048
:104A20000E94871C0E94671C8CE391E00E94B51CC9
:104A300080EC0E94551C29E130E042E150E060E743
:104A400071E082E00E945E1E8CE391E00E94871C70
:104A50008CE391E00E94B51C0E9499100E94792974
:104A60000E945F3B0E94A41F811127C08CE391E04C
:104A70000E94B51C29E130E049E150E060E771E0B7
:104A80008DE30E945E1E8CE391E00E94871C2FEF55
:104A900088E09DE3215080409040E1F700C0000095
:104AA000F89428E088E190E00FB6F894A8958093F8
:104AB00060000FBE20936000FFCF0E94CA3B90931E
:104AC0001F0180931E010E94773180916D0788231A
:104AD00069F00E947D398091B4079091B507C39722
:104AE0002CF0809115018260809315010E94322480
:104AF000299A2FE986E891E0215080409040E1F723
:104B000000C00000299808951F920F920FB60F92CF
:104B100011248F939F938091700790917107019654
:104B200090937107809370079F918F910F900FBEA4
:104B30000F901F9018951F920F920FB60F9211248D
:104B40002F933F938F939F9380918707882319F02A
:104B500081E0809388074B9B09C0809184009091ED
:104B60008500909375078093740714C0809184002A
:104B7000909185002091740730917507821B930BEB
:104B80009093600780935F0780910306813011F452
:104B900080936D079F918F913F912F910F900FBE42
:104BA0000F901F9018951F920F920FB60F9211241D
:104BB0002F933F938F939F9380918707882319F0BA
:104BC00081E0809388074A9B09C08091840090917E
:104BD0008500909377078093760715C080918400B5
:104BE000909185002091760730917707821B930B77
:104BF000909362078093610780910306823019F4D5
:104C000081E080936D079F918F913F912F910F903D
:104C10000FBE0F901F9018951F920F920FB60F9214
:104C200011242F933F938F939F938091870788231D
:104C300019F081E080938807489B09C08091840027
:104C400090918500909373078093720715C08091AF
:104C50008400909185002091720730917307821B28
:104C6000930B90935E0780935D07809103068111FB
:104C700003C081E080936D079F918F913F912F91A9
:104C80000F900FBE0F901F9018951F920F920FB6A6
:104C90000F9211242F933F938F939F9380918707B7
:104CA000882319F081E080938807189B09C08091C0
:104CB00084009091850090937B0780937A0715C0BC
:104CC000809184009091850020917A0730917B0734
:104CD000821B930B90936607809365078091030670
:104CE000843019F481E080936D079F918F913F91FB
:104CF0002F910F900FBE0F901F9018952FB7F8941B
:104D000080918400909185002FBF08951F920F928B
:104D10000FB60F9211242F933F934F935F936F938E
:104D20007F938F939F93AF93BF93EF93FF93809164
:104D30008707882319F081E0809388070E947E26E8
:104D4000209102062223D1F01A9B05C09093790787
:104D50008093780786C02091780730917907821B6D
:104D6000930B9093640780936307809103068330CD
:104D700009F077C081E080936D0773C01A9971C004
:104D80002091850730918607AC01421B530B9A0195
:104D90002F353A4158F42091850730918607AC01B0
:104DA000421B530B9A012E3E324010F4109284079E
:104DB0009093860780938507E0918407F0E0E7549D
:104DC000FA4FE18120918407222339F0A0918407D2
:104DD000B0E0A754BA4F2C9101C020E03091840775
:104DE000383038F4F0E0EE0FFF1FEE58F84F9183A3
:104DF000808330918407332399F0309184073930D0
:104E000078F430E0220F331FF901EE58F84F40815B
:104E10005181841B950BF901E35AF84F91838083EC
:104E2000809184078F5F809384079091840780919D
:104E30006E07891728F48091840780936E0709C054
:104E40009091840780916E07981303C081E080934E
:104E50006D0780910D01882321F010926E0710924A
:104E60000D01FF91EF91BF91AF919F918F917F9134
:104E70006F915F914F913F912F910F900FBE0F90C7
:104E80001F9018951F920F920FB60F9211242F9317
:104E90003F934F935F936F937F938F939F93AF93C2
:104EA000BF93CF93EF93FF9380918707882319F0E7
:104EB00081E080938807C091C6000E947E264091C1
:104EC00085075091860740918507509186079C0180
:104ED000241B350BA9014D343DE1530790F010928E
:104EE0005C0710926F071092840710928A07109245
:104EF0008907109283071092820750938C07409382
:104F00008B07909386078093850780915C07863294
:104F100050F4E0915C0781E08E0F80935C07F0E035
:104F2000E45CFA4FC08380910206843009F0B3C07C
:104F300080916F0781110DC08C2F807E51F0809180
:104F4000890790918A078B5A9F4F90938A07809385
:104F5000890780916F072C2F30E0823051F4109236
:104F6000830710928207922F88279093830780935C
:104F7000820780916F078330B9F080918407409158
:104F80006F0790E0880F991F039650E084179507EC
:104F900044F18091890790918A07820F931F909323
:104FA0008A07809389077BC180918207909183074C
:104FB000820F931F909383078093820780918207CB
:104FC00090918307109284070097B9F2AC01415089
:104FD000510984239523409184074F5F40938407B0
:104FE000F3CF8091890790918A07992790938A0738
:104FF000809389078091890790918A078217930788
:1050000049F010926D071092840710928A0710924F
:10501000890745C181E080936D0780E090E0A4E0BE
:1050200061E070E0BAE040918207509183079B01F4
:10503000082E02C0220F331F0A94E2F724233523DF
:10504000232B21F1EA2FF0E0E45CFA4F408121812B
:105050008830C8F4FC01E754FA4FE181F0E050E0F9
:10506000542F4427420F511DB49F9001B59F300D1E
:1050700011243695279536952795EE0FFF1FE35A95
:10508000F84F31832083A63208F4AE5F0196803159
:10509000910549F604C1823009F090C080916F07F4
:1050A000883109F0FCC0CC2359F081E0CF3C08F4F2
:1050B00080E091E3899FC00D1124C43009F0EFC056
:1050C0008091530585FDEBC081E080936D0780E002
:1050D00090E0FC01EE0FFF1FE35AF84F118210829F
:1050E000019688309105A9F7A8E570E0C0E060E07E
:1050F000B1E021E030E0EB2FF0E0E45CFA4F80819A
:1051000090E0062E02C0959587950A94E2F780FFFD
:1051100017C0EC2FF0E0E754FA4FE181F0E0EE0F1A
:10512000FF1FE35AF84F80819181A901072E02C029
:10513000440F551F0A94E2F7842B952B91838083AB
:105140006F5F7F5F683011F4BF5F60E07B3011F408
:10515000CF5F70E0A15079F640E050E0FA01EE0F29
:10516000FF1FE35AF84F208131813450C9019595D2
:10517000879595958795820F931FB901A3E0759543
:105180006795AA95E1F7860F971FB901B4E0759569
:105190006795BA95E1F7860F971FC5E03595279576
:1051A000CA95E1F7820F931F8A55914F91838083AF
:1051B0004F5F5F4F4830510589F671C0833009F069
:1051C0006EC080916F078F3008F469C0C0934B05A3
:1051D00080913D0584FF04C0C7E063E078E703C029
:1051E000C3E062E07CE3EFE3F5E0DF0111972C918F
:1051F000822F872390E0062E02C0959587950A940A
:10520000E2F7809384078081909184079830F0F5CD
:105210002C2330E0322F2227280F311D633011F468
:10522000345001C03250C901880F991FA90155950A
:105230004795840F951FA901559547955595479515
:10524000840F951FA901A3E055954795AA95E1F70D
:10525000840F951FB4E035952795BA95E1F7820F35
:10526000931F633011F495958795A0918407B0E062
:10527000A754BA4F1196AC91B0E08A55914FAA0F3E
:10528000BB1FA35AB84F11969C938E93329625E07C
:10529000ED34F20709F0A9CF81E080936D0780918A
:1052A0006F078F5F80936F07FF91EF91CF91BF9151
:1052B000AF919F918F917F916F915F914F913F91AE
:1052C0002F910F900FBE0F901F901895F894109289
:1052D0006C00109273001DBAE1ECF0E080818F7ECB
:1052E000808380818F7780838FE08BBB1CBA78941A
:1052F0000895F894809102068130C9F044F4811138
:105300002CC010926C001092730084E01BC085309A
:1053100024F510926C00109273001DBA8091C100A8
:1053200080688093C1008091C100806114C0809129
:105330006C00816080936C00809173008160809329
:10534000730087E08DBB8091C1008F778093C1008F
:105350008091C1008F7E8093C1008FE08BBB1CBA0F
:1053600078940895811123C029E330E040E050E0B3
:1053700066E071E08CE00E945E1E2BE330E046E2C6
:1053800050E066E071E08AE00E945E1E2BE330E0B0
:1053900040E550E066E071E089E00E945E1E29E38E
:1053A00030E048E750E066E071E08BE022C026E3A1
:1053B00030E040E050E06EE17AE080E10E945E1E65
:1053C0002BE330E046E250E066E071E08AE00E94C4
:1053D0005E1E2BE330E040E550E066E071E089E0DE
:1053E0000E945E1E26E330E047E650E06EE17AE080
:1053F00081E10E945E1E8CE391E00E94871C08956B
:10540000AAE0B0E0E6E0FAE20C94923E25E0629F6A
:10541000800D911D1124BC0145E050E0CE0106969F
:105420000E94DB3E85E0FE013696DE01119601907A
:105430000D928A95E1F729813A814B815C816D81DA
:1054400070E080E090E02A96E2E00C94AE3E0F938C
:105450001F93CF93DF93E42F10E0C22FD0E0662399
:1054600019F06250623060F44AE062E675E00E9432
:10547000E43E9801AE016EE17AE00E947B3607C0FF
:105480009801AE016EE17AE08E2F0E945E1EDF91E0
:10549000CF911F910F910895682F93B1907F9093B2
:1054A0008D0780E071E090918D07903FC9F483B142
:1054B000807FE7EAF1E63197F1F700C0000023B101
:1054C000482F50E0207F30E04217530719F48093B3
:1054D0008D0701C080E01092200170938E07E3CF0A
:1054E000662371F0909120019F5F909320019A3084
:1054F00038F01092200190918E079F5F90938E0755
:105500000895A6E1B0E0E7E8FAE20C94823E982E16
:10551000788B6F87B42EED82FE820F83D12E188791
:1055200029874E2D3F2D0C87FB012081622E772489
:1055300067FC7094F2E01F1305C05B2D250330015A
:10554000112402C0BB24B39420EF20938D078B2D30
:1055500090E09A8B898B2B2D42031001112432038A
:10556000C00111249E878D8791E0512C412CF12C94
:10557000092D10E0000F111F0B5F114FEC2DFF27BD
:10558000E7FDF095FC8BEB8BAEEFCA2ECD0C2A2DF0
:1055900030E03E8B2D8BEBA5FCA5B4E0EE0FFF1F9A
:1055A000BA95E1F7EE57F94FFB87EA8780918D07AF
:1055B000803E09F41AC1882011F025E001C021E0E5
:1055C000803F19F04394241510F4512C412C88206D
:1055D00049F0F394F7E0FF1510F4803F19F4992394
:1055E00009F469C08CE391E00E94B51CF801859133
:1055F000949120E030E040E050E060E771E00E94EC
:10560000691EDD2019F021E02C1540F14AE062E628
:1056100075E0C3010E94E43EAE014F5F5F4F60E75B
:1056200071E00E94633589819A8170E8E72EF12C40
:10563000E81AF90AF694E7948B899C89E80EF91E1A
:105640004AE062E675E0C3010E94E43E29E130E0F1
:10565000A70160E771E00E947B3625C0ED89FE89D5
:10566000E60DF71DEE0FFF1FEB5FF14F8591949153
:105670000E94AD35AE014F5F5F4F60E771E082E69B
:1056800095E00E94633589819A8140E850E0481B8B
:10569000590B5695479529E130E060E771E08A2D76
:1056A000860D0E945E1E81E00E94B2298CE391E08B
:1056B0000E94871CF12C92E0D91629F19D1568F003
:1056C000DD20C9F0E1E0DE122FC09FE3E2E4FFE05D
:1056D0009150E040F040E1F725C0F3E0DF16D9F04B
:1056E00024E0D21221C0FFE322E43FE0F150204049
:1056F0003040E1F717C03FE75AE186E031505040B3
:105700008040E1F70FC02FE73AE156E021503040EA
:105710005040E1F707C08FE798E3E1E08150904007
:10572000E040E1F700C00000882041F083B1807FB5
:1057300080938D0781E080938E0703C081E00E94F3
:105740004C2A80918D07803F39F18820C9F0803D37
:1057500051F451105AC080918E075C85589F601893
:10576000710811240BC0803B81F451104EC0809110
:105770008E079C85989F600C711C1124412C45C09C
:10578000803D49F3803B99F3512C803729F42985DA
:105790003B2D230330011124621473040CF43101F6
:1057A0008D859E85861597050CF43C0197EA991224
:1057B00003C0862D0E945D1C8820A9F0EA85FB8528
:1057C0008081823081F0862D0E945C35865A9E4011
:1057D00095958795F894BC0164527A4F8BA59CA54A
:1057E0000E94A50E789490E0E1CEF2E0DF1206C0B0
:1057F000C30169897A890E94183E3B01EF85F889C7
:1058000060826696E2E10C949E3E55245394C4CF88
:1058100090E0981781F0299AEFE0F7E23197F1F7DD
:1058200000C000002998EFE0F7E23197F1F700C0DF
:1058300000009F5FEECF0895A3E0B0E0E2E2FCE25B
:105840000C948C3E582FF601D7019C91940F9C9399
:10585000640F203EA1F4D8018C918F3059F018F4D8
:10586000833049F04BC08B3141F0873209F046C09C
:105870009D5F01C09F5F908341C09E5FFCCF203D34
:10588000F9F4F80180818F3069F018F4833031F039
:1058900015C08B3159F0873269F010C0523070F169
:1058A0008FE027C0533050F18BE11FC0543030F1EE
:1058B00087E21FC0553010F188E217C088E219C096
:1058C000203BD1F4F80180818F3069F020F48330DF
:1058D00079F482E00AC08B3121F0873249F48BE100
:1058E00008C08FE002C083E004C0F801808306C0D6
:1058F00082E0D8018C9302C0203F91F081E04B837D
:105900005A8369830E94082CBFEFE4E3FCE0B150A6
:10591000E040F040E1F700C0000069815A814B810E
:10592000D8018C91823041F483E08C93F70180811F
:10593000681710F481508083D8018C91883291F4DB
:1059400087E28C93F7017081272F30E02D5F3F4F66
:10595000852F90E0860F911D01972817390710F4C5
:105960007F5F7083D7018C91841B8C932396E8E032
:105970000C94A83E282F30E043E050E066E071E050
:105980008DE00E945E1E0895A9E0B0E0EAECFCE222
:105990000C94823E382E3A01222E2801EE82CF82CC
:1059A00088868CE391E069870E94B51C80E00E94A4
:1059B000B229232D30E06985862F90E0680145E00B
:1059C000649FC018D1081124E5E03E9EC00CD11C94
:1059D0001124812C912CE12CF12CA81AB90AA20EC9
:1059E000B31E281B390B620E731E8701085C184E0C
:1059F000F801249130E04AE050E06EE17AE0832D36
:105A00008E0D0E945E1EFE8145E050E0F11104C043
:105A1000B4016C0D7D1D01C0B201CE0101960E9442
:105A2000DB3E6C81623011F031E001C0322DF801B3
:105A30000491F501EE0DFF1D4491D301AE0DBF1D84
:105A40005C91450F2F815303C00111240E94272A26
:105A5000FFEFEF1AFF0A45E0840E911C84E0E81680
:105A6000F10409F0C2CF88850E94BA2C8CE391E042
:105A70000E94871C81E00E944C2A2996E2E10C9446
:105A80009E3EAFE0B0E0E7E4FDE20C94823E9091F0
:105A90008F07992329F090EC9093240110928F079F
:105AA00090E0019746E1489F9001499F300D1124F5
:105AB000C9018E5E994F9F838E83F901E754FA4F97
:105AC0002F011F01FBE52F0E311C32013F862E8670
:105AD000C2018E599F4F9B878A87F201E759FF4F7A
