:100000000C94650D0C94392B0C94012B0C94EC2B57
:100010000C948B0D0C94AB2B0C948B0D0C94722BBD
:100020000C948B0D0C948B0D0C948B0D0C948B0DF0
:100030000C948B0D0C948B0D0C948B0D0C948B0DE0
:100040000C948B0D0C948B0D0C94EA2A0C948B0D54
:100050000C94A82C0C948B0D0C948B0D0C948B0D84
:100060000C948B0D0C948B0D0C948B0D0C948B0DB0
:100070000C948B0D0C948B0D0C948B0D8A1AFA1A20
:10008000FA1A9B1AA81AB21AAE1ABE1ACA1ACE1AAD
:10009000DA1A0E33103313331533173319331B3376
:1000A0001D33203322332433263328332A332C3391
:1000B0002E33313333333533FFFF01FF01FF01FFAF
:1000C000FF010101FF0101FFFFFF0001020200012A
:1000D000000102000102010002000201010200030E
:1000E00004050607000102030405060705020601D0
:1000F0000508030705010241050D000F002200332A
:100100000044004F090100030007000F001F000F0B
:1001100000070003000100081C001C001C001C005C
:100120007F003E001C0008000808001C003E007F05
:10013000001C001C001C001C0005FF01FE007C00D0
:10014000380010000D40006000700078007C007ED8
:10015000007F007E007C007800700060004000019D
:1001600002205B1300BB00C500CC00CC00CC00CC4F
:1001700001030103010301160129012901290136A7
:10018000014901500150016F018801A401C001DF44
:1001900001FB021A023602550274027B027B027BCB
:1001A000027B027B0294029402BC02DB02FD03226A
:1001B000033E035A038203A103B403CA03EC0408F9
:1001C000042D044C0474048D04B504D704F9051EF1
:1001D000053D0565059905BB05E006020602061BFF
:1001E000061B061B061B061B063406500669068501
:1001F00006A106B406D006E906F00700071C07238F
:10020000074E0767078607A207BE07D107EA07FD63
:1002100008160832085D0879089503000000000000
:100220000000000002FE6700FE670012780000FE7A
:100230000100020100020100020100FE410078708D
:1002400000001C00000700E000003800000E1E0047
:10025000827F00804000804000804000807F00005E
:100260001E0006C01F00F8FF003CE0010700070366
:100270000006010004060100040300060700073C15
:10028000E001F8FF00C01F000400000300F00300BD
:1002900070000010000600030000030000030000CF
:1002A0000300000300000300020070000070000A59
:1002B000F00F00FC3F000C300006600006600006F6
:1002C00060000660000C3000FC3F00F00F000818D2
:1002D0006000186000186000FE7F00FE7F00006074
:1002E00000006000006000090C7000067800066CD9
:1002F000000666000663008E6100FC600078600006
:10030000006000090C300006600006600086610095
:10031000866100866100CE73007C3F00381E000AB3
:10032000000700800700C00700F006003806001C28
:100330000600FE7F00FE7F000006000006000900A8
:100340003000FE6000FE6000C66000C66000C6604F
:1003500000C63100863F00060F000AE00F00F03FA4
:10036000009C3000CC6000C66000C66000C6600023
:10037000C63100863F00000F00090600000640005D
:10038000067000067C00060F00C60300F600003E63
:1003900000000E00000A381E007C3F00CE7100C62F
:1003A0006000C660008661008661004E73007C3F7D
:1003B00000381E000AF00000FC61008C6300066338
:1003C000000663000663000633000C3900FC1F00C2
:1003D000F0070002707000707000080C000006004A
:1003E00000066700066700860100CE0000FC0000E2
:1003F0003800000D004000007800003F00C00700FA
:10040000F806003E06000606003E0600F80600C09C
:100410000700003F000078000040000AFE7F00FE59
:100420007F00866100866100866100866100C6618A
:10043000007C73003C3F00001E000BE00700F81F2B
:10044000001C38000C3000066000066000066000EA
:100450000660000660000620000C30000CFE7F00E5
:10046000FE7F000660000660000660000660000671
:1004700060000E70000C3000381C00F80F00E00720
:100480000009FE7F00FE7F00C66000C66000C660F7
:1004900000C66000C66000C66000C6600009FE7F3E
:1004A00000FE7F00860100860100860100860100B3
:1004B0008601008601000600000DE00700F81F001D
:1004C0003C3C000C30000E70000660000660000628
:1004D00063000663000663000663000C3F000C3FE8
:1004E000000AFE7F00FE7F00C00000C00000C000C8
:1004F00000C00000C00000C00000FE7F00FE7F00C2
:1005000006066000066000FE7F00FE7F00066000B9
:1005100006600007006000006000066000066000E2
:10052000067000FE3F00FE1F000BFE7F00FE7F00F6
:10053000800300C00100E00300700700381C001CAD
:1005400038000E700006600002400009FE7F00FEC9
:100550007F0000600000600000600000600000603C
:10056000000060000060000CFE7F00FE7F000E00B7
:1005700000380000E00100800700000700E00100F3
:100580003800000E0000FE7F00FE7F000AFE7F00A4
:10059000FE7F000E00003C0000E000008003000031
:1005A0001E00007800FE7F00FE7F000DE00700F8CF
:1005B0001F001C38000C300006600006600006605A
:1005C000000660000660000C30001C3800F81F00B8
:1005D000E0070008FE7F00FE7F0006030006030020
:1005E0000603008E0300FC0100F800000DE0070088
:1005F000F81F001C38000C30000660000660000682
:10060000600006E00106E0030C30071C3806F81F06
:1006100006E007060BFE7F00FE7F008601008601D4
:1006200000860100860700CE0E00FC1C00787000DA
:100630000060000040000B783000FC7000CE6000CD
:100640008661008661008661008661008661000621
:1006500033000C3F00001E000C06000006000006E0
:100660000000060000060000FE7F00FE7F0006007E
:10067000000600000600000600000600000AFE0F4B
:1006800000FE3F000070000060000060000060009D
:10069000006000007000FE3F00FE0F000D02000031
:1006A0001E0000FC0000E00300801F00007C000032
:1006B0006000007C00801F00E00300FC00001E00C2
:1006C00000020000110600007E0000F80700803FD5
:1006D00000007800007C00C00F007E0000060000D3
:1006E0007E0000E00700007E00007000807F00F8C0
:1006F00007007E00000600000B0240000660001E9E
:100700007800381C00E00700800100E00700381E78
:10071000001E78000660000240000C020000060087
:10072000001E0000780000E00000C07F00C07F00D5
:10073000E000007800001E00000600000200000B30
:10074000067000067800067C00066E00066700C68C
:100750006300E660007660003E60001E60000E6090
:1007600000080300001F0000FE0000F00700803FAB
:100770000000FC0100E00300000308003C00307EA4
:1007800000306700306300306300303300E07F00EA
:10079000E07F0009FF7F00FF7F00602000306000E5
:1007A000306000306000707000E03F00C00F000853
:1007B000800F00E03F0060300030600030600030AB
:1007C000600030600060300009801F00E03F007072
:1007D0007000306000306000306000303000FF7F1B
:1007E00000FF7F0009800F00E03F006033003063AE
:1007F00000306300306300706300E06300C03300CA
:1008000006300000FE7F00FF7F0033000033000051
:1008100003000009801F00E03F067070063060068C
:10082000306006306006303007F0FF03F0FF01084B
:10083000FF7F00FF7F0060000030000030000030CC
:100840000000F07F00E07F0002F67F00F67F0005E9
:10085000000006300006300006F6FF07F6FF030929
:10086000FF7F00FF7F00000600000700800F00C030
:10087000380070700030600010400002FF7F00FF01
:100880007F000EF07F00F07F00600000300000303D
:100890000000300000F07F00E07F006000003000CA
:1008A00000300000300000F07F00E07F0008F07FA3
:1008B00000F07F00600000300000300000300000D9
:1008C000F07F00E07F000A800F00E03F0060300012
:1008D000306000306000306000306000603000E068
:1008E0003F00800F0009F0FF07F0FF076060003055
:1008F0006000306000306000707000E03F00C00FAA
:100900000009801F00E03F00707000306000306020
:1009100000306000303000F0FF07F0FF0706F07F86
:1009200000F07F0060000030000030000030000068
:1009300008C03100E06300306300306300306600BF
:10094000306600303E00601C0006300000FE3F00B4
:10095000FE7F0030600030600030600008F01F0053
:10096000F07F00006000006000006000003000F0D8
:100970007F00F07F0009100000F00000E007000099
:100980003E00006000003E00E00700F000001000A4
:10099000000E300000F00300C03F00007800007C33
:1009A00000800700F00000F00000C00700003C00DD
:1009B000007000C03F00F00300300000091040004C
:1009C000306000F07800C01D00000700C01D00F07E
:1009D000780030600010400009100000F00000E0D6
:1009E000070600BF0700F001003F00E00700F0002D
:1009F0000010000008307000307800307C00306655
:100A000000306300F06100F06000706000010220BF
:100A10005B0B00BB00BE00C100C100C100C100D61D
:100A200000D600D600DD00E400E400E400E900F0B8
:100A300000F300F300FE01090114011F012C01372E
:100A40000142014D015801630166016601660166BC
:100A50000166016F016F017C0189019801A701B254
:100A600001BD01CC01D901E001E901F6020102104A
:100A7000021D022C0237024602530260026F027C02
:100A80000289029C02A902B802C502C502C502C5BC
:100A900002C502C502C502D002DB02E602F102FC79
:100AA00003050310031B031E032503300333034612
:100AB0000351035C03670372037B0384038D039874
:100AC00003A303B203BD03C8010000017E010A0CA9
:100AD00000120012008C0160001800C600200120E6
:100AE00001C00003F800060301040301040603F833
:100AF0000002000480030320002000200001800188
:100B000005FC00020102010201FC000504010401D0
:100B1000FE01000100010584014201220112010CC5
:100B200001058400020112011201EC000660005070
:100B30000048004400FE014000059E001201120121
:100B40001201E20005F800140112011201E0000593
:100B50000200820162001A00060005EC0012011278
:100B6000011201EC00051C0022012201A2007C0000
:100B7000019801040200620112000C0006C0017815
:100B800000460046007800C00106FE011201120175
:100B900012011C01E000077800840002010201023A
:100BA000010201840007FE010201020102010201AB
:100BB0008400780005FE01120112011201120105E4
:100BC000FE011200120012000200077800840002E9
:100BD00001020122012201E40006FE0110001000C2
:100BE00010001000FE01030201FE010201040001D9
:100BF00002010201FE0006FE0120003000480084D0
:100C000000020105FE01000100010001000107FED4
:100C10000106001800600018000600FE0106FE0133
:100C20000600180060008001FE01077800840002C1
:100C300001020102018400780005FE012200220069
:100C400022001C00077800840002010201020384D4
:100C500004780406FE012200220062009C000001CC
:100C6000068C001201120122012201C400070200B9
:100C700002000200FE0102000200020006FE000067
:100C800001000100010001FE00060E00700080015D
:100C9000800170000E0009060078008001780006CF
:100CA00000780080017800060006860148003000C8
:100CB00030004800860107020004000800F0010827
:100CC00000040002000682014201220112010A0111
:100CD000060105C000280128012801F00105FF01D7
:100CE000080108010801F00005F0000801080108EA
:100CF00001900005F000080108010801FF0105F05E
:100D000000280128012801B000040800FE010900A4
:100D1000090005F000080508050805F80305FF01AE
:100D2000080008000800F00101F9010300040804AC
:100D3000F90305FF01400060009000080101FF0178
:100D400009F801080008000800F001080008000880
:100D500000F00105F801080008000800F00105F0A6
:100D600000080108010801F00005F8070801080162
:100D70000801F00005F000080108010801F8070467
:100D8000F80110000800080004300128014801C8DB
:100D900000040800FE000801080105F80000010039
:100DA000010001F8010518006000800160001800D2
:100DB000077800800160001800600080017800055D
:100DC0000801900060009000080105080070048090
:100DD0000370000800048801480128011801AF4091
:100DE000A0A6A4A2EEC82F24AC00F80007060504B4
:100DF0000302010035153C10371032102D10281059
:100E00004110411041108E1786178C178A178817CA
:100E100081177C1777177217B711D711D211CC1120
:100E2000FA1498179017041621161C161616121687
:100E30000E1641101D12141225120D120812621006
:100E40005D10581053104E1048104210F41141100C
:100E50005112491260145B1458144E144414A41017
:100E60009C1097103C1237122E128D110916811109
:100E7000E914E514DF14D61441104110351532156C
:100E8000BC10C310B21041104110E411DD116717FE
:100E90005517421730171A170B17F716E316D51602
:100EA000C616B716A81699168A167B166C1658160B
:100EB0003F1626164110411062105D107310781015
:100EC0007D108210F41125121D1214120D12081239
:100ED0000312FE11F911F411ED11E711CD14C6142E
:100EE000C011AA10971049113D114110FA10F110CC
:100EF000E810E410DB10D3104110411041109D1791
:100F0000C411621154114F1135112A114110CC1026
:100F1000C3104110411041101C1616161216291547
:100F200090141F1514150515FA14EE1441104110F4
:100F3000B914AF14A7149A146314661086147C14A1
:100F40007014661041104110F015E815DA15CD1532
:100F5000BF15B415AB15A2159315851576156A1531
:100F600063155C154F1543153915F81541104110DF
:100F70003C143114201413140814F813E813D91373
:100F8000C913B913A9139913891379136B135D133B
:100F90004E133F133213251319130D130113F412BB
:100FA000EA12E012D312C812BB12B012A312C81276
:100FB0009612B012411041105112491243124110C1
:100FC000251120111B11161111110C1107110211FD
:100FD00025121D1214120D1208120312FE11F9111E
:100FE0008D1283127B1273126A1262125912F4115B
:100FF0005112491243124110411078116F11AD1175
:10100000A7119B11B917B3172915AA17A817A61767
:1010100092108E10871021101A105175616420589B
:101020000051756164205000332E395600332E383C
:101030005600332E375600332E365600332E355693
:101040000000323630487A00313834487A0039347A
:10105000487A003434487A003231487A00313048D6
:101060007A0035487A004D505536303530204C5096
:10107000463A003137487A003237487A00333848E8
:101080007A003637487A007369676E616C006C6F5E
:1010900077006869676800486967680041726D6138
:1010A000626C650041726D65640053796E63205215
:1010B00043005265765363616C6564005363616CF1
:1010C0006564005265766572736564004E6F726D7B
:1010D000616C00506974636855700053696465778A
:1010E0006179730041667400496E76657274656457
:1010F00000566572746963616C00466F7277617245
:1011000064004F555438004F555437004F555436EE
:10111000004F555435004F555434004F555433004B
:101120004F555432004F5554310028446973617251
:101130006D656429002841726D65642900666F72CF
:10114000207374617475732E00507265737300445C
:101150006F6E6500486F6C642061732073686F77F1
:101160006E004E6F205258207369676E616C007379
:10117000657474696E6773005570646174696E6735
:101180000043616C2E206661696C656400455343C1
:101190002043616C69627261746500486F6C642001
:1011A000737465616479005265736574004F70658E
:1011B0006E4165726F320044697361726D656400DF
:1011C0004C6F770042617474657279004D6F64658D
:1011D0006C004C6F7374004572726F7200536967D4
:1011E0006E616C004E6F00456C65762E005468721F
:1011F0006F742E004E6F6E65004155583300415597
:10120000583200415558310047656172005275648B
:1012100064657200456C657661746F720041696C3B
:1012200065726F6E005468726F74746C65005371F0
:10123000727453696E650053696E65004C696E6522
:101240006172004D6F746F7200442E536572766F39
:1012500000412E536572766F00414C2050697463D3
:101260006800414C20526F6C6C004163635069749C
:10127000636800416363526F6C6C004779726F5909
:101280006177004779726F506974636800477972BB
:101290006F526F6C6C00503220536F757263652013
:1012A000423A00503120536F7572636520423A0014
:1012B000503220566F6C756D653A00503220536F76
:1012C0007572636520413A00503120566F6C756D20
:1012D000653A00503120536F7572636520413A00C2
:1012E0005032205A206163633A005031205A206105
:1012F00063633A00503220506974636820414C3A6D
:1013000000503120506974636820414C00503220F5
:10131000526F6C6C20414C3A00503120526F6C6C13
:1013200020414C3A00503220596177206779726F22
:101330003A00503120596177206779726F3A005036
:1013400032205069746368206779726F3A005031B7
:10135000205069746368206779726F3A00503220B8
:10136000526F6C6C206779726F3A00503120526F67
:101370006C6C206779726F3A005032205275642E7F
:1013800020766F6C756D653A005031205275642E71
:1013900020766F6C756D653A00503220456C652E75
:1013A00020766F6C756D653A00503120456C652E66
:1013B00020766F6C756D653A0050322041696C2E55
:1013C00020766F6C756D653A0050312041696C2E46
:1013D00020766F6C756D653A005468726F74746C2A
:1013E00065206375727665005032205468722E2035
:1013F000766F6C756D653A005031205468722E20FE
:10140000766F6C756D653A005032204F6666736575
:10141000743A0050312E6E204F66667365743A0040
:1014200050312E6E2025206F66207472616E733AE3
:10143000005031204F66667365743A0044657669E2
:1014400063653A0050312E6E202D2050320050310D
:10145000202D2050312E6E0050320050312E6E0063
:101460005031004C6F77205620416C61726D3A000C
:10147000414C20636F72726563743A004779726FF2
:10148000204C50463A004163632E204C50463A00AF
:1014900050574D20726174653A0044697361726DF2
:1014A0002074696D653A005361666574793A00434A
:1014B0006F6E74726173743A004F7269656E746115
:1014C00074696F6E3A00467574616261004A522C0D
:1014D00053706B746D005370656B7472756D00534F
:1014E0002D4275730050574D004350504D005472BB
:1014F000616E732E2050316E3A005472616E7369C2
:1015000074696F6E0050726F66696C652043686124
:101510006E2E3A0043682E206F726465723A005056
:10152000574D2073796E633A005258207479706574
:101530003A004F4E004F4646005961772074726959
:101540006D3A00596177204920726174653A0059FB
:1015500061772049204C696D69743A0059617720A0
:10156000493A0059617720503A0050697463682005
:101570007472696D3A005069746368204175746FC4
:101580004C766C3A0050697463682049207261742B
:10159000653A0050697463682049204C696D69742C
:1015A0003A00506974636820493A0050697463686E
:1015B00020503A00526F6C6C207472696D3A005280
:1015C0006F6C6C204175746F4C766C3A00526F6C86
:1015D0006C204920726174653A00526F6C6C20492E
:1015E000204C696D69743A00526F6C6C20493A0066
:1015F000526F6C6C20503A004163632056657274E0
:1016000020503A00496E762E0043616C2E004163F3
:10161000630059617700506974636800526F6C6CA5
:10162000004779726F0031392E20506F732E20538E
:101630006572766F207472766C2E20282529003111
:10164000382E204E65672E20536572766F20747297
:10165000766C2E202825290031372E20536572768E
:101660006F20646972656374696F6E0031362E2075
:101670004F555438204D697865720031352E204F12
:10168000555437204D697865720031342E204F55FE
:101690005436204D697865720031332E204F5554F1
:1016A00035204D697865720031322E204F55543403
:1016B000204D697865720031312E204F555433200A
:1016C0004D697865720031302E204F555432204DCF
:1016D0006978657200392E204F555431204D697854
:1016E000657200382E20466C696768742070726FCE
:1016F00066696C65203200372E20466C6967687415
:101700002070726F66696C65203100362E204C6542
:1017100076656C206D6574657200352E2053656E9C
:10172000736F722063616C6962726174696F6E00BD
:10173000342E20537469636B20706F6C617269740E
:101740007900332E20526563656976657220696E73
:101750007075747300322E20526563656976657208
:1017600020736574757000312E2047656E65726157
:101770006C0053617665004465662E004261636BC0
:10178000004D656E75004500440043004200410075
:101790004A69747465723A00506F733A004261741A
:1017A000746572793A0030002E0050726F66696C71
:1017B000653A004D6F64653A0056657273696F6EE5
:1017C0003A202020312E3120423130000101010128
:1017D000010101FFFFFFFF0101FF01FF0101000106
:1017E00002010200000102000102010002020100E8
:1017F000E17A0841C3F59040295C1F40713DCA3F22
:1018000052B89E3F0000803F0000803F0000803FB4
:101810000000B841AE4739413333BB4066664640AD
:10182000C3F5E83FCDCCAC3F52B89E3F0000803FAF
:10183000030F1B27007F01003C007F010028007D73
:1018400001000A0004010002007F010005817F0100
:101850000000007F01003C007F010028007D0100A6
:101860000A0004010002007F010005817F010000E1
:10187000007F010050007F010000007D010000009A
:1018800004010001817F010000007F0100000000D1
:101890000000000000000000000000000000000048
:1018A0000002010100837D01000001630100328319
:1018B0007D010000837D010000007D010064007D4A
:1018C0000100640002010100837D010000837D01AD
:1018D0000000837D010000837D010000837D010005
:1018E00000837D01000000020101000002010100EF
:1018F00000020101000002010100000201010000DC
:1019000002010100000201010000020101000002C9
:1019100001010000020101000002010100000201BA
:101920000100000F01010F837D010000000F010184
:101930000F837D010000000F01010F837D01000076
:10194000000F01010F837D010000E2000000000094
:10195000003800000000000044444444444444442F
:1019600044444444EE00EE00EE00EE0000010101AC
:1019700000830001039C007D0103648D8D8D8D8D9E
:101980008D8D8D00000000000000000000000000B0
:101990000000000003010101000201010000040138
:1019A00001040001010100000701010400280100F9
:1019B0000001630100320000000000000000000090
:1019C00000050101001C3201002400010101010099
:1019D0007F01001E00050101000006010102000751
:1019E0000101020007010107010A0100073E7669B3
:1019F0007469000000007C003500002525250000EA
:101A00000D1216191C1F21232628292B2D2F3032A9
:101A100033353638393A3B3D3E3F404142434445F9
:101A2000464748494A4B4C4D4D4E4F5051515253E9
:101A300053545555565757585859595A5A5B5B5C29
:101A40005C5D5D5E5E5E5F5F5F60606061616162A4
:101A50006262626263636363636363646464646455
:101A6000646464640002030506080A0B0D0E10117D
:101A700013141617191A1C1D1F2022232526282986
:101A80002B2C2D2F303233343637383A3B3C3D3F08
:101A90004041424344464748494A4B4C4D4E4F50C3
:101AA00051525354545556575858595A5A5B5C5CC6
:101AB0005D5E5E5F5F60606061616262626363631E
:101AC0006363646464646464640011241FBECFEFC4
:101AD000D0E1DEBFCDBF14BE88E10FB6F89480938D
:101AE0006000109260000FBE15E0A0E0B1E0E0EDF4
:101AF000F2E902C005900D92A431B107D9F728E0B0
:101B0000A4E1B5E001C01D92A534B207E1F70E943F
:101B1000131A0C9466490C94000000000895FDDF30
:101B2000FCDFFBDFFADF0895CF93AF93A5E0589871
:101B3000C6E70E94A40D589ACAE70E94A40DAA9570
:101B4000B1F7AF91CF91089500C000C000C000C0B0
:101B500000C000C000C000C00000CA95A9F70895E9
:101B6000F62EEF93FF93AF93BF93CF93DF930F9333
:101B70001F932F933F934F935F936F937F93E82F20
:101B8000F92F8F939F93A191B191A65CB040AF9331
:101B9000BF93A7707A2FA191B191AE5BB040AF9384
:101BA000BF93A7706A2FA191B191A65BB040AF938C
:101BB000BF93A7705A2FA191B191AE5AB040AF9385
:101BC000BF93A7704A2FA191B191A55AB040AF938E
:101BD000BF93A7703A2FA191B191AD59B040AF9387
:101BE000BF93A7702A2FA191B191A559B040AF938F
:101BF000BF93A7701A2FA191B191AD58B040AF9388
:101C0000BF93A7700A2F972F0E941E0FF0FC469AD1
:101C10000E942A0F962F0E941E0FF1FC449A0E94E8
:101C20002A0F952F0E941E0FF2FC429A0E942A0F43
:101C3000942F0E941E0FF3FC439A0E942A0F932FA9
:101C40000E941E0FF4FC149A0E942A0F922F0E94E9
:101C50001E0FF5FC159A0E942A0F912F0E941E0F4D
:101C6000F6FC459A0E942A0F902F0E941E0FF7FC47
:101C7000479A0E942A0F0E94FD0E0E94FD0E0E94AC
:101C8000FD0EBF91AF910E94170F0A2FBF91AF9128
:101C90000E94170F1A2FBF91AF910E94170F2A2F82
:101CA000BF91AF910E94170F3A2FBF91AF910E9441
:101CB000170F4A2FBF91AF910E94170F5A2FBF9154
:101CC000AF910E94170F6A2FBF91AF910E94170F1B
:101CD0007A2FCFEFD0E00024715019F446980C947D
:101CE000730E00C000C0615019F444980C947A0E31
:101CF00000C000C0515019F442980C94810E00C0ED
:101D000000C0415019F443980C94880E00C000C0E4
:101D1000315019F414980C948F0E00C000C021505B
:101D200019F415980C94960E00C000C0115019F4C7
:101D300045980C949D0E00C000C0015019F44798BE
:101D40000C94A40E00C000C00E94060FC150D00920
:101D500011F00C946C0E9F918F917F916F915F9118
:101D60004F913F912F911F910F91DF91CF91BF9193
:101D7000AF91FF91EF9108950F931F932F930CEF65
:101D800018E00024803071F0813079F0823081F0E9
:101D9000833089F0843091F0853099F08630A1F05D
:101DA0008730A9F0469A0C94EA0E449A0C94EA0EF5
:101DB000429A0C94EA0E439A0C94EA0E149A0C94EC
:101DC000EA0E159A0C94EA0E459A0C94EA0E479A7C
:101DD0000C94EA0E00C000C000C000C000C000C0EB
:101DE0006150700919F420E028B922B90150100996
:101DF00089F72F911F910F9108950F9305E600C069
:101E000000C000C00150D9F70F9108950F9309E069
:101E100000C000C000C00150D9F7000000C000C0E1
:101E20000F91089500C000C000C000C00895B6958D
:101E3000A795B695A795B695A7950895C7E097700D
:101E4000C92731F00E94120FCA9509F0FBCF00C0DC
:101E500000000895C92FC77031F00E94120FCA9573
:101E600009F0FBCF00C00895CF93DF93CDB7DEB765
:101E70002C970FB6F894DEBF0FBECDBF26E0AE01A3
:101E80004F5F5F4F6BE380ED0E949524898190E066
:101E9000982F88272A81820F911D36E09595879586
:101EA0003A95E1F798878F838B8190E0982F882768
:101EB0002C81820F911D56E0959587955A95E1F7F3
:101EC0009195819591099A8789878D8190E0982FC6
:101ED00088272E81820F911D76E0959587957A95BA
:101EE000E1F79C878B8720913106ACE3B5E043E0B6
:101EF00024029001112480E090E026533F4FF90125
:101F0000E80FF91FE491EE0FFF0B41E050E04C0F9A
:101F10005D1FE40FF51F468157814D935D93019638
:101F20008330910561F72C960FB6F894DEBF0FBE93
:101F3000CDBFDF91CF9108951F93CF93DF930E9480
:101F4000340F8091B00780FD05C010929807109261
:101F500097070EC08091990790919A0720919D074D
:101F600030919E07821B930B90939807809397075D
:101F700020913106C3E9D7E0ACE3B5E083E0280265
:101F80009001112480E090E028543F4F69917991AD
:101F9000F901E80FF91F14914D915C911197461BBF
:101FA000570B1403B001159F700D11246D937D9391
:101FB00001968330910551F76091990770919A07C6
:101FC0008091970790919807681B790B882777FD78
:101FD0008095982F0E9430472091990530919A055D
:101FE00040919B0550919C050E942D460E94FD4604
:101FF0007093150560931405DF91CF911F9108959B
:102000001F93CF93DF9300D000D000D0CDB7DEB7C1
:102010001A8219821C821B821E821D8281116FC04E
:1020200010E20E94340F89819A8120913C05309101
:102030003D05820F931F9A8389838B819C81209118
:102040003E0530913F05820F931F9C838B838D81CA
:102050009E812091400530914105820F931F9E8300
:102060008D838FE493EC0197F1F700C000001150CD
:10207000C1F6FE0131969E01295F3F4F808191811B
:10208000409645E0959587954A95E1F78193919320
:10209000E217F30799F789819A81909394078093C7
:1020A00093078B819C8190939607809395078091ED
:1020B0003106992787FD9095FC01EE0FFF1FE80F71
:1020C000F91FE654FF4F44912D813E814203C00128
:1020D000439F900D112490939A07809399078091C4
:1020E000B00782608093B0070E9493162B9A9FE7F7
:1020F00024E84EE1915020404040E1F767C08091D4
:10210000B00781FF66C010929C0710929B0710E2F7
:102110000E94340F80919B0790919C07209140056D
:1021200030914105820F931F90939C0780939B07EA
:102130008FE493EC0197F1F700C00000115041F7D4
:1021400080913106992787FD9095FC01EE0FFF1FC6
:10215000E80FF91FE654FF4F449120919B073091FF
:102160009C07205F3F4FB5E035952795BA95E1F77D
:102170004203C001439F900D112490939C078093CC
:102180009B0797FF26C02091990730919A07A901D4
:10219000481B590BCA019595879590939E0780938C
:1021A0009D07281B390B3093980720939707809140
:1021B000B00781608093B0070E9493162B9A5FE767
:1021C00084E89EE1515080409040E1F700C000005B
:1021D0002B9826960FB6F894DEBF0FBECDBFDF91C9
:1021E000CF911F91089541E06BE680ED0E947E241F
:1021F00048E06CE180ED0C947E248FEF80937E00AC
:1022000010927B00089580937C0086EC80937A0086
:1022100080917A0086FDFCCF0895CF92DF92EF92F5
:102220000F93CF93DF93CBE0D0E01F9B7FC00E9442
:102230009C0F60E070E0CB010E94F626219720976A
:10224000A1F720E030E040E052E460919505709104
:10225000960580919705909198050E942D460E94C1
:10226000FD46EB0120E030E040E852E4609191054A
:102270007091920580919305909194050E942D464E
:102280000E94FD466B01D7FD06C0C134D1052CF07C
:10229000C0E4D0E002C0C0E0D0E0D7FC08C081E8D4
:1022A000C816D10434F080E8C82ED12C02C0C12C4D
:1022B000D12C27E330E042E050E065EF70E08CE0A5
:1022C00090E00E942022EE24E39400E420E840E025
:1022D00060E080E091E00E943D2105E125E146E1DA
:1022E00066E380E091E00E943D2108E320E448E0BD
:1022F00060E480E091E00E94D32000E220E640E22A
:1023000060E280E091E00E94D32001E028E04C2FC1
:102310006C2D80E091E00E948F2180E091E00E948E
:10232000412080E091E00E9473207DCFDF91CF912A
:102330000F91EF90DF90CF9008950E94292E1F9B60
:10234000FAC01C9B0E94D8430E94434320E030E027
:1023500040E050E06DE07AE082E790E00E942022C9
:102360002AE030E040E050E06DE07AE080E290E08A
:102370000E94202224E130E040E050E06DE07AE06D
:1023800083E790E00E9420222EE130E040E050E020
:102390006DE07AE083E290E00E94202220E030E0CD
:1023A00046E450E06DE07AE08DE690E00E94202265
:1023B0002AE030E046E450E06DE07AE08EE690E01E
:1023C0000E94202224E130E046E450E06DE07AE013
:1023D0008FE690E00E9420222EE130E046E450E0BB
:1023E0006DE07AE080E790E00E9420228091210851
:1023F000909122084AE06BE575E00E94024920E0D6
:1024000030E045E250E06DE07AE00E949E3E80912F
:102410002508909126084AE06BE575E00E94024984
:102420002AE030E045E250E06DE07AE00E949E3E16
:1024300080912708909128084AE06BE575E00E949A
:10244000024924E130E045E250E06DE07AE00E948C
:102450009E3E8091290890912A084AE06BE575E03C
:102460000E9402492EE130E045E250E06DE07AE062
:102470000E949E3E80912B0890912C084AE06BE5CB
:1024800075E00E94024920E030E044E650E06DE053
:102490007AE00E949E3E80912D0890912E084AE09D
:1024A0006BE575E00E9402492AE030E044E650E026
:1024B0006DE07AE00E949E3E80912F089091300856
:1024C0004AE06BE575E00E94024924E130E044E611
:1024D00050E06DE07AE00E949E3E8091310890913C
:1024E00032084AE06BE575E00E9402492EE130E0D7
:1024F00044E650E06DE07AE00E949E3E29E330E041
:1025000040E050E065EF70E08CE090E00E94202217
:1025100027E330E04EE650E06DE07AE08CE390E0B7
:102520000E94202280E091E00E94412080E091E022
:102530000E94732004CF08951F9BEDC01C991AC000
:102540001C990AC02FE38DE093E021508040904019
:10255000E1F700C00000F4CF2FE382E49FE02150B8
:1025600080409040E1F700C000000E94332380E0EB
:102570000E9400101D990CC02FE382E49FE02150BF
:1025800080409040E1F700C0000081E00E94001010
:102590000E9406230E949C0F20E030E045E250E0BC
:1025A0006DE07AE08AE190E00E94202220E030E0B5
:1025B0004DE450E06DE07AE08EE190E00E94202250
:1025C0002DE030E045E050E06DE07AE08BE190E016
:1025D0000E94202227E130E045E050E06DE07AE003
:1025E0008CE190E00E94202221E230E045E050E0C2
:1025F0006DE07AE08DE190E00E9420224AE06BE5F8
:1026000075E080916B0590916C050E9402492DE068
:1026100030E048E250E06DE07AE00E949E3E4AE001
:102620006BE575E080916D0590916E050E94024901
:1026300027E130E048E250E06DE07AE00E949E3E03
:102640004AE06BE575E080916F05909170050E94FE
:10265000024921E230E048E250E06DE07AE00E9479
:102660009E3E4AE06BE575E080913C0590913D050A
:102670000E9402492DE030E040E550E06DE07AE054
:102680000E949E3E4AE06BE575E080913E05909188
:102690003F050E94024927E130E040E550E06DE04F
:1026A0007AE00E949E3E4AE06BE575E0809140052D
:1026B000909141050E94024921E230E040E550E05E
:1026C0006DE07AE00E949E3E29E330E040E050E079
:1026D00065EF70E08CE090E00E94202227E330E07C
:1026E0004CE650E06DE07AE08CE390E00E9420221E
:1026F00027E330E04BE450E06DE07AE089E190E0E0
:102700000E94202280E091E00E94412080E091E040
:102710000E94732011CF0895BF92CF92DF92EF9263
:10272000FF920F931F93CF93DF9300D000D0CDB7CC
:10273000DEB780E091E00E94732020E030E040E0CE
:1027400050E06DE07AE088E091E00E9420222CE0E9
:1027500030E040E050E06DE07AE08AE091E00E94F5
:10276000202228E130E040E050E06DE07AE08BE0AC
:1027700091E00E94202228E130E048E550E06DE041
:102780007AE087E190E00E9420222BE330E040E0F5
:1027900050E065EF70E089E090E00E94202227E39E
:1027A00030E04AE050E06DE07AE08EE090E00E9498
:1027B00020224091D205552747FD5095425C5F4F3E
:1027C0000CE02DE261E080E090E00E94E72E4AE01C
:1027D0006BE575E080911F05909120050E940249EC
:1027E00028E130E04EE650E06DE07AE00E949E3E47
:1027F0008091D2058130D9F42CE030E04DE450E0F6
:102800006DE07AE088E190E00E94202280911A0534
:1028100090911B054AE06BE575E00E9402492CE0AF
:1028200030E04EE650E06DE07AE00E949E3E8091FE
:102830001F0590912005181619064CF028E130E08C
:102840004DE250E06DE07AE080E390E031C0843604
:1028500091054CF028E130E04DE250E06DE07AE087
:1028600082E390E025C02091D805332727FD3095DD
:102870008217930749F428E130E04DE250E06DE023
:102880007AE081E390E014C0821793074CF428E1CA
:1028900030E04DE250E06DE07AE083E390E008C084
:1028A00028E130E04DE250E06DE07AE084E390E032
:1028B0000E94202280911E05811185C024E230E013
:1028C00040E050E06DE07AE085E890E00E94202250
:1028D0000E940D466C0164E670E00E9447488B013F
:1028E0004AE06BE575E0C8010E940249AE014F5F06
:1028F0005F4F6DE07AE00E944F3D4AE06BE575E086
:10290000C8010E94024924E230E04DE250E06DE04F
:102910007AE00E949E3E2CE920037001219FF00C7A
:102920001124EC0CFD1C0981112707FD1095035D96
:102930001F4F24E230E0A8016DE07AE08CE091E0E6
:102940000E942022AE014F5F5F4F6DE07AE088E089
:1029500095E00E944F3DC980AE014F5F5F4F6DE033
:102960007AE08AE095E00E944F3DB980DD24C7FC03
:10297000D0948AE0E816F10440F04AE06BE575E097
:10298000C7010E940249A80116C0A8014C0D5D1D97
:1029900024E230E06DE07AE08DE091E00E942022B8
:1029A0004AE06BE575E0C7010E940249A8014B0DA2
:1029B000511DB7FC5A954C0D5D1D24E230E06DE0D1
:1029C0007AE00E949E3E80911E05882309F453C040
:1029D00080911E0583FF13C025E230E04FE050E0F8
:1029E0006FE571E086E890E00E94202225E230E069
:1029F0004FE450E06FE571E08FE091E03AC08091E4
:102A00001E0581FF13C025E230E04EE150E06FE586
:102A100071E08BE490E00E94202225E230E047E361
:102A200050E06FE571E080E191E023C080911E05E8
:102A300080FF13C025E230E04BE050E06FE571E02D
:102A400089E690E00E94202225E230E042E550E055
:102A50006FE571E08EE091E00CC080911E0582FF71
:102A60000AC025E230E049E150E06FE571E082E123
:102A700090E00E94202280E091E00E94412080E0CE
:102A800091E00E9473200F900F900F900F90DF91B4
:102A9000CF911F910F91FF90EF90DF90CF90BF905B
:102AA0000895AF92BF92CF92DF92EF92FF920F9371
:102AB0001F93CF93DF93D090D905F090DA05A090C3
:102AC0003A061092D9051092DA0510923A06D0E033
:102AD000C0E01F9BB6C0C111B6C080E091E00E946B
:102AE000732092E0C92E10E061E1610FEE24E394BF
:102AF00008E228E240E080E091E00E943D2186E289
:102B0000B82EB10E20E3210F03E044E16B2D80E0ED
:102B100091E00E94D32028E3210F69E2610F06E0D3
:102B200045E180E091E00E94D32001E022E045E110
:102B30006B2D80E091E00E948F2163E3610F24E020
:102B400045E080E091E00E948F21CA9411F014E3E7
:102B5000CBCF29E330E040E050E065EF70E08CE05F
:102B600090E00E9420220E9443438091250890918A
:102B700026088033984F3CF08091250890912608D4
:102B8000813D97406CF0D1110BC02BE230E040E169
:102B900050E06FE571E087E890E00E9420224CC091
:102BA0008091250890912608843F91409CF4809163
:102BB0002508909126088D309E4F64F02BE230E07E
:102BC00049E050E06FE571E088E890E00E94202243
:102BD000D1E032C0809125089091260897FF03C06C
:102BE00081E08093D905809127089091280897FF6C
:102BF00003C081E08093DA058091290890912A082A
:102C000097FF03C081E080933A0680912508909158
:102C100026081816190684F4809127089091280830
:102C2000181619064CF48091290890912A08C1E0E1
:102C3000181619060CF0C0E080E091E00E944120D7
:102C400048CFCC2339F12BE230E048E250E06FE589
:102C500071E089E890E00E94202280E091E00E94EB
:102C6000412080E091E00E9473208FE794E82EE1FC
:102C7000815090402040E1F700C00000DF91CF91EB
:102C80001F910F91FF90EF90DF90CF90BF90AF908A
:102C90000C949316D092D905F092DA05A0923A06D8
:102CA000DF91CF911F910F91FF90EF90DF90CF9028
:102CB000BF90AF9008950F931F93CF93DF931F9210
:102CC000CDB7DEB78C0169830E94374969818617C9
:102CD00041F0C8010F90DF91CF911F910F910C949B
:102CE0003F490F90DF91CF911F910F910895EF927F
:102CF000FF920F931F93CF93DF93EC018B017A0127
:102D0000E80EF91ECE15DF0539F06991C8010E9461
:102D10005B160F5F1F4FF6CFDF91CF911F910F9181
:102D2000FF90EF900895F89448E052E060E070E082
:102D300089EA95E00E947716789408952F923F9241
:102D40004F925F926F927F928F929F92AF92BF92BB
:102D5000CF92DF92EF92FF920F931F93CF93DF9367
:102D6000CDB7DEB7C554D1400FB6F894DEBF0FBE65
:102D7000CDBF40912207CF5BDE4F4883C154D14085
:102D80004AE450E063E277E08BE697E00E94F04887
:102D90002BE336E0AE014F5C5E4FCE0101966DE154
:102DA000F901DC01762F01900D927A95E1F7869674
:102DB000235E3F4F8417950799F74E0183E1880EF4
:102DC000911C5E0194E1A90EB11C6E01E5E1CE0EED
:102DD000D11CCE014696CF5CDE4F99838883C153C8
:102DE000D1408E01025E1F4FFE017D96C75CDE4F13
:102DF000F983E883C953D1400696CD5CDE4F9983B1
:102E00008883C353D1403297C35CDE4FF983E88394
:102E1000CD53D1400297C95CDE4F99838883C75355
:102E2000D1403297C55CDE4FF983E883CB53D14064
:102E30000297CB5CDE4F99838883C553D1407E01D6
:102E400097E1E90EF11C3E01E5E06E0E711C81E098
:102E500090E08C0F9D1F835B9E4FCE5BDE4F99836E
:102E60008883C254D140FE013196C15CDE4FF983A4
:102E7000E883CF53D14082E0582E4424439449E163
:102E800050E0B301C80148970E94F048F401308037
:102E9000F5012081F6013081CF5CDE4FE881F981B8
:102EA000C153D1402080F30136FE02C0508201C0E0
:102EB000108248E050E0B701C8010196CC5BDE4FBC
:102EC0002883C454D140CB5BDE4F3883C554D140F6
:102ED0000E94F04880E090E0CB5BDE4F3881C55423
:102EE000D140CC5BDE4F2881C454D140C15CDE4F61
:102EF000E881F981CF53D140E80FF91F468D4D305D
:102F000011F44FE0468F02968830910579F7F4016D
:102F100030FE06C030FF02C0508203C0408201C0B4
:102F20001082F50120FF06C020FE02C0508203C0BF
:102F3000408201C01082F60131FE06C031FF02C09E
:102F4000508203C0408201C01082CF5CDE4FE88116
:102F5000F981C153D14021FF06C021FE02C0508239
:102F600003C0408201C01082F70132FE06C032FF6A
:102F700002C0508203C0408201C01082CB5CDE4F91
:102F8000E881F981C553D14022FF06C022FE02C06C
:102F9000508203C0408201C01082C55CDE4FE881D0
:102FA000F981CB53D14033FE06C033FF02C05082BB
:102FB00003C0408201C01082C95CDE4FE881F98104
:102FC000C753D14023FF06C023FE02C0508203C076
:102FD000408201C01082C35CDE4FE881F981CD538D
:102FE000D14034FE06C034FF02C0508203C040828C
:102FF00001C01082CD5CDE4FE881F981C353D1401E
:1030000024FF06C024FE02C0508203C0408201C0DB
:103010001082C75CDE4FE881F981C953D14035FE8B
:1030200006C035FF02C0508203C0408201C010823A
:10303000F80125FF06C025FE02C0508203C0408271
:1030400001C01082C15CDE4F88819981CF53D1408D
:103050008696C15CDE4F99838883CF53D14096E238
:10306000890E911CE6E2AE0EB11CF6E2CF0ED11C29
:10307000CF5CDE4F88819981C153D1408696CF5C69
:10308000DE4F99838883C153D1400A5D1F4FC75CCF
:10309000DE4FE881F981C953D140B696C75CDE4F57
:1030A000F983E883C953D140CD5CDE4F8881998193
:1030B000C353D1408696CD5CDE4F99838883C3533A
:1030C000D140C35CDE4FE881F981CD53D140B69643
:1030D000C35CDE4FF983E883CD53D140C95CDE4F3A
:1030E00088819981C753D1408696C95CDE4F998308
:1030F0008883C753D140C55CDE4FE881F981CB534B
:10310000D140B696C55CDE4FF983E883CB53D140FE
:10311000CB5CDE4F88819981C553D1408696CB5CCC
:10312000DE4F99838883C553D14096E2E90EF11CA6
:10313000E6E26E0E711CCE5BDE4F88819981C2542F
:10314000D1400817190709F09ACE8FE291E0FE01ED
:103150003196ABE3B6E001900D920197E1F7CF5BBA
:10316000DE4F9881C154D14090936A0786E38093E3
:10317000A905CB5BDE4F0FB6F894DEBF0FBECDBF07
:10318000DF91CF911F910F91FF90EF90DF90CF9043
:10319000BF90AF909F908F907F906F905F904F9077
:1031A0003F902F900895CF93DF93CDB7DEB7289748
:1031B0000FB6F894DEBF0FBECDBF8091D2058983D4
:1031C000809136068A838091D3058B838091D405C4
:1031D0008C838091D5058D839091D9059E839091A4
:1031E000DA059F8390913A06988727E0FE01319691
:1031F000A2EDB5E001900D922A95E1F79093360685
:10320000883019F487E08093D60587E38093A90579
:1032100028960FB6F894DEBF0FBECDBFDF91CF91D9
:103220000895E0913706E73028F4F0E0E45FFA4FC4
:10323000808101C087E080933706E0913806E7304F
:1032400028F4F0E0E45FFA4F808101C087E08093CA
:10325000380688E38093A9050895CF93DF9388E02B
:1032600092E0E9EAF5E0DF019C011D922150304037
:10327000E1F788E38093A90581E08093D20524E0FB
:103280002093D40582E08093370637E030933806E8
:103290008093360680E890E090939A078093990790
:1032A00084E280933206309339062093D6058EE16E
:1032B0008093340682E38093D805E4EEF0E0CAEA16
:1032C000D5E0A3E8B7E086EA9EE0249129938D93A8
:1032D0009D93319630E0EC3EF307B9F78EEB9AE020
:1032E0009093840780938307EFE5F6E0C3E7D7E088
:1032F0006BE777E052E32FE04CE934E6CF014E97DD
:10330000DC015C934896DC012C930496DC012C9341
:103310000297DC012C932083499384E6DB013D93E3
:10332000BD01B696B7E0EF38FB0741F7809344063E
:1033300080936D06809395068093BD066CE3609341
:10334000DB0555E05093DF056093E1055093E505FB
:1033500070E57093E70548E24093DC053AE030936E
:10336000DD054093E2053093E30522E02093DE057E
:103370002093E40591E09093EA056093ED05509366
:10338000F1056093F3055093F7057093F9054093A9
:10339000EE053093EF054093F4053093F505209347
:1033A000F0052093F6059093FC05809345068093E5
:1033B0006E06809396068093BE0690937406909353
:1033C0009C069093C406DF91CF910895CF93DF932D
:1033D0001F92CDB7DEB748E052E060E070E089EAC6
:1033E00095E00E9427498091A905863359F028F479
:1033F000853371F40E949E1605C0873329F0883307
:1034000049F006C00E94D3180E94111981E003C040
:103410000E942D1980E089830E94931689810F9064
:10342000DF91CF910895CF93DF93CDB7DEB7AB9700
:103430000FB6F894DEBF0FBECDBF0E941D2953E02A
:10344000652E712C18A61FA263E0B62E18E01F8A05
:103450001B861E8A1D8A1EA21DA21CA21BA21AA2C6
:1034600019A218A21F8E812C912C18861F821A8AED
:10347000198A188A1F861BA61AA61D8E1C8E198EE5
:10348000188E1E861D8671E6C72E71E5D72EE12C9B
:10349000F12C1B821C821D821E82212C312C2101C9
:1034A00021E0298700E01B8E1A861A8E1C861A825C
:1034B000809116058F5F809316058091DD07882324
:1034C00031F04D895E894F5F5F4F5E8B4D8B2D854F
:1034D0003E852C343C4498F02F892F5F2F8B4D89EB
:1034E0005E8950931B0540931A058091D3051E8A6F
:1034F0001D8A1E861D86823011F421E02B8F812FBC
:1035000090E08B30910508F075C0FC01E25CFF4F44
:103510000C94B04883B1807F803F41F080916E0071
:10352000816080936E0013E01F8A64C010926E0069
:1035300081E085BB5FC08091C207811149C0011144
:103540004CC080911705882309F454C014E054C07E
:103550000E948C1316E0198E188E41C01F9B4AC022
:1035600015E048C04F894A30E8F51F9B3DC0288DC3
:10357000398D23313341F0F113E02CC08091C20723
:10358000811134C0011132C080911705882339F1AF
:1035900018E030C00E942B2219E021C08091C207A0
:1035A000811126C0011124C080911705882321F1C3
:1035B00010E020C0299880911E05846080931E052C
:1035C0002B980E9446330E94D42814E01F8A14C00E
:1035D00014E000E021E0298311C014E000E031E0B4
:1035E00039830CC017E006C01AE0F4CF18E001C020
:1035F00010E000E0198202C041E049838091170584
:103600008823A1F080911E05826080931E05809121
:103610003306813081F480911E0582FD0CC08091BB
:103620001E05846080931E052B9805C080911E05A1
:103630008D7F80931E050E940D4620912F063091AC
:1036400030068217930720F480911E05886003C01E
:1036500080911E05877F80931E0580911E0583FD46
:1036600008C080911E0581FD04C080911E0580FF69
:1036700006C080911C0584FF02C0299A01C02998C8
:1036800080913306813009F08EC080912508909199
:10369000260881349C4F44F080912508909126089B
:1036A000803C93400CF44FC08091270890912808EB
:1036B00081349C4F44F08091270890912808803CE9
:1036C00093400CF440C08091290890912A088134DD
:1036D0009C4F3CF08091290890912A08803C9340AF
:1036E00094F18091210890912208C39764F53CE4FD
:1036F000231633064104510448F180912508909126
:10370000260880349C4F5CF480911E058B7F80934B
:103710001E050E9488232B9A0E94D42814C052EEC2
:10372000251654EE35064104510480F08091250899
:1037300090912608813C93404CF080911E05846056
:1037400080931E052B98212C312C210180911D0581
:1037500080FD11C080913406882369F080911E0598
:1037600082FD09C02F8138852C343C4438F02B85EC
:103770002F5F2B8701C01B8618861F82409134065D
:103780005B85252F30E0842F992787FD909528179A
:1037900039077CF04E316CF080911E058460809377
:1037A0001E052B9806C080911E058B7F80931E05F9
:1037B0002B9A0E9443438091210890912208C2973E
:1037C0005CF480911E058E7F80931E0588E1A5EE36
:1037D000B7E01D928A95E9F78091D605880F990B7D
:1037E000FC01ED5DF74F20813181253F314014F020
:1037F00022E006C0208131812D303E4F24F021E0AF
:103800002093A70702C01092A707F3E0BF1629F084
:103810002091D7053FA1321751F1B090A70741E0A1
:10382000B41661F052E0B516B1F0B1101DC010929F
:103830002105109223051092220516C024E0209342
:1038400021052091D805332727FD30953093230596
:103850002093220509C029E020932105A4E6B0E0C9
:10386000B0932305A09322052091D7052FA3309173
:10387000A7073E8F31E04E8D4B1101C030E0209103
:10388000D70521111BC0FC01ED5DF74F80819181AF
:1038900088519C4F97FF02C080E090E00A9664E157
:1038A00070E00E945B48653671050CF465C384E6E0
:1038B00090E09093200580931F0562C380912205BC
:1038C000909123059093200580931F05332399F051
:1038D0004E8D842F992787FD9095FC01EE0FFF1FD9
:1038E000E80FF91FEB0DF11DB7FCFA95E451FF4FFE
:1038F000E491E0932105222349F053EC2503C00114
:10390000112449895A898417950718F0332309F43B
:10391000A9C080912105811105C010922305109244
:10392000220522C0843031F48091D805992787FD83
:10393000909504C0893039F484E690E09093230593
:103940008093220511C0813079F48091D8059927A0
:1039500087FD9095209122053091230582179307CA
:103960001CF488E08093210580912105883079F44A
:103970008091D805992787FD909520912205309157
:103980002305281739071CF481E0809321058091D5
:1039900021058B7F823091F480912205909123053F
:1039A000019790932305809322051816190634F089
:1039B0001092230510922205109221058091210575
:1039C0008130C1F480912205909123050196909356
:1039D0002305809322052091D805332727FD3095B4
:1039E000821793073CF0309323052093220584E04F
:1039F00080932105809121058830C1F480912205B2
:103A0000909123050197909323058093220520919F
:103A1000D805332727FD3095281739073CF0309318
:103A200023052093220584E08093210580912105C0
:103A30008B7F8330A9F48091220590912305019614
:103A40009093230580932205843691054CF0A4E6DB
:103A5000B0E0B0932305A093220589E0809321056F
:103A60001A8A198A20912105222331F080911F059D
:103A700090912005009739F48CE0E1EFF7E0119286
:103A80008A95E9F70BC0293019F08436910531F495
:103A90008CE0A5EEB7E01D928A95E9F70E94E42B31
:103AA0009C8B8B8B88159905B8F480E090E0A1E0A1
:103AB000B0E088199909A109B1092B893C89820FC5
:103AC000931FA11DB11D2B813C814D815E81280F6B
:103AD000391F4A1F5B1F0CC08B899C898819990963
:103AE0002B813C814D815E81280F391F411D511D65
:103AF0002B833C834D835E838091B2003BA1831B6B
:103B0000280E311C411C511C4091B2004BA38091E6
:103B1000B2002EA1821B4F855889480F511D588B2A
:103B20004F872091B2002EA38091B2003DA1831B4C
:103B30004AA55BA5480F511D5BA74AA72091B2007B
:103B40002DA38091B2003F8D831B49895A89480F6C
:103B5000511D5A8B498B2091B2002F8F8091B2005A
:103B600038A1831B4D855E85480F511D5E874D87AB
:103B70002091B20028A38091B20039A1831B488D07
:103B8000598D480F511D598F488F2091B20029A39C
:103B90008091B2003AA1831B4F815885480F511D77
:103BA00058874F832091B2002AA38091B2003CA194
:103BB000831B4C8D5D8D480F511D5D8F4C8F209167
:103BC000B2002CA380911C0553FF02C0806101C08C
:103BD0008F7E80931C054F8558894D32514020F0CF
:103BE000188A1F8621E02A874AA55BA546325642DD
:103BF00018F081E0809317050E9406230E949C0F15
:103C00000E94E42B9C0116BC809118059091190527
:103C10002817390748F48091180590911905D901A2
:103C2000A81BB90BCD0108C080911805909119050A
:103C3000F901E81BF90BCF01309319052093180502
:103C40002091C5073091C607A0E0B0E022303105D1
:103C500018F44C015D0111C08090C5079090C60713
:103C6000A12CB12C3FE0880C991CAA1CBB1C3A95D6
:103C7000D1F7880E991EAA1EBB1E1092C60710927D
:103C8000C507C501B4010E94F6260E94D33E80916B
:103C9000C207882309F4C6C08091D305823064F43A
:103CA00021E029872B813C814D815E81243C324A71
:103CB0004105510508F419862A8121110EC0823070
:103CC00009F062C18091E0079091E10731E0398706
:103CD000843C924A40F419863BC0823009F054C1BA
:103CE00029852223A9F130E9C3163CE4D306E10477
:103CF000F10408F04DC14DECC4164FE3D406E104C5
:103D0000F10408F049C150EBC51656E3D506E104AD
:103D1000F10408F045C18AEDC8168FE2D806E10427
:103D2000F10408F041C198E8C9169AE2D906E10405
:103D3000F10408F03DC1A8E4CA16A6E2DA06E104DF
:103D4000F10498F521E02A832AE0622E712C38C014
:103D500035E0C31638E4D306E104F10408F02EC1BF
:103D60004EE9C41649E3D406E104F10408F02AC17F
:103D70005EE6C5165EE2D506E104F10408F026C150
:103D80008EE9C81687E2D806E104F10408F022C1E2
:103D90009BE9C91692E2D906E104F10460F421E03E
:103DA0002A8398E0692E712C0BC031E03A8389E0B8
:103DB000682E712C05C041E04A83B7E06B2E712C50
:103DC000109217050E94E42B9C8B8B8B8091D3055E
:103DD0008230B9F42A812223A1F03B8D311118C021
:103DE0008091C207811101E01092C2070E94162E35
:103DF0001BA61AA61B821C821D821E821A8E1C867E
:103E000011C01BA61AA61B821C821D821E820AC01C
:103E10001BA61AA61B821C821D821E821B8E41E0DD
:103E20004C871A828091C207811108C08091D30506
:103E3000823009F081C02C8521117EC08091C2079B
:103E4000882319F01092C20701E09091D305EFE3A7
:103E5000F6E020E030E080E0923029F44081442315
:103E600009F4BEC00BC0913039F44081411106C045
:103E7000498541110FC0B4C0191624F440811416AD
:103E80004CF010C091110EC04985411103C04A8504
:103E9000442341F041E050E0022E01C0440F0A9457
:103EA000EAF7842B2F5F3F4FB69628303105A1F6F5
:103EB0002A85222311F0188A1F8631E063167104C7
:103EC000D1F49230C1F4B501A4014E5850426109B9
:103ED0007109433D50436105710548F0A1E6CA2EC2
:103EE000A1E5DA2EE12CF12C21E02C8704C075012C
:103EF000640131E03C8789A70E9494400E941738F2
:103F00000E94B73789A54981442339F08BEE9CE2A2
:103F10000197F1F700C0000002C00E942D4480917B
:103F2000D305823031F4161417041CF491E0691A99
:103F30007108109216051A861614170474F02A8157
:103F4000222359F03A8D311108C08091D305823077
:103F500021F40E94292E41E04A8F80911E0528A558
:103F6000281719F0111101C017E030911E0538A76C
:103F7000BE8C8B889C889CCA7093200560931F051B
:103F800085E080932105A2CC66246394712C18CF20
:103F9000E4E06E2E712C0FC075E0672E712C0BC003
:103FA00066E0662E712C07C057E0652E712C03C0A9
:103FB00048E0642E712C41E04A8302CF33E0632E47
:103FC000712C0BC024E0622E712C07C095E0692E85
:103FD000712C03C086E0682E712C21E02A83F0CE7C
:103FE0004A85411157CF4ACF0F931F93CF93DF9349
:103FF000C7E0D0E0082F10E05C98C8010C2E02C08A
:10400000959587950A94E2F780FF02C0599A01C0FE
:1040100059985C9A0E948D0D219770F7DF91CF918E
:104020001F910F9108955F980C94F41F5F9A0C9460
:10403000F41FCF93C82F81E80E9413208C2FCF91BB
:104040000C941320CF93DF935D985E9887E893E1FB
:104050000197F1F700C000005E9ACEEDDDE0FE01B1
:1040600084910E9413202196FDE0CC3EDF07B9F732
:10407000809132060E94192088ECDF91CF910C9438
:104080001320DF92EF92FF920F931F93CF93DF9352
:10409000CCEEDDE08C01FE018491806B0E94132048
:1040A00080E00E94132080E10E94132080EE0E9495
:1040B00013207801D12CF70181917F010E941620F5
:1040C000D394F0E8DF12F7CF219600581F4F8DE010
:1040D000C43FD80701F7DF91CF911F910F91FF9057
:1040E000EF90DF90089520E034E0FC01A9011192E7
:1040F00041505040E1F70895CF93DF93D0E08D2FEA
:10410000806B0E941320C0E08C2F8F700E941320C0
:104110008C2F82958F7080610E94132080E00E9416
:104120001620CF5FC03881F7DF5FD83041F7DF91CD
:10413000CF91089567FD36C04034A0F5342F3695F1
:1041400036953695E62FF0E050E02223A9F020E8DE
:10415000329FE00DF11D1124E80FF91F4095509595
:104160004770552781E090E0042E01C0880F0A9423
:10417000EAF79081982B15C020E8329FE00DF11DE1
:104180001124E80FF91F409550954770552781E09D
:1041900090E0042E01C0880F0A94EAF78095908180
:1041A0009823908308959F92AF92BF92CF92DF920F
:1041B000EF92FF920F931F93CF93DF93EC01162F93
:1041C000F42ED22EA02FB0E0A41BB109B7FF03C07C
:1041D000B195A195B109ED2DF0E0E11BF109F7FFD3
:1041E00003C0F195E195F109BB24B394EA17FB07ED
:1041F00014F0B12C06C08D2DD02E082F812F1F2D2D
:10420000F82ED11630F48F2DF02E082F812F1D2D72
:10421000D82EAD2CA11AE02FF0E0EF19F109F7FF2D
:1042200003C0F195E195F1099E2ECA2CC694F016B3
:1042300010F401E010C00FEF0EC02E2DBB2071F066
:10424000412F6F2DCE010E949A20C918C7FE02C0CF
:10425000F00ECA0C1F5F1D1580F303C04F2D612F98
:10426000F1CFDF91CF911F910F91FF90EF90DF90F1
:10427000CF90BF90AF909F9008959F92AF92BF92C2
:10428000CF92DF92EF92FF920F931F93CF93DF9322
:10429000EC01F62EB42E922E162FC22ED12CC60E65
:1042A000D11CAA24AA94A00EA40E812F90E08C15F4
:1042B0009D0574F42E2D4B2D612FCE010E949A2066
:1042C0002E2D4A2D612FCE010E949A201F5FEDCF27
:1042D000DB2C10E00B0D111DCC24CA94C90CCF0CA3
:1042E0008D2D90E08017910774F42E2D4D2D6F2D9C
:1042F000CE010E949A202E2D4D2D6C2DCE010E94B4
:104300009A20D394EDCFDF91CF911F910F91FF9021
:10431000EF90DF90CF90BF90AF909F9008954F9215
:104320005F926F927F928F929F92AF92BF92CF9245
:10433000DF92EF92FF920F931F93CF93DF93EC01E5
:10434000962EA42EBB24B394B21A822E8194880C8C
:10435000122F742E721AE42EF12C6701C20ED11C9A
:10436000872D992787FD9095C816D90644F0202FF0
:10437000472D692DCE010E949A207394F1CF712CA4
:1043800071160CF04CC0B7FC04C011508394839498
:10439000B80C7394872D880F8F5FB80E6A2C611A42
:1043A0006701C10ED11C17FDDA94472C490C592C1A
:1043B0005718862D992787FD9095C816D90674F051
:1043C000202F462D642DCE010E949A20202F462DAD
:1043D000652DCE010E949A206394EBCF6A2C67185A
:1043E0006701C70CD11C77FCDA94412E490C592C7B
:1043F000511A862D992787FD9095C816D9060CF479
:10440000BFCF202F462D642DCE010E949A20202F51
:10441000462D652DCE010E949A206394EACFDF914C
:10442000CF911F910F91FF90EF90DF90CF90BF90B1
:10443000AF909F908F907F906F905F904F90089576
:10444000880F991F8C50924FFC01859194910C9488
:10445000703E0C94703E80E091E00E94732023E057
:1044600030E049E250E06FE571E089E790E00E94BA
:10447000202227E130E048E150E06FE571E08AE773
:1044800090E00E94202280911E0583FF13C02BE242
:1044900030E04CE050E06FE571E086E890E00E948B
:1044A00020222BE230E040E550E06FE571E086E746
:1044B00090E041C080911E0581FF13C02BE230E0E7
:1044C0004CE150E06FE571E08BE490E00E94202227
:1044D0002BE230E046E350E06FE571E08CE490E0E1
:1044E0002AC080911E0580FF13C02BE230E04AE015
:1044F00050E06FE571E089E690E00E9420222BE217
:1045000030E041E550E06FE571E087E390E013C0F3
:1045100080911E052BE230E082FF07C044E150E0AD
:104520006FE571E08BE890E006C04CE150E06FE58C
:1045300071E08AE890E00E94202280E091E00C94F3
:104540004120CF93DF93CDB7DEB72C970FB6F89409
:10455000DEBF0FBECDBF26E0AE014F5F5F4F63E40D
:1045600080ED0E949524898190E0982F88272A81E8
:10457000820F911D34E0959587953A95E1F79A87DA
:1045800089878B8190E0982F88272C81820F911D3D
:1045900054E0959587955A95E1F798878F838D819B
:1045A00090E0982F88272E81820F911D74E09595B9
:1045B00087957A95E1F79C878B8720913106ABE64A
:1045C000B5E043E024029001112480E090E0225203
:1045D000384EF901E80FF91FE491EE0FFF0B41E0AF
:1045E00050E04C0F5D1FE40FF51F468157814D933E
:1045F0005D9301968330910561F72C960FB6F89480
:10460000DEBF0FBECDBFDF91CF9108951F93CF9333
:10461000DF930E94A12220913106CFE9D7E0ABE6DB
:10462000B5E083E028029001112480E090E024535B
:10463000384E69917991F901E80FF91F14914D9164
:104640005C911197461B570B1403B001159F700D19
:1046500011246D937D9301968330910551F7DF917D
:10466000CF911F910895CF9386E0EFE9F7E0DF0146
:104670001D928A95E9F7C0E20E94A12240919F070E
:104680005091A00780916B0590916C05480F591FC0
:104690005093A00740939F072091A1073091A20754
:1046A00080916D0590916E05280F391F3093A207F8
:1046B0002093A1078091A3079091A40760916F05B3
:1046C00070917005860F971F9093A4078093A3079E
:1046D000C15091F6E5E055954795EA95E1F750937D
:1046E000A00740939F07F5E035952795FA95E1F7E8
:1046F0003093A2072093A107A5E095958795AA95E9
:10470000E1F79093A4078093A307CF910C9493169D
:104710002F923F924F925F926F927F928F929F92D1
:10472000AF92BF92CF92DF92EF92FF920F931F93BF
:10473000CF93DF93CDB7DEB765970FB6F894DEBFA2
:104740000FBECDBF1E861D86188A1F861A8A198A3B
:104750000E94332360919F077091A007882777FDFF
:104760008095982F0E94304769837A838B839C833E
:104770006091A1077091A207882777FD8095982FF7
:104780000E9430476D837E838F8398876091A30753
:104790007091A407882777FD8095982F0E94304755
:1047A00069877A878B879C871D8A1B8AE12CF12C6D
:1047B00000E010E08091B2009D89891BE80EF11C99
:1047C000E091B200ED8BFCE4EF16FF0628F08B8938
:1047D0008F5F8B8BE12CF12C0E94A122FE01319680
:1047E0006F01BBE62B2EB5E03B2ECE010D965C0192
:1047F0001C8AF101819091901F0120E030EC49E783
:1048000054E4F60160817181828193810E94E447C2
:104810002B013C01B401882777FD8095982F0E94D9
:1048200030479B01AC01C301B2010E942D4620E03C
:1048300030E04AE754E40E949546F60160837183B4
:10484000828393830E94FD46F501208131812617E2
:10485000370711F000E010E0F501619371935F01FB
:10486000FC89FF5FFC8B84E0C80ED11CF33009F695
:104870000F5F1F4F093C110520F00E94332381E098
:1048800001C080E0E7E8F3E13197F1F700C00000F4
:10489000811104C0FB89F63008F48CCF65960FB601
:1048A000F894DEBF0FBECDBFDF91CF911F910F9166
:1048B000FF90EF90DF90CF90BF90AF909F908F9040
:1048C0007F906F905F904F903F902F90089541E0C0
:1048D0006BE680ED0E947E2440E467E380ED0E9459
:1048E0007E2446E080913606481B6AE180ED0E94F6
:1048F0007E2448E16BE180ED0C947E24CF93DF931E
:1049000000D0CDB7DEB74A8369830E940B45698129
:10491000862F0E945B454A81842F0E945B450F9041
:104920000F90DF91CF910C944C45CF92DF92EF9294
:10493000FF920F931F93CF93DF9300D01F92CDB7B9
:10494000DEB7182FE22E4A835B8369830E940B45F2
:104950006981862F0E945B4581E0810F0E944A4554
:104960004A81C42E5B81D52E00E010E0F12C0E159B
:104970001F0584F40F5F1F4F0E151F0519F00E94CD
:104980007B4502C00E949445F6018083FFEFCF1A59
:10499000DF0AEDCF0F900F900F90DF91CF911F9115
:1049A0000F91FF90EF90DF90CF900C944C454F9279
:1049B0005F926F927F928F929F92AF92BF92CF92AF
:1049C000DF92EF92FF92CF93DF93CDB7DEB72897B8
:1049D0000FB6F894DEBF0FBECDBF6B017C01809097
:1049E000A1059090A205A090A305B090A4059B01FD
:1049F000AC010E94E44720E030E040E05FE30E9429
:104A0000E4479B01AC0160E070E080E89FE30E9416
:104A10002C4669837A838B839C834090A5055090B4
:104A2000A6056090A7057090A8059B01AC01C50183
:104A3000B4010E94E4476D837E838F839887A7012A
:104A40009601C301B2010E94E4479B01AC016D8154
:104A50007E818F8198850E942C4660938D0570938E
:104A60008E0580938F0590939005A7019601C5014F
:104A7000B4010E94E4476B017C0129813A814B819A
:104A80005C81C301B2010E94E4479B01AC01C701F4
:104A9000B6010E942D466093710570937205809354
:104AA00073059093740528960FB6F894DEBF0FBE79
:104AB000CDBFDF91CF91FF90EF90DF90CF90BF906F
:104AC000AF909F908F907F906F905F904F900895E0
:104AD000CF92DF92EF92FF9269017A0125EF31EADE
:104AE0004BE85CE30E94E447A70196010E94E4477B
:104AF0006B017C0126EA3AE046E85EE30E94E0476B
:104B000018169CF026EA3AE046E85EEBC701B601CB
:104B10000E94914687FF11C086EAC82E8AE0D82EEF
:104B200086E8E82E8EEBF82E08C096EAC92E9AE0A9
:104B3000D92E96E8E92E9EE3F92EC701B601FF9023
:104B4000EF90DF90CF9008958F929F92AF92BF9297
:104B5000CF92DF92EF92FF920F931F936B017C0134
:104B60006091810570918205809183059091840503
:104B7000A70196010E946825009124051091250542
:104B800020912605309127050093A1051093A205D9
:104B90002093A3053093A405009100051091010511
:104BA00020910205309103050093A5051093A605F9
:104BB0002093A7053093A8050E94D72480918D05E6
:104BC00090918E05A0918F05B0919005809324055A
:104BD00090932505A0932605B09327058090710535
:104BE00090907205A0907305B090740580920005B6
:104BF00090920105A0920205B0920305609185058F
:104C0000709186058091870590918805A70196018E
:104C10000E946825009128051091290520912A05F8
:104C200030912B050093A1051093A2052093A305B5
:104C30003093A4058092A5059092A605A092A705A1
:104C4000B092A8050E94D72480908D0590908E0583
:104C5000A0908F05B090900580922805909229052C
:104C6000A0922A05B0922B05809171059091720552
:104C7000A0917305B0917405809300059093010590
:104C8000A0930205B093030560916F0570917005C4
:104C9000882777FD8095982F0E943047A7019601BD
:104CA0000E9468258092A1059092A205A092A3057A
:104CB000B092A405C0902405D0902505E09026056B
:104CC000F0902705C092A505D092A605E092A70511
:104CD000F092A8050E94D72480918D0590918E05B1
:104CE000A0918F05B0919005809328059093290598
:104CF000A0932A05B0932B058091710590917205C0
:104D0000A0917305B09174058093240590932505B7
:104D1000A0932605B09327051F910F91FF90EF9068
:104D2000DF90CF90BF90AF909F908F900895CF92DB
:104D3000DF92EF92FF9220E030E044EB52E40E94D9
:104D4000E4476B017C0120E030E0A901609100059F
:104D50007091010580910205909103050E94914692
:104D600087FF18C020E030E0A901C701B6010E940A
:104D7000E047A701960118162CF460E070E084E388
:104D800093E404C060E070E084E393EC0E942C465E
:104D90006B017C01C701B601FF90EF90DF90CF90CF
:104DA0000895609128057091290580912A059091B8
:104DB0002B050E94972660939D0570939E05809316
:104DC0009F059093A0056091240570912505809121
:104DD0002605909127050E9497266093750570938C
:104DE0007605809377059093780508954F925F92AA
:104DF0006F927F928F929F92AF92BF92CF92DF92EB
:104E0000EF92FF920F931F93CF93DF93CDB7DEB74F
:104E100060970FB6F894DEBF0FBECDBF0E942E473D
:104E200069837A838B839C8320E836E948E15AE4DE
:104E30000E9495466D877E878F87988B8091D305DA
:104E400060913706823039F084E06802B0011124A5
:104E5000605F774E06C094E06902B0011124605192
:104E6000784E44E050E0CE0101960E94E748509011
:104E70003706C980DA80EB80FC802CE3622E25E0C7
:104E8000722E01E915E0D3016D917D913D018827D6
:104E900077FD8095982F0E9430474B015C01B7E069
:104EA0005B16F1F020E030E040E85FE3C701B601B7
:104EB0000E942C46F80120813181428153810E9459
:104EC000E447A50194010E942C46A70196010E9487
:104ED0009546D8016D937D938D939C93139709C04C
:104EE000B7FAB094B7F8B094F80180829182A282A8
:104EF000B3820C5F1F4FF2E46F16F5E07F0619F6E0
:104F000023EC35EF48E25FE36091910570919205E3
:104F100080919305909194050E94E4476D837E8370
:104F20008F8398876093790570937A0580937B05CA
:104F300090937C0523EC35EF48E25FE360919505A3
:104F40007091960580919705909198050E94E4478D
:104F500069877A878B879C8760937D0570937E0530
:104F600080937F059093800560916B0570916C052F
:104F7000882777FD8095982F0E9430472B013C01B0
:104F800060938505709386058093870590938805C7
:104F900060916D0570916E05882777FD8095982F3B
:104FA0000E9430476B017C016093810570938205FC
:104FB000809383059093840520913C0530913D05B5
:104FC00040913E0550913F05E0914005F09141052B
:104FD000449F4001459F900C900C1124B4018827F8
:104FE00077FD8095982F229FA001239F500D500D93
:104FF00011248A01222717FD2095322F600F711F7F
:10500000821F931FEE9F9001EF9F300D300D1124F2
:105010008901222717FD2095322F600F711F821FF3
:10502000931F0E942E474B015C0120E034EF48E3C0
:1050300056E40E94E04718160CF06FC020E038E4F8
:1050400049EA56E4C501B4010E94914687FF65C054
:1050500020E030E040E05FE36091000570910105E1
:1050600080910205909103050E94E04718160CF00C
:1050700054C0809139066BE070E0681B710987FDB0
:105080007395882777FD8095982F0E9430474B01B4
:105090005C012D813E814F81588560919D05709105
:1050A0009E0580919F059091A0050E942C46A50128
:1050B00094010E9495469B01AC01C301B2010E947C
:1050C0002D466093850570938605809387059093A0
:1050D000880529853A854B855C85609175057091B9
:1050E000760580917705909178050E942C46A50160
:1050F00094010E9495469B01AC0169837A838B835E
:105100009C83C701B6010E942D4660938105709370
:10511000820580938305909384056D857E858F85B8
:1051200098890E94A4250E94D12620E030E048EC16
:1051300052EC60919D0570919E0580919F05909124
:10514000A0050E94E4470E94FD4670938A05609383
:10515000890520E030E048EC52EC609175057091D3
:10516000760580917705909178050E94E4470E942A
:10517000FD4670938C0560938B0560960FB6F8948E
:10518000DEBF0FBECDBFDF91CF911F910F91FF907A
:10519000EF90DF90CF90BF90AF909F908F907F90D7
:1051A0006F905F904F9008951092280510922905F6
:1051B00010922A0510922B051092240510922505B5
:1051C000109226051092270580E090E0A0E8BFE34A
:1051D0008093000590930105A0930205B093030509
:1051E0001092A1051092A2051092A3051092A40599
:1051F0001092A5051092A6051092A7051092A80579
:1052000010929D0510929E0510929F051092A00588
:105210001092750510927605109277051092780518
:105220001092C6071092C507109285001092840054
:1052300010921905109218050895CF9380E381B953
:105240008CEF87B98AE084B982EF8AB918B81498CC
:1052500015982B9829985C9A85EF83B98CE089B9C9
:105260002FE588ED93E0215080409040E1F700C0A9
:10527000000083B1807F803E21F483EF8AB90E94D1
:10528000940D82EF8AB98DE089B914BC85E085BDA3
:1052900080916E00816080936E0016BC1092800039
:1052A000809181008260809381001092B00087E03D
:1052B0008093B1001092700017BA1092B2009AE079
:1052C000909368009FE09BBB95E1909369008CBB35
:1052D0001092C2070E94E619C82F20E030E046EA8B
:1052E0005EE0F901EE0FFF1FEE54F84F518340834B
:1052F0002F5F3F4F28303105A1F724EC39E0309380
:10530000B3072093B2070E9422200E947C2093B111
:10531000907F903609F071C080EC0E94132080E0ED
:1053200091E00E94732029E130E04AE050E06FE50F
:1053300071E08BE390E00E94202280E091E00E94E7
:10534000412080E091E00E947320EFE3F6E080E0EE
:1053500090E04CED55E06CE677E0A0819C01220FD7
:10536000331FA23039F4D901AB5CB74F11967C934F
:105370006E9306C0D901AB5CB74F11965C934E9308
:105380000196B6968830910541F783B1807F8036CB
:1053900079F46FEF85E398E00E94B00D2FE788E382
:1053A00091E0215080409040E1F700C00000EDCF37
:1053B000EFE3F6E080E090E02CE434E0408142301E
:1053C00041F4DC01AA0FBB1FAB5CB74F11963C93B5
:1053D0002E930196B6968830910581F76FEF85E39D
:1053E00098E00E94B00D2FE788E391E021508040C3
:1053F0009040E1F700C00000F1CF2FE78FE492E189
:10540000215080409040E1F700C0000093B1907FB0
:10541000903951F580EC0E94132080E091E00E94C9
:10542000732029E130E048E250E06FE571E086E06A
:1054300091E00E94202280E091E00E94412080E0E3
:1054400091E00E9473200E942D190E949316809172
:1054500032060E9419202FE784E89EE12150804007
:105460009040E1F700C00000CC2321F180EC0E94C5
:10547000132080E091E00E9473202DE030E04EE1A7
:1054800050E06FE571E083E091E00E94202225E288
:1054900030E041E250E06FE571E084E091E00E948D
:1054A000202280E091E00E94412080E091E00E9473
:1054B000732004C080E091E00E9441202FEF88E03B
:1054C0009DE3215080409040E1F700C0000080E063
:1054D00091E00E94732080E091E00E9441200E94B0
:1054E00022200E94C8440E9467240E94F31080E09A
:1054F00091E00E94732080EC0E94132029E130E0AB
:1055000042E150E06FE571E087E091E00E942022E7
:1055100080E091E00E94412080E091E00E947320B1
:105520000E94FD100E94292E0E94AD450E948823F2
:10553000811128C080E091E00E94732029E130E0D1
:1055400049E150E06FE571E08DE390E00E94202298
:1055500080E091E00E9441202FEF88E09DE3215000
:1055600080409040E1F700C00000F89428E088E116
:1055700090E00FB6F894A895809360000FBE20933A
:105580006000FFCF0E940D4690932D0580932C055F
:105590000E94653680913306813029F480911E0582
:1055A000846080931E058091C207882369F00E9461
:1055B00043438091210890912208C3972CF0809159
:1055C0001E05816080931E050E94D42881E0CF9142
:1055D0000C94DF301F920F920FB60F9211248F930D
:1055E0009F938091C5079091C60701969093C60737
:1055F0008093C5079F918F910F900FBE0F901F90C2
:1056000018951F920F920FB60F9211242F933F936C
:105610008F939F938091DC07882319F081E080931A
:10562000DD074B9B09C08091840090918500909389
:10563000CA078093C90714C08091840090918500A7
:105640002091C9073091CA07821B930B9093B5072D
:105650008093B4078091D405813011F48093C20700
:105660009F918F913F912F910F900FBE0F901F90A0
:1056700018951F920F920FB60F9211242F933F93FC
:105680008F939F938091DC07882319F081E08093AA
:10569000DD074A9B09C0809184009091850090931A
:1056A000CC078093CB0715C0809184009091850032
:1056B0002091CB073091CC07821B930B9093B707B7
:1056C0008093B6078091D405823019F481E08093ED
:1056D000C2079F918F913F912F910F900FBE0F9016
:1056E0001F9018951F920F920FB60F9211242F93AF
:1056F0003F938F939F938091DC07882319F081E07B
:105700008093DD07489B09C08091840090918500BB
:105710009093C8078093C70715C08091840090912B
:1057200085002091C7073091C807821B930B909387
:10573000B3078093B2078091D405811103C081E043
:105740008093C2079F918F913F912F910F900FBE31
:105750000F901F9018951F920F920FB60F92112461
:105760002F933F938F939F938091DC07882319F0A9
:1057700081E08093DD07189B09C08091840090919F
:1057800085009093D0078093CF0715C08091840047
:10579000909185002091CF073091D007821B930B09
:1057A0009093BB078093BA078091D405843019F495
:1057B00081E08093C2079F918F913F912F910F902D
:1057C0000FBE0F901F9018952FB7F894809184000A
:1057D000909185002FBF08951F920F920FB60F92E0
:1057E00011242F933F934F935F936F937F938F93E6
:1057F0009F93AF93BF93EF93FF938091DC07882330
:1058000019F081E08093DD070E94E42B2091D205FE
:105810002223D1F01A9B05C09093CE078093CD0729
:1058200086C02091CD073091CE07821B930B9093B9
:10583000B9078093B8078091D405833009F077C009
:1058400081E08093C20773C01A9971C02091DA0772
:105850003091DB07AC01421B530B9A012F353A41C3
:1058600058F42091DA073091DB07AC01421B530B4F
:105870009A012E3E324010F41092D9079093DB0724
:105880008093DA07E091D907F0E0E755FA4FE1811C
:105890002091D907222339F0A091D907B0E0A7556C
:1058A000BA4F2C9101C020E03091D907383038F43C
:1058B000F0E0EE0FFF1FE953F84F918380833091A2
:1058C000D907332399F03091D907393078F430E093
:1058D000220F331FF901E953F84F40815181841B96
:1058E000950BF901EE54F84F918380838091D9078D
:1058F0008F5F8093D9079091D9078091C30789174B
:1059000028F48091D9078093C30709C09091D907E3
:105910008091C307981303C081E08093C2078091F0
:105920001705882321F01092C30710921705FF91E5
:10593000EF91BF91AF919F918F917F916F915F9107
:105940004F913F912F910F900FBE0F901F90189580
:105950001F920F920FB60F9211242F933F934F93E4
:105960005F936F937F938F939F93AF93BF93CF93E7
:10597000EF93FF938091DC07882319F081E08093F7
:10598000DD07C091C6000E94E42B2091DA07309118
:10599000DB072091DA073091DB07AC01421B530B88
:1059A0009A01253C59E0350790F01092B10710920A
:1059B000C4071092D9071092DF071092DE071092E9
:1059C000D8071092D7073093E1072093E007909310
:1059D000DB078093DA078091B107893150F4E091B9
:1059E000B10781E08E0F8093B107F0E0EE5BFA4FD4
:1059F000C0838091D205823009F090C08091C407A5
:105A0000883109F0FCC0CC2359F081E0CF3C08F488
:105A100080E091E3899FC00D1124C43009F0EFC0EC
:105A20008091590585FDEBC081E08093C20780E03D
:105A300090E0FC01EE0FFF1FEE54F84F1182108230
:105A4000019688309105A9F7A8E570E0C0E060E014
:105A5000B1E021E030E0EB2FF0E0EE5BFA4F808127
:105A600090E0062E02C0959587950A94E2F780FF94
:105A700017C0EC2FF0E0E755FA4FE181F0E0EE0FB0
:105A8000FF1FEE54F84F80819181A901072E02C0BB
:105A9000440F551F0A94E2F7842B952B9183808342
:105AA0006F5F7F5F683011F4BF5F60E07B3011F49F
:105AB000CF5F70E0A15079F640E050E0FA01EE0FC0
:105AC000FF1FEE54F84F208131813450C901959564
:105AD000879595958795820F931FB901A3E07595DA
